{
  "_format": "hh-sol-artifact-1",
  "contractName": "CholoDromeModule",
  "sourceName": "contracts/CholoDromeModule.sol",
  "abi": [
    {
      "inputs": [
        {
          "internalType": "address",
          "name": "_owner",
          "type": "address"
        },
        {
          "internalType": "address",
          "name": "_rewardToken",
          "type": "address"
        },
        {
          "internalType": "address",
          "name": "_rewardStable",
          "type": "address"
        },
        {
          "internalType": "address",
          "name": "_swapRouter",
          "type": "address"
        },
        {
          "internalType": "address",
          "name": "_weth",
          "type": "address"
        }
      ],
      "stateMutability": "nonpayable",
      "type": "constructor"
    },
    {
      "inputs": [
        {
          "internalType": "address",
          "name": "owner",
          "type": "address"
        }
      ],
      "name": "OwnableInvalidOwner",
      "type": "error"
    },
    {
      "inputs": [
        {
          "internalType": "address",
          "name": "account",
          "type": "address"
        }
      ],
      "name": "OwnableUnauthorizedAccount",
      "type": "error"
    },
    {
      "anonymous": false,
      "inputs": [
        {
          "indexed": true,
          "internalType": "address",
          "name": "safe",
          "type": "address"
        },
        {
          "indexed": true,
          "internalType": "address",
          "name": "pool",
          "type": "address"
        },
        {
          "indexed": false,
          "internalType": "uint256",
          "name": "tokenId",
          "type": "uint256"
        }
      ],
      "name": "DepositMaxCompleted",
      "type": "event"
    },
    {
      "anonymous": false,
      "inputs": [
        {
          "indexed": true,
          "internalType": "address",
          "name": "safe",
          "type": "address"
        },
        {
          "indexed": true,
          "internalType": "address",
          "name": "pool",
          "type": "address"
        },
        {
          "indexed": false,
          "internalType": "uint256",
          "name": "tokenId",
          "type": "uint256"
        },
        {
          "indexed": false,
          "internalType": "uint256",
          "name": "amount0",
          "type": "uint256"
        },
        {
          "indexed": false,
          "internalType": "uint256",
          "name": "amount1",
          "type": "uint256"
        },
        {
          "indexed": false,
          "internalType": "uint256",
          "name": "veloAmount",
          "type": "uint256"
        },
        {
          "indexed": false,
          "internalType": "uint256",
          "name": "totalUsdtAmount",
          "type": "uint256"
        }
      ],
      "name": "EarningsCollected",
      "type": "event"
    },
    {
      "anonymous": false,
      "inputs": [
        {
          "indexed": true,
          "internalType": "address",
          "name": "previousOwner",
          "type": "address"
        },
        {
          "indexed": true,
          "internalType": "address",
          "name": "newOwner",
          "type": "address"
        }
      ],
      "name": "OwnershipTransferred",
      "type": "event"
    },
    {
      "anonymous": false,
      "inputs": [
        {
          "indexed": true,
          "internalType": "address",
          "name": "safe",
          "type": "address"
        },
        {
          "indexed": true,
          "internalType": "address",
          "name": "pool",
          "type": "address"
        }
      ],
      "name": "PoolApproved",
      "type": "event"
    },
    {
      "anonymous": false,
      "inputs": [
        {
          "indexed": true,
          "internalType": "address",
          "name": "safe",
          "type": "address"
        },
        {
          "indexed": true,
          "internalType": "address",
          "name": "pool",
          "type": "address"
        }
      ],
      "name": "PoolRemoved",
      "type": "event"
    },
    {
      "anonymous": false,
      "inputs": [
        {
          "indexed": true,
          "internalType": "address",
          "name": "oldStable",
          "type": "address"
        },
        {
          "indexed": true,
          "internalType": "address",
          "name": "newStable",
          "type": "address"
        }
      ],
      "name": "RewardStableUpdated",
      "type": "event"
    },
    {
      "anonymous": false,
      "inputs": [
        {
          "indexed": true,
          "internalType": "address",
          "name": "oldToken",
          "type": "address"
        },
        {
          "indexed": true,
          "internalType": "address",
          "name": "newToken",
          "type": "address"
        }
      ],
      "name": "RewardTokenUpdated",
      "type": "event"
    },
    {
      "anonymous": false,
      "inputs": [
        {
          "indexed": false,
          "internalType": "uint256",
          "name": "oldTolerance",
          "type": "uint256"
        },
        {
          "indexed": false,
          "internalType": "uint256",
          "name": "newTolerance",
          "type": "uint256"
        }
      ],
      "name": "SlippageToleranceUpdated",
      "type": "event"
    },
    {
      "inputs": [],
      "name": "WETH",
      "outputs": [
        {
          "internalType": "address",
          "name": "",
          "type": "address"
        }
      ],
      "stateMutability": "view",
      "type": "function"
    },
    {
      "inputs": [
        {
          "internalType": "address",
          "name": "pool",
          "type": "address"
        }
      ],
      "name": "approvePool",
      "outputs": [],
      "stateMutability": "nonpayable",
      "type": "function"
    },
    {
      "inputs": [
        {
          "internalType": "address",
          "name": "",
          "type": "address"
        }
      ],
      "name": "approvedPools",
      "outputs": [
        {
          "internalType": "bool",
          "name": "",
          "type": "bool"
        }
      ],
      "stateMutability": "view",
      "type": "function"
    },
    {
      "inputs": [
        {
          "internalType": "address",
          "name": "pool",
          "type": "address"
        },
        {
          "internalType": "uint256",
          "name": "tokenId",
          "type": "uint256"
        },
        {
          "components": [
            {
              "internalType": "address",
              "name": "token",
              "type": "address"
            },
            {
              "internalType": "uint256",
              "name": "price",
              "type": "uint256"
            }
          ],
          "internalType": "struct CholoDromeModule.TokenPrice[]",
          "name": "tokenPrices",
          "type": "tuple[]"
        }
      ],
      "name": "collectAndConvertFees",
      "outputs": [],
      "stateMutability": "nonpayable",
      "type": "function"
    },
    {
      "inputs": [],
      "name": "owner",
      "outputs": [
        {
          "internalType": "address",
          "name": "",
          "type": "address"
        }
      ],
      "stateMutability": "view",
      "type": "function"
    },
    {
      "inputs": [
        {
          "internalType": "address",
          "name": "pool",
          "type": "address"
        }
      ],
      "name": "removePool",
      "outputs": [],
      "stateMutability": "nonpayable",
      "type": "function"
    },
    {
      "inputs": [],
      "name": "renounceOwnership",
      "outputs": [],
      "stateMutability": "nonpayable",
      "type": "function"
    },
    {
      "inputs": [],
      "name": "rewardStable",
      "outputs": [
        {
          "internalType": "address",
          "name": "",
          "type": "address"
        }
      ],
      "stateMutability": "view",
      "type": "function"
    },
    {
      "inputs": [],
      "name": "rewardToken",
      "outputs": [
        {
          "internalType": "address",
          "name": "",
          "type": "address"
        }
      ],
      "stateMutability": "view",
      "type": "function"
    },
    {
      "inputs": [
        {
          "internalType": "address",
          "name": "_newRewardStable",
          "type": "address"
        }
      ],
      "name": "setRewardStable",
      "outputs": [],
      "stateMutability": "nonpayable",
      "type": "function"
    },
    {
      "inputs": [
        {
          "internalType": "address",
          "name": "_newRewardToken",
          "type": "address"
        }
      ],
      "name": "setRewardToken",
      "outputs": [],
      "stateMutability": "nonpayable",
      "type": "function"
    },
    {
      "inputs": [
        {
          "internalType": "uint256",
          "name": "_slippageTolerance",
          "type": "uint256"
        }
      ],
      "name": "setSlippageTolerance",
      "outputs": [],
      "stateMutability": "nonpayable",
      "type": "function"
    },
    {
      "inputs": [
        {
          "components": [
            {
              "internalType": "address",
              "name": "fromToken",
              "type": "address"
            },
            {
              "internalType": "address",
              "name": "toToken",
              "type": "address"
            },
            {
              "internalType": "bytes",
              "name": "path",
              "type": "bytes"
            }
          ],
          "internalType": "struct CholoDromeModule.SwapPathData[]",
          "name": "paths",
          "type": "tuple[]"
        }
      ],
      "name": "setSwapPaths",
      "outputs": [],
      "stateMutability": "nonpayable",
      "type": "function"
    },
    {
      "inputs": [],
      "name": "slippageTolerance",
      "outputs": [
        {
          "internalType": "uint256",
          "name": "",
          "type": "uint256"
        }
      ],
      "stateMutability": "view",
      "type": "function"
    },
    {
      "inputs": [
        {
          "internalType": "address",
          "name": "pool",
          "type": "address"
        },
        {
          "internalType": "uint256",
          "name": "tokenId",
          "type": "uint256"
        },
        {
          "components": [
            {
              "internalType": "address",
              "name": "token",
              "type": "address"
            },
            {
              "internalType": "uint256",
              "name": "price",
              "type": "uint256"
            }
          ],
          "internalType": "struct CholoDromeModule.TokenPrice[]",
          "name": "tokenPrices",
          "type": "tuple[]"
        }
      ],
      "name": "stakeAndCollect",
      "outputs": [],
      "stateMutability": "nonpayable",
      "type": "function"
    },
    {
      "inputs": [
        {
          "internalType": "address",
          "name": "token",
          "type": "address"
        },
        {
          "internalType": "uint256",
          "name": "amountIn",
          "type": "uint256"
        },
        {
          "internalType": "address",
          "name": "toToken",
          "type": "address"
        },
        {
          "internalType": "bool",
          "name": "isEarning",
          "type": "bool"
        },
        {
          "components": [
            {
              "internalType": "address",
              "name": "token",
              "type": "address"
            },
            {
              "internalType": "uint256",
              "name": "price",
              "type": "uint256"
            }
          ],
          "internalType": "struct CholoDromeModule.TokenPrice[]",
          "name": "tokenPrices",
          "type": "tuple[]"
        }
      ],
      "name": "swap",
      "outputs": [],
      "stateMutability": "payable",
      "type": "function"
    },
    {
      "inputs": [
        {
          "internalType": "address",
          "name": "",
          "type": "address"
        },
        {
          "internalType": "address",
          "name": "",
          "type": "address"
        }
      ],
      "name": "swapPaths",
      "outputs": [
        {
          "internalType": "bytes",
          "name": "",
          "type": "bytes"
        }
      ],
      "stateMutability": "view",
      "type": "function"
    },
    {
      "inputs": [],
      "name": "swapRouter",
      "outputs": [
        {
          "internalType": "address",
          "name": "",
          "type": "address"
        }
      ],
      "stateMutability": "view",
      "type": "function"
    },
    {
      "inputs": [
        {
          "internalType": "address",
          "name": "newOwner",
          "type": "address"
        }
      ],
      "name": "transferOwnership",
      "outputs": [],
      "stateMutability": "nonpayable",
      "type": "function"
    },
    {
      "inputs": [
        {
          "internalType": "address",
          "name": "pool",
          "type": "address"
        },
        {
          "internalType": "uint256",
          "name": "tokenId",
          "type": "uint256"
        },
        {
          "components": [
            {
              "internalType": "address",
              "name": "token",
              "type": "address"
            },
            {
              "internalType": "uint256",
              "name": "price",
              "type": "uint256"
            }
          ],
          "internalType": "struct CholoDromeModule.TokenPrice[]",
          "name": "tokenPrices",
          "type": "tuple[]"
        }
      ],
      "name": "unstakeAndCollect",
      "outputs": [],
      "stateMutability": "nonpayable",
      "type": "function"
    },
    {
      "inputs": [
        {
          "internalType": "address",
          "name": "pool",
          "type": "address"
        },
        {
          "internalType": "uint256",
          "name": "tokenId",
          "type": "uint256"
        },
        {
          "components": [
            {
              "internalType": "address",
              "name": "token",
              "type": "address"
            },
            {
              "internalType": "uint256",
              "name": "price",
              "type": "uint256"
            }
          ],
          "internalType": "struct CholoDromeModule.TokenPrice[]",
          "name": "tokenPrices",
          "type": "tuple[]"
        }
      ],
      "name": "withdrawAndCollect",
      "outputs": [],
      "stateMutability": "nonpayable",
      "type": "function"
    }
  ],
  "bytecode": "0x60a0346200027a57601f6200311238819003918201601f191683019291906001600160401b038411838510176200027f578160a092849260409687528339810103126200027a57620000518162000295565b6200005f6020830162000295565b6200006c84840162000295565b92620000896080620000816060840162000295565b920162000295565b936001600160a01b039384169283156200026257600080546001600160a01b0319808216871783559587939290918416907f8be0079c531659141344cd1fd0a4f28419497f9722a3daafe3b4186f6b6457e09080a361012c600455169081156200021e578416918215620001da57841693841562000196578516156200015257826001541617600155816002541617600255600354161760035560805251612e679081620002ab823960805181818161060b015281816123020152818161251301526127cb0152f35b855162461bcd60e51b815260206004820152601460248201527f496e76616c6964205745544820616464726573730000000000000000000000006044820152606490fd5b865162461bcd60e51b815260206004820152601360248201527f496e76616c6964207377617020726f75746572000000000000000000000000006044820152606490fd5b865162461bcd60e51b815260206004820152601560248201527f496e76616c69642072657761726420737461626c6500000000000000000000006044820152606490fd5b865162461bcd60e51b815260206004820152601460248201527f496e76616c69642072657761726420746f6b656e0000000000000000000000006044820152606490fd5b8651631e4fbdf760e01b815260006004820152602490fd5b600080fd5b634e487b7160e01b600052604160045260246000fd5b51906001600160a01b03821682036200027a5756fe6080604052600436101561001257600080fd5b60003560e01c8063019556a3146117555780630b43791c146112af578063117da1ee146112185780633b7d0946146111a7578063424c265b1461113357806346ed0e6914610f5b5780634a6a749c14610eee578063715018a614610e955780637fcf111c14610ce25780638aee812714610c365780638da5cb5b14610c0d578063956468521461063a578063ad5c4648146105f5578063c13d2f7514610548578063c31c9c071461051f578063d03153aa14610501578063f0bbcec4146104c2578063f2bf87e314610499578063f2fde38b14610410578063f7c618c1146103e75763fb0b57b51461010357600080fd5b346103e25760203660031901126103e2576001600160401b03600435116103e2573660236004350112156103e2576001600160401b0360043560040135116103e257600536602460043560040135831b6004350101116103e257610165611db4565b6000905b60043560040135821061017857005b60043582821b810160240135903603608219018112156103e2576004350191602483019260018060a01b03806101ad86611e1b565b16156103a857604480830192826101c385611e1b565b1615610371576064809101916101d98389611e2f565b90501561034157505090806101f26101fa949388611e2f565b949097611e1b565b166000526006602052610211604060002092611e1b565b166000526020526040600020906001600160401b03811161032b576102368254611c35565b601f908181116102e8575b50600090821160011461028257819060019596600092610277575b5050600019600383901b1c191690841b1790555b0190610169565b01359050388061025c565b601f198216958360005260206000209160005b8881106102d057508360019798106102b6575b505050831b83019055610270565b0135600019600384901b60f8161c191690553880806102a8565b90926020600181928686013581550194019101610295565b83600052602060002082808501881c82019260208610610322575b01871c01905b8181106103165750610241565b60008155600101610309565b92508192610303565b634e487b7160e01b600052604160045260246000fd5b6b092dcecc2d8d2c840e0c2e8d60a31b6040519162461bcd60e51b835260206004840152600c6024840152820152fd5b60405162461bcd60e51b815260206004820152601060248201526f24b73b30b634b2103a37903a37b5b2b760811b81840152606490fd5b60405162461bcd60e51b815260206004820152601260248201527124b73b30b634b210333937b6903a37b5b2b760711b6044820152606490fd5b600080fd5b346103e25760003660031901126103e2576001546040516001600160a01b039091168152602090f35b346103e25760203660031901126103e257610429611ba9565b610431611db4565b6001600160a01b0390811690811561048057600054826001600160601b0360a01b821617600055167f8be0079c531659141344cd1fd0a4f28419497f9722a3daafe3b4186f6b6457e0600080a3005b604051631e4fbdf760e01b815260006004820152602490fd5b346103e25760003660031901126103e2576002546040516001600160a01b039091168152602090f35b346103e25760203660031901126103e2576001600160a01b036104e3611ba9565b166000526005602052602060ff604060002054166040519015158152f35b346103e25760003660031901126103e2576020600454604051908152f35b346103e25760003660031901126103e2576003546040516001600160a01b039091168152602090f35b346103e25760203660031901126103e257610561611ba9565b610569611db4565b6001600160a01b039081169081156105b857600254826001600160601b0360a01b821617600255167f9d4858dccb76debed7845fd87ec5c769962d072d518c9e34182581abb3e8247c600080a3005b60405162461bcd60e51b8152602060048201526015602482015274496e76616c69642072657761726420737461626c6560581b6044820152606490fd5b346103e25760003660031901126103e2576040517f00000000000000000000000000000000000000000000000000000000000000006001600160a01b03168152602090f35b346103e25761064836611bef565b9060018060a01b038416600052600560205261066b60ff60406000205416611e61565b6040516323e6650160e11b8152936020856004816001600160a01b0385165afa9485156108bd57600095610bd1575b5060405163133f757160e31b8152600481018590526101809586826024816001600160a01b0385165afa80156108bd57600092600098600092610b91575b50506106e333612da3565b6040516329bc672160e21b815260009790969194916020886004816001600160a01b038b165afa80156108bd57600090610b56575b60405163c69deec560e01b8152336004820152602481018c9052985060208980604481015b03816001600160a01b0385165afa9889156108bd57600099610b1a575b5088610a8a575b5060009a60009815610a2e575b505050506001600160801b0381166108c9575b50602081610793886107d39433612bd5565b5050604051630852cd8d60e31b8382015260248082018a90528152906107b882611c8a565b60405163468721a760e01b8152938492839260048401611fe9565b03816000335af19081156108bd57600091610883575b501561085057600080516020612e128339815191529361081461084b9261080f33612da3565b611fc6565b9060405194859460018060a01b0316983398869192608093969594919660a084019784526020840152604083015260608201520152565b0390a3005b60405162461bcd60e51b815260206004820152600b60248201526a109d5c9b8819985a5b195960aa1b6044820152606490fd5b90506020813d6020116108b5575b8161089e60209383611ca5565b810103126103e2576108af90611ecb565b876107e9565b3d9150610891565b6040513d6000823e3d90fd5b604051908160a08101106001600160401b0360a08401111761032b5760a082016040528782526001600160801b03602083019116815260408201600081526060830190600082526001600160801b03608085019342855260405195630624e65f60e11b6020880152516024870152511660448501525160648401525160848301525160a482015260a4815260e081018181106001600160401b0382111761032b57604081905263468721a760e01b815260208160df198461098e818860e48201611fe9565b0301816000335af19182156108bd576000926109f7575b5050156109b25787610781565b60405162461bcd60e51b815260206004820152601960248201527f4465637265617365206c6971756964697479206661696c6564000000000000006044820152606490fd5b6020809293503d8311610a27575b610a0f8185611ca5565b810103126103e257610a2090611ecb565b88806109a5565b503d610a05565b919750919950610a3f898533612bd5565b90978198809c81610a73575b5050811561076e57610a6993610a62913691611f1a565b9133612a7e565b508880808061076e565b610a8291610a62368589611f1a565b508c80610a4b565b604051633e491d4760e01b8152336004820152602481018c90529099506020816044816001600160a01b038e165afa80156108bd57600090610ae6575b610ae09150998b610ad9368686611f1a565b913361205e565b8b610761565b506020813d602011610b12575b81610b0060209383611ca5565b810103126103e257610ae09051610ac7565b3d9150610af3565b9098506020813d602011610b4e575b81610b3660209383611ca5565b810103126103e257610b4790611ecb565b978c61075a565b3d9150610b29565b506020883d602011610b89575b81610b7060209383611ca5565b810103126103e257610b8461073d98611eb7565b610718565b3d9150610b63565b9150919750610bb59250803d10610bca575b610bad8183611ca5565b810190612b32565b505050509b95505050509250919688806106d8565b503d610ba3565b9094506020813d602011610c05575b81610bed60209383611ca5565b810103126103e257610bfe90611eb7565b938561069a565b3d9150610be0565b346103e25760003660031901126103e2576000546040516001600160a01b039091168152602090f35b346103e25760203660031901126103e257610c4f611ba9565b610c57611db4565b6001600160a01b03908116908115610ca657600154826001600160601b0360a01b821617600155167f906ff2422a6ffa134f2d7ccaffd446bc0c583a5cb6615749b4b2836942a5fea8600080a3005b60405162461bcd60e51b815260206004820152601460248201527324b73b30b634b2103932bbb0b932103a37b5b2b760611b6044820152606490fd5b60a03660031901126103e257610cf6611ba9565b604435906001600160a01b03821690602435908284036103e2576064359384151585036103e2576084356001600160401b0381116103e257610d3c903690600401611bbf565b9390948015600014610dae575090610d679291610d60610d6f963331963691611f1a565b92336122b6565b503331611fc6565b905b610d7757005b600090604051908282528260208301528260408301526060820152816080820152600080516020612e1283398151915260a03392a3005b949192604051936370a0823160e01b9283865233600487015260209485876024818c5afa9687156108bd57600097610e5a575b5090610d60610df69493928798993691611f1a565b5060246040518096819382523360048301525afa9081156108bd57600091610e2a575b50610e249250611fc6565b90610d71565b905082813d8311610e53575b610e408183611ca5565b810103126103e257610e24915184610e19565b503d610e36565b9596509291908686813d8111610e8e575b610e758183611ca5565b810103126103e257945195949192909190610d60610de1565b503d610e6b565b346103e25760003660031901126103e257610eae611db4565b600080546001600160a01b0319811682556001600160a01b03167f8be0079c531659141344cd1fd0a4f28419497f9722a3daafe3b4186f6b6457e08280a3005b346103e25760403660031901126103e257610f07611ba9565b6001600160a01b0360243581811692908390036103e257166000526006602052604060002090600052602052610f57610f436040600020611cc6565b604051918291602083526020830190611d8f565b0390f35b346103e257610f6936611bef565b60018060a09593951b03809216938460005260209260058452610f9360ff60406000205416611e61565b6040516329bc672160e21b81529084826004818a5afa9182156108bd576000926110fc575b5060405163c69deec560e01b815233600482015260248101879052908216908581604481855afa80156108bd576000906110c6575b610ff79150611ed8565b61100033612da3565b604051633e491d4760e01b815233600482015260248101889052909390918690839060449082905afa9485156108bd57879260009661108c575b509260009492610ad96110529361105b963691611f1a565b61080f33612da3565b926040519485528401526000604084015260608301526080820152600080516020612e1283398151915260a03392a3005b87809297508193959694503d83116110bf575b6110a98183611ca5565b810103126103e25751939092918691600061103a565b503d61109f565b508581813d83116110f5575b6110dc8183611ca5565b810103126103e2576110f0610ff791611ecb565b610fed565b503d6110d2565b9091508481813d831161112c575b6111148183611ca5565b810103126103e25761112590611eb7565b9087610fb8565b503d61110a565b346103e25760203660031901126103e25761114c611ba9565b611154611db4565b6001600160a01b0316611168811515611de0565b6000818152600560205260408120805460ff191660011790557ffc1f1e73948cbc47c5b7f90e5601b7daccd9ad7173218486ccc74bdd051d05e88180a3005b346103e25760203660031901126103e2576111c0611ba9565b6111c8611db4565b6001600160a01b03166111dc811515611de0565b6000818152600560205260408120805460ff191690557f987eb3c2f78454541205f72f34839b434c306c9eaf4922efd7c0c3060fdb2e4c8180a3005b346103e25760203660031901126103e257600435611234611db4565b6103e881116112765760407fddd31550b26e9ef8ade466958be83ff8a014d9b4f36d546b61a6847a4530657591600454908060045582519182526020820152a1005b60405162461bcd60e51b81526020600482015260116024820152700a6d8d2e0e0c2ceca40e8dede40d0d2ced607b1b6044820152606490fd5b346103e2576112bd36611bef565b60018060a01b03809416938460005260056020526112e260ff60406000205416611e61565b6040516323e6650160e11b815290602082600481895afa9182156108bd57600092611719575b506040516329bc672160e21b8152906020826004818a5afa9182156108bd576000926116dd575b5060405163c69deec560e01b8152336004820152602481018790526020816044818686165afa9081156108bd576000916116a3575b5061165e5761137233612da3565b926040519563133f757160e31b87528760048801526101809687816024818787165afa9081156108bd5760009860009261162e575b50506113b4898433612bd5565b9781998992611617575b50816115fe575b5050505060405163e985e9c560e01b815233600482015282841660248201526020816044818686165afa9081156108bd576000916115c4575b50156114fa575b50506020611430916040519063b6b55f2560e01b83830152876024830152602482526107b882611c8a565b03816000335af19081156108bd576000916114c0575b501561148c576114599061080f33612da3565b9160405193845260208401526040830152600060608301526080820152600080516020612e1283398151915260a03392a3005b60405162461bcd60e51b815260206004820152600c60248201526b14dd185ad94819985a5b195960a21b6044820152606490fd5b90506020813d6020116114f2575b816114db60209383611ca5565b810103126103e2576114ec90611ecb565b86611446565b3d91506114ce565b61152c916020916040519163a22cb46560e01b848401528516602483015260016044830152604482526107b882611c6f565b03816000335af19081156108bd5760009161158a575b501561154f578680611405565b60405162461bcd60e51b815260206004820152601360248201527213919508185c1c1c9bdd985b0819985a5b1959606a1b6044820152606490fd5b90506020813d6020116115bc575b816115a560209383611ca5565b810103126103e2576115b690611ecb565b87611542565b3d9150611598565b90506020813d6020116115f6575b816115df60209383611ca5565b810103126103e2576115f090611ecb565b896113fe565b3d91506115d2565b61160d93610a62913691611f1a565b50888086816113c5565b611627908b610a62368589611f1a565b508c6113be565b61164993995080919250903d10610bca57610bad8183611ca5565b50505050505050509892509050968a806113a7565b60405162461bcd60e51b815260206004820152601760248201527f506f736974696f6e20616c7265616479207374616b65640000000000000000006044820152606490fd5b90506020813d6020116116d5575b816116be60209383611ca5565b810103126103e2576116cf90611ecb565b88611364565b3d91506116b1565b9091506020813d602011611711575b816116f960209383611ca5565b810103126103e25761170a90611eb7565b908761132f565b3d91506116ec565b9091506020813d60201161174d575b8161173560209383611ca5565b810103126103e25761174690611eb7565b9086611308565b3d9150611728565b346103e25761176336611bef565b9260018060a01b03169283600052600560205261178760ff60406000205416611e61565b6040516323e6650160e11b815290602082600481885afa9182156108bd57600092611b6d575b506040516329bc672160e21b8152602081600481895afa9081156108bd57600091611b33575b506117dd33612da3565b60405163c69deec560e01b815233600482015260248101879052909460009485946001600160a01b038516939091908690602081604481895afa9081156108bd57600091611af9575b50156119fe575050604051633e491d4760e01b81523360048201526024810189905292602090849060449082905afa9283156108bd576000936119ca575b508293836118bf575b5050505061084b90611891600080516020612e128339815191529561080f33612da3565b906040519485943398869192608093969594919660a084019784526020840152604083015260608201520152565b60206118ee9160409993949695995190631c4b774b60e01b838301528b6024830152602482526107b882611c8a565b03816000335af19081156108bd57600091611990575b501561194b5761194361193e61189193600080516020612e1283398151915299610a6261084b9860018060a01b0360015416933691611f1a565b61201a565b95829361186d565b60405162461bcd60e51b815260206004820152601760248201527f47617567652067657420726577617264206661696c65640000000000000000006044820152606490fd5b90506020813d6020116119c2575b816119ab60209383611ca5565b810103126103e2576119bc90611ecb565b8a611904565b3d915061199e565b9092506020813d6020116119f6575b816119e660209383611ca5565b810103126103e257519189611864565b3d91506119d9565b60405163133f757160e31b8152600481018b90529198929750909550610180945092509083856024816001600160a01b038b165afa80156108bd57600080516020612e12833981519152978996600096600093611aba575b505090611a6d61084b969761189195949333612bd5565b90988199809981611aa3575b505081611a8a575b50505050611052565b611a9993610a62913691611f1a565b5089808080611a81565b611ab291610a62368589611f1a565b508d80611a79565b61084b975061189195949350611a6d9181611ae092903d10610bca57610bad8183611ca5565b50505050505050509a9250905098939495509796611a56565b90506020813d602011611b2b575b81611b1460209383611ca5565b810103126103e257611b2590611ecb565b8c611826565b3d9150611b07565b90506020813d602011611b65575b81611b4e60209383611ca5565b810103126103e257611b5f90611eb7565b866117d3565b3d9150611b41565b9091506020813d602011611ba1575b81611b8960209383611ca5565b810103126103e257611b9a90611eb7565b90856117ad565b3d9150611b7c565b600435906001600160a01b03821682036103e257565b9181601f840112156103e2578235916001600160401b0383116103e2576020808501948460061b0101116103e257565b60606003198201126103e2576004356001600160a01b03811681036103e2579160243591604435906001600160401b0382116103e257611c3191600401611bbf565b9091565b90600182811c92168015611c65575b6020831014611c4f57565b634e487b7160e01b600052602260045260246000fd5b91607f1691611c44565b608081019081106001600160401b0382111761032b57604052565b606081019081106001600160401b0382111761032b57604052565b90601f801991011681019081106001600160401b0382111761032b57604052565b9060405191826000825492611cda84611c35565b908184526001948581169081600014611d495750600114611d06575b5050611d0492500383611ca5565b565b9093915060005260209081600020936000915b818310611d31575050611d0493508201013880611cf6565b85548884018501529485019487945091830191611d19565b915050611d0494506020925060ff191682840152151560051b8201013880611cf6565b60005b838110611d7f5750506000910152565b8181015183820152602001611d6f565b90602091611da881518092818552858086019101611d6c565b601f01601f1916010190565b6000546001600160a01b03163303611dc857565b60405163118cdaa760e01b8152336004820152602490fd5b15611de757565b60405162461bcd60e51b815260206004820152600c60248201526b125b9d985b1a59081c1bdbdb60a21b6044820152606490fd5b356001600160a01b03811681036103e25790565b903590601e19813603018212156103e257018035906001600160401b0382116103e2576020019181360383136103e257565b15611e6857565b60405162461bcd60e51b815260206004820152602160248201527f506f6f6c206e6f7420617070726f76656420666f722074686973206d6f64756c6044820152606560f81b6064820152608490fd5b51906001600160a01b03821682036103e257565b519081151582036103e257565b15611edf57565b60405162461bcd60e51b8152602060048201526013602482015272141bdcda5d1a5bdb881b9bdd081cdd185ad959606a1b6044820152606490fd5b6001600160401b03939284831161032b57604092835195602092611f43848460051b0189611ca5565b8388848152019260061b8501948186116103e257925b858410611f695750505050505050565b86848303126103e25786519087820182811085821117611fb15788528435906001600160a01b03821682036103e2578287928a94528287013583820152815201930192611f59565b60246000634e487b7160e01b81526041600452fd5b91908203918211611fd357565b634e487b7160e01b600052601160045260246000fd5b929161201560609160009360018060a01b03168652836020870152608060408701526080860190611d8f565b930152565b1561202157565b60405162461bcd60e51b815260206004820152601560248201527414ddd85c081d1bc81cdd18589b194819985a5b1959605a1b6044820152606490fd5b926001600160a01b03929091838116918215612281576040805163c69deec560e01b81528688166001600160a01b038116600483015260248201849052602094929392909185816044818a5afa801561227657600090612240575b6120c39150611ed8565b8351633e491d4760e01b81526001600160a01b038316600482015260248101849052958590879060449082905afa95861561223557600096612206575b5091849161214693855192632e1a7d4d60e01b8585015260248401526024835261212983611c8a565b6000865180968195829463468721a760e01b845260048401611fe9565b03925af19081156121fb576000916121c3575b50156121885750508061216d575b50505050565b61217f9361193e936001541690612a7e565b38808080612167565b60649250519062461bcd60e51b82526004820152601560248201527411d85d59d9481dda5d1a191c985dc819985a5b1959605a1b6044820152fd5b908382813d83116121f4575b6121d98183611ca5565b810103126121f157506121eb90611ecb565b38612159565b80fd5b503d6121cf565b82513d6000823e3d90fd5b90958582813d831161222e575b61221d8183611ca5565b810103126121f15750519484612100565b503d612213565b84513d6000823e3d90fd5b8682813d831161226f575b6122558183611ca5565b810103126121f1575061226a6120c391611ecb565b6120b9565b503d61224b565b85513d6000823e3d90fd5b60405162461bcd60e51b815260206004820152600d60248201526c496e76616c696420676175676560981b6044820152606490fd5b92916001600160a01b03918083166128cd5750803403612873576040516020630d0e30db60e41b818301526004825260408201918083106001600160401b0384111761032b57826040527f00000000000000000000000000000000000000000000000000000000000000009263468721a760e01b81528584166044830152846064830152608060848301528583828a8161235360c4880188611d8f565b60009586918260a48b015289603f1991030193165af1928315612866578490829461282c575b50505050156127f25750925b600091838216156127c6575b83821696848616888114612781576000526020976006895260406000209060005288526123c16040600020611cc6565b928351156127485760035460405163095ea7b360e01b8b8201529087166001600160a01b031660248201526044808201859052815297869061240460648b611ca5565b16966040518a818061242563468721a760e01b9d8e83528660048401611fe9565b038160008d5af19081156108bd57600091612713575b50156126d75793836124596124a8946124ca948d976124e399612980565b6040519261246684611c6f565b8352858301918a835260408401908152606084019182528960405196879563b858183f60e01b8a880152896024880152516080604488015260c4870190611d8f565b93511660648501525160848401525160a483015203601f198101835282611ca5565b846003541660405193849283928a845260048401611fe9565b03816000885af19081156108bd576000916126a2575b50156126655761250d575b50505050600190565b602491847f000000000000000000000000000000000000000000000000000000000000000092604051948580926370a0823160e01b825285600483015286165afa9182156108bd578593600093612630575b50600061259d9560405194632e1a7d4d60e01b8787015260248601526024855261258885611c8a565b60405196879586948593845260048401611fe9565b03925af19081156108bd576000916125fb575b50156125be57808080612504565b6064906040519062461bcd60e51b82526004820152601660248201527515d15512081d5b9ddc985c1c1a5b99c819985a5b195960521b6044820152fd5b908282813d8311612629575b6126118183611ca5565b810103126121f1575061262390611ecb565b386125b0565b503d612607565b919382819492943d831161265e575b6126498183611ca5565b810103126121f157505184929091600061255f565b503d61263f565b60405162461bcd60e51b815260048101869052601560248201527414ddd85c08195e1958dd5d1a5bdb8819985a5b1959605a1b6044820152606490fd5b908682813d83116126d0575b6126b88183611ca5565b810103126121f157506126ca90611ecb565b386124f9565b503d6126ae565b60405162461bcd60e51b8152600481018b90526014602482015273151bdad95b88185c1c1c9bdd994819985a5b195960621b6044820152606490fd5b908b82813d8311612741575b6127298183611ca5565b810103126121f1575061273b90611ecb565b3861243b565b503d61271f565b60405162461bcd60e51b8152600481018a9052601160248201527014ddd85c081c185d1a081b9bdd081cd95d607a1b6044820152606490fd5b60405162461bcd60e51b815260206004820152601960248201527f43616e6e6f74207377617020746f2073616d6520746f6b656e000000000000006044820152606490fd5b9150507f0000000000000000000000000000000000000000000000000000000000000000600191612391565b6064906040519062461bcd60e51b825260048201526013602482015272115512081ddc985c1c1a5b99c819985a5b1959606a1b6044820152fd5b9080929394503d831161285f575b6128448186611ca5565b810103126121f1575061285690611ecb565b38808381612379565b503d61283a565b50604051903d90823e3d90fd5b60405162461bcd60e51b815260206004820152602c60248201527f4d73672e76616c7565206d75737420657175616c20616d6f756e74496e20666f60448201526b0e440dcc2e8d2ecca408aa8960a31b6064820152608490fd5b9234156123855760405162461bcd60e51b815260206004820152603260248201527f4e6f204554482073686f756c642062652073656e74207768656e20746f6b656e604482015271040d2e640dcdee840dcc2e8d2ecca408aa8960731b6064820152608490fd5b6000198114611fd35760010190565b80518210156129575760209160051b010190565b634e487b7160e01b600052603260045260246000fd5b81810292918115918404141715611fd357565b6001600160a01b039391929084169084168114612a77578215612a6e5760009384805b8451811015612a635783836129b88388612943565b515116146129ce576129c990612934565b6129a3565b9250505060209293506129e091612943565b5101519060015b15612a1e57670de0b6b3a7640000916129ff9161296d565b0460045490612710918203828111611fd357612a1a9161296d565b0490565b60405162461bcd60e51b815260206004820152601760248201527f45786368616e67652072617465206e6f7420666f756e640000000000000000006044820152606490fd5b5094925050506129e7565b50505050600090565b5050905090565b9192908315612504576002546001600160a01b039490851691808616808414612b0457600096875b8651811015612af7578282612abb838a612943565b51511614612ad157612acc90612934565b612aa6565b50505090919293945060015b612aeb575050505050600190565b612af4946122b6565b90565b5050509091929394612add565b50505050505050600190565b51908160020b82036103e257565b51906001600160801b03821682036103e257565b9190826101809103126103e25781516001600160601b03811681036103e25791612b5e60208201611eb7565b91612b6b60408301611eb7565b91612b7860608201611eb7565b91612b8560808301612b10565b91612b9260a08201612b10565b91612b9f60c08301612b10565b91612bac60e08201612b1e565b916101008201519161012081015191612af4610160612bce6101408501612b1e565b9301612b1e565b604080519390926001600160a01b0392831691612bf186611c6f565b8552602092838601838152858701916001600160801b0392839182825260608a019383855289519a63fc6f786560e01b8a8d01525160248c0152511660448a015251166064880152511660848601526084855260c08501916001600160401b03918684108385111761032b57838092818852635229073f60e01b82526000958680948b612c858160bf199360c48201611fe9565b0301925af1958615612d995783928497612ced575b50505015612cb95782848051810103126121f157508201519101519091565b50606491519062461bcd60e51b82526004820152600e60248201526d10dbdb1b1958dd0819985a5b195960921b6044820152fd5b91965091503d8084883e612d018188611ca5565b820195858360c08901980312612d7d57612d1a90611ecb565b9160e081015190828211612d9557018660df82011215612d7d5760c0810151918211612d8157855196612d56601f8401601f1916870189611ca5565b82885260e08383010111612d7d5790612d759160e08689019101611d6c565b388080612c9a565b8380fd5b634e487b7160e01b84526041600452602484fd5b8480fd5b85513d85823e3d90fd5b6002546040516370a0823160e01b81526001600160a01b0392831660048201529160209183916024918391165afa9081156108bd57600091612de3575090565b906020823d8211612e09575b81612dfc60209383611ca5565b810103126121f157505190565b3d9150612def56fec457dabb1cd0422f2d4ee0e35bed2d324c897ff52ca6d0033a86d6a43ce80502a26469706673582212209cf992b1b04966ddcc6f4be2fe4f558e6fb196006ae08525cb4d2c7c51def08f64736f6c63430008140033",
  "linkReferences": {},
  "deployedLinkReferences": {}
}