{
  "_format": "hh-sol-artifact-1",
  "contractName": "CholoDromeModule",
  "sourceName": "contracts/CholoDromeModule.sol",
  "abi": [
    {
      "inputs": [
        {
          "internalType": "address",
          "name": "_owner",
          "type": "address"
        },
        {
          "internalType": "address",
          "name": "_rewardToken",
          "type": "address"
        },
        {
          "internalType": "address",
          "name": "_rewardStable",
          "type": "address"
        },
        {
          "internalType": "address",
          "name": "_swapRouter",
          "type": "address"
        },
        {
          "internalType": "address",
          "name": "_usdc",
          "type": "address"
        },
        {
          "internalType": "address",
          "name": "_weth",
          "type": "address"
        }
      ],
      "stateMutability": "nonpayable",
      "type": "constructor"
    },
    {
      "inputs": [
        {
          "internalType": "address",
          "name": "owner",
          "type": "address"
        }
      ],
      "name": "OwnableInvalidOwner",
      "type": "error"
    },
    {
      "inputs": [
        {
          "internalType": "address",
          "name": "account",
          "type": "address"
        }
      ],
      "name": "OwnableUnauthorizedAccount",
      "type": "error"
    },
    {
      "anonymous": false,
      "inputs": [
        {
          "indexed": true,
          "internalType": "address",
          "name": "safe",
          "type": "address"
        },
        {
          "indexed": true,
          "internalType": "address",
          "name": "pool",
          "type": "address"
        },
        {
          "indexed": false,
          "internalType": "uint256",
          "name": "tokenId",
          "type": "uint256"
        }
      ],
      "name": "DepositMaxCompleted",
      "type": "event"
    },
    {
      "anonymous": false,
      "inputs": [
        {
          "indexed": true,
          "internalType": "address",
          "name": "safe",
          "type": "address"
        },
        {
          "indexed": true,
          "internalType": "address",
          "name": "pool",
          "type": "address"
        },
        {
          "indexed": false,
          "internalType": "uint256",
          "name": "tokenId",
          "type": "uint256"
        },
        {
          "indexed": false,
          "internalType": "uint256",
          "name": "amount0",
          "type": "uint256"
        },
        {
          "indexed": false,
          "internalType": "uint256",
          "name": "amount1",
          "type": "uint256"
        },
        {
          "indexed": false,
          "internalType": "uint256",
          "name": "veloAmount",
          "type": "uint256"
        },
        {
          "indexed": false,
          "internalType": "uint256",
          "name": "totalUsdtAmount",
          "type": "uint256"
        }
      ],
      "name": "EarningsCollected",
      "type": "event"
    },
    {
      "anonymous": false,
      "inputs": [
        {
          "indexed": true,
          "internalType": "address",
          "name": "previousOwner",
          "type": "address"
        },
        {
          "indexed": true,
          "internalType": "address",
          "name": "newOwner",
          "type": "address"
        }
      ],
      "name": "OwnershipTransferred",
      "type": "event"
    },
    {
      "anonymous": false,
      "inputs": [
        {
          "indexed": true,
          "internalType": "address",
          "name": "safe",
          "type": "address"
        },
        {
          "indexed": true,
          "internalType": "address",
          "name": "pool",
          "type": "address"
        }
      ],
      "name": "PoolApproved",
      "type": "event"
    },
    {
      "anonymous": false,
      "inputs": [
        {
          "indexed": true,
          "internalType": "address",
          "name": "safe",
          "type": "address"
        },
        {
          "indexed": true,
          "internalType": "address",
          "name": "pool",
          "type": "address"
        }
      ],
      "name": "PoolRemoved",
      "type": "event"
    },
    {
      "anonymous": false,
      "inputs": [
        {
          "indexed": true,
          "internalType": "address",
          "name": "fromToken",
          "type": "address"
        },
        {
          "indexed": true,
          "internalType": "address",
          "name": "toToken",
          "type": "address"
        },
        {
          "indexed": true,
          "internalType": "address",
          "name": "priceFeed",
          "type": "address"
        }
      ],
      "name": "PriceFeedUpdated",
      "type": "event"
    },
    {
      "anonymous": false,
      "inputs": [
        {
          "indexed": true,
          "internalType": "address",
          "name": "oldStable",
          "type": "address"
        },
        {
          "indexed": true,
          "internalType": "address",
          "name": "newStable",
          "type": "address"
        }
      ],
      "name": "RewardStableUpdated",
      "type": "event"
    },
    {
      "anonymous": false,
      "inputs": [
        {
          "indexed": true,
          "internalType": "address",
          "name": "oldToken",
          "type": "address"
        },
        {
          "indexed": true,
          "internalType": "address",
          "name": "newToken",
          "type": "address"
        }
      ],
      "name": "RewardTokenUpdated",
      "type": "event"
    },
    {
      "anonymous": false,
      "inputs": [
        {
          "indexed": false,
          "internalType": "uint256",
          "name": "oldTolerance",
          "type": "uint256"
        },
        {
          "indexed": false,
          "internalType": "uint256",
          "name": "newTolerance",
          "type": "uint256"
        }
      ],
      "name": "SlippageToleranceUpdated",
      "type": "event"
    },
    {
      "inputs": [],
      "name": "USDC",
      "outputs": [
        {
          "internalType": "address",
          "name": "",
          "type": "address"
        }
      ],
      "stateMutability": "view",
      "type": "function"
    },
    {
      "inputs": [],
      "name": "WETH",
      "outputs": [
        {
          "internalType": "address",
          "name": "",
          "type": "address"
        }
      ],
      "stateMutability": "view",
      "type": "function"
    },
    {
      "inputs": [
        {
          "internalType": "address",
          "name": "pool",
          "type": "address"
        }
      ],
      "name": "approvePool",
      "outputs": [],
      "stateMutability": "nonpayable",
      "type": "function"
    },
    {
      "inputs": [
        {
          "internalType": "address",
          "name": "",
          "type": "address"
        }
      ],
      "name": "approvedPools",
      "outputs": [
        {
          "internalType": "bool",
          "name": "",
          "type": "bool"
        }
      ],
      "stateMutability": "view",
      "type": "function"
    },
    {
      "inputs": [
        {
          "internalType": "address",
          "name": "pool",
          "type": "address"
        },
        {
          "internalType": "uint256",
          "name": "tokenId",
          "type": "uint256"
        }
      ],
      "name": "collectAndConvertFees",
      "outputs": [],
      "stateMutability": "nonpayable",
      "type": "function"
    },
    {
      "inputs": [],
      "name": "owner",
      "outputs": [
        {
          "internalType": "address",
          "name": "",
          "type": "address"
        }
      ],
      "stateMutability": "view",
      "type": "function"
    },
    {
      "inputs": [
        {
          "internalType": "address",
          "name": "",
          "type": "address"
        },
        {
          "internalType": "address",
          "name": "",
          "type": "address"
        }
      ],
      "name": "priceFeeds",
      "outputs": [
        {
          "internalType": "address",
          "name": "",
          "type": "address"
        }
      ],
      "stateMutability": "view",
      "type": "function"
    },
    {
      "inputs": [
        {
          "internalType": "address",
          "name": "pool",
          "type": "address"
        }
      ],
      "name": "removePool",
      "outputs": [],
      "stateMutability": "nonpayable",
      "type": "function"
    },
    {
      "inputs": [],
      "name": "renounceOwnership",
      "outputs": [],
      "stateMutability": "nonpayable",
      "type": "function"
    },
    {
      "inputs": [],
      "name": "rewardStable",
      "outputs": [
        {
          "internalType": "address",
          "name": "",
          "type": "address"
        }
      ],
      "stateMutability": "view",
      "type": "function"
    },
    {
      "inputs": [],
      "name": "rewardToken",
      "outputs": [
        {
          "internalType": "address",
          "name": "",
          "type": "address"
        }
      ],
      "stateMutability": "view",
      "type": "function"
    },
    {
      "inputs": [
        {
          "components": [
            {
              "internalType": "address",
              "name": "fromToken",
              "type": "address"
            },
            {
              "internalType": "address",
              "name": "toToken",
              "type": "address"
            },
            {
              "internalType": "address",
              "name": "priceFeed",
              "type": "address"
            }
          ],
          "internalType": "struct CholoDromeModule.PriceFeedData[]",
          "name": "feeds",
          "type": "tuple[]"
        }
      ],
      "name": "setPriceFeeds",
      "outputs": [],
      "stateMutability": "nonpayable",
      "type": "function"
    },
    {
      "inputs": [
        {
          "internalType": "address",
          "name": "_newRewardStable",
          "type": "address"
        }
      ],
      "name": "setRewardStable",
      "outputs": [],
      "stateMutability": "nonpayable",
      "type": "function"
    },
    {
      "inputs": [
        {
          "internalType": "address",
          "name": "_newRewardToken",
          "type": "address"
        }
      ],
      "name": "setRewardToken",
      "outputs": [],
      "stateMutability": "nonpayable",
      "type": "function"
    },
    {
      "inputs": [
        {
          "internalType": "uint256",
          "name": "_slippageTolerance",
          "type": "uint256"
        }
      ],
      "name": "setSlippageTolerance",
      "outputs": [],
      "stateMutability": "nonpayable",
      "type": "function"
    },
    {
      "inputs": [
        {
          "components": [
            {
              "internalType": "address",
              "name": "fromToken",
              "type": "address"
            },
            {
              "internalType": "address",
              "name": "toToken",
              "type": "address"
            },
            {
              "internalType": "bytes",
              "name": "path",
              "type": "bytes"
            }
          ],
          "internalType": "struct CholoDromeModule.SwapPathData[]",
          "name": "paths",
          "type": "tuple[]"
        }
      ],
      "name": "setSwapPaths",
      "outputs": [],
      "stateMutability": "nonpayable",
      "type": "function"
    },
    {
      "inputs": [],
      "name": "slippageTolerance",
      "outputs": [
        {
          "internalType": "uint256",
          "name": "",
          "type": "uint256"
        }
      ],
      "stateMutability": "view",
      "type": "function"
    },
    {
      "inputs": [
        {
          "internalType": "address",
          "name": "pool",
          "type": "address"
        },
        {
          "internalType": "uint256",
          "name": "tokenId",
          "type": "uint256"
        }
      ],
      "name": "stakeAndCollect",
      "outputs": [],
      "stateMutability": "nonpayable",
      "type": "function"
    },
    {
      "inputs": [
        {
          "internalType": "address",
          "name": "token",
          "type": "address"
        },
        {
          "internalType": "uint256",
          "name": "amountIn",
          "type": "uint256"
        },
        {
          "internalType": "address",
          "name": "toToken",
          "type": "address"
        },
        {
          "internalType": "bool",
          "name": "isEarning",
          "type": "bool"
        }
      ],
      "name": "swap",
      "outputs": [],
      "stateMutability": "payable",
      "type": "function"
    },
    {
      "inputs": [
        {
          "internalType": "address",
          "name": "",
          "type": "address"
        },
        {
          "internalType": "address",
          "name": "",
          "type": "address"
        }
      ],
      "name": "swapPaths",
      "outputs": [
        {
          "internalType": "bytes",
          "name": "",
          "type": "bytes"
        }
      ],
      "stateMutability": "view",
      "type": "function"
    },
    {
      "inputs": [],
      "name": "swapRouter",
      "outputs": [
        {
          "internalType": "address",
          "name": "",
          "type": "address"
        }
      ],
      "stateMutability": "view",
      "type": "function"
    },
    {
      "inputs": [
        {
          "internalType": "address",
          "name": "newOwner",
          "type": "address"
        }
      ],
      "name": "transferOwnership",
      "outputs": [],
      "stateMutability": "nonpayable",
      "type": "function"
    },
    {
      "inputs": [
        {
          "internalType": "address",
          "name": "pool",
          "type": "address"
        },
        {
          "internalType": "uint256",
          "name": "tokenId",
          "type": "uint256"
        }
      ],
      "name": "unstakeAndCollect",
      "outputs": [],
      "stateMutability": "nonpayable",
      "type": "function"
    },
    {
      "inputs": [
        {
          "internalType": "address",
          "name": "pool",
          "type": "address"
        },
        {
          "internalType": "uint256",
          "name": "tokenId",
          "type": "uint256"
        },
        {
          "internalType": "bool",
          "name": "convertToUsdc",
          "type": "bool"
        }
      ],
      "name": "withdrawAndCollect",
      "outputs": [],
      "stateMutability": "nonpayable",
      "type": "function"
    }
  ],
  "bytecode": "0x60c034620002dc57601f620036cc38819003918201601f191683019291906001600160401b03841183851017620002e1578160c09284926040968752833981010312620002dc576200005181620002f7565b9060209162000062838301620002f7565b6200006f858401620002f7565b6200007d60608501620002f7565b906200009a60a06200009260808801620002f7565b9601620002f7565b956001600160a01b03948516938415620002c457600080546001600160a01b0319808216881783559691908816907f8be0079c531659141344cd1fd0a4f28419497f9722a3daafe3b4186f6b6457e09080a360649186600492848455169384156200028557871694851562000246578716968715620002075780891615620001c8578916156200018a57505050826001541617600155816002541617600255600354161760035560805260a052516133bf90816200030d8239608051818181610c45015281816116f80152612cca015260a0518181816109b30152818161241d0152818161262501526128ed0152f35b895162461bcd60e51b815291820152601460248201527f496e76616c6964205745544820616464726573730000000000000000000000006044820152fd5b50895162461bcd60e51b815291820152601460248201527f496e76616c6964205553444320616464726573730000000000000000000000006044820152fd5b50895162461bcd60e51b815291820152601360248201527f496e76616c6964207377617020726f75746572000000000000000000000000006044820152fd5b50895162461bcd60e51b815291820152601560248201527f496e76616c69642072657761726420737461626c6500000000000000000000006044820152fd5b50895162461bcd60e51b815291820152601460248201527f496e76616c69642072657761726420746f6b656e0000000000000000000000006044820152fd5b8851631e4fbdf760e01b815260006004820152602490fd5b600080fd5b634e487b7160e01b600052604160045260246000fd5b51906001600160a01b0382168203620002dc5756fe6080604052600436101561001257600080fd5b60003560e01c8062b2119014611bdd57806308e64f3d14611462578063117da1ee146113cb57806331a8f1c914610fe85780633b7d094614610f77578063424c265b14610f035780634a6a749c14610e9a5780634bdc76cc14610ccd578063715018a614610c7457806389a3027114610c2f5780638aee812714610b835780638da5cb5b14610b5a578063a7c1c38b146109e2578063ad5c46481461099d578063c13d2f75146108f0578063c31c9c07146108c7578063d03153aa146108a9578063e637030914610504578063f0bbcec4146104c5578063f2bf87e31461049c578063f2fde38b14610413578063f7c618c1146103ea578063f90c69061461039a5763fb0b57b51461012357600080fd5b346103955760203660031901126103955760043567ffffffffffffffff811161039557366023820112156103955767ffffffffffffffff81600401351161039557366024826004013560051b830101116103955761017f611f04565b6000905b8060040135821061019057005b60248260051b82010135608219823603018112156103955781016024810192906001600160a01b036101cd816101c587611f6b565b161515611f7f565b6044808301926101e8836101e086611f6b565b161515611fc0565b6064809101916101f88389611fff565b9050156103655750509080610211610219949388611fff565b949097611f6b565b166000526006602052610230604060002092611f6b565b1660005260205260406000209067ffffffffffffffff811161034f576102568254611d82565b601f8111610307575b506000601f82116001146102a157819060019596600092610296575b5050600019600383901b1c191690841b1790555b0190610183565b01359050388061027b565b601f198216958360005260206000209160005b8881106102ef57508360019798106102d5575b505050831b8301905561028f565b0135600019600384901b60f8161c191690553880806102c7565b909260206001819286860135815501940191016102b4565b826000526020600020601f830160051c81019160208410610345575b601f0160051c01905b818110610339575061025f565b6000815560010161032c565b9091508190610323565b634e487b7160e01b600052604160045260246000fd5b6b092dcecc2d8d2c840e0c2e8d60a31b6040519162461bcd60e51b835260206004840152600c6024840152820152fd5b600080fd5b346103955760403660031901126103955760206103b5611d56565b6103bd611d6c565b60018060a01b03809216600052600783528160406000209116600052825260406000205416604051908152f35b34610395576000366003190112610395576001546040516001600160a01b039091168152602090f35b346103955760203660031901126103955761042c611d56565b610434611f04565b6001600160a01b0390811690811561048357600054826001600160601b0360a01b821617600055167f8be0079c531659141344cd1fd0a4f28419497f9722a3daafe3b4186f6b6457e0600080a3005b604051631e4fbdf760e01b815260006004820152602490fd5b34610395576000366003190112610395576002546040516001600160a01b039091168152602090f35b34610395576020366003190112610395576001600160a01b036104e6611d56565b166000526005602052602060ff604060002054166040519015158152f35b346103955760403660031901126103955761051d611d56565b60243560018060a01b03809216918260005260206005815261054660ff60406000205416612032565b6040516323e6650160e11b8152918183600481885afa92831561079457600093610872575b506040516329bc672160e21b8152908282600481895afa9182156107945760009261083b575b5080821661059e336132fb565b60405163c69deec560e01b81523360048201526024810188905260009687969294929187918382604481895afa8015610794578b92600091610803575b50156107cf575050604051633e491d4760e01b8152336004820152602481018a905293829150849060449082905afa928315610794576000936107a0575b50829483610681575b5050505060008051602061336a83398151915293929161064e61067c925b610649336132fb565b6120eb565b906040519485943398869192608093969594919660a084019784526020840152604083015260608201520152565b0390a3005b816106c49160405190631c4b774b60e01b838301528b6024830152602482526106a982611dd8565b60405163468721a760e01b815293849283926004840161210e565b03816000335af19081156107945760009161075f575b501561071b575061067c9261071161070c60008051602061336a8339815191529897969461064e9460015416336130d1565b61213f565b9282949596610622565b6064906040519062461bcd60e51b82526004820152601760248201527f47617567652067657420726577617264206661696c65640000000000000000006044820152fd5b90508181813d831161078d575b6107768183611df4565b81010312610395576107879061209c565b8a6106da565b503d61076c565b6040513d6000823e3d90fd5b9080935081813d83116107c8575b6107b88183611df4565b8101031261039557519189610619565b503d6107ae565b919450915060008051602061336a833981519152975061064e965061067c9495506107fb92503361312c565b949093610640565b809350858092503d8311610834575b61081c8183611df4565b810103126103955761082e8b9261209c565b8d6105db565b503d610812565b9091508281813d831161086b575b6108538183611df4565b810103126103955761086490612088565b9086610591565b503d610849565b9092508181813d83116108a2575b61088a8183611df4565b810103126103955761089b90612088565b918561056b565b503d610880565b34610395576000366003190112610395576020600454604051908152f35b34610395576000366003190112610395576003546040516001600160a01b039091168152602090f35b3461039557602036600319011261039557610909611d56565b610911611f04565b6001600160a01b0390811690811561096057600254826001600160601b0360a01b821617600255167f9d4858dccb76debed7845fd87ec5c769962d072d518c9e34182581abb3e8247c600080a3005b60405162461bcd60e51b8152602060048201526015602482015274496e76616c69642072657761726420737461626c6560581b6044820152606490fd5b34610395576000366003190112610395576040517f00000000000000000000000000000000000000000000000000000000000000006001600160a01b03168152602090f35b6080366003190112610395576109f6611d56565b6044356001600160a01b0381169190602435838203610395576064359384151585036103955780610a7b5750610a3c9291610a3491333193336123ce565b5033316120eb565b905b610a4457005b60009060405190828252826020830152826040830152606082015281608082015260008051602061336a83398151915260a03392a3005b92604051916370a0823160e01b9081845233600485015260209283856024818a5afa94851561079457600095610b1f575b5094610abb91849596336123ce565b5060246040518096819382523360048301525afa90811561079457600091610aef575b50610ae992506120eb565b90610a3e565b905082813d8311610b18575b610b058183611df4565b8101031261039557610ae9915184610ade565b503d610afb565b919380955082819792973d8311610b53575b610b3b8183611df4565b81010312610395579051909490939290610abb610aac565b503d610b31565b34610395576000366003190112610395576000546040516001600160a01b039091168152602090f35b3461039557602036600319011261039557610b9c611d56565b610ba4611f04565b6001600160a01b03908116908115610bf357600154826001600160601b0360a01b821617600155167f906ff2422a6ffa134f2d7ccaffd446bc0c583a5cb6615749b4b2836942a5fea8600080a3005b60405162461bcd60e51b815260206004820152601460248201527324b73b30b634b2103932bbb0b932103a37b5b2b760611b6044820152606490fd5b34610395576000366003190112610395576040517f00000000000000000000000000000000000000000000000000000000000000006001600160a01b03168152602090f35b3461039557600036600319011261039557610c8d611f04565b600080546001600160a01b0319811682556001600160a01b03167f8be0079c531659141344cd1fd0a4f28419497f9722a3daafe3b4186f6b6457e08280a3005b3461039557604036600319011261039557610ce6611d56565b60243560018060a01b03809216918260005260209060058252610d1060ff60406000205416612032565b6040516329bc672160e21b8152908282600481885afa91821561079457600092610e63575b5060405163c69deec560e01b815233600482015260248101859052908216908381604481855afa801561079457600090610e2d575b610d7491506120a9565b610d7d336132fb565b604051633e491d4760e01b81523360048201526024810186905290918490829060449082905afa928315610794578591600094610df8575b5091610640610dc79260009433612183565b92604051948552840152600060408401526060830152608082015260008051602061336a83398151915260a03392a3005b85809295508193503d8311610e26575b610e128183611df4565b810103126103955751918490610640610db5565b503d610e08565b508381813d8311610e5c575b610e438183611df4565b8101031261039557610e57610d749161209c565b610d6a565b503d610e39565b9091508281813d8311610e93575b610e7b8183611df4565b8101031261039557610e8c90612088565b9085610d35565b503d610e71565b3461039557604036600319011261039557610eb3611d56565b610ebb611d6c565b9060018060a01b03809116600052600660205260406000209116600052602052610eff610eeb6040600020611e16565b604051918291602083526020830190611edf565b0390f35b3461039557602036600319011261039557610f1c611d56565b610f24611f04565b6001600160a01b0316610f38811515611f30565b6000818152600560205260408120805460ff191660011790557ffc1f1e73948cbc47c5b7f90e5601b7daccd9ad7173218486ccc74bdd051d05e88180a3005b3461039557602036600319011261039557610f90611d56565b610f98611f04565b6001600160a01b0316610fac811515611f30565b6000818152600560205260408120805460ff191690557f987eb3c2f78454541205f72f34839b434c306c9eaf4922efd7c0c3060fdb2e4c8180a3005b3461039557604036600319011261039557611001611d56565b602490813560018060a01b0380921691826000526020906005825261102d60ff60406000205416612032565b6040516323e6650160e11b81528281600481885afa90811561079457600091611396575b506040516329bc672160e21b81528381600481895afa90811561079457600091611361575b5060405163c69deec560e01b815233600482015260248101869052838216908581604481855afa9081156107945760009161132c575b506112e85790604485969798926110c2336132fb565b946110ce8a823361312c565b9890976040519485809263e985e9c560e01b8252336004830152868a83015285165afa80156107945789936000916112b2575b50156111f1575b505060405163b6b55f2560e01b8282015283810189905283815261112f926106a982611dd8565b03816000335af1908115610794576000916111bc575b501561118a575061115990610649336132fb565b92604051948552840152604083015260006060830152608082015260008051602061336a83398151915260a03392a3005b84600c6064926040519262461bcd60e51b845260048401528201526b14dd185ad94819985a5b195960a21b6044820152fd5b90508581813d83116111ea575b6111d38183611df4565b81010312610395576111e49061209c565b88611145565b503d6111c9565b9061121f92916040519163a22cb46560e01b848401528683015260016044830152604482526106a982611dbc565b03816000335af19081156107945760009161127d575b501561124357858980611108565b60405162461bcd60e51b8152600481018790526013818401527213919508185c1c1c9bdd985b0819985a5b1959606a1b6044820152606490fd5b90508681813d83116112ab575b6112948183611df4565b81010312610395576112a59061209c565b89611235565b503d61128a565b84819592503d83116112e1575b6112c98183611df4565b81010312610395576112db899361209c565b8c611101565b503d6112bf565b60405162461bcd60e51b8152600481018690526017818a01527f506f736974696f6e20616c7265616479207374616b65640000000000000000006044820152606490fd5b90508581813d831161135a575b6113438183611df4565b81010312610395576113549061209c565b896110ac565b503d611339565b90508381813d831161138f575b6113788183611df4565b810103126103955761138990612088565b87611076565b503d61136e565b90508281813d83116113c4575b6113ad8183611df4565b81010312610395576113be90612088565b86611051565b503d6113a3565b34610395576020366003190112610395576004356113e7611f04565b6103e881116114295760407fddd31550b26e9ef8ade466958be83ff8a014d9b4f36d546b61a6847a4530657591600454908060045582519182526020820152a1005b60405162461bcd60e51b81526020600482015260116024820152700a6d8d2e0e0c2ceca40e8dede40d0d2ced607b1b6044820152606490fd5b346103955760603660031901126103955761147b611d56565b604435151560443503610395576001600160a01b0381166000908152600560205260409020546114ad9060ff16612032565b6040516323e6650160e11b8152906020826004816001600160a01b0385165afa91821561079457600092611ba1575b5060405163133f757160e31b81526024803560048301526101809081908390816001600160a01b0388165afa92831561079457600092600092600095611ae7575b5050611528336132fb565b6040516329bc672160e21b81529560009391906020886004816001600160a01b0388165afa97881561079457600098611aab575b5060405163c69deec560e01b81523360048201526024803590820152976020896044816001600160a01b0385165afa98891561079457600099611a6f575b50886119e7575b50600096600098156119ce575b6001600160801b038116611854575b5060206115f6916115d1602435823361312c565b5050604051630852cd8d60e31b8382015260248035818301528152906106a982611dd8565b03816000335af19081156107945760009161181a575b50156117e75761161f90610649336132fb565b90604435611679575b50604080516024358152602081019690965285019590955260608401919091526080830193909352506001600160a01b0390911690339060008051602061336a833981519152908060a0810161067c565b6040516370a0823160e01b8082523360048301526001600160a01b038716602083602481845afa928315610794576000936117b3575b506040519182523360048301526001600160a01b038416976020836024818c5afa92831561079457600093611767575b5060008051602061336a8339815191529861067c9695947f000000000000000000000000000000000000000000000000000000000000000094936001600160a01b03861693918691859003611754575b50505003611741575b50505090611628565b61174b92336123ce565b50878080611738565b61175e92336123ce565b508c848161172f565b9594939250906020863d6020116117ab575b8161178660209383611df4565b810103126103955794519394929391929060008051602061336a8339815191526116df565b3d9150611779565b9092506020813d6020116117df575b816117cf60209383611df4565b810103126103955751918a6116af565b3d91506117c2565b60405162461bcd60e51b815260206004820152600b60248201526a109d5c9b8819985a5b195960aa1b6044820152606490fd5b90506020813d60201161184c575b8161183560209383611df4565b81010312610395576118469061209c565b8861160c565b3d9150611828565b604051908160a081011067ffffffffffffffff60a08401111761034f5760a0820160405260243582526001600160801b03602083019116815260408201600081526060830190600082526001600160801b03608085019342855260405195630624e65f60e11b6020880152516024870152511660448501525160648401525160848301525160a482015260a481528060e081011067ffffffffffffffff60e08301111761034f5760e08101604081905263468721a760e01b815260209060df1983611923818760e4820161210e565b030160e084016000335af19081156107945760009161198e575b501561194957886115bd565b60405162461bcd60e51b815260206004820152601960248201527f4465637265617365206c6971756964697479206661696c6564000000000000006044820152606490fd5b90506020813d6020116119c6575b816119ac60209360e08401611df4565b810103126103955760e06119c0910161209c565b8961193d565b3d915061199c565b965096506119df602435883361312c565b9790966115ae565b604051633e491d4760e01b815233600482015260248035908201529095506020816044816001600160a01b038a165afa801561079457600090611a3b575b611a359150956024359033612183565b886115a1565b506020813d602011611a67575b81611a5560209383611df4565b8101031261039557611a359051611a25565b3d9150611a48565b9098506020813d602011611aa3575b81611a8b60209383611df4565b8101031261039557611a9c9061209c565b978961159a565b3d9150611a7e565b9097506020813d602011611adf575b81611ac760209383611df4565b8101031261039557611ad890612088565b968861155c565b3d9150611aba565b92509250925081813d8311611b9a575b611b018183611df4565b810103126103955780516001600160601b0381160361039557611b2660208201612088565b50611b3360408201612088565b90611b4060608201612088565b91611b4d6080830161310a565b50611b5a60a0830161310a565b50611b6760c0830161310a565b50611b8f610160611b7a60e08501613118565b93611b886101408201613118565b5001613118565b50919092858061151d565b503d611af7565b9091506020813d602011611bd5575b81611bbd60209383611df4565b8101031261039557611bce90612088565b90826114dc565b3d9150611bb0565b34610395576020806003193601126103955767ffffffffffffffff600435818111610395573660238201121561039557806004013591821161039557602490606036838286028401011161039557611c33611f04565b60005b848110611c3f57005b8082028301848101906001600160a01b03611c5d816101c585611f6b565b60449283830192611c71836101e086611f6b565b60648091019483611c8187611f6b565b1615611d21575050908080611cf1611ceb611ceb8897968f611ca560019c9b611f6b565b9086611cb084611f6b565b166000526007815260406000209087611cc88c611f6b565b166000525285604060002091166001600160601b0360a01b825416179055611f6b565b95611f6b565b16931691167f749f8bd52d751fb993fa16283117f0242f19e5471f5cb26f1185d1028cd803e5600080a401611c36565b71125b9d985b1a59081c1c9a58d9481999595960721b8c9160128c6040519462461bcd60e51b86526004860152840152820152fd5b600435906001600160a01b038216820361039557565b602435906001600160a01b038216820361039557565b90600182811c92168015611db2575b6020831014611d9c57565b634e487b7160e01b600052602260045260246000fd5b91607f1691611d91565b6080810190811067ffffffffffffffff82111761034f57604052565b6060810190811067ffffffffffffffff82111761034f57604052565b90601f8019910116810190811067ffffffffffffffff82111761034f57604052565b9060405191826000825492611e2a84611d82565b908184526001948581169081600014611e995750600114611e56575b5050611e5492500383611df4565b565b9093915060005260209081600020936000915b818310611e81575050611e5493508201013880611e46565b85548884018501529485019487945091830191611e69565b915050611e5494506020925060ff191682840152151560051b8201013880611e46565b60005b838110611ecf5750506000910152565b8181015183820152602001611ebf565b90602091611ef881518092818552858086019101611ebc565b601f01601f1916010190565b6000546001600160a01b03163303611f1857565b60405163118cdaa760e01b8152336004820152602490fd5b15611f3757565b60405162461bcd60e51b815260206004820152600c60248201526b125b9d985b1a59081c1bdbdb60a21b6044820152606490fd5b356001600160a01b03811681036103955790565b15611f8657565b60405162461bcd60e51b815260206004820152601260248201527124b73b30b634b210333937b6903a37b5b2b760711b6044820152606490fd5b15611fc757565b60405162461bcd60e51b815260206004820152601060248201526f24b73b30b634b2103a37903a37b5b2b760811b6044820152606490fd5b903590601e1981360301821215610395570180359067ffffffffffffffff82116103955760200191813603831361039557565b1561203957565b60405162461bcd60e51b815260206004820152602160248201527f506f6f6c206e6f7420617070726f76656420666f722074686973206d6f64756c6044820152606560f81b6064820152608490fd5b51906001600160a01b038216820361039557565b5190811515820361039557565b156120b057565b60405162461bcd60e51b8152602060048201526013602482015272141bdcda5d1a5bdb881b9bdd081cdd185ad959606a1b6044820152606490fd5b919082039182116120f857565b634e487b7160e01b600052601160045260246000fd5b929161213a60609160009360018060a01b03168652836020870152608060408701526080860190611edf565b930152565b1561214657565b60405162461bcd60e51b815260206004820152601560248201527414ddd85c081d1bc81cdd18589b194819985a5b1959605a1b6044820152606490fd5b916001600160a01b0391808316918215612399576040805163c69deec560e01b81528587166001600160a01b038116600483015260248201849052602094929392909185816044818a5afa801561238e57600090612358575b6121e691506120a9565b8351633e491d4760e01b81526001600160a01b038316600482015260248101849052958590879060449082905afa95861561234d5760009661231e575b5091849161226993855192632e1a7d4d60e01b8585015260248401526024835261224c83611dd8565b6000865180968195829463468721a760e01b84526004840161210e565b03925af1908115612313576000916122db575b50156122a05750508061228e57505050565b611e549261070c9260015416906130d1565b60649250519062461bcd60e51b82526004820152601560248201527411d85d59d9481dda5d1a191c985dc819985a5b1959605a1b6044820152fd5b908382813d831161230c575b6122f18183611df4565b8101031261230957506123039061209c565b3861227c565b80fd5b503d6122e7565b82513d6000823e3d90fd5b90958582813d8311612346575b6123358183611df4565b810103126123095750519484612223565b503d61232b565b84513d6000823e3d90fd5b8682813d8311612387575b61236d8183611df4565b8101031261230957506123826121e69161209c565b6121dc565b503d612363565b85513d6000823e3d90fd5b60405162461bcd60e51b815260206004820152600d60248201526c496e76616c696420676175676560981b6044820152606490fd5b919291906001600160a01b03908181166129f05750833403612996576040516020630d0e30db60e41b8183015260048252604082019180831067ffffffffffffffff84111761034f57826040527f00000000000000000000000000000000000000000000000000000000000000009263468721a760e01b815284841660448301528760648301526080608483015261246960c4830183611edf565b83826000928360a487015285603f1991030181848a8c165af1928315612989578490829461294f575b505050501561291557505b6000828516156128ea575b828516948383168681146128a55760005260209660068852604096876000209060005288526124d987600020611e16565b9182511561286d57600354885163095ea7b360e01b8b8201529087166001600160a01b031660248201526044808201849052815296869061251b60648a611df4565b169488518a818061253b63468721a760e01b9c8d8352866004840161210e565b038160008b5af19081156128625760009161282d575b50156127f2576125f4938361256e6125ba948d966125dc95612ad7565b8b519261257a84611dbc565b8352858301918983528c8401908152606084019182528a8d5196879563b858183f60e01b8a880152896024880152516080604488015260c4870190611edf565b93511660648501525160848401525160a483015203601f198101835282611df4565b8560035416885193849283928a84526004840161210e565b03816000875af19081156127e7576000916127b2575b50156127765761261f575b5050505050600190565b602491857f0000000000000000000000000000000000000000000000000000000000000000918651948580926370a0823160e01b825286600483015285165afa92831561238e579086939291600093612741575b5060006126af95875194632e1a7d4d60e01b8787015260248601526024855261269b85611dd8565b87519687958694859384526004840161210e565b03925af19081156123135760009161270c575b50156126d057808080612615565b60649250519062461bcd60e51b82526004820152601660248201527515d15512081d5b9ddc985c1c1a5b99c819985a5b195960521b6044820152fd5b908382813d831161273a575b6127228183611df4565b8101031261230957506127349061209c565b386126c2565b503d612718565b919382819492943d831161276f575b61275a8183611df4565b81010312612309575051859290916000612673565b503d612750565b845162461bcd60e51b815260048101879052601560248201527414ddd85c08195e1958dd5d1a5bdb8819985a5b1959605a1b6044820152606490fd5b908782813d83116127e0575b6127c88183611df4565b8101031261230957506127da9061209c565b3861260a565b503d6127be565b86513d6000823e3d90fd5b885162461bcd60e51b8152600481018b90526014602482015273151bdad95b88185c1c1c9bdd994819985a5b195960621b6044820152606490fd5b908b82813d831161285b575b6128438183611df4565b8101031261230957506128559061209c565b38612551565b503d612839565b8a513d6000823e3d90fd5b875162461bcd60e51b8152600481018a9052601160248201527014ddd85c081c185d1a081b9bdd081cd95d607a1b6044820152606490fd5b60405162461bcd60e51b815260206004820152601960248201527f43616e6e6f74207377617020746f2073616d6520746f6b656e000000000000006044820152606490fd5b507f0000000000000000000000000000000000000000000000000000000000000000935060016124a8565b6064906040519062461bcd60e51b825260048201526013602482015272115512081ddc985c1c1a5b99c819985a5b1959606a1b6044820152fd5b9080929394503d8311612982575b6129678186611df4565b8101031261230957506129799061209c565b38808381612492565b503d61295d565b50604051903d90823e3d90fd5b60405162461bcd60e51b815260206004820152602c60248201527f4d73672e76616c7565206d75737420657175616c20616d6f756e74496e20666f60448201526b0e440dcc2e8d2ecca408aa8960a31b6064820152608490fd5b341561249d5760405162461bcd60e51b815260206004820152603260248201527f4e6f204554482073686f756c642062652073656e74207768656e20746f6b656e604482015271040d2e640dcdee840dcc2e8d2ecca408aa8960731b6064820152608490fd5b90816020910312610395575160ff811681036103955790565b818102929181159184041417156120f857565b60ff166008019060ff82116120f857565b60ff6005199116019060ff82116120f857565b60ff16604d81116120f857600a0a90565b8115612ac1570490565b634e487b7160e01b600052601260045260246000fd5b6001600160a01b038084169391928184169291838614612e2d5760409283519563313ce56760e01b95868852602093600499858a8c81865afa998a15612e035760009a612e0e575b50875198895285898c81845afa988915612e0357600099612dd4575b5082600052600786528760002081600052865281886000205416926007875288600020816000528752828960002054166000941515600014612c4157505050505090612b8691612eff565b939093612bfe575050612bb6612bc79493612bb0612baa612bc195612bbc95612a6f565b91612aa6565b90612a6f565b92612a82565b612aa6565b90612ab7565b905b80549161271092830391838311612be9575090612be591612a6f565b0490565b601190634e487b7160e01b6000525260246000fd5b5162461bcd60e51b815280870191909152601860248201527f556e657870656374656420696e766572736520707269636500000000000000006044820152606490fd5b15612cbb575050505090612c5491612eff565b93909315612c7f575050612bb6612c799493612bb0612baa612bc195612bbc95612a6f565b90612bc9565b5162461bcd60e51b8152808701919091526016602482015275457870656374656420696e766572736520707269636560501b6044820152606490fd5b9b9a999496939b9897919592987f0000000000000000000000000000000000000000000000000000000000000000968716809114159182612dc9575b505015612d90575050612d1e612d1684655af3107a4000999a9b612eff565b959094612eff565b90965093612d7457612bbc612d42612d3c612d4795612bc194612a6f565b93612a82565b612a93565b905b612d6457612baa612d5d93612bb092612a6f565b0490612bc9565b612baa612d5d93612bb092612a6f565b612bbc612d42612d3c612d8a95612bc194612a6f565b90612d49565b5162461bcd60e51b815280890191909152601360248201527209cde40ecc2d8d2c840e0e4d2c6ca40e0c2e8d606b1b6044820152606490fd5b141590503880612cf7565b612df5919950863d8811612dfc575b612ded8183611df4565b810190612a56565b9738612b3b565b503d612de3565b88513d6000823e3d90fd5b612e26919a50863d8811612dfc57612ded8183611df4565b9838612b1f565b50935050505090565b519069ffffffffffffffffffff8216820361039557565b908160a091031261039557612e6181612e36565b91602082015191604081015191612e7f608060608401519301612e36565b90565b15612e8957565b60405162461bcd60e51b815260206004820152600d60248201526c496e76616c696420707269636560981b6044820152606490fd5b15612ec557565b60405162461bcd60e51b8152602060048201526012602482015271141c9a58d94819995959081d1bdbc81bdb1960721b6044820152606490fd5b60018060a01b03809116906000918083526007602052604093828585209116908185526020528285852054168061304a575083526007602052838320908352602052828220541680612f8557825162461bcd60e51b8152602060048201526013602482015272139bc81c1c9a58d9481999595908199bdd5b99606a1b6044820152606490fd5b9160a0600493825194858092633fabe5a360e21b82525afa90811561303f575081928291612ffc575b5062015180612fcb612fd292612fc5858713612e82565b426120eb565b1115612ebe565b8115612fe85750662386f26fc100000490600190565b634e487b7160e01b81526012600452602490fd5b612fcb9350612fd2915061302a620151809160a03d8111613038575b6130228183611df4565b810190612e4d565b509692505094925050612fae565b503d613018565b51913d9150823e3d90fd5b8551633fabe5a360e21b8152949695935060a0925084915060049082905afa9081156130c8575083918491613095575b5062015180612fcb61309192612fc5878613612e82565b9190565b612fcb925061309191506130ba620151809160a03d8111613038576130228183611df4565b50959250509392505061307a565b513d85823e3d90fd5b918015613102576002546001600160a01b039081169290811683146130f957612e7f936123ce565b50505050600190565b505050600190565b51908160020b820361039557565b51906001600160801b038216820361039557565b604080519390926001600160a01b039283169161314886611dbc565b8552602092838601838152858701916001600160801b0392839182825260608a019383855289519a63fc6f786560e01b8a8d01525160248c0152511660448a015251166064880152511660848601526084855260c085019167ffffffffffffffff918684108385111761034f57838092818852635229073f60e01b82526000958680948b6131dd8160bf199360c4820161210e565b0301925af19586156132f15783928497613245575b5050501561321157828480518101031261230957508201519101519091565b50606491519062461bcd60e51b82526004820152600e60248201526d10dbdb1b1958dd0819985a5b195960921b6044820152fd5b91965091503d8084883e6132598188611df4565b820195858360c089019803126132d5576132729061209c565b9160e0810151908282116132ed57018660df820112156132d55760c08101519182116132d9578551966132ae601f8401601f1916870189611df4565b82885260e083830101116132d557906132cd9160e08689019101611ebc565b3880806131f2565b8380fd5b634e487b7160e01b84526041600452602484fd5b8480fd5b85513d85823e3d90fd5b6002546040516370a0823160e01b81526001600160a01b0392831660048201529160209183916024918391165afa9081156107945760009161333b575090565b906020823d8211613361575b8161335460209383611df4565b8101031261230957505190565b3d915061334756fec457dabb1cd0422f2d4ee0e35bed2d324c897ff52ca6d0033a86d6a43ce80502a26469706673582212204c3af8828e5a5c150f95c0624080a2e8f7f3e05ca726a659e54979d5ef7346f164736f6c63430008140033",
  "linkReferences": {},
  "deployedLinkReferences": {}
}