{
  "_format": "hh-sol-artifact-1",
  "contractName": "CholoDromeModule",
  "sourceName": "contracts/CholoDromeModule.sol",
  "abi": [
    {
      "inputs": [
        {
          "internalType": "address",
          "name": "_owner",
          "type": "address"
        },
        {
          "internalType": "address",
          "name": "_rewardToken",
          "type": "address"
        },
        {
          "internalType": "address",
          "name": "_rewardStable",
          "type": "address"
        },
        {
          "internalType": "address",
          "name": "_universalRouter",
          "type": "address"
        },
        {
          "internalType": "address",
          "name": "_weth",
          "type": "address"
        }
      ],
      "stateMutability": "nonpayable",
      "type": "constructor"
    },
    {
      "inputs": [
        {
          "internalType": "address",
          "name": "owner",
          "type": "address"
        }
      ],
      "name": "OwnableInvalidOwner",
      "type": "error"
    },
    {
      "inputs": [
        {
          "internalType": "address",
          "name": "account",
          "type": "address"
        }
      ],
      "name": "OwnableUnauthorizedAccount",
      "type": "error"
    },
    {
      "anonymous": false,
      "inputs": [
        {
          "indexed": true,
          "internalType": "address",
          "name": "safe",
          "type": "address"
        },
        {
          "indexed": true,
          "internalType": "address",
          "name": "pool",
          "type": "address"
        },
        {
          "indexed": false,
          "internalType": "uint256",
          "name": "tokenId",
          "type": "uint256"
        }
      ],
      "name": "DepositMaxCompleted",
      "type": "event"
    },
    {
      "anonymous": false,
      "inputs": [
        {
          "indexed": true,
          "internalType": "address",
          "name": "safe",
          "type": "address"
        },
        {
          "indexed": true,
          "internalType": "address",
          "name": "pool",
          "type": "address"
        },
        {
          "indexed": false,
          "internalType": "uint256",
          "name": "tokenId",
          "type": "uint256"
        },
        {
          "indexed": false,
          "internalType": "uint256",
          "name": "amount0",
          "type": "uint256"
        },
        {
          "indexed": false,
          "internalType": "uint256",
          "name": "amount1",
          "type": "uint256"
        },
        {
          "indexed": false,
          "internalType": "uint256",
          "name": "veloAmount",
          "type": "uint256"
        },
        {
          "indexed": false,
          "internalType": "uint256",
          "name": "totalUsdtAmount",
          "type": "uint256"
        }
      ],
      "name": "EarningsCollected",
      "type": "event"
    },
    {
      "anonymous": false,
      "inputs": [
        {
          "indexed": true,
          "internalType": "address",
          "name": "previousOwner",
          "type": "address"
        },
        {
          "indexed": true,
          "internalType": "address",
          "name": "newOwner",
          "type": "address"
        }
      ],
      "name": "OwnershipTransferred",
      "type": "event"
    },
    {
      "anonymous": false,
      "inputs": [
        {
          "indexed": true,
          "internalType": "address",
          "name": "safe",
          "type": "address"
        },
        {
          "indexed": true,
          "internalType": "address",
          "name": "pool",
          "type": "address"
        }
      ],
      "name": "PoolApproved",
      "type": "event"
    },
    {
      "anonymous": false,
      "inputs": [
        {
          "indexed": true,
          "internalType": "address",
          "name": "safe",
          "type": "address"
        },
        {
          "indexed": true,
          "internalType": "address",
          "name": "pool",
          "type": "address"
        }
      ],
      "name": "PoolRemoved",
      "type": "event"
    },
    {
      "anonymous": false,
      "inputs": [
        {
          "indexed": true,
          "internalType": "address",
          "name": "oldStable",
          "type": "address"
        },
        {
          "indexed": true,
          "internalType": "address",
          "name": "newStable",
          "type": "address"
        }
      ],
      "name": "RewardStableUpdated",
      "type": "event"
    },
    {
      "anonymous": false,
      "inputs": [
        {
          "indexed": true,
          "internalType": "address",
          "name": "oldToken",
          "type": "address"
        },
        {
          "indexed": true,
          "internalType": "address",
          "name": "newToken",
          "type": "address"
        }
      ],
      "name": "RewardTokenUpdated",
      "type": "event"
    },
    {
      "anonymous": false,
      "inputs": [
        {
          "indexed": false,
          "internalType": "uint256",
          "name": "oldTolerance",
          "type": "uint256"
        },
        {
          "indexed": false,
          "internalType": "uint256",
          "name": "newTolerance",
          "type": "uint256"
        }
      ],
      "name": "SlippageToleranceUpdated",
      "type": "event"
    },
    {
      "inputs": [],
      "name": "WETH",
      "outputs": [
        {
          "internalType": "address",
          "name": "",
          "type": "address"
        }
      ],
      "stateMutability": "view",
      "type": "function"
    },
    {
      "inputs": [
        {
          "internalType": "address",
          "name": "pool",
          "type": "address"
        }
      ],
      "name": "approvePool",
      "outputs": [],
      "stateMutability": "nonpayable",
      "type": "function"
    },
    {
      "inputs": [
        {
          "internalType": "address",
          "name": "",
          "type": "address"
        }
      ],
      "name": "approvedPools",
      "outputs": [
        {
          "internalType": "bool",
          "name": "",
          "type": "bool"
        }
      ],
      "stateMutability": "view",
      "type": "function"
    },
    {
      "inputs": [
        {
          "internalType": "address",
          "name": "pool",
          "type": "address"
        },
        {
          "internalType": "uint256",
          "name": "tokenId",
          "type": "uint256"
        },
        {
          "components": [
            {
              "internalType": "address",
              "name": "token",
              "type": "address"
            },
            {
              "internalType": "uint256",
              "name": "price",
              "type": "uint256"
            },
            {
              "internalType": "bytes",
              "name": "swapPath",
              "type": "bytes"
            }
          ],
          "internalType": "struct CholoDromeModule.TokenData[]",
          "name": "tokenData",
          "type": "tuple[]"
        }
      ],
      "name": "collectAndConvertFees",
      "outputs": [],
      "stateMutability": "nonpayable",
      "type": "function"
    },
    {
      "inputs": [],
      "name": "owner",
      "outputs": [
        {
          "internalType": "address",
          "name": "",
          "type": "address"
        }
      ],
      "stateMutability": "view",
      "type": "function"
    },
    {
      "inputs": [
        {
          "internalType": "address",
          "name": "pool",
          "type": "address"
        }
      ],
      "name": "removePool",
      "outputs": [],
      "stateMutability": "nonpayable",
      "type": "function"
    },
    {
      "inputs": [],
      "name": "renounceOwnership",
      "outputs": [],
      "stateMutability": "nonpayable",
      "type": "function"
    },
    {
      "inputs": [],
      "name": "rewardStable",
      "outputs": [
        {
          "internalType": "address",
          "name": "",
          "type": "address"
        }
      ],
      "stateMutability": "view",
      "type": "function"
    },
    {
      "inputs": [],
      "name": "rewardToken",
      "outputs": [
        {
          "internalType": "address",
          "name": "",
          "type": "address"
        }
      ],
      "stateMutability": "view",
      "type": "function"
    },
    {
      "inputs": [
        {
          "internalType": "address",
          "name": "_newRewardStable",
          "type": "address"
        }
      ],
      "name": "setRewardStable",
      "outputs": [],
      "stateMutability": "nonpayable",
      "type": "function"
    },
    {
      "inputs": [
        {
          "internalType": "address",
          "name": "_newRewardToken",
          "type": "address"
        }
      ],
      "name": "setRewardToken",
      "outputs": [],
      "stateMutability": "nonpayable",
      "type": "function"
    },
    {
      "inputs": [
        {
          "internalType": "uint256",
          "name": "_slippageTolerance",
          "type": "uint256"
        }
      ],
      "name": "setSlippageTolerance",
      "outputs": [],
      "stateMutability": "nonpayable",
      "type": "function"
    },
    {
      "inputs": [],
      "name": "slippageTolerance",
      "outputs": [
        {
          "internalType": "uint256",
          "name": "",
          "type": "uint256"
        }
      ],
      "stateMutability": "view",
      "type": "function"
    },
    {
      "inputs": [
        {
          "internalType": "address",
          "name": "pool",
          "type": "address"
        },
        {
          "internalType": "uint256",
          "name": "tokenId",
          "type": "uint256"
        },
        {
          "components": [
            {
              "internalType": "address",
              "name": "token",
              "type": "address"
            },
            {
              "internalType": "uint256",
              "name": "price",
              "type": "uint256"
            },
            {
              "internalType": "bytes",
              "name": "swapPath",
              "type": "bytes"
            }
          ],
          "internalType": "struct CholoDromeModule.TokenData[]",
          "name": "tokenData",
          "type": "tuple[]"
        }
      ],
      "name": "stakeAndCollect",
      "outputs": [],
      "stateMutability": "nonpayable",
      "type": "function"
    },
    {
      "inputs": [
        {
          "internalType": "address",
          "name": "token",
          "type": "address"
        },
        {
          "internalType": "uint256",
          "name": "amountIn",
          "type": "uint256"
        },
        {
          "internalType": "address",
          "name": "toToken",
          "type": "address"
        },
        {
          "internalType": "bool",
          "name": "isEarning",
          "type": "bool"
        },
        {
          "components": [
            {
              "internalType": "address",
              "name": "token",
              "type": "address"
            },
            {
              "internalType": "uint256",
              "name": "price",
              "type": "uint256"
            },
            {
              "internalType": "bytes",
              "name": "swapPath",
              "type": "bytes"
            }
          ],
          "internalType": "struct CholoDromeModule.TokenData[]",
          "name": "tokenData",
          "type": "tuple[]"
        }
      ],
      "name": "swap",
      "outputs": [],
      "stateMutability": "payable",
      "type": "function"
    },
    {
      "inputs": [
        {
          "internalType": "address",
          "name": "newOwner",
          "type": "address"
        }
      ],
      "name": "transferOwnership",
      "outputs": [],
      "stateMutability": "nonpayable",
      "type": "function"
    },
    {
      "inputs": [],
      "name": "universalRouter",
      "outputs": [
        {
          "internalType": "address",
          "name": "",
          "type": "address"
        }
      ],
      "stateMutability": "view",
      "type": "function"
    },
    {
      "inputs": [
        {
          "internalType": "address",
          "name": "pool",
          "type": "address"
        },
        {
          "internalType": "uint256",
          "name": "tokenId",
          "type": "uint256"
        },
        {
          "components": [
            {
              "internalType": "address",
              "name": "token",
              "type": "address"
            },
            {
              "internalType": "uint256",
              "name": "price",
              "type": "uint256"
            },
            {
              "internalType": "bytes",
              "name": "swapPath",
              "type": "bytes"
            }
          ],
          "internalType": "struct CholoDromeModule.TokenData[]",
          "name": "tokenData",
          "type": "tuple[]"
        }
      ],
      "name": "unstakeAndCollect",
      "outputs": [],
      "stateMutability": "nonpayable",
      "type": "function"
    },
    {
      "inputs": [
        {
          "internalType": "address",
          "name": "pool",
          "type": "address"
        },
        {
          "internalType": "uint256",
          "name": "tokenId",
          "type": "uint256"
        },
        {
          "components": [
            {
              "internalType": "address",
              "name": "token",
              "type": "address"
            },
            {
              "internalType": "uint256",
              "name": "price",
              "type": "uint256"
            },
            {
              "internalType": "bytes",
              "name": "swapPath",
              "type": "bytes"
            }
          ],
          "internalType": "struct CholoDromeModule.TokenData[]",
          "name": "tokenData",
          "type": "tuple[]"
        }
      ],
      "name": "withdrawAndCollect",
      "outputs": [],
      "stateMutability": "nonpayable",
      "type": "function"
    }
  ],
  "bytecode": "0x60a0346200027a57601f62002f3938819003918201601f191683019291906001600160401b038411838510176200027f578160a092849260409687528339810103126200027a57620000518162000295565b6200005f6020830162000295565b6200006c84840162000295565b92620000896080620000816060840162000295565b920162000295565b936001600160a01b039384169283156200026257600080546001600160a01b0319808216871783559587939290918416907f8be0079c531659141344cd1fd0a4f28419497f9722a3daafe3b4186f6b6457e09080a361012c600455169081156200021e578416918215620001da57841693841562000196578516156200015257826001541617600155816002541617600255600354161760035560805251612c8e9081620002ab82396080518181816111fc015281816120630152818161232401526125f30152f35b855162461bcd60e51b815260206004820152601460248201527f496e76616c6964205745544820616464726573730000000000000000000000006044820152606490fd5b865162461bcd60e51b815260206004820152601360248201527f496e76616c6964207377617020726f75746572000000000000000000000000006044820152606490fd5b865162461bcd60e51b815260206004820152601560248201527f496e76616c69642072657761726420737461626c6500000000000000000000006044820152606490fd5b865162461bcd60e51b815260206004820152601460248201527f496e76616c69642072657761726420746f6b656e0000000000000000000000006044820152606490fd5b8651631e4fbdf760e01b815260006004820152602490fd5b600080fd5b634e487b7160e01b600052604160045260246000fd5b51906001600160a01b03821682036200027a5756fe6080604052600436101561001257600080fd5b60003560e01c8063117da1ee1461183257806327eb9514146116635780632e5f9b401461146757806335a9e4df1461143e5780633b7d0946146113cd578063424c265b14611359578063715018a6146113005780638aee8127146112545780638da5cb5b1461122b578063ad5c4648146111e6578063c13d2f7514611139578063d03153aa1461111b578063d042721914610cc6578063e5faa0b6146107f5578063f0bbcec4146107b6578063f2bf87e31461078d578063f2fde38b14610704578063f7c618c1146106db5763fa3c5a79146100ed57600080fd5b34610368576100fb3661190f565b9060018060a01b038416600052600560205261011e60ff604060002054166119bc565b6040516323e6650160e11b8152936020856004816001600160a01b0385165afa9485156103755760009561069f575b5060405163133f757160e31b8152600481018590526101809586826024816001600160a01b0385165afa80156103755760009260009860009261065f575b505061019633612bca565b6040516329bc672160e21b815260009790969194916020886004816001600160a01b038b165afa801561037557600090610624575b60405163c69deec560e01b8152336004820152602481018c9052985060208980604481015b03816001600160a01b0385165afa988915610375576000996105e8575b5088610558575b5060009a600098156104fc575b505050506001600160801b038116610381575b50602081610246886102869433612a0a565b5050604051630852cd8d60e31b8382015260248082018a905281529061026b82611a12565b60405163468721a760e01b8152938492839260048401611c41565b03816000335af190811561037557600091610336575b501561030357600080516020612c39833981519152936102c76102fe926102c233612bca565b611bd6565b9060405194859460018060a01b0316983398869192608093969594919660a084019784526020840152604083015260608201520152565b0390a3005b60405162461bcd60e51b815260206004820152600b60248201526a109d5c9b8819985a5b195960aa1b6044820152606490fd5b90506020813d60201161036d575b8161035160209383611a48565b810103126103685761036290611a7d565b3861029c565b600080fd5b3d9150610344565b6040513d6000823e3d90fd5b604051908160a08101106001600160401b0360a0840111176104e65760a082016040528782526001600160801b03602083019116815260408201600081526060830190600082526001600160801b03608085019342855260405195630624e65f60e11b6020880152516024870152511660448501525160648401525160848301525160a482015260a4815260e081018181106001600160401b038211176104e657604081905263468721a760e01b815260208160df1984610446818860e48201611c41565b0301816000335af1918215610375576000926104af575b50501561046a5738610234565b60405162461bcd60e51b815260206004820152601960248201527f4465637265617365206c6971756964697479206661696c6564000000000000006044820152606490fd5b6020809293503d83116104df575b6104c78185611a48565b81010312610368576104d890611a7d565b388061045d565b503d6104bd565b634e487b7160e01b600052604160045260246000fd5b91975091995061050d898533612a0a565b90978198809c81610541575b505081156102215761053793610530913691611ae7565b91336128ea565b5038808080610221565b61055091610530368589611ae7565b503880610519565b604051633e491d4760e01b8152336004820152602481018c90529099506020816044816001600160a01b038e165afa8015610375576000906105b4575b6105ae9150998b6105a7368686611ae7565b9133611cb6565b38610214565b506020813d6020116105e0575b816105ce60209383611a48565b81010312610368576105ae9051610595565b3d91506105c1565b9098506020813d60201161061c575b8161060460209383611a48565b810103126103685761061590611a7d565b973861020d565b3d91506105f7565b506020883d602011610657575b8161063e60209383611a48565b81010312610368576106526101f098611a69565b6101cb565b3d9150610631565b91509197506106839250803d10610698575b61067b8183611a48565b810190612967565b505050509b955050505092509196388061018b565b503d610671565b9094506020813d6020116106d3575b816106bb60209383611a48565b81010312610368576106cc90611a69565b933861014d565b3d91506106ae565b34610368576000366003190112610368576001546040516001600160a01b039091168152602090f35b346103685760203660031901126103685761071d6118c9565b610725611955565b6001600160a01b0390811690811561077457600054826001600160601b0360a01b821617600055167f8be0079c531659141344cd1fd0a4f28419497f9722a3daafe3b4186f6b6457e0600080a3005b604051631e4fbdf760e01b815260006004820152602490fd5b34610368576000366003190112610368576002546040516001600160a01b039091168152602090f35b34610368576020366003190112610368576001600160a01b036107d76118c9565b166000526005602052602060ff604060002054166040519015158152f35b34610368576108033661190f565b60018060a01b038094169384600052600560205261082860ff604060002054166119bc565b6040516323e6650160e11b815290602082600481895afa91821561037557600092610c8a575b506040516329bc672160e21b8152906020826004818a5afa91821561037557600092610c4e575b5060405163c69deec560e01b8152336004820152602481018790526020816044818686165afa90811561037557600091610c14575b50610bcf576108b833612bca565b926040519563133f757160e31b87528760048801526101809687816024818787165afa90811561037557600098600092610b9f575b50506108fa898433612a0a565b9781998992610b88575b5081610b6f575b5050505060405163e985e9c560e01b815233600482015282841660248201526020816044818686165afa90811561037557600091610b35575b5015610a40575b50506020610976916040519063b6b55f2560e01b838301528760248301526024825261026b82611a12565b03816000335af190811561037557600091610a06575b50156109d25761099f906102c233612bca565b9160405193845260208401526040830152600060608301526080820152600080516020612c3983398151915260a03392a3005b60405162461bcd60e51b815260206004820152600c60248201526b14dd185ad94819985a5b195960a21b6044820152606490fd5b90506020813d602011610a38575b81610a2160209383611a48565b8101031261036857610a3290611a7d565b8661098c565b3d9150610a14565b6040519163a22cb46560e01b602084015283166024830152600160448301526044825260808201908282106001600160401b038311176104e657816020918160405263468721a760e01b825284610a9e81607f199360848201611c41565b0301816000335af191821561037557600092610afe575b505015610ac357868061094b565b60405162461bcd60e51b815260206004820152601360248201527213919508185c1c1c9bdd985b0819985a5b1959606a1b6044820152606490fd5b6020809293503d8311610b2e575b610b168185611a48565b8101031261036857610b2790611a7d565b8780610ab5565b503d610b0c565b90506020813d602011610b67575b81610b5060209383611a48565b8101031261036857610b6190611a7d565b89610944565b3d9150610b43565b610b7e93610530913691611ae7565b508880868161090b565b610b98908b610530368589611ae7565b508c610904565b610bba93995080919250903d106106985761067b8183611a48565b50505050505050509892509050968a806108ed565b60405162461bcd60e51b815260206004820152601760248201527f506f736974696f6e20616c7265616479207374616b65640000000000000000006044820152606490fd5b90506020813d602011610c46575b81610c2f60209383611a48565b8101031261036857610c4090611a7d565b886108aa565b3d9150610c22565b9091506020813d602011610c82575b81610c6a60209383611a48565b8101031261036857610c7b90611a69565b9087610875565b3d9150610c5d565b9091506020813d602011610cbe575b81610ca660209383611a48565b8101031261036857610cb790611a69565b908661084e565b3d9150610c99565b3461036857610cd43661190f565b9260018060a01b031692836000526005602052610cf860ff604060002054166119bc565b6040516323e6650160e11b815290602082600481885afa918215610375576000926110df575b506040516329bc672160e21b8152602081600481895afa908115610375576000916110a5575b50610d4e33612bca565b60405163c69deec560e01b815233600482015260248101879052909460009485946001600160a01b038516939091908690602081604481895afa9081156103755760009161106b575b5015610f70575050604051633e491d4760e01b81523360048201526024810189905292602090849060449082905afa92831561037557600093610f3c575b50829383610e31575b505050506102fe90610e03600080516020612c39833981519152955b6102c233612bca565b906040519485943398869192608093969594919660a084019784526020840152604083015260608201520152565b6020610e609160409993949695995190631c4b774b60e01b838301528b60248301526024825261026b82611a12565b03816000335af190811561037557600091610f02575b5015610ebd57610eb5610eb0610e0393600080516020612c39833981519152996105306102fe9860018060a01b0360015416933691611ae7565b611c72565b958293610dde565b60405162461bcd60e51b815260206004820152601760248201527f47617567652067657420726577617264206661696c65640000000000000000006044820152606490fd5b90506020813d602011610f34575b81610f1d60209383611a48565b8101031261036857610f2e90611a7d565b8a610e76565b3d9150610f10565b9092506020813d602011610f68575b81610f5860209383611a48565b8101031261036857519189610dd5565b3d9150610f4b565b60405163133f757160e31b8152600481018b90529198929750909550610180945092509083856024816001600160a01b038b165afa801561037557600080516020612c3983398151915297899660009660009361102c575b505090610fdf6102fe9697610e0395949333612a0a565b90988199809981611015575b505081610ffc575b50505050610dfa565b61100b93610530913691611ae7565b5089808080610ff3565b61102491610530368589611ae7565b508d80610feb565b6102fe9750610e0395949350610fdf918161105292903d106106985761067b8183611a48565b50505050505050509a9250905098939495509796610fc8565b90506020813d60201161109d575b8161108660209383611a48565b810103126103685761109790611a7d565b8c610d97565b3d9150611079565b90506020813d6020116110d7575b816110c060209383611a48565b81010312610368576110d190611a69565b86610d44565b3d91506110b3565b9091506020813d602011611113575b816110fb60209383611a48565b810103126103685761110c90611a69565b9085610d1e565b3d91506110ee565b34610368576000366003190112610368576020600454604051908152f35b34610368576020366003190112610368576111526118c9565b61115a611955565b6001600160a01b039081169081156111a957600254826001600160601b0360a01b821617600255167f9d4858dccb76debed7845fd87ec5c769962d072d518c9e34182581abb3e8247c600080a3005b60405162461bcd60e51b8152602060048201526015602482015274496e76616c69642072657761726420737461626c6560581b6044820152606490fd5b34610368576000366003190112610368576040517f00000000000000000000000000000000000000000000000000000000000000006001600160a01b03168152602090f35b34610368576000366003190112610368576000546040516001600160a01b039091168152602090f35b346103685760203660031901126103685761126d6118c9565b611275611955565b6001600160a01b039081169081156112c457600154826001600160601b0360a01b821617600155167f906ff2422a6ffa134f2d7ccaffd446bc0c583a5cb6615749b4b2836942a5fea8600080a3005b60405162461bcd60e51b815260206004820152601460248201527324b73b30b634b2103932bbb0b932103a37b5b2b760611b6044820152606490fd5b3461036857600036600319011261036857611319611955565b600080546001600160a01b0319811682556001600160a01b03167f8be0079c531659141344cd1fd0a4f28419497f9722a3daafe3b4186f6b6457e08280a3005b34610368576020366003190112610368576113726118c9565b61137a611955565b6001600160a01b031661138e811515611981565b6000818152600560205260408120805460ff191660011790557ffc1f1e73948cbc47c5b7f90e5601b7daccd9ad7173218486ccc74bdd051d05e88180a3005b34610368576020366003190112610368576113e66118c9565b6113ee611955565b6001600160a01b0316611402811515611981565b6000818152600560205260408120805460ff191690557f987eb3c2f78454541205f72f34839b434c306c9eaf4922efd7c0c3060fdb2e4c8180a3005b34610368576000366003190112610368576003546040516001600160a01b039091168152602090f35b60a03660031901126103685761147b6118c9565b60243590604435906001600160a01b03821680830361036857606435938415158503610368576084356001600160401b038111610368576114cd6114c66114d39236906004016118df565b3691611ae7565b84611f45565b9290921561161e578061153a5750906114fb936114f3923331943361201d565b503331611bd6565b905b61150357005b600090604051908282528260208301528260408301526060820152816080820152600080516020612c3983398151915260a03392a3005b939290604051926370a0823160e01b9182855233600486015260209384866024818b5afa958615610375576000966115e1575b509561157d92918596973361201d565b5060246040518096819382523360048301525afa908115610375576000916115b1575b506115ab9250611bd6565b906114fd565b905082813d83116115da575b6115c78183611a48565b81010312610368576115ab9151846115a0565b503d6115bd565b92919480965083819892983d8311611617575b6115fe8183611a48565b810103126103685791519195919493909161157d61156d565b503d6115f4565b60405162461bcd60e51b815260206004820152601e60248201527f546f6b656e206e6f7420666f756e6420696e20707269636520617272617900006044820152606490fd5b34610368576116713661190f565b60018060a09593951b0380921693846000526020926005845261169b60ff604060002054166119bc565b6040516329bc672160e21b81529084826004818a5afa918215610375576000926117fb575b5060405163c69deec560e01b815233600482015260248101879052908216908581604481855afa8015610375576000906117c5575b6116ff9150611a8a565b61170833612bca565b604051633e491d4760e01b815233600482015260248101889052909390918690839060449082905afa94851561037557879260009661178b575b5092600094926105a7610dfa9361175a963691611ae7565b926040519485528401526000604084015260608301526080820152600080516020612c3983398151915260a03392a3005b87809297508193959694503d83116117be575b6117a88183611a48565b8101031261036857519390929186916000611742565b503d61179e565b508581813d83116117f4575b6117db8183611a48565b81010312610368576117ef6116ff91611a7d565b6116f5565b503d6117d1565b9091508481813d831161182b575b6118138183611a48565b810103126103685761182490611a69565b90876116c0565b503d611809565b346103685760203660031901126103685760043561184e611955565b6103e881116118905760407fddd31550b26e9ef8ade466958be83ff8a014d9b4f36d546b61a6847a4530657591600454908060045582519182526020820152a1005b60405162461bcd60e51b81526020600482015260116024820152700a6d8d2e0e0c2ceca40e8dede40d0d2ced607b1b6044820152606490fd5b600435906001600160a01b038216820361036857565b9181601f84011215610368578235916001600160401b038311610368576020808501948460051b01011161036857565b6060600319820112610368576004356001600160a01b0381168103610368579160243591604435906001600160401b03821161036857611951916004016118df565b9091565b6000546001600160a01b0316330361196957565b60405163118cdaa760e01b8152336004820152602490fd5b1561198857565b60405162461bcd60e51b815260206004820152600c60248201526b125b9d985b1a59081c1bdbdb60a21b6044820152606490fd5b156119c357565b60405162461bcd60e51b815260206004820152602160248201527f506f6f6c206e6f7420617070726f76656420666f722074686973206d6f64756c6044820152606560f81b6064820152608490fd5b606081019081106001600160401b038211176104e657604052565b604081019081106001600160401b038211176104e657604052565b90601f801991011681019081106001600160401b038211176104e657604052565b51906001600160a01b038216820361036857565b5190811515820361036857565b15611a9157565b60405162461bcd60e51b8152602060048201526013602482015272141bdcda5d1a5bdb881b9bdd081cdd185ad959606a1b6044820152606490fd5b6001600160401b0381116104e657601f01601f191660200190565b929190926001600160401b038085116104e6578460051b60409182519460208096611b1482860182611a48565b8099815201928501948186116103685780935b868510611b38575050505050505050565b84358481116103685782019060608285031261036857865191611b5a83611a12565b80356001600160a01b0381168103610368578352898101358a840152878101359086821161036857019084601f8301121561036857813592611b9b84611acc565b611ba78a519182611a48565b848152868c86860101116103685760008c86819782809801838601378301015289820152815201940193611b27565b91908203918211611be357565b634e487b7160e01b600052601160045260246000fd5b60005b838110611c0c5750506000910152565b8181015183820152602001611bfc565b90602091611c3581518092818552858086019101611bf9565b601f01601f1916010190565b9291611c6d60609160009360018060a01b03168652836020870152608060408701526080860190611c1c565b930152565b15611c7957565b60405162461bcd60e51b815260206004820152601560248201527414ddd85c081d1bc81cdd18589b194819985a5b1959605a1b6044820152606490fd5b926001600160a01b03929091838116918215611ed9576040805163c69deec560e01b81528688166001600160a01b038116600483015260248201849052602094929392909185816044818a5afa8015611ece57600090611e98575b611d1b9150611a8a565b8351633e491d4760e01b81526001600160a01b038316600482015260248101849052958590879060449082905afa958615611e8d57600096611e5e575b50918491611d9e93855192632e1a7d4d60e01b85850152602484015260248352611d8183611a12565b6000865180968195829463468721a760e01b845260048401611c41565b03925af1908115611e5357600091611e1b575b5015611de057505080611dc5575b50505050565b611dd793610eb09360015416906128ea565b38808080611dbf565b60649250519062461bcd60e51b82526004820152601560248201527411d85d59d9481dda5d1a191c985dc819985a5b1959605a1b6044820152fd5b908382813d8311611e4c575b611e318183611a48565b81010312611e495750611e4390611a7d565b38611db1565b80fd5b503d611e27565b82513d6000823e3d90fd5b90958582813d8311611e86575b611e758183611a48565b81010312611e495750519484611d58565b503d611e6b565b84513d6000823e3d90fd5b8682813d8311611ec7575b611ead8183611a48565b81010312611e495750611ec2611d1b91611a7d565b611d11565b503d611ea3565b85513d6000823e3d90fd5b60405162461bcd60e51b815260206004820152600d60248201526c496e76616c696420676175676560981b6044820152606490fd5b805115611f1b5760200190565b634e487b7160e01b600052603260045260246000fd5b8051821015611f1b5760209160051b010190565b9091604092835192611f5684611a12565b6060856000958681528660208201520152835b8251811015611fca576001600160a01b0380611f858386611f31565b51511690831614611fb5576000198114611fa157600101611f69565b634e487b7160e01b85526011600452602485fd5b92945050611fc39250611f31565b5190600190565b5050509091805190611fdb82611a12565b838252836020830152805190602082018281106001600160401b038211176120095781528482528201529190565b634e487b7160e01b86526041600452602486fd5b9391906001600160a01b0381166126f25750803403612698576040516020630d0e30db60e41b818301526004825261205482611a2d565b60405163468721a760e01b81527f00000000000000000000000000000000000000000000000000000000000000006001600160a01b03811660048301526024820185905260806044830152926120ae906084830190611c1c565b9082818060009485606483015203818560018060a01b038d165af191821561268c578092612654575b50501561261a5750925b6000936001600160a01b038216156125ee575b6001600160a01b03818116908316146125a95760035460405163095ea7b360e01b6020808301919091526001600160a01b039092166024820152604480820186905281526121639190612148606482611a48565b6040518093819263468721a760e01b83528660048401611c41565b038160006001600160a01b038c165af19081156103755760009161256f575b5015612533576121949183859261277d565b916121f560408051926121a684611a2d565b60018452600060208501520151926121e760405194859260018060a01b038a16602085015260408401526060968784015260808084015260a0830190611c1c565b03601f198101845283611a48565b6040519161220283611a2d565b6001835260005b60208110612523575061221b83611f0e565b5261222582611f0e565b506104b042014211611be3576122559060405193630d64d59360e21b602086015260248501526084840190611c1c565b602319838203016044840152815180825260208201916020808360051b8301019401926000915b8383106124f6575050505050816122ab6122d2936020936104b04201606483015203601f198101835282611a48565b60035460405163468721a760e01b815293849283926001600160a01b031660048401611c41565b038160006001600160a01b0388165af1908115610375576000916124bc575b501561247f57612302575b50600190565b6040516370a0823160e01b81526001600160a01b0380831660048301529091907f0000000000000000000000000000000000000000000000000000000000000000906020908490602490829085165afa9283156103755760009361244a575b50916020916123aa9360405192632e1a7d4d60e01b8585015260248401526024835261238c83611a12565b600060405180968195829463468721a760e01b845260048401611c41565b03926001600160a01b03165af190811561037557600091612410575b50156123d257386122fc565b60405162461bcd60e51b815260206004820152601660248201527515d15512081d5b9ddc985c1c1a5b99c819985a5b195960521b6044820152606490fd5b906020823d602011612442575b8161242a60209383611a48565b81010312611e49575061243c90611a7d565b386123c6565b3d915061241d565b90926020823d602011612477575b8161246560209383611a48565b81010312611e49575051916020612361565b3d9150612458565b60405162461bcd60e51b815260206004820152601560248201527414ddd85c08195e1958dd5d1a5bdb8819985a5b1959605a1b6044820152606490fd5b906020823d6020116124ee575b816124d660209383611a48565b81010312611e4957506124e890611a7d565b386122f1565b3d91506124c9565b9091929394602080612514600193601f198682030187528951611c1c565b9701930193019193929061227c565b8085602080938701015201612209565b60405162461bcd60e51b8152602060048201526014602482015273151bdad95b88185c1c1c9bdd994819985a5b195960621b6044820152606490fd5b906020823d6020116125a1575b8161258960209383611a48565b81010312611e49575061259b90611a7d565b38612182565b3d915061257c565b60405162461bcd60e51b815260206004820152601960248201527f43616e6e6f74207377617020746f2073616d6520746f6b656e000000000000006044820152606490fd5b9350507f00000000000000000000000000000000000000000000000000000000000000006001936120f4565b6064906040519062461bcd60e51b825260048201526013602482015272115512081ddc985c1c1a5b99c819985a5b1959606a1b6044820152fd5b9091508282813d8311612685575b61266c8183611a48565b81010312611e49575061267e90611a7d565b38806120d7565b503d612662565b604051903d90823e3d90fd5b60405162461bcd60e51b815260206004820152602c60248201527f4d73672e76616c7565206d75737420657175616c20616d6f756e74496e20666f60448201526b0e440dcc2e8d2ecca408aa8960a31b6064820152608490fd5b9234156120e15760405162461bcd60e51b815260206004820152603260248201527f4e6f204554482073686f756c642062652073656e74207768656e20746f6b656e604482015271040d2e640dcdee840dcc2e8d2ecca408aa8960731b6064820152608490fd5b60ff16604d8111611be357600a0a90565b81810292918115918404141715611be357565b9092916001600160a01b03918282169083168082146128e25785156128d7571561289c57158015612897575b61288c575b60209060046040518094819363313ce56760e01b8352165afa9081156103755760009161284c575b50906020015190601260ff6127ea83612759565b92160160ff8111611be3576128109261280561280b92612759565b9461276a565b61276a565b8115612836576004549161271092830390838211611be357612832920461276a565b0490565b634e487b7160e01b600052601260045260246000fd5b6020813d8211612884575b8161286460209383611a48565b8101031261288057519060ff82168203611e49575060206127d6565b5080fd5b3d9150612857565b5060025481166127ae565b6127a9565b60405162461bcd60e51b815260206004820152601360248201527224b73b30b634b21034b7383aba103a37b5b2b760691b6044820152606490fd5b505050505050600090565b505050505090565b929091801561293c576002546001600160a01b03908116929084168314612932576129159084611f45565b939093612926575050505050600190565b61292f9461201d565b90565b5050505050600190565b50505050600190565b51908160020b820361036857565b51906001600160801b038216820361036857565b9190826101809103126103685781516001600160601b0381168103610368579161299360208201611a69565b916129a060408301611a69565b916129ad60608201611a69565b916129ba60808301612945565b916129c760a08201612945565b916129d460c08301612945565b916129e160e08201612953565b91610100820151916101208101519161292f610160612a036101408501612953565b9301612953565b60408051939092916001600160401b03916001600160a01b03918216919060808701848111888210176104e6578652865260208601828152858701916001600160801b0392839182825260608a019383855289519a63fc6f786560e01b60208d01525160248c0152511660448a015251166064880152511660848601526084855260c0850192858410838511176104e657838092818752635229073f60e01b82526000958680948a612ac38160bf199360c48201611c41565b0301925af1948515612bc05783928496612b2e575b50505015612af9578183805181010312611e49575060208201519101519091565b815162461bcd60e51b815260206004820152600e60248201526d10dbdb1b1958dd0819985a5b195960921b6044820152606490fd5b91955091503d8084873e612b428187611a48565b820194848360c08801970312612bb857612b5b90611a7d565b9160e0810151918211612bb857018460df82011215612bbc5760c081015190612b8382611acc565b95612b9086519788611a48565b82875260e08383010111612bb85790612bb09160e0602088019101611bf9565b388080612ad8565b8380fd5b8280fd5b84513d85823e3d90fd5b6002546040516370a0823160e01b81526001600160a01b0392831660048201529160209183916024918391165afa90811561037557600091612c0a575090565b906020823d8211612c30575b81612c2360209383611a48565b81010312611e4957505190565b3d9150612c1656fec457dabb1cd0422f2d4ee0e35bed2d324c897ff52ca6d0033a86d6a43ce80502a26469706673582212201718ddcadb27c2126c88f35c5b4938ab75df92b6f00928f58781d18114141d1164736f6c63430008140033",
  "linkReferences": {},
  "deployedLinkReferences": {}
}