{
  "_format": "hh-sol-artifact-1",
  "contractName": "CholoDromeModule",
  "sourceName": "contracts/CholoDromeModule.sol",
  "abi": [
    {
      "inputs": [
        {
          "internalType": "address",
          "name": "_owner",
          "type": "address"
        },
        {
          "internalType": "address",
          "name": "_rewardToken",
          "type": "address"
        },
        {
          "internalType": "address",
          "name": "_rewardStable",
          "type": "address"
        },
        {
          "internalType": "address",
          "name": "_quoter",
          "type": "address"
        },
        {
          "internalType": "address",
          "name": "_swapRouter",
          "type": "address"
        }
      ],
      "stateMutability": "nonpayable",
      "type": "constructor"
    },
    {
      "inputs": [
        {
          "internalType": "address",
          "name": "owner",
          "type": "address"
        }
      ],
      "name": "OwnableInvalidOwner",
      "type": "error"
    },
    {
      "inputs": [
        {
          "internalType": "address",
          "name": "account",
          "type": "address"
        }
      ],
      "name": "OwnableUnauthorizedAccount",
      "type": "error"
    },
    {
      "anonymous": false,
      "inputs": [
        {
          "indexed": true,
          "internalType": "address",
          "name": "safe",
          "type": "address"
        },
        {
          "indexed": true,
          "internalType": "address",
          "name": "pool",
          "type": "address"
        },
        {
          "indexed": false,
          "internalType": "uint256",
          "name": "tokenId",
          "type": "uint256"
        },
        {
          "indexed": false,
          "internalType": "uint256",
          "name": "amount0",
          "type": "uint256"
        },
        {
          "indexed": false,
          "internalType": "uint256",
          "name": "amount1",
          "type": "uint256"
        },
        {
          "indexed": false,
          "internalType": "uint256",
          "name": "veloAmount",
          "type": "uint256"
        },
        {
          "indexed": false,
          "internalType": "uint256",
          "name": "totalUsdtAmount",
          "type": "uint256"
        }
      ],
      "name": "FeesCollectedAndSwapped",
      "type": "event"
    },
    {
      "anonymous": false,
      "inputs": [
        {
          "indexed": true,
          "internalType": "address",
          "name": "previousOwner",
          "type": "address"
        },
        {
          "indexed": true,
          "internalType": "address",
          "name": "newOwner",
          "type": "address"
        }
      ],
      "name": "OwnershipTransferred",
      "type": "event"
    },
    {
      "anonymous": false,
      "inputs": [
        {
          "indexed": true,
          "internalType": "address",
          "name": "safe",
          "type": "address"
        },
        {
          "indexed": true,
          "internalType": "address",
          "name": "pool",
          "type": "address"
        }
      ],
      "name": "PoolApproved",
      "type": "event"
    },
    {
      "anonymous": false,
      "inputs": [
        {
          "indexed": true,
          "internalType": "address",
          "name": "safe",
          "type": "address"
        },
        {
          "indexed": true,
          "internalType": "address",
          "name": "pool",
          "type": "address"
        }
      ],
      "name": "PoolRemoved",
      "type": "event"
    },
    {
      "anonymous": false,
      "inputs": [
        {
          "indexed": true,
          "internalType": "address",
          "name": "oldStable",
          "type": "address"
        },
        {
          "indexed": true,
          "internalType": "address",
          "name": "newStable",
          "type": "address"
        }
      ],
      "name": "RewardStableUpdated",
      "type": "event"
    },
    {
      "anonymous": false,
      "inputs": [
        {
          "indexed": true,
          "internalType": "address",
          "name": "oldToken",
          "type": "address"
        },
        {
          "indexed": true,
          "internalType": "address",
          "name": "newToken",
          "type": "address"
        }
      ],
      "name": "RewardTokenUpdated",
      "type": "event"
    },
    {
      "anonymous": false,
      "inputs": [
        {
          "indexed": false,
          "internalType": "uint256",
          "name": "oldTolerance",
          "type": "uint256"
        },
        {
          "indexed": false,
          "internalType": "uint256",
          "name": "newTolerance",
          "type": "uint256"
        }
      ],
      "name": "SlippageToleranceUpdated",
      "type": "event"
    },
    {
      "anonymous": false,
      "inputs": [
        {
          "indexed": true,
          "internalType": "address",
          "name": "safe",
          "type": "address"
        },
        {
          "indexed": true,
          "internalType": "address",
          "name": "pool",
          "type": "address"
        },
        {
          "indexed": false,
          "internalType": "uint256",
          "name": "tokenId",
          "type": "uint256"
        },
        {
          "indexed": false,
          "internalType": "uint256",
          "name": "amount0",
          "type": "uint256"
        },
        {
          "indexed": false,
          "internalType": "uint256",
          "name": "amount1",
          "type": "uint256"
        },
        {
          "indexed": false,
          "internalType": "uint256",
          "name": "veloAmount",
          "type": "uint256"
        },
        {
          "indexed": false,
          "internalType": "uint256",
          "name": "totalUsdtAmount",
          "type": "uint256"
        }
      ],
      "name": "WithdrawAndCollect",
      "type": "event"
    },
    {
      "inputs": [
        {
          "internalType": "address",
          "name": "pool",
          "type": "address"
        }
      ],
      "name": "approvePool",
      "outputs": [],
      "stateMutability": "nonpayable",
      "type": "function"
    },
    {
      "inputs": [
        {
          "internalType": "address",
          "name": "",
          "type": "address"
        }
      ],
      "name": "approvedPools",
      "outputs": [
        {
          "internalType": "bool",
          "name": "",
          "type": "bool"
        }
      ],
      "stateMutability": "view",
      "type": "function"
    },
    {
      "inputs": [
        {
          "internalType": "address",
          "name": "pool",
          "type": "address"
        },
        {
          "internalType": "uint256",
          "name": "tokenId",
          "type": "uint256"
        }
      ],
      "name": "collectAndConvertFees",
      "outputs": [],
      "stateMutability": "nonpayable",
      "type": "function"
    },
    {
      "inputs": [
        {
          "internalType": "address",
          "name": "pool",
          "type": "address"
        },
        {
          "internalType": "uint256",
          "name": "tokenId",
          "type": "uint256"
        }
      ],
      "name": "collectStaked",
      "outputs": [],
      "stateMutability": "nonpayable",
      "type": "function"
    },
    {
      "inputs": [],
      "name": "owner",
      "outputs": [
        {
          "internalType": "address",
          "name": "",
          "type": "address"
        }
      ],
      "stateMutability": "view",
      "type": "function"
    },
    {
      "inputs": [],
      "name": "quoter",
      "outputs": [
        {
          "internalType": "address",
          "name": "",
          "type": "address"
        }
      ],
      "stateMutability": "view",
      "type": "function"
    },
    {
      "inputs": [
        {
          "internalType": "address",
          "name": "pool",
          "type": "address"
        }
      ],
      "name": "removePool",
      "outputs": [],
      "stateMutability": "nonpayable",
      "type": "function"
    },
    {
      "inputs": [],
      "name": "renounceOwnership",
      "outputs": [],
      "stateMutability": "nonpayable",
      "type": "function"
    },
    {
      "inputs": [],
      "name": "rewardStable",
      "outputs": [
        {
          "internalType": "address",
          "name": "",
          "type": "address"
        }
      ],
      "stateMutability": "view",
      "type": "function"
    },
    {
      "inputs": [],
      "name": "rewardToken",
      "outputs": [
        {
          "internalType": "address",
          "name": "",
          "type": "address"
        }
      ],
      "stateMutability": "view",
      "type": "function"
    },
    {
      "inputs": [
        {
          "internalType": "address",
          "name": "_newRewardStable",
          "type": "address"
        }
      ],
      "name": "setRewardStable",
      "outputs": [],
      "stateMutability": "nonpayable",
      "type": "function"
    },
    {
      "inputs": [
        {
          "internalType": "address",
          "name": "_newRewardToken",
          "type": "address"
        }
      ],
      "name": "setRewardToken",
      "outputs": [],
      "stateMutability": "nonpayable",
      "type": "function"
    },
    {
      "inputs": [
        {
          "internalType": "uint256",
          "name": "_slippageTolerance",
          "type": "uint256"
        }
      ],
      "name": "setSlippageTolerance",
      "outputs": [],
      "stateMutability": "nonpayable",
      "type": "function"
    },
    {
      "inputs": [
        {
          "internalType": "address",
          "name": "fromToken",
          "type": "address"
        },
        {
          "internalType": "address",
          "name": "toToken",
          "type": "address"
        },
        {
          "internalType": "bytes",
          "name": "path",
          "type": "bytes"
        }
      ],
      "name": "setSwapPath",
      "outputs": [],
      "stateMutability": "nonpayable",
      "type": "function"
    },
    {
      "inputs": [],
      "name": "slippageTolerance",
      "outputs": [
        {
          "internalType": "uint256",
          "name": "",
          "type": "uint256"
        }
      ],
      "stateMutability": "view",
      "type": "function"
    },
    {
      "inputs": [
        {
          "internalType": "address",
          "name": "",
          "type": "address"
        },
        {
          "internalType": "address",
          "name": "",
          "type": "address"
        }
      ],
      "name": "swapPaths",
      "outputs": [
        {
          "internalType": "bytes",
          "name": "",
          "type": "bytes"
        }
      ],
      "stateMutability": "view",
      "type": "function"
    },
    {
      "inputs": [],
      "name": "swapRouter",
      "outputs": [
        {
          "internalType": "address",
          "name": "",
          "type": "address"
        }
      ],
      "stateMutability": "view",
      "type": "function"
    },
    {
      "inputs": [
        {
          "internalType": "address",
          "name": "newOwner",
          "type": "address"
        }
      ],
      "name": "transferOwnership",
      "outputs": [],
      "stateMutability": "nonpayable",
      "type": "function"
    },
    {
      "inputs": [
        {
          "internalType": "address",
          "name": "pool",
          "type": "address"
        },
        {
          "internalType": "uint256",
          "name": "tokenId",
          "type": "uint256"
        }
      ],
      "name": "withdrawAndCollect",
      "outputs": [],
      "stateMutability": "nonpayable",
      "type": "function"
    }
  ],
  "bytecode": "0x6080346200025657601f6200265e38819003918201601f191683019291906001600160401b038411838510176200025b578160a092849260409687528339810103126200025657620000518162000271565b6200005f6020830162000271565b906200006d84840162000271565b926200008a6080620000826060840162000271565b920162000271565b6001600160a01b039283169390929084156200023e57600080546001600160a01b0319808216881783559684939290918416907f8be0079c531659141344cd1fd0a4f28419497f9722a3daafe3b4186f6b6457e09080a3603260055516948515620001fa578116918215620001b65781169283156200018157169384156200013d578360015416176001558260025416176002558160045416176004556003541617600355516123d79081620002878239f35b855162461bcd60e51b815260206004820152601360248201527f496e76616c6964207377617020726f75746572000000000000000000000000006044820152606490fd5b865162461bcd60e51b815260206004820152600e60248201526d24b73b30b634b21038bab7ba32b960911b6044820152606490fd5b865162461bcd60e51b815260206004820152601560248201527f496e76616c69642072657761726420737461626c6500000000000000000000006044820152606490fd5b865162461bcd60e51b815260206004820152601460248201527f496e76616c69642072657761726420746f6b656e0000000000000000000000006044820152606490fd5b8651631e4fbdf760e01b815260006004820152602490fd5b600080fd5b634e487b7160e01b600052604160045260246000fd5b51906001600160a01b0382168203620002565756fe6080604052600436101561001257600080fd5b60003560e01c8063117da1ee146115f05780633341870d1461139c5780633b7d09461461132b578063424c265b146112b7578063483103a4146110735780634a6a749c1461100a578063715018a614610fb15780638aee812714610f055780638da5cb5b14610edc578063ac6e07ee14610752578063c13d2f75146106a5578063c31c9c071461067c578063c6bbd5a714610653578063d03153aa14610635578063e63703091461020c578063f0bbcec4146101cd578063f2bf87e3146101a4578063f2fde38b1461011b5763f7c618c1146100ed57600080fd5b34610116576000366003190112610116576001546040516001600160a01b039091168152602090f35b600080fd5b3461011657602036600319011261011657610134611687565b61013c611835565b6001600160a01b0390811690811561018b57600054826001600160601b0360a01b821617600055167f8be0079c531659141344cd1fd0a4f28419497f9722a3daafe3b4186f6b6457e0600080a3005b604051631e4fbdf760e01b815260006004820152602490fd5b34610116576000366003190112610116576002546040516001600160a01b039091168152602090f35b34610116576020366003190112610116576001600160a01b036101ee611687565b166000526006602052602060ff604060002054166040519015158152f35b3461011657604036600319011261011657610225611687565b60243560018060a01b0380921691826000526020906006825261024f60ff6040600020541661189c565b6040516323e6650160e11b8152908282600481885afa9182156104a1576000926105fe575b5060405163133f757160e31b815260048101859052906101809081836024818785165afa9283156104a1576000926000946105be575b50506040516329bc672160e21b81529285846004818b5afa9384156104a157600094610587575b50610315828516946102e233612333565b60405163c69deec560e01b8152336004820152602481018b90526000978897929591949192918b90869081906044820190565b0381845afa9485156104a1578b918d91600097610547575b50604051633e491d4760e01b8152336004820152602481019290925290919082908180604481015b03915afa998a156104a1578b958d9260009c610513575b50156104ad5750505050866103d3575b505061039291505b61038d33612333565b611a50565b936040519586528501526040840152606083015260808201527f694588a032a621c2c34a328afbc6a04b9b9824cd08e38bcd497470a906ef79d660a03392a3005b604051631c4b774b60e01b8184015260248082018b9052815261041592916103fa82611709565b60405163468721a760e01b8152938492839260048401611a80565b03816000335af180156104a1578691600091610457575b50610450916103929461044161044b936122e7565b6001541633611f41565b611ab1565b858961037c565b809250888092503d831161049a575b6104708183611725565b810103126101165761044b866103929461044161048f61045095611a73565b93505094509161042c565b503d610466565b6040513d6000823e3d90fd5b9298509250955061039294506104c4925033611d67565b909481958095816104f9575b5050816104df575b5050610384565b6104f2916104ed9133611f41565b611a0f565b88806104d8565b61050c916105079133611f41565b6119ce565b8a806104d0565b92509a509481813d8311610540575b61052c8183611725565b81010312610116578a948c91519a8f61036c565b503d610522565b92839197508092503d8311610580575b6105618183611725565b81010312610116578a8c61057761035593611a73565b9690919261032d565b503d610557565b9093508581813d83116105b7575b61059f8183611725565b81010312610116576105b0906118f2565b92886102d1565b503d610595565b80919294506105e29350903d106105f7575b6105da8183611725565b810190611928565b505050505050505092509050909187806102aa565b503d6105d0565b9091508281813d831161062e575b6106168183611725565b8101031261011657610627906118f2565b9085610274565b503d61060c565b34610116576000366003190112610116576020600554604051908152f35b34610116576000366003190112610116576004546040516001600160a01b039091168152602090f35b34610116576000366003190112610116576003546040516001600160a01b039091168152602090f35b34610116576020366003190112610116576106be611687565b6106c6611835565b6001600160a01b0390811690811561071557600254826001600160601b0360a01b821617600255167f9d4858dccb76debed7845fd87ec5c769962d072d518c9e34182581abb3e8247c600080a3005b60405162461bcd60e51b8152602060048201526015602482015274496e76616c69642072657761726420737461626c6560581b6044820152606490fd5b34610116576040366003190112610116576001600160a01b03610773611687565b1680600052600660205261078e60ff6040600020541661189c565b6040516323e6650160e11b8152602081600481855afa9081156104a157600091610ea2575b5060405163133f757160e31b8152602480356004830152610180908290816001600160a01b0386165afa9182156104a15760009260008092600094600093610e6a575b508361080133612333565b92604051976329bc672160e21b89526020896004818d5afa9889156104a157600099610e2e575b50604051633e491d4760e01b81523360048201526024803590820152966020886044816001600160a01b038e165afa9788156104a157600098610df3575b506001600160801b039061087d6024358c33611af5565b1680610bdc575b506108c4916108b36105076104ed936108a06024358933611d67565b50506001600160801b038c169033611f41565b6001600160801b0387169033611f41565b60405163133f757160e31b8152602480356004830152610180908290816001600160a01b0387165afa9081156104a157600090600092610ba4575b506001600160801b0316610b5f576001600160801b0316610b1a576001600160801b0316610ae05760206109529160405190630852cd8d60e31b838301526024356024830152602482526103fa82611709565b03816000335af19081156104a157600091610aa6575b5015610a735761097b9061038d33612333565b60405163c69deec560e01b8152336004820152602480359082015294909390602090869060449082906001600160a01b03165afa9485156104a157600095610a37575b508415610a3157506000935b15610a2357506001600160801b0360005b81604051956024358752166020860152166040840152606083015260808201527fab246cbdd9653a6d72a5dbac4c4246a5bfa3c50a09ddca840f7c735607c6546060a03392a3005b6001600160801b03906109db565b936109ca565b9094506020813d602011610a6b575b81610a5360209383611725565b8101031261011657610a6490611a73565b93866109be565b3d9150610a46565b60405162461bcd60e51b815260206004820152600b60248201526a109d5c9b8819985a5b195960aa1b6044820152606490fd5b90506020813d602011610ad8575b81610ac160209383611725565b8101031261011657610ad290611a73565b87610968565b3d9150610ab4565b60405162461bcd60e51b81526020600482015260126024820152714c6971756964697479206e6f74207a65726f60701b6044820152606490fd5b60405162461bcd60e51b815260206004820152601760248201527f556e636f6c6c656374656420746f6b656e3120666565730000000000000000006044820152606490fd5b60405162461bcd60e51b815260206004820152601760248201527f556e636f6c6c656374656420746f6b656e3020666565730000000000000000006044820152606490fd5b6001600160801b039250610bc991506101803d610180116105f7576105da8183611725565b9b9a5098505050505050505050906108ff565b604051919350610beb826116ed565b60243582526020820190815260408201600081526060830190600082526001600160801b03608085019342855260405195630624e65f60e11b6020880152516024870152511660448501525160648401525160848301525160a482015260a481528060e081011067ffffffffffffffff60e083011117610ddd5760e08101604081905263468721a760e01b815260209060df1983610c8d818960e48201611a80565b030160e084016000335af19081156104a157600091610d9d575b5015610d585760405163133f757160e31b8152602480356004830152610180908290816001600160a01b0388165afa9182156104a1576108b36105078a6104ed948a6108c497600092600090600092610d1c575b50610d109394610d0a91611d4e565b50611d4e565b50959350505091610884565b610d109450610d0a9250610d4191506101803d610180116105f7576105da8183611725565b939d939b509950919750610cfb9650505050505050565b60405162461bcd60e51b815260206004820152601960248201527f4465637265617365206c6971756964697479206661696c6564000000000000006044820152606490fd5b90506020813d602011610dd5575b81610dbb60209360e08401611725565b810103126101165760e0610dcf9101611a73565b8a610ca7565b3d9150610dab565b634e487b7160e01b600052604160045260246000fd5b9097506020813d602011610e26575b81610e0f60209383611725565b810103126101165751966001600160801b03610866565b3d9150610e02565b9098506020813d602011610e62575b81610e4a60209383611725565b8101031261011657610e5b906118f2565b978a610828565b3d9150610e3d565b935094505050610e8b91506101803d610180116105f7576105da8183611725565b989b909a509298509194508b93506107f692505050565b90506020813d602011610ed4575b81610ebd60209383611725565b8101031261011657610ece906118f2565b826107b3565b3d9150610eb0565b34610116576000366003190112610116576000546040516001600160a01b039091168152602090f35b3461011657602036600319011261011657610f1e611687565b610f26611835565b6001600160a01b03908116908115610f7557600154826001600160601b0360a01b821617600155167f906ff2422a6ffa134f2d7ccaffd446bc0c583a5cb6615749b4b2836942a5fea8600080a3005b60405162461bcd60e51b815260206004820152601460248201527324b73b30b634b2103932bbb0b932103a37b5b2b760611b6044820152606490fd5b3461011657600036600319011261011657610fca611835565b600080546001600160a01b0319811682556001600160a01b03167f8be0079c531659141344cd1fd0a4f28419497f9722a3daafe3b4186f6b6457e08280a3005b3461011657604036600319011261011657611023611687565b61102b61169d565b9060018060a01b0380911660005260076020526040600020911660005260205261106f61105b6040600020611747565b604051918291602083526020830190611810565b0390f35b346101165760603660031901126101165761108c611687565b61109461169d565b906044359067ffffffffffffffff9081831161011657366023840112156101165782600401359182116101165760249036828486010111610116576110d7611835565b6001600160a01b0390811694851561127f57169384156112495782156112165760005260209360078552604060002090600052845260406000209261111c84546116b3565b601f81116111d0575b50600094601f841160011461116757509382939460009361115a575b505050600019600383901b1c191660019190911b179055005b0101359050838080611141565b91601f198416958560005283600020936000905b8882106111b657505084600196971061119a575b50505050811b019055005b60001960f88660031b161c19920101351690558380808061118f565b80600184978683959689010135815501960192019061117b565b8460005285600020601f850160051c81019187861061120c575b601f0160051c01905b8181106112005750611125565b600081556001016111f3565b90915081906111ea565b60405162461bcd60e51b815260206004820152600c818401526b092dcecc2d8d2c840e0c2e8d60a31b6044820152606490fd5b60405162461bcd60e51b815260206004820152600f818401526e24b73b30b634b2103a37aa37b5b2b760891b6044820152606490fd5b60405162461bcd60e51b8152602060048201526011818501527024b73b30b634b210333937b6aa37b5b2b760791b6044820152606490fd5b34610116576020366003190112610116576112d0611687565b6112d8611835565b6001600160a01b03166112ec811515611861565b6000818152600660205260408120805460ff191660011790557ffc1f1e73948cbc47c5b7f90e5601b7daccd9ad7173218486ccc74bdd051d05e88180a3005b3461011657602036600319011261011657611344611687565b61134c611835565b6001600160a01b0316611360811515611861565b6000818152600660205260408120805460ff191690557f987eb3c2f78454541205f72f34839b434c306c9eaf4922efd7c0c3060fdb2e4c8180a3005b34610116576040366003190112610116576113b5611687565b60243590600460018060a01b03809216918260005260208093600682526113e360ff6040600020541661189c565b6040516329bc672160e21b815293849182905afa9182156104a1576000926115b9575b50604051633e491d4760e01b8152336004820152602481018590529082168382604481845afa9182156104a15760009261158a575b5060405163c69deec560e01b815233600482015260248101869052908490829060449082905afa9081156104a157600091611555575b501561151a5761147d57005b6114c092829160405191631c4b774b60e01b848401526024830152602482526114a582611709565b60405163468721a760e01b8152948592839260048401611a80565b03816000335af19081156104a1576000916114e3575b506114e191506122e7565b005b905081813d8311611513575b6114f98183611725565b810103126101165761150d6114e191611a73565b826114d6565b503d6114ef565b60405162461bcd60e51b8152600481018490526013602482015272141bdcda5d1a5bdb881b9bdd081cdd185ad959606a1b6044820152606490fd5b90508381813d8311611583575b61156c8183611725565b810103126101165761157d90611a73565b85611471565b503d611562565b9091508381813d83116115b2575b6115a28183611725565b810103126101165751908561143b565b503d611598565b9091508281813d83116115e9575b6115d18183611725565b81010312610116576115e2906118f2565b9084611406565b503d6115c7565b346101165760203660031901126101165760043561160c611835565b6103e8811161164e5760407fddd31550b26e9ef8ade466958be83ff8a014d9b4f36d546b61a6847a4530657591600554908060055582519182526020820152a1005b60405162461bcd60e51b81526020600482015260116024820152700a6d8d2e0e0c2ceca40e8dede40d0d2ced607b1b6044820152606490fd5b600435906001600160a01b038216820361011657565b602435906001600160a01b038216820361011657565b90600182811c921680156116e3575b60208310146116cd57565b634e487b7160e01b600052602260045260246000fd5b91607f16916116c2565b60a0810190811067ffffffffffffffff821117610ddd57604052565b6060810190811067ffffffffffffffff821117610ddd57604052565b90601f8019910116810190811067ffffffffffffffff821117610ddd57604052565b906040519182600082549261175b846116b3565b9081845260019485811690816000146117ca5750600114611787575b505061178592500383611725565b565b9093915060005260209081600020936000915b8183106117b257505061178593508201013880611777565b8554888401850152948501948794509183019161179a565b91505061178594506020925060ff191682840152151560051b8201013880611777565b60005b8381106118005750506000910152565b81810151838201526020016117f0565b90602091611829815180928185528580860191016117ed565b601f01601f1916010190565b6000546001600160a01b0316330361184957565b60405163118cdaa760e01b8152336004820152602490fd5b1561186857565b60405162461bcd60e51b815260206004820152600c60248201526b125b9d985b1a59081c1bdbdb60a21b6044820152606490fd5b156118a357565b60405162461bcd60e51b815260206004820152602160248201527f506f6f6c206e6f7420617070726f76656420666f722074686973206d6f64756c6044820152606560f81b6064820152608490fd5b51906001600160a01b038216820361011657565b51908160020b820361011657565b51906001600160801b038216820361011657565b9190826101809103126101165781516001600160601b03811681036101165791611954602082016118f2565b91611961604083016118f2565b9161196e606082016118f2565b9161197b60808301611906565b9161198860a08201611906565b9161199560c08301611906565b916119a260e08201611914565b9161010082015191610120810151916119cb6101606119c46101408501611914565b9301611914565b90565b156119d557565b60405162461bcd60e51b8152602060048201526012602482015271151bdad95b8c081cddd85c0819985a5b195960721b6044820152606490fd5b15611a1657565b60405162461bcd60e51b8152602060048201526012602482015271151bdad95b8c481cddd85c0819985a5b195960721b6044820152606490fd5b91908203918211611a5d57565b634e487b7160e01b600052601160045260246000fd5b5190811515820361011657565b9291611aac60609160009360018060a01b03168652836020870152608060408701526080860190611810565b930152565b15611ab857565b60405162461bcd60e51b815260206004820152601560248201527414ddd85c081d1bc81cdd18589b194819985a5b1959605a1b6044820152606490fd5b916001600160a01b039182811691908215611d19576040805163c69deec560e01b81528587166001600160a01b03811660048301526024820185905260209492939092909185816044818a5afa908115611cd957600091611ce4575b508451633e491d4760e01b81526001600160a01b038516600482015260248101839052968690889060449082905afa968715611cd957600097611caa575b508015611c9f57611bbc575b505050505080611baa57505050565b6117859261044b926001541690611f41565b611c00928592855192632e1a7d4d60e01b85850152602484015260248352611be383611709565b6000865180968195829463468721a760e01b845260048401611a80565b03925af1908115611c9457600091611c5c575b5015611c2157808080611b9b565b60649250519062461bcd60e51b82526004820152601560248201527411d85d59d9481dda5d1a191c985dc819985a5b1959605a1b6044820152fd5b908382813d8311611c8d575b611c728183611725565b81010312611c8a5750611c8490611a73565b38611c13565b80fd5b503d611c68565b82513d6000823e3d90fd5b505050505050505050565b90968682813d8311611cd2575b611cc18183611725565b81010312611c8a5750519538611b8f565b503d611cb7565b85513d6000823e3d90fd5b908682813d8311611d12575b611cfa8183611725565b81010312611c8a5750611d0c90611a73565b38611b51565b503d611cf0565b60405162461bcd60e51b815260206004820152600d60248201526c496e76616c696420676175676560981b6044820152606490fd5b6001600160801b039182169082160391908211611a5d57565b604080519390926001600160a01b0392909167ffffffffffffffff918416906080870183811188821017610ddd5786528652602093848701828152868801916001600160801b0392839182825260608b01938385528a519b8c8b63fc6f786560e01b9101525160248d0152511660448b015251166064890152511660848701526084865260c086019286841083851117610ddd57838092818852635229073f60e01b82526000958680948b611e238160bf199360c48201611a80565b0301925af1958615611f375783928497611e8b575b50505015611e57578284805181010312611c8a57508201519101519091565b50606491519062461bcd60e51b82526004820152600e60248201526d10dbdb1b1958dd0819985a5b195960921b6044820152fd5b91965091503d8084883e611e9f8188611725565b820195858360c08901980312611f1b57611eb890611a73565b9160e081015190828211611f3357018660df82011215611f1b5760c0810151918211611f1f57855196611ef4601f8401601f1916870189611725565b82885260e08383010111611f1b5790611f139160e086890191016117ed565b388080611e38565b8380fd5b634e487b7160e01b84526041600452602484fd5b8480fd5b85513d85823e3d90fd5b918015612270576002546001600160a01b0393908416838516811461226657611f6a9084612278565b84600354169160409586519160209463095ea7b360e01b868501528284611fab8960249485840160209093929193604081019460018060a01b031681520152565b0392611fbf601f1994858101885287611725565b169489519763468721a760e01b998a8a5289898180611fe360049b868d8401611a80565b0360009d8e8d5af190811561225c578b91612223575b50156121e957908861201361203b93886002541690612278565b8d888a5416908d8b82519788958694859363cdca175360e01b85528401526044830190611810565b878b83015203925af19182156121df578a926121ac575b5060055492612710938403928484116121885783810293818504149015171561219a5761012c42019081421161218857928b95928895928f998d9c9a96878e9d9b98519161209f836116ed565b82528d8201968d8852818301948552606083019586526080830196048652519c8d9763c04b8d5960e01b828a0152880152516044870160a0905260e487016120e691611810565b94511660648601525160848501525160a48401525160c48301520390810186526121109086611725565b6003548a51998a5289958694859361212b9316908401611a80565b03925af193841561217d57508193612144575b50505090565b9091809350813d8311612176575b61215c8183611725565b81010312611c8a575061216e90611a73565b38808061213e565b503d612152565b51913d9150823e3d90fd5b634e487b7160e01b8c5260118952858cfd5b634e487b7160e01b8b5260118852848bfd5b9091508881813d83116121d8575b6121c48183611725565b810103126121d457519038612052565b8980fd5b503d6121ba565b8c513d8c823e3d90fd5b508a5162461bcd60e51b815280870189905260148185015273151bdad95b88185c1c1c9bdd994819985a5b195960621b6044820152606490fd5b90508981813d8311612255575b61223a8183611725565b810103126122515761224b90611a73565b38611ff9565b8a80fd5b503d612230565b8d513d8d823e3d90fd5b5050505050600190565b505050600190565b60018060a01b038091166000526007602052604060002091166000526020526122a46040600020611747565b908151156122ae57565b60405162461bcd60e51b815260206004820152601160248201527014ddd85c081c185d1a081b9bdd081cd95d607a1b6044820152606490fd5b156122ee57565b60405162461bcd60e51b815260206004820152601760248201527f47617567652067657420726577617264206661696c65640000000000000000006044820152606490fd5b6002546040516370a0823160e01b81526001600160a01b0392831660048201529160209183916024918391165afa9081156104a157600091612373575090565b906020823d8211612399575b8161238c60209383611725565b81010312611c8a57505190565b3d915061237f56fea2646970667358221220876583371ec2559506c674b5623574cef5d56dcc7ae05a4989d25e7e497a18ca64736f6c63430008140033",
  "linkReferences": {},
  "deployedLinkReferences": {}
}