{
  "_format": "hh-sol-artifact-1",
  "contractName": "CholoDromeModule",
  "sourceName": "contracts/CholoDromeModule.sol",
  "abi": [
    {
      "inputs": [
        {
          "internalType": "address",
          "name": "_owner",
          "type": "address"
        },
        {
          "internalType": "address",
          "name": "_rewardToken",
          "type": "address"
        },
        {
          "internalType": "address",
          "name": "_rewardStable",
          "type": "address"
        },
        {
          "internalType": "address",
          "name": "_swapRouter",
          "type": "address"
        },
        {
          "internalType": "address",
          "name": "_usdc",
          "type": "address"
        },
        {
          "internalType": "address",
          "name": "_weth",
          "type": "address"
        }
      ],
      "stateMutability": "nonpayable",
      "type": "constructor"
    },
    {
      "inputs": [
        {
          "internalType": "address",
          "name": "owner",
          "type": "address"
        }
      ],
      "name": "OwnableInvalidOwner",
      "type": "error"
    },
    {
      "inputs": [
        {
          "internalType": "address",
          "name": "account",
          "type": "address"
        }
      ],
      "name": "OwnableUnauthorizedAccount",
      "type": "error"
    },
    {
      "anonymous": false,
      "inputs": [
        {
          "indexed": true,
          "internalType": "address",
          "name": "safe",
          "type": "address"
        },
        {
          "indexed": true,
          "internalType": "address",
          "name": "pool",
          "type": "address"
        },
        {
          "indexed": false,
          "internalType": "uint256",
          "name": "tokenId",
          "type": "uint256"
        }
      ],
      "name": "DepositMaxCompleted",
      "type": "event"
    },
    {
      "anonymous": false,
      "inputs": [
        {
          "indexed": true,
          "internalType": "address",
          "name": "safe",
          "type": "address"
        },
        {
          "indexed": true,
          "internalType": "address",
          "name": "pool",
          "type": "address"
        },
        {
          "indexed": false,
          "internalType": "uint256",
          "name": "tokenId",
          "type": "uint256"
        },
        {
          "indexed": false,
          "internalType": "uint256",
          "name": "amount0",
          "type": "uint256"
        },
        {
          "indexed": false,
          "internalType": "uint256",
          "name": "amount1",
          "type": "uint256"
        },
        {
          "indexed": false,
          "internalType": "uint256",
          "name": "veloAmount",
          "type": "uint256"
        },
        {
          "indexed": false,
          "internalType": "uint256",
          "name": "totalUsdtAmount",
          "type": "uint256"
        }
      ],
      "name": "EarningsCollected",
      "type": "event"
    },
    {
      "anonymous": false,
      "inputs": [
        {
          "indexed": true,
          "internalType": "address",
          "name": "previousOwner",
          "type": "address"
        },
        {
          "indexed": true,
          "internalType": "address",
          "name": "newOwner",
          "type": "address"
        }
      ],
      "name": "OwnershipTransferred",
      "type": "event"
    },
    {
      "anonymous": false,
      "inputs": [
        {
          "indexed": true,
          "internalType": "address",
          "name": "safe",
          "type": "address"
        },
        {
          "indexed": true,
          "internalType": "address",
          "name": "pool",
          "type": "address"
        }
      ],
      "name": "PoolApproved",
      "type": "event"
    },
    {
      "anonymous": false,
      "inputs": [
        {
          "indexed": true,
          "internalType": "address",
          "name": "safe",
          "type": "address"
        },
        {
          "indexed": true,
          "internalType": "address",
          "name": "pool",
          "type": "address"
        }
      ],
      "name": "PoolRemoved",
      "type": "event"
    },
    {
      "anonymous": false,
      "inputs": [
        {
          "indexed": true,
          "internalType": "address",
          "name": "fromToken",
          "type": "address"
        },
        {
          "indexed": true,
          "internalType": "address",
          "name": "toToken",
          "type": "address"
        },
        {
          "indexed": true,
          "internalType": "address",
          "name": "priceFeed",
          "type": "address"
        }
      ],
      "name": "PriceFeedUpdated",
      "type": "event"
    },
    {
      "anonymous": false,
      "inputs": [
        {
          "indexed": true,
          "internalType": "address",
          "name": "oldStable",
          "type": "address"
        },
        {
          "indexed": true,
          "internalType": "address",
          "name": "newStable",
          "type": "address"
        }
      ],
      "name": "RewardStableUpdated",
      "type": "event"
    },
    {
      "anonymous": false,
      "inputs": [
        {
          "indexed": true,
          "internalType": "address",
          "name": "oldToken",
          "type": "address"
        },
        {
          "indexed": true,
          "internalType": "address",
          "name": "newToken",
          "type": "address"
        }
      ],
      "name": "RewardTokenUpdated",
      "type": "event"
    },
    {
      "anonymous": false,
      "inputs": [
        {
          "indexed": false,
          "internalType": "uint256",
          "name": "oldTolerance",
          "type": "uint256"
        },
        {
          "indexed": false,
          "internalType": "uint256",
          "name": "newTolerance",
          "type": "uint256"
        }
      ],
      "name": "SlippageToleranceUpdated",
      "type": "event"
    },
    {
      "inputs": [],
      "name": "USDC",
      "outputs": [
        {
          "internalType": "address",
          "name": "",
          "type": "address"
        }
      ],
      "stateMutability": "view",
      "type": "function"
    },
    {
      "inputs": [],
      "name": "WETH",
      "outputs": [
        {
          "internalType": "address",
          "name": "",
          "type": "address"
        }
      ],
      "stateMutability": "view",
      "type": "function"
    },
    {
      "inputs": [
        {
          "internalType": "address",
          "name": "pool",
          "type": "address"
        }
      ],
      "name": "approvePool",
      "outputs": [],
      "stateMutability": "nonpayable",
      "type": "function"
    },
    {
      "inputs": [
        {
          "internalType": "address",
          "name": "",
          "type": "address"
        }
      ],
      "name": "approvedPools",
      "outputs": [
        {
          "internalType": "bool",
          "name": "",
          "type": "bool"
        }
      ],
      "stateMutability": "view",
      "type": "function"
    },
    {
      "inputs": [
        {
          "internalType": "address",
          "name": "pool",
          "type": "address"
        },
        {
          "internalType": "uint256",
          "name": "tokenId",
          "type": "uint256"
        }
      ],
      "name": "collectAndConvertFees",
      "outputs": [],
      "stateMutability": "nonpayable",
      "type": "function"
    },
    {
      "inputs": [],
      "name": "owner",
      "outputs": [
        {
          "internalType": "address",
          "name": "",
          "type": "address"
        }
      ],
      "stateMutability": "view",
      "type": "function"
    },
    {
      "inputs": [
        {
          "internalType": "address",
          "name": "",
          "type": "address"
        },
        {
          "internalType": "address",
          "name": "",
          "type": "address"
        }
      ],
      "name": "priceFeeds",
      "outputs": [
        {
          "internalType": "address",
          "name": "",
          "type": "address"
        }
      ],
      "stateMutability": "view",
      "type": "function"
    },
    {
      "inputs": [
        {
          "internalType": "address",
          "name": "pool",
          "type": "address"
        }
      ],
      "name": "removePool",
      "outputs": [],
      "stateMutability": "nonpayable",
      "type": "function"
    },
    {
      "inputs": [],
      "name": "renounceOwnership",
      "outputs": [],
      "stateMutability": "nonpayable",
      "type": "function"
    },
    {
      "inputs": [],
      "name": "rewardStable",
      "outputs": [
        {
          "internalType": "address",
          "name": "",
          "type": "address"
        }
      ],
      "stateMutability": "view",
      "type": "function"
    },
    {
      "inputs": [],
      "name": "rewardToken",
      "outputs": [
        {
          "internalType": "address",
          "name": "",
          "type": "address"
        }
      ],
      "stateMutability": "view",
      "type": "function"
    },
    {
      "inputs": [
        {
          "components": [
            {
              "internalType": "address",
              "name": "fromToken",
              "type": "address"
            },
            {
              "internalType": "address",
              "name": "toToken",
              "type": "address"
            },
            {
              "internalType": "address",
              "name": "priceFeed",
              "type": "address"
            }
          ],
          "internalType": "struct CholoDromeModule.PriceFeedData[]",
          "name": "feeds",
          "type": "tuple[]"
        }
      ],
      "name": "setPriceFeeds",
      "outputs": [],
      "stateMutability": "nonpayable",
      "type": "function"
    },
    {
      "inputs": [
        {
          "internalType": "address",
          "name": "_newRewardStable",
          "type": "address"
        }
      ],
      "name": "setRewardStable",
      "outputs": [],
      "stateMutability": "nonpayable",
      "type": "function"
    },
    {
      "inputs": [
        {
          "internalType": "address",
          "name": "_newRewardToken",
          "type": "address"
        }
      ],
      "name": "setRewardToken",
      "outputs": [],
      "stateMutability": "nonpayable",
      "type": "function"
    },
    {
      "inputs": [
        {
          "internalType": "uint256",
          "name": "_slippageTolerance",
          "type": "uint256"
        }
      ],
      "name": "setSlippageTolerance",
      "outputs": [],
      "stateMutability": "nonpayable",
      "type": "function"
    },
    {
      "inputs": [
        {
          "components": [
            {
              "internalType": "address",
              "name": "fromToken",
              "type": "address"
            },
            {
              "internalType": "address",
              "name": "toToken",
              "type": "address"
            },
            {
              "internalType": "bytes",
              "name": "path",
              "type": "bytes"
            }
          ],
          "internalType": "struct CholoDromeModule.SwapPathData[]",
          "name": "paths",
          "type": "tuple[]"
        }
      ],
      "name": "setSwapPaths",
      "outputs": [],
      "stateMutability": "nonpayable",
      "type": "function"
    },
    {
      "inputs": [],
      "name": "slippageTolerance",
      "outputs": [
        {
          "internalType": "uint256",
          "name": "",
          "type": "uint256"
        }
      ],
      "stateMutability": "view",
      "type": "function"
    },
    {
      "inputs": [
        {
          "internalType": "address",
          "name": "pool",
          "type": "address"
        },
        {
          "internalType": "uint256",
          "name": "tokenId",
          "type": "uint256"
        }
      ],
      "name": "stakeAndCollect",
      "outputs": [],
      "stateMutability": "nonpayable",
      "type": "function"
    },
    {
      "inputs": [
        {
          "internalType": "address",
          "name": "token",
          "type": "address"
        },
        {
          "internalType": "uint256",
          "name": "amountIn",
          "type": "uint256"
        },
        {
          "internalType": "address",
          "name": "toToken",
          "type": "address"
        },
        {
          "internalType": "bool",
          "name": "isEarning",
          "type": "bool"
        }
      ],
      "name": "swap",
      "outputs": [],
      "stateMutability": "payable",
      "type": "function"
    },
    {
      "inputs": [
        {
          "internalType": "address",
          "name": "",
          "type": "address"
        },
        {
          "internalType": "address",
          "name": "",
          "type": "address"
        }
      ],
      "name": "swapPaths",
      "outputs": [
        {
          "internalType": "bytes",
          "name": "",
          "type": "bytes"
        }
      ],
      "stateMutability": "view",
      "type": "function"
    },
    {
      "inputs": [],
      "name": "swapRouter",
      "outputs": [
        {
          "internalType": "address",
          "name": "",
          "type": "address"
        }
      ],
      "stateMutability": "view",
      "type": "function"
    },
    {
      "inputs": [
        {
          "internalType": "address",
          "name": "newOwner",
          "type": "address"
        }
      ],
      "name": "transferOwnership",
      "outputs": [],
      "stateMutability": "nonpayable",
      "type": "function"
    },
    {
      "inputs": [
        {
          "internalType": "address",
          "name": "pool",
          "type": "address"
        },
        {
          "internalType": "uint256",
          "name": "tokenId",
          "type": "uint256"
        }
      ],
      "name": "unstakeAndCollect",
      "outputs": [],
      "stateMutability": "nonpayable",
      "type": "function"
    },
    {
      "inputs": [
        {
          "internalType": "address",
          "name": "pool",
          "type": "address"
        },
        {
          "internalType": "uint256",
          "name": "tokenId",
          "type": "uint256"
        },
        {
          "internalType": "bool",
          "name": "convertToUsdc",
          "type": "bool"
        }
      ],
      "name": "withdrawAndCollect",
      "outputs": [],
      "stateMutability": "nonpayable",
      "type": "function"
    }
  ],
  "bytecode": "0x60c034620002dc57601f6200398938819003918201601f191683019291906001600160401b03841183851017620002e1578160c09284926040968752833981010312620002dc576200005181620002f7565b9060209162000062838301620002f7565b6200006f858401620002f7565b6200007d60608501620002f7565b906200009a60a06200009260808801620002f7565b9601620002f7565b956001600160a01b03948516938415620002c457600080546001600160a01b0319808216881783559691908816907f8be0079c531659141344cd1fd0a4f28419497f9722a3daafe3b4186f6b6457e09080a360649186600492848455169384156200028557871694851562000246578716968715620002075780891615620001c8578916156200018a57505050826001541617600155816002541617600255600354161760035560805260a0525161367c90816200030d8239608051818181610d33015281816118e20152612e57015260a051818181610aa10152818161258e015281816127b20152612a7a0152f35b895162461bcd60e51b815291820152601460248201527f496e76616c6964205745544820616464726573730000000000000000000000006044820152fd5b50895162461bcd60e51b815291820152601460248201527f496e76616c6964205553444320616464726573730000000000000000000000006044820152fd5b50895162461bcd60e51b815291820152601360248201527f496e76616c6964207377617020726f75746572000000000000000000000000006044820152fd5b50895162461bcd60e51b815291820152601560248201527f496e76616c69642072657761726420737461626c6500000000000000000000006044820152fd5b50895162461bcd60e51b815291820152601460248201527f496e76616c69642072657761726420746f6b656e0000000000000000000000006044820152fd5b8851631e4fbdf760e01b815260006004820152602490fd5b600080fd5b634e487b7160e01b600052604160045260246000fd5b51906001600160a01b0382168203620002dc5756fe6080604052600436101561001257600080fd5b60003560e01c8062b2119014611d4e57806308e64f3d14611649578063117da1ee146115b257806331a8f1c9146110d65780633b7d094614611065578063424c265b14610ff15780634a6a749c14610f885780634bdc76cc14610dbb578063715018a614610d6257806389a3027114610d1d5780638aee812714610c715780638da5cb5b14610c48578063a7c1c38b14610ad0578063ad5c464814610a8b578063c13d2f75146109de578063c31c9c07146109b5578063d03153aa14610997578063e637030914610504578063f0bbcec4146104c5578063f2bf87e31461049c578063f2fde38b14610413578063f7c618c1146103ea578063f90c69061461039a5763fb0b57b51461012357600080fd5b346103955760203660031901126103955760043567ffffffffffffffff811161039557366023820112156103955767ffffffffffffffff81600401351161039557366024826004013560051b830101116103955761017f612075565b6000905b8060040135821061019057005b60248260051b82010135608219823603018112156103955781016024810192906001600160a01b036101cd816101c5876120dc565b1615156120f0565b6044808301926101e8836101e0866120dc565b161515612131565b6064809101916101f88389612170565b9050156103655750509080610211610219949388612170565b9490976120dc565b1660005260066020526102306040600020926120dc565b1660005260205260406000209067ffffffffffffffff811161034f576102568254611ef3565b601f8111610307575b506000601f82116001146102a157819060019596600092610296575b5050600019600383901b1c191690841b1790555b0190610183565b01359050388061027b565b601f198216958360005260206000209160005b8881106102ef57508360019798106102d5575b505050831b8301905561028f565b0135600019600384901b60f8161c191690553880806102c7565b909260206001819286860135815501940191016102b4565b826000526020600020601f830160051c81019160208410610345575b601f0160051c01905b818110610339575061025f565b6000815560010161032c565b9091508190610323565b634e487b7160e01b600052604160045260246000fd5b6b092dcecc2d8d2c840e0c2e8d60a31b6040519162461bcd60e51b835260206004840152600c6024840152820152fd5b600080fd5b346103955760403660031901126103955760206103b5611ec7565b6103bd611edd565b60018060a01b03809216600052600783528160406000209116600052825260406000205416604051908152f35b34610395576000366003190112610395576001546040516001600160a01b039091168152602090f35b346103955760203660031901126103955761042c611ec7565b610434612075565b6001600160a01b0390811690811561048357600054826001600160601b0360a01b821617600055167f8be0079c531659141344cd1fd0a4f28419497f9722a3daafe3b4186f6b6457e0600080a3005b604051631e4fbdf760e01b815260006004820152602490fd5b34610395576000366003190112610395576002546040516001600160a01b039091168152602090f35b34610395576020366003190112610395576001600160a01b036104e6611ec7565b166000526005602052602060ff604060002054166040519015158152f35b34610395576040366003190112610395576001600160a01b03610525611ec7565b1680600052600560205261054060ff604060002054166121a3565b6040516323e6650160e11b8152602081600481855afa9081156107eb5760009161095d575b5060405163133f757160e31b815260248035600483015290916101809182908490816001600160a01b0385165afa9283156107eb5760009260009461091d575b50506040516329bc672160e21b815290602082600481885afa9182156107eb576000926108e1575b506105d7336135b8565b60405163c69deec560e01b8152336004820152602480359082015260009591948693909284929091906020816044816001600160a01b038b165afa9081156107eb576000916108a7575b501561082b575050604051633e491d4760e01b8152336004820152602480359082015294915060209050846044816001600160a01b0387165afa9384156107eb576000946107f7575b508392846106d0575b50600080516020613627833981519152935061069b6106cb915b610696336135b8565b61225c565b6040519384933397602435869192608093969594919660a084019784526020840152604083015260608201520152565b0390a3005b60206107169160405190631c4b774b60e01b838301526024356024830152602482526106fb82611f49565b60405163468721a760e01b815293849283926004840161227f565b03816000335af19081156107eb576000916107b1575b501561076c5761069b6106cb916107656107606000805160206136278339815191529760018060a01b03600154163361325e565b6122b0565b9150610673565b60405162461bcd60e51b815260206004820152601760248201527f47617567652067657420726577617264206661696c65640000000000000000006044820152606490fd5b90506020813d6020116107e3575b816107cc60209383611f65565b81010312610395576107dd9061220d565b8761072c565b3d91506107bf565b6040513d6000823e3d90fd5b9093506020813d602011610823575b8161081360209383611f65565b810103126103955751928661066a565b3d9150610806565b6106cb93975061069b929550600080516020613627833981519152969194506108589060243590336133de565b9094819580998161088d575b505081610873575b505061068d565b61088691610881913361325e565b61339d565b888061086c565b6108a09161089b913361325e565b61335c565b8a80610864565b90506020813d6020116108d9575b816108c260209383611f65565b81010312610395576108d39061220d565b8a610621565b3d91506108b5565b9091506020813d602011610915575b816108fd60209383611f65565b810103126103955761090e906121f9565b90856105cd565b3d91506108f0565b80919294506109419350903d10610956575b6109398183611f65565b8101906132b9565b505050505050505092509050909184806105a5565b503d61092f565b90506020813d60201161098f575b8161097860209383611f65565b8101031261039557610989906121f9565b82610565565b3d915061096b565b34610395576000366003190112610395576020600454604051908152f35b34610395576000366003190112610395576003546040516001600160a01b039091168152602090f35b34610395576020366003190112610395576109f7611ec7565b6109ff612075565b6001600160a01b03908116908115610a4e57600254826001600160601b0360a01b821617600255167f9d4858dccb76debed7845fd87ec5c769962d072d518c9e34182581abb3e8247c600080a3005b60405162461bcd60e51b8152602060048201526015602482015274496e76616c69642072657761726420737461626c6560581b6044820152606490fd5b34610395576000366003190112610395576040517f00000000000000000000000000000000000000000000000000000000000000006001600160a01b03168152602090f35b608036600319011261039557610ae4611ec7565b6044356001600160a01b0381169190602435838203610395576064359384151585036103955780610b695750610b2a9291610b22913331933361253f565b50333161225c565b905b610b3257005b60009060405190828252826020830152826040830152606082015281608082015260008051602061362783398151915260a03392a3005b92604051916370a0823160e01b9081845233600485015260209283856024818a5afa9485156107eb57600095610c0d575b5094610ba9918495963361253f565b5060246040518096819382523360048301525afa9081156107eb57600091610bdd575b50610bd7925061225c565b90610b2c565b905082813d8311610c06575b610bf38183611f65565b8101031261039557610bd7915184610bcc565b503d610be9565b919380955082819792973d8311610c41575b610c298183611f65565b81010312610395579051909490939290610ba9610b9a565b503d610c1f565b34610395576000366003190112610395576000546040516001600160a01b039091168152602090f35b3461039557602036600319011261039557610c8a611ec7565b610c92612075565b6001600160a01b03908116908115610ce157600154826001600160601b0360a01b821617600155167f906ff2422a6ffa134f2d7ccaffd446bc0c583a5cb6615749b4b2836942a5fea8600080a3005b60405162461bcd60e51b815260206004820152601460248201527324b73b30b634b2103932bbb0b932103a37b5b2b760611b6044820152606490fd5b34610395576000366003190112610395576040517f00000000000000000000000000000000000000000000000000000000000000006001600160a01b03168152602090f35b3461039557600036600319011261039557610d7b612075565b600080546001600160a01b0319811682556001600160a01b03167f8be0079c531659141344cd1fd0a4f28419497f9722a3daafe3b4186f6b6457e08280a3005b3461039557604036600319011261039557610dd4611ec7565b60243560018060a01b03809216918260005260209060058252610dfe60ff604060002054166121a3565b6040516329bc672160e21b8152908282600481885afa9182156107eb57600092610f51575b5060405163c69deec560e01b815233600482015260248101859052908216908381604481855afa80156107eb57600090610f1b575b610e62915061221a565b610e6b336135b8565b604051633e491d4760e01b81523360048201526024810186905290918490829060449082905afa9283156107eb578591600094610ee6575b509161068d610eb592600094336122f4565b92604051948552840152600060408401526060830152608082015260008051602061362783398151915260a03392a3005b85809295508193503d8311610f14575b610f008183611f65565b81010312610395575191849061068d610ea3565b503d610ef6565b508381813d8311610f4a575b610f318183611f65565b8101031261039557610f45610e629161220d565b610e58565b503d610f27565b9091508281813d8311610f81575b610f698183611f65565b8101031261039557610f7a906121f9565b9085610e23565b503d610f5f565b3461039557604036600319011261039557610fa1611ec7565b610fa9611edd565b9060018060a01b03809116600052600660205260406000209116600052602052610fed610fd96040600020611f87565b604051918291602083526020830190612050565b0390f35b346103955760203660031901126103955761100a611ec7565b611012612075565b6001600160a01b03166110268115156120a1565b6000818152600560205260408120805460ff191660011790557ffc1f1e73948cbc47c5b7f90e5601b7daccd9ad7173218486ccc74bdd051d05e88180a3005b346103955760203660031901126103955761107e611ec7565b611086612075565b6001600160a01b031661109a8115156120a1565b6000818152600560205260408120805460ff191690557f987eb3c2f78454541205f72f34839b434c306c9eaf4922efd7c0c3060fdb2e4c8180a3005b34610395576040366003190112610395576110ef611ec7565b602480359060018060a01b0380931692836000526020916005835261111b60ff604060002054166121a3565b6040516323e6650160e11b8152908382600481895afa9182156107eb5760009261157b575b506040516329bc672160e21b81529084826004818a5afa9182156107eb57600092611544575b5060405163c69deec560e01b81523360048201526024810187905284841694831692908681604481875afa9081156107eb5760009161150f575b506114cb576111ae336135b8565b926040519463133f757160e31b865288600487015261018095868186818b5afa9788156107eb57899160009860009a611494575b50509082916111f58c60449695336133de565b9a81809b8d9361147f575b50508161146a575b50506040519485809263e985e9c560e01b8252336004830152868a8301525afa80156107eb578993600091611434575b5015611328575b505060405163b6b55f2560e01b82820152838101899052838152611266926106fb82611f49565b03816000335af19081156107eb576000916112f3575b50156112c1575061129090610696336135b8565b92604051948552840152604083015260006060830152608082015260008051602061362783398151915260a03392a3005b84600c6064926040519262461bcd60e51b845260048401528201526b14dd185ad94819985a5b195960a21b6044820152fd5b90508581813d8311611321575b61130a8183611f65565b810103126103955761131b9061220d565b8861127c565b503d611300565b9091506040519163a22cb46560e01b89840152848301526001604483015260448252608082019082821067ffffffffffffffff83111761141f578189918160405263468721a760e01b82528461138581607f19936084820161227f565b0301816000335af19182156107eb5788906000936113e8575b505050156113ae5785898061123f565b60405162461bcd60e51b8152600481018790526013818401527213919508185c1c1c9bdd985b0819985a5b1959606a1b6044820152606490fd5b90809293503d8311611418575b6113ff8185611f65565b81010312610395576114109061220d565b89878161139e565b503d6113f5565b84634e487b7160e01b60005260416004526000fd5b84819592503d8311611463575b61144b8183611f65565b810103126103955761145d899361220d565b8c611238565b503d611441565b61147891610881913361325e565b898e611208565b61148d9161089b913361325e565b8a38611200565b6114b2929a5060449594939950803d10610956576109398183611f65565b505050505050505099925090509798909192938d6111e2565b60405162461bcd60e51b8152600481018790526017818401527f506f736974696f6e20616c7265616479207374616b65640000000000000000006044820152606490fd5b90508681813d831161153d575b6115268183611f65565b81010312610395576115379061220d565b896111a0565b503d61151c565b9091508481813d8311611574575b61155c8183611f65565b810103126103955761156d906121f9565b9087611166565b503d611552565b9091508381813d83116115ab575b6115938183611f65565b81010312610395576115a4906121f9565b9086611140565b503d611589565b34610395576020366003190112610395576004356115ce612075565b6103e881116116105760407fddd31550b26e9ef8ade466958be83ff8a014d9b4f36d546b61a6847a4530657591600454908060045582519182526020820152a1005b60405162461bcd60e51b81526020600482015260116024820152700a6d8d2e0e0c2ceca40e8dede40d0d2ced607b1b6044820152606490fd5b3461039557606036600319011261039557611662611ec7565b604435151560443503610395576001600160a01b0381166000908152600560205260409020546116949060ff166121a3565b6040516323e6650160e11b8152906020826004816001600160a01b0385165afa9182156107eb57600092611d12575b5060405163133f757160e31b81526024803560048301526101809081908390816001600160a01b0388165afa9283156107eb57600092600092600095611ce2575b505061170f336135b8565b6040516329bc672160e21b81529560009391906020886004816001600160a01b0388165afa9788156107eb57600098611ca6575b5060405163c69deec560e01b81523360048201526024803590820152976020896044816001600160a01b0385165afa9889156107eb57600099611c6a575b5088611be2575b5060009660009815611b91575b6001600160801b0380911680611a3e575b505060206117e0916117bb60243582336133de565b5050604051630852cd8d60e31b8382015260248035818301528152906106fb82611f49565b03816000335af19081156107eb57600091611a04575b50156119d15761180990610696336135b8565b90604435611863575b50604080516024358152602081019690965285019590955260608401919091526080830193909352506001600160a01b03909116903390600080516020613627833981519152908060a081016106cb565b6040516370a0823160e01b8082523360048301526001600160a01b038716602083602481845afa9283156107eb5760009361199d575b506040519182523360048301526001600160a01b038416976020836024818c5afa9283156107eb57600093611951575b50600080516020613627833981519152986106cb9695947f000000000000000000000000000000000000000000000000000000000000000094936001600160a01b0386169391869185900361193e575b5050500361192b575b50505090611812565b611935923361253f565b50878080611922565b611948923361253f565b508c8481611919565b9594939250906020863d602011611995575b8161197060209383611f65565b81010312610395579451939492939192906000805160206136278339815191526118c9565b3d9150611963565b9092506020813d6020116119c9575b816119b960209383611f65565b810103126103955751918a611899565b3d91506119ac565b60405162461bcd60e51b815260206004820152600b60248201526a109d5c9b8819985a5b195960aa1b6044820152606490fd5b90506020813d602011611a36575b81611a1f60209383611f65565b8101031261039557611a309061220d565b886117f6565b3d9150611a12565b60405191611a4b83611f2d565b6024358352602083019182526040830160008152606084019160008352608085019342855260405195630624e65f60e11b6020880152516024870152511660448501525160648401525160848301525160a482015260a481528060e081011067ffffffffffffffff60e08301111761034f5760e08101604081905263468721a760e01b815260209060df1983611ae5818760e4820161227f565b030160e084016000335af19081156107eb57600091611b51575b5015611b0c5788806117a6565b60405162461bcd60e51b815260206004820152601960248201527f4465637265617365206c6971756964697479206661696c6564000000000000006044820152606490fd5b90506020813d602011611b89575b81611b6f60209360e08401611f65565b810103126103955760e0611b83910161220d565b89611aff565b3d9150611b5f565b96509650611ba260243588336133de565b979096888880611bce575b5080611bba575b50611795565b610881611bc891863361325e565b89611bb4565b61089b611bdc918a3361325e565b8a611bad565b604051633e491d4760e01b815233600482015260248035908201529095506020816044816001600160a01b038a165afa80156107eb57600090611c36575b611c3091509560243590336122f4565b88611788565b506020813d602011611c62575b81611c5060209383611f65565b8101031261039557611c309051611c20565b3d9150611c43565b9098506020813d602011611c9e575b81611c8660209383611f65565b8101031261039557611c979061220d565b9789611781565b3d9150611c79565b9097506020813d602011611cda575b81611cc260209383611f65565b8101031261039557611cd3906121f9565b9688611743565b3d9150611cb5565b9194509150611cfd9250803d10610956576109398183611f65565b50505050955050505092509190928580611704565b9091506020813d602011611d46575b81611d2e60209383611f65565b8101031261039557611d3f906121f9565b90826116c3565b3d9150611d21565b34610395576020806003193601126103955767ffffffffffffffff600435818111610395573660238201121561039557806004013591821161039557602490606036838286028401011161039557611da4612075565b60005b848110611db057005b8082028301848101906001600160a01b03611dce816101c5856120dc565b60449283830192611de2836101e0866120dc565b60648091019483611df2876120dc565b1615611e92575050908080611e62611e5c611e5c8897968f611e1660019c9b6120dc565b9086611e21846120dc565b166000526007815260406000209087611e398c6120dc565b166000525285604060002091166001600160601b0360a01b8254161790556120dc565b956120dc565b16931691167f749f8bd52d751fb993fa16283117f0242f19e5471f5cb26f1185d1028cd803e5600080a401611da7565b71125b9d985b1a59081c1c9a58d9481999595960721b8c9160128c6040519462461bcd60e51b86526004860152840152820152fd5b600435906001600160a01b038216820361039557565b602435906001600160a01b038216820361039557565b90600182811c92168015611f23575b6020831014611f0d57565b634e487b7160e01b600052602260045260246000fd5b91607f1691611f02565b60a0810190811067ffffffffffffffff82111761034f57604052565b6060810190811067ffffffffffffffff82111761034f57604052565b90601f8019910116810190811067ffffffffffffffff82111761034f57604052565b9060405191826000825492611f9b84611ef3565b90818452600194858116908160001461200a5750600114611fc7575b5050611fc592500383611f65565b565b9093915060005260209081600020936000915b818310611ff2575050611fc593508201013880611fb7565b85548884018501529485019487945091830191611fda565b915050611fc594506020925060ff191682840152151560051b8201013880611fb7565b60005b8381106120405750506000910152565b8181015183820152602001612030565b906020916120698151809281855285808601910161202d565b601f01601f1916010190565b6000546001600160a01b0316330361208957565b60405163118cdaa760e01b8152336004820152602490fd5b156120a857565b60405162461bcd60e51b815260206004820152600c60248201526b125b9d985b1a59081c1bdbdb60a21b6044820152606490fd5b356001600160a01b03811681036103955790565b156120f757565b60405162461bcd60e51b815260206004820152601260248201527124b73b30b634b210333937b6903a37b5b2b760711b6044820152606490fd5b1561213857565b60405162461bcd60e51b815260206004820152601060248201526f24b73b30b634b2103a37903a37b5b2b760811b6044820152606490fd5b903590601e1981360301821215610395570180359067ffffffffffffffff82116103955760200191813603831361039557565b156121aa57565b60405162461bcd60e51b815260206004820152602160248201527f506f6f6c206e6f7420617070726f76656420666f722074686973206d6f64756c6044820152606560f81b6064820152608490fd5b51906001600160a01b038216820361039557565b5190811515820361039557565b1561222157565b60405162461bcd60e51b8152602060048201526013602482015272141bdcda5d1a5bdb881b9bdd081cdd185ad959606a1b6044820152606490fd5b9190820391821161226957565b634e487b7160e01b600052601160045260246000fd5b92916122ab60609160009360018060a01b03168652836020870152608060408701526080860190612050565b930152565b156122b757565b60405162461bcd60e51b815260206004820152601560248201527414ddd85c081d1bc81cdd18589b194819985a5b1959605a1b6044820152606490fd5b916001600160a01b039180831691821561250a576040805163c69deec560e01b81528587166001600160a01b038116600483015260248201849052602094929392909185816044818a5afa80156124ff576000906124c9575b612357915061221a565b8351633e491d4760e01b81526001600160a01b038316600482015260248101849052958590879060449082905afa9586156124be5760009661248f575b509184916123da93855192632e1a7d4d60e01b858501526024840152602483526123bd83611f49565b6000865180968195829463468721a760e01b84526004840161227f565b03925af19081156124845760009161244c575b5015612411575050806123ff57505050565b611fc59261076092600154169061325e565b60649250519062461bcd60e51b82526004820152601560248201527411d85d59d9481dda5d1a191c985dc819985a5b1959605a1b6044820152fd5b908382813d831161247d575b6124628183611f65565b8101031261247a57506124749061220d565b386123ed565b80fd5b503d612458565b82513d6000823e3d90fd5b90958582813d83116124b7575b6124a68183611f65565b8101031261247a5750519484612394565b503d61249c565b84513d6000823e3d90fd5b8682813d83116124f8575b6124de8183611f65565b8101031261247a57506124f36123579161220d565b61234d565b503d6124d4565b85513d6000823e3d90fd5b60405162461bcd60e51b815260206004820152600d60248201526c496e76616c696420676175676560981b6044820152606490fd5b919291906001600160a01b0390818116612b7d5750833403612b23576040516020630d0e30db60e41b8183015260048252604082019180831067ffffffffffffffff84111761034f57826040527f00000000000000000000000000000000000000000000000000000000000000009263468721a760e01b81528484166044830152876064830152608060848301526125da60c4830183612050565b83826000928360a487015285603f1991030181848a8c165af1928315612b165784908294612adc575b5050505015612aa257505b600082851615612a77575b82851694838316868114612a3257600052602096600688526040968760002090600052885261264a87600020611f87565b918251156129fa57600354885163095ea7b360e01b8b8201529087166001600160a01b031660248201526044808201849052815296869061268c60648a611f65565b169488518a81806126ac63468721a760e01b9c8d8352866004840161227f565b038160008b5af19081156129ef576000916129ba575b501561297f5790826126d392612c64565b61012c42019182421161226957612781938961274193612769938d968351946126fb86611f2d565b85528b888601948c865280870192835260608701938452608087019485525197889663c04b8d5960e01b8b8901528a60248901525160a0604489015260e4880190612050565b94511660648601525160848501525160a48401525160c483015203601f198101835282611f65565b8560035416885193849283928a84526004840161227f565b03816000875af19081156129745760009161293f575b5015612903576127ac575b5050505050600190565b602491857f0000000000000000000000000000000000000000000000000000000000000000918651948580926370a0823160e01b825286600483015285165afa9283156124ff5790869392916000936128ce575b50600061283c95875194632e1a7d4d60e01b8787015260248601526024855261282885611f49565b87519687958694859384526004840161227f565b03925af190811561248457600091612899575b501561285d578080806127a2565b60649250519062461bcd60e51b82526004820152601660248201527515d15512081d5b9ddc985c1c1a5b99c819985a5b195960521b6044820152fd5b908382813d83116128c7575b6128af8183611f65565b8101031261247a57506128c19061220d565b3861284f565b503d6128a5565b919382819492943d83116128fc575b6128e78183611f65565b8101031261247a575051859290916000612800565b503d6128dd565b845162461bcd60e51b815260048101879052601560248201527414ddd85c08195e1958dd5d1a5bdb8819985a5b1959605a1b6044820152606490fd5b908782813d831161296d575b6129558183611f65565b8101031261247a57506129679061220d565b38612797565b503d61294b565b86513d6000823e3d90fd5b885162461bcd60e51b8152600481018b90526014602482015273151bdad95b88185c1c1c9bdd994819985a5b195960621b6044820152606490fd5b908b82813d83116129e8575b6129d08183611f65565b8101031261247a57506129e29061220d565b386126c2565b503d6129c6565b8a513d6000823e3d90fd5b875162461bcd60e51b8152600481018a9052601160248201527014ddd85c081c185d1a081b9bdd081cd95d607a1b6044820152606490fd5b60405162461bcd60e51b815260206004820152601960248201527f43616e6e6f74207377617020746f2073616d6520746f6b656e000000000000006044820152606490fd5b507f000000000000000000000000000000000000000000000000000000000000000093506001612619565b6064906040519062461bcd60e51b825260048201526013602482015272115512081ddc985c1c1a5b99c819985a5b1959606a1b6044820152fd5b9080929394503d8311612b0f575b612af48186611f65565b8101031261247a5750612b069061220d565b38808381612603565b503d612aea565b50604051903d90823e3d90fd5b60405162461bcd60e51b815260206004820152602c60248201527f4d73672e76616c7565206d75737420657175616c20616d6f756e74496e20666f60448201526b0e440dcc2e8d2ecca408aa8960a31b6064820152608490fd5b341561260e5760405162461bcd60e51b815260206004820152603260248201527f4e6f204554482073686f756c642062652073656e74207768656e20746f6b656e604482015271040d2e640dcdee840dcc2e8d2ecca408aa8960731b6064820152608490fd5b90816020910312610395575160ff811681036103955790565b8181029291811591840414171561226957565b60ff166008019060ff821161226957565b60ff6005199116019060ff821161226957565b60ff16604d811161226957600a0a90565b8115612c4e570490565b634e487b7160e01b600052601260045260246000fd5b6001600160a01b038084169391928184169291838614612fba5760409283519563313ce56760e01b95868852602093600499858a8c81865afa998a15612f905760009a612f9b575b50875198895285898c81845afa988915612f9057600099612f61575b5082600052600786528760002081600052865281886000205416926007875288600020816000528752828960002054166000941515600014612dce57505050505090612d139161308c565b939093612d8b575050612d43612d549493612d3d612d37612d4e95612d4995612bfc565b91612c33565b90612bfc565b92612c0f565b612c33565b90612c44565b905b80549161271092830391838311612d76575090612d7291612bfc565b0490565b601190634e487b7160e01b6000525260246000fd5b5162461bcd60e51b815280870191909152601860248201527f556e657870656374656420696e766572736520707269636500000000000000006044820152606490fd5b15612e48575050505090612de19161308c565b93909315612e0c575050612d43612e069493612d3d612d37612d4e95612d4995612bfc565b90612d56565b5162461bcd60e51b8152808701919091526016602482015275457870656374656420696e766572736520707269636560501b6044820152606490fd5b9b9a999496939b9897919592987f0000000000000000000000000000000000000000000000000000000000000000968716809114159182612f56575b505015612f1d575050612eab612ea384655af3107a4000999a9b61308c565b95909461308c565b90965093612f0157612d49612ecf612ec9612ed495612d4e94612bfc565b93612c0f565b612c20565b905b612ef157612d37612eea93612d3d92612bfc565b0490612d56565b612d37612eea93612d3d92612bfc565b612d49612ecf612ec9612f1795612d4e94612bfc565b90612ed6565b5162461bcd60e51b815280890191909152601360248201527209cde40ecc2d8d2c840e0e4d2c6ca40e0c2e8d606b1b6044820152606490fd5b141590503880612e84565b612f82919950863d8811612f89575b612f7a8183611f65565b810190612be3565b9738612cc8565b503d612f70565b88513d6000823e3d90fd5b612fb3919a50863d8811612f8957612f7a8183611f65565b9838612cac565b50935050505090565b519069ffffffffffffffffffff8216820361039557565b908160a091031261039557612fee81612fc3565b9160208201519160408101519161300c608060608401519301612fc3565b90565b1561301657565b60405162461bcd60e51b815260206004820152600d60248201526c496e76616c696420707269636560981b6044820152606490fd5b1561305257565b60405162461bcd60e51b8152602060048201526012602482015271141c9a58d94819995959081d1bdbc81bdb1960721b6044820152606490fd5b60018060a01b0380911690600091808352600760205260409382858520911690818552602052828585205416806131d757508352600760205283832090835260205282822054168061311257825162461bcd60e51b8152602060048201526013602482015272139bc81c1c9a58d9481999595908199bdd5b99606a1b6044820152606490fd5b9160a0600493825194858092633fabe5a360e21b82525afa9081156131cc575081928291613189575b506201518061315861315f9261315285871361300f565b4261225c565b111561304b565b81156131755750662386f26fc100000490600190565b634e487b7160e01b81526012600452602490fd5b613158935061315f91506131b7620151809160a03d81116131c5575b6131af8183611f65565b810190612fda565b50969250509492505061313b565b503d6131a5565b51913d9150823e3d90fd5b8551633fabe5a360e21b8152949695935060a0925084915060049082905afa908115613255575083918491613222575b506201518061315861321e9261315287861361300f565b9190565b613158925061321e9150613247620151809160a03d81116131c5576131af8183611f65565b509592505093925050613207565b513d85823e3d90fd5b91801561328f576002546001600160a01b039081169290811683146132865761300c9361253f565b50505050600190565b505050600190565b51908160020b820361039557565b51906001600160801b038216820361039557565b9190826101809103126103955781516001600160601b038116810361039557916132e5602082016121f9565b916132f2604083016121f9565b916132ff606082016121f9565b9161330c60808301613297565b9161331960a08201613297565b9161332660c08301613297565b9161333360e082016132a5565b91610100820151916101208101519161300c61016061335561014085016132a5565b93016132a5565b1561336357565b60405162461bcd60e51b8152602060048201526012602482015271151bdad95b8c081cddd85c0819985a5b195960721b6044820152606490fd5b156133a457565b60405162461bcd60e51b8152602060048201526012602482015271151bdad95b8c481cddd85c0819985a5b195960721b6044820152606490fd5b604080519390926001600160a01b0392909167ffffffffffffffff91841690608087018381118882101761034f5786528652602093848701828152868801916001600160801b0392839182825260608b01938385528a519b8c8b63fc6f786560e01b9101525160248d0152511660448b015251166064890152511660848701526084865260c08601928684108385111761034f57838092818852635229073f60e01b82526000958680948b61349a8160bf199360c4820161227f565b0301925af19586156135ae5783928497613502575b505050156134ce57828480518101031261247a57508201519101519091565b50606491519062461bcd60e51b82526004820152600e60248201526d10dbdb1b1958dd0819985a5b195960921b6044820152fd5b91965091503d8084883e6135168188611f65565b820195858360c089019803126135925761352f9061220d565b9160e0810151908282116135aa57018660df820112156135925760c08101519182116135965785519661356b601f8401601f1916870189611f65565b82885260e08383010111613592579061358a9160e0868901910161202d565b3880806134af565b8380fd5b634e487b7160e01b84526041600452602484fd5b8480fd5b85513d85823e3d90fd5b6002546040516370a0823160e01b81526001600160a01b0392831660048201529160209183916024918391165afa9081156107eb576000916135f8575090565b906020823d821161361e575b8161361160209383611f65565b8101031261247a57505190565b3d915061360456fec457dabb1cd0422f2d4ee0e35bed2d324c897ff52ca6d0033a86d6a43ce80502a2646970667358221220b8741e2249f8993160eb162e04eafa4c9de63db5c8615e534211f298a74760a164736f6c63430008140033",
  "linkReferences": {},
  "deployedLinkReferences": {}
}