{
  "_format": "hh-sol-artifact-1",
  "contractName": "CholoDromeModule",
  "sourceName": "contracts/CholoDromeModule.sol",
  "abi": [
    {
      "inputs": [
        {
          "internalType": "address",
          "name": "_owner",
          "type": "address"
        },
        {
          "internalType": "address",
          "name": "_rewardToken",
          "type": "address"
        },
        {
          "internalType": "address",
          "name": "_rewardStable",
          "type": "address"
        },
        {
          "internalType": "address",
          "name": "_quoter",
          "type": "address"
        },
        {
          "internalType": "address",
          "name": "_swapRouter",
          "type": "address"
        }
      ],
      "stateMutability": "nonpayable",
      "type": "constructor"
    },
    {
      "inputs": [
        {
          "internalType": "address",
          "name": "owner",
          "type": "address"
        }
      ],
      "name": "OwnableInvalidOwner",
      "type": "error"
    },
    {
      "inputs": [
        {
          "internalType": "address",
          "name": "account",
          "type": "address"
        }
      ],
      "name": "OwnableUnauthorizedAccount",
      "type": "error"
    },
    {
      "anonymous": false,
      "inputs": [
        {
          "indexed": true,
          "internalType": "address",
          "name": "safe",
          "type": "address"
        },
        {
          "indexed": true,
          "internalType": "address",
          "name": "pool",
          "type": "address"
        },
        {
          "indexed": false,
          "internalType": "uint256",
          "name": "tokenId",
          "type": "uint256"
        },
        {
          "indexed": false,
          "internalType": "uint256",
          "name": "amount0",
          "type": "uint256"
        },
        {
          "indexed": false,
          "internalType": "uint256",
          "name": "amount1",
          "type": "uint256"
        },
        {
          "indexed": false,
          "internalType": "uint256",
          "name": "veloAmount",
          "type": "uint256"
        },
        {
          "indexed": false,
          "internalType": "uint256",
          "name": "totalUsdtAmount",
          "type": "uint256"
        }
      ],
      "name": "EarningsCollected",
      "type": "event"
    },
    {
      "anonymous": false,
      "inputs": [
        {
          "indexed": true,
          "internalType": "address",
          "name": "previousOwner",
          "type": "address"
        },
        {
          "indexed": true,
          "internalType": "address",
          "name": "newOwner",
          "type": "address"
        }
      ],
      "name": "OwnershipTransferred",
      "type": "event"
    },
    {
      "anonymous": false,
      "inputs": [
        {
          "indexed": true,
          "internalType": "address",
          "name": "safe",
          "type": "address"
        },
        {
          "indexed": true,
          "internalType": "address",
          "name": "pool",
          "type": "address"
        }
      ],
      "name": "PoolApproved",
      "type": "event"
    },
    {
      "anonymous": false,
      "inputs": [
        {
          "indexed": true,
          "internalType": "address",
          "name": "safe",
          "type": "address"
        },
        {
          "indexed": true,
          "internalType": "address",
          "name": "pool",
          "type": "address"
        }
      ],
      "name": "PoolRemoved",
      "type": "event"
    },
    {
      "anonymous": false,
      "inputs": [
        {
          "indexed": true,
          "internalType": "address",
          "name": "oldStable",
          "type": "address"
        },
        {
          "indexed": true,
          "internalType": "address",
          "name": "newStable",
          "type": "address"
        }
      ],
      "name": "RewardStableUpdated",
      "type": "event"
    },
    {
      "anonymous": false,
      "inputs": [
        {
          "indexed": true,
          "internalType": "address",
          "name": "oldToken",
          "type": "address"
        },
        {
          "indexed": true,
          "internalType": "address",
          "name": "newToken",
          "type": "address"
        }
      ],
      "name": "RewardTokenUpdated",
      "type": "event"
    },
    {
      "anonymous": false,
      "inputs": [
        {
          "indexed": false,
          "internalType": "uint256",
          "name": "oldTolerance",
          "type": "uint256"
        },
        {
          "indexed": false,
          "internalType": "uint256",
          "name": "newTolerance",
          "type": "uint256"
        }
      ],
      "name": "SlippageToleranceUpdated",
      "type": "event"
    },
    {
      "inputs": [
        {
          "internalType": "address",
          "name": "pool",
          "type": "address"
        }
      ],
      "name": "approvePool",
      "outputs": [],
      "stateMutability": "nonpayable",
      "type": "function"
    },
    {
      "inputs": [
        {
          "internalType": "address",
          "name": "",
          "type": "address"
        }
      ],
      "name": "approvedPools",
      "outputs": [
        {
          "internalType": "bool",
          "name": "",
          "type": "bool"
        }
      ],
      "stateMutability": "view",
      "type": "function"
    },
    {
      "inputs": [
        {
          "internalType": "address",
          "name": "pool",
          "type": "address"
        },
        {
          "internalType": "uint256",
          "name": "tokenId",
          "type": "uint256"
        }
      ],
      "name": "collectAndConvertFees",
      "outputs": [],
      "stateMutability": "nonpayable",
      "type": "function"
    },
    {
      "inputs": [],
      "name": "owner",
      "outputs": [
        {
          "internalType": "address",
          "name": "",
          "type": "address"
        }
      ],
      "stateMutability": "view",
      "type": "function"
    },
    {
      "inputs": [],
      "name": "quoter",
      "outputs": [
        {
          "internalType": "address",
          "name": "",
          "type": "address"
        }
      ],
      "stateMutability": "view",
      "type": "function"
    },
    {
      "inputs": [
        {
          "internalType": "address",
          "name": "pool",
          "type": "address"
        }
      ],
      "name": "removePool",
      "outputs": [],
      "stateMutability": "nonpayable",
      "type": "function"
    },
    {
      "inputs": [],
      "name": "renounceOwnership",
      "outputs": [],
      "stateMutability": "nonpayable",
      "type": "function"
    },
    {
      "inputs": [],
      "name": "rewardStable",
      "outputs": [
        {
          "internalType": "address",
          "name": "",
          "type": "address"
        }
      ],
      "stateMutability": "view",
      "type": "function"
    },
    {
      "inputs": [],
      "name": "rewardToken",
      "outputs": [
        {
          "internalType": "address",
          "name": "",
          "type": "address"
        }
      ],
      "stateMutability": "view",
      "type": "function"
    },
    {
      "inputs": [
        {
          "internalType": "address",
          "name": "_newRewardStable",
          "type": "address"
        }
      ],
      "name": "setRewardStable",
      "outputs": [],
      "stateMutability": "nonpayable",
      "type": "function"
    },
    {
      "inputs": [
        {
          "internalType": "address",
          "name": "_newRewardToken",
          "type": "address"
        }
      ],
      "name": "setRewardToken",
      "outputs": [],
      "stateMutability": "nonpayable",
      "type": "function"
    },
    {
      "inputs": [
        {
          "internalType": "uint256",
          "name": "_slippageTolerance",
          "type": "uint256"
        }
      ],
      "name": "setSlippageTolerance",
      "outputs": [],
      "stateMutability": "nonpayable",
      "type": "function"
    },
    {
      "inputs": [
        {
          "internalType": "address",
          "name": "fromToken",
          "type": "address"
        },
        {
          "internalType": "address",
          "name": "toToken",
          "type": "address"
        },
        {
          "internalType": "bytes",
          "name": "path",
          "type": "bytes"
        }
      ],
      "name": "setSwapPath",
      "outputs": [],
      "stateMutability": "nonpayable",
      "type": "function"
    },
    {
      "inputs": [],
      "name": "slippageTolerance",
      "outputs": [
        {
          "internalType": "uint256",
          "name": "",
          "type": "uint256"
        }
      ],
      "stateMutability": "view",
      "type": "function"
    },
    {
      "inputs": [
        {
          "internalType": "address",
          "name": "pool",
          "type": "address"
        },
        {
          "internalType": "uint256",
          "name": "tokenId",
          "type": "uint256"
        }
      ],
      "name": "stakeAndCollect",
      "outputs": [],
      "stateMutability": "nonpayable",
      "type": "function"
    },
    {
      "inputs": [
        {
          "internalType": "address",
          "name": "",
          "type": "address"
        },
        {
          "internalType": "address",
          "name": "",
          "type": "address"
        }
      ],
      "name": "swapPaths",
      "outputs": [
        {
          "internalType": "bytes",
          "name": "",
          "type": "bytes"
        }
      ],
      "stateMutability": "view",
      "type": "function"
    },
    {
      "inputs": [],
      "name": "swapRouter",
      "outputs": [
        {
          "internalType": "address",
          "name": "",
          "type": "address"
        }
      ],
      "stateMutability": "view",
      "type": "function"
    },
    {
      "inputs": [
        {
          "internalType": "address",
          "name": "newOwner",
          "type": "address"
        }
      ],
      "name": "transferOwnership",
      "outputs": [],
      "stateMutability": "nonpayable",
      "type": "function"
    },
    {
      "inputs": [
        {
          "internalType": "address",
          "name": "pool",
          "type": "address"
        },
        {
          "internalType": "uint256",
          "name": "tokenId",
          "type": "uint256"
        }
      ],
      "name": "unstakeAndCollect",
      "outputs": [],
      "stateMutability": "nonpayable",
      "type": "function"
    },
    {
      "inputs": [
        {
          "internalType": "address",
          "name": "pool",
          "type": "address"
        },
        {
          "internalType": "uint256",
          "name": "tokenId",
          "type": "uint256"
        }
      ],
      "name": "withdrawAndCollect",
      "outputs": [],
      "stateMutability": "nonpayable",
      "type": "function"
    }
  ],
  "bytecode": "0x6080346200025657601f620028fd38819003918201601f191683019291906001600160401b038411838510176200025b578160a092849260409687528339810103126200025657620000518162000271565b6200005f6020830162000271565b906200006d84840162000271565b926200008a6080620000826060840162000271565b920162000271565b6001600160a01b039283169390929084156200023e57600080546001600160a01b0319808216881783559684939290918416907f8be0079c531659141344cd1fd0a4f28419497f9722a3daafe3b4186f6b6457e09080a3603260055516948515620001fa578116918215620001b65781169283156200018157169384156200013d578360015416176001558260025416176002558160045416176004556003541617600355516126769081620002878239f35b855162461bcd60e51b815260206004820152601360248201527f496e76616c6964207377617020726f75746572000000000000000000000000006044820152606490fd5b865162461bcd60e51b815260206004820152600e60248201526d24b73b30b634b21038bab7ba32b960911b6044820152606490fd5b865162461bcd60e51b815260206004820152601560248201527f496e76616c69642072657761726420737461626c6500000000000000000000006044820152606490fd5b865162461bcd60e51b815260206004820152601460248201527f496e76616c69642072657761726420746f6b656e0000000000000000000000006044820152606490fd5b8651631e4fbdf760e01b815260006004820152602490fd5b600080fd5b634e487b7160e01b600052604160045260246000fd5b51906001600160a01b0382168203620002565756fe6080604052600436101561001257600080fd5b60003560e01c8063117da1ee146118a057806331a8f1c9146113aa5780633b7d094614611339578063424c265b146112c5578063483103a4146110815780634a6a749c146110185780634bdc76cc14610e48578063715018a614610def5780638aee812714610d435780638da5cb5b14610d1a578063ac6e07ee1461078f578063c13d2f75146106e2578063c31c9c07146106b9578063c6bbd5a714610690578063d03153aa14610672578063e637030914610217578063f0bbcec4146101d8578063f2bf87e3146101af578063f2fde38b146101265763f7c618c1146100f857600080fd5b34610121576000366003190112610121576001546040516001600160a01b039091168152602090f35b600080fd5b346101215760203660031901126101215761013f611937565b610147611ae5565b6001600160a01b0390811690811561019657600054826001600160601b0360a01b821617600055167f8be0079c531659141344cd1fd0a4f28419497f9722a3daafe3b4186f6b6457e0600080a3005b604051631e4fbdf760e01b815260006004820152602490fd5b34610121576000366003190112610121576002546040516001600160a01b039091168152602090f35b34610121576020366003190112610121576001600160a01b036101f9611937565b166000526006602052602060ff604060002054166040519015158152f35b34610121576040366003190112610121576001600160a01b03610238611937565b1680600052600660205261025360ff60406000205416611b4c565b6040516323e6650160e11b8152602081600481855afa9081156104da57600091610638575b5060405163133f757160e31b81526024803560048301529091906101809081908490816001600160a01b0386165afa9283156104da576000916000946105f9575b50506040516329bc672160e21b815290602082600481885afa9182156104da576000926105bd575b506102eb336125b2565b60405163c69deec560e01b81523360048201526024803590820152600095869592939290918691906020816044816001600160a01b038b165afa9081156104da57600091610583575b501561051a575050604051633e491d4760e01b8152336004820152602480359082015292915060209050826044816001600160a01b0387165afa9182156104da576000926104e6575b508192826103cf575b5061039b91505b610396336125b2565b611c05565b91604051936024358552602085015260408401526060830152608082015260008051602061262183398151915260a03392a3005b60206104159160405190631c4b774b60e01b838301526024356024830152602482526103fa826119b9565b60405163468721a760e01b8152938492839260048401611c28565b03816000335af19081156104da576000916104a0575b501561045b5760015461039b926104559161045091906001600160a01b031633611ee8565b611c59565b86610386565b60405162461bcd60e51b815260206004820152601760248201527f47617567652067657420726577617264206661696c65640000000000000000006044820152606490fd5b90506020813d6020116104d2575b816104bb602093836119d5565b81010312610121576104cc90611bb6565b8761042b565b3d91506104ae565b6040513d6000823e3d90fd5b9091506020813d602011610512575b81610502602093836119d5565b810103126101215751908661037d565b3d91506104f5565b90945061039b9392965061053491955060243590336123d8565b90948195809781610569575b50508161054f575b505061038d565b6105629161055d9133611ee8565b612397565b8680610548565b61057c916105779133611ee8565b612356565b8880610540565b90506020813d6020116105b5575b8161059e602093836119d5565b81010312610121576105af90611bb6565b8a610334565b3d9150610591565b9091506020813d6020116105f1575b816105d9602093836119d5565b81010312610121576105ea90611ba2565b90856102e1565b3d91506105cc565b61061d93945080919250903d10610631575b61061581836119d5565b8101906122b0565b5050505050505050939250905084806102b9565b503d61060b565b90506020813d60201161066a575b81610653602093836119d5565b810103126101215761066490611ba2565b82610278565b3d9150610646565b34610121576000366003190112610121576020600554604051908152f35b34610121576000366003190112610121576004546040516001600160a01b039091168152602090f35b34610121576000366003190112610121576003546040516001600160a01b039091168152602090f35b34610121576020366003190112610121576106fb611937565b610703611ae5565b6001600160a01b0390811690811561075257600254826001600160601b0360a01b821617600255167f9d4858dccb76debed7845fd87ec5c769962d072d518c9e34182581abb3e8247c600080a3005b60405162461bcd60e51b8152602060048201526015602482015274496e76616c69642072657761726420737461626c6560581b6044820152606490fd5b34610121576040366003190112610121576001600160a01b036107b0611937565b168060005260066020526107cb60ff60406000205416611b4c565b6040516323e6650160e11b8152602081600481855afa9081156104da57600091610ce0575b5060405163133f757160e31b815260248035600483015261018092919083908290816001600160a01b0386165afa9182156104da5760008091600093600096600096610cab575b5050610842336125b2565b6040516329bc672160e21b81526000959194916020826004818d5afa9182156104da57600092610c6f575b5060405163c69deec560e01b81523360048201526024803590820152916020836044816001600160a01b0385165afa9283156104da57600093610c33575b5082610b9f575b506001600160801b031680610a29575b509061090693602093926108d960243585336123d8565b5050156109db575b5050604051630852cd8d60e31b8382015260248035818301528152906103fa826119b9565b03816000335af19081156104da576000916109a1575b501561096e576109376001600160801b0391610396336125b2565b92816040519560243587521660208601521660408401526060830152608082015260008051602061262183398151915260a03392a3005b60405162461bcd60e51b815260206004820152600b60248201526a109d5c9b8819985a5b195960aa1b6044820152606490fd5b90506020813d6020116109d3575b816109bc602093836119d5565b81010312610121576109cd90611bb6565b8661091c565b3d91506109af565b6001600160801b0389169081610a14575b50506001600160801b0387169081156108e157610a0d9161055d9133611ee8565b88806108e1565b610a22916105779133611ee8565b89806109ec565b6040939291935190610a3a8261199d565b60243582526020820190815260408201600081526060830190600082526001600160801b03608085019342855260405195630624e65f60e11b6020880152516024870152511660448501525160648401525160848301525160a482015260a481528060e081011067ffffffffffffffff60e083011117610b895760e08101604081905263468721a760e01b815260209060df1983610adc818860e48201611c28565b030160e084016000335af19081156104da57600091610b49575b5015610b04579091896108c2565b60405162461bcd60e51b815260206004820152601960248201527f4465637265617365206c6971756964697479206661696c6564000000000000006044820152606490fd5b90506020813d602011610b81575b81610b6760209360e084016119d5565b810103126101215760e0610b7b9101611bb6565b8a610af6565b3d9150610b57565b634e487b7160e01b600052604160045260246000fd5b604051633e491d4760e01b81523360048201526024803590820152909750906020826044816001600160a01b038c165afa9182156104da57600092610bfd575b50610bf76001600160801b0392986024359033611c9d565b906108b2565b91506020823d602011610c2b575b81610c18602093836119d5565b8101031261012157905190610bf7610bdf565b3d9150610c0b565b9092506020813d602011610c67575b81610c4f602093836119d5565b8101031261012157610c6090611bb6565b918b6108ab565b3d9150610c42565b9091506020813d602011610ca3575b81610c8b602093836119d5565b8101031261012157610c9c90611ba2565b908a61086d565b3d9150610c7e565b93509350945050610cc89250803d106106315761061581836119d5565b9b9a5098505050949250505090919294938780610837565b90506020813d602011610d12575b81610cfb602093836119d5565b8101031261012157610d0c90611ba2565b826107f0565b3d9150610cee565b34610121576000366003190112610121576000546040516001600160a01b039091168152602090f35b3461012157602036600319011261012157610d5c611937565b610d64611ae5565b6001600160a01b03908116908115610db357600154826001600160601b0360a01b821617600155167f906ff2422a6ffa134f2d7ccaffd446bc0c583a5cb6615749b4b2836942a5fea8600080a3005b60405162461bcd60e51b815260206004820152601460248201527324b73b30b634b2103932bbb0b932103a37b5b2b760611b6044820152606490fd5b3461012157600036600319011261012157610e08611ae5565b600080546001600160a01b0319811682556001600160a01b03167f8be0079c531659141344cd1fd0a4f28419497f9722a3daafe3b4186f6b6457e08280a3005b3461012157604036600319011261012157610e61611937565b60243560018060a01b03809216918260005260209060068252610e8b60ff60406000205416611b4c565b6040516329bc672160e21b8152908282600481885afa9182156104da57600092610fe1575b5060405163c69deec560e01b81523360048201526024810185905290821691908381604481865afa80156104da57600090610fab575b610ef09150611bc3565b610f0484610efd336125b2565b9233611c9d565b604051633e491d4760e01b815233600482015260248101859052918390839060449082905afa9182156104da57600092610f7a575b50610f49600091610396336125b2565b92604051948552840152600060408401526060830152608082015260008051602061262183398151915260a03392a3005b9091508281813d8311610fa4575b610f9281836119d5565b81010312610121575190610f49610f39565b503d610f88565b508381813d8311610fda575b610fc181836119d5565b8101031261012157610fd5610ef091611bb6565b610ee6565b503d610fb7565b9091508281813d8311611011575b610ff981836119d5565b810103126101215761100a90611ba2565b9085610eb0565b503d610fef565b3461012157604036600319011261012157611031611937565b61103961194d565b9060018060a01b0380911660005260076020526040600020911660005260205261107d61106960406000206119f7565b604051918291602083526020830190611ac0565b0390f35b346101215760603660031901126101215761109a611937565b6110a261194d565b906044359067ffffffffffffffff9081831161012157366023840112156101215782600401359182116101215760249036828486010111610121576110e5611ae5565b6001600160a01b0390811694851561128d57169384156112575782156112245760005260209360078552604060002090600052845260406000209261112a8454611963565b601f81116111de575b50600094601f8411600114611175575093829394600093611168575b505050600019600383901b1c191660019190911b179055005b010135905083808061114f565b91601f198416958560005283600020936000905b8882106111c45750508460019697106111a8575b50505050811b019055005b60001960f88660031b161c19920101351690558380808061119d565b806001849786839596890101358155019601920190611189565b8460005285600020601f850160051c81019187861061121a575b601f0160051c01905b81811061120e5750611133565b60008155600101611201565b90915081906111f8565b60405162461bcd60e51b815260206004820152600c818401526b092dcecc2d8d2c840e0c2e8d60a31b6044820152606490fd5b60405162461bcd60e51b815260206004820152600f818401526e24b73b30b634b2103a37aa37b5b2b760891b6044820152606490fd5b60405162461bcd60e51b8152602060048201526011818501527024b73b30b634b210333937b6aa37b5b2b760791b6044820152606490fd5b34610121576020366003190112610121576112de611937565b6112e6611ae5565b6001600160a01b03166112fa811515611b11565b6000818152600660205260408120805460ff191660011790557ffc1f1e73948cbc47c5b7f90e5601b7daccd9ad7173218486ccc74bdd051d05e88180a3005b3461012157602036600319011261012157611352611937565b61135a611ae5565b6001600160a01b031661136e811515611b11565b6000818152600660205260408120805460ff191690557f987eb3c2f78454541205f72f34839b434c306c9eaf4922efd7c0c3060fdb2e4c8180a3005b34610121576040366003190112610121576113c3611937565b602480359060018060a01b038093169283600052602091600683526113ef60ff60406000205416611b4c565b6040516323e6650160e11b8152908382600481895afa9182156104da57600092611869575b506040516329bc672160e21b815284816004818a5afa9081156104da57600091611834575b5060405163c69deec560e01b81523360048201526024810187905284841694821692908681604481875afa9081156104da576000916117ff575b506117bc57611481336125b2565b916040519363133f757160e31b855288600486015261018095868685818b5afa9586156104da578a988a9160009060009060009b60009b611779575b50506114d160449798999a9b9c86336123d8565b9281611764575b50508161174f575b50506040519485809263e985e9c560e01b8252336004830152868a8301525afa80156104da578993600091611719575b501561160d575b505060405163b6b55f2560e01b8282015283810189905283815261153e926103fa826119b9565b03816000335af19081156104da576000916115d8575b50156115a6575061156890610396336125b2565b926040519485526001600160801b038093169085015216604083015260006060830152608082015260008051602061262183398151915260a03392a3005b84600c6064926040519262461bcd60e51b845260048401528201526b14dd185ad94819985a5b195960a21b6044820152fd5b90508581813d8311611606575b6115ef81836119d5565b810103126101215761160090611bb6565b88611554565b503d6115e5565b9091506040519163a22cb46560e01b89840152848301526001604483015260448252608082019082821067ffffffffffffffff831117611704578189918160405263468721a760e01b82528461166a81607f199360848201611c28565b0301816000335af19182156104da5788906000936116cd575b5050501561169357858980611517565b60405162461bcd60e51b8152600481018790526013818401527213919508185c1c1c9bdd985b0819985a5b1959606a1b6044820152606490fd5b90809293503d83116116fd575b6116e481856119d5565b81010312610121576116f590611bb6565b898781611683565b503d6116da565b84634e487b7160e01b60005260416004526000fd5b84819592503d8311611748575b61173081836119d5565b81010312610121576117428993611bb6565b8c611510565b503d611726565b61175d9161055d9133611ee8565b8d806114e0565b611772916105779133611ee8565b8f806114d8565b6114d19d9c50604498999a9b506117a0935080919250903d106106315761061581836119d5565b9a509850505050505050929c9092919c9a9998979c9b9c6114bd565b8560176064926040519262461bcd60e51b845260048401528201527f506f736974696f6e20616c7265616479207374616b65640000000000000000006044820152fd5b90508681813d831161182d575b61181681836119d5565b810103126101215761182790611bb6565b89611473565b503d61180c565b90508481813d8311611862575b61184b81836119d5565b810103126101215761185c90611ba2565b87611439565b503d611841565b9091508381813d8311611899575b61188181836119d5565b810103126101215761189290611ba2565b9086611414565b503d611877565b34610121576020366003190112610121576004356118bc611ae5565b6103e881116118fe5760407fddd31550b26e9ef8ade466958be83ff8a014d9b4f36d546b61a6847a4530657591600554908060055582519182526020820152a1005b60405162461bcd60e51b81526020600482015260116024820152700a6d8d2e0e0c2ceca40e8dede40d0d2ced607b1b6044820152606490fd5b600435906001600160a01b038216820361012157565b602435906001600160a01b038216820361012157565b90600182811c92168015611993575b602083101461197d57565b634e487b7160e01b600052602260045260246000fd5b91607f1691611972565b60a0810190811067ffffffffffffffff821117610b8957604052565b6060810190811067ffffffffffffffff821117610b8957604052565b90601f8019910116810190811067ffffffffffffffff821117610b8957604052565b9060405191826000825492611a0b84611963565b908184526001948581169081600014611a7a5750600114611a37575b5050611a35925003836119d5565b565b9093915060005260209081600020936000915b818310611a62575050611a3593508201013880611a27565b85548884018501529485019487945091830191611a4a565b915050611a3594506020925060ff191682840152151560051b8201013880611a27565b60005b838110611ab05750506000910152565b8181015183820152602001611aa0565b90602091611ad981518092818552858086019101611a9d565b601f01601f1916010190565b6000546001600160a01b03163303611af957565b60405163118cdaa760e01b8152336004820152602490fd5b15611b1857565b60405162461bcd60e51b815260206004820152600c60248201526b125b9d985b1a59081c1bdbdb60a21b6044820152606490fd5b15611b5357565b60405162461bcd60e51b815260206004820152602160248201527f506f6f6c206e6f7420617070726f76656420666f722074686973206d6f64756c6044820152606560f81b6064820152608490fd5b51906001600160a01b038216820361012157565b5190811515820361012157565b15611bca57565b60405162461bcd60e51b8152602060048201526013602482015272141bdcda5d1a5bdb881b9bdd081cdd185ad959606a1b6044820152606490fd5b91908203918211611c1257565b634e487b7160e01b600052601160045260246000fd5b9291611c5460609160009360018060a01b03168652836020870152608060408701526080860190611ac0565b930152565b15611c6057565b60405162461bcd60e51b815260206004820152601560248201527414ddd85c081d1bc81cdd18589b194819985a5b1959605a1b6044820152606490fd5b916001600160a01b0391808316918215611eb3576040805163c69deec560e01b81528587166001600160a01b038116600483015260248201849052602094929392909185816044818a5afa8015611ea857600090611e72575b611d009150611bc3565b8351633e491d4760e01b81526001600160a01b038316600482015260248101849052958590879060449082905afa958615611e6757600096611e38575b50918491611d8393855192632e1a7d4d60e01b85850152602484015260248352611d66836119b9565b6000865180968195829463468721a760e01b845260048401611c28565b03925af1908115611e2d57600091611df5575b5015611dba57505080611da857505050565b611a3592610450926001541690611ee8565b60649250519062461bcd60e51b82526004820152601560248201527411d85d59d9481dda5d1a191c985dc819985a5b1959605a1b6044820152fd5b908382813d8311611e26575b611e0b81836119d5565b81010312611e235750611e1d90611bb6565b38611d96565b80fd5b503d611e01565b82513d6000823e3d90fd5b90958582813d8311611e60575b611e4f81836119d5565b81010312611e235750519484611d3d565b503d611e45565b84513d6000823e3d90fd5b8682813d8311611ea1575b611e8781836119d5565b81010312611e235750611e9c611d0091611bb6565b611cf6565b503d611e7d565b85513d6000823e3d90fd5b60405162461bcd60e51b815260206004820152600d60248201526c496e76616c696420676175676560981b6044820152606490fd5b918015612217576002546001600160a01b0393908416838516811461220d57611f11908461221f565b84600354169160409586519160209463095ea7b360e01b868501528284611f528960249485840160209093929193604081019460018060a01b031681520152565b0392611f66601f19948581018852876119d5565b169489519763468721a760e01b998a8a5289898180611f8a60049b868d8401611c28565b0360009d8e8d5af1908115612203578b916121ca575b5015612190579088611fba611fe29388600254169061221f565b8d888a5416908d8b82519788958694859363cdca175360e01b85528401526044830190611ac0565b878b83015203925af1918215612186578a92612153575b50600554926127109384039284841161212f578381029381850414901517156121415761012c42019081421161212f57928b95928895928f998d9c9a96878e9d9b9851916120468361199d565b82528d8201968d8852818301948552606083019586526080830196048652519c8d9763c04b8d5960e01b828a0152880152516044870160a0905260e4870161208d91611ac0565b94511660648601525160848501525160a48401525160c48301520390810186526120b790866119d5565b6003548a51998a528995869485936120d29316908401611c28565b03925af1938415612124575081936120eb575b50505090565b9091809350813d831161211d575b61210381836119d5565b81010312611e23575061211590611bb6565b3880806120e5565b503d6120f9565b51913d9150823e3d90fd5b634e487b7160e01b8c5260118952858cfd5b634e487b7160e01b8b5260118852848bfd5b9091508881813d831161217f575b61216b81836119d5565b8101031261217b57519038611ff9565b8980fd5b503d612161565b8c513d8c823e3d90fd5b508a5162461bcd60e51b815280870189905260148185015273151bdad95b88185c1c1c9bdd994819985a5b195960621b6044820152606490fd5b90508981813d83116121fc575b6121e181836119d5565b810103126121f8576121f290611bb6565b38611fa0565b8a80fd5b503d6121d7565b8d513d8d823e3d90fd5b5050505050600190565b505050600190565b60018060a01b0380911660005260076020526040600020911660005260205261224b60406000206119f7565b9081511561225557565b60405162461bcd60e51b815260206004820152601160248201527014ddd85c081c185d1a081b9bdd081cd95d607a1b6044820152606490fd5b51908160020b820361012157565b51906001600160801b038216820361012157565b9190826101809103126101215781516001600160601b038116810361012157916122dc60208201611ba2565b916122e960408301611ba2565b916122f660608201611ba2565b916123036080830161228e565b9161231060a0820161228e565b9161231d60c0830161228e565b9161232a60e0820161229c565b91610100820151916101208101519161235361016061234c610140850161229c565b930161229c565b90565b1561235d57565b60405162461bcd60e51b8152602060048201526012602482015271151bdad95b8c081cddd85c0819985a5b195960721b6044820152606490fd5b1561239e57565b60405162461bcd60e51b8152602060048201526012602482015271151bdad95b8c481cddd85c0819985a5b195960721b6044820152606490fd5b604080519390926001600160a01b0392909167ffffffffffffffff918416906080870183811188821017610b895786528652602093848701828152868801916001600160801b0392839182825260608b01938385528a519b8c8b63fc6f786560e01b9101525160248d0152511660448b015251166064890152511660848701526084865260c086019286841083851117610b8957838092818852635229073f60e01b82526000958680948b6124948160bf199360c48201611c28565b0301925af19586156125a857839284976124fc575b505050156124c8578284805181010312611e2357508201519101519091565b50606491519062461bcd60e51b82526004820152600e60248201526d10dbdb1b1958dd0819985a5b195960921b6044820152fd5b91965091503d8084883e61251081886119d5565b820195858360c0890198031261258c5761252990611bb6565b9160e0810151908282116125a457018660df8201121561258c5760c081015191821161259057855196612565601f8401601f19168701896119d5565b82885260e0838301011161258c57906125849160e08689019101611a9d565b3880806124a9565b8380fd5b634e487b7160e01b84526041600452602484fd5b8480fd5b85513d85823e3d90fd5b6002546040516370a0823160e01b81526001600160a01b0392831660048201529160209183916024918391165afa9081156104da576000916125f2575090565b906020823d8211612618575b8161260b602093836119d5565b81010312611e2357505190565b3d91506125fe56fec457dabb1cd0422f2d4ee0e35bed2d324c897ff52ca6d0033a86d6a43ce80502a2646970667358221220bc76dabae5a47c8af4a4ecdba3cf09f8c28249ae246e0d27f56d803e0fe5392964736f6c63430008140033",
  "linkReferences": {},
  "deployedLinkReferences": {}
}