{
  "contracts/CholoDromeModule.sol": {
    "CholoDromeModule": {
      "abi": [
        {
          "inputs": [
            {
              "internalType": "address",
              "name": "_owner",
              "type": "address"
            },
            {
              "internalType": "address",
              "name": "_rewardToken",
              "type": "address"
            },
            {
              "internalType": "address",
              "name": "_rewardStable",
              "type": "address"
            },
            {
              "internalType": "address",
              "name": "_universalRouter",
              "type": "address"
            },
            {
              "internalType": "address",
              "name": "_weth",
              "type": "address"
            }
          ],
          "stateMutability": "nonpayable",
          "type": "constructor"
        },
        {
          "inputs": [
            {
              "internalType": "address",
              "name": "owner",
              "type": "address"
            }
          ],
          "name": "OwnableInvalidOwner",
          "type": "error"
        },
        {
          "inputs": [
            {
              "internalType": "address",
              "name": "account",
              "type": "address"
            }
          ],
          "name": "OwnableUnauthorizedAccount",
          "type": "error"
        },
        {
          "anonymous": false,
          "inputs": [
            {
              "indexed": true,
              "internalType": "address",
              "name": "safe",
              "type": "address"
            },
            {
              "indexed": true,
              "internalType": "address",
              "name": "pool",
              "type": "address"
            },
            {
              "indexed": false,
              "internalType": "uint256",
              "name": "tokenId",
              "type": "uint256"
            }
          ],
          "name": "DepositMaxCompleted",
          "type": "event"
        },
        {
          "anonymous": false,
          "inputs": [
            {
              "indexed": true,
              "internalType": "address",
              "name": "safe",
              "type": "address"
            },
            {
              "indexed": true,
              "internalType": "address",
              "name": "pool",
              "type": "address"
            },
            {
              "indexed": false,
              "internalType": "uint256",
              "name": "tokenId",
              "type": "uint256"
            },
            {
              "indexed": false,
              "internalType": "uint256",
              "name": "amount0",
              "type": "uint256"
            },
            {
              "indexed": false,
              "internalType": "uint256",
              "name": "amount1",
              "type": "uint256"
            },
            {
              "indexed": false,
              "internalType": "uint256",
              "name": "veloAmount",
              "type": "uint256"
            },
            {
              "indexed": false,
              "internalType": "uint256",
              "name": "totalUsdtAmount",
              "type": "uint256"
            }
          ],
          "name": "EarningsCollected",
          "type": "event"
        },
        {
          "anonymous": false,
          "inputs": [
            {
              "indexed": true,
              "internalType": "address",
              "name": "previousOwner",
              "type": "address"
            },
            {
              "indexed": true,
              "internalType": "address",
              "name": "newOwner",
              "type": "address"
            }
          ],
          "name": "OwnershipTransferred",
          "type": "event"
        },
        {
          "anonymous": false,
          "inputs": [
            {
              "indexed": true,
              "internalType": "address",
              "name": "safe",
              "type": "address"
            },
            {
              "indexed": true,
              "internalType": "address",
              "name": "pool",
              "type": "address"
            }
          ],
          "name": "PoolApproved",
          "type": "event"
        },
        {
          "anonymous": false,
          "inputs": [
            {
              "indexed": true,
              "internalType": "address",
              "name": "safe",
              "type": "address"
            },
            {
              "indexed": true,
              "internalType": "address",
              "name": "pool",
              "type": "address"
            }
          ],
          "name": "PoolRemoved",
          "type": "event"
        },
        {
          "anonymous": false,
          "inputs": [
            {
              "indexed": true,
              "internalType": "address",
              "name": "oldStable",
              "type": "address"
            },
            {
              "indexed": true,
              "internalType": "address",
              "name": "newStable",
              "type": "address"
            }
          ],
          "name": "RewardStableUpdated",
          "type": "event"
        },
        {
          "anonymous": false,
          "inputs": [
            {
              "indexed": true,
              "internalType": "address",
              "name": "oldToken",
              "type": "address"
            },
            {
              "indexed": true,
              "internalType": "address",
              "name": "newToken",
              "type": "address"
            }
          ],
          "name": "RewardTokenUpdated",
          "type": "event"
        },
        {
          "anonymous": false,
          "inputs": [
            {
              "indexed": false,
              "internalType": "uint256",
              "name": "oldTolerance",
              "type": "uint256"
            },
            {
              "indexed": false,
              "internalType": "uint256",
              "name": "newTolerance",
              "type": "uint256"
            }
          ],
          "name": "SlippageToleranceUpdated",
          "type": "event"
        },
        {
          "inputs": [],
          "name": "WETH",
          "outputs": [
            {
              "internalType": "address",
              "name": "",
              "type": "address"
            }
          ],
          "stateMutability": "view",
          "type": "function"
        },
        {
          "inputs": [
            {
              "internalType": "address",
              "name": "pool",
              "type": "address"
            }
          ],
          "name": "approvePool",
          "outputs": [],
          "stateMutability": "nonpayable",
          "type": "function"
        },
        {
          "inputs": [
            {
              "internalType": "address",
              "name": "",
              "type": "address"
            }
          ],
          "name": "approvedPools",
          "outputs": [
            {
              "internalType": "bool",
              "name": "",
              "type": "bool"
            }
          ],
          "stateMutability": "view",
          "type": "function"
        },
        {
          "inputs": [
            {
              "internalType": "address",
              "name": "pool",
              "type": "address"
            },
            {
              "internalType": "uint256",
              "name": "tokenId",
              "type": "uint256"
            },
            {
              "components": [
                {
                  "internalType": "address",
                  "name": "token",
                  "type": "address"
                },
                {
                  "internalType": "uint256",
                  "name": "price",
                  "type": "uint256"
                },
                {
                  "internalType": "bytes",
                  "name": "swapPath",
                  "type": "bytes"
                }
              ],
              "internalType": "struct CholoDromeModule.TokenData[]",
              "name": "tokenData",
              "type": "tuple[]"
            }
          ],
          "name": "collectAndConvertFees",
          "outputs": [],
          "stateMutability": "nonpayable",
          "type": "function"
        },
        {
          "inputs": [],
          "name": "owner",
          "outputs": [
            {
              "internalType": "address",
              "name": "",
              "type": "address"
            }
          ],
          "stateMutability": "view",
          "type": "function"
        },
        {
          "inputs": [
            {
              "internalType": "address",
              "name": "pool",
              "type": "address"
            }
          ],
          "name": "removePool",
          "outputs": [],
          "stateMutability": "nonpayable",
          "type": "function"
        },
        {
          "inputs": [],
          "name": "renounceOwnership",
          "outputs": [],
          "stateMutability": "nonpayable",
          "type": "function"
        },
        {
          "inputs": [],
          "name": "rewardStable",
          "outputs": [
            {
              "internalType": "address",
              "name": "",
              "type": "address"
            }
          ],
          "stateMutability": "view",
          "type": "function"
        },
        {
          "inputs": [],
          "name": "rewardToken",
          "outputs": [
            {
              "internalType": "address",
              "name": "",
              "type": "address"
            }
          ],
          "stateMutability": "view",
          "type": "function"
        },
        {
          "inputs": [
            {
              "internalType": "address",
              "name": "_newRewardStable",
              "type": "address"
            }
          ],
          "name": "setRewardStable",
          "outputs": [],
          "stateMutability": "nonpayable",
          "type": "function"
        },
        {
          "inputs": [
            {
              "internalType": "address",
              "name": "_newRewardToken",
              "type": "address"
            }
          ],
          "name": "setRewardToken",
          "outputs": [],
          "stateMutability": "nonpayable",
          "type": "function"
        },
        {
          "inputs": [
            {
              "internalType": "uint256",
              "name": "_slippageTolerance",
              "type": "uint256"
            }
          ],
          "name": "setSlippageTolerance",
          "outputs": [],
          "stateMutability": "nonpayable",
          "type": "function"
        },
        {
          "inputs": [],
          "name": "slippageTolerance",
          "outputs": [
            {
              "internalType": "uint256",
              "name": "",
              "type": "uint256"
            }
          ],
          "stateMutability": "view",
          "type": "function"
        },
        {
          "inputs": [
            {
              "internalType": "address",
              "name": "pool",
              "type": "address"
            },
            {
              "internalType": "uint256",
              "name": "tokenId",
              "type": "uint256"
            },
            {
              "components": [
                {
                  "internalType": "address",
                  "name": "token",
                  "type": "address"
                },
                {
                  "internalType": "uint256",
                  "name": "price",
                  "type": "uint256"
                },
                {
                  "internalType": "bytes",
                  "name": "swapPath",
                  "type": "bytes"
                }
              ],
              "internalType": "struct CholoDromeModule.TokenData[]",
              "name": "tokenData",
              "type": "tuple[]"
            }
          ],
          "name": "stakeAndCollect",
          "outputs": [],
          "stateMutability": "nonpayable",
          "type": "function"
        },
        {
          "inputs": [
            {
              "internalType": "address",
              "name": "token",
              "type": "address"
            },
            {
              "internalType": "uint256",
              "name": "amountIn",
              "type": "uint256"
            },
            {
              "internalType": "address",
              "name": "toToken",
              "type": "address"
            },
            {
              "internalType": "bool",
              "name": "isEarning",
              "type": "bool"
            },
            {
              "components": [
                {
                  "internalType": "address",
                  "name": "token",
                  "type": "address"
                },
                {
                  "internalType": "uint256",
                  "name": "price",
                  "type": "uint256"
                },
                {
                  "internalType": "bytes",
                  "name": "swapPath",
                  "type": "bytes"
                }
              ],
              "internalType": "struct CholoDromeModule.TokenData[]",
              "name": "tokenData",
              "type": "tuple[]"
            }
          ],
          "name": "swap",
          "outputs": [],
          "stateMutability": "payable",
          "type": "function"
        },
        {
          "inputs": [
            {
              "internalType": "address",
              "name": "newOwner",
              "type": "address"
            }
          ],
          "name": "transferOwnership",
          "outputs": [],
          "stateMutability": "nonpayable",
          "type": "function"
        },
        {
          "inputs": [],
          "name": "universalRouter",
          "outputs": [
            {
              "internalType": "address",
              "name": "",
              "type": "address"
            }
          ],
          "stateMutability": "view",
          "type": "function"
        },
        {
          "inputs": [
            {
              "internalType": "address",
              "name": "pool",
              "type": "address"
            },
            {
              "internalType": "uint256",
              "name": "tokenId",
              "type": "uint256"
            },
            {
              "components": [
                {
                  "internalType": "address",
                  "name": "token",
                  "type": "address"
                },
                {
                  "internalType": "uint256",
                  "name": "price",
                  "type": "uint256"
                },
                {
                  "internalType": "bytes",
                  "name": "swapPath",
                  "type": "bytes"
                }
              ],
              "internalType": "struct CholoDromeModule.TokenData[]",
              "name": "tokenData",
              "type": "tuple[]"
            }
          ],
          "name": "unstakeAndCollect",
          "outputs": [],
          "stateMutability": "nonpayable",
          "type": "function"
        },
        {
          "inputs": [
            {
              "internalType": "address",
              "name": "pool",
              "type": "address"
            },
            {
              "internalType": "uint256",
              "name": "tokenId",
              "type": "uint256"
            },
            {
              "components": [
                {
                  "internalType": "address",
                  "name": "token",
                  "type": "address"
                },
                {
                  "internalType": "uint256",
                  "name": "price",
                  "type": "uint256"
                },
                {
                  "internalType": "bytes",
                  "name": "swapPath",
                  "type": "bytes"
                }
              ],
              "internalType": "struct CholoDromeModule.TokenData[]",
              "name": "tokenData",
              "type": "tuple[]"
            }
          ],
          "name": "withdrawAndCollect",
          "outputs": [],
          "stateMutability": "nonpayable",
          "type": "function"
        }
      ],
      "evm": {
        "bytecode": {
          "linkReferences": {},
          "object": "60a0346200027a57601f62002f3938819003918201601f191683019291906001600160401b038411838510176200027f578160a092849260409687528339810103126200027a57620000518162000295565b6200005f6020830162000295565b6200006c84840162000295565b92620000896080620000816060840162000295565b920162000295565b936001600160a01b039384169283156200026257600080546001600160a01b0319808216871783559587939290918416907f8be0079c531659141344cd1fd0a4f28419497f9722a3daafe3b4186f6b6457e09080a361012c600455169081156200021e578416918215620001da57841693841562000196578516156200015257826001541617600155816002541617600255600354161760035560805251612c8e9081620002ab82396080518181816111fc015281816120630152818161232401526125f30152f35b855162461bcd60e51b815260206004820152601460248201527f496e76616c6964205745544820616464726573730000000000000000000000006044820152606490fd5b865162461bcd60e51b815260206004820152601360248201527f496e76616c6964207377617020726f75746572000000000000000000000000006044820152606490fd5b865162461bcd60e51b815260206004820152601560248201527f496e76616c69642072657761726420737461626c6500000000000000000000006044820152606490fd5b865162461bcd60e51b815260206004820152601460248201527f496e76616c69642072657761726420746f6b656e0000000000000000000000006044820152606490fd5b8651631e4fbdf760e01b815260006004820152602490fd5b600080fd5b634e487b7160e01b600052604160045260246000fd5b51906001600160a01b03821682036200027a5756fe6080604052600436101561001257600080fd5b60003560e01c8063117da1ee1461183257806327eb9514146116635780632e5f9b401461146757806335a9e4df1461143e5780633b7d0946146113cd578063424c265b14611359578063715018a6146113005780638aee8127146112545780638da5cb5b1461122b578063ad5c4648146111e6578063c13d2f7514611139578063d03153aa1461111b578063d042721914610cc6578063e5faa0b6146107f5578063f0bbcec4146107b6578063f2bf87e31461078d578063f2fde38b14610704578063f7c618c1146106db5763fa3c5a79146100ed57600080fd5b34610368576100fb3661190f565b9060018060a01b038416600052600560205261011e60ff604060002054166119bc565b6040516323e6650160e11b8152936020856004816001600160a01b0385165afa9485156103755760009561069f575b5060405163133f757160e31b8152600481018590526101809586826024816001600160a01b0385165afa80156103755760009260009860009261065f575b505061019633612bca565b6040516329bc672160e21b815260009790969194916020886004816001600160a01b038b165afa801561037557600090610624575b60405163c69deec560e01b8152336004820152602481018c9052985060208980604481015b03816001600160a01b0385165afa988915610375576000996105e8575b5088610558575b5060009a600098156104fc575b505050506001600160801b038116610381575b50602081610246886102869433612a0a565b5050604051630852cd8d60e31b8382015260248082018a905281529061026b82611a12565b60405163468721a760e01b8152938492839260048401611c41565b03816000335af190811561037557600091610336575b501561030357600080516020612c39833981519152936102c76102fe926102c233612bca565b611bd6565b9060405194859460018060a01b0316983398869192608093969594919660a084019784526020840152604083015260608201520152565b0390a3005b60405162461bcd60e51b815260206004820152600b60248201526a109d5c9b8819985a5b195960aa1b6044820152606490fd5b90506020813d60201161036d575b8161035160209383611a48565b810103126103685761036290611a7d565b3861029c565b600080fd5b3d9150610344565b6040513d6000823e3d90fd5b604051908160a08101106001600160401b0360a0840111176104e65760a082016040528782526001600160801b03602083019116815260408201600081526060830190600082526001600160801b03608085019342855260405195630624e65f60e11b6020880152516024870152511660448501525160648401525160848301525160a482015260a4815260e081018181106001600160401b038211176104e657604081905263468721a760e01b815260208160df1984610446818860e48201611c41565b0301816000335af1918215610375576000926104af575b50501561046a5738610234565b60405162461bcd60e51b815260206004820152601960248201527f4465637265617365206c6971756964697479206661696c6564000000000000006044820152606490fd5b6020809293503d83116104df575b6104c78185611a48565b81010312610368576104d890611a7d565b388061045d565b503d6104bd565b634e487b7160e01b600052604160045260246000fd5b91975091995061050d898533612a0a565b90978198809c81610541575b505081156102215761053793610530913691611ae7565b91336128ea565b5038808080610221565b61055091610530368589611ae7565b503880610519565b604051633e491d4760e01b8152336004820152602481018c90529099506020816044816001600160a01b038e165afa8015610375576000906105b4575b6105ae9150998b6105a7368686611ae7565b9133611cb6565b38610214565b506020813d6020116105e0575b816105ce60209383611a48565b81010312610368576105ae9051610595565b3d91506105c1565b9098506020813d60201161061c575b8161060460209383611a48565b810103126103685761061590611a7d565b973861020d565b3d91506105f7565b506020883d602011610657575b8161063e60209383611a48565b81010312610368576106526101f098611a69565b6101cb565b3d9150610631565b91509197506106839250803d10610698575b61067b8183611a48565b810190612967565b505050509b955050505092509196388061018b565b503d610671565b9094506020813d6020116106d3575b816106bb60209383611a48565b81010312610368576106cc90611a69565b933861014d565b3d91506106ae565b34610368576000366003190112610368576001546040516001600160a01b039091168152602090f35b346103685760203660031901126103685761071d6118c9565b610725611955565b6001600160a01b0390811690811561077457600054826001600160601b0360a01b821617600055167f8be0079c531659141344cd1fd0a4f28419497f9722a3daafe3b4186f6b6457e0600080a3005b604051631e4fbdf760e01b815260006004820152602490fd5b34610368576000366003190112610368576002546040516001600160a01b039091168152602090f35b34610368576020366003190112610368576001600160a01b036107d76118c9565b166000526005602052602060ff604060002054166040519015158152f35b34610368576108033661190f565b60018060a01b038094169384600052600560205261082860ff604060002054166119bc565b6040516323e6650160e11b815290602082600481895afa91821561037557600092610c8a575b506040516329bc672160e21b8152906020826004818a5afa91821561037557600092610c4e575b5060405163c69deec560e01b8152336004820152602481018790526020816044818686165afa90811561037557600091610c14575b50610bcf576108b833612bca565b926040519563133f757160e31b87528760048801526101809687816024818787165afa90811561037557600098600092610b9f575b50506108fa898433612a0a565b9781998992610b88575b5081610b6f575b5050505060405163e985e9c560e01b815233600482015282841660248201526020816044818686165afa90811561037557600091610b35575b5015610a40575b50506020610976916040519063b6b55f2560e01b838301528760248301526024825261026b82611a12565b03816000335af190811561037557600091610a06575b50156109d25761099f906102c233612bca565b9160405193845260208401526040830152600060608301526080820152600080516020612c3983398151915260a03392a3005b60405162461bcd60e51b815260206004820152600c60248201526b14dd185ad94819985a5b195960a21b6044820152606490fd5b90506020813d602011610a38575b81610a2160209383611a48565b8101031261036857610a3290611a7d565b8661098c565b3d9150610a14565b6040519163a22cb46560e01b602084015283166024830152600160448301526044825260808201908282106001600160401b038311176104e657816020918160405263468721a760e01b825284610a9e81607f199360848201611c41565b0301816000335af191821561037557600092610afe575b505015610ac357868061094b565b60405162461bcd60e51b815260206004820152601360248201527213919508185c1c1c9bdd985b0819985a5b1959606a1b6044820152606490fd5b6020809293503d8311610b2e575b610b168185611a48565b8101031261036857610b2790611a7d565b8780610ab5565b503d610b0c565b90506020813d602011610b67575b81610b5060209383611a48565b8101031261036857610b6190611a7d565b89610944565b3d9150610b43565b610b7e93610530913691611ae7565b508880868161090b565b610b98908b610530368589611ae7565b508c610904565b610bba93995080919250903d106106985761067b8183611a48565b50505050505050509892509050968a806108ed565b60405162461bcd60e51b815260206004820152601760248201527f506f736974696f6e20616c7265616479207374616b65640000000000000000006044820152606490fd5b90506020813d602011610c46575b81610c2f60209383611a48565b8101031261036857610c4090611a7d565b886108aa565b3d9150610c22565b9091506020813d602011610c82575b81610c6a60209383611a48565b8101031261036857610c7b90611a69565b9087610875565b3d9150610c5d565b9091506020813d602011610cbe575b81610ca660209383611a48565b8101031261036857610cb790611a69565b908661084e565b3d9150610c99565b3461036857610cd43661190f565b9260018060a01b031692836000526005602052610cf860ff604060002054166119bc565b6040516323e6650160e11b815290602082600481885afa918215610375576000926110df575b506040516329bc672160e21b8152602081600481895afa908115610375576000916110a5575b50610d4e33612bca565b60405163c69deec560e01b815233600482015260248101879052909460009485946001600160a01b038516939091908690602081604481895afa9081156103755760009161106b575b5015610f70575050604051633e491d4760e01b81523360048201526024810189905292602090849060449082905afa92831561037557600093610f3c575b50829383610e31575b505050506102fe90610e03600080516020612c39833981519152955b6102c233612bca565b906040519485943398869192608093969594919660a084019784526020840152604083015260608201520152565b6020610e609160409993949695995190631c4b774b60e01b838301528b60248301526024825261026b82611a12565b03816000335af190811561037557600091610f02575b5015610ebd57610eb5610eb0610e0393600080516020612c39833981519152996105306102fe9860018060a01b0360015416933691611ae7565b611c72565b958293610dde565b60405162461bcd60e51b815260206004820152601760248201527f47617567652067657420726577617264206661696c65640000000000000000006044820152606490fd5b90506020813d602011610f34575b81610f1d60209383611a48565b8101031261036857610f2e90611a7d565b8a610e76565b3d9150610f10565b9092506020813d602011610f68575b81610f5860209383611a48565b8101031261036857519189610dd5565b3d9150610f4b565b60405163133f757160e31b8152600481018b90529198929750909550610180945092509083856024816001600160a01b038b165afa801561037557600080516020612c3983398151915297899660009660009361102c575b505090610fdf6102fe9697610e0395949333612a0a565b90988199809981611015575b505081610ffc575b50505050610dfa565b61100b93610530913691611ae7565b5089808080610ff3565b61102491610530368589611ae7565b508d80610feb565b6102fe9750610e0395949350610fdf918161105292903d106106985761067b8183611a48565b50505050505050509a9250905098939495509796610fc8565b90506020813d60201161109d575b8161108660209383611a48565b810103126103685761109790611a7d565b8c610d97565b3d9150611079565b90506020813d6020116110d7575b816110c060209383611a48565b81010312610368576110d190611a69565b86610d44565b3d91506110b3565b9091506020813d602011611113575b816110fb60209383611a48565b810103126103685761110c90611a69565b9085610d1e565b3d91506110ee565b34610368576000366003190112610368576020600454604051908152f35b34610368576020366003190112610368576111526118c9565b61115a611955565b6001600160a01b039081169081156111a957600254826001600160601b0360a01b821617600255167f9d4858dccb76debed7845fd87ec5c769962d072d518c9e34182581abb3e8247c600080a3005b60405162461bcd60e51b8152602060048201526015602482015274496e76616c69642072657761726420737461626c6560581b6044820152606490fd5b34610368576000366003190112610368576040517f00000000000000000000000000000000000000000000000000000000000000006001600160a01b03168152602090f35b34610368576000366003190112610368576000546040516001600160a01b039091168152602090f35b346103685760203660031901126103685761126d6118c9565b611275611955565b6001600160a01b039081169081156112c457600154826001600160601b0360a01b821617600155167f906ff2422a6ffa134f2d7ccaffd446bc0c583a5cb6615749b4b2836942a5fea8600080a3005b60405162461bcd60e51b815260206004820152601460248201527324b73b30b634b2103932bbb0b932103a37b5b2b760611b6044820152606490fd5b3461036857600036600319011261036857611319611955565b600080546001600160a01b0319811682556001600160a01b03167f8be0079c531659141344cd1fd0a4f28419497f9722a3daafe3b4186f6b6457e08280a3005b34610368576020366003190112610368576113726118c9565b61137a611955565b6001600160a01b031661138e811515611981565b6000818152600560205260408120805460ff191660011790557ffc1f1e73948cbc47c5b7f90e5601b7daccd9ad7173218486ccc74bdd051d05e88180a3005b34610368576020366003190112610368576113e66118c9565b6113ee611955565b6001600160a01b0316611402811515611981565b6000818152600560205260408120805460ff191690557f987eb3c2f78454541205f72f34839b434c306c9eaf4922efd7c0c3060fdb2e4c8180a3005b34610368576000366003190112610368576003546040516001600160a01b039091168152602090f35b60a03660031901126103685761147b6118c9565b60243590604435906001600160a01b03821680830361036857606435938415158503610368576084356001600160401b038111610368576114cd6114c66114d39236906004016118df565b3691611ae7565b84611f45565b9290921561161e578061153a5750906114fb936114f3923331943361201d565b503331611bd6565b905b61150357005b600090604051908282528260208301528260408301526060820152816080820152600080516020612c3983398151915260a03392a3005b939290604051926370a0823160e01b9182855233600486015260209384866024818b5afa958615610375576000966115e1575b509561157d92918596973361201d565b5060246040518096819382523360048301525afa908115610375576000916115b1575b506115ab9250611bd6565b906114fd565b905082813d83116115da575b6115c78183611a48565b81010312610368576115ab9151846115a0565b503d6115bd565b92919480965083819892983d8311611617575b6115fe8183611a48565b810103126103685791519195919493909161157d61156d565b503d6115f4565b60405162461bcd60e51b815260206004820152601e60248201527f546f6b656e206e6f7420666f756e6420696e20707269636520617272617900006044820152606490fd5b34610368576116713661190f565b60018060a09593951b0380921693846000526020926005845261169b60ff604060002054166119bc565b6040516329bc672160e21b81529084826004818a5afa918215610375576000926117fb575b5060405163c69deec560e01b815233600482015260248101879052908216908581604481855afa8015610375576000906117c5575b6116ff9150611a8a565b61170833612bca565b604051633e491d4760e01b815233600482015260248101889052909390918690839060449082905afa94851561037557879260009661178b575b5092600094926105a7610dfa9361175a963691611ae7565b926040519485528401526000604084015260608301526080820152600080516020612c3983398151915260a03392a3005b87809297508193959694503d83116117be575b6117a88183611a48565b8101031261036857519390929186916000611742565b503d61179e565b508581813d83116117f4575b6117db8183611a48565b81010312610368576117ef6116ff91611a7d565b6116f5565b503d6117d1565b9091508481813d831161182b575b6118138183611a48565b810103126103685761182490611a69565b90876116c0565b503d611809565b346103685760203660031901126103685760043561184e611955565b6103e881116118905760407fddd31550b26e9ef8ade466958be83ff8a014d9b4f36d546b61a6847a4530657591600454908060045582519182526020820152a1005b60405162461bcd60e51b81526020600482015260116024820152700a6d8d2e0e0c2ceca40e8dede40d0d2ced607b1b6044820152606490fd5b600435906001600160a01b038216820361036857565b9181601f84011215610368578235916001600160401b038311610368576020808501948460051b01011161036857565b6060600319820112610368576004356001600160a01b0381168103610368579160243591604435906001600160401b03821161036857611951916004016118df565b9091565b6000546001600160a01b0316330361196957565b60405163118cdaa760e01b8152336004820152602490fd5b1561198857565b60405162461bcd60e51b815260206004820152600c60248201526b125b9d985b1a59081c1bdbdb60a21b6044820152606490fd5b156119c357565b60405162461bcd60e51b815260206004820152602160248201527f506f6f6c206e6f7420617070726f76656420666f722074686973206d6f64756c6044820152606560f81b6064820152608490fd5b606081019081106001600160401b038211176104e657604052565b604081019081106001600160401b038211176104e657604052565b90601f801991011681019081106001600160401b038211176104e657604052565b51906001600160a01b038216820361036857565b5190811515820361036857565b15611a9157565b60405162461bcd60e51b8152602060048201526013602482015272141bdcda5d1a5bdb881b9bdd081cdd185ad959606a1b6044820152606490fd5b6001600160401b0381116104e657601f01601f191660200190565b929190926001600160401b038085116104e6578460051b60409182519460208096611b1482860182611a48565b8099815201928501948186116103685780935b868510611b38575050505050505050565b84358481116103685782019060608285031261036857865191611b5a83611a12565b80356001600160a01b0381168103610368578352898101358a840152878101359086821161036857019084601f8301121561036857813592611b9b84611acc565b611ba78a519182611a48565b848152868c86860101116103685760008c86819782809801838601378301015289820152815201940193611b27565b91908203918211611be357565b634e487b7160e01b600052601160045260246000fd5b60005b838110611c0c5750506000910152565b8181015183820152602001611bfc565b90602091611c3581518092818552858086019101611bf9565b601f01601f1916010190565b9291611c6d60609160009360018060a01b03168652836020870152608060408701526080860190611c1c565b930152565b15611c7957565b60405162461bcd60e51b815260206004820152601560248201527414ddd85c081d1bc81cdd18589b194819985a5b1959605a1b6044820152606490fd5b926001600160a01b03929091838116918215611ed9576040805163c69deec560e01b81528688166001600160a01b038116600483015260248201849052602094929392909185816044818a5afa8015611ece57600090611e98575b611d1b9150611a8a565b8351633e491d4760e01b81526001600160a01b038316600482015260248101849052958590879060449082905afa958615611e8d57600096611e5e575b50918491611d9e93855192632e1a7d4d60e01b85850152602484015260248352611d8183611a12565b6000865180968195829463468721a760e01b845260048401611c41565b03925af1908115611e5357600091611e1b575b5015611de057505080611dc5575b50505050565b611dd793610eb09360015416906128ea565b38808080611dbf565b60649250519062461bcd60e51b82526004820152601560248201527411d85d59d9481dda5d1a191c985dc819985a5b1959605a1b6044820152fd5b908382813d8311611e4c575b611e318183611a48565b81010312611e495750611e4390611a7d565b38611db1565b80fd5b503d611e27565b82513d6000823e3d90fd5b90958582813d8311611e86575b611e758183611a48565b81010312611e495750519484611d58565b503d611e6b565b84513d6000823e3d90fd5b8682813d8311611ec7575b611ead8183611a48565b81010312611e495750611ec2611d1b91611a7d565b611d11565b503d611ea3565b85513d6000823e3d90fd5b60405162461bcd60e51b815260206004820152600d60248201526c496e76616c696420676175676560981b6044820152606490fd5b805115611f1b5760200190565b634e487b7160e01b600052603260045260246000fd5b8051821015611f1b5760209160051b010190565b9091604092835192611f5684611a12565b6060856000958681528660208201520152835b8251811015611fca576001600160a01b0380611f858386611f31565b51511690831614611fb5576000198114611fa157600101611f69565b634e487b7160e01b85526011600452602485fd5b92945050611fc39250611f31565b5190600190565b5050509091805190611fdb82611a12565b838252836020830152805190602082018281106001600160401b038211176120095781528482528201529190565b634e487b7160e01b86526041600452602486fd5b9391906001600160a01b0381166126f25750803403612698576040516020630d0e30db60e41b818301526004825261205482611a2d565b60405163468721a760e01b81527f00000000000000000000000000000000000000000000000000000000000000006001600160a01b03811660048301526024820185905260806044830152926120ae906084830190611c1c565b9082818060009485606483015203818560018060a01b038d165af191821561268c578092612654575b50501561261a5750925b6000936001600160a01b038216156125ee575b6001600160a01b03818116908316146125a95760035460405163095ea7b360e01b6020808301919091526001600160a01b039092166024820152604480820186905281526121639190612148606482611a48565b6040518093819263468721a760e01b83528660048401611c41565b038160006001600160a01b038c165af19081156103755760009161256f575b5015612533576121949183859261277d565b916121f560408051926121a684611a2d565b60018452600060208501520151926121e760405194859260018060a01b038a16602085015260408401526060968784015260808084015260a0830190611c1c565b03601f198101845283611a48565b6040519161220283611a2d565b6001835260005b60208110612523575061221b83611f0e565b5261222582611f0e565b506104b042014211611be3576122559060405193630d64d59360e21b602086015260248501526084840190611c1c565b602319838203016044840152815180825260208201916020808360051b8301019401926000915b8383106124f6575050505050816122ab6122d2936020936104b04201606483015203601f198101835282611a48565b60035460405163468721a760e01b815293849283926001600160a01b031660048401611c41565b038160006001600160a01b0388165af1908115610375576000916124bc575b501561247f57612302575b50600190565b6040516370a0823160e01b81526001600160a01b0380831660048301529091907f0000000000000000000000000000000000000000000000000000000000000000906020908490602490829085165afa9283156103755760009361244a575b50916020916123aa9360405192632e1a7d4d60e01b8585015260248401526024835261238c83611a12565b600060405180968195829463468721a760e01b845260048401611c41565b03926001600160a01b03165af190811561037557600091612410575b50156123d257386122fc565b60405162461bcd60e51b815260206004820152601660248201527515d15512081d5b9ddc985c1c1a5b99c819985a5b195960521b6044820152606490fd5b906020823d602011612442575b8161242a60209383611a48565b81010312611e49575061243c90611a7d565b386123c6565b3d915061241d565b90926020823d602011612477575b8161246560209383611a48565b81010312611e49575051916020612361565b3d9150612458565b60405162461bcd60e51b815260206004820152601560248201527414ddd85c08195e1958dd5d1a5bdb8819985a5b1959605a1b6044820152606490fd5b906020823d6020116124ee575b816124d660209383611a48565b81010312611e4957506124e890611a7d565b386122f1565b3d91506124c9565b9091929394602080612514600193601f198682030187528951611c1c565b9701930193019193929061227c565b8085602080938701015201612209565b60405162461bcd60e51b8152602060048201526014602482015273151bdad95b88185c1c1c9bdd994819985a5b195960621b6044820152606490fd5b906020823d6020116125a1575b8161258960209383611a48565b81010312611e49575061259b90611a7d565b38612182565b3d915061257c565b60405162461bcd60e51b815260206004820152601960248201527f43616e6e6f74207377617020746f2073616d6520746f6b656e000000000000006044820152606490fd5b9350507f00000000000000000000000000000000000000000000000000000000000000006001936120f4565b6064906040519062461bcd60e51b825260048201526013602482015272115512081ddc985c1c1a5b99c819985a5b1959606a1b6044820152fd5b9091508282813d8311612685575b61266c8183611a48565b81010312611e49575061267e90611a7d565b38806120d7565b503d612662565b604051903d90823e3d90fd5b60405162461bcd60e51b815260206004820152602c60248201527f4d73672e76616c7565206d75737420657175616c20616d6f756e74496e20666f60448201526b0e440dcc2e8d2ecca408aa8960a31b6064820152608490fd5b9234156120e15760405162461bcd60e51b815260206004820152603260248201527f4e6f204554482073686f756c642062652073656e74207768656e20746f6b656e604482015271040d2e640dcdee840dcc2e8d2ecca408aa8960731b6064820152608490fd5b60ff16604d8111611be357600a0a90565b81810292918115918404141715611be357565b9092916001600160a01b03918282169083168082146128e25785156128d7571561289c57158015612897575b61288c575b60209060046040518094819363313ce56760e01b8352165afa9081156103755760009161284c575b50906020015190601260ff6127ea83612759565b92160160ff8111611be3576128109261280561280b92612759565b9461276a565b61276a565b8115612836576004549161271092830390838211611be357612832920461276a565b0490565b634e487b7160e01b600052601260045260246000fd5b6020813d8211612884575b8161286460209383611a48565b8101031261288057519060ff82168203611e49575060206127d6565b5080fd5b3d9150612857565b5060025481166127ae565b6127a9565b60405162461bcd60e51b815260206004820152601360248201527224b73b30b634b21034b7383aba103a37b5b2b760691b6044820152606490fd5b505050505050600090565b505050505090565b929091801561293c576002546001600160a01b03908116929084168314612932576129159084611f45565b939093612926575050505050600190565b61292f9461201d565b90565b5050505050600190565b50505050600190565b51908160020b820361036857565b51906001600160801b038216820361036857565b9190826101809103126103685781516001600160601b0381168103610368579161299360208201611a69565b916129a060408301611a69565b916129ad60608201611a69565b916129ba60808301612945565b916129c760a08201612945565b916129d460c08301612945565b916129e160e08201612953565b91610100820151916101208101519161292f610160612a036101408501612953565b9301612953565b60408051939092916001600160401b03916001600160a01b03918216919060808701848111888210176104e6578652865260208601828152858701916001600160801b0392839182825260608a019383855289519a63fc6f786560e01b60208d01525160248c0152511660448a015251166064880152511660848601526084855260c0850192858410838511176104e657838092818752635229073f60e01b82526000958680948a612ac38160bf199360c48201611c41565b0301925af1948515612bc05783928496612b2e575b50505015612af9578183805181010312611e49575060208201519101519091565b815162461bcd60e51b815260206004820152600e60248201526d10dbdb1b1958dd0819985a5b195960921b6044820152606490fd5b91955091503d8084873e612b428187611a48565b820194848360c08801970312612bb857612b5b90611a7d565b9160e0810151918211612bb857018460df82011215612bbc5760c081015190612b8382611acc565b95612b9086519788611a48565b82875260e08383010111612bb85790612bb09160e0602088019101611bf9565b388080612ad8565b8380fd5b8280fd5b84513d85823e3d90fd5b6002546040516370a0823160e01b81526001600160a01b0392831660048201529160209183916024918391165afa90811561037557600091612c0a575090565b906020823d8211612c30575b81612c2360209383611a48565b81010312611e4957505190565b3d9150612c1656fec457dabb1cd0422f2d4ee0e35bed2d324c897ff52ca6d0033a86d6a43ce80502a26469706673582212201718ddcadb27c2126c88f35c5b4938ab75df92b6f00928f58781d18114141d1164736f6c63430008140033",
          "opcodes": "PUSH1 0xA0 CALLVALUE PUSH3 0x27A JUMPI PUSH1 0x1F PUSH3 0x2F39 CODESIZE DUP2 SWAP1 SUB SWAP2 DUP3 ADD PUSH1 0x1F NOT AND DUP4 ADD SWAP3 SWAP2 SWAP1 PUSH1 0x1 PUSH1 0x1 PUSH1 0x40 SHL SUB DUP5 GT DUP4 DUP6 LT OR PUSH3 0x27F JUMPI DUP2 PUSH1 0xA0 SWAP3 DUP5 SWAP3 PUSH1 0x40 SWAP7 DUP8 MSTORE DUP4 CODECOPY DUP2 ADD SUB SLT PUSH3 0x27A JUMPI PUSH3 0x51 DUP2 PUSH3 0x295 JUMP JUMPDEST PUSH3 0x5F PUSH1 0x20 DUP4 ADD PUSH3 0x295 JUMP JUMPDEST PUSH3 0x6C DUP5 DUP5 ADD PUSH3 0x295 JUMP JUMPDEST SWAP3 PUSH3 0x89 PUSH1 0x80 PUSH3 0x81 PUSH1 0x60 DUP5 ADD PUSH3 0x295 JUMP JUMPDEST SWAP3 ADD PUSH3 0x295 JUMP JUMPDEST SWAP4 PUSH1 0x1 PUSH1 0x1 PUSH1 0xA0 SHL SUB SWAP4 DUP5 AND SWAP3 DUP4 ISZERO PUSH3 0x262 JUMPI PUSH1 0x0 DUP1 SLOAD PUSH1 0x1 PUSH1 0x1 PUSH1 0xA0 SHL SUB NOT DUP1 DUP3 AND DUP8 OR DUP4 SSTORE SWAP6 DUP8 SWAP4 SWAP3 SWAP1 SWAP2 DUP5 AND SWAP1 PUSH32 0x8BE0079C531659141344CD1FD0A4F28419497F9722A3DAAFE3B4186F6B6457E0 SWAP1 DUP1 LOG3 PUSH2 0x12C PUSH1 0x4 SSTORE AND SWAP1 DUP2 ISZERO PUSH3 0x21E JUMPI DUP5 AND SWAP2 DUP3 ISZERO PUSH3 0x1DA JUMPI DUP5 AND SWAP4 DUP5 ISZERO PUSH3 0x196 JUMPI DUP6 AND ISZERO PUSH3 0x152 JUMPI DUP3 PUSH1 0x1 SLOAD AND OR PUSH1 0x1 SSTORE DUP2 PUSH1 0x2 SLOAD AND OR PUSH1 0x2 SSTORE PUSH1 0x3 SLOAD AND OR PUSH1 0x3 SSTORE PUSH1 0x80 MSTORE MLOAD PUSH2 0x2C8E SWAP1 DUP2 PUSH3 0x2AB DUP3 CODECOPY PUSH1 0x80 MLOAD DUP2 DUP2 DUP2 PUSH2 0x11FC ADD MSTORE DUP2 DUP2 PUSH2 0x2063 ADD MSTORE DUP2 DUP2 PUSH2 0x2324 ADD MSTORE PUSH2 0x25F3 ADD MSTORE RETURN JUMPDEST DUP6 MLOAD PUSH3 0x461BCD PUSH1 0xE5 SHL DUP2 MSTORE PUSH1 0x20 PUSH1 0x4 DUP3 ADD MSTORE PUSH1 0x14 PUSH1 0x24 DUP3 ADD MSTORE PUSH32 0x496E76616C696420574554482061646472657373000000000000000000000000 PUSH1 0x44 DUP3 ADD MSTORE PUSH1 0x64 SWAP1 REVERT JUMPDEST DUP7 MLOAD PUSH3 0x461BCD PUSH1 0xE5 SHL DUP2 MSTORE PUSH1 0x20 PUSH1 0x4 DUP3 ADD MSTORE PUSH1 0x13 PUSH1 0x24 DUP3 ADD MSTORE PUSH32 0x496E76616C6964207377617020726F7574657200000000000000000000000000 PUSH1 0x44 DUP3 ADD MSTORE PUSH1 0x64 SWAP1 REVERT JUMPDEST DUP7 MLOAD PUSH3 0x461BCD PUSH1 0xE5 SHL DUP2 MSTORE PUSH1 0x20 PUSH1 0x4 DUP3 ADD MSTORE PUSH1 0x15 PUSH1 0x24 DUP3 ADD MSTORE PUSH32 0x496E76616C69642072657761726420737461626C650000000000000000000000 PUSH1 0x44 DUP3 ADD MSTORE PUSH1 0x64 SWAP1 REVERT JUMPDEST DUP7 MLOAD PUSH3 0x461BCD PUSH1 0xE5 SHL DUP2 MSTORE PUSH1 0x20 PUSH1 0x4 DUP3 ADD MSTORE PUSH1 0x14 PUSH1 0x24 DUP3 ADD MSTORE PUSH32 0x496E76616C69642072657761726420746F6B656E000000000000000000000000 PUSH1 0x44 DUP3 ADD MSTORE PUSH1 0x64 SWAP1 REVERT JUMPDEST DUP7 MLOAD PUSH4 0x1E4FBDF7 PUSH1 0xE0 SHL DUP2 MSTORE PUSH1 0x0 PUSH1 0x4 DUP3 ADD MSTORE PUSH1 0x24 SWAP1 REVERT JUMPDEST PUSH1 0x0 DUP1 REVERT JUMPDEST PUSH4 0x4E487B71 PUSH1 0xE0 SHL PUSH1 0x0 MSTORE PUSH1 0x41 PUSH1 0x4 MSTORE PUSH1 0x24 PUSH1 0x0 REVERT JUMPDEST MLOAD SWAP1 PUSH1 0x1 PUSH1 0x1 PUSH1 0xA0 SHL SUB DUP3 AND DUP3 SUB PUSH3 0x27A JUMPI JUMP INVALID PUSH1 0x80 PUSH1 0x40 MSTORE PUSH1 0x4 CALLDATASIZE LT ISZERO PUSH2 0x12 JUMPI PUSH1 0x0 DUP1 REVERT JUMPDEST PUSH1 0x0 CALLDATALOAD PUSH1 0xE0 SHR DUP1 PUSH4 0x117DA1EE EQ PUSH2 0x1832 JUMPI DUP1 PUSH4 0x27EB9514 EQ PUSH2 0x1663 JUMPI DUP1 PUSH4 0x2E5F9B40 EQ PUSH2 0x1467 JUMPI DUP1 PUSH4 0x35A9E4DF EQ PUSH2 0x143E JUMPI DUP1 PUSH4 0x3B7D0946 EQ PUSH2 0x13CD JUMPI DUP1 PUSH4 0x424C265B EQ PUSH2 0x1359 JUMPI DUP1 PUSH4 0x715018A6 EQ PUSH2 0x1300 JUMPI DUP1 PUSH4 0x8AEE8127 EQ PUSH2 0x1254 JUMPI DUP1 PUSH4 0x8DA5CB5B EQ PUSH2 0x122B JUMPI DUP1 PUSH4 0xAD5C4648 EQ PUSH2 0x11E6 JUMPI DUP1 PUSH4 0xC13D2F75 EQ PUSH2 0x1139 JUMPI DUP1 PUSH4 0xD03153AA EQ PUSH2 0x111B JUMPI DUP1 PUSH4 0xD0427219 EQ PUSH2 0xCC6 JUMPI DUP1 PUSH4 0xE5FAA0B6 EQ PUSH2 0x7F5 JUMPI DUP1 PUSH4 0xF0BBCEC4 EQ PUSH2 0x7B6 JUMPI DUP1 PUSH4 0xF2BF87E3 EQ PUSH2 0x78D JUMPI DUP1 PUSH4 0xF2FDE38B EQ PUSH2 0x704 JUMPI DUP1 PUSH4 0xF7C618C1 EQ PUSH2 0x6DB JUMPI PUSH4 0xFA3C5A79 EQ PUSH2 0xED JUMPI PUSH1 0x0 DUP1 REVERT JUMPDEST CALLVALUE PUSH2 0x368 JUMPI PUSH2 0xFB CALLDATASIZE PUSH2 0x190F JUMP JUMPDEST SWAP1 PUSH1 0x1 DUP1 PUSH1 0xA0 SHL SUB DUP5 AND PUSH1 0x0 MSTORE PUSH1 0x5 PUSH1 0x20 MSTORE PUSH2 0x11E PUSH1 0xFF PUSH1 0x40 PUSH1 0x0 KECCAK256 SLOAD AND PUSH2 0x19BC JUMP JUMPDEST PUSH1 0x40 MLOAD PUSH4 0x23E66501 PUSH1 0xE1 SHL DUP2 MSTORE SWAP4 PUSH1 0x20 DUP6 PUSH1 0x4 DUP2 PUSH1 0x1 PUSH1 0x1 PUSH1 0xA0 SHL SUB DUP6 AND GAS STATICCALL SWAP5 DUP6 ISZERO PUSH2 0x375 JUMPI PUSH1 0x0 SWAP6 PUSH2 0x69F JUMPI JUMPDEST POP PUSH1 0x40 MLOAD PUSH4 0x133F7571 PUSH1 0xE3 SHL DUP2 MSTORE PUSH1 0x4 DUP2 ADD DUP6 SWAP1 MSTORE PUSH2 0x180 SWAP6 DUP7 DUP3 PUSH1 0x24 DUP2 PUSH1 0x1 PUSH1 0x1 PUSH1 0xA0 SHL SUB DUP6 AND GAS STATICCALL DUP1 ISZERO PUSH2 0x375 JUMPI PUSH1 0x0 SWAP3 PUSH1 0x0 SWAP9 PUSH1 0x0 SWAP3 PUSH2 0x65F JUMPI JUMPDEST POP POP PUSH2 0x196 CALLER PUSH2 0x2BCA JUMP JUMPDEST PUSH1 0x40 MLOAD PUSH4 0x29BC6721 PUSH1 0xE2 SHL DUP2 MSTORE PUSH1 0x0 SWAP8 SWAP1 SWAP7 SWAP2 SWAP5 SWAP2 PUSH1 0x20 DUP9 PUSH1 0x4 DUP2 PUSH1 0x1 PUSH1 0x1 PUSH1 0xA0 SHL SUB DUP12 AND GAS STATICCALL DUP1 ISZERO PUSH2 0x375 JUMPI PUSH1 0x0 SWAP1 PUSH2 0x624 JUMPI JUMPDEST PUSH1 0x40 MLOAD PUSH4 0xC69DEEC5 PUSH1 0xE0 SHL DUP2 MSTORE CALLER PUSH1 0x4 DUP3 ADD MSTORE PUSH1 0x24 DUP2 ADD DUP13 SWAP1 MSTORE SWAP9 POP PUSH1 0x20 DUP10 DUP1 PUSH1 0x44 DUP2 ADD JUMPDEST SUB DUP2 PUSH1 0x1 PUSH1 0x1 PUSH1 0xA0 SHL SUB DUP6 AND GAS STATICCALL SWAP9 DUP10 ISZERO PUSH2 0x375 JUMPI PUSH1 0x0 SWAP10 PUSH2 0x5E8 JUMPI JUMPDEST POP DUP9 PUSH2 0x558 JUMPI JUMPDEST POP PUSH1 0x0 SWAP11 PUSH1 0x0 SWAP9 ISZERO PUSH2 0x4FC JUMPI JUMPDEST POP POP POP POP PUSH1 0x1 PUSH1 0x1 PUSH1 0x80 SHL SUB DUP2 AND PUSH2 0x381 JUMPI JUMPDEST POP PUSH1 0x20 DUP2 PUSH2 0x246 DUP9 PUSH2 0x286 SWAP5 CALLER PUSH2 0x2A0A JUMP JUMPDEST POP POP PUSH1 0x40 MLOAD PUSH4 0x852CD8D PUSH1 0xE3 SHL DUP4 DUP3 ADD MSTORE PUSH1 0x24 DUP1 DUP3 ADD DUP11 SWAP1 MSTORE DUP2 MSTORE SWAP1 PUSH2 0x26B DUP3 PUSH2 0x1A12 JUMP JUMPDEST PUSH1 0x40 MLOAD PUSH4 0x468721A7 PUSH1 0xE0 SHL DUP2 MSTORE SWAP4 DUP5 SWAP3 DUP4 SWAP3 PUSH1 0x4 DUP5 ADD PUSH2 0x1C41 JUMP JUMPDEST SUB DUP2 PUSH1 0x0 CALLER GAS CALL SWAP1 DUP2 ISZERO PUSH2 0x375 JUMPI PUSH1 0x0 SWAP2 PUSH2 0x336 JUMPI JUMPDEST POP ISZERO PUSH2 0x303 JUMPI PUSH1 0x0 DUP1 MLOAD PUSH1 0x20 PUSH2 0x2C39 DUP4 CODECOPY DUP2 MLOAD SWAP2 MSTORE SWAP4 PUSH2 0x2C7 PUSH2 0x2FE SWAP3 PUSH2 0x2C2 CALLER PUSH2 0x2BCA JUMP JUMPDEST PUSH2 0x1BD6 JUMP JUMPDEST SWAP1 PUSH1 0x40 MLOAD SWAP5 DUP6 SWAP5 PUSH1 0x1 DUP1 PUSH1 0xA0 SHL SUB AND SWAP9 CALLER SWAP9 DUP7 SWAP2 SWAP3 PUSH1 0x80 SWAP4 SWAP7 SWAP6 SWAP5 SWAP2 SWAP7 PUSH1 0xA0 DUP5 ADD SWAP8 DUP5 MSTORE PUSH1 0x20 DUP5 ADD MSTORE PUSH1 0x40 DUP4 ADD MSTORE PUSH1 0x60 DUP3 ADD MSTORE ADD MSTORE JUMP JUMPDEST SUB SWAP1 LOG3 STOP JUMPDEST PUSH1 0x40 MLOAD PUSH3 0x461BCD PUSH1 0xE5 SHL DUP2 MSTORE PUSH1 0x20 PUSH1 0x4 DUP3 ADD MSTORE PUSH1 0xB PUSH1 0x24 DUP3 ADD MSTORE PUSH11 0x109D5C9B8819985A5B1959 PUSH1 0xAA SHL PUSH1 0x44 DUP3 ADD MSTORE PUSH1 0x64 SWAP1 REVERT JUMPDEST SWAP1 POP PUSH1 0x20 DUP2 RETURNDATASIZE PUSH1 0x20 GT PUSH2 0x36D JUMPI JUMPDEST DUP2 PUSH2 0x351 PUSH1 0x20 SWAP4 DUP4 PUSH2 0x1A48 JUMP JUMPDEST DUP2 ADD SUB SLT PUSH2 0x368 JUMPI PUSH2 0x362 SWAP1 PUSH2 0x1A7D JUMP JUMPDEST CODESIZE PUSH2 0x29C JUMP JUMPDEST PUSH1 0x0 DUP1 REVERT JUMPDEST RETURNDATASIZE SWAP2 POP PUSH2 0x344 JUMP JUMPDEST PUSH1 0x40 MLOAD RETURNDATASIZE PUSH1 0x0 DUP3 RETURNDATACOPY RETURNDATASIZE SWAP1 REVERT JUMPDEST PUSH1 0x40 MLOAD SWAP1 DUP2 PUSH1 0xA0 DUP2 ADD LT PUSH1 0x1 PUSH1 0x1 PUSH1 0x40 SHL SUB PUSH1 0xA0 DUP5 ADD GT OR PUSH2 0x4E6 JUMPI PUSH1 0xA0 DUP3 ADD PUSH1 0x40 MSTORE DUP8 DUP3 MSTORE PUSH1 0x1 PUSH1 0x1 PUSH1 0x80 SHL SUB PUSH1 0x20 DUP4 ADD SWAP2 AND DUP2 MSTORE PUSH1 0x40 DUP3 ADD PUSH1 0x0 DUP2 MSTORE PUSH1 0x60 DUP4 ADD SWAP1 PUSH1 0x0 DUP3 MSTORE PUSH1 0x1 PUSH1 0x1 PUSH1 0x80 SHL SUB PUSH1 0x80 DUP6 ADD SWAP4 TIMESTAMP DUP6 MSTORE PUSH1 0x40 MLOAD SWAP6 PUSH4 0x624E65F PUSH1 0xE1 SHL PUSH1 0x20 DUP9 ADD MSTORE MLOAD PUSH1 0x24 DUP8 ADD MSTORE MLOAD AND PUSH1 0x44 DUP6 ADD MSTORE MLOAD PUSH1 0x64 DUP5 ADD MSTORE MLOAD PUSH1 0x84 DUP4 ADD MSTORE MLOAD PUSH1 0xA4 DUP3 ADD MSTORE PUSH1 0xA4 DUP2 MSTORE PUSH1 0xE0 DUP2 ADD DUP2 DUP2 LT PUSH1 0x1 PUSH1 0x1 PUSH1 0x40 SHL SUB DUP3 GT OR PUSH2 0x4E6 JUMPI PUSH1 0x40 DUP2 SWAP1 MSTORE PUSH4 0x468721A7 PUSH1 0xE0 SHL DUP2 MSTORE PUSH1 0x20 DUP2 PUSH1 0xDF NOT DUP5 PUSH2 0x446 DUP2 DUP9 PUSH1 0xE4 DUP3 ADD PUSH2 0x1C41 JUMP JUMPDEST SUB ADD DUP2 PUSH1 0x0 CALLER GAS CALL SWAP2 DUP3 ISZERO PUSH2 0x375 JUMPI PUSH1 0x0 SWAP3 PUSH2 0x4AF JUMPI JUMPDEST POP POP ISZERO PUSH2 0x46A JUMPI CODESIZE PUSH2 0x234 JUMP JUMPDEST PUSH1 0x40 MLOAD PUSH3 0x461BCD PUSH1 0xE5 SHL DUP2 MSTORE PUSH1 0x20 PUSH1 0x4 DUP3 ADD MSTORE PUSH1 0x19 PUSH1 0x24 DUP3 ADD MSTORE PUSH32 0x4465637265617365206C6971756964697479206661696C656400000000000000 PUSH1 0x44 DUP3 ADD MSTORE PUSH1 0x64 SWAP1 REVERT JUMPDEST PUSH1 0x20 DUP1 SWAP3 SWAP4 POP RETURNDATASIZE DUP4 GT PUSH2 0x4DF JUMPI JUMPDEST PUSH2 0x4C7 DUP2 DUP6 PUSH2 0x1A48 JUMP JUMPDEST DUP2 ADD SUB SLT PUSH2 0x368 JUMPI PUSH2 0x4D8 SWAP1 PUSH2 0x1A7D JUMP JUMPDEST CODESIZE DUP1 PUSH2 0x45D JUMP JUMPDEST POP RETURNDATASIZE PUSH2 0x4BD JUMP JUMPDEST PUSH4 0x4E487B71 PUSH1 0xE0 SHL PUSH1 0x0 MSTORE PUSH1 0x41 PUSH1 0x4 MSTORE PUSH1 0x24 PUSH1 0x0 REVERT JUMPDEST SWAP2 SWAP8 POP SWAP2 SWAP10 POP PUSH2 0x50D DUP10 DUP6 CALLER PUSH2 0x2A0A JUMP JUMPDEST SWAP1 SWAP8 DUP2 SWAP9 DUP1 SWAP13 DUP2 PUSH2 0x541 JUMPI JUMPDEST POP POP DUP2 ISZERO PUSH2 0x221 JUMPI PUSH2 0x537 SWAP4 PUSH2 0x530 SWAP2 CALLDATASIZE SWAP2 PUSH2 0x1AE7 JUMP JUMPDEST SWAP2 CALLER PUSH2 0x28EA JUMP JUMPDEST POP CODESIZE DUP1 DUP1 DUP1 PUSH2 0x221 JUMP JUMPDEST PUSH2 0x550 SWAP2 PUSH2 0x530 CALLDATASIZE DUP6 DUP10 PUSH2 0x1AE7 JUMP JUMPDEST POP CODESIZE DUP1 PUSH2 0x519 JUMP JUMPDEST PUSH1 0x40 MLOAD PUSH4 0x3E491D47 PUSH1 0xE0 SHL DUP2 MSTORE CALLER PUSH1 0x4 DUP3 ADD MSTORE PUSH1 0x24 DUP2 ADD DUP13 SWAP1 MSTORE SWAP1 SWAP10 POP PUSH1 0x20 DUP2 PUSH1 0x44 DUP2 PUSH1 0x1 PUSH1 0x1 PUSH1 0xA0 SHL SUB DUP15 AND GAS STATICCALL DUP1 ISZERO PUSH2 0x375 JUMPI PUSH1 0x0 SWAP1 PUSH2 0x5B4 JUMPI JUMPDEST PUSH2 0x5AE SWAP2 POP SWAP10 DUP12 PUSH2 0x5A7 CALLDATASIZE DUP7 DUP7 PUSH2 0x1AE7 JUMP JUMPDEST SWAP2 CALLER PUSH2 0x1CB6 JUMP JUMPDEST CODESIZE PUSH2 0x214 JUMP JUMPDEST POP PUSH1 0x20 DUP2 RETURNDATASIZE PUSH1 0x20 GT PUSH2 0x5E0 JUMPI JUMPDEST DUP2 PUSH2 0x5CE PUSH1 0x20 SWAP4 DUP4 PUSH2 0x1A48 JUMP JUMPDEST DUP2 ADD SUB SLT PUSH2 0x368 JUMPI PUSH2 0x5AE SWAP1 MLOAD PUSH2 0x595 JUMP JUMPDEST RETURNDATASIZE SWAP2 POP PUSH2 0x5C1 JUMP JUMPDEST SWAP1 SWAP9 POP PUSH1 0x20 DUP2 RETURNDATASIZE PUSH1 0x20 GT PUSH2 0x61C JUMPI JUMPDEST DUP2 PUSH2 0x604 PUSH1 0x20 SWAP4 DUP4 PUSH2 0x1A48 JUMP JUMPDEST DUP2 ADD SUB SLT PUSH2 0x368 JUMPI PUSH2 0x615 SWAP1 PUSH2 0x1A7D JUMP JUMPDEST SWAP8 CODESIZE PUSH2 0x20D JUMP JUMPDEST RETURNDATASIZE SWAP2 POP PUSH2 0x5F7 JUMP JUMPDEST POP PUSH1 0x20 DUP9 RETURNDATASIZE PUSH1 0x20 GT PUSH2 0x657 JUMPI JUMPDEST DUP2 PUSH2 0x63E PUSH1 0x20 SWAP4 DUP4 PUSH2 0x1A48 JUMP JUMPDEST DUP2 ADD SUB SLT PUSH2 0x368 JUMPI PUSH2 0x652 PUSH2 0x1F0 SWAP9 PUSH2 0x1A69 JUMP JUMPDEST PUSH2 0x1CB JUMP JUMPDEST RETURNDATASIZE SWAP2 POP PUSH2 0x631 JUMP JUMPDEST SWAP2 POP SWAP2 SWAP8 POP PUSH2 0x683 SWAP3 POP DUP1 RETURNDATASIZE LT PUSH2 0x698 JUMPI JUMPDEST PUSH2 0x67B DUP2 DUP4 PUSH2 0x1A48 JUMP JUMPDEST DUP2 ADD SWAP1 PUSH2 0x2967 JUMP JUMPDEST POP POP POP POP SWAP12 SWAP6 POP POP POP POP SWAP3 POP SWAP2 SWAP7 CODESIZE DUP1 PUSH2 0x18B JUMP JUMPDEST POP RETURNDATASIZE PUSH2 0x671 JUMP JUMPDEST SWAP1 SWAP5 POP PUSH1 0x20 DUP2 RETURNDATASIZE PUSH1 0x20 GT PUSH2 0x6D3 JUMPI JUMPDEST DUP2 PUSH2 0x6BB PUSH1 0x20 SWAP4 DUP4 PUSH2 0x1A48 JUMP JUMPDEST DUP2 ADD SUB SLT PUSH2 0x368 JUMPI PUSH2 0x6CC SWAP1 PUSH2 0x1A69 JUMP JUMPDEST SWAP4 CODESIZE PUSH2 0x14D JUMP JUMPDEST RETURNDATASIZE SWAP2 POP PUSH2 0x6AE JUMP JUMPDEST CALLVALUE PUSH2 0x368 JUMPI PUSH1 0x0 CALLDATASIZE PUSH1 0x3 NOT ADD SLT PUSH2 0x368 JUMPI PUSH1 0x1 SLOAD PUSH1 0x40 MLOAD PUSH1 0x1 PUSH1 0x1 PUSH1 0xA0 SHL SUB SWAP1 SWAP2 AND DUP2 MSTORE PUSH1 0x20 SWAP1 RETURN JUMPDEST CALLVALUE PUSH2 0x368 JUMPI PUSH1 0x20 CALLDATASIZE PUSH1 0x3 NOT ADD SLT PUSH2 0x368 JUMPI PUSH2 0x71D PUSH2 0x18C9 JUMP JUMPDEST PUSH2 0x725 PUSH2 0x1955 JUMP JUMPDEST PUSH1 0x1 PUSH1 0x1 PUSH1 0xA0 SHL SUB SWAP1 DUP2 AND SWAP1 DUP2 ISZERO PUSH2 0x774 JUMPI PUSH1 0x0 SLOAD DUP3 PUSH1 0x1 PUSH1 0x1 PUSH1 0x60 SHL SUB PUSH1 0xA0 SHL DUP3 AND OR PUSH1 0x0 SSTORE AND PUSH32 0x8BE0079C531659141344CD1FD0A4F28419497F9722A3DAAFE3B4186F6B6457E0 PUSH1 0x0 DUP1 LOG3 STOP JUMPDEST PUSH1 0x40 MLOAD PUSH4 0x1E4FBDF7 PUSH1 0xE0 SHL DUP2 MSTORE PUSH1 0x0 PUSH1 0x4 DUP3 ADD MSTORE PUSH1 0x24 SWAP1 REVERT JUMPDEST CALLVALUE PUSH2 0x368 JUMPI PUSH1 0x0 CALLDATASIZE PUSH1 0x3 NOT ADD SLT PUSH2 0x368 JUMPI PUSH1 0x2 SLOAD PUSH1 0x40 MLOAD PUSH1 0x1 PUSH1 0x1 PUSH1 0xA0 SHL SUB SWAP1 SWAP2 AND DUP2 MSTORE PUSH1 0x20 SWAP1 RETURN JUMPDEST CALLVALUE PUSH2 0x368 JUMPI PUSH1 0x20 CALLDATASIZE PUSH1 0x3 NOT ADD SLT PUSH2 0x368 JUMPI PUSH1 0x1 PUSH1 0x1 PUSH1 0xA0 SHL SUB PUSH2 0x7D7 PUSH2 0x18C9 JUMP JUMPDEST AND PUSH1 0x0 MSTORE PUSH1 0x5 PUSH1 0x20 MSTORE PUSH1 0x20 PUSH1 0xFF PUSH1 0x40 PUSH1 0x0 KECCAK256 SLOAD AND PUSH1 0x40 MLOAD SWAP1 ISZERO ISZERO DUP2 MSTORE RETURN JUMPDEST CALLVALUE PUSH2 0x368 JUMPI PUSH2 0x803 CALLDATASIZE PUSH2 0x190F JUMP JUMPDEST PUSH1 0x1 DUP1 PUSH1 0xA0 SHL SUB DUP1 SWAP5 AND SWAP4 DUP5 PUSH1 0x0 MSTORE PUSH1 0x5 PUSH1 0x20 MSTORE PUSH2 0x828 PUSH1 0xFF PUSH1 0x40 PUSH1 0x0 KECCAK256 SLOAD AND PUSH2 0x19BC JUMP JUMPDEST PUSH1 0x40 MLOAD PUSH4 0x23E66501 PUSH1 0xE1 SHL DUP2 MSTORE SWAP1 PUSH1 0x20 DUP3 PUSH1 0x4 DUP2 DUP10 GAS STATICCALL SWAP2 DUP3 ISZERO PUSH2 0x375 JUMPI PUSH1 0x0 SWAP3 PUSH2 0xC8A JUMPI JUMPDEST POP PUSH1 0x40 MLOAD PUSH4 0x29BC6721 PUSH1 0xE2 SHL DUP2 MSTORE SWAP1 PUSH1 0x20 DUP3 PUSH1 0x4 DUP2 DUP11 GAS STATICCALL SWAP2 DUP3 ISZERO PUSH2 0x375 JUMPI PUSH1 0x0 SWAP3 PUSH2 0xC4E JUMPI JUMPDEST POP PUSH1 0x40 MLOAD PUSH4 0xC69DEEC5 PUSH1 0xE0 SHL DUP2 MSTORE CALLER PUSH1 0x4 DUP3 ADD MSTORE PUSH1 0x24 DUP2 ADD DUP8 SWAP1 MSTORE PUSH1 0x20 DUP2 PUSH1 0x44 DUP2 DUP7 DUP7 AND GAS STATICCALL SWAP1 DUP2 ISZERO PUSH2 0x375 JUMPI PUSH1 0x0 SWAP2 PUSH2 0xC14 JUMPI JUMPDEST POP PUSH2 0xBCF JUMPI PUSH2 0x8B8 CALLER PUSH2 0x2BCA JUMP JUMPDEST SWAP3 PUSH1 0x40 MLOAD SWAP6 PUSH4 0x133F7571 PUSH1 0xE3 SHL DUP8 MSTORE DUP8 PUSH1 0x4 DUP9 ADD MSTORE PUSH2 0x180 SWAP7 DUP8 DUP2 PUSH1 0x24 DUP2 DUP8 DUP8 AND GAS STATICCALL SWAP1 DUP2 ISZERO PUSH2 0x375 JUMPI PUSH1 0x0 SWAP9 PUSH1 0x0 SWAP3 PUSH2 0xB9F JUMPI JUMPDEST POP POP PUSH2 0x8FA DUP10 DUP5 CALLER PUSH2 0x2A0A JUMP JUMPDEST SWAP8 DUP2 SWAP10 DUP10 SWAP3 PUSH2 0xB88 JUMPI JUMPDEST POP DUP2 PUSH2 0xB6F JUMPI JUMPDEST POP POP POP POP PUSH1 0x40 MLOAD PUSH4 0xE985E9C5 PUSH1 0xE0 SHL DUP2 MSTORE CALLER PUSH1 0x4 DUP3 ADD MSTORE DUP3 DUP5 AND PUSH1 0x24 DUP3 ADD MSTORE PUSH1 0x20 DUP2 PUSH1 0x44 DUP2 DUP7 DUP7 AND GAS STATICCALL SWAP1 DUP2 ISZERO PUSH2 0x375 JUMPI PUSH1 0x0 SWAP2 PUSH2 0xB35 JUMPI JUMPDEST POP ISZERO PUSH2 0xA40 JUMPI JUMPDEST POP POP PUSH1 0x20 PUSH2 0x976 SWAP2 PUSH1 0x40 MLOAD SWAP1 PUSH4 0xB6B55F25 PUSH1 0xE0 SHL DUP4 DUP4 ADD MSTORE DUP8 PUSH1 0x24 DUP4 ADD MSTORE PUSH1 0x24 DUP3 MSTORE PUSH2 0x26B DUP3 PUSH2 0x1A12 JUMP JUMPDEST SUB DUP2 PUSH1 0x0 CALLER GAS CALL SWAP1 DUP2 ISZERO PUSH2 0x375 JUMPI PUSH1 0x0 SWAP2 PUSH2 0xA06 JUMPI JUMPDEST POP ISZERO PUSH2 0x9D2 JUMPI PUSH2 0x99F SWAP1 PUSH2 0x2C2 CALLER PUSH2 0x2BCA JUMP JUMPDEST SWAP2 PUSH1 0x40 MLOAD SWAP4 DUP5 MSTORE PUSH1 0x20 DUP5 ADD MSTORE PUSH1 0x40 DUP4 ADD MSTORE PUSH1 0x0 PUSH1 0x60 DUP4 ADD MSTORE PUSH1 0x80 DUP3 ADD MSTORE PUSH1 0x0 DUP1 MLOAD PUSH1 0x20 PUSH2 0x2C39 DUP4 CODECOPY DUP2 MLOAD SWAP2 MSTORE PUSH1 0xA0 CALLER SWAP3 LOG3 STOP JUMPDEST PUSH1 0x40 MLOAD PUSH3 0x461BCD PUSH1 0xE5 SHL DUP2 MSTORE PUSH1 0x20 PUSH1 0x4 DUP3 ADD MSTORE PUSH1 0xC PUSH1 0x24 DUP3 ADD MSTORE PUSH12 0x14DD185AD94819985A5B1959 PUSH1 0xA2 SHL PUSH1 0x44 DUP3 ADD MSTORE PUSH1 0x64 SWAP1 REVERT JUMPDEST SWAP1 POP PUSH1 0x20 DUP2 RETURNDATASIZE PUSH1 0x20 GT PUSH2 0xA38 JUMPI JUMPDEST DUP2 PUSH2 0xA21 PUSH1 0x20 SWAP4 DUP4 PUSH2 0x1A48 JUMP JUMPDEST DUP2 ADD SUB SLT PUSH2 0x368 JUMPI PUSH2 0xA32 SWAP1 PUSH2 0x1A7D JUMP JUMPDEST DUP7 PUSH2 0x98C JUMP JUMPDEST RETURNDATASIZE SWAP2 POP PUSH2 0xA14 JUMP JUMPDEST PUSH1 0x40 MLOAD SWAP2 PUSH4 0xA22CB465 PUSH1 0xE0 SHL PUSH1 0x20 DUP5 ADD MSTORE DUP4 AND PUSH1 0x24 DUP4 ADD MSTORE PUSH1 0x1 PUSH1 0x44 DUP4 ADD MSTORE PUSH1 0x44 DUP3 MSTORE PUSH1 0x80 DUP3 ADD SWAP1 DUP3 DUP3 LT PUSH1 0x1 PUSH1 0x1 PUSH1 0x40 SHL SUB DUP4 GT OR PUSH2 0x4E6 JUMPI DUP2 PUSH1 0x20 SWAP2 DUP2 PUSH1 0x40 MSTORE PUSH4 0x468721A7 PUSH1 0xE0 SHL DUP3 MSTORE DUP5 PUSH2 0xA9E DUP2 PUSH1 0x7F NOT SWAP4 PUSH1 0x84 DUP3 ADD PUSH2 0x1C41 JUMP JUMPDEST SUB ADD DUP2 PUSH1 0x0 CALLER GAS CALL SWAP2 DUP3 ISZERO PUSH2 0x375 JUMPI PUSH1 0x0 SWAP3 PUSH2 0xAFE JUMPI JUMPDEST POP POP ISZERO PUSH2 0xAC3 JUMPI DUP7 DUP1 PUSH2 0x94B JUMP JUMPDEST PUSH1 0x40 MLOAD PUSH3 0x461BCD PUSH1 0xE5 SHL DUP2 MSTORE PUSH1 0x20 PUSH1 0x4 DUP3 ADD MSTORE PUSH1 0x13 PUSH1 0x24 DUP3 ADD MSTORE PUSH19 0x13919508185C1C1C9BDD985B0819985A5B1959 PUSH1 0x6A SHL PUSH1 0x44 DUP3 ADD MSTORE PUSH1 0x64 SWAP1 REVERT JUMPDEST PUSH1 0x20 DUP1 SWAP3 SWAP4 POP RETURNDATASIZE DUP4 GT PUSH2 0xB2E JUMPI JUMPDEST PUSH2 0xB16 DUP2 DUP6 PUSH2 0x1A48 JUMP JUMPDEST DUP2 ADD SUB SLT PUSH2 0x368 JUMPI PUSH2 0xB27 SWAP1 PUSH2 0x1A7D JUMP JUMPDEST DUP8 DUP1 PUSH2 0xAB5 JUMP JUMPDEST POP RETURNDATASIZE PUSH2 0xB0C JUMP JUMPDEST SWAP1 POP PUSH1 0x20 DUP2 RETURNDATASIZE PUSH1 0x20 GT PUSH2 0xB67 JUMPI JUMPDEST DUP2 PUSH2 0xB50 PUSH1 0x20 SWAP4 DUP4 PUSH2 0x1A48 JUMP JUMPDEST DUP2 ADD SUB SLT PUSH2 0x368 JUMPI PUSH2 0xB61 SWAP1 PUSH2 0x1A7D JUMP JUMPDEST DUP10 PUSH2 0x944 JUMP JUMPDEST RETURNDATASIZE SWAP2 POP PUSH2 0xB43 JUMP JUMPDEST PUSH2 0xB7E SWAP4 PUSH2 0x530 SWAP2 CALLDATASIZE SWAP2 PUSH2 0x1AE7 JUMP JUMPDEST POP DUP9 DUP1 DUP7 DUP2 PUSH2 0x90B JUMP JUMPDEST PUSH2 0xB98 SWAP1 DUP12 PUSH2 0x530 CALLDATASIZE DUP6 DUP10 PUSH2 0x1AE7 JUMP JUMPDEST POP DUP13 PUSH2 0x904 JUMP JUMPDEST PUSH2 0xBBA SWAP4 SWAP10 POP DUP1 SWAP2 SWAP3 POP SWAP1 RETURNDATASIZE LT PUSH2 0x698 JUMPI PUSH2 0x67B DUP2 DUP4 PUSH2 0x1A48 JUMP JUMPDEST POP POP POP POP POP POP POP POP SWAP9 SWAP3 POP SWAP1 POP SWAP7 DUP11 DUP1 PUSH2 0x8ED JUMP JUMPDEST PUSH1 0x40 MLOAD PUSH3 0x461BCD PUSH1 0xE5 SHL DUP2 MSTORE PUSH1 0x20 PUSH1 0x4 DUP3 ADD MSTORE PUSH1 0x17 PUSH1 0x24 DUP3 ADD MSTORE PUSH32 0x506F736974696F6E20616C7265616479207374616B6564000000000000000000 PUSH1 0x44 DUP3 ADD MSTORE PUSH1 0x64 SWAP1 REVERT JUMPDEST SWAP1 POP PUSH1 0x20 DUP2 RETURNDATASIZE PUSH1 0x20 GT PUSH2 0xC46 JUMPI JUMPDEST DUP2 PUSH2 0xC2F PUSH1 0x20 SWAP4 DUP4 PUSH2 0x1A48 JUMP JUMPDEST DUP2 ADD SUB SLT PUSH2 0x368 JUMPI PUSH2 0xC40 SWAP1 PUSH2 0x1A7D JUMP JUMPDEST DUP9 PUSH2 0x8AA JUMP JUMPDEST RETURNDATASIZE SWAP2 POP PUSH2 0xC22 JUMP JUMPDEST SWAP1 SWAP2 POP PUSH1 0x20 DUP2 RETURNDATASIZE PUSH1 0x20 GT PUSH2 0xC82 JUMPI JUMPDEST DUP2 PUSH2 0xC6A PUSH1 0x20 SWAP4 DUP4 PUSH2 0x1A48 JUMP JUMPDEST DUP2 ADD SUB SLT PUSH2 0x368 JUMPI PUSH2 0xC7B SWAP1 PUSH2 0x1A69 JUMP JUMPDEST SWAP1 DUP8 PUSH2 0x875 JUMP JUMPDEST RETURNDATASIZE SWAP2 POP PUSH2 0xC5D JUMP JUMPDEST SWAP1 SWAP2 POP PUSH1 0x20 DUP2 RETURNDATASIZE PUSH1 0x20 GT PUSH2 0xCBE JUMPI JUMPDEST DUP2 PUSH2 0xCA6 PUSH1 0x20 SWAP4 DUP4 PUSH2 0x1A48 JUMP JUMPDEST DUP2 ADD SUB SLT PUSH2 0x368 JUMPI PUSH2 0xCB7 SWAP1 PUSH2 0x1A69 JUMP JUMPDEST SWAP1 DUP7 PUSH2 0x84E JUMP JUMPDEST RETURNDATASIZE SWAP2 POP PUSH2 0xC99 JUMP JUMPDEST CALLVALUE PUSH2 0x368 JUMPI PUSH2 0xCD4 CALLDATASIZE PUSH2 0x190F JUMP JUMPDEST SWAP3 PUSH1 0x1 DUP1 PUSH1 0xA0 SHL SUB AND SWAP3 DUP4 PUSH1 0x0 MSTORE PUSH1 0x5 PUSH1 0x20 MSTORE PUSH2 0xCF8 PUSH1 0xFF PUSH1 0x40 PUSH1 0x0 KECCAK256 SLOAD AND PUSH2 0x19BC JUMP JUMPDEST PUSH1 0x40 MLOAD PUSH4 0x23E66501 PUSH1 0xE1 SHL DUP2 MSTORE SWAP1 PUSH1 0x20 DUP3 PUSH1 0x4 DUP2 DUP9 GAS STATICCALL SWAP2 DUP3 ISZERO PUSH2 0x375 JUMPI PUSH1 0x0 SWAP3 PUSH2 0x10DF JUMPI JUMPDEST POP PUSH1 0x40 MLOAD PUSH4 0x29BC6721 PUSH1 0xE2 SHL DUP2 MSTORE PUSH1 0x20 DUP2 PUSH1 0x4 DUP2 DUP10 GAS STATICCALL SWAP1 DUP2 ISZERO PUSH2 0x375 JUMPI PUSH1 0x0 SWAP2 PUSH2 0x10A5 JUMPI JUMPDEST POP PUSH2 0xD4E CALLER PUSH2 0x2BCA JUMP JUMPDEST PUSH1 0x40 MLOAD PUSH4 0xC69DEEC5 PUSH1 0xE0 SHL DUP2 MSTORE CALLER PUSH1 0x4 DUP3 ADD MSTORE PUSH1 0x24 DUP2 ADD DUP8 SWAP1 MSTORE SWAP1 SWAP5 PUSH1 0x0 SWAP5 DUP6 SWAP5 PUSH1 0x1 PUSH1 0x1 PUSH1 0xA0 SHL SUB DUP6 AND SWAP4 SWAP1 SWAP2 SWAP1 DUP7 SWAP1 PUSH1 0x20 DUP2 PUSH1 0x44 DUP2 DUP10 GAS STATICCALL SWAP1 DUP2 ISZERO PUSH2 0x375 JUMPI PUSH1 0x0 SWAP2 PUSH2 0x106B JUMPI JUMPDEST POP ISZERO PUSH2 0xF70 JUMPI POP POP PUSH1 0x40 MLOAD PUSH4 0x3E491D47 PUSH1 0xE0 SHL DUP2 MSTORE CALLER PUSH1 0x4 DUP3 ADD MSTORE PUSH1 0x24 DUP2 ADD DUP10 SWAP1 MSTORE SWAP3 PUSH1 0x20 SWAP1 DUP5 SWAP1 PUSH1 0x44 SWAP1 DUP3 SWAP1 GAS STATICCALL SWAP3 DUP4 ISZERO PUSH2 0x375 JUMPI PUSH1 0x0 SWAP4 PUSH2 0xF3C JUMPI JUMPDEST POP DUP3 SWAP4 DUP4 PUSH2 0xE31 JUMPI JUMPDEST POP POP POP POP PUSH2 0x2FE SWAP1 PUSH2 0xE03 PUSH1 0x0 DUP1 MLOAD PUSH1 0x20 PUSH2 0x2C39 DUP4 CODECOPY DUP2 MLOAD SWAP2 MSTORE SWAP6 JUMPDEST PUSH2 0x2C2 CALLER PUSH2 0x2BCA JUMP JUMPDEST SWAP1 PUSH1 0x40 MLOAD SWAP5 DUP6 SWAP5 CALLER SWAP9 DUP7 SWAP2 SWAP3 PUSH1 0x80 SWAP4 SWAP7 SWAP6 SWAP5 SWAP2 SWAP7 PUSH1 0xA0 DUP5 ADD SWAP8 DUP5 MSTORE PUSH1 0x20 DUP5 ADD MSTORE PUSH1 0x40 DUP4 ADD MSTORE PUSH1 0x60 DUP3 ADD MSTORE ADD MSTORE JUMP JUMPDEST PUSH1 0x20 PUSH2 0xE60 SWAP2 PUSH1 0x40 SWAP10 SWAP4 SWAP5 SWAP7 SWAP6 SWAP10 MLOAD SWAP1 PUSH4 0x1C4B774B PUSH1 0xE0 SHL DUP4 DUP4 ADD MSTORE DUP12 PUSH1 0x24 DUP4 ADD MSTORE PUSH1 0x24 DUP3 MSTORE PUSH2 0x26B DUP3 PUSH2 0x1A12 JUMP JUMPDEST SUB DUP2 PUSH1 0x0 CALLER GAS CALL SWAP1 DUP2 ISZERO PUSH2 0x375 JUMPI PUSH1 0x0 SWAP2 PUSH2 0xF02 JUMPI JUMPDEST POP ISZERO PUSH2 0xEBD JUMPI PUSH2 0xEB5 PUSH2 0xEB0 PUSH2 0xE03 SWAP4 PUSH1 0x0 DUP1 MLOAD PUSH1 0x20 PUSH2 0x2C39 DUP4 CODECOPY DUP2 MLOAD SWAP2 MSTORE SWAP10 PUSH2 0x530 PUSH2 0x2FE SWAP9 PUSH1 0x1 DUP1 PUSH1 0xA0 SHL SUB PUSH1 0x1 SLOAD AND SWAP4 CALLDATASIZE SWAP2 PUSH2 0x1AE7 JUMP JUMPDEST PUSH2 0x1C72 JUMP JUMPDEST SWAP6 DUP3 SWAP4 PUSH2 0xDDE JUMP JUMPDEST PUSH1 0x40 MLOAD PUSH3 0x461BCD PUSH1 0xE5 SHL DUP2 MSTORE PUSH1 0x20 PUSH1 0x4 DUP3 ADD MSTORE PUSH1 0x17 PUSH1 0x24 DUP3 ADD MSTORE PUSH32 0x47617567652067657420726577617264206661696C6564000000000000000000 PUSH1 0x44 DUP3 ADD MSTORE PUSH1 0x64 SWAP1 REVERT JUMPDEST SWAP1 POP PUSH1 0x20 DUP2 RETURNDATASIZE PUSH1 0x20 GT PUSH2 0xF34 JUMPI JUMPDEST DUP2 PUSH2 0xF1D PUSH1 0x20 SWAP4 DUP4 PUSH2 0x1A48 JUMP JUMPDEST DUP2 ADD SUB SLT PUSH2 0x368 JUMPI PUSH2 0xF2E SWAP1 PUSH2 0x1A7D JUMP JUMPDEST DUP11 PUSH2 0xE76 JUMP JUMPDEST RETURNDATASIZE SWAP2 POP PUSH2 0xF10 JUMP JUMPDEST SWAP1 SWAP3 POP PUSH1 0x20 DUP2 RETURNDATASIZE PUSH1 0x20 GT PUSH2 0xF68 JUMPI JUMPDEST DUP2 PUSH2 0xF58 PUSH1 0x20 SWAP4 DUP4 PUSH2 0x1A48 JUMP JUMPDEST DUP2 ADD SUB SLT PUSH2 0x368 JUMPI MLOAD SWAP2 DUP10 PUSH2 0xDD5 JUMP JUMPDEST RETURNDATASIZE SWAP2 POP PUSH2 0xF4B JUMP JUMPDEST PUSH1 0x40 MLOAD PUSH4 0x133F7571 PUSH1 0xE3 SHL DUP2 MSTORE PUSH1 0x4 DUP2 ADD DUP12 SWAP1 MSTORE SWAP2 SWAP9 SWAP3 SWAP8 POP SWAP1 SWAP6 POP PUSH2 0x180 SWAP5 POP SWAP3 POP SWAP1 DUP4 DUP6 PUSH1 0x24 DUP2 PUSH1 0x1 PUSH1 0x1 PUSH1 0xA0 SHL SUB DUP12 AND GAS STATICCALL DUP1 ISZERO PUSH2 0x375 JUMPI PUSH1 0x0 DUP1 MLOAD PUSH1 0x20 PUSH2 0x2C39 DUP4 CODECOPY DUP2 MLOAD SWAP2 MSTORE SWAP8 DUP10 SWAP7 PUSH1 0x0 SWAP7 PUSH1 0x0 SWAP4 PUSH2 0x102C JUMPI JUMPDEST POP POP SWAP1 PUSH2 0xFDF PUSH2 0x2FE SWAP7 SWAP8 PUSH2 0xE03 SWAP6 SWAP5 SWAP4 CALLER PUSH2 0x2A0A JUMP JUMPDEST SWAP1 SWAP9 DUP2 SWAP10 DUP1 SWAP10 DUP2 PUSH2 0x1015 JUMPI JUMPDEST POP POP DUP2 PUSH2 0xFFC JUMPI JUMPDEST POP POP POP POP PUSH2 0xDFA JUMP JUMPDEST PUSH2 0x100B SWAP4 PUSH2 0x530 SWAP2 CALLDATASIZE SWAP2 PUSH2 0x1AE7 JUMP JUMPDEST POP DUP10 DUP1 DUP1 DUP1 PUSH2 0xFF3 JUMP JUMPDEST PUSH2 0x1024 SWAP2 PUSH2 0x530 CALLDATASIZE DUP6 DUP10 PUSH2 0x1AE7 JUMP JUMPDEST POP DUP14 DUP1 PUSH2 0xFEB JUMP JUMPDEST PUSH2 0x2FE SWAP8 POP PUSH2 0xE03 SWAP6 SWAP5 SWAP4 POP PUSH2 0xFDF SWAP2 DUP2 PUSH2 0x1052 SWAP3 SWAP1 RETURNDATASIZE LT PUSH2 0x698 JUMPI PUSH2 0x67B DUP2 DUP4 PUSH2 0x1A48 JUMP JUMPDEST POP POP POP POP POP POP POP POP SWAP11 SWAP3 POP SWAP1 POP SWAP9 SWAP4 SWAP5 SWAP6 POP SWAP8 SWAP7 PUSH2 0xFC8 JUMP JUMPDEST SWAP1 POP PUSH1 0x20 DUP2 RETURNDATASIZE PUSH1 0x20 GT PUSH2 0x109D JUMPI JUMPDEST DUP2 PUSH2 0x1086 PUSH1 0x20 SWAP4 DUP4 PUSH2 0x1A48 JUMP JUMPDEST DUP2 ADD SUB SLT PUSH2 0x368 JUMPI PUSH2 0x1097 SWAP1 PUSH2 0x1A7D JUMP JUMPDEST DUP13 PUSH2 0xD97 JUMP JUMPDEST RETURNDATASIZE SWAP2 POP PUSH2 0x1079 JUMP JUMPDEST SWAP1 POP PUSH1 0x20 DUP2 RETURNDATASIZE PUSH1 0x20 GT PUSH2 0x10D7 JUMPI JUMPDEST DUP2 PUSH2 0x10C0 PUSH1 0x20 SWAP4 DUP4 PUSH2 0x1A48 JUMP JUMPDEST DUP2 ADD SUB SLT PUSH2 0x368 JUMPI PUSH2 0x10D1 SWAP1 PUSH2 0x1A69 JUMP JUMPDEST DUP7 PUSH2 0xD44 JUMP JUMPDEST RETURNDATASIZE SWAP2 POP PUSH2 0x10B3 JUMP JUMPDEST SWAP1 SWAP2 POP PUSH1 0x20 DUP2 RETURNDATASIZE PUSH1 0x20 GT PUSH2 0x1113 JUMPI JUMPDEST DUP2 PUSH2 0x10FB PUSH1 0x20 SWAP4 DUP4 PUSH2 0x1A48 JUMP JUMPDEST DUP2 ADD SUB SLT PUSH2 0x368 JUMPI PUSH2 0x110C SWAP1 PUSH2 0x1A69 JUMP JUMPDEST SWAP1 DUP6 PUSH2 0xD1E JUMP JUMPDEST RETURNDATASIZE SWAP2 POP PUSH2 0x10EE JUMP JUMPDEST CALLVALUE PUSH2 0x368 JUMPI PUSH1 0x0 CALLDATASIZE PUSH1 0x3 NOT ADD SLT PUSH2 0x368 JUMPI PUSH1 0x20 PUSH1 0x4 SLOAD PUSH1 0x40 MLOAD SWAP1 DUP2 MSTORE RETURN JUMPDEST CALLVALUE PUSH2 0x368 JUMPI PUSH1 0x20 CALLDATASIZE PUSH1 0x3 NOT ADD SLT PUSH2 0x368 JUMPI PUSH2 0x1152 PUSH2 0x18C9 JUMP JUMPDEST PUSH2 0x115A PUSH2 0x1955 JUMP JUMPDEST PUSH1 0x1 PUSH1 0x1 PUSH1 0xA0 SHL SUB SWAP1 DUP2 AND SWAP1 DUP2 ISZERO PUSH2 0x11A9 JUMPI PUSH1 0x2 SLOAD DUP3 PUSH1 0x1 PUSH1 0x1 PUSH1 0x60 SHL SUB PUSH1 0xA0 SHL DUP3 AND OR PUSH1 0x2 SSTORE AND PUSH32 0x9D4858DCCB76DEBED7845FD87EC5C769962D072D518C9E34182581ABB3E8247C PUSH1 0x0 DUP1 LOG3 STOP JUMPDEST PUSH1 0x40 MLOAD PUSH3 0x461BCD PUSH1 0xE5 SHL DUP2 MSTORE PUSH1 0x20 PUSH1 0x4 DUP3 ADD MSTORE PUSH1 0x15 PUSH1 0x24 DUP3 ADD MSTORE PUSH21 0x496E76616C69642072657761726420737461626C65 PUSH1 0x58 SHL PUSH1 0x44 DUP3 ADD MSTORE PUSH1 0x64 SWAP1 REVERT JUMPDEST CALLVALUE PUSH2 0x368 JUMPI PUSH1 0x0 CALLDATASIZE PUSH1 0x3 NOT ADD SLT PUSH2 0x368 JUMPI PUSH1 0x40 MLOAD PUSH32 0x0 PUSH1 0x1 PUSH1 0x1 PUSH1 0xA0 SHL SUB AND DUP2 MSTORE PUSH1 0x20 SWAP1 RETURN JUMPDEST CALLVALUE PUSH2 0x368 JUMPI PUSH1 0x0 CALLDATASIZE PUSH1 0x3 NOT ADD SLT PUSH2 0x368 JUMPI PUSH1 0x0 SLOAD PUSH1 0x40 MLOAD PUSH1 0x1 PUSH1 0x1 PUSH1 0xA0 SHL SUB SWAP1 SWAP2 AND DUP2 MSTORE PUSH1 0x20 SWAP1 RETURN JUMPDEST CALLVALUE PUSH2 0x368 JUMPI PUSH1 0x20 CALLDATASIZE PUSH1 0x3 NOT ADD SLT PUSH2 0x368 JUMPI PUSH2 0x126D PUSH2 0x18C9 JUMP JUMPDEST PUSH2 0x1275 PUSH2 0x1955 JUMP JUMPDEST PUSH1 0x1 PUSH1 0x1 PUSH1 0xA0 SHL SUB SWAP1 DUP2 AND SWAP1 DUP2 ISZERO PUSH2 0x12C4 JUMPI PUSH1 0x1 SLOAD DUP3 PUSH1 0x1 PUSH1 0x1 PUSH1 0x60 SHL SUB PUSH1 0xA0 SHL DUP3 AND OR PUSH1 0x1 SSTORE AND PUSH32 0x906FF2422A6FFA134F2D7CCAFFD446BC0C583A5CB6615749B4B2836942A5FEA8 PUSH1 0x0 DUP1 LOG3 STOP JUMPDEST PUSH1 0x40 MLOAD PUSH3 0x461BCD PUSH1 0xE5 SHL DUP2 MSTORE PUSH1 0x20 PUSH1 0x4 DUP3 ADD MSTORE PUSH1 0x14 PUSH1 0x24 DUP3 ADD MSTORE PUSH20 0x24B73B30B634B2103932BBB0B932103A37B5B2B7 PUSH1 0x61 SHL PUSH1 0x44 DUP3 ADD MSTORE PUSH1 0x64 SWAP1 REVERT JUMPDEST CALLVALUE PUSH2 0x368 JUMPI PUSH1 0x0 CALLDATASIZE PUSH1 0x3 NOT ADD SLT PUSH2 0x368 JUMPI PUSH2 0x1319 PUSH2 0x1955 JUMP JUMPDEST PUSH1 0x0 DUP1 SLOAD PUSH1 0x1 PUSH1 0x1 PUSH1 0xA0 SHL SUB NOT DUP2 AND DUP3 SSTORE PUSH1 0x1 PUSH1 0x1 PUSH1 0xA0 SHL SUB AND PUSH32 0x8BE0079C531659141344CD1FD0A4F28419497F9722A3DAAFE3B4186F6B6457E0 DUP3 DUP1 LOG3 STOP JUMPDEST CALLVALUE PUSH2 0x368 JUMPI PUSH1 0x20 CALLDATASIZE PUSH1 0x3 NOT ADD SLT PUSH2 0x368 JUMPI PUSH2 0x1372 PUSH2 0x18C9 JUMP JUMPDEST PUSH2 0x137A PUSH2 0x1955 JUMP JUMPDEST PUSH1 0x1 PUSH1 0x1 PUSH1 0xA0 SHL SUB AND PUSH2 0x138E DUP2 ISZERO ISZERO PUSH2 0x1981 JUMP JUMPDEST PUSH1 0x0 DUP2 DUP2 MSTORE PUSH1 0x5 PUSH1 0x20 MSTORE PUSH1 0x40 DUP2 KECCAK256 DUP1 SLOAD PUSH1 0xFF NOT AND PUSH1 0x1 OR SWAP1 SSTORE PUSH32 0xFC1F1E73948CBC47C5B7F90E5601B7DACCD9AD7173218486CCC74BDD051D05E8 DUP2 DUP1 LOG3 STOP JUMPDEST CALLVALUE PUSH2 0x368 JUMPI PUSH1 0x20 CALLDATASIZE PUSH1 0x3 NOT ADD SLT PUSH2 0x368 JUMPI PUSH2 0x13E6 PUSH2 0x18C9 JUMP JUMPDEST PUSH2 0x13EE PUSH2 0x1955 JUMP JUMPDEST PUSH1 0x1 PUSH1 0x1 PUSH1 0xA0 SHL SUB AND PUSH2 0x1402 DUP2 ISZERO ISZERO PUSH2 0x1981 JUMP JUMPDEST PUSH1 0x0 DUP2 DUP2 MSTORE PUSH1 0x5 PUSH1 0x20 MSTORE PUSH1 0x40 DUP2 KECCAK256 DUP1 SLOAD PUSH1 0xFF NOT AND SWAP1 SSTORE PUSH32 0x987EB3C2F78454541205F72F34839B434C306C9EAF4922EFD7C0C3060FDB2E4C DUP2 DUP1 LOG3 STOP JUMPDEST CALLVALUE PUSH2 0x368 JUMPI PUSH1 0x0 CALLDATASIZE PUSH1 0x3 NOT ADD SLT PUSH2 0x368 JUMPI PUSH1 0x3 SLOAD PUSH1 0x40 MLOAD PUSH1 0x1 PUSH1 0x1 PUSH1 0xA0 SHL SUB SWAP1 SWAP2 AND DUP2 MSTORE PUSH1 0x20 SWAP1 RETURN JUMPDEST PUSH1 0xA0 CALLDATASIZE PUSH1 0x3 NOT ADD SLT PUSH2 0x368 JUMPI PUSH2 0x147B PUSH2 0x18C9 JUMP JUMPDEST PUSH1 0x24 CALLDATALOAD SWAP1 PUSH1 0x44 CALLDATALOAD SWAP1 PUSH1 0x1 PUSH1 0x1 PUSH1 0xA0 SHL SUB DUP3 AND DUP1 DUP4 SUB PUSH2 0x368 JUMPI PUSH1 0x64 CALLDATALOAD SWAP4 DUP5 ISZERO ISZERO DUP6 SUB PUSH2 0x368 JUMPI PUSH1 0x84 CALLDATALOAD PUSH1 0x1 PUSH1 0x1 PUSH1 0x40 SHL SUB DUP2 GT PUSH2 0x368 JUMPI PUSH2 0x14CD PUSH2 0x14C6 PUSH2 0x14D3 SWAP3 CALLDATASIZE SWAP1 PUSH1 0x4 ADD PUSH2 0x18DF JUMP JUMPDEST CALLDATASIZE SWAP2 PUSH2 0x1AE7 JUMP JUMPDEST DUP5 PUSH2 0x1F45 JUMP JUMPDEST SWAP3 SWAP1 SWAP3 ISZERO PUSH2 0x161E JUMPI DUP1 PUSH2 0x153A JUMPI POP SWAP1 PUSH2 0x14FB SWAP4 PUSH2 0x14F3 SWAP3 CALLER BALANCE SWAP5 CALLER PUSH2 0x201D JUMP JUMPDEST POP CALLER BALANCE PUSH2 0x1BD6 JUMP JUMPDEST SWAP1 JUMPDEST PUSH2 0x1503 JUMPI STOP JUMPDEST PUSH1 0x0 SWAP1 PUSH1 0x40 MLOAD SWAP1 DUP3 DUP3 MSTORE DUP3 PUSH1 0x20 DUP4 ADD MSTORE DUP3 PUSH1 0x40 DUP4 ADD MSTORE PUSH1 0x60 DUP3 ADD MSTORE DUP2 PUSH1 0x80 DUP3 ADD MSTORE PUSH1 0x0 DUP1 MLOAD PUSH1 0x20 PUSH2 0x2C39 DUP4 CODECOPY DUP2 MLOAD SWAP2 MSTORE PUSH1 0xA0 CALLER SWAP3 LOG3 STOP JUMPDEST SWAP4 SWAP3 SWAP1 PUSH1 0x40 MLOAD SWAP3 PUSH4 0x70A08231 PUSH1 0xE0 SHL SWAP2 DUP3 DUP6 MSTORE CALLER PUSH1 0x4 DUP7 ADD MSTORE PUSH1 0x20 SWAP4 DUP5 DUP7 PUSH1 0x24 DUP2 DUP12 GAS STATICCALL SWAP6 DUP7 ISZERO PUSH2 0x375 JUMPI PUSH1 0x0 SWAP7 PUSH2 0x15E1 JUMPI JUMPDEST POP SWAP6 PUSH2 0x157D SWAP3 SWAP2 DUP6 SWAP7 SWAP8 CALLER PUSH2 0x201D JUMP JUMPDEST POP PUSH1 0x24 PUSH1 0x40 MLOAD DUP1 SWAP7 DUP2 SWAP4 DUP3 MSTORE CALLER PUSH1 0x4 DUP4 ADD MSTORE GAS STATICCALL SWAP1 DUP2 ISZERO PUSH2 0x375 JUMPI PUSH1 0x0 SWAP2 PUSH2 0x15B1 JUMPI JUMPDEST POP PUSH2 0x15AB SWAP3 POP PUSH2 0x1BD6 JUMP JUMPDEST SWAP1 PUSH2 0x14FD JUMP JUMPDEST SWAP1 POP DUP3 DUP2 RETURNDATASIZE DUP4 GT PUSH2 0x15DA JUMPI JUMPDEST PUSH2 0x15C7 DUP2 DUP4 PUSH2 0x1A48 JUMP JUMPDEST DUP2 ADD SUB SLT PUSH2 0x368 JUMPI PUSH2 0x15AB SWAP2 MLOAD DUP5 PUSH2 0x15A0 JUMP JUMPDEST POP RETURNDATASIZE PUSH2 0x15BD JUMP JUMPDEST SWAP3 SWAP2 SWAP5 DUP1 SWAP7 POP DUP4 DUP2 SWAP9 SWAP3 SWAP9 RETURNDATASIZE DUP4 GT PUSH2 0x1617 JUMPI JUMPDEST PUSH2 0x15FE DUP2 DUP4 PUSH2 0x1A48 JUMP JUMPDEST DUP2 ADD SUB SLT PUSH2 0x368 JUMPI SWAP2 MLOAD SWAP2 SWAP6 SWAP2 SWAP5 SWAP4 SWAP1 SWAP2 PUSH2 0x157D PUSH2 0x156D JUMP JUMPDEST POP RETURNDATASIZE PUSH2 0x15F4 JUMP JUMPDEST PUSH1 0x40 MLOAD PUSH3 0x461BCD PUSH1 0xE5 SHL DUP2 MSTORE PUSH1 0x20 PUSH1 0x4 DUP3 ADD MSTORE PUSH1 0x1E PUSH1 0x24 DUP3 ADD MSTORE PUSH32 0x546F6B656E206E6F7420666F756E6420696E2070726963652061727261790000 PUSH1 0x44 DUP3 ADD MSTORE PUSH1 0x64 SWAP1 REVERT JUMPDEST CALLVALUE PUSH2 0x368 JUMPI PUSH2 0x1671 CALLDATASIZE PUSH2 0x190F JUMP JUMPDEST PUSH1 0x1 DUP1 PUSH1 0xA0 SWAP6 SWAP4 SWAP6 SHL SUB DUP1 SWAP3 AND SWAP4 DUP5 PUSH1 0x0 MSTORE PUSH1 0x20 SWAP3 PUSH1 0x5 DUP5 MSTORE PUSH2 0x169B PUSH1 0xFF PUSH1 0x40 PUSH1 0x0 KECCAK256 SLOAD AND PUSH2 0x19BC JUMP JUMPDEST PUSH1 0x40 MLOAD PUSH4 0x29BC6721 PUSH1 0xE2 SHL DUP2 MSTORE SWAP1 DUP5 DUP3 PUSH1 0x4 DUP2 DUP11 GAS STATICCALL SWAP2 DUP3 ISZERO PUSH2 0x375 JUMPI PUSH1 0x0 SWAP3 PUSH2 0x17FB JUMPI JUMPDEST POP PUSH1 0x40 MLOAD PUSH4 0xC69DEEC5 PUSH1 0xE0 SHL DUP2 MSTORE CALLER PUSH1 0x4 DUP3 ADD MSTORE PUSH1 0x24 DUP2 ADD DUP8 SWAP1 MSTORE SWAP1 DUP3 AND SWAP1 DUP6 DUP2 PUSH1 0x44 DUP2 DUP6 GAS STATICCALL DUP1 ISZERO PUSH2 0x375 JUMPI PUSH1 0x0 SWAP1 PUSH2 0x17C5 JUMPI JUMPDEST PUSH2 0x16FF SWAP2 POP PUSH2 0x1A8A JUMP JUMPDEST PUSH2 0x1708 CALLER PUSH2 0x2BCA JUMP JUMPDEST PUSH1 0x40 MLOAD PUSH4 0x3E491D47 PUSH1 0xE0 SHL DUP2 MSTORE CALLER PUSH1 0x4 DUP3 ADD MSTORE PUSH1 0x24 DUP2 ADD DUP9 SWAP1 MSTORE SWAP1 SWAP4 SWAP1 SWAP2 DUP7 SWAP1 DUP4 SWAP1 PUSH1 0x44 SWAP1 DUP3 SWAP1 GAS STATICCALL SWAP5 DUP6 ISZERO PUSH2 0x375 JUMPI DUP8 SWAP3 PUSH1 0x0 SWAP7 PUSH2 0x178B JUMPI JUMPDEST POP SWAP3 PUSH1 0x0 SWAP5 SWAP3 PUSH2 0x5A7 PUSH2 0xDFA SWAP4 PUSH2 0x175A SWAP7 CALLDATASIZE SWAP2 PUSH2 0x1AE7 JUMP JUMPDEST SWAP3 PUSH1 0x40 MLOAD SWAP5 DUP6 MSTORE DUP5 ADD MSTORE PUSH1 0x0 PUSH1 0x40 DUP5 ADD MSTORE PUSH1 0x60 DUP4 ADD MSTORE PUSH1 0x80 DUP3 ADD MSTORE PUSH1 0x0 DUP1 MLOAD PUSH1 0x20 PUSH2 0x2C39 DUP4 CODECOPY DUP2 MLOAD SWAP2 MSTORE PUSH1 0xA0 CALLER SWAP3 LOG3 STOP JUMPDEST DUP8 DUP1 SWAP3 SWAP8 POP DUP2 SWAP4 SWAP6 SWAP7 SWAP5 POP RETURNDATASIZE DUP4 GT PUSH2 0x17BE JUMPI JUMPDEST PUSH2 0x17A8 DUP2 DUP4 PUSH2 0x1A48 JUMP JUMPDEST DUP2 ADD SUB SLT PUSH2 0x368 JUMPI MLOAD SWAP4 SWAP1 SWAP3 SWAP2 DUP7 SWAP2 PUSH1 0x0 PUSH2 0x1742 JUMP JUMPDEST POP RETURNDATASIZE PUSH2 0x179E JUMP JUMPDEST POP DUP6 DUP2 DUP2 RETURNDATASIZE DUP4 GT PUSH2 0x17F4 JUMPI JUMPDEST PUSH2 0x17DB DUP2 DUP4 PUSH2 0x1A48 JUMP JUMPDEST DUP2 ADD SUB SLT PUSH2 0x368 JUMPI PUSH2 0x17EF PUSH2 0x16FF SWAP2 PUSH2 0x1A7D JUMP JUMPDEST PUSH2 0x16F5 JUMP JUMPDEST POP RETURNDATASIZE PUSH2 0x17D1 JUMP JUMPDEST SWAP1 SWAP2 POP DUP5 DUP2 DUP2 RETURNDATASIZE DUP4 GT PUSH2 0x182B JUMPI JUMPDEST PUSH2 0x1813 DUP2 DUP4 PUSH2 0x1A48 JUMP JUMPDEST DUP2 ADD SUB SLT PUSH2 0x368 JUMPI PUSH2 0x1824 SWAP1 PUSH2 0x1A69 JUMP JUMPDEST SWAP1 DUP8 PUSH2 0x16C0 JUMP JUMPDEST POP RETURNDATASIZE PUSH2 0x1809 JUMP JUMPDEST CALLVALUE PUSH2 0x368 JUMPI PUSH1 0x20 CALLDATASIZE PUSH1 0x3 NOT ADD SLT PUSH2 0x368 JUMPI PUSH1 0x4 CALLDATALOAD PUSH2 0x184E PUSH2 0x1955 JUMP JUMPDEST PUSH2 0x3E8 DUP2 GT PUSH2 0x1890 JUMPI PUSH1 0x40 PUSH32 0xDDD31550B26E9EF8ADE466958BE83FF8A014D9B4F36D546B61A6847A45306575 SWAP2 PUSH1 0x4 SLOAD SWAP1 DUP1 PUSH1 0x4 SSTORE DUP3 MLOAD SWAP2 DUP3 MSTORE PUSH1 0x20 DUP3 ADD MSTORE LOG1 STOP JUMPDEST PUSH1 0x40 MLOAD PUSH3 0x461BCD PUSH1 0xE5 SHL DUP2 MSTORE PUSH1 0x20 PUSH1 0x4 DUP3 ADD MSTORE PUSH1 0x11 PUSH1 0x24 DUP3 ADD MSTORE PUSH17 0xA6D8D2E0E0C2CECA40E8DEDE40D0D2CED PUSH1 0x7B SHL PUSH1 0x44 DUP3 ADD MSTORE PUSH1 0x64 SWAP1 REVERT JUMPDEST PUSH1 0x4 CALLDATALOAD SWAP1 PUSH1 0x1 PUSH1 0x1 PUSH1 0xA0 SHL SUB DUP3 AND DUP3 SUB PUSH2 0x368 JUMPI JUMP JUMPDEST SWAP2 DUP2 PUSH1 0x1F DUP5 ADD SLT ISZERO PUSH2 0x368 JUMPI DUP3 CALLDATALOAD SWAP2 PUSH1 0x1 PUSH1 0x1 PUSH1 0x40 SHL SUB DUP4 GT PUSH2 0x368 JUMPI PUSH1 0x20 DUP1 DUP6 ADD SWAP5 DUP5 PUSH1 0x5 SHL ADD ADD GT PUSH2 0x368 JUMPI JUMP JUMPDEST PUSH1 0x60 PUSH1 0x3 NOT DUP3 ADD SLT PUSH2 0x368 JUMPI PUSH1 0x4 CALLDATALOAD PUSH1 0x1 PUSH1 0x1 PUSH1 0xA0 SHL SUB DUP2 AND DUP2 SUB PUSH2 0x368 JUMPI SWAP2 PUSH1 0x24 CALLDATALOAD SWAP2 PUSH1 0x44 CALLDATALOAD SWAP1 PUSH1 0x1 PUSH1 0x1 PUSH1 0x40 SHL SUB DUP3 GT PUSH2 0x368 JUMPI PUSH2 0x1951 SWAP2 PUSH1 0x4 ADD PUSH2 0x18DF JUMP JUMPDEST SWAP1 SWAP2 JUMP JUMPDEST PUSH1 0x0 SLOAD PUSH1 0x1 PUSH1 0x1 PUSH1 0xA0 SHL SUB AND CALLER SUB PUSH2 0x1969 JUMPI JUMP JUMPDEST PUSH1 0x40 MLOAD PUSH4 0x118CDAA7 PUSH1 0xE0 SHL DUP2 MSTORE CALLER PUSH1 0x4 DUP3 ADD MSTORE PUSH1 0x24 SWAP1 REVERT JUMPDEST ISZERO PUSH2 0x1988 JUMPI JUMP JUMPDEST PUSH1 0x40 MLOAD PUSH3 0x461BCD PUSH1 0xE5 SHL DUP2 MSTORE PUSH1 0x20 PUSH1 0x4 DUP3 ADD MSTORE PUSH1 0xC PUSH1 0x24 DUP3 ADD MSTORE PUSH12 0x125B9D985B1A59081C1BDBDB PUSH1 0xA2 SHL PUSH1 0x44 DUP3 ADD MSTORE PUSH1 0x64 SWAP1 REVERT JUMPDEST ISZERO PUSH2 0x19C3 JUMPI JUMP JUMPDEST PUSH1 0x40 MLOAD PUSH3 0x461BCD PUSH1 0xE5 SHL DUP2 MSTORE PUSH1 0x20 PUSH1 0x4 DUP3 ADD MSTORE PUSH1 0x21 PUSH1 0x24 DUP3 ADD MSTORE PUSH32 0x506F6F6C206E6F7420617070726F76656420666F722074686973206D6F64756C PUSH1 0x44 DUP3 ADD MSTORE PUSH1 0x65 PUSH1 0xF8 SHL PUSH1 0x64 DUP3 ADD MSTORE PUSH1 0x84 SWAP1 REVERT JUMPDEST PUSH1 0x60 DUP2 ADD SWAP1 DUP2 LT PUSH1 0x1 PUSH1 0x1 PUSH1 0x40 SHL SUB DUP3 GT OR PUSH2 0x4E6 JUMPI PUSH1 0x40 MSTORE JUMP JUMPDEST PUSH1 0x40 DUP2 ADD SWAP1 DUP2 LT PUSH1 0x1 PUSH1 0x1 PUSH1 0x40 SHL SUB DUP3 GT OR PUSH2 0x4E6 JUMPI PUSH1 0x40 MSTORE JUMP JUMPDEST SWAP1 PUSH1 0x1F DUP1 NOT SWAP2 ADD AND DUP2 ADD SWAP1 DUP2 LT PUSH1 0x1 PUSH1 0x1 PUSH1 0x40 SHL SUB DUP3 GT OR PUSH2 0x4E6 JUMPI PUSH1 0x40 MSTORE JUMP JUMPDEST MLOAD SWAP1 PUSH1 0x1 PUSH1 0x1 PUSH1 0xA0 SHL SUB DUP3 AND DUP3 SUB PUSH2 0x368 JUMPI JUMP JUMPDEST MLOAD SWAP1 DUP2 ISZERO ISZERO DUP3 SUB PUSH2 0x368 JUMPI JUMP JUMPDEST ISZERO PUSH2 0x1A91 JUMPI JUMP JUMPDEST PUSH1 0x40 MLOAD PUSH3 0x461BCD PUSH1 0xE5 SHL DUP2 MSTORE PUSH1 0x20 PUSH1 0x4 DUP3 ADD MSTORE PUSH1 0x13 PUSH1 0x24 DUP3 ADD MSTORE PUSH19 0x141BDCDA5D1A5BDB881B9BDD081CDD185AD959 PUSH1 0x6A SHL PUSH1 0x44 DUP3 ADD MSTORE PUSH1 0x64 SWAP1 REVERT JUMPDEST PUSH1 0x1 PUSH1 0x1 PUSH1 0x40 SHL SUB DUP2 GT PUSH2 0x4E6 JUMPI PUSH1 0x1F ADD PUSH1 0x1F NOT AND PUSH1 0x20 ADD SWAP1 JUMP JUMPDEST SWAP3 SWAP2 SWAP1 SWAP3 PUSH1 0x1 PUSH1 0x1 PUSH1 0x40 SHL SUB DUP1 DUP6 GT PUSH2 0x4E6 JUMPI DUP5 PUSH1 0x5 SHL PUSH1 0x40 SWAP2 DUP3 MLOAD SWAP5 PUSH1 0x20 DUP1 SWAP7 PUSH2 0x1B14 DUP3 DUP7 ADD DUP3 PUSH2 0x1A48 JUMP JUMPDEST DUP1 SWAP10 DUP2 MSTORE ADD SWAP3 DUP6 ADD SWAP5 DUP2 DUP7 GT PUSH2 0x368 JUMPI DUP1 SWAP4 JUMPDEST DUP7 DUP6 LT PUSH2 0x1B38 JUMPI POP POP POP POP POP POP POP POP JUMP JUMPDEST DUP5 CALLDATALOAD DUP5 DUP2 GT PUSH2 0x368 JUMPI DUP3 ADD SWAP1 PUSH1 0x60 DUP3 DUP6 SUB SLT PUSH2 0x368 JUMPI DUP7 MLOAD SWAP2 PUSH2 0x1B5A DUP4 PUSH2 0x1A12 JUMP JUMPDEST DUP1 CALLDATALOAD PUSH1 0x1 PUSH1 0x1 PUSH1 0xA0 SHL SUB DUP2 AND DUP2 SUB PUSH2 0x368 JUMPI DUP4 MSTORE DUP10 DUP2 ADD CALLDATALOAD DUP11 DUP5 ADD MSTORE DUP8 DUP2 ADD CALLDATALOAD SWAP1 DUP7 DUP3 GT PUSH2 0x368 JUMPI ADD SWAP1 DUP5 PUSH1 0x1F DUP4 ADD SLT ISZERO PUSH2 0x368 JUMPI DUP2 CALLDATALOAD SWAP3 PUSH2 0x1B9B DUP5 PUSH2 0x1ACC JUMP JUMPDEST PUSH2 0x1BA7 DUP11 MLOAD SWAP2 DUP3 PUSH2 0x1A48 JUMP JUMPDEST DUP5 DUP2 MSTORE DUP7 DUP13 DUP7 DUP7 ADD ADD GT PUSH2 0x368 JUMPI PUSH1 0x0 DUP13 DUP7 DUP2 SWAP8 DUP3 DUP1 SWAP9 ADD DUP4 DUP7 ADD CALLDATACOPY DUP4 ADD ADD MSTORE DUP10 DUP3 ADD MSTORE DUP2 MSTORE ADD SWAP5 ADD SWAP4 PUSH2 0x1B27 JUMP JUMPDEST SWAP2 SWAP1 DUP3 SUB SWAP2 DUP3 GT PUSH2 0x1BE3 JUMPI JUMP JUMPDEST PUSH4 0x4E487B71 PUSH1 0xE0 SHL PUSH1 0x0 MSTORE PUSH1 0x11 PUSH1 0x4 MSTORE PUSH1 0x24 PUSH1 0x0 REVERT JUMPDEST PUSH1 0x0 JUMPDEST DUP4 DUP2 LT PUSH2 0x1C0C JUMPI POP POP PUSH1 0x0 SWAP2 ADD MSTORE JUMP JUMPDEST DUP2 DUP2 ADD MLOAD DUP4 DUP3 ADD MSTORE PUSH1 0x20 ADD PUSH2 0x1BFC JUMP JUMPDEST SWAP1 PUSH1 0x20 SWAP2 PUSH2 0x1C35 DUP2 MLOAD DUP1 SWAP3 DUP2 DUP6 MSTORE DUP6 DUP1 DUP7 ADD SWAP2 ADD PUSH2 0x1BF9 JUMP JUMPDEST PUSH1 0x1F ADD PUSH1 0x1F NOT AND ADD ADD SWAP1 JUMP JUMPDEST SWAP3 SWAP2 PUSH2 0x1C6D PUSH1 0x60 SWAP2 PUSH1 0x0 SWAP4 PUSH1 0x1 DUP1 PUSH1 0xA0 SHL SUB AND DUP7 MSTORE DUP4 PUSH1 0x20 DUP8 ADD MSTORE PUSH1 0x80 PUSH1 0x40 DUP8 ADD MSTORE PUSH1 0x80 DUP7 ADD SWAP1 PUSH2 0x1C1C JUMP JUMPDEST SWAP4 ADD MSTORE JUMP JUMPDEST ISZERO PUSH2 0x1C79 JUMPI JUMP JUMPDEST PUSH1 0x40 MLOAD PUSH3 0x461BCD PUSH1 0xE5 SHL DUP2 MSTORE PUSH1 0x20 PUSH1 0x4 DUP3 ADD MSTORE PUSH1 0x15 PUSH1 0x24 DUP3 ADD MSTORE PUSH21 0x14DDD85C081D1BC81CDD18589B194819985A5B1959 PUSH1 0x5A SHL PUSH1 0x44 DUP3 ADD MSTORE PUSH1 0x64 SWAP1 REVERT JUMPDEST SWAP3 PUSH1 0x1 PUSH1 0x1 PUSH1 0xA0 SHL SUB SWAP3 SWAP1 SWAP2 DUP4 DUP2 AND SWAP2 DUP3 ISZERO PUSH2 0x1ED9 JUMPI PUSH1 0x40 DUP1 MLOAD PUSH4 0xC69DEEC5 PUSH1 0xE0 SHL DUP2 MSTORE DUP7 DUP9 AND PUSH1 0x1 PUSH1 0x1 PUSH1 0xA0 SHL SUB DUP2 AND PUSH1 0x4 DUP4 ADD MSTORE PUSH1 0x24 DUP3 ADD DUP5 SWAP1 MSTORE PUSH1 0x20 SWAP5 SWAP3 SWAP4 SWAP3 SWAP1 SWAP2 DUP6 DUP2 PUSH1 0x44 DUP2 DUP11 GAS STATICCALL DUP1 ISZERO PUSH2 0x1ECE JUMPI PUSH1 0x0 SWAP1 PUSH2 0x1E98 JUMPI JUMPDEST PUSH2 0x1D1B SWAP2 POP PUSH2 0x1A8A JUMP JUMPDEST DUP4 MLOAD PUSH4 0x3E491D47 PUSH1 0xE0 SHL DUP2 MSTORE PUSH1 0x1 PUSH1 0x1 PUSH1 0xA0 SHL SUB DUP4 AND PUSH1 0x4 DUP3 ADD MSTORE PUSH1 0x24 DUP2 ADD DUP5 SWAP1 MSTORE SWAP6 DUP6 SWAP1 DUP8 SWAP1 PUSH1 0x44 SWAP1 DUP3 SWAP1 GAS STATICCALL SWAP6 DUP7 ISZERO PUSH2 0x1E8D JUMPI PUSH1 0x0 SWAP7 PUSH2 0x1E5E JUMPI JUMPDEST POP SWAP2 DUP5 SWAP2 PUSH2 0x1D9E SWAP4 DUP6 MLOAD SWAP3 PUSH4 0x2E1A7D4D PUSH1 0xE0 SHL DUP6 DUP6 ADD MSTORE PUSH1 0x24 DUP5 ADD MSTORE PUSH1 0x24 DUP4 MSTORE PUSH2 0x1D81 DUP4 PUSH2 0x1A12 JUMP JUMPDEST PUSH1 0x0 DUP7 MLOAD DUP1 SWAP7 DUP2 SWAP6 DUP3 SWAP5 PUSH4 0x468721A7 PUSH1 0xE0 SHL DUP5 MSTORE PUSH1 0x4 DUP5 ADD PUSH2 0x1C41 JUMP JUMPDEST SUB SWAP3 GAS CALL SWAP1 DUP2 ISZERO PUSH2 0x1E53 JUMPI PUSH1 0x0 SWAP2 PUSH2 0x1E1B JUMPI JUMPDEST POP ISZERO PUSH2 0x1DE0 JUMPI POP POP DUP1 PUSH2 0x1DC5 JUMPI JUMPDEST POP POP POP POP JUMP JUMPDEST PUSH2 0x1DD7 SWAP4 PUSH2 0xEB0 SWAP4 PUSH1 0x1 SLOAD AND SWAP1 PUSH2 0x28EA JUMP JUMPDEST CODESIZE DUP1 DUP1 DUP1 PUSH2 0x1DBF JUMP JUMPDEST PUSH1 0x64 SWAP3 POP MLOAD SWAP1 PUSH3 0x461BCD PUSH1 0xE5 SHL DUP3 MSTORE PUSH1 0x4 DUP3 ADD MSTORE PUSH1 0x15 PUSH1 0x24 DUP3 ADD MSTORE PUSH21 0x11D85D59D9481DDA5D1A191C985DC819985A5B1959 PUSH1 0x5A SHL PUSH1 0x44 DUP3 ADD MSTORE REVERT JUMPDEST SWAP1 DUP4 DUP3 DUP2 RETURNDATASIZE DUP4 GT PUSH2 0x1E4C JUMPI JUMPDEST PUSH2 0x1E31 DUP2 DUP4 PUSH2 0x1A48 JUMP JUMPDEST DUP2 ADD SUB SLT PUSH2 0x1E49 JUMPI POP PUSH2 0x1E43 SWAP1 PUSH2 0x1A7D JUMP JUMPDEST CODESIZE PUSH2 0x1DB1 JUMP JUMPDEST DUP1 REVERT JUMPDEST POP RETURNDATASIZE PUSH2 0x1E27 JUMP JUMPDEST DUP3 MLOAD RETURNDATASIZE PUSH1 0x0 DUP3 RETURNDATACOPY RETURNDATASIZE SWAP1 REVERT JUMPDEST SWAP1 SWAP6 DUP6 DUP3 DUP2 RETURNDATASIZE DUP4 GT PUSH2 0x1E86 JUMPI JUMPDEST PUSH2 0x1E75 DUP2 DUP4 PUSH2 0x1A48 JUMP JUMPDEST DUP2 ADD SUB SLT PUSH2 0x1E49 JUMPI POP MLOAD SWAP5 DUP5 PUSH2 0x1D58 JUMP JUMPDEST POP RETURNDATASIZE PUSH2 0x1E6B JUMP JUMPDEST DUP5 MLOAD RETURNDATASIZE PUSH1 0x0 DUP3 RETURNDATACOPY RETURNDATASIZE SWAP1 REVERT JUMPDEST DUP7 DUP3 DUP2 RETURNDATASIZE DUP4 GT PUSH2 0x1EC7 JUMPI JUMPDEST PUSH2 0x1EAD DUP2 DUP4 PUSH2 0x1A48 JUMP JUMPDEST DUP2 ADD SUB SLT PUSH2 0x1E49 JUMPI POP PUSH2 0x1EC2 PUSH2 0x1D1B SWAP2 PUSH2 0x1A7D JUMP JUMPDEST PUSH2 0x1D11 JUMP JUMPDEST POP RETURNDATASIZE PUSH2 0x1EA3 JUMP JUMPDEST DUP6 MLOAD RETURNDATASIZE PUSH1 0x0 DUP3 RETURNDATACOPY RETURNDATASIZE SWAP1 REVERT JUMPDEST PUSH1 0x40 MLOAD PUSH3 0x461BCD PUSH1 0xE5 SHL DUP2 MSTORE PUSH1 0x20 PUSH1 0x4 DUP3 ADD MSTORE PUSH1 0xD PUSH1 0x24 DUP3 ADD MSTORE PUSH13 0x496E76616C6964206761756765 PUSH1 0x98 SHL PUSH1 0x44 DUP3 ADD MSTORE PUSH1 0x64 SWAP1 REVERT JUMPDEST DUP1 MLOAD ISZERO PUSH2 0x1F1B JUMPI PUSH1 0x20 ADD SWAP1 JUMP JUMPDEST PUSH4 0x4E487B71 PUSH1 0xE0 SHL PUSH1 0x0 MSTORE PUSH1 0x32 PUSH1 0x4 MSTORE PUSH1 0x24 PUSH1 0x0 REVERT JUMPDEST DUP1 MLOAD DUP3 LT ISZERO PUSH2 0x1F1B JUMPI PUSH1 0x20 SWAP2 PUSH1 0x5 SHL ADD ADD SWAP1 JUMP JUMPDEST SWAP1 SWAP2 PUSH1 0x40 SWAP3 DUP4 MLOAD SWAP3 PUSH2 0x1F56 DUP5 PUSH2 0x1A12 JUMP JUMPDEST PUSH1 0x60 DUP6 PUSH1 0x0 SWAP6 DUP7 DUP2 MSTORE DUP7 PUSH1 0x20 DUP3 ADD MSTORE ADD MSTORE DUP4 JUMPDEST DUP3 MLOAD DUP2 LT ISZERO PUSH2 0x1FCA JUMPI PUSH1 0x1 PUSH1 0x1 PUSH1 0xA0 SHL SUB DUP1 PUSH2 0x1F85 DUP4 DUP7 PUSH2 0x1F31 JUMP JUMPDEST MLOAD MLOAD AND SWAP1 DUP4 AND EQ PUSH2 0x1FB5 JUMPI PUSH1 0x0 NOT DUP2 EQ PUSH2 0x1FA1 JUMPI PUSH1 0x1 ADD PUSH2 0x1F69 JUMP JUMPDEST PUSH4 0x4E487B71 PUSH1 0xE0 SHL DUP6 MSTORE PUSH1 0x11 PUSH1 0x4 MSTORE PUSH1 0x24 DUP6 REVERT JUMPDEST SWAP3 SWAP5 POP POP PUSH2 0x1FC3 SWAP3 POP PUSH2 0x1F31 JUMP JUMPDEST MLOAD SWAP1 PUSH1 0x1 SWAP1 JUMP JUMPDEST POP POP POP SWAP1 SWAP2 DUP1 MLOAD SWAP1 PUSH2 0x1FDB DUP3 PUSH2 0x1A12 JUMP JUMPDEST DUP4 DUP3 MSTORE DUP4 PUSH1 0x20 DUP4 ADD MSTORE DUP1 MLOAD SWAP1 PUSH1 0x20 DUP3 ADD DUP3 DUP2 LT PUSH1 0x1 PUSH1 0x1 PUSH1 0x40 SHL SUB DUP3 GT OR PUSH2 0x2009 JUMPI DUP2 MSTORE DUP5 DUP3 MSTORE DUP3 ADD MSTORE SWAP2 SWAP1 JUMP JUMPDEST PUSH4 0x4E487B71 PUSH1 0xE0 SHL DUP7 MSTORE PUSH1 0x41 PUSH1 0x4 MSTORE PUSH1 0x24 DUP7 REVERT JUMPDEST SWAP4 SWAP2 SWAP1 PUSH1 0x1 PUSH1 0x1 PUSH1 0xA0 SHL SUB DUP2 AND PUSH2 0x26F2 JUMPI POP DUP1 CALLVALUE SUB PUSH2 0x2698 JUMPI PUSH1 0x40 MLOAD PUSH1 0x20 PUSH4 0xD0E30DB PUSH1 0xE4 SHL DUP2 DUP4 ADD MSTORE PUSH1 0x4 DUP3 MSTORE PUSH2 0x2054 DUP3 PUSH2 0x1A2D JUMP JUMPDEST PUSH1 0x40 MLOAD PUSH4 0x468721A7 PUSH1 0xE0 SHL DUP2 MSTORE PUSH32 0x0 PUSH1 0x1 PUSH1 0x1 PUSH1 0xA0 SHL SUB DUP2 AND PUSH1 0x4 DUP4 ADD MSTORE PUSH1 0x24 DUP3 ADD DUP6 SWAP1 MSTORE PUSH1 0x80 PUSH1 0x44 DUP4 ADD MSTORE SWAP3 PUSH2 0x20AE SWAP1 PUSH1 0x84 DUP4 ADD SWAP1 PUSH2 0x1C1C JUMP JUMPDEST SWAP1 DUP3 DUP2 DUP1 PUSH1 0x0 SWAP5 DUP6 PUSH1 0x64 DUP4 ADD MSTORE SUB DUP2 DUP6 PUSH1 0x1 DUP1 PUSH1 0xA0 SHL SUB DUP14 AND GAS CALL SWAP2 DUP3 ISZERO PUSH2 0x268C JUMPI DUP1 SWAP3 PUSH2 0x2654 JUMPI JUMPDEST POP POP ISZERO PUSH2 0x261A JUMPI POP SWAP3 JUMPDEST PUSH1 0x0 SWAP4 PUSH1 0x1 PUSH1 0x1 PUSH1 0xA0 SHL SUB DUP3 AND ISZERO PUSH2 0x25EE JUMPI JUMPDEST PUSH1 0x1 PUSH1 0x1 PUSH1 0xA0 SHL SUB DUP2 DUP2 AND SWAP1 DUP4 AND EQ PUSH2 0x25A9 JUMPI PUSH1 0x3 SLOAD PUSH1 0x40 MLOAD PUSH4 0x95EA7B3 PUSH1 0xE0 SHL PUSH1 0x20 DUP1 DUP4 ADD SWAP2 SWAP1 SWAP2 MSTORE PUSH1 0x1 PUSH1 0x1 PUSH1 0xA0 SHL SUB SWAP1 SWAP3 AND PUSH1 0x24 DUP3 ADD MSTORE PUSH1 0x44 DUP1 DUP3 ADD DUP7 SWAP1 MSTORE DUP2 MSTORE PUSH2 0x2163 SWAP2 SWAP1 PUSH2 0x2148 PUSH1 0x64 DUP3 PUSH2 0x1A48 JUMP JUMPDEST PUSH1 0x40 MLOAD DUP1 SWAP4 DUP2 SWAP3 PUSH4 0x468721A7 PUSH1 0xE0 SHL DUP4 MSTORE DUP7 PUSH1 0x4 DUP5 ADD PUSH2 0x1C41 JUMP JUMPDEST SUB DUP2 PUSH1 0x0 PUSH1 0x1 PUSH1 0x1 PUSH1 0xA0 SHL SUB DUP13 AND GAS CALL SWAP1 DUP2 ISZERO PUSH2 0x375 JUMPI PUSH1 0x0 SWAP2 PUSH2 0x256F JUMPI JUMPDEST POP ISZERO PUSH2 0x2533 JUMPI PUSH2 0x2194 SWAP2 DUP4 DUP6 SWAP3 PUSH2 0x277D JUMP JUMPDEST SWAP2 PUSH2 0x21F5 PUSH1 0x40 DUP1 MLOAD SWAP3 PUSH2 0x21A6 DUP5 PUSH2 0x1A2D JUMP JUMPDEST PUSH1 0x1 DUP5 MSTORE PUSH1 0x0 PUSH1 0x20 DUP6 ADD MSTORE ADD MLOAD SWAP3 PUSH2 0x21E7 PUSH1 0x40 MLOAD SWAP5 DUP6 SWAP3 PUSH1 0x1 DUP1 PUSH1 0xA0 SHL SUB DUP11 AND PUSH1 0x20 DUP6 ADD MSTORE PUSH1 0x40 DUP5 ADD MSTORE PUSH1 0x60 SWAP7 DUP8 DUP5 ADD MSTORE PUSH1 0x80 DUP1 DUP5 ADD MSTORE PUSH1 0xA0 DUP4 ADD SWAP1 PUSH2 0x1C1C JUMP JUMPDEST SUB PUSH1 0x1F NOT DUP2 ADD DUP5 MSTORE DUP4 PUSH2 0x1A48 JUMP JUMPDEST PUSH1 0x40 MLOAD SWAP2 PUSH2 0x2202 DUP4 PUSH2 0x1A2D JUMP JUMPDEST PUSH1 0x1 DUP4 MSTORE PUSH1 0x0 JUMPDEST PUSH1 0x20 DUP2 LT PUSH2 0x2523 JUMPI POP PUSH2 0x221B DUP4 PUSH2 0x1F0E JUMP JUMPDEST MSTORE PUSH2 0x2225 DUP3 PUSH2 0x1F0E JUMP JUMPDEST POP PUSH2 0x4B0 TIMESTAMP ADD TIMESTAMP GT PUSH2 0x1BE3 JUMPI PUSH2 0x2255 SWAP1 PUSH1 0x40 MLOAD SWAP4 PUSH4 0xD64D593 PUSH1 0xE2 SHL PUSH1 0x20 DUP7 ADD MSTORE PUSH1 0x24 DUP6 ADD MSTORE PUSH1 0x84 DUP5 ADD SWAP1 PUSH2 0x1C1C JUMP JUMPDEST PUSH1 0x23 NOT DUP4 DUP3 SUB ADD PUSH1 0x44 DUP5 ADD MSTORE DUP2 MLOAD DUP1 DUP3 MSTORE PUSH1 0x20 DUP3 ADD SWAP2 PUSH1 0x20 DUP1 DUP4 PUSH1 0x5 SHL DUP4 ADD ADD SWAP5 ADD SWAP3 PUSH1 0x0 SWAP2 JUMPDEST DUP4 DUP4 LT PUSH2 0x24F6 JUMPI POP POP POP POP POP DUP2 PUSH2 0x22AB PUSH2 0x22D2 SWAP4 PUSH1 0x20 SWAP4 PUSH2 0x4B0 TIMESTAMP ADD PUSH1 0x64 DUP4 ADD MSTORE SUB PUSH1 0x1F NOT DUP2 ADD DUP4 MSTORE DUP3 PUSH2 0x1A48 JUMP JUMPDEST PUSH1 0x3 SLOAD PUSH1 0x40 MLOAD PUSH4 0x468721A7 PUSH1 0xE0 SHL DUP2 MSTORE SWAP4 DUP5 SWAP3 DUP4 SWAP3 PUSH1 0x1 PUSH1 0x1 PUSH1 0xA0 SHL SUB AND PUSH1 0x4 DUP5 ADD PUSH2 0x1C41 JUMP JUMPDEST SUB DUP2 PUSH1 0x0 PUSH1 0x1 PUSH1 0x1 PUSH1 0xA0 SHL SUB DUP9 AND GAS CALL SWAP1 DUP2 ISZERO PUSH2 0x375 JUMPI PUSH1 0x0 SWAP2 PUSH2 0x24BC JUMPI JUMPDEST POP ISZERO PUSH2 0x247F JUMPI PUSH2 0x2302 JUMPI JUMPDEST POP PUSH1 0x1 SWAP1 JUMP JUMPDEST PUSH1 0x40 MLOAD PUSH4 0x70A08231 PUSH1 0xE0 SHL DUP2 MSTORE PUSH1 0x1 PUSH1 0x1 PUSH1 0xA0 SHL SUB DUP1 DUP4 AND PUSH1 0x4 DUP4 ADD MSTORE SWAP1 SWAP2 SWAP1 PUSH32 0x0 SWAP1 PUSH1 0x20 SWAP1 DUP5 SWAP1 PUSH1 0x24 SWAP1 DUP3 SWAP1 DUP6 AND GAS STATICCALL SWAP3 DUP4 ISZERO PUSH2 0x375 JUMPI PUSH1 0x0 SWAP4 PUSH2 0x244A JUMPI JUMPDEST POP SWAP2 PUSH1 0x20 SWAP2 PUSH2 0x23AA SWAP4 PUSH1 0x40 MLOAD SWAP3 PUSH4 0x2E1A7D4D PUSH1 0xE0 SHL DUP6 DUP6 ADD MSTORE PUSH1 0x24 DUP5 ADD MSTORE PUSH1 0x24 DUP4 MSTORE PUSH2 0x238C DUP4 PUSH2 0x1A12 JUMP JUMPDEST PUSH1 0x0 PUSH1 0x40 MLOAD DUP1 SWAP7 DUP2 SWAP6 DUP3 SWAP5 PUSH4 0x468721A7 PUSH1 0xE0 SHL DUP5 MSTORE PUSH1 0x4 DUP5 ADD PUSH2 0x1C41 JUMP JUMPDEST SUB SWAP3 PUSH1 0x1 PUSH1 0x1 PUSH1 0xA0 SHL SUB AND GAS CALL SWAP1 DUP2 ISZERO PUSH2 0x375 JUMPI PUSH1 0x0 SWAP2 PUSH2 0x2410 JUMPI JUMPDEST POP ISZERO PUSH2 0x23D2 JUMPI CODESIZE PUSH2 0x22FC JUMP JUMPDEST PUSH1 0x40 MLOAD PUSH3 0x461BCD PUSH1 0xE5 SHL DUP2 MSTORE PUSH1 0x20 PUSH1 0x4 DUP3 ADD MSTORE PUSH1 0x16 PUSH1 0x24 DUP3 ADD MSTORE PUSH22 0x15D15512081D5B9DDC985C1C1A5B99C819985A5B1959 PUSH1 0x52 SHL PUSH1 0x44 DUP3 ADD MSTORE PUSH1 0x64 SWAP1 REVERT JUMPDEST SWAP1 PUSH1 0x20 DUP3 RETURNDATASIZE PUSH1 0x20 GT PUSH2 0x2442 JUMPI JUMPDEST DUP2 PUSH2 0x242A PUSH1 0x20 SWAP4 DUP4 PUSH2 0x1A48 JUMP JUMPDEST DUP2 ADD SUB SLT PUSH2 0x1E49 JUMPI POP PUSH2 0x243C SWAP1 PUSH2 0x1A7D JUMP JUMPDEST CODESIZE PUSH2 0x23C6 JUMP JUMPDEST RETURNDATASIZE SWAP2 POP PUSH2 0x241D JUMP JUMPDEST SWAP1 SWAP3 PUSH1 0x20 DUP3 RETURNDATASIZE PUSH1 0x20 GT PUSH2 0x2477 JUMPI JUMPDEST DUP2 PUSH2 0x2465 PUSH1 0x20 SWAP4 DUP4 PUSH2 0x1A48 JUMP JUMPDEST DUP2 ADD SUB SLT PUSH2 0x1E49 JUMPI POP MLOAD SWAP2 PUSH1 0x20 PUSH2 0x2361 JUMP JUMPDEST RETURNDATASIZE SWAP2 POP PUSH2 0x2458 JUMP JUMPDEST PUSH1 0x40 MLOAD PUSH3 0x461BCD PUSH1 0xE5 SHL DUP2 MSTORE PUSH1 0x20 PUSH1 0x4 DUP3 ADD MSTORE PUSH1 0x15 PUSH1 0x24 DUP3 ADD MSTORE PUSH21 0x14DDD85C08195E1958DD5D1A5BDB8819985A5B1959 PUSH1 0x5A SHL PUSH1 0x44 DUP3 ADD MSTORE PUSH1 0x64 SWAP1 REVERT JUMPDEST SWAP1 PUSH1 0x20 DUP3 RETURNDATASIZE PUSH1 0x20 GT PUSH2 0x24EE JUMPI JUMPDEST DUP2 PUSH2 0x24D6 PUSH1 0x20 SWAP4 DUP4 PUSH2 0x1A48 JUMP JUMPDEST DUP2 ADD SUB SLT PUSH2 0x1E49 JUMPI POP PUSH2 0x24E8 SWAP1 PUSH2 0x1A7D JUMP JUMPDEST CODESIZE PUSH2 0x22F1 JUMP JUMPDEST RETURNDATASIZE SWAP2 POP PUSH2 0x24C9 JUMP JUMPDEST SWAP1 SWAP2 SWAP3 SWAP4 SWAP5 PUSH1 0x20 DUP1 PUSH2 0x2514 PUSH1 0x1 SWAP4 PUSH1 0x1F NOT DUP7 DUP3 SUB ADD DUP8 MSTORE DUP10 MLOAD PUSH2 0x1C1C JUMP JUMPDEST SWAP8 ADD SWAP4 ADD SWAP4 ADD SWAP2 SWAP4 SWAP3 SWAP1 PUSH2 0x227C JUMP JUMPDEST DUP1 DUP6 PUSH1 0x20 DUP1 SWAP4 DUP8 ADD ADD MSTORE ADD PUSH2 0x2209 JUMP JUMPDEST PUSH1 0x40 MLOAD PUSH3 0x461BCD PUSH1 0xE5 SHL DUP2 MSTORE PUSH1 0x20 PUSH1 0x4 DUP3 ADD MSTORE PUSH1 0x14 PUSH1 0x24 DUP3 ADD MSTORE PUSH20 0x151BDAD95B88185C1C1C9BDD994819985A5B1959 PUSH1 0x62 SHL PUSH1 0x44 DUP3 ADD MSTORE PUSH1 0x64 SWAP1 REVERT JUMPDEST SWAP1 PUSH1 0x20 DUP3 RETURNDATASIZE PUSH1 0x20 GT PUSH2 0x25A1 JUMPI JUMPDEST DUP2 PUSH2 0x2589 PUSH1 0x20 SWAP4 DUP4 PUSH2 0x1A48 JUMP JUMPDEST DUP2 ADD SUB SLT PUSH2 0x1E49 JUMPI POP PUSH2 0x259B SWAP1 PUSH2 0x1A7D JUMP JUMPDEST CODESIZE PUSH2 0x2182 JUMP JUMPDEST RETURNDATASIZE SWAP2 POP PUSH2 0x257C JUMP JUMPDEST PUSH1 0x40 MLOAD PUSH3 0x461BCD PUSH1 0xE5 SHL DUP2 MSTORE PUSH1 0x20 PUSH1 0x4 DUP3 ADD MSTORE PUSH1 0x19 PUSH1 0x24 DUP3 ADD MSTORE PUSH32 0x43616E6E6F74207377617020746F2073616D6520746F6B656E00000000000000 PUSH1 0x44 DUP3 ADD MSTORE PUSH1 0x64 SWAP1 REVERT JUMPDEST SWAP4 POP POP PUSH32 0x0 PUSH1 0x1 SWAP4 PUSH2 0x20F4 JUMP JUMPDEST PUSH1 0x64 SWAP1 PUSH1 0x40 MLOAD SWAP1 PUSH3 0x461BCD PUSH1 0xE5 SHL DUP3 MSTORE PUSH1 0x4 DUP3 ADD MSTORE PUSH1 0x13 PUSH1 0x24 DUP3 ADD MSTORE PUSH19 0x115512081DDC985C1C1A5B99C819985A5B1959 PUSH1 0x6A SHL PUSH1 0x44 DUP3 ADD MSTORE REVERT JUMPDEST SWAP1 SWAP2 POP DUP3 DUP3 DUP2 RETURNDATASIZE DUP4 GT PUSH2 0x2685 JUMPI JUMPDEST PUSH2 0x266C DUP2 DUP4 PUSH2 0x1A48 JUMP JUMPDEST DUP2 ADD SUB SLT PUSH2 0x1E49 JUMPI POP PUSH2 0x267E SWAP1 PUSH2 0x1A7D JUMP JUMPDEST CODESIZE DUP1 PUSH2 0x20D7 JUMP JUMPDEST POP RETURNDATASIZE PUSH2 0x2662 JUMP JUMPDEST PUSH1 0x40 MLOAD SWAP1 RETURNDATASIZE SWAP1 DUP3 RETURNDATACOPY RETURNDATASIZE SWAP1 REVERT JUMPDEST PUSH1 0x40 MLOAD PUSH3 0x461BCD PUSH1 0xE5 SHL DUP2 MSTORE PUSH1 0x20 PUSH1 0x4 DUP3 ADD MSTORE PUSH1 0x2C PUSH1 0x24 DUP3 ADD MSTORE PUSH32 0x4D73672E76616C7565206D75737420657175616C20616D6F756E74496E20666F PUSH1 0x44 DUP3 ADD MSTORE PUSH12 0xE440DCC2E8D2ECCA408AA89 PUSH1 0xA3 SHL PUSH1 0x64 DUP3 ADD MSTORE PUSH1 0x84 SWAP1 REVERT JUMPDEST SWAP3 CALLVALUE ISZERO PUSH2 0x20E1 JUMPI PUSH1 0x40 MLOAD PUSH3 0x461BCD PUSH1 0xE5 SHL DUP2 MSTORE PUSH1 0x20 PUSH1 0x4 DUP3 ADD MSTORE PUSH1 0x32 PUSH1 0x24 DUP3 ADD MSTORE PUSH32 0x4E6F204554482073686F756C642062652073656E74207768656E20746F6B656E PUSH1 0x44 DUP3 ADD MSTORE PUSH18 0x40D2E640DCDEE840DCC2E8D2ECCA408AA89 PUSH1 0x73 SHL PUSH1 0x64 DUP3 ADD MSTORE PUSH1 0x84 SWAP1 REVERT JUMPDEST PUSH1 0xFF AND PUSH1 0x4D DUP2 GT PUSH2 0x1BE3 JUMPI PUSH1 0xA EXP SWAP1 JUMP JUMPDEST DUP2 DUP2 MUL SWAP3 SWAP2 DUP2 ISZERO SWAP2 DUP5 DIV EQ OR ISZERO PUSH2 0x1BE3 JUMPI JUMP JUMPDEST SWAP1 SWAP3 SWAP2 PUSH1 0x1 PUSH1 0x1 PUSH1 0xA0 SHL SUB SWAP2 DUP3 DUP3 AND SWAP1 DUP4 AND DUP1 DUP3 EQ PUSH2 0x28E2 JUMPI DUP6 ISZERO PUSH2 0x28D7 JUMPI ISZERO PUSH2 0x289C JUMPI ISZERO DUP1 ISZERO PUSH2 0x2897 JUMPI JUMPDEST PUSH2 0x288C JUMPI JUMPDEST PUSH1 0x20 SWAP1 PUSH1 0x4 PUSH1 0x40 MLOAD DUP1 SWAP5 DUP2 SWAP4 PUSH4 0x313CE567 PUSH1 0xE0 SHL DUP4 MSTORE AND GAS STATICCALL SWAP1 DUP2 ISZERO PUSH2 0x375 JUMPI PUSH1 0x0 SWAP2 PUSH2 0x284C JUMPI JUMPDEST POP SWAP1 PUSH1 0x20 ADD MLOAD SWAP1 PUSH1 0x12 PUSH1 0xFF PUSH2 0x27EA DUP4 PUSH2 0x2759 JUMP JUMPDEST SWAP3 AND ADD PUSH1 0xFF DUP2 GT PUSH2 0x1BE3 JUMPI PUSH2 0x2810 SWAP3 PUSH2 0x2805 PUSH2 0x280B SWAP3 PUSH2 0x2759 JUMP JUMPDEST SWAP5 PUSH2 0x276A JUMP JUMPDEST PUSH2 0x276A JUMP JUMPDEST DUP2 ISZERO PUSH2 0x2836 JUMPI PUSH1 0x4 SLOAD SWAP2 PUSH2 0x2710 SWAP3 DUP4 SUB SWAP1 DUP4 DUP3 GT PUSH2 0x1BE3 JUMPI PUSH2 0x2832 SWAP3 DIV PUSH2 0x276A JUMP JUMPDEST DIV SWAP1 JUMP JUMPDEST PUSH4 0x4E487B71 PUSH1 0xE0 SHL PUSH1 0x0 MSTORE PUSH1 0x12 PUSH1 0x4 MSTORE PUSH1 0x24 PUSH1 0x0 REVERT JUMPDEST PUSH1 0x20 DUP2 RETURNDATASIZE DUP3 GT PUSH2 0x2884 JUMPI JUMPDEST DUP2 PUSH2 0x2864 PUSH1 0x20 SWAP4 DUP4 PUSH2 0x1A48 JUMP JUMPDEST DUP2 ADD SUB SLT PUSH2 0x2880 JUMPI MLOAD SWAP1 PUSH1 0xFF DUP3 AND DUP3 SUB PUSH2 0x1E49 JUMPI POP PUSH1 0x20 PUSH2 0x27D6 JUMP JUMPDEST POP DUP1 REVERT JUMPDEST RETURNDATASIZE SWAP2 POP PUSH2 0x2857 JUMP JUMPDEST POP PUSH1 0x2 SLOAD DUP2 AND PUSH2 0x27AE JUMP JUMPDEST PUSH2 0x27A9 JUMP JUMPDEST PUSH1 0x40 MLOAD PUSH3 0x461BCD PUSH1 0xE5 SHL DUP2 MSTORE PUSH1 0x20 PUSH1 0x4 DUP3 ADD MSTORE PUSH1 0x13 PUSH1 0x24 DUP3 ADD MSTORE PUSH19 0x24B73B30B634B21034B7383ABA103A37B5B2B7 PUSH1 0x69 SHL PUSH1 0x44 DUP3 ADD MSTORE PUSH1 0x64 SWAP1 REVERT JUMPDEST POP POP POP POP POP POP PUSH1 0x0 SWAP1 JUMP JUMPDEST POP POP POP POP POP SWAP1 JUMP JUMPDEST SWAP3 SWAP1 SWAP2 DUP1 ISZERO PUSH2 0x293C JUMPI PUSH1 0x2 SLOAD PUSH1 0x1 PUSH1 0x1 PUSH1 0xA0 SHL SUB SWAP1 DUP2 AND SWAP3 SWAP1 DUP5 AND DUP4 EQ PUSH2 0x2932 JUMPI PUSH2 0x2915 SWAP1 DUP5 PUSH2 0x1F45 JUMP JUMPDEST SWAP4 SWAP1 SWAP4 PUSH2 0x2926 JUMPI POP POP POP POP POP PUSH1 0x1 SWAP1 JUMP JUMPDEST PUSH2 0x292F SWAP5 PUSH2 0x201D JUMP JUMPDEST SWAP1 JUMP JUMPDEST POP POP POP POP POP PUSH1 0x1 SWAP1 JUMP JUMPDEST POP POP POP POP PUSH1 0x1 SWAP1 JUMP JUMPDEST MLOAD SWAP1 DUP2 PUSH1 0x2 SIGNEXTEND DUP3 SUB PUSH2 0x368 JUMPI JUMP JUMPDEST MLOAD SWAP1 PUSH1 0x1 PUSH1 0x1 PUSH1 0x80 SHL SUB DUP3 AND DUP3 SUB PUSH2 0x368 JUMPI JUMP JUMPDEST SWAP2 SWAP1 DUP3 PUSH2 0x180 SWAP2 SUB SLT PUSH2 0x368 JUMPI DUP2 MLOAD PUSH1 0x1 PUSH1 0x1 PUSH1 0x60 SHL SUB DUP2 AND DUP2 SUB PUSH2 0x368 JUMPI SWAP2 PUSH2 0x2993 PUSH1 0x20 DUP3 ADD PUSH2 0x1A69 JUMP JUMPDEST SWAP2 PUSH2 0x29A0 PUSH1 0x40 DUP4 ADD PUSH2 0x1A69 JUMP JUMPDEST SWAP2 PUSH2 0x29AD PUSH1 0x60 DUP3 ADD PUSH2 0x1A69 JUMP JUMPDEST SWAP2 PUSH2 0x29BA PUSH1 0x80 DUP4 ADD PUSH2 0x2945 JUMP JUMPDEST SWAP2 PUSH2 0x29C7 PUSH1 0xA0 DUP3 ADD PUSH2 0x2945 JUMP JUMPDEST SWAP2 PUSH2 0x29D4 PUSH1 0xC0 DUP4 ADD PUSH2 0x2945 JUMP JUMPDEST SWAP2 PUSH2 0x29E1 PUSH1 0xE0 DUP3 ADD PUSH2 0x2953 JUMP JUMPDEST SWAP2 PUSH2 0x100 DUP3 ADD MLOAD SWAP2 PUSH2 0x120 DUP2 ADD MLOAD SWAP2 PUSH2 0x292F PUSH2 0x160 PUSH2 0x2A03 PUSH2 0x140 DUP6 ADD PUSH2 0x2953 JUMP JUMPDEST SWAP4 ADD PUSH2 0x2953 JUMP JUMPDEST PUSH1 0x40 DUP1 MLOAD SWAP4 SWAP1 SWAP3 SWAP2 PUSH1 0x1 PUSH1 0x1 PUSH1 0x40 SHL SUB SWAP2 PUSH1 0x1 PUSH1 0x1 PUSH1 0xA0 SHL SUB SWAP2 DUP3 AND SWAP2 SWAP1 PUSH1 0x80 DUP8 ADD DUP5 DUP2 GT DUP9 DUP3 LT OR PUSH2 0x4E6 JUMPI DUP7 MSTORE DUP7 MSTORE PUSH1 0x20 DUP7 ADD DUP3 DUP2 MSTORE DUP6 DUP8 ADD SWAP2 PUSH1 0x1 PUSH1 0x1 PUSH1 0x80 SHL SUB SWAP3 DUP4 SWAP2 DUP3 DUP3 MSTORE PUSH1 0x60 DUP11 ADD SWAP4 DUP4 DUP6 MSTORE DUP10 MLOAD SWAP11 PUSH4 0xFC6F7865 PUSH1 0xE0 SHL PUSH1 0x20 DUP14 ADD MSTORE MLOAD PUSH1 0x24 DUP13 ADD MSTORE MLOAD AND PUSH1 0x44 DUP11 ADD MSTORE MLOAD AND PUSH1 0x64 DUP9 ADD MSTORE MLOAD AND PUSH1 0x84 DUP7 ADD MSTORE PUSH1 0x84 DUP6 MSTORE PUSH1 0xC0 DUP6 ADD SWAP3 DUP6 DUP5 LT DUP4 DUP6 GT OR PUSH2 0x4E6 JUMPI DUP4 DUP1 SWAP3 DUP2 DUP8 MSTORE PUSH4 0x5229073F PUSH1 0xE0 SHL DUP3 MSTORE PUSH1 0x0 SWAP6 DUP7 DUP1 SWAP5 DUP11 PUSH2 0x2AC3 DUP2 PUSH1 0xBF NOT SWAP4 PUSH1 0xC4 DUP3 ADD PUSH2 0x1C41 JUMP JUMPDEST SUB ADD SWAP3 GAS CALL SWAP5 DUP6 ISZERO PUSH2 0x2BC0 JUMPI DUP4 SWAP3 DUP5 SWAP7 PUSH2 0x2B2E JUMPI JUMPDEST POP POP POP ISZERO PUSH2 0x2AF9 JUMPI DUP2 DUP4 DUP1 MLOAD DUP2 ADD SUB SLT PUSH2 0x1E49 JUMPI POP PUSH1 0x20 DUP3 ADD MLOAD SWAP2 ADD MLOAD SWAP1 SWAP2 JUMP JUMPDEST DUP2 MLOAD PUSH3 0x461BCD PUSH1 0xE5 SHL DUP2 MSTORE PUSH1 0x20 PUSH1 0x4 DUP3 ADD MSTORE PUSH1 0xE PUSH1 0x24 DUP3 ADD MSTORE PUSH14 0x10DBDB1B1958DD0819985A5B1959 PUSH1 0x92 SHL PUSH1 0x44 DUP3 ADD MSTORE PUSH1 0x64 SWAP1 REVERT JUMPDEST SWAP2 SWAP6 POP SWAP2 POP RETURNDATASIZE DUP1 DUP5 DUP8 RETURNDATACOPY PUSH2 0x2B42 DUP2 DUP8 PUSH2 0x1A48 JUMP JUMPDEST DUP3 ADD SWAP5 DUP5 DUP4 PUSH1 0xC0 DUP9 ADD SWAP8 SUB SLT PUSH2 0x2BB8 JUMPI PUSH2 0x2B5B SWAP1 PUSH2 0x1A7D JUMP JUMPDEST SWAP2 PUSH1 0xE0 DUP2 ADD MLOAD SWAP2 DUP3 GT PUSH2 0x2BB8 JUMPI ADD DUP5 PUSH1 0xDF DUP3 ADD SLT ISZERO PUSH2 0x2BBC JUMPI PUSH1 0xC0 DUP2 ADD MLOAD SWAP1 PUSH2 0x2B83 DUP3 PUSH2 0x1ACC JUMP JUMPDEST SWAP6 PUSH2 0x2B90 DUP7 MLOAD SWAP8 DUP9 PUSH2 0x1A48 JUMP JUMPDEST DUP3 DUP8 MSTORE PUSH1 0xE0 DUP4 DUP4 ADD ADD GT PUSH2 0x2BB8 JUMPI SWAP1 PUSH2 0x2BB0 SWAP2 PUSH1 0xE0 PUSH1 0x20 DUP9 ADD SWAP2 ADD PUSH2 0x1BF9 JUMP JUMPDEST CODESIZE DUP1 DUP1 PUSH2 0x2AD8 JUMP JUMPDEST DUP4 DUP1 REVERT JUMPDEST DUP3 DUP1 REVERT JUMPDEST DUP5 MLOAD RETURNDATASIZE DUP6 DUP3 RETURNDATACOPY RETURNDATASIZE SWAP1 REVERT JUMPDEST PUSH1 0x2 SLOAD PUSH1 0x40 MLOAD PUSH4 0x70A08231 PUSH1 0xE0 SHL DUP2 MSTORE PUSH1 0x1 PUSH1 0x1 PUSH1 0xA0 SHL SUB SWAP3 DUP4 AND PUSH1 0x4 DUP3 ADD MSTORE SWAP2 PUSH1 0x20 SWAP2 DUP4 SWAP2 PUSH1 0x24 SWAP2 DUP4 SWAP2 AND GAS STATICCALL SWAP1 DUP2 ISZERO PUSH2 0x375 JUMPI PUSH1 0x0 SWAP2 PUSH2 0x2C0A JUMPI POP SWAP1 JUMP JUMPDEST SWAP1 PUSH1 0x20 DUP3 RETURNDATASIZE DUP3 GT PUSH2 0x2C30 JUMPI JUMPDEST DUP2 PUSH2 0x2C23 PUSH1 0x20 SWAP4 DUP4 PUSH2 0x1A48 JUMP JUMPDEST DUP2 ADD SUB SLT PUSH2 0x1E49 JUMPI POP MLOAD SWAP1 JUMP JUMPDEST RETURNDATASIZE SWAP2 POP PUSH2 0x2C16 JUMP INVALID 0xC4 JUMPI 0xDA 0xBB SHR 0xD0 TIMESTAMP 0x2F 0x2D 0x4E 0xE0 0xE3 JUMPDEST 0xED 0x2D ORIGIN 0x4C DUP10 PUSH32 0xF52CA6D0033A86D6A43CE80502A26469706673582212201718DDCADB27C2126C DUP9 RETURN 0x5C JUMPDEST 0x49 CODESIZE 0xAB PUSH22 0xDF92B6F00928F58781D18114141D1164736F6C634300 ADDMOD EQ STOP CALLER "
        },
        "methodIdentifiers": {
          "WETH()": "ad5c4648",
          "approvePool(address)": "424c265b",
          "approvedPools(address)": "f0bbcec4",
          "collectAndConvertFees(address,uint256,(address,uint256,bytes)[])": "d0427219",
          "owner()": "8da5cb5b",
          "removePool(address)": "3b7d0946",
          "renounceOwnership()": "715018a6",
          "rewardStable()": "f2bf87e3",
          "rewardToken()": "f7c618c1",
          "setRewardStable(address)": "c13d2f75",
          "setRewardToken(address)": "8aee8127",
          "setSlippageTolerance(uint256)": "117da1ee",
          "slippageTolerance()": "d03153aa",
          "stakeAndCollect(address,uint256,(address,uint256,bytes)[])": "e5faa0b6",
          "swap(address,uint256,address,bool,(address,uint256,bytes)[])": "2e5f9b40",
          "transferOwnership(address)": "f2fde38b",
          "universalRouter()": "35a9e4df",
          "unstakeAndCollect(address,uint256,(address,uint256,bytes)[])": "27eb9514",
          "withdrawAndCollect(address,uint256,(address,uint256,bytes)[])": "fa3c5a79"
        }
      }
    }
  }
}