{
  "contracts/CholoDromeModule.sol": {
    "CholoDromeModule": {
      "abi": [
        {
          "inputs": [
            {
              "internalType": "address",
              "name": "_owner",
              "type": "address"
            },
            {
              "internalType": "address",
              "name": "_rewardToken",
              "type": "address"
            },
            {
              "internalType": "address",
              "name": "_rewardStable",
              "type": "address"
            },
            {
              "internalType": "address",
              "name": "_swapRouter",
              "type": "address"
            },
            {
              "internalType": "address",
              "name": "_weth",
              "type": "address"
            }
          ],
          "stateMutability": "nonpayable",
          "type": "constructor"
        },
        {
          "inputs": [
            {
              "internalType": "address",
              "name": "owner",
              "type": "address"
            }
          ],
          "name": "OwnableInvalidOwner",
          "type": "error"
        },
        {
          "inputs": [
            {
              "internalType": "address",
              "name": "account",
              "type": "address"
            }
          ],
          "name": "OwnableUnauthorizedAccount",
          "type": "error"
        },
        {
          "anonymous": false,
          "inputs": [
            {
              "indexed": true,
              "internalType": "address",
              "name": "safe",
              "type": "address"
            },
            {
              "indexed": true,
              "internalType": "address",
              "name": "pool",
              "type": "address"
            },
            {
              "indexed": false,
              "internalType": "uint256",
              "name": "tokenId",
              "type": "uint256"
            }
          ],
          "name": "DepositMaxCompleted",
          "type": "event"
        },
        {
          "anonymous": false,
          "inputs": [
            {
              "indexed": true,
              "internalType": "address",
              "name": "safe",
              "type": "address"
            },
            {
              "indexed": true,
              "internalType": "address",
              "name": "pool",
              "type": "address"
            },
            {
              "indexed": false,
              "internalType": "uint256",
              "name": "tokenId",
              "type": "uint256"
            },
            {
              "indexed": false,
              "internalType": "uint256",
              "name": "amount0",
              "type": "uint256"
            },
            {
              "indexed": false,
              "internalType": "uint256",
              "name": "amount1",
              "type": "uint256"
            },
            {
              "indexed": false,
              "internalType": "uint256",
              "name": "veloAmount",
              "type": "uint256"
            },
            {
              "indexed": false,
              "internalType": "uint256",
              "name": "totalUsdtAmount",
              "type": "uint256"
            }
          ],
          "name": "EarningsCollected",
          "type": "event"
        },
        {
          "anonymous": false,
          "inputs": [
            {
              "indexed": true,
              "internalType": "address",
              "name": "previousOwner",
              "type": "address"
            },
            {
              "indexed": true,
              "internalType": "address",
              "name": "newOwner",
              "type": "address"
            }
          ],
          "name": "OwnershipTransferred",
          "type": "event"
        },
        {
          "anonymous": false,
          "inputs": [
            {
              "indexed": true,
              "internalType": "address",
              "name": "safe",
              "type": "address"
            },
            {
              "indexed": true,
              "internalType": "address",
              "name": "pool",
              "type": "address"
            }
          ],
          "name": "PoolApproved",
          "type": "event"
        },
        {
          "anonymous": false,
          "inputs": [
            {
              "indexed": true,
              "internalType": "address",
              "name": "safe",
              "type": "address"
            },
            {
              "indexed": true,
              "internalType": "address",
              "name": "pool",
              "type": "address"
            }
          ],
          "name": "PoolRemoved",
          "type": "event"
        },
        {
          "anonymous": false,
          "inputs": [
            {
              "indexed": true,
              "internalType": "address",
              "name": "oldStable",
              "type": "address"
            },
            {
              "indexed": true,
              "internalType": "address",
              "name": "newStable",
              "type": "address"
            }
          ],
          "name": "RewardStableUpdated",
          "type": "event"
        },
        {
          "anonymous": false,
          "inputs": [
            {
              "indexed": true,
              "internalType": "address",
              "name": "oldToken",
              "type": "address"
            },
            {
              "indexed": true,
              "internalType": "address",
              "name": "newToken",
              "type": "address"
            }
          ],
          "name": "RewardTokenUpdated",
          "type": "event"
        },
        {
          "anonymous": false,
          "inputs": [
            {
              "indexed": false,
              "internalType": "uint256",
              "name": "oldTolerance",
              "type": "uint256"
            },
            {
              "indexed": false,
              "internalType": "uint256",
              "name": "newTolerance",
              "type": "uint256"
            }
          ],
          "name": "SlippageToleranceUpdated",
          "type": "event"
        },
        {
          "inputs": [],
          "name": "WETH",
          "outputs": [
            {
              "internalType": "address",
              "name": "",
              "type": "address"
            }
          ],
          "stateMutability": "view",
          "type": "function"
        },
        {
          "inputs": [
            {
              "internalType": "address",
              "name": "pool",
              "type": "address"
            }
          ],
          "name": "approvePool",
          "outputs": [],
          "stateMutability": "nonpayable",
          "type": "function"
        },
        {
          "inputs": [
            {
              "internalType": "address",
              "name": "",
              "type": "address"
            }
          ],
          "name": "approvedPools",
          "outputs": [
            {
              "internalType": "bool",
              "name": "",
              "type": "bool"
            }
          ],
          "stateMutability": "view",
          "type": "function"
        },
        {
          "inputs": [
            {
              "internalType": "address",
              "name": "pool",
              "type": "address"
            },
            {
              "internalType": "uint256",
              "name": "tokenId",
              "type": "uint256"
            },
            {
              "components": [
                {
                  "internalType": "address",
                  "name": "token",
                  "type": "address"
                },
                {
                  "internalType": "uint256",
                  "name": "price",
                  "type": "uint256"
                }
              ],
              "internalType": "struct CholoDromeModule.TokenPrice[]",
              "name": "tokenPrices",
              "type": "tuple[]"
            }
          ],
          "name": "collectAndConvertFees",
          "outputs": [],
          "stateMutability": "nonpayable",
          "type": "function"
        },
        {
          "inputs": [],
          "name": "owner",
          "outputs": [
            {
              "internalType": "address",
              "name": "",
              "type": "address"
            }
          ],
          "stateMutability": "view",
          "type": "function"
        },
        {
          "inputs": [
            {
              "internalType": "address",
              "name": "pool",
              "type": "address"
            }
          ],
          "name": "removePool",
          "outputs": [],
          "stateMutability": "nonpayable",
          "type": "function"
        },
        {
          "inputs": [],
          "name": "renounceOwnership",
          "outputs": [],
          "stateMutability": "nonpayable",
          "type": "function"
        },
        {
          "inputs": [],
          "name": "rewardStable",
          "outputs": [
            {
              "internalType": "address",
              "name": "",
              "type": "address"
            }
          ],
          "stateMutability": "view",
          "type": "function"
        },
        {
          "inputs": [],
          "name": "rewardToken",
          "outputs": [
            {
              "internalType": "address",
              "name": "",
              "type": "address"
            }
          ],
          "stateMutability": "view",
          "type": "function"
        },
        {
          "inputs": [
            {
              "internalType": "address",
              "name": "_newRewardStable",
              "type": "address"
            }
          ],
          "name": "setRewardStable",
          "outputs": [],
          "stateMutability": "nonpayable",
          "type": "function"
        },
        {
          "inputs": [
            {
              "internalType": "address",
              "name": "_newRewardToken",
              "type": "address"
            }
          ],
          "name": "setRewardToken",
          "outputs": [],
          "stateMutability": "nonpayable",
          "type": "function"
        },
        {
          "inputs": [
            {
              "internalType": "uint256",
              "name": "_slippageTolerance",
              "type": "uint256"
            }
          ],
          "name": "setSlippageTolerance",
          "outputs": [],
          "stateMutability": "nonpayable",
          "type": "function"
        },
        {
          "inputs": [
            {
              "components": [
                {
                  "internalType": "address",
                  "name": "fromToken",
                  "type": "address"
                },
                {
                  "internalType": "address",
                  "name": "toToken",
                  "type": "address"
                },
                {
                  "internalType": "bytes",
                  "name": "path",
                  "type": "bytes"
                }
              ],
              "internalType": "struct CholoDromeModule.SwapPathData[]",
              "name": "paths",
              "type": "tuple[]"
            }
          ],
          "name": "setSwapPaths",
          "outputs": [],
          "stateMutability": "nonpayable",
          "type": "function"
        },
        {
          "inputs": [],
          "name": "slippageTolerance",
          "outputs": [
            {
              "internalType": "uint256",
              "name": "",
              "type": "uint256"
            }
          ],
          "stateMutability": "view",
          "type": "function"
        },
        {
          "inputs": [
            {
              "internalType": "address",
              "name": "pool",
              "type": "address"
            },
            {
              "internalType": "uint256",
              "name": "tokenId",
              "type": "uint256"
            },
            {
              "components": [
                {
                  "internalType": "address",
                  "name": "token",
                  "type": "address"
                },
                {
                  "internalType": "uint256",
                  "name": "price",
                  "type": "uint256"
                }
              ],
              "internalType": "struct CholoDromeModule.TokenPrice[]",
              "name": "tokenPrices",
              "type": "tuple[]"
            }
          ],
          "name": "stakeAndCollect",
          "outputs": [],
          "stateMutability": "nonpayable",
          "type": "function"
        },
        {
          "inputs": [
            {
              "internalType": "address",
              "name": "token",
              "type": "address"
            },
            {
              "internalType": "uint256",
              "name": "amountIn",
              "type": "uint256"
            },
            {
              "internalType": "address",
              "name": "toToken",
              "type": "address"
            },
            {
              "internalType": "bool",
              "name": "isEarning",
              "type": "bool"
            },
            {
              "components": [
                {
                  "internalType": "address",
                  "name": "token",
                  "type": "address"
                },
                {
                  "internalType": "uint256",
                  "name": "price",
                  "type": "uint256"
                }
              ],
              "internalType": "struct CholoDromeModule.TokenPrice[]",
              "name": "tokenPrices",
              "type": "tuple[]"
            }
          ],
          "name": "swap",
          "outputs": [],
          "stateMutability": "payable",
          "type": "function"
        },
        {
          "inputs": [
            {
              "internalType": "address",
              "name": "",
              "type": "address"
            },
            {
              "internalType": "address",
              "name": "",
              "type": "address"
            }
          ],
          "name": "swapPaths",
          "outputs": [
            {
              "internalType": "bytes",
              "name": "",
              "type": "bytes"
            }
          ],
          "stateMutability": "view",
          "type": "function"
        },
        {
          "inputs": [],
          "name": "swapRouter",
          "outputs": [
            {
              "internalType": "address",
              "name": "",
              "type": "address"
            }
          ],
          "stateMutability": "view",
          "type": "function"
        },
        {
          "inputs": [
            {
              "internalType": "address",
              "name": "newOwner",
              "type": "address"
            }
          ],
          "name": "transferOwnership",
          "outputs": [],
          "stateMutability": "nonpayable",
          "type": "function"
        },
        {
          "inputs": [
            {
              "internalType": "address",
              "name": "pool",
              "type": "address"
            },
            {
              "internalType": "uint256",
              "name": "tokenId",
              "type": "uint256"
            },
            {
              "components": [
                {
                  "internalType": "address",
                  "name": "token",
                  "type": "address"
                },
                {
                  "internalType": "uint256",
                  "name": "price",
                  "type": "uint256"
                }
              ],
              "internalType": "struct CholoDromeModule.TokenPrice[]",
              "name": "tokenPrices",
              "type": "tuple[]"
            }
          ],
          "name": "unstakeAndCollect",
          "outputs": [],
          "stateMutability": "nonpayable",
          "type": "function"
        },
        {
          "inputs": [
            {
              "internalType": "address",
              "name": "pool",
              "type": "address"
            },
            {
              "internalType": "uint256",
              "name": "tokenId",
              "type": "uint256"
            },
            {
              "components": [
                {
                  "internalType": "address",
                  "name": "token",
                  "type": "address"
                },
                {
                  "internalType": "uint256",
                  "name": "price",
                  "type": "uint256"
                }
              ],
              "internalType": "struct CholoDromeModule.TokenPrice[]",
              "name": "tokenPrices",
              "type": "tuple[]"
            }
          ],
          "name": "withdrawAndCollect",
          "outputs": [],
          "stateMutability": "nonpayable",
          "type": "function"
        }
      ],
      "evm": {
        "bytecode": {
          "linkReferences": {},
          "object": "60a0346200027a57601f6200328a38819003918201601f191683019291906001600160401b038411838510176200027f578160a092849260409687528339810103126200027a57620000518162000295565b6200005f6020830162000295565b6200006c84840162000295565b92620000896080620000816060840162000295565b920162000295565b936001600160a01b039384169283156200026257600080546001600160a01b0319808216871783559587939290918416907f8be0079c531659141344cd1fd0a4f28419497f9722a3daafe3b4186f6b6457e09080a361012c600455169081156200021e578416918215620001da57841693841562000196578516156200015257826001541617600155816002541617600255600354161760035560805251612fdf9081620002ab823960805181818161060b015281816123020152818161251301526127cb0152f35b855162461bcd60e51b815260206004820152601460248201527f496e76616c6964205745544820616464726573730000000000000000000000006044820152606490fd5b865162461bcd60e51b815260206004820152601360248201527f496e76616c6964207377617020726f75746572000000000000000000000000006044820152606490fd5b865162461bcd60e51b815260206004820152601560248201527f496e76616c69642072657761726420737461626c6500000000000000000000006044820152606490fd5b865162461bcd60e51b815260206004820152601460248201527f496e76616c69642072657761726420746f6b656e0000000000000000000000006044820152606490fd5b8651631e4fbdf760e01b815260006004820152602490fd5b600080fd5b634e487b7160e01b600052604160045260246000fd5b51906001600160a01b03821682036200027a5756fe6080604052600436101561001257600080fd5b60003560e01c8063019556a3146117555780630b43791c146112af578063117da1ee146112185780633b7d0946146111a7578063424c265b1461113357806346ed0e6914610f5b5780634a6a749c14610eee578063715018a614610e955780637fcf111c14610ce25780638aee812714610c365780638da5cb5b14610c0d578063956468521461063a578063ad5c4648146105f5578063c13d2f7514610548578063c31c9c071461051f578063d03153aa14610501578063f0bbcec4146104c2578063f2bf87e314610499578063f2fde38b14610410578063f7c618c1146103e75763fb0b57b51461010357600080fd5b346103e25760203660031901126103e2576001600160401b03600435116103e2573660236004350112156103e2576001600160401b0360043560040135116103e257600536602460043560040135831b6004350101116103e257610165611db4565b6000905b60043560040135821061017857005b60043582821b810160240135903603608219018112156103e2576004350191602483019260018060a01b03806101ad86611e1b565b16156103a857604480830192826101c385611e1b565b1615610371576064809101916101d98389611e2f565b90501561034157505090806101f26101fa949388611e2f565b949097611e1b565b166000526006602052610211604060002092611e1b565b166000526020526040600020906001600160401b03811161032b576102368254611c35565b601f908181116102e8575b50600090821160011461028257819060019596600092610277575b5050600019600383901b1c191690841b1790555b0190610169565b01359050388061025c565b601f198216958360005260206000209160005b8881106102d057508360019798106102b6575b505050831b83019055610270565b0135600019600384901b60f8161c191690553880806102a8565b90926020600181928686013581550194019101610295565b83600052602060002082808501881c82019260208610610322575b01871c01905b8181106103165750610241565b60008155600101610309565b92508192610303565b634e487b7160e01b600052604160045260246000fd5b6b092dcecc2d8d2c840e0c2e8d60a31b6040519162461bcd60e51b835260206004840152600c6024840152820152fd5b60405162461bcd60e51b815260206004820152601060248201526f24b73b30b634b2103a37903a37b5b2b760811b81840152606490fd5b60405162461bcd60e51b815260206004820152601260248201527124b73b30b634b210333937b6903a37b5b2b760711b6044820152606490fd5b600080fd5b346103e25760003660031901126103e2576001546040516001600160a01b039091168152602090f35b346103e25760203660031901126103e257610429611ba9565b610431611db4565b6001600160a01b0390811690811561048057600054826001600160601b0360a01b821617600055167f8be0079c531659141344cd1fd0a4f28419497f9722a3daafe3b4186f6b6457e0600080a3005b604051631e4fbdf760e01b815260006004820152602490fd5b346103e25760003660031901126103e2576002546040516001600160a01b039091168152602090f35b346103e25760203660031901126103e2576001600160a01b036104e3611ba9565b166000526005602052602060ff604060002054166040519015158152f35b346103e25760003660031901126103e2576020600454604051908152f35b346103e25760003660031901126103e2576003546040516001600160a01b039091168152602090f35b346103e25760203660031901126103e257610561611ba9565b610569611db4565b6001600160a01b039081169081156105b857600254826001600160601b0360a01b821617600255167f9d4858dccb76debed7845fd87ec5c769962d072d518c9e34182581abb3e8247c600080a3005b60405162461bcd60e51b8152602060048201526015602482015274496e76616c69642072657761726420737461626c6560581b6044820152606490fd5b346103e25760003660031901126103e2576040517f00000000000000000000000000000000000000000000000000000000000000006001600160a01b03168152602090f35b346103e25761064836611bef565b9060018060a01b038416600052600560205261066b60ff60406000205416611e61565b6040516323e6650160e11b8152936020856004816001600160a01b0385165afa9485156108bd57600095610bd1575b5060405163133f757160e31b8152600481018590526101809586826024816001600160a01b0385165afa80156108bd57600092600098600092610b91575b50506106e333612f1b565b6040516329bc672160e21b815260009790969194916020886004816001600160a01b038b165afa80156108bd57600090610b56575b60405163c69deec560e01b8152336004820152602481018c9052985060208980604481015b03816001600160a01b0385165afa9889156108bd57600099610b1a575b5088610a8a575b5060009a60009815610a2e575b505050506001600160801b0381166108c9575b50602081610793886107d39433612d4d565b5050604051630852cd8d60e31b8382015260248082018a90528152906107b882611c8a565b60405163468721a760e01b8152938492839260048401611fe9565b03816000335af19081156108bd57600091610883575b501561085057600080516020612f8a8339815191529361081461084b9261080f33612f1b565b611fc6565b9060405194859460018060a01b0316983398869192608093969594919660a084019784526020840152604083015260608201520152565b0390a3005b60405162461bcd60e51b815260206004820152600b60248201526a109d5c9b8819985a5b195960aa1b6044820152606490fd5b90506020813d6020116108b5575b8161089e60209383611ca5565b810103126103e2576108af90611ecb565b876107e9565b3d9150610891565b6040513d6000823e3d90fd5b604051908160a08101106001600160401b0360a08401111761032b5760a082016040528782526001600160801b03602083019116815260408201600081526060830190600082526001600160801b03608085019342855260405195630624e65f60e11b6020880152516024870152511660448501525160648401525160848301525160a482015260a4815260e081018181106001600160401b0382111761032b57604081905263468721a760e01b815260208160df198461098e818860e48201611fe9565b0301816000335af19182156108bd576000926109f7575b5050156109b25787610781565b60405162461bcd60e51b815260206004820152601960248201527f4465637265617365206c6971756964697479206661696c6564000000000000006044820152606490fd5b6020809293503d8311610a27575b610a0f8185611ca5565b810103126103e257610a2090611ecb565b88806109a5565b503d610a05565b919750919950610a3f898533612d4d565b90978198809c81610a73575b5050811561076e57610a6993610a62913691611f1a565b9133612bf6565b508880808061076e565b610a8291610a62368589611f1a565b508c80610a4b565b604051633e491d4760e01b8152336004820152602481018c90529099506020816044816001600160a01b038e165afa80156108bd57600090610ae6575b610ae09150998b610ad9368686611f1a565b913361205e565b8b610761565b506020813d602011610b12575b81610b0060209383611ca5565b810103126103e257610ae09051610ac7565b3d9150610af3565b9098506020813d602011610b4e575b81610b3660209383611ca5565b810103126103e257610b4790611ecb565b978c61075a565b3d9150610b29565b506020883d602011610b89575b81610b7060209383611ca5565b810103126103e257610b8461073d98611eb7565b610718565b3d9150610b63565b9150919750610bb59250803d10610bca575b610bad8183611ca5565b810190612caa565b505050509b95505050509250919688806106d8565b503d610ba3565b9094506020813d602011610c05575b81610bed60209383611ca5565b810103126103e257610bfe90611eb7565b938561069a565b3d9150610be0565b346103e25760003660031901126103e2576000546040516001600160a01b039091168152602090f35b346103e25760203660031901126103e257610c4f611ba9565b610c57611db4565b6001600160a01b03908116908115610ca657600154826001600160601b0360a01b821617600155167f906ff2422a6ffa134f2d7ccaffd446bc0c583a5cb6615749b4b2836942a5fea8600080a3005b60405162461bcd60e51b815260206004820152601460248201527324b73b30b634b2103932bbb0b932103a37b5b2b760611b6044820152606490fd5b60a03660031901126103e257610cf6611ba9565b604435906001600160a01b03821690602435908284036103e2576064359384151585036103e2576084356001600160401b0381116103e257610d3c903690600401611bbf565b9390948015600014610dae575090610d679291610d60610d6f963331963691611f1a565b92336122b6565b503331611fc6565b905b610d7757005b600090604051908282528260208301528260408301526060820152816080820152600080516020612f8a83398151915260a03392a3005b949192604051936370a0823160e01b9283865233600487015260209485876024818c5afa9687156108bd57600097610e5a575b5090610d60610df69493928798993691611f1a565b5060246040518096819382523360048301525afa9081156108bd57600091610e2a575b50610e249250611fc6565b90610d71565b905082813d8311610e53575b610e408183611ca5565b810103126103e257610e24915184610e19565b503d610e36565b9596509291908686813d8111610e8e575b610e758183611ca5565b810103126103e257945195949192909190610d60610de1565b503d610e6b565b346103e25760003660031901126103e257610eae611db4565b600080546001600160a01b0319811682556001600160a01b03167f8be0079c531659141344cd1fd0a4f28419497f9722a3daafe3b4186f6b6457e08280a3005b346103e25760403660031901126103e257610f07611ba9565b6001600160a01b0360243581811692908390036103e257166000526006602052604060002090600052602052610f57610f436040600020611cc6565b604051918291602083526020830190611d8f565b0390f35b346103e257610f6936611bef565b60018060a09593951b03809216938460005260209260058452610f9360ff60406000205416611e61565b6040516329bc672160e21b81529084826004818a5afa9182156108bd576000926110fc575b5060405163c69deec560e01b815233600482015260248101879052908216908581604481855afa80156108bd576000906110c6575b610ff79150611ed8565b61100033612f1b565b604051633e491d4760e01b815233600482015260248101889052909390918690839060449082905afa9485156108bd57879260009661108c575b509260009492610ad96110529361105b963691611f1a565b61080f33612f1b565b926040519485528401526000604084015260608301526080820152600080516020612f8a83398151915260a03392a3005b87809297508193959694503d83116110bf575b6110a98183611ca5565b810103126103e25751939092918691600061103a565b503d61109f565b508581813d83116110f5575b6110dc8183611ca5565b810103126103e2576110f0610ff791611ecb565b610fed565b503d6110d2565b9091508481813d831161112c575b6111148183611ca5565b810103126103e25761112590611eb7565b9087610fb8565b503d61110a565b346103e25760203660031901126103e25761114c611ba9565b611154611db4565b6001600160a01b0316611168811515611de0565b6000818152600560205260408120805460ff191660011790557ffc1f1e73948cbc47c5b7f90e5601b7daccd9ad7173218486ccc74bdd051d05e88180a3005b346103e25760203660031901126103e2576111c0611ba9565b6111c8611db4565b6001600160a01b03166111dc811515611de0565b6000818152600560205260408120805460ff191690557f987eb3c2f78454541205f72f34839b434c306c9eaf4922efd7c0c3060fdb2e4c8180a3005b346103e25760203660031901126103e257600435611234611db4565b6103e881116112765760407fddd31550b26e9ef8ade466958be83ff8a014d9b4f36d546b61a6847a4530657591600454908060045582519182526020820152a1005b60405162461bcd60e51b81526020600482015260116024820152700a6d8d2e0e0c2ceca40e8dede40d0d2ced607b1b6044820152606490fd5b346103e2576112bd36611bef565b60018060a01b03809416938460005260056020526112e260ff60406000205416611e61565b6040516323e6650160e11b815290602082600481895afa9182156108bd57600092611719575b506040516329bc672160e21b8152906020826004818a5afa9182156108bd576000926116dd575b5060405163c69deec560e01b8152336004820152602481018790526020816044818686165afa9081156108bd576000916116a3575b5061165e5761137233612f1b565b926040519563133f757160e31b87528760048801526101809687816024818787165afa9081156108bd5760009860009261162e575b50506113b4898433612d4d565b9781998992611617575b50816115fe575b5050505060405163e985e9c560e01b815233600482015282841660248201526020816044818686165afa9081156108bd576000916115c4575b50156114fa575b50506020611430916040519063b6b55f2560e01b83830152876024830152602482526107b882611c8a565b03816000335af19081156108bd576000916114c0575b501561148c576114599061080f33612f1b565b9160405193845260208401526040830152600060608301526080820152600080516020612f8a83398151915260a03392a3005b60405162461bcd60e51b815260206004820152600c60248201526b14dd185ad94819985a5b195960a21b6044820152606490fd5b90506020813d6020116114f2575b816114db60209383611ca5565b810103126103e2576114ec90611ecb565b86611446565b3d91506114ce565b61152c916020916040519163a22cb46560e01b848401528516602483015260016044830152604482526107b882611c6f565b03816000335af19081156108bd5760009161158a575b501561154f578680611405565b60405162461bcd60e51b815260206004820152601360248201527213919508185c1c1c9bdd985b0819985a5b1959606a1b6044820152606490fd5b90506020813d6020116115bc575b816115a560209383611ca5565b810103126103e2576115b690611ecb565b87611542565b3d9150611598565b90506020813d6020116115f6575b816115df60209383611ca5565b810103126103e2576115f090611ecb565b896113fe565b3d91506115d2565b61160d93610a62913691611f1a565b50888086816113c5565b611627908b610a62368589611f1a565b508c6113be565b61164993995080919250903d10610bca57610bad8183611ca5565b50505050505050509892509050968a806113a7565b60405162461bcd60e51b815260206004820152601760248201527f506f736974696f6e20616c7265616479207374616b65640000000000000000006044820152606490fd5b90506020813d6020116116d5575b816116be60209383611ca5565b810103126103e2576116cf90611ecb565b88611364565b3d91506116b1565b9091506020813d602011611711575b816116f960209383611ca5565b810103126103e25761170a90611eb7565b908761132f565b3d91506116ec565b9091506020813d60201161174d575b8161173560209383611ca5565b810103126103e25761174690611eb7565b9086611308565b3d9150611728565b346103e25761176336611bef565b9260018060a01b03169283600052600560205261178760ff60406000205416611e61565b6040516323e6650160e11b815290602082600481885afa9182156108bd57600092611b6d575b506040516329bc672160e21b8152602081600481895afa9081156108bd57600091611b33575b506117dd33612f1b565b60405163c69deec560e01b815233600482015260248101879052909460009485946001600160a01b038516939091908690602081604481895afa9081156108bd57600091611af9575b50156119fe575050604051633e491d4760e01b81523360048201526024810189905292602090849060449082905afa9283156108bd576000936119ca575b508293836118bf575b5050505061084b90611891600080516020612f8a8339815191529561080f33612f1b565b906040519485943398869192608093969594919660a084019784526020840152604083015260608201520152565b60206118ee9160409993949695995190631c4b774b60e01b838301528b6024830152602482526107b882611c8a565b03816000335af19081156108bd57600091611990575b501561194b5761194361193e61189193600080516020612f8a83398151915299610a6261084b9860018060a01b0360015416933691611f1a565b61201a565b95829361186d565b60405162461bcd60e51b815260206004820152601760248201527f47617567652067657420726577617264206661696c65640000000000000000006044820152606490fd5b90506020813d6020116119c2575b816119ab60209383611ca5565b810103126103e2576119bc90611ecb565b8a611904565b3d915061199e565b9092506020813d6020116119f6575b816119e660209383611ca5565b810103126103e257519189611864565b3d91506119d9565b60405163133f757160e31b8152600481018b90529198929750909550610180945092509083856024816001600160a01b038b165afa80156108bd57600080516020612f8a833981519152978996600096600093611aba575b505090611a6d61084b969761189195949333612d4d565b90988199809981611aa3575b505081611a8a575b50505050611052565b611a9993610a62913691611f1a565b5089808080611a81565b611ab291610a62368589611f1a565b508d80611a79565b61084b975061189195949350611a6d9181611ae092903d10610bca57610bad8183611ca5565b50505050505050509a9250905098939495509796611a56565b90506020813d602011611b2b575b81611b1460209383611ca5565b810103126103e257611b2590611ecb565b8c611826565b3d9150611b07565b90506020813d602011611b65575b81611b4e60209383611ca5565b810103126103e257611b5f90611eb7565b866117d3565b3d9150611b41565b9091506020813d602011611ba1575b81611b8960209383611ca5565b810103126103e257611b9a90611eb7565b90856117ad565b3d9150611b7c565b600435906001600160a01b03821682036103e257565b9181601f840112156103e2578235916001600160401b0383116103e2576020808501948460061b0101116103e257565b60606003198201126103e2576004356001600160a01b03811681036103e2579160243591604435906001600160401b0382116103e257611c3191600401611bbf565b9091565b90600182811c92168015611c65575b6020831014611c4f57565b634e487b7160e01b600052602260045260246000fd5b91607f1691611c44565b608081019081106001600160401b0382111761032b57604052565b606081019081106001600160401b0382111761032b57604052565b90601f801991011681019081106001600160401b0382111761032b57604052565b9060405191826000825492611cda84611c35565b908184526001948581169081600014611d495750600114611d06575b5050611d0492500383611ca5565b565b9093915060005260209081600020936000915b818310611d31575050611d0493508201013880611cf6565b85548884018501529485019487945091830191611d19565b915050611d0494506020925060ff191682840152151560051b8201013880611cf6565b60005b838110611d7f5750506000910152565b8181015183820152602001611d6f565b90602091611da881518092818552858086019101611d6c565b601f01601f1916010190565b6000546001600160a01b03163303611dc857565b60405163118cdaa760e01b8152336004820152602490fd5b15611de757565b60405162461bcd60e51b815260206004820152600c60248201526b125b9d985b1a59081c1bdbdb60a21b6044820152606490fd5b356001600160a01b03811681036103e25790565b903590601e19813603018212156103e257018035906001600160401b0382116103e2576020019181360383136103e257565b15611e6857565b60405162461bcd60e51b815260206004820152602160248201527f506f6f6c206e6f7420617070726f76656420666f722074686973206d6f64756c6044820152606560f81b6064820152608490fd5b51906001600160a01b03821682036103e257565b519081151582036103e257565b15611edf57565b60405162461bcd60e51b8152602060048201526013602482015272141bdcda5d1a5bdb881b9bdd081cdd185ad959606a1b6044820152606490fd5b6001600160401b03939284831161032b57604092835195602092611f43848460051b0189611ca5565b8388848152019260061b8501948186116103e257925b858410611f695750505050505050565b86848303126103e25786519087820182811085821117611fb15788528435906001600160a01b03821682036103e2578287928a94528287013583820152815201930192611f59565b60246000634e487b7160e01b81526041600452fd5b91908203918211611fd357565b634e487b7160e01b600052601160045260246000fd5b929161201560609160009360018060a01b03168652836020870152608060408701526080860190611d8f565b930152565b1561202157565b60405162461bcd60e51b815260206004820152601560248201527414ddd85c081d1bc81cdd18589b194819985a5b1959605a1b6044820152606490fd5b926001600160a01b03929091838116918215612281576040805163c69deec560e01b81528688166001600160a01b038116600483015260248201849052602094929392909185816044818a5afa801561227657600090612240575b6120c39150611ed8565b8351633e491d4760e01b81526001600160a01b038316600482015260248101849052958590879060449082905afa95861561223557600096612206575b5091849161214693855192632e1a7d4d60e01b8585015260248401526024835261212983611c8a565b6000865180968195829463468721a760e01b845260048401611fe9565b03925af19081156121fb576000916121c3575b50156121885750508061216d575b50505050565b61217f9361193e936001541690612bf6565b38808080612167565b60649250519062461bcd60e51b82526004820152601560248201527411d85d59d9481dda5d1a191c985dc819985a5b1959605a1b6044820152fd5b908382813d83116121f4575b6121d98183611ca5565b810103126121f157506121eb90611ecb565b38612159565b80fd5b503d6121cf565b82513d6000823e3d90fd5b90958582813d831161222e575b61221d8183611ca5565b810103126121f15750519484612100565b503d612213565b84513d6000823e3d90fd5b8682813d831161226f575b6122558183611ca5565b810103126121f1575061226a6120c391611ecb565b6120b9565b503d61224b565b85513d6000823e3d90fd5b60405162461bcd60e51b815260206004820152600d60248201526c496e76616c696420676175676560981b6044820152606490fd5b92916001600160a01b03918083166128cd5750803403612873576040516020630d0e30db60e41b818301526004825260408201918083106001600160401b0384111761032b57826040527f00000000000000000000000000000000000000000000000000000000000000009263468721a760e01b81528584166044830152846064830152608060848301528583828a8161235360c4880188611d8f565b60009586918260a48b015289603f1991030193165af1928315612866578490829461282c575b50505050156127f25750925b600091838216156127c6575b83821696848616888114612781576000526020976006895260406000209060005288526123c16040600020611cc6565b928351156127485760035460405163095ea7b360e01b8b8201529087166001600160a01b031660248201526044808201859052815297869061240460648b611ca5565b16966040518a818061242563468721a760e01b9d8e83528660048401611fe9565b038160008d5af19081156108bd57600091612713575b50156126d75793836124596124a8946124ca948d976124e3996129aa565b6040519261246684611c6f565b8352858301918a835260408401908152606084019182528960405196879563b858183f60e01b8a880152896024880152516080604488015260c4870190611d8f565b93511660648501525160848401525160a483015203601f198101835282611ca5565b846003541660405193849283928a845260048401611fe9565b03816000885af19081156108bd576000916126a2575b50156126655761250d575b50505050600190565b602491847f000000000000000000000000000000000000000000000000000000000000000092604051948580926370a0823160e01b825285600483015286165afa9182156108bd578593600093612630575b50600061259d9560405194632e1a7d4d60e01b8787015260248601526024855261258885611c8a565b60405196879586948593845260048401611fe9565b03925af19081156108bd576000916125fb575b50156125be57808080612504565b6064906040519062461bcd60e51b82526004820152601660248201527515d15512081d5b9ddc985c1c1a5b99c819985a5b195960521b6044820152fd5b908282813d8311612629575b6126118183611ca5565b810103126121f1575061262390611ecb565b386125b0565b503d612607565b919382819492943d831161265e575b6126498183611ca5565b810103126121f157505184929091600061255f565b503d61263f565b60405162461bcd60e51b815260048101869052601560248201527414ddd85c08195e1958dd5d1a5bdb8819985a5b1959605a1b6044820152606490fd5b908682813d83116126d0575b6126b88183611ca5565b810103126121f157506126ca90611ecb565b386124f9565b503d6126ae565b60405162461bcd60e51b8152600481018b90526014602482015273151bdad95b88185c1c1c9bdd994819985a5b195960621b6044820152606490fd5b908b82813d8311612741575b6127298183611ca5565b810103126121f1575061273b90611ecb565b3861243b565b503d61271f565b60405162461bcd60e51b8152600481018a9052601160248201527014ddd85c081c185d1a081b9bdd081cd95d607a1b6044820152606490fd5b60405162461bcd60e51b815260206004820152601960248201527f43616e6e6f74207377617020746f2073616d6520746f6b656e000000000000006044820152606490fd5b9150507f0000000000000000000000000000000000000000000000000000000000000000600191612391565b6064906040519062461bcd60e51b825260048201526013602482015272115512081ddc985c1c1a5b99c819985a5b1959606a1b6044820152fd5b9080929394503d831161285f575b6128448186611ca5565b810103126121f1575061285690611ecb565b38808381612379565b503d61283a565b50604051903d90823e3d90fd5b60405162461bcd60e51b815260206004820152602c60248201527f4d73672e76616c7565206d75737420657175616c20616d6f756e74496e20666f60448201526b0e440dcc2e8d2ecca408aa8960a31b6064820152608490fd5b9234156123855760405162461bcd60e51b815260206004820152603260248201527f4e6f204554482073686f756c642062652073656e74207768656e20746f6b656e604482015271040d2e640dcdee840dcc2e8d2ecca408aa8960731b6064820152608490fd5b908160209103126103e2575160ff811681036103e25790565b6000198114611fd35760010190565b80518210156129705760209160051b010190565b634e487b7160e01b600052603260045260246000fd5b81810292918115918404141715611fd357565b60ff16604d8111611fd357600a0a90565b92936001600160a01b03938416939092811691848314612bed578015612be2576040519263313ce56760e01b91828552602060049881878b818c5afa9687156108bd57600097612bc3575b5060405194855281858b81875afa9485156108bd57600095612b94575b50600090819082958398845b8351811015612b81578d82612a33838761295c565b51511614612b66575b8282612a48838761295c565b51511614612b4b575b8580612b44575b612a6a57612a659061294d565b612a1e565b50505050909192939495969798505b81612b3c575b5015612b035750612ab09392612aa4612a9e612aa494612aaa94612986565b91612999565b90612986565b93612999565b908115612aee5783549161271092830391838311612ad957612ad59394955004612986565b0490565b601186634e487b7160e01b6000525260246000fd5b601284634e487b7160e01b6000525260246000fd5b876064916040519162461bcd60e51b835282015260136024820152724d697373696e6720746f6b656e20707269636560681b6044820152fd5b905038612a7f565b5084612a58565b9350985084612b5a848461295c565b51015198600193612a51565b9450965084612b75858461295c565b51015196600194612a3c565b5050505090919293949596979850612a79565b612bb5919550823d8411612bbc575b612bad8183611ca5565b810190612934565b9338612a12565b503d612ba3565b612bdb919750823d8411612bbc57612bad8183611ca5565b95386129f5565b505050915050600090565b93505050915090565b9192908315612504576002546001600160a01b039490851691808616808414612c7c57600096875b8651811015612c6f578282612c33838a61295c565b51511614612c4957612c449061294d565b612c1e565b50505090919293945060015b612c63575050505050600190565b612c6c946122b6565b90565b5050509091929394612c55565b50505050505050600190565b51908160020b82036103e257565b51906001600160801b03821682036103e257565b9190826101809103126103e25781516001600160601b03811681036103e25791612cd660208201611eb7565b91612ce360408301611eb7565b91612cf060608201611eb7565b91612cfd60808301612c88565b91612d0a60a08201612c88565b91612d1760c08301612c88565b91612d2460e08201612c96565b916101008201519161012081015191612c6c610160612d466101408501612c96565b9301612c96565b604080519390926001600160a01b0392831691612d6986611c6f565b8552602092838601838152858701916001600160801b0392839182825260608a019383855289519a63fc6f786560e01b8a8d01525160248c0152511660448a015251166064880152511660848601526084855260c08501916001600160401b03918684108385111761032b57838092818852635229073f60e01b82526000958680948b612dfd8160bf199360c48201611fe9565b0301925af1958615612f115783928497612e65575b50505015612e315782848051810103126121f157508201519101519091565b50606491519062461bcd60e51b82526004820152600e60248201526d10dbdb1b1958dd0819985a5b195960921b6044820152fd5b91965091503d8084883e612e798188611ca5565b820195858360c08901980312612ef557612e9290611ecb565b9160e081015190828211612f0d57018660df82011215612ef55760c0810151918211612ef957855196612ece601f8401601f1916870189611ca5565b82885260e08383010111612ef55790612eed9160e08689019101611d6c565b388080612e12565b8380fd5b634e487b7160e01b84526041600452602484fd5b8480fd5b85513d85823e3d90fd5b6002546040516370a0823160e01b81526001600160a01b0392831660048201529160209183916024918391165afa9081156108bd57600091612f5b575090565b906020823d8211612f81575b81612f7460209383611ca5565b810103126121f157505190565b3d9150612f6756fec457dabb1cd0422f2d4ee0e35bed2d324c897ff52ca6d0033a86d6a43ce80502a264697066735822122031b4ca7b59ad6af5c744ea029dd5ce8b776846539ddccd0ed55b95c8c8cdeecc64736f6c63430008140033",
          "opcodes": "PUSH1 0xA0 CALLVALUE PUSH3 0x27A JUMPI PUSH1 0x1F PUSH3 0x328A CODESIZE DUP2 SWAP1 SUB SWAP2 DUP3 ADD PUSH1 0x1F NOT AND DUP4 ADD SWAP3 SWAP2 SWAP1 PUSH1 0x1 PUSH1 0x1 PUSH1 0x40 SHL SUB DUP5 GT DUP4 DUP6 LT OR PUSH3 0x27F JUMPI DUP2 PUSH1 0xA0 SWAP3 DUP5 SWAP3 PUSH1 0x40 SWAP7 DUP8 MSTORE DUP4 CODECOPY DUP2 ADD SUB SLT PUSH3 0x27A JUMPI PUSH3 0x51 DUP2 PUSH3 0x295 JUMP JUMPDEST PUSH3 0x5F PUSH1 0x20 DUP4 ADD PUSH3 0x295 JUMP JUMPDEST PUSH3 0x6C DUP5 DUP5 ADD PUSH3 0x295 JUMP JUMPDEST SWAP3 PUSH3 0x89 PUSH1 0x80 PUSH3 0x81 PUSH1 0x60 DUP5 ADD PUSH3 0x295 JUMP JUMPDEST SWAP3 ADD PUSH3 0x295 JUMP JUMPDEST SWAP4 PUSH1 0x1 PUSH1 0x1 PUSH1 0xA0 SHL SUB SWAP4 DUP5 AND SWAP3 DUP4 ISZERO PUSH3 0x262 JUMPI PUSH1 0x0 DUP1 SLOAD PUSH1 0x1 PUSH1 0x1 PUSH1 0xA0 SHL SUB NOT DUP1 DUP3 AND DUP8 OR DUP4 SSTORE SWAP6 DUP8 SWAP4 SWAP3 SWAP1 SWAP2 DUP5 AND SWAP1 PUSH32 0x8BE0079C531659141344CD1FD0A4F28419497F9722A3DAAFE3B4186F6B6457E0 SWAP1 DUP1 LOG3 PUSH2 0x12C PUSH1 0x4 SSTORE AND SWAP1 DUP2 ISZERO PUSH3 0x21E JUMPI DUP5 AND SWAP2 DUP3 ISZERO PUSH3 0x1DA JUMPI DUP5 AND SWAP4 DUP5 ISZERO PUSH3 0x196 JUMPI DUP6 AND ISZERO PUSH3 0x152 JUMPI DUP3 PUSH1 0x1 SLOAD AND OR PUSH1 0x1 SSTORE DUP2 PUSH1 0x2 SLOAD AND OR PUSH1 0x2 SSTORE PUSH1 0x3 SLOAD AND OR PUSH1 0x3 SSTORE PUSH1 0x80 MSTORE MLOAD PUSH2 0x2FDF SWAP1 DUP2 PUSH3 0x2AB DUP3 CODECOPY PUSH1 0x80 MLOAD DUP2 DUP2 DUP2 PUSH2 0x60B ADD MSTORE DUP2 DUP2 PUSH2 0x2302 ADD MSTORE DUP2 DUP2 PUSH2 0x2513 ADD MSTORE PUSH2 0x27CB ADD MSTORE RETURN JUMPDEST DUP6 MLOAD PUSH3 0x461BCD PUSH1 0xE5 SHL DUP2 MSTORE PUSH1 0x20 PUSH1 0x4 DUP3 ADD MSTORE PUSH1 0x14 PUSH1 0x24 DUP3 ADD MSTORE PUSH32 0x496E76616C696420574554482061646472657373000000000000000000000000 PUSH1 0x44 DUP3 ADD MSTORE PUSH1 0x64 SWAP1 REVERT JUMPDEST DUP7 MLOAD PUSH3 0x461BCD PUSH1 0xE5 SHL DUP2 MSTORE PUSH1 0x20 PUSH1 0x4 DUP3 ADD MSTORE PUSH1 0x13 PUSH1 0x24 DUP3 ADD MSTORE PUSH32 0x496E76616C6964207377617020726F7574657200000000000000000000000000 PUSH1 0x44 DUP3 ADD MSTORE PUSH1 0x64 SWAP1 REVERT JUMPDEST DUP7 MLOAD PUSH3 0x461BCD PUSH1 0xE5 SHL DUP2 MSTORE PUSH1 0x20 PUSH1 0x4 DUP3 ADD MSTORE PUSH1 0x15 PUSH1 0x24 DUP3 ADD MSTORE PUSH32 0x496E76616C69642072657761726420737461626C650000000000000000000000 PUSH1 0x44 DUP3 ADD MSTORE PUSH1 0x64 SWAP1 REVERT JUMPDEST DUP7 MLOAD PUSH3 0x461BCD PUSH1 0xE5 SHL DUP2 MSTORE PUSH1 0x20 PUSH1 0x4 DUP3 ADD MSTORE PUSH1 0x14 PUSH1 0x24 DUP3 ADD MSTORE PUSH32 0x496E76616C69642072657761726420746F6B656E000000000000000000000000 PUSH1 0x44 DUP3 ADD MSTORE PUSH1 0x64 SWAP1 REVERT JUMPDEST DUP7 MLOAD PUSH4 0x1E4FBDF7 PUSH1 0xE0 SHL DUP2 MSTORE PUSH1 0x0 PUSH1 0x4 DUP3 ADD MSTORE PUSH1 0x24 SWAP1 REVERT JUMPDEST PUSH1 0x0 DUP1 REVERT JUMPDEST PUSH4 0x4E487B71 PUSH1 0xE0 SHL PUSH1 0x0 MSTORE PUSH1 0x41 PUSH1 0x4 MSTORE PUSH1 0x24 PUSH1 0x0 REVERT JUMPDEST MLOAD SWAP1 PUSH1 0x1 PUSH1 0x1 PUSH1 0xA0 SHL SUB DUP3 AND DUP3 SUB PUSH3 0x27A JUMPI JUMP INVALID PUSH1 0x80 PUSH1 0x40 MSTORE PUSH1 0x4 CALLDATASIZE LT ISZERO PUSH2 0x12 JUMPI PUSH1 0x0 DUP1 REVERT JUMPDEST PUSH1 0x0 CALLDATALOAD PUSH1 0xE0 SHR DUP1 PUSH4 0x19556A3 EQ PUSH2 0x1755 JUMPI DUP1 PUSH4 0xB43791C EQ PUSH2 0x12AF JUMPI DUP1 PUSH4 0x117DA1EE EQ PUSH2 0x1218 JUMPI DUP1 PUSH4 0x3B7D0946 EQ PUSH2 0x11A7 JUMPI DUP1 PUSH4 0x424C265B EQ PUSH2 0x1133 JUMPI DUP1 PUSH4 0x46ED0E69 EQ PUSH2 0xF5B JUMPI DUP1 PUSH4 0x4A6A749C EQ PUSH2 0xEEE JUMPI DUP1 PUSH4 0x715018A6 EQ PUSH2 0xE95 JUMPI DUP1 PUSH4 0x7FCF111C EQ PUSH2 0xCE2 JUMPI DUP1 PUSH4 0x8AEE8127 EQ PUSH2 0xC36 JUMPI DUP1 PUSH4 0x8DA5CB5B EQ PUSH2 0xC0D JUMPI DUP1 PUSH4 0x95646852 EQ PUSH2 0x63A JUMPI DUP1 PUSH4 0xAD5C4648 EQ PUSH2 0x5F5 JUMPI DUP1 PUSH4 0xC13D2F75 EQ PUSH2 0x548 JUMPI DUP1 PUSH4 0xC31C9C07 EQ PUSH2 0x51F JUMPI DUP1 PUSH4 0xD03153AA EQ PUSH2 0x501 JUMPI DUP1 PUSH4 0xF0BBCEC4 EQ PUSH2 0x4C2 JUMPI DUP1 PUSH4 0xF2BF87E3 EQ PUSH2 0x499 JUMPI DUP1 PUSH4 0xF2FDE38B EQ PUSH2 0x410 JUMPI DUP1 PUSH4 0xF7C618C1 EQ PUSH2 0x3E7 JUMPI PUSH4 0xFB0B57B5 EQ PUSH2 0x103 JUMPI PUSH1 0x0 DUP1 REVERT JUMPDEST CALLVALUE PUSH2 0x3E2 JUMPI PUSH1 0x20 CALLDATASIZE PUSH1 0x3 NOT ADD SLT PUSH2 0x3E2 JUMPI PUSH1 0x1 PUSH1 0x1 PUSH1 0x40 SHL SUB PUSH1 0x4 CALLDATALOAD GT PUSH2 0x3E2 JUMPI CALLDATASIZE PUSH1 0x23 PUSH1 0x4 CALLDATALOAD ADD SLT ISZERO PUSH2 0x3E2 JUMPI PUSH1 0x1 PUSH1 0x1 PUSH1 0x40 SHL SUB PUSH1 0x4 CALLDATALOAD PUSH1 0x4 ADD CALLDATALOAD GT PUSH2 0x3E2 JUMPI PUSH1 0x5 CALLDATASIZE PUSH1 0x24 PUSH1 0x4 CALLDATALOAD PUSH1 0x4 ADD CALLDATALOAD DUP4 SHL PUSH1 0x4 CALLDATALOAD ADD ADD GT PUSH2 0x3E2 JUMPI PUSH2 0x165 PUSH2 0x1DB4 JUMP JUMPDEST PUSH1 0x0 SWAP1 JUMPDEST PUSH1 0x4 CALLDATALOAD PUSH1 0x4 ADD CALLDATALOAD DUP3 LT PUSH2 0x178 JUMPI STOP JUMPDEST PUSH1 0x4 CALLDATALOAD DUP3 DUP3 SHL DUP2 ADD PUSH1 0x24 ADD CALLDATALOAD SWAP1 CALLDATASIZE SUB PUSH1 0x82 NOT ADD DUP2 SLT ISZERO PUSH2 0x3E2 JUMPI PUSH1 0x4 CALLDATALOAD ADD SWAP2 PUSH1 0x24 DUP4 ADD SWAP3 PUSH1 0x1 DUP1 PUSH1 0xA0 SHL SUB DUP1 PUSH2 0x1AD DUP7 PUSH2 0x1E1B JUMP JUMPDEST AND ISZERO PUSH2 0x3A8 JUMPI PUSH1 0x44 DUP1 DUP4 ADD SWAP3 DUP3 PUSH2 0x1C3 DUP6 PUSH2 0x1E1B JUMP JUMPDEST AND ISZERO PUSH2 0x371 JUMPI PUSH1 0x64 DUP1 SWAP2 ADD SWAP2 PUSH2 0x1D9 DUP4 DUP10 PUSH2 0x1E2F JUMP JUMPDEST SWAP1 POP ISZERO PUSH2 0x341 JUMPI POP POP SWAP1 DUP1 PUSH2 0x1F2 PUSH2 0x1FA SWAP5 SWAP4 DUP9 PUSH2 0x1E2F JUMP JUMPDEST SWAP5 SWAP1 SWAP8 PUSH2 0x1E1B JUMP JUMPDEST AND PUSH1 0x0 MSTORE PUSH1 0x6 PUSH1 0x20 MSTORE PUSH2 0x211 PUSH1 0x40 PUSH1 0x0 KECCAK256 SWAP3 PUSH2 0x1E1B JUMP JUMPDEST AND PUSH1 0x0 MSTORE PUSH1 0x20 MSTORE PUSH1 0x40 PUSH1 0x0 KECCAK256 SWAP1 PUSH1 0x1 PUSH1 0x1 PUSH1 0x40 SHL SUB DUP2 GT PUSH2 0x32B JUMPI PUSH2 0x236 DUP3 SLOAD PUSH2 0x1C35 JUMP JUMPDEST PUSH1 0x1F SWAP1 DUP2 DUP2 GT PUSH2 0x2E8 JUMPI JUMPDEST POP PUSH1 0x0 SWAP1 DUP3 GT PUSH1 0x1 EQ PUSH2 0x282 JUMPI DUP2 SWAP1 PUSH1 0x1 SWAP6 SWAP7 PUSH1 0x0 SWAP3 PUSH2 0x277 JUMPI JUMPDEST POP POP PUSH1 0x0 NOT PUSH1 0x3 DUP4 SWAP1 SHL SHR NOT AND SWAP1 DUP5 SHL OR SWAP1 SSTORE JUMPDEST ADD SWAP1 PUSH2 0x169 JUMP JUMPDEST ADD CALLDATALOAD SWAP1 POP CODESIZE DUP1 PUSH2 0x25C JUMP JUMPDEST PUSH1 0x1F NOT DUP3 AND SWAP6 DUP4 PUSH1 0x0 MSTORE PUSH1 0x20 PUSH1 0x0 KECCAK256 SWAP2 PUSH1 0x0 JUMPDEST DUP9 DUP2 LT PUSH2 0x2D0 JUMPI POP DUP4 PUSH1 0x1 SWAP8 SWAP9 LT PUSH2 0x2B6 JUMPI JUMPDEST POP POP POP DUP4 SHL DUP4 ADD SWAP1 SSTORE PUSH2 0x270 JUMP JUMPDEST ADD CALLDATALOAD PUSH1 0x0 NOT PUSH1 0x3 DUP5 SWAP1 SHL PUSH1 0xF8 AND SHR NOT AND SWAP1 SSTORE CODESIZE DUP1 DUP1 PUSH2 0x2A8 JUMP JUMPDEST SWAP1 SWAP3 PUSH1 0x20 PUSH1 0x1 DUP2 SWAP3 DUP7 DUP7 ADD CALLDATALOAD DUP2 SSTORE ADD SWAP5 ADD SWAP2 ADD PUSH2 0x295 JUMP JUMPDEST DUP4 PUSH1 0x0 MSTORE PUSH1 0x20 PUSH1 0x0 KECCAK256 DUP3 DUP1 DUP6 ADD DUP9 SHR DUP3 ADD SWAP3 PUSH1 0x20 DUP7 LT PUSH2 0x322 JUMPI JUMPDEST ADD DUP8 SHR ADD SWAP1 JUMPDEST DUP2 DUP2 LT PUSH2 0x316 JUMPI POP PUSH2 0x241 JUMP JUMPDEST PUSH1 0x0 DUP2 SSTORE PUSH1 0x1 ADD PUSH2 0x309 JUMP JUMPDEST SWAP3 POP DUP2 SWAP3 PUSH2 0x303 JUMP JUMPDEST PUSH4 0x4E487B71 PUSH1 0xE0 SHL PUSH1 0x0 MSTORE PUSH1 0x41 PUSH1 0x4 MSTORE PUSH1 0x24 PUSH1 0x0 REVERT JUMPDEST PUSH12 0x92DCECC2D8D2C840E0C2E8D PUSH1 0xA3 SHL PUSH1 0x40 MLOAD SWAP2 PUSH3 0x461BCD PUSH1 0xE5 SHL DUP4 MSTORE PUSH1 0x20 PUSH1 0x4 DUP5 ADD MSTORE PUSH1 0xC PUSH1 0x24 DUP5 ADD MSTORE DUP3 ADD MSTORE REVERT JUMPDEST PUSH1 0x40 MLOAD PUSH3 0x461BCD PUSH1 0xE5 SHL DUP2 MSTORE PUSH1 0x20 PUSH1 0x4 DUP3 ADD MSTORE PUSH1 0x10 PUSH1 0x24 DUP3 ADD MSTORE PUSH16 0x24B73B30B634B2103A37903A37B5B2B7 PUSH1 0x81 SHL DUP2 DUP5 ADD MSTORE PUSH1 0x64 SWAP1 REVERT JUMPDEST PUSH1 0x40 MLOAD PUSH3 0x461BCD PUSH1 0xE5 SHL DUP2 MSTORE PUSH1 0x20 PUSH1 0x4 DUP3 ADD MSTORE PUSH1 0x12 PUSH1 0x24 DUP3 ADD MSTORE PUSH18 0x24B73B30B634B210333937B6903A37B5B2B7 PUSH1 0x71 SHL PUSH1 0x44 DUP3 ADD MSTORE PUSH1 0x64 SWAP1 REVERT JUMPDEST PUSH1 0x0 DUP1 REVERT JUMPDEST CALLVALUE PUSH2 0x3E2 JUMPI PUSH1 0x0 CALLDATASIZE PUSH1 0x3 NOT ADD SLT PUSH2 0x3E2 JUMPI PUSH1 0x1 SLOAD PUSH1 0x40 MLOAD PUSH1 0x1 PUSH1 0x1 PUSH1 0xA0 SHL SUB SWAP1 SWAP2 AND DUP2 MSTORE PUSH1 0x20 SWAP1 RETURN JUMPDEST CALLVALUE PUSH2 0x3E2 JUMPI PUSH1 0x20 CALLDATASIZE PUSH1 0x3 NOT ADD SLT PUSH2 0x3E2 JUMPI PUSH2 0x429 PUSH2 0x1BA9 JUMP JUMPDEST PUSH2 0x431 PUSH2 0x1DB4 JUMP JUMPDEST PUSH1 0x1 PUSH1 0x1 PUSH1 0xA0 SHL SUB SWAP1 DUP2 AND SWAP1 DUP2 ISZERO PUSH2 0x480 JUMPI PUSH1 0x0 SLOAD DUP3 PUSH1 0x1 PUSH1 0x1 PUSH1 0x60 SHL SUB PUSH1 0xA0 SHL DUP3 AND OR PUSH1 0x0 SSTORE AND PUSH32 0x8BE0079C531659141344CD1FD0A4F28419497F9722A3DAAFE3B4186F6B6457E0 PUSH1 0x0 DUP1 LOG3 STOP JUMPDEST PUSH1 0x40 MLOAD PUSH4 0x1E4FBDF7 PUSH1 0xE0 SHL DUP2 MSTORE PUSH1 0x0 PUSH1 0x4 DUP3 ADD MSTORE PUSH1 0x24 SWAP1 REVERT JUMPDEST CALLVALUE PUSH2 0x3E2 JUMPI PUSH1 0x0 CALLDATASIZE PUSH1 0x3 NOT ADD SLT PUSH2 0x3E2 JUMPI PUSH1 0x2 SLOAD PUSH1 0x40 MLOAD PUSH1 0x1 PUSH1 0x1 PUSH1 0xA0 SHL SUB SWAP1 SWAP2 AND DUP2 MSTORE PUSH1 0x20 SWAP1 RETURN JUMPDEST CALLVALUE PUSH2 0x3E2 JUMPI PUSH1 0x20 CALLDATASIZE PUSH1 0x3 NOT ADD SLT PUSH2 0x3E2 JUMPI PUSH1 0x1 PUSH1 0x1 PUSH1 0xA0 SHL SUB PUSH2 0x4E3 PUSH2 0x1BA9 JUMP JUMPDEST AND PUSH1 0x0 MSTORE PUSH1 0x5 PUSH1 0x20 MSTORE PUSH1 0x20 PUSH1 0xFF PUSH1 0x40 PUSH1 0x0 KECCAK256 SLOAD AND PUSH1 0x40 MLOAD SWAP1 ISZERO ISZERO DUP2 MSTORE RETURN JUMPDEST CALLVALUE PUSH2 0x3E2 JUMPI PUSH1 0x0 CALLDATASIZE PUSH1 0x3 NOT ADD SLT PUSH2 0x3E2 JUMPI PUSH1 0x20 PUSH1 0x4 SLOAD PUSH1 0x40 MLOAD SWAP1 DUP2 MSTORE RETURN JUMPDEST CALLVALUE PUSH2 0x3E2 JUMPI PUSH1 0x0 CALLDATASIZE PUSH1 0x3 NOT ADD SLT PUSH2 0x3E2 JUMPI PUSH1 0x3 SLOAD PUSH1 0x40 MLOAD PUSH1 0x1 PUSH1 0x1 PUSH1 0xA0 SHL SUB SWAP1 SWAP2 AND DUP2 MSTORE PUSH1 0x20 SWAP1 RETURN JUMPDEST CALLVALUE PUSH2 0x3E2 JUMPI PUSH1 0x20 CALLDATASIZE PUSH1 0x3 NOT ADD SLT PUSH2 0x3E2 JUMPI PUSH2 0x561 PUSH2 0x1BA9 JUMP JUMPDEST PUSH2 0x569 PUSH2 0x1DB4 JUMP JUMPDEST PUSH1 0x1 PUSH1 0x1 PUSH1 0xA0 SHL SUB SWAP1 DUP2 AND SWAP1 DUP2 ISZERO PUSH2 0x5B8 JUMPI PUSH1 0x2 SLOAD DUP3 PUSH1 0x1 PUSH1 0x1 PUSH1 0x60 SHL SUB PUSH1 0xA0 SHL DUP3 AND OR PUSH1 0x2 SSTORE AND PUSH32 0x9D4858DCCB76DEBED7845FD87EC5C769962D072D518C9E34182581ABB3E8247C PUSH1 0x0 DUP1 LOG3 STOP JUMPDEST PUSH1 0x40 MLOAD PUSH3 0x461BCD PUSH1 0xE5 SHL DUP2 MSTORE PUSH1 0x20 PUSH1 0x4 DUP3 ADD MSTORE PUSH1 0x15 PUSH1 0x24 DUP3 ADD MSTORE PUSH21 0x496E76616C69642072657761726420737461626C65 PUSH1 0x58 SHL PUSH1 0x44 DUP3 ADD MSTORE PUSH1 0x64 SWAP1 REVERT JUMPDEST CALLVALUE PUSH2 0x3E2 JUMPI PUSH1 0x0 CALLDATASIZE PUSH1 0x3 NOT ADD SLT PUSH2 0x3E2 JUMPI PUSH1 0x40 MLOAD PUSH32 0x0 PUSH1 0x1 PUSH1 0x1 PUSH1 0xA0 SHL SUB AND DUP2 MSTORE PUSH1 0x20 SWAP1 RETURN JUMPDEST CALLVALUE PUSH2 0x3E2 JUMPI PUSH2 0x648 CALLDATASIZE PUSH2 0x1BEF JUMP JUMPDEST SWAP1 PUSH1 0x1 DUP1 PUSH1 0xA0 SHL SUB DUP5 AND PUSH1 0x0 MSTORE PUSH1 0x5 PUSH1 0x20 MSTORE PUSH2 0x66B PUSH1 0xFF PUSH1 0x40 PUSH1 0x0 KECCAK256 SLOAD AND PUSH2 0x1E61 JUMP JUMPDEST PUSH1 0x40 MLOAD PUSH4 0x23E66501 PUSH1 0xE1 SHL DUP2 MSTORE SWAP4 PUSH1 0x20 DUP6 PUSH1 0x4 DUP2 PUSH1 0x1 PUSH1 0x1 PUSH1 0xA0 SHL SUB DUP6 AND GAS STATICCALL SWAP5 DUP6 ISZERO PUSH2 0x8BD JUMPI PUSH1 0x0 SWAP6 PUSH2 0xBD1 JUMPI JUMPDEST POP PUSH1 0x40 MLOAD PUSH4 0x133F7571 PUSH1 0xE3 SHL DUP2 MSTORE PUSH1 0x4 DUP2 ADD DUP6 SWAP1 MSTORE PUSH2 0x180 SWAP6 DUP7 DUP3 PUSH1 0x24 DUP2 PUSH1 0x1 PUSH1 0x1 PUSH1 0xA0 SHL SUB DUP6 AND GAS STATICCALL DUP1 ISZERO PUSH2 0x8BD JUMPI PUSH1 0x0 SWAP3 PUSH1 0x0 SWAP9 PUSH1 0x0 SWAP3 PUSH2 0xB91 JUMPI JUMPDEST POP POP PUSH2 0x6E3 CALLER PUSH2 0x2F1B JUMP JUMPDEST PUSH1 0x40 MLOAD PUSH4 0x29BC6721 PUSH1 0xE2 SHL DUP2 MSTORE PUSH1 0x0 SWAP8 SWAP1 SWAP7 SWAP2 SWAP5 SWAP2 PUSH1 0x20 DUP9 PUSH1 0x4 DUP2 PUSH1 0x1 PUSH1 0x1 PUSH1 0xA0 SHL SUB DUP12 AND GAS STATICCALL DUP1 ISZERO PUSH2 0x8BD JUMPI PUSH1 0x0 SWAP1 PUSH2 0xB56 JUMPI JUMPDEST PUSH1 0x40 MLOAD PUSH4 0xC69DEEC5 PUSH1 0xE0 SHL DUP2 MSTORE CALLER PUSH1 0x4 DUP3 ADD MSTORE PUSH1 0x24 DUP2 ADD DUP13 SWAP1 MSTORE SWAP9 POP PUSH1 0x20 DUP10 DUP1 PUSH1 0x44 DUP2 ADD JUMPDEST SUB DUP2 PUSH1 0x1 PUSH1 0x1 PUSH1 0xA0 SHL SUB DUP6 AND GAS STATICCALL SWAP9 DUP10 ISZERO PUSH2 0x8BD JUMPI PUSH1 0x0 SWAP10 PUSH2 0xB1A JUMPI JUMPDEST POP DUP9 PUSH2 0xA8A JUMPI JUMPDEST POP PUSH1 0x0 SWAP11 PUSH1 0x0 SWAP9 ISZERO PUSH2 0xA2E JUMPI JUMPDEST POP POP POP POP PUSH1 0x1 PUSH1 0x1 PUSH1 0x80 SHL SUB DUP2 AND PUSH2 0x8C9 JUMPI JUMPDEST POP PUSH1 0x20 DUP2 PUSH2 0x793 DUP9 PUSH2 0x7D3 SWAP5 CALLER PUSH2 0x2D4D JUMP JUMPDEST POP POP PUSH1 0x40 MLOAD PUSH4 0x852CD8D PUSH1 0xE3 SHL DUP4 DUP3 ADD MSTORE PUSH1 0x24 DUP1 DUP3 ADD DUP11 SWAP1 MSTORE DUP2 MSTORE SWAP1 PUSH2 0x7B8 DUP3 PUSH2 0x1C8A JUMP JUMPDEST PUSH1 0x40 MLOAD PUSH4 0x468721A7 PUSH1 0xE0 SHL DUP2 MSTORE SWAP4 DUP5 SWAP3 DUP4 SWAP3 PUSH1 0x4 DUP5 ADD PUSH2 0x1FE9 JUMP JUMPDEST SUB DUP2 PUSH1 0x0 CALLER GAS CALL SWAP1 DUP2 ISZERO PUSH2 0x8BD JUMPI PUSH1 0x0 SWAP2 PUSH2 0x883 JUMPI JUMPDEST POP ISZERO PUSH2 0x850 JUMPI PUSH1 0x0 DUP1 MLOAD PUSH1 0x20 PUSH2 0x2F8A DUP4 CODECOPY DUP2 MLOAD SWAP2 MSTORE SWAP4 PUSH2 0x814 PUSH2 0x84B SWAP3 PUSH2 0x80F CALLER PUSH2 0x2F1B JUMP JUMPDEST PUSH2 0x1FC6 JUMP JUMPDEST SWAP1 PUSH1 0x40 MLOAD SWAP5 DUP6 SWAP5 PUSH1 0x1 DUP1 PUSH1 0xA0 SHL SUB AND SWAP9 CALLER SWAP9 DUP7 SWAP2 SWAP3 PUSH1 0x80 SWAP4 SWAP7 SWAP6 SWAP5 SWAP2 SWAP7 PUSH1 0xA0 DUP5 ADD SWAP8 DUP5 MSTORE PUSH1 0x20 DUP5 ADD MSTORE PUSH1 0x40 DUP4 ADD MSTORE PUSH1 0x60 DUP3 ADD MSTORE ADD MSTORE JUMP JUMPDEST SUB SWAP1 LOG3 STOP JUMPDEST PUSH1 0x40 MLOAD PUSH3 0x461BCD PUSH1 0xE5 SHL DUP2 MSTORE PUSH1 0x20 PUSH1 0x4 DUP3 ADD MSTORE PUSH1 0xB PUSH1 0x24 DUP3 ADD MSTORE PUSH11 0x109D5C9B8819985A5B1959 PUSH1 0xAA SHL PUSH1 0x44 DUP3 ADD MSTORE PUSH1 0x64 SWAP1 REVERT JUMPDEST SWAP1 POP PUSH1 0x20 DUP2 RETURNDATASIZE PUSH1 0x20 GT PUSH2 0x8B5 JUMPI JUMPDEST DUP2 PUSH2 0x89E PUSH1 0x20 SWAP4 DUP4 PUSH2 0x1CA5 JUMP JUMPDEST DUP2 ADD SUB SLT PUSH2 0x3E2 JUMPI PUSH2 0x8AF SWAP1 PUSH2 0x1ECB JUMP JUMPDEST DUP8 PUSH2 0x7E9 JUMP JUMPDEST RETURNDATASIZE SWAP2 POP PUSH2 0x891 JUMP JUMPDEST PUSH1 0x40 MLOAD RETURNDATASIZE PUSH1 0x0 DUP3 RETURNDATACOPY RETURNDATASIZE SWAP1 REVERT JUMPDEST PUSH1 0x40 MLOAD SWAP1 DUP2 PUSH1 0xA0 DUP2 ADD LT PUSH1 0x1 PUSH1 0x1 PUSH1 0x40 SHL SUB PUSH1 0xA0 DUP5 ADD GT OR PUSH2 0x32B JUMPI PUSH1 0xA0 DUP3 ADD PUSH1 0x40 MSTORE DUP8 DUP3 MSTORE PUSH1 0x1 PUSH1 0x1 PUSH1 0x80 SHL SUB PUSH1 0x20 DUP4 ADD SWAP2 AND DUP2 MSTORE PUSH1 0x40 DUP3 ADD PUSH1 0x0 DUP2 MSTORE PUSH1 0x60 DUP4 ADD SWAP1 PUSH1 0x0 DUP3 MSTORE PUSH1 0x1 PUSH1 0x1 PUSH1 0x80 SHL SUB PUSH1 0x80 DUP6 ADD SWAP4 TIMESTAMP DUP6 MSTORE PUSH1 0x40 MLOAD SWAP6 PUSH4 0x624E65F PUSH1 0xE1 SHL PUSH1 0x20 DUP9 ADD MSTORE MLOAD PUSH1 0x24 DUP8 ADD MSTORE MLOAD AND PUSH1 0x44 DUP6 ADD MSTORE MLOAD PUSH1 0x64 DUP5 ADD MSTORE MLOAD PUSH1 0x84 DUP4 ADD MSTORE MLOAD PUSH1 0xA4 DUP3 ADD MSTORE PUSH1 0xA4 DUP2 MSTORE PUSH1 0xE0 DUP2 ADD DUP2 DUP2 LT PUSH1 0x1 PUSH1 0x1 PUSH1 0x40 SHL SUB DUP3 GT OR PUSH2 0x32B JUMPI PUSH1 0x40 DUP2 SWAP1 MSTORE PUSH4 0x468721A7 PUSH1 0xE0 SHL DUP2 MSTORE PUSH1 0x20 DUP2 PUSH1 0xDF NOT DUP5 PUSH2 0x98E DUP2 DUP9 PUSH1 0xE4 DUP3 ADD PUSH2 0x1FE9 JUMP JUMPDEST SUB ADD DUP2 PUSH1 0x0 CALLER GAS CALL SWAP2 DUP3 ISZERO PUSH2 0x8BD JUMPI PUSH1 0x0 SWAP3 PUSH2 0x9F7 JUMPI JUMPDEST POP POP ISZERO PUSH2 0x9B2 JUMPI DUP8 PUSH2 0x781 JUMP JUMPDEST PUSH1 0x40 MLOAD PUSH3 0x461BCD PUSH1 0xE5 SHL DUP2 MSTORE PUSH1 0x20 PUSH1 0x4 DUP3 ADD MSTORE PUSH1 0x19 PUSH1 0x24 DUP3 ADD MSTORE PUSH32 0x4465637265617365206C6971756964697479206661696C656400000000000000 PUSH1 0x44 DUP3 ADD MSTORE PUSH1 0x64 SWAP1 REVERT JUMPDEST PUSH1 0x20 DUP1 SWAP3 SWAP4 POP RETURNDATASIZE DUP4 GT PUSH2 0xA27 JUMPI JUMPDEST PUSH2 0xA0F DUP2 DUP6 PUSH2 0x1CA5 JUMP JUMPDEST DUP2 ADD SUB SLT PUSH2 0x3E2 JUMPI PUSH2 0xA20 SWAP1 PUSH2 0x1ECB JUMP JUMPDEST DUP9 DUP1 PUSH2 0x9A5 JUMP JUMPDEST POP RETURNDATASIZE PUSH2 0xA05 JUMP JUMPDEST SWAP2 SWAP8 POP SWAP2 SWAP10 POP PUSH2 0xA3F DUP10 DUP6 CALLER PUSH2 0x2D4D JUMP JUMPDEST SWAP1 SWAP8 DUP2 SWAP9 DUP1 SWAP13 DUP2 PUSH2 0xA73 JUMPI JUMPDEST POP POP DUP2 ISZERO PUSH2 0x76E JUMPI PUSH2 0xA69 SWAP4 PUSH2 0xA62 SWAP2 CALLDATASIZE SWAP2 PUSH2 0x1F1A JUMP JUMPDEST SWAP2 CALLER PUSH2 0x2BF6 JUMP JUMPDEST POP DUP9 DUP1 DUP1 DUP1 PUSH2 0x76E JUMP JUMPDEST PUSH2 0xA82 SWAP2 PUSH2 0xA62 CALLDATASIZE DUP6 DUP10 PUSH2 0x1F1A JUMP JUMPDEST POP DUP13 DUP1 PUSH2 0xA4B JUMP JUMPDEST PUSH1 0x40 MLOAD PUSH4 0x3E491D47 PUSH1 0xE0 SHL DUP2 MSTORE CALLER PUSH1 0x4 DUP3 ADD MSTORE PUSH1 0x24 DUP2 ADD DUP13 SWAP1 MSTORE SWAP1 SWAP10 POP PUSH1 0x20 DUP2 PUSH1 0x44 DUP2 PUSH1 0x1 PUSH1 0x1 PUSH1 0xA0 SHL SUB DUP15 AND GAS STATICCALL DUP1 ISZERO PUSH2 0x8BD JUMPI PUSH1 0x0 SWAP1 PUSH2 0xAE6 JUMPI JUMPDEST PUSH2 0xAE0 SWAP2 POP SWAP10 DUP12 PUSH2 0xAD9 CALLDATASIZE DUP7 DUP7 PUSH2 0x1F1A JUMP JUMPDEST SWAP2 CALLER PUSH2 0x205E JUMP JUMPDEST DUP12 PUSH2 0x761 JUMP JUMPDEST POP PUSH1 0x20 DUP2 RETURNDATASIZE PUSH1 0x20 GT PUSH2 0xB12 JUMPI JUMPDEST DUP2 PUSH2 0xB00 PUSH1 0x20 SWAP4 DUP4 PUSH2 0x1CA5 JUMP JUMPDEST DUP2 ADD SUB SLT PUSH2 0x3E2 JUMPI PUSH2 0xAE0 SWAP1 MLOAD PUSH2 0xAC7 JUMP JUMPDEST RETURNDATASIZE SWAP2 POP PUSH2 0xAF3 JUMP JUMPDEST SWAP1 SWAP9 POP PUSH1 0x20 DUP2 RETURNDATASIZE PUSH1 0x20 GT PUSH2 0xB4E JUMPI JUMPDEST DUP2 PUSH2 0xB36 PUSH1 0x20 SWAP4 DUP4 PUSH2 0x1CA5 JUMP JUMPDEST DUP2 ADD SUB SLT PUSH2 0x3E2 JUMPI PUSH2 0xB47 SWAP1 PUSH2 0x1ECB JUMP JUMPDEST SWAP8 DUP13 PUSH2 0x75A JUMP JUMPDEST RETURNDATASIZE SWAP2 POP PUSH2 0xB29 JUMP JUMPDEST POP PUSH1 0x20 DUP9 RETURNDATASIZE PUSH1 0x20 GT PUSH2 0xB89 JUMPI JUMPDEST DUP2 PUSH2 0xB70 PUSH1 0x20 SWAP4 DUP4 PUSH2 0x1CA5 JUMP JUMPDEST DUP2 ADD SUB SLT PUSH2 0x3E2 JUMPI PUSH2 0xB84 PUSH2 0x73D SWAP9 PUSH2 0x1EB7 JUMP JUMPDEST PUSH2 0x718 JUMP JUMPDEST RETURNDATASIZE SWAP2 POP PUSH2 0xB63 JUMP JUMPDEST SWAP2 POP SWAP2 SWAP8 POP PUSH2 0xBB5 SWAP3 POP DUP1 RETURNDATASIZE LT PUSH2 0xBCA JUMPI JUMPDEST PUSH2 0xBAD DUP2 DUP4 PUSH2 0x1CA5 JUMP JUMPDEST DUP2 ADD SWAP1 PUSH2 0x2CAA JUMP JUMPDEST POP POP POP POP SWAP12 SWAP6 POP POP POP POP SWAP3 POP SWAP2 SWAP7 DUP9 DUP1 PUSH2 0x6D8 JUMP JUMPDEST POP RETURNDATASIZE PUSH2 0xBA3 JUMP JUMPDEST SWAP1 SWAP5 POP PUSH1 0x20 DUP2 RETURNDATASIZE PUSH1 0x20 GT PUSH2 0xC05 JUMPI JUMPDEST DUP2 PUSH2 0xBED PUSH1 0x20 SWAP4 DUP4 PUSH2 0x1CA5 JUMP JUMPDEST DUP2 ADD SUB SLT PUSH2 0x3E2 JUMPI PUSH2 0xBFE SWAP1 PUSH2 0x1EB7 JUMP JUMPDEST SWAP4 DUP6 PUSH2 0x69A JUMP JUMPDEST RETURNDATASIZE SWAP2 POP PUSH2 0xBE0 JUMP JUMPDEST CALLVALUE PUSH2 0x3E2 JUMPI PUSH1 0x0 CALLDATASIZE PUSH1 0x3 NOT ADD SLT PUSH2 0x3E2 JUMPI PUSH1 0x0 SLOAD PUSH1 0x40 MLOAD PUSH1 0x1 PUSH1 0x1 PUSH1 0xA0 SHL SUB SWAP1 SWAP2 AND DUP2 MSTORE PUSH1 0x20 SWAP1 RETURN JUMPDEST CALLVALUE PUSH2 0x3E2 JUMPI PUSH1 0x20 CALLDATASIZE PUSH1 0x3 NOT ADD SLT PUSH2 0x3E2 JUMPI PUSH2 0xC4F PUSH2 0x1BA9 JUMP JUMPDEST PUSH2 0xC57 PUSH2 0x1DB4 JUMP JUMPDEST PUSH1 0x1 PUSH1 0x1 PUSH1 0xA0 SHL SUB SWAP1 DUP2 AND SWAP1 DUP2 ISZERO PUSH2 0xCA6 JUMPI PUSH1 0x1 SLOAD DUP3 PUSH1 0x1 PUSH1 0x1 PUSH1 0x60 SHL SUB PUSH1 0xA0 SHL DUP3 AND OR PUSH1 0x1 SSTORE AND PUSH32 0x906FF2422A6FFA134F2D7CCAFFD446BC0C583A5CB6615749B4B2836942A5FEA8 PUSH1 0x0 DUP1 LOG3 STOP JUMPDEST PUSH1 0x40 MLOAD PUSH3 0x461BCD PUSH1 0xE5 SHL DUP2 MSTORE PUSH1 0x20 PUSH1 0x4 DUP3 ADD MSTORE PUSH1 0x14 PUSH1 0x24 DUP3 ADD MSTORE PUSH20 0x24B73B30B634B2103932BBB0B932103A37B5B2B7 PUSH1 0x61 SHL PUSH1 0x44 DUP3 ADD MSTORE PUSH1 0x64 SWAP1 REVERT JUMPDEST PUSH1 0xA0 CALLDATASIZE PUSH1 0x3 NOT ADD SLT PUSH2 0x3E2 JUMPI PUSH2 0xCF6 PUSH2 0x1BA9 JUMP JUMPDEST PUSH1 0x44 CALLDATALOAD SWAP1 PUSH1 0x1 PUSH1 0x1 PUSH1 0xA0 SHL SUB DUP3 AND SWAP1 PUSH1 0x24 CALLDATALOAD SWAP1 DUP3 DUP5 SUB PUSH2 0x3E2 JUMPI PUSH1 0x64 CALLDATALOAD SWAP4 DUP5 ISZERO ISZERO DUP6 SUB PUSH2 0x3E2 JUMPI PUSH1 0x84 CALLDATALOAD PUSH1 0x1 PUSH1 0x1 PUSH1 0x40 SHL SUB DUP2 GT PUSH2 0x3E2 JUMPI PUSH2 0xD3C SWAP1 CALLDATASIZE SWAP1 PUSH1 0x4 ADD PUSH2 0x1BBF JUMP JUMPDEST SWAP4 SWAP1 SWAP5 DUP1 ISZERO PUSH1 0x0 EQ PUSH2 0xDAE JUMPI POP SWAP1 PUSH2 0xD67 SWAP3 SWAP2 PUSH2 0xD60 PUSH2 0xD6F SWAP7 CALLER BALANCE SWAP7 CALLDATASIZE SWAP2 PUSH2 0x1F1A JUMP JUMPDEST SWAP3 CALLER PUSH2 0x22B6 JUMP JUMPDEST POP CALLER BALANCE PUSH2 0x1FC6 JUMP JUMPDEST SWAP1 JUMPDEST PUSH2 0xD77 JUMPI STOP JUMPDEST PUSH1 0x0 SWAP1 PUSH1 0x40 MLOAD SWAP1 DUP3 DUP3 MSTORE DUP3 PUSH1 0x20 DUP4 ADD MSTORE DUP3 PUSH1 0x40 DUP4 ADD MSTORE PUSH1 0x60 DUP3 ADD MSTORE DUP2 PUSH1 0x80 DUP3 ADD MSTORE PUSH1 0x0 DUP1 MLOAD PUSH1 0x20 PUSH2 0x2F8A DUP4 CODECOPY DUP2 MLOAD SWAP2 MSTORE PUSH1 0xA0 CALLER SWAP3 LOG3 STOP JUMPDEST SWAP5 SWAP2 SWAP3 PUSH1 0x40 MLOAD SWAP4 PUSH4 0x70A08231 PUSH1 0xE0 SHL SWAP3 DUP4 DUP7 MSTORE CALLER PUSH1 0x4 DUP8 ADD MSTORE PUSH1 0x20 SWAP5 DUP6 DUP8 PUSH1 0x24 DUP2 DUP13 GAS STATICCALL SWAP7 DUP8 ISZERO PUSH2 0x8BD JUMPI PUSH1 0x0 SWAP8 PUSH2 0xE5A JUMPI JUMPDEST POP SWAP1 PUSH2 0xD60 PUSH2 0xDF6 SWAP5 SWAP4 SWAP3 DUP8 SWAP9 SWAP10 CALLDATASIZE SWAP2 PUSH2 0x1F1A JUMP JUMPDEST POP PUSH1 0x24 PUSH1 0x40 MLOAD DUP1 SWAP7 DUP2 SWAP4 DUP3 MSTORE CALLER PUSH1 0x4 DUP4 ADD MSTORE GAS STATICCALL SWAP1 DUP2 ISZERO PUSH2 0x8BD JUMPI PUSH1 0x0 SWAP2 PUSH2 0xE2A JUMPI JUMPDEST POP PUSH2 0xE24 SWAP3 POP PUSH2 0x1FC6 JUMP JUMPDEST SWAP1 PUSH2 0xD71 JUMP JUMPDEST SWAP1 POP DUP3 DUP2 RETURNDATASIZE DUP4 GT PUSH2 0xE53 JUMPI JUMPDEST PUSH2 0xE40 DUP2 DUP4 PUSH2 0x1CA5 JUMP JUMPDEST DUP2 ADD SUB SLT PUSH2 0x3E2 JUMPI PUSH2 0xE24 SWAP2 MLOAD DUP5 PUSH2 0xE19 JUMP JUMPDEST POP RETURNDATASIZE PUSH2 0xE36 JUMP JUMPDEST SWAP6 SWAP7 POP SWAP3 SWAP2 SWAP1 DUP7 DUP7 DUP2 RETURNDATASIZE DUP2 GT PUSH2 0xE8E JUMPI JUMPDEST PUSH2 0xE75 DUP2 DUP4 PUSH2 0x1CA5 JUMP JUMPDEST DUP2 ADD SUB SLT PUSH2 0x3E2 JUMPI SWAP5 MLOAD SWAP6 SWAP5 SWAP2 SWAP3 SWAP1 SWAP2 SWAP1 PUSH2 0xD60 PUSH2 0xDE1 JUMP JUMPDEST POP RETURNDATASIZE PUSH2 0xE6B JUMP JUMPDEST CALLVALUE PUSH2 0x3E2 JUMPI PUSH1 0x0 CALLDATASIZE PUSH1 0x3 NOT ADD SLT PUSH2 0x3E2 JUMPI PUSH2 0xEAE PUSH2 0x1DB4 JUMP JUMPDEST PUSH1 0x0 DUP1 SLOAD PUSH1 0x1 PUSH1 0x1 PUSH1 0xA0 SHL SUB NOT DUP2 AND DUP3 SSTORE PUSH1 0x1 PUSH1 0x1 PUSH1 0xA0 SHL SUB AND PUSH32 0x8BE0079C531659141344CD1FD0A4F28419497F9722A3DAAFE3B4186F6B6457E0 DUP3 DUP1 LOG3 STOP JUMPDEST CALLVALUE PUSH2 0x3E2 JUMPI PUSH1 0x40 CALLDATASIZE PUSH1 0x3 NOT ADD SLT PUSH2 0x3E2 JUMPI PUSH2 0xF07 PUSH2 0x1BA9 JUMP JUMPDEST PUSH1 0x1 PUSH1 0x1 PUSH1 0xA0 SHL SUB PUSH1 0x24 CALLDATALOAD DUP2 DUP2 AND SWAP3 SWAP1 DUP4 SWAP1 SUB PUSH2 0x3E2 JUMPI AND PUSH1 0x0 MSTORE PUSH1 0x6 PUSH1 0x20 MSTORE PUSH1 0x40 PUSH1 0x0 KECCAK256 SWAP1 PUSH1 0x0 MSTORE PUSH1 0x20 MSTORE PUSH2 0xF57 PUSH2 0xF43 PUSH1 0x40 PUSH1 0x0 KECCAK256 PUSH2 0x1CC6 JUMP JUMPDEST PUSH1 0x40 MLOAD SWAP2 DUP3 SWAP2 PUSH1 0x20 DUP4 MSTORE PUSH1 0x20 DUP4 ADD SWAP1 PUSH2 0x1D8F JUMP JUMPDEST SUB SWAP1 RETURN JUMPDEST CALLVALUE PUSH2 0x3E2 JUMPI PUSH2 0xF69 CALLDATASIZE PUSH2 0x1BEF JUMP JUMPDEST PUSH1 0x1 DUP1 PUSH1 0xA0 SWAP6 SWAP4 SWAP6 SHL SUB DUP1 SWAP3 AND SWAP4 DUP5 PUSH1 0x0 MSTORE PUSH1 0x20 SWAP3 PUSH1 0x5 DUP5 MSTORE PUSH2 0xF93 PUSH1 0xFF PUSH1 0x40 PUSH1 0x0 KECCAK256 SLOAD AND PUSH2 0x1E61 JUMP JUMPDEST PUSH1 0x40 MLOAD PUSH4 0x29BC6721 PUSH1 0xE2 SHL DUP2 MSTORE SWAP1 DUP5 DUP3 PUSH1 0x4 DUP2 DUP11 GAS STATICCALL SWAP2 DUP3 ISZERO PUSH2 0x8BD JUMPI PUSH1 0x0 SWAP3 PUSH2 0x10FC JUMPI JUMPDEST POP PUSH1 0x40 MLOAD PUSH4 0xC69DEEC5 PUSH1 0xE0 SHL DUP2 MSTORE CALLER PUSH1 0x4 DUP3 ADD MSTORE PUSH1 0x24 DUP2 ADD DUP8 SWAP1 MSTORE SWAP1 DUP3 AND SWAP1 DUP6 DUP2 PUSH1 0x44 DUP2 DUP6 GAS STATICCALL DUP1 ISZERO PUSH2 0x8BD JUMPI PUSH1 0x0 SWAP1 PUSH2 0x10C6 JUMPI JUMPDEST PUSH2 0xFF7 SWAP2 POP PUSH2 0x1ED8 JUMP JUMPDEST PUSH2 0x1000 CALLER PUSH2 0x2F1B JUMP JUMPDEST PUSH1 0x40 MLOAD PUSH4 0x3E491D47 PUSH1 0xE0 SHL DUP2 MSTORE CALLER PUSH1 0x4 DUP3 ADD MSTORE PUSH1 0x24 DUP2 ADD DUP9 SWAP1 MSTORE SWAP1 SWAP4 SWAP1 SWAP2 DUP7 SWAP1 DUP4 SWAP1 PUSH1 0x44 SWAP1 DUP3 SWAP1 GAS STATICCALL SWAP5 DUP6 ISZERO PUSH2 0x8BD JUMPI DUP8 SWAP3 PUSH1 0x0 SWAP7 PUSH2 0x108C JUMPI JUMPDEST POP SWAP3 PUSH1 0x0 SWAP5 SWAP3 PUSH2 0xAD9 PUSH2 0x1052 SWAP4 PUSH2 0x105B SWAP7 CALLDATASIZE SWAP2 PUSH2 0x1F1A JUMP JUMPDEST PUSH2 0x80F CALLER PUSH2 0x2F1B JUMP JUMPDEST SWAP3 PUSH1 0x40 MLOAD SWAP5 DUP6 MSTORE DUP5 ADD MSTORE PUSH1 0x0 PUSH1 0x40 DUP5 ADD MSTORE PUSH1 0x60 DUP4 ADD MSTORE PUSH1 0x80 DUP3 ADD MSTORE PUSH1 0x0 DUP1 MLOAD PUSH1 0x20 PUSH2 0x2F8A DUP4 CODECOPY DUP2 MLOAD SWAP2 MSTORE PUSH1 0xA0 CALLER SWAP3 LOG3 STOP JUMPDEST DUP8 DUP1 SWAP3 SWAP8 POP DUP2 SWAP4 SWAP6 SWAP7 SWAP5 POP RETURNDATASIZE DUP4 GT PUSH2 0x10BF JUMPI JUMPDEST PUSH2 0x10A9 DUP2 DUP4 PUSH2 0x1CA5 JUMP JUMPDEST DUP2 ADD SUB SLT PUSH2 0x3E2 JUMPI MLOAD SWAP4 SWAP1 SWAP3 SWAP2 DUP7 SWAP2 PUSH1 0x0 PUSH2 0x103A JUMP JUMPDEST POP RETURNDATASIZE PUSH2 0x109F JUMP JUMPDEST POP DUP6 DUP2 DUP2 RETURNDATASIZE DUP4 GT PUSH2 0x10F5 JUMPI JUMPDEST PUSH2 0x10DC DUP2 DUP4 PUSH2 0x1CA5 JUMP JUMPDEST DUP2 ADD SUB SLT PUSH2 0x3E2 JUMPI PUSH2 0x10F0 PUSH2 0xFF7 SWAP2 PUSH2 0x1ECB JUMP JUMPDEST PUSH2 0xFED JUMP JUMPDEST POP RETURNDATASIZE PUSH2 0x10D2 JUMP JUMPDEST SWAP1 SWAP2 POP DUP5 DUP2 DUP2 RETURNDATASIZE DUP4 GT PUSH2 0x112C JUMPI JUMPDEST PUSH2 0x1114 DUP2 DUP4 PUSH2 0x1CA5 JUMP JUMPDEST DUP2 ADD SUB SLT PUSH2 0x3E2 JUMPI PUSH2 0x1125 SWAP1 PUSH2 0x1EB7 JUMP JUMPDEST SWAP1 DUP8 PUSH2 0xFB8 JUMP JUMPDEST POP RETURNDATASIZE PUSH2 0x110A JUMP JUMPDEST CALLVALUE PUSH2 0x3E2 JUMPI PUSH1 0x20 CALLDATASIZE PUSH1 0x3 NOT ADD SLT PUSH2 0x3E2 JUMPI PUSH2 0x114C PUSH2 0x1BA9 JUMP JUMPDEST PUSH2 0x1154 PUSH2 0x1DB4 JUMP JUMPDEST PUSH1 0x1 PUSH1 0x1 PUSH1 0xA0 SHL SUB AND PUSH2 0x1168 DUP2 ISZERO ISZERO PUSH2 0x1DE0 JUMP JUMPDEST PUSH1 0x0 DUP2 DUP2 MSTORE PUSH1 0x5 PUSH1 0x20 MSTORE PUSH1 0x40 DUP2 KECCAK256 DUP1 SLOAD PUSH1 0xFF NOT AND PUSH1 0x1 OR SWAP1 SSTORE PUSH32 0xFC1F1E73948CBC47C5B7F90E5601B7DACCD9AD7173218486CCC74BDD051D05E8 DUP2 DUP1 LOG3 STOP JUMPDEST CALLVALUE PUSH2 0x3E2 JUMPI PUSH1 0x20 CALLDATASIZE PUSH1 0x3 NOT ADD SLT PUSH2 0x3E2 JUMPI PUSH2 0x11C0 PUSH2 0x1BA9 JUMP JUMPDEST PUSH2 0x11C8 PUSH2 0x1DB4 JUMP JUMPDEST PUSH1 0x1 PUSH1 0x1 PUSH1 0xA0 SHL SUB AND PUSH2 0x11DC DUP2 ISZERO ISZERO PUSH2 0x1DE0 JUMP JUMPDEST PUSH1 0x0 DUP2 DUP2 MSTORE PUSH1 0x5 PUSH1 0x20 MSTORE PUSH1 0x40 DUP2 KECCAK256 DUP1 SLOAD PUSH1 0xFF NOT AND SWAP1 SSTORE PUSH32 0x987EB3C2F78454541205F72F34839B434C306C9EAF4922EFD7C0C3060FDB2E4C DUP2 DUP1 LOG3 STOP JUMPDEST CALLVALUE PUSH2 0x3E2 JUMPI PUSH1 0x20 CALLDATASIZE PUSH1 0x3 NOT ADD SLT PUSH2 0x3E2 JUMPI PUSH1 0x4 CALLDATALOAD PUSH2 0x1234 PUSH2 0x1DB4 JUMP JUMPDEST PUSH2 0x3E8 DUP2 GT PUSH2 0x1276 JUMPI PUSH1 0x40 PUSH32 0xDDD31550B26E9EF8ADE466958BE83FF8A014D9B4F36D546B61A6847A45306575 SWAP2 PUSH1 0x4 SLOAD SWAP1 DUP1 PUSH1 0x4 SSTORE DUP3 MLOAD SWAP2 DUP3 MSTORE PUSH1 0x20 DUP3 ADD MSTORE LOG1 STOP JUMPDEST PUSH1 0x40 MLOAD PUSH3 0x461BCD PUSH1 0xE5 SHL DUP2 MSTORE PUSH1 0x20 PUSH1 0x4 DUP3 ADD MSTORE PUSH1 0x11 PUSH1 0x24 DUP3 ADD MSTORE PUSH17 0xA6D8D2E0E0C2CECA40E8DEDE40D0D2CED PUSH1 0x7B SHL PUSH1 0x44 DUP3 ADD MSTORE PUSH1 0x64 SWAP1 REVERT JUMPDEST CALLVALUE PUSH2 0x3E2 JUMPI PUSH2 0x12BD CALLDATASIZE PUSH2 0x1BEF JUMP JUMPDEST PUSH1 0x1 DUP1 PUSH1 0xA0 SHL SUB DUP1 SWAP5 AND SWAP4 DUP5 PUSH1 0x0 MSTORE PUSH1 0x5 PUSH1 0x20 MSTORE PUSH2 0x12E2 PUSH1 0xFF PUSH1 0x40 PUSH1 0x0 KECCAK256 SLOAD AND PUSH2 0x1E61 JUMP JUMPDEST PUSH1 0x40 MLOAD PUSH4 0x23E66501 PUSH1 0xE1 SHL DUP2 MSTORE SWAP1 PUSH1 0x20 DUP3 PUSH1 0x4 DUP2 DUP10 GAS STATICCALL SWAP2 DUP3 ISZERO PUSH2 0x8BD JUMPI PUSH1 0x0 SWAP3 PUSH2 0x1719 JUMPI JUMPDEST POP PUSH1 0x40 MLOAD PUSH4 0x29BC6721 PUSH1 0xE2 SHL DUP2 MSTORE SWAP1 PUSH1 0x20 DUP3 PUSH1 0x4 DUP2 DUP11 GAS STATICCALL SWAP2 DUP3 ISZERO PUSH2 0x8BD JUMPI PUSH1 0x0 SWAP3 PUSH2 0x16DD JUMPI JUMPDEST POP PUSH1 0x40 MLOAD PUSH4 0xC69DEEC5 PUSH1 0xE0 SHL DUP2 MSTORE CALLER PUSH1 0x4 DUP3 ADD MSTORE PUSH1 0x24 DUP2 ADD DUP8 SWAP1 MSTORE PUSH1 0x20 DUP2 PUSH1 0x44 DUP2 DUP7 DUP7 AND GAS STATICCALL SWAP1 DUP2 ISZERO PUSH2 0x8BD JUMPI PUSH1 0x0 SWAP2 PUSH2 0x16A3 JUMPI JUMPDEST POP PUSH2 0x165E JUMPI PUSH2 0x1372 CALLER PUSH2 0x2F1B JUMP JUMPDEST SWAP3 PUSH1 0x40 MLOAD SWAP6 PUSH4 0x133F7571 PUSH1 0xE3 SHL DUP8 MSTORE DUP8 PUSH1 0x4 DUP9 ADD MSTORE PUSH2 0x180 SWAP7 DUP8 DUP2 PUSH1 0x24 DUP2 DUP8 DUP8 AND GAS STATICCALL SWAP1 DUP2 ISZERO PUSH2 0x8BD JUMPI PUSH1 0x0 SWAP9 PUSH1 0x0 SWAP3 PUSH2 0x162E JUMPI JUMPDEST POP POP PUSH2 0x13B4 DUP10 DUP5 CALLER PUSH2 0x2D4D JUMP JUMPDEST SWAP8 DUP2 SWAP10 DUP10 SWAP3 PUSH2 0x1617 JUMPI JUMPDEST POP DUP2 PUSH2 0x15FE JUMPI JUMPDEST POP POP POP POP PUSH1 0x40 MLOAD PUSH4 0xE985E9C5 PUSH1 0xE0 SHL DUP2 MSTORE CALLER PUSH1 0x4 DUP3 ADD MSTORE DUP3 DUP5 AND PUSH1 0x24 DUP3 ADD MSTORE PUSH1 0x20 DUP2 PUSH1 0x44 DUP2 DUP7 DUP7 AND GAS STATICCALL SWAP1 DUP2 ISZERO PUSH2 0x8BD JUMPI PUSH1 0x0 SWAP2 PUSH2 0x15C4 JUMPI JUMPDEST POP ISZERO PUSH2 0x14FA JUMPI JUMPDEST POP POP PUSH1 0x20 PUSH2 0x1430 SWAP2 PUSH1 0x40 MLOAD SWAP1 PUSH4 0xB6B55F25 PUSH1 0xE0 SHL DUP4 DUP4 ADD MSTORE DUP8 PUSH1 0x24 DUP4 ADD MSTORE PUSH1 0x24 DUP3 MSTORE PUSH2 0x7B8 DUP3 PUSH2 0x1C8A JUMP JUMPDEST SUB DUP2 PUSH1 0x0 CALLER GAS CALL SWAP1 DUP2 ISZERO PUSH2 0x8BD JUMPI PUSH1 0x0 SWAP2 PUSH2 0x14C0 JUMPI JUMPDEST POP ISZERO PUSH2 0x148C JUMPI PUSH2 0x1459 SWAP1 PUSH2 0x80F CALLER PUSH2 0x2F1B JUMP JUMPDEST SWAP2 PUSH1 0x40 MLOAD SWAP4 DUP5 MSTORE PUSH1 0x20 DUP5 ADD MSTORE PUSH1 0x40 DUP4 ADD MSTORE PUSH1 0x0 PUSH1 0x60 DUP4 ADD MSTORE PUSH1 0x80 DUP3 ADD MSTORE PUSH1 0x0 DUP1 MLOAD PUSH1 0x20 PUSH2 0x2F8A DUP4 CODECOPY DUP2 MLOAD SWAP2 MSTORE PUSH1 0xA0 CALLER SWAP3 LOG3 STOP JUMPDEST PUSH1 0x40 MLOAD PUSH3 0x461BCD PUSH1 0xE5 SHL DUP2 MSTORE PUSH1 0x20 PUSH1 0x4 DUP3 ADD MSTORE PUSH1 0xC PUSH1 0x24 DUP3 ADD MSTORE PUSH12 0x14DD185AD94819985A5B1959 PUSH1 0xA2 SHL PUSH1 0x44 DUP3 ADD MSTORE PUSH1 0x64 SWAP1 REVERT JUMPDEST SWAP1 POP PUSH1 0x20 DUP2 RETURNDATASIZE PUSH1 0x20 GT PUSH2 0x14F2 JUMPI JUMPDEST DUP2 PUSH2 0x14DB PUSH1 0x20 SWAP4 DUP4 PUSH2 0x1CA5 JUMP JUMPDEST DUP2 ADD SUB SLT PUSH2 0x3E2 JUMPI PUSH2 0x14EC SWAP1 PUSH2 0x1ECB JUMP JUMPDEST DUP7 PUSH2 0x1446 JUMP JUMPDEST RETURNDATASIZE SWAP2 POP PUSH2 0x14CE JUMP JUMPDEST PUSH2 0x152C SWAP2 PUSH1 0x20 SWAP2 PUSH1 0x40 MLOAD SWAP2 PUSH4 0xA22CB465 PUSH1 0xE0 SHL DUP5 DUP5 ADD MSTORE DUP6 AND PUSH1 0x24 DUP4 ADD MSTORE PUSH1 0x1 PUSH1 0x44 DUP4 ADD MSTORE PUSH1 0x44 DUP3 MSTORE PUSH2 0x7B8 DUP3 PUSH2 0x1C6F JUMP JUMPDEST SUB DUP2 PUSH1 0x0 CALLER GAS CALL SWAP1 DUP2 ISZERO PUSH2 0x8BD JUMPI PUSH1 0x0 SWAP2 PUSH2 0x158A JUMPI JUMPDEST POP ISZERO PUSH2 0x154F JUMPI DUP7 DUP1 PUSH2 0x1405 JUMP JUMPDEST PUSH1 0x40 MLOAD PUSH3 0x461BCD PUSH1 0xE5 SHL DUP2 MSTORE PUSH1 0x20 PUSH1 0x4 DUP3 ADD MSTORE PUSH1 0x13 PUSH1 0x24 DUP3 ADD MSTORE PUSH19 0x13919508185C1C1C9BDD985B0819985A5B1959 PUSH1 0x6A SHL PUSH1 0x44 DUP3 ADD MSTORE PUSH1 0x64 SWAP1 REVERT JUMPDEST SWAP1 POP PUSH1 0x20 DUP2 RETURNDATASIZE PUSH1 0x20 GT PUSH2 0x15BC JUMPI JUMPDEST DUP2 PUSH2 0x15A5 PUSH1 0x20 SWAP4 DUP4 PUSH2 0x1CA5 JUMP JUMPDEST DUP2 ADD SUB SLT PUSH2 0x3E2 JUMPI PUSH2 0x15B6 SWAP1 PUSH2 0x1ECB JUMP JUMPDEST DUP8 PUSH2 0x1542 JUMP JUMPDEST RETURNDATASIZE SWAP2 POP PUSH2 0x1598 JUMP JUMPDEST SWAP1 POP PUSH1 0x20 DUP2 RETURNDATASIZE PUSH1 0x20 GT PUSH2 0x15F6 JUMPI JUMPDEST DUP2 PUSH2 0x15DF PUSH1 0x20 SWAP4 DUP4 PUSH2 0x1CA5 JUMP JUMPDEST DUP2 ADD SUB SLT PUSH2 0x3E2 JUMPI PUSH2 0x15F0 SWAP1 PUSH2 0x1ECB JUMP JUMPDEST DUP10 PUSH2 0x13FE JUMP JUMPDEST RETURNDATASIZE SWAP2 POP PUSH2 0x15D2 JUMP JUMPDEST PUSH2 0x160D SWAP4 PUSH2 0xA62 SWAP2 CALLDATASIZE SWAP2 PUSH2 0x1F1A JUMP JUMPDEST POP DUP9 DUP1 DUP7 DUP2 PUSH2 0x13C5 JUMP JUMPDEST PUSH2 0x1627 SWAP1 DUP12 PUSH2 0xA62 CALLDATASIZE DUP6 DUP10 PUSH2 0x1F1A JUMP JUMPDEST POP DUP13 PUSH2 0x13BE JUMP JUMPDEST PUSH2 0x1649 SWAP4 SWAP10 POP DUP1 SWAP2 SWAP3 POP SWAP1 RETURNDATASIZE LT PUSH2 0xBCA JUMPI PUSH2 0xBAD DUP2 DUP4 PUSH2 0x1CA5 JUMP JUMPDEST POP POP POP POP POP POP POP POP SWAP9 SWAP3 POP SWAP1 POP SWAP7 DUP11 DUP1 PUSH2 0x13A7 JUMP JUMPDEST PUSH1 0x40 MLOAD PUSH3 0x461BCD PUSH1 0xE5 SHL DUP2 MSTORE PUSH1 0x20 PUSH1 0x4 DUP3 ADD MSTORE PUSH1 0x17 PUSH1 0x24 DUP3 ADD MSTORE PUSH32 0x506F736974696F6E20616C7265616479207374616B6564000000000000000000 PUSH1 0x44 DUP3 ADD MSTORE PUSH1 0x64 SWAP1 REVERT JUMPDEST SWAP1 POP PUSH1 0x20 DUP2 RETURNDATASIZE PUSH1 0x20 GT PUSH2 0x16D5 JUMPI JUMPDEST DUP2 PUSH2 0x16BE PUSH1 0x20 SWAP4 DUP4 PUSH2 0x1CA5 JUMP JUMPDEST DUP2 ADD SUB SLT PUSH2 0x3E2 JUMPI PUSH2 0x16CF SWAP1 PUSH2 0x1ECB JUMP JUMPDEST DUP9 PUSH2 0x1364 JUMP JUMPDEST RETURNDATASIZE SWAP2 POP PUSH2 0x16B1 JUMP JUMPDEST SWAP1 SWAP2 POP PUSH1 0x20 DUP2 RETURNDATASIZE PUSH1 0x20 GT PUSH2 0x1711 JUMPI JUMPDEST DUP2 PUSH2 0x16F9 PUSH1 0x20 SWAP4 DUP4 PUSH2 0x1CA5 JUMP JUMPDEST DUP2 ADD SUB SLT PUSH2 0x3E2 JUMPI PUSH2 0x170A SWAP1 PUSH2 0x1EB7 JUMP JUMPDEST SWAP1 DUP8 PUSH2 0x132F JUMP JUMPDEST RETURNDATASIZE SWAP2 POP PUSH2 0x16EC JUMP JUMPDEST SWAP1 SWAP2 POP PUSH1 0x20 DUP2 RETURNDATASIZE PUSH1 0x20 GT PUSH2 0x174D JUMPI JUMPDEST DUP2 PUSH2 0x1735 PUSH1 0x20 SWAP4 DUP4 PUSH2 0x1CA5 JUMP JUMPDEST DUP2 ADD SUB SLT PUSH2 0x3E2 JUMPI PUSH2 0x1746 SWAP1 PUSH2 0x1EB7 JUMP JUMPDEST SWAP1 DUP7 PUSH2 0x1308 JUMP JUMPDEST RETURNDATASIZE SWAP2 POP PUSH2 0x1728 JUMP JUMPDEST CALLVALUE PUSH2 0x3E2 JUMPI PUSH2 0x1763 CALLDATASIZE PUSH2 0x1BEF JUMP JUMPDEST SWAP3 PUSH1 0x1 DUP1 PUSH1 0xA0 SHL SUB AND SWAP3 DUP4 PUSH1 0x0 MSTORE PUSH1 0x5 PUSH1 0x20 MSTORE PUSH2 0x1787 PUSH1 0xFF PUSH1 0x40 PUSH1 0x0 KECCAK256 SLOAD AND PUSH2 0x1E61 JUMP JUMPDEST PUSH1 0x40 MLOAD PUSH4 0x23E66501 PUSH1 0xE1 SHL DUP2 MSTORE SWAP1 PUSH1 0x20 DUP3 PUSH1 0x4 DUP2 DUP9 GAS STATICCALL SWAP2 DUP3 ISZERO PUSH2 0x8BD JUMPI PUSH1 0x0 SWAP3 PUSH2 0x1B6D JUMPI JUMPDEST POP PUSH1 0x40 MLOAD PUSH4 0x29BC6721 PUSH1 0xE2 SHL DUP2 MSTORE PUSH1 0x20 DUP2 PUSH1 0x4 DUP2 DUP10 GAS STATICCALL SWAP1 DUP2 ISZERO PUSH2 0x8BD JUMPI PUSH1 0x0 SWAP2 PUSH2 0x1B33 JUMPI JUMPDEST POP PUSH2 0x17DD CALLER PUSH2 0x2F1B JUMP JUMPDEST PUSH1 0x40 MLOAD PUSH4 0xC69DEEC5 PUSH1 0xE0 SHL DUP2 MSTORE CALLER PUSH1 0x4 DUP3 ADD MSTORE PUSH1 0x24 DUP2 ADD DUP8 SWAP1 MSTORE SWAP1 SWAP5 PUSH1 0x0 SWAP5 DUP6 SWAP5 PUSH1 0x1 PUSH1 0x1 PUSH1 0xA0 SHL SUB DUP6 AND SWAP4 SWAP1 SWAP2 SWAP1 DUP7 SWAP1 PUSH1 0x20 DUP2 PUSH1 0x44 DUP2 DUP10 GAS STATICCALL SWAP1 DUP2 ISZERO PUSH2 0x8BD JUMPI PUSH1 0x0 SWAP2 PUSH2 0x1AF9 JUMPI JUMPDEST POP ISZERO PUSH2 0x19FE JUMPI POP POP PUSH1 0x40 MLOAD PUSH4 0x3E491D47 PUSH1 0xE0 SHL DUP2 MSTORE CALLER PUSH1 0x4 DUP3 ADD MSTORE PUSH1 0x24 DUP2 ADD DUP10 SWAP1 MSTORE SWAP3 PUSH1 0x20 SWAP1 DUP5 SWAP1 PUSH1 0x44 SWAP1 DUP3 SWAP1 GAS STATICCALL SWAP3 DUP4 ISZERO PUSH2 0x8BD JUMPI PUSH1 0x0 SWAP4 PUSH2 0x19CA JUMPI JUMPDEST POP DUP3 SWAP4 DUP4 PUSH2 0x18BF JUMPI JUMPDEST POP POP POP POP PUSH2 0x84B SWAP1 PUSH2 0x1891 PUSH1 0x0 DUP1 MLOAD PUSH1 0x20 PUSH2 0x2F8A DUP4 CODECOPY DUP2 MLOAD SWAP2 MSTORE SWAP6 PUSH2 0x80F CALLER PUSH2 0x2F1B JUMP JUMPDEST SWAP1 PUSH1 0x40 MLOAD SWAP5 DUP6 SWAP5 CALLER SWAP9 DUP7 SWAP2 SWAP3 PUSH1 0x80 SWAP4 SWAP7 SWAP6 SWAP5 SWAP2 SWAP7 PUSH1 0xA0 DUP5 ADD SWAP8 DUP5 MSTORE PUSH1 0x20 DUP5 ADD MSTORE PUSH1 0x40 DUP4 ADD MSTORE PUSH1 0x60 DUP3 ADD MSTORE ADD MSTORE JUMP JUMPDEST PUSH1 0x20 PUSH2 0x18EE SWAP2 PUSH1 0x40 SWAP10 SWAP4 SWAP5 SWAP7 SWAP6 SWAP10 MLOAD SWAP1 PUSH4 0x1C4B774B PUSH1 0xE0 SHL DUP4 DUP4 ADD MSTORE DUP12 PUSH1 0x24 DUP4 ADD MSTORE PUSH1 0x24 DUP3 MSTORE PUSH2 0x7B8 DUP3 PUSH2 0x1C8A JUMP JUMPDEST SUB DUP2 PUSH1 0x0 CALLER GAS CALL SWAP1 DUP2 ISZERO PUSH2 0x8BD JUMPI PUSH1 0x0 SWAP2 PUSH2 0x1990 JUMPI JUMPDEST POP ISZERO PUSH2 0x194B JUMPI PUSH2 0x1943 PUSH2 0x193E PUSH2 0x1891 SWAP4 PUSH1 0x0 DUP1 MLOAD PUSH1 0x20 PUSH2 0x2F8A DUP4 CODECOPY DUP2 MLOAD SWAP2 MSTORE SWAP10 PUSH2 0xA62 PUSH2 0x84B SWAP9 PUSH1 0x1 DUP1 PUSH1 0xA0 SHL SUB PUSH1 0x1 SLOAD AND SWAP4 CALLDATASIZE SWAP2 PUSH2 0x1F1A JUMP JUMPDEST PUSH2 0x201A JUMP JUMPDEST SWAP6 DUP3 SWAP4 PUSH2 0x186D JUMP JUMPDEST PUSH1 0x40 MLOAD PUSH3 0x461BCD PUSH1 0xE5 SHL DUP2 MSTORE PUSH1 0x20 PUSH1 0x4 DUP3 ADD MSTORE PUSH1 0x17 PUSH1 0x24 DUP3 ADD MSTORE PUSH32 0x47617567652067657420726577617264206661696C6564000000000000000000 PUSH1 0x44 DUP3 ADD MSTORE PUSH1 0x64 SWAP1 REVERT JUMPDEST SWAP1 POP PUSH1 0x20 DUP2 RETURNDATASIZE PUSH1 0x20 GT PUSH2 0x19C2 JUMPI JUMPDEST DUP2 PUSH2 0x19AB PUSH1 0x20 SWAP4 DUP4 PUSH2 0x1CA5 JUMP JUMPDEST DUP2 ADD SUB SLT PUSH2 0x3E2 JUMPI PUSH2 0x19BC SWAP1 PUSH2 0x1ECB JUMP JUMPDEST DUP11 PUSH2 0x1904 JUMP JUMPDEST RETURNDATASIZE SWAP2 POP PUSH2 0x199E JUMP JUMPDEST SWAP1 SWAP3 POP PUSH1 0x20 DUP2 RETURNDATASIZE PUSH1 0x20 GT PUSH2 0x19F6 JUMPI JUMPDEST DUP2 PUSH2 0x19E6 PUSH1 0x20 SWAP4 DUP4 PUSH2 0x1CA5 JUMP JUMPDEST DUP2 ADD SUB SLT PUSH2 0x3E2 JUMPI MLOAD SWAP2 DUP10 PUSH2 0x1864 JUMP JUMPDEST RETURNDATASIZE SWAP2 POP PUSH2 0x19D9 JUMP JUMPDEST PUSH1 0x40 MLOAD PUSH4 0x133F7571 PUSH1 0xE3 SHL DUP2 MSTORE PUSH1 0x4 DUP2 ADD DUP12 SWAP1 MSTORE SWAP2 SWAP9 SWAP3 SWAP8 POP SWAP1 SWAP6 POP PUSH2 0x180 SWAP5 POP SWAP3 POP SWAP1 DUP4 DUP6 PUSH1 0x24 DUP2 PUSH1 0x1 PUSH1 0x1 PUSH1 0xA0 SHL SUB DUP12 AND GAS STATICCALL DUP1 ISZERO PUSH2 0x8BD JUMPI PUSH1 0x0 DUP1 MLOAD PUSH1 0x20 PUSH2 0x2F8A DUP4 CODECOPY DUP2 MLOAD SWAP2 MSTORE SWAP8 DUP10 SWAP7 PUSH1 0x0 SWAP7 PUSH1 0x0 SWAP4 PUSH2 0x1ABA JUMPI JUMPDEST POP POP SWAP1 PUSH2 0x1A6D PUSH2 0x84B SWAP7 SWAP8 PUSH2 0x1891 SWAP6 SWAP5 SWAP4 CALLER PUSH2 0x2D4D JUMP JUMPDEST SWAP1 SWAP9 DUP2 SWAP10 DUP1 SWAP10 DUP2 PUSH2 0x1AA3 JUMPI JUMPDEST POP POP DUP2 PUSH2 0x1A8A JUMPI JUMPDEST POP POP POP POP PUSH2 0x1052 JUMP JUMPDEST PUSH2 0x1A99 SWAP4 PUSH2 0xA62 SWAP2 CALLDATASIZE SWAP2 PUSH2 0x1F1A JUMP JUMPDEST POP DUP10 DUP1 DUP1 DUP1 PUSH2 0x1A81 JUMP JUMPDEST PUSH2 0x1AB2 SWAP2 PUSH2 0xA62 CALLDATASIZE DUP6 DUP10 PUSH2 0x1F1A JUMP JUMPDEST POP DUP14 DUP1 PUSH2 0x1A79 JUMP JUMPDEST PUSH2 0x84B SWAP8 POP PUSH2 0x1891 SWAP6 SWAP5 SWAP4 POP PUSH2 0x1A6D SWAP2 DUP2 PUSH2 0x1AE0 SWAP3 SWAP1 RETURNDATASIZE LT PUSH2 0xBCA JUMPI PUSH2 0xBAD DUP2 DUP4 PUSH2 0x1CA5 JUMP JUMPDEST POP POP POP POP POP POP POP POP SWAP11 SWAP3 POP SWAP1 POP SWAP9 SWAP4 SWAP5 SWAP6 POP SWAP8 SWAP7 PUSH2 0x1A56 JUMP JUMPDEST SWAP1 POP PUSH1 0x20 DUP2 RETURNDATASIZE PUSH1 0x20 GT PUSH2 0x1B2B JUMPI JUMPDEST DUP2 PUSH2 0x1B14 PUSH1 0x20 SWAP4 DUP4 PUSH2 0x1CA5 JUMP JUMPDEST DUP2 ADD SUB SLT PUSH2 0x3E2 JUMPI PUSH2 0x1B25 SWAP1 PUSH2 0x1ECB JUMP JUMPDEST DUP13 PUSH2 0x1826 JUMP JUMPDEST RETURNDATASIZE SWAP2 POP PUSH2 0x1B07 JUMP JUMPDEST SWAP1 POP PUSH1 0x20 DUP2 RETURNDATASIZE PUSH1 0x20 GT PUSH2 0x1B65 JUMPI JUMPDEST DUP2 PUSH2 0x1B4E PUSH1 0x20 SWAP4 DUP4 PUSH2 0x1CA5 JUMP JUMPDEST DUP2 ADD SUB SLT PUSH2 0x3E2 JUMPI PUSH2 0x1B5F SWAP1 PUSH2 0x1EB7 JUMP JUMPDEST DUP7 PUSH2 0x17D3 JUMP JUMPDEST RETURNDATASIZE SWAP2 POP PUSH2 0x1B41 JUMP JUMPDEST SWAP1 SWAP2 POP PUSH1 0x20 DUP2 RETURNDATASIZE PUSH1 0x20 GT PUSH2 0x1BA1 JUMPI JUMPDEST DUP2 PUSH2 0x1B89 PUSH1 0x20 SWAP4 DUP4 PUSH2 0x1CA5 JUMP JUMPDEST DUP2 ADD SUB SLT PUSH2 0x3E2 JUMPI PUSH2 0x1B9A SWAP1 PUSH2 0x1EB7 JUMP JUMPDEST SWAP1 DUP6 PUSH2 0x17AD JUMP JUMPDEST RETURNDATASIZE SWAP2 POP PUSH2 0x1B7C JUMP JUMPDEST PUSH1 0x4 CALLDATALOAD SWAP1 PUSH1 0x1 PUSH1 0x1 PUSH1 0xA0 SHL SUB DUP3 AND DUP3 SUB PUSH2 0x3E2 JUMPI JUMP JUMPDEST SWAP2 DUP2 PUSH1 0x1F DUP5 ADD SLT ISZERO PUSH2 0x3E2 JUMPI DUP3 CALLDATALOAD SWAP2 PUSH1 0x1 PUSH1 0x1 PUSH1 0x40 SHL SUB DUP4 GT PUSH2 0x3E2 JUMPI PUSH1 0x20 DUP1 DUP6 ADD SWAP5 DUP5 PUSH1 0x6 SHL ADD ADD GT PUSH2 0x3E2 JUMPI JUMP JUMPDEST PUSH1 0x60 PUSH1 0x3 NOT DUP3 ADD SLT PUSH2 0x3E2 JUMPI PUSH1 0x4 CALLDATALOAD PUSH1 0x1 PUSH1 0x1 PUSH1 0xA0 SHL SUB DUP2 AND DUP2 SUB PUSH2 0x3E2 JUMPI SWAP2 PUSH1 0x24 CALLDATALOAD SWAP2 PUSH1 0x44 CALLDATALOAD SWAP1 PUSH1 0x1 PUSH1 0x1 PUSH1 0x40 SHL SUB DUP3 GT PUSH2 0x3E2 JUMPI PUSH2 0x1C31 SWAP2 PUSH1 0x4 ADD PUSH2 0x1BBF JUMP JUMPDEST SWAP1 SWAP2 JUMP JUMPDEST SWAP1 PUSH1 0x1 DUP3 DUP2 SHR SWAP3 AND DUP1 ISZERO PUSH2 0x1C65 JUMPI JUMPDEST PUSH1 0x20 DUP4 LT EQ PUSH2 0x1C4F JUMPI JUMP JUMPDEST PUSH4 0x4E487B71 PUSH1 0xE0 SHL PUSH1 0x0 MSTORE PUSH1 0x22 PUSH1 0x4 MSTORE PUSH1 0x24 PUSH1 0x0 REVERT JUMPDEST SWAP2 PUSH1 0x7F AND SWAP2 PUSH2 0x1C44 JUMP JUMPDEST PUSH1 0x80 DUP2 ADD SWAP1 DUP2 LT PUSH1 0x1 PUSH1 0x1 PUSH1 0x40 SHL SUB DUP3 GT OR PUSH2 0x32B JUMPI PUSH1 0x40 MSTORE JUMP JUMPDEST PUSH1 0x60 DUP2 ADD SWAP1 DUP2 LT PUSH1 0x1 PUSH1 0x1 PUSH1 0x40 SHL SUB DUP3 GT OR PUSH2 0x32B JUMPI PUSH1 0x40 MSTORE JUMP JUMPDEST SWAP1 PUSH1 0x1F DUP1 NOT SWAP2 ADD AND DUP2 ADD SWAP1 DUP2 LT PUSH1 0x1 PUSH1 0x1 PUSH1 0x40 SHL SUB DUP3 GT OR PUSH2 0x32B JUMPI PUSH1 0x40 MSTORE JUMP JUMPDEST SWAP1 PUSH1 0x40 MLOAD SWAP2 DUP3 PUSH1 0x0 DUP3 SLOAD SWAP3 PUSH2 0x1CDA DUP5 PUSH2 0x1C35 JUMP JUMPDEST SWAP1 DUP2 DUP5 MSTORE PUSH1 0x1 SWAP5 DUP6 DUP2 AND SWAP1 DUP2 PUSH1 0x0 EQ PUSH2 0x1D49 JUMPI POP PUSH1 0x1 EQ PUSH2 0x1D06 JUMPI JUMPDEST POP POP PUSH2 0x1D04 SWAP3 POP SUB DUP4 PUSH2 0x1CA5 JUMP JUMPDEST JUMP JUMPDEST SWAP1 SWAP4 SWAP2 POP PUSH1 0x0 MSTORE PUSH1 0x20 SWAP1 DUP2 PUSH1 0x0 KECCAK256 SWAP4 PUSH1 0x0 SWAP2 JUMPDEST DUP2 DUP4 LT PUSH2 0x1D31 JUMPI POP POP PUSH2 0x1D04 SWAP4 POP DUP3 ADD ADD CODESIZE DUP1 PUSH2 0x1CF6 JUMP JUMPDEST DUP6 SLOAD DUP9 DUP5 ADD DUP6 ADD MSTORE SWAP5 DUP6 ADD SWAP5 DUP8 SWAP5 POP SWAP2 DUP4 ADD SWAP2 PUSH2 0x1D19 JUMP JUMPDEST SWAP2 POP POP PUSH2 0x1D04 SWAP5 POP PUSH1 0x20 SWAP3 POP PUSH1 0xFF NOT AND DUP3 DUP5 ADD MSTORE ISZERO ISZERO PUSH1 0x5 SHL DUP3 ADD ADD CODESIZE DUP1 PUSH2 0x1CF6 JUMP JUMPDEST PUSH1 0x0 JUMPDEST DUP4 DUP2 LT PUSH2 0x1D7F JUMPI POP POP PUSH1 0x0 SWAP2 ADD MSTORE JUMP JUMPDEST DUP2 DUP2 ADD MLOAD DUP4 DUP3 ADD MSTORE PUSH1 0x20 ADD PUSH2 0x1D6F JUMP JUMPDEST SWAP1 PUSH1 0x20 SWAP2 PUSH2 0x1DA8 DUP2 MLOAD DUP1 SWAP3 DUP2 DUP6 MSTORE DUP6 DUP1 DUP7 ADD SWAP2 ADD PUSH2 0x1D6C JUMP JUMPDEST PUSH1 0x1F ADD PUSH1 0x1F NOT AND ADD ADD SWAP1 JUMP JUMPDEST PUSH1 0x0 SLOAD PUSH1 0x1 PUSH1 0x1 PUSH1 0xA0 SHL SUB AND CALLER SUB PUSH2 0x1DC8 JUMPI JUMP JUMPDEST PUSH1 0x40 MLOAD PUSH4 0x118CDAA7 PUSH1 0xE0 SHL DUP2 MSTORE CALLER PUSH1 0x4 DUP3 ADD MSTORE PUSH1 0x24 SWAP1 REVERT JUMPDEST ISZERO PUSH2 0x1DE7 JUMPI JUMP JUMPDEST PUSH1 0x40 MLOAD PUSH3 0x461BCD PUSH1 0xE5 SHL DUP2 MSTORE PUSH1 0x20 PUSH1 0x4 DUP3 ADD MSTORE PUSH1 0xC PUSH1 0x24 DUP3 ADD MSTORE PUSH12 0x125B9D985B1A59081C1BDBDB PUSH1 0xA2 SHL PUSH1 0x44 DUP3 ADD MSTORE PUSH1 0x64 SWAP1 REVERT JUMPDEST CALLDATALOAD PUSH1 0x1 PUSH1 0x1 PUSH1 0xA0 SHL SUB DUP2 AND DUP2 SUB PUSH2 0x3E2 JUMPI SWAP1 JUMP JUMPDEST SWAP1 CALLDATALOAD SWAP1 PUSH1 0x1E NOT DUP2 CALLDATASIZE SUB ADD DUP3 SLT ISZERO PUSH2 0x3E2 JUMPI ADD DUP1 CALLDATALOAD SWAP1 PUSH1 0x1 PUSH1 0x1 PUSH1 0x40 SHL SUB DUP3 GT PUSH2 0x3E2 JUMPI PUSH1 0x20 ADD SWAP2 DUP2 CALLDATASIZE SUB DUP4 SGT PUSH2 0x3E2 JUMPI JUMP JUMPDEST ISZERO PUSH2 0x1E68 JUMPI JUMP JUMPDEST PUSH1 0x40 MLOAD PUSH3 0x461BCD PUSH1 0xE5 SHL DUP2 MSTORE PUSH1 0x20 PUSH1 0x4 DUP3 ADD MSTORE PUSH1 0x21 PUSH1 0x24 DUP3 ADD MSTORE PUSH32 0x506F6F6C206E6F7420617070726F76656420666F722074686973206D6F64756C PUSH1 0x44 DUP3 ADD MSTORE PUSH1 0x65 PUSH1 0xF8 SHL PUSH1 0x64 DUP3 ADD MSTORE PUSH1 0x84 SWAP1 REVERT JUMPDEST MLOAD SWAP1 PUSH1 0x1 PUSH1 0x1 PUSH1 0xA0 SHL SUB DUP3 AND DUP3 SUB PUSH2 0x3E2 JUMPI JUMP JUMPDEST MLOAD SWAP1 DUP2 ISZERO ISZERO DUP3 SUB PUSH2 0x3E2 JUMPI JUMP JUMPDEST ISZERO PUSH2 0x1EDF JUMPI JUMP JUMPDEST PUSH1 0x40 MLOAD PUSH3 0x461BCD PUSH1 0xE5 SHL DUP2 MSTORE PUSH1 0x20 PUSH1 0x4 DUP3 ADD MSTORE PUSH1 0x13 PUSH1 0x24 DUP3 ADD MSTORE PUSH19 0x141BDCDA5D1A5BDB881B9BDD081CDD185AD959 PUSH1 0x6A SHL PUSH1 0x44 DUP3 ADD MSTORE PUSH1 0x64 SWAP1 REVERT JUMPDEST PUSH1 0x1 PUSH1 0x1 PUSH1 0x40 SHL SUB SWAP4 SWAP3 DUP5 DUP4 GT PUSH2 0x32B JUMPI PUSH1 0x40 SWAP3 DUP4 MLOAD SWAP6 PUSH1 0x20 SWAP3 PUSH2 0x1F43 DUP5 DUP5 PUSH1 0x5 SHL ADD DUP10 PUSH2 0x1CA5 JUMP JUMPDEST DUP4 DUP9 DUP5 DUP2 MSTORE ADD SWAP3 PUSH1 0x6 SHL DUP6 ADD SWAP5 DUP2 DUP7 GT PUSH2 0x3E2 JUMPI SWAP3 JUMPDEST DUP6 DUP5 LT PUSH2 0x1F69 JUMPI POP POP POP POP POP POP POP JUMP JUMPDEST DUP7 DUP5 DUP4 SUB SLT PUSH2 0x3E2 JUMPI DUP7 MLOAD SWAP1 DUP8 DUP3 ADD DUP3 DUP2 LT DUP6 DUP3 GT OR PUSH2 0x1FB1 JUMPI DUP9 MSTORE DUP5 CALLDATALOAD SWAP1 PUSH1 0x1 PUSH1 0x1 PUSH1 0xA0 SHL SUB DUP3 AND DUP3 SUB PUSH2 0x3E2 JUMPI DUP3 DUP8 SWAP3 DUP11 SWAP5 MSTORE DUP3 DUP8 ADD CALLDATALOAD DUP4 DUP3 ADD MSTORE DUP2 MSTORE ADD SWAP4 ADD SWAP3 PUSH2 0x1F59 JUMP JUMPDEST PUSH1 0x24 PUSH1 0x0 PUSH4 0x4E487B71 PUSH1 0xE0 SHL DUP2 MSTORE PUSH1 0x41 PUSH1 0x4 MSTORE REVERT JUMPDEST SWAP2 SWAP1 DUP3 SUB SWAP2 DUP3 GT PUSH2 0x1FD3 JUMPI JUMP JUMPDEST PUSH4 0x4E487B71 PUSH1 0xE0 SHL PUSH1 0x0 MSTORE PUSH1 0x11 PUSH1 0x4 MSTORE PUSH1 0x24 PUSH1 0x0 REVERT JUMPDEST SWAP3 SWAP2 PUSH2 0x2015 PUSH1 0x60 SWAP2 PUSH1 0x0 SWAP4 PUSH1 0x1 DUP1 PUSH1 0xA0 SHL SUB AND DUP7 MSTORE DUP4 PUSH1 0x20 DUP8 ADD MSTORE PUSH1 0x80 PUSH1 0x40 DUP8 ADD MSTORE PUSH1 0x80 DUP7 ADD SWAP1 PUSH2 0x1D8F JUMP JUMPDEST SWAP4 ADD MSTORE JUMP JUMPDEST ISZERO PUSH2 0x2021 JUMPI JUMP JUMPDEST PUSH1 0x40 MLOAD PUSH3 0x461BCD PUSH1 0xE5 SHL DUP2 MSTORE PUSH1 0x20 PUSH1 0x4 DUP3 ADD MSTORE PUSH1 0x15 PUSH1 0x24 DUP3 ADD MSTORE PUSH21 0x14DDD85C081D1BC81CDD18589B194819985A5B1959 PUSH1 0x5A SHL PUSH1 0x44 DUP3 ADD MSTORE PUSH1 0x64 SWAP1 REVERT JUMPDEST SWAP3 PUSH1 0x1 PUSH1 0x1 PUSH1 0xA0 SHL SUB SWAP3 SWAP1 SWAP2 DUP4 DUP2 AND SWAP2 DUP3 ISZERO PUSH2 0x2281 JUMPI PUSH1 0x40 DUP1 MLOAD PUSH4 0xC69DEEC5 PUSH1 0xE0 SHL DUP2 MSTORE DUP7 DUP9 AND PUSH1 0x1 PUSH1 0x1 PUSH1 0xA0 SHL SUB DUP2 AND PUSH1 0x4 DUP4 ADD MSTORE PUSH1 0x24 DUP3 ADD DUP5 SWAP1 MSTORE PUSH1 0x20 SWAP5 SWAP3 SWAP4 SWAP3 SWAP1 SWAP2 DUP6 DUP2 PUSH1 0x44 DUP2 DUP11 GAS STATICCALL DUP1 ISZERO PUSH2 0x2276 JUMPI PUSH1 0x0 SWAP1 PUSH2 0x2240 JUMPI JUMPDEST PUSH2 0x20C3 SWAP2 POP PUSH2 0x1ED8 JUMP JUMPDEST DUP4 MLOAD PUSH4 0x3E491D47 PUSH1 0xE0 SHL DUP2 MSTORE PUSH1 0x1 PUSH1 0x1 PUSH1 0xA0 SHL SUB DUP4 AND PUSH1 0x4 DUP3 ADD MSTORE PUSH1 0x24 DUP2 ADD DUP5 SWAP1 MSTORE SWAP6 DUP6 SWAP1 DUP8 SWAP1 PUSH1 0x44 SWAP1 DUP3 SWAP1 GAS STATICCALL SWAP6 DUP7 ISZERO PUSH2 0x2235 JUMPI PUSH1 0x0 SWAP7 PUSH2 0x2206 JUMPI JUMPDEST POP SWAP2 DUP5 SWAP2 PUSH2 0x2146 SWAP4 DUP6 MLOAD SWAP3 PUSH4 0x2E1A7D4D PUSH1 0xE0 SHL DUP6 DUP6 ADD MSTORE PUSH1 0x24 DUP5 ADD MSTORE PUSH1 0x24 DUP4 MSTORE PUSH2 0x2129 DUP4 PUSH2 0x1C8A JUMP JUMPDEST PUSH1 0x0 DUP7 MLOAD DUP1 SWAP7 DUP2 SWAP6 DUP3 SWAP5 PUSH4 0x468721A7 PUSH1 0xE0 SHL DUP5 MSTORE PUSH1 0x4 DUP5 ADD PUSH2 0x1FE9 JUMP JUMPDEST SUB SWAP3 GAS CALL SWAP1 DUP2 ISZERO PUSH2 0x21FB JUMPI PUSH1 0x0 SWAP2 PUSH2 0x21C3 JUMPI JUMPDEST POP ISZERO PUSH2 0x2188 JUMPI POP POP DUP1 PUSH2 0x216D JUMPI JUMPDEST POP POP POP POP JUMP JUMPDEST PUSH2 0x217F SWAP4 PUSH2 0x193E SWAP4 PUSH1 0x1 SLOAD AND SWAP1 PUSH2 0x2BF6 JUMP JUMPDEST CODESIZE DUP1 DUP1 DUP1 PUSH2 0x2167 JUMP JUMPDEST PUSH1 0x64 SWAP3 POP MLOAD SWAP1 PUSH3 0x461BCD PUSH1 0xE5 SHL DUP3 MSTORE PUSH1 0x4 DUP3 ADD MSTORE PUSH1 0x15 PUSH1 0x24 DUP3 ADD MSTORE PUSH21 0x11D85D59D9481DDA5D1A191C985DC819985A5B1959 PUSH1 0x5A SHL PUSH1 0x44 DUP3 ADD MSTORE REVERT JUMPDEST SWAP1 DUP4 DUP3 DUP2 RETURNDATASIZE DUP4 GT PUSH2 0x21F4 JUMPI JUMPDEST PUSH2 0x21D9 DUP2 DUP4 PUSH2 0x1CA5 JUMP JUMPDEST DUP2 ADD SUB SLT PUSH2 0x21F1 JUMPI POP PUSH2 0x21EB SWAP1 PUSH2 0x1ECB JUMP JUMPDEST CODESIZE PUSH2 0x2159 JUMP JUMPDEST DUP1 REVERT JUMPDEST POP RETURNDATASIZE PUSH2 0x21CF JUMP JUMPDEST DUP3 MLOAD RETURNDATASIZE PUSH1 0x0 DUP3 RETURNDATACOPY RETURNDATASIZE SWAP1 REVERT JUMPDEST SWAP1 SWAP6 DUP6 DUP3 DUP2 RETURNDATASIZE DUP4 GT PUSH2 0x222E JUMPI JUMPDEST PUSH2 0x221D DUP2 DUP4 PUSH2 0x1CA5 JUMP JUMPDEST DUP2 ADD SUB SLT PUSH2 0x21F1 JUMPI POP MLOAD SWAP5 DUP5 PUSH2 0x2100 JUMP JUMPDEST POP RETURNDATASIZE PUSH2 0x2213 JUMP JUMPDEST DUP5 MLOAD RETURNDATASIZE PUSH1 0x0 DUP3 RETURNDATACOPY RETURNDATASIZE SWAP1 REVERT JUMPDEST DUP7 DUP3 DUP2 RETURNDATASIZE DUP4 GT PUSH2 0x226F JUMPI JUMPDEST PUSH2 0x2255 DUP2 DUP4 PUSH2 0x1CA5 JUMP JUMPDEST DUP2 ADD SUB SLT PUSH2 0x21F1 JUMPI POP PUSH2 0x226A PUSH2 0x20C3 SWAP2 PUSH2 0x1ECB JUMP JUMPDEST PUSH2 0x20B9 JUMP JUMPDEST POP RETURNDATASIZE PUSH2 0x224B JUMP JUMPDEST DUP6 MLOAD RETURNDATASIZE PUSH1 0x0 DUP3 RETURNDATACOPY RETURNDATASIZE SWAP1 REVERT JUMPDEST PUSH1 0x40 MLOAD PUSH3 0x461BCD PUSH1 0xE5 SHL DUP2 MSTORE PUSH1 0x20 PUSH1 0x4 DUP3 ADD MSTORE PUSH1 0xD PUSH1 0x24 DUP3 ADD MSTORE PUSH13 0x496E76616C6964206761756765 PUSH1 0x98 SHL PUSH1 0x44 DUP3 ADD MSTORE PUSH1 0x64 SWAP1 REVERT JUMPDEST SWAP3 SWAP2 PUSH1 0x1 PUSH1 0x1 PUSH1 0xA0 SHL SUB SWAP2 DUP1 DUP4 AND PUSH2 0x28CD JUMPI POP DUP1 CALLVALUE SUB PUSH2 0x2873 JUMPI PUSH1 0x40 MLOAD PUSH1 0x20 PUSH4 0xD0E30DB PUSH1 0xE4 SHL DUP2 DUP4 ADD MSTORE PUSH1 0x4 DUP3 MSTORE PUSH1 0x40 DUP3 ADD SWAP2 DUP1 DUP4 LT PUSH1 0x1 PUSH1 0x1 PUSH1 0x40 SHL SUB DUP5 GT OR PUSH2 0x32B JUMPI DUP3 PUSH1 0x40 MSTORE PUSH32 0x0 SWAP3 PUSH4 0x468721A7 PUSH1 0xE0 SHL DUP2 MSTORE DUP6 DUP5 AND PUSH1 0x44 DUP4 ADD MSTORE DUP5 PUSH1 0x64 DUP4 ADD MSTORE PUSH1 0x80 PUSH1 0x84 DUP4 ADD MSTORE DUP6 DUP4 DUP3 DUP11 DUP2 PUSH2 0x2353 PUSH1 0xC4 DUP9 ADD DUP9 PUSH2 0x1D8F JUMP JUMPDEST PUSH1 0x0 SWAP6 DUP7 SWAP2 DUP3 PUSH1 0xA4 DUP12 ADD MSTORE DUP10 PUSH1 0x3F NOT SWAP2 SUB ADD SWAP4 AND GAS CALL SWAP3 DUP4 ISZERO PUSH2 0x2866 JUMPI DUP5 SWAP1 DUP3 SWAP5 PUSH2 0x282C JUMPI JUMPDEST POP POP POP POP ISZERO PUSH2 0x27F2 JUMPI POP SWAP3 JUMPDEST PUSH1 0x0 SWAP2 DUP4 DUP3 AND ISZERO PUSH2 0x27C6 JUMPI JUMPDEST DUP4 DUP3 AND SWAP7 DUP5 DUP7 AND DUP9 DUP2 EQ PUSH2 0x2781 JUMPI PUSH1 0x0 MSTORE PUSH1 0x20 SWAP8 PUSH1 0x6 DUP10 MSTORE PUSH1 0x40 PUSH1 0x0 KECCAK256 SWAP1 PUSH1 0x0 MSTORE DUP9 MSTORE PUSH2 0x23C1 PUSH1 0x40 PUSH1 0x0 KECCAK256 PUSH2 0x1CC6 JUMP JUMPDEST SWAP3 DUP4 MLOAD ISZERO PUSH2 0x2748 JUMPI PUSH1 0x3 SLOAD PUSH1 0x40 MLOAD PUSH4 0x95EA7B3 PUSH1 0xE0 SHL DUP12 DUP3 ADD MSTORE SWAP1 DUP8 AND PUSH1 0x1 PUSH1 0x1 PUSH1 0xA0 SHL SUB AND PUSH1 0x24 DUP3 ADD MSTORE PUSH1 0x44 DUP1 DUP3 ADD DUP6 SWAP1 MSTORE DUP2 MSTORE SWAP8 DUP7 SWAP1 PUSH2 0x2404 PUSH1 0x64 DUP12 PUSH2 0x1CA5 JUMP JUMPDEST AND SWAP7 PUSH1 0x40 MLOAD DUP11 DUP2 DUP1 PUSH2 0x2425 PUSH4 0x468721A7 PUSH1 0xE0 SHL SWAP14 DUP15 DUP4 MSTORE DUP7 PUSH1 0x4 DUP5 ADD PUSH2 0x1FE9 JUMP JUMPDEST SUB DUP2 PUSH1 0x0 DUP14 GAS CALL SWAP1 DUP2 ISZERO PUSH2 0x8BD JUMPI PUSH1 0x0 SWAP2 PUSH2 0x2713 JUMPI JUMPDEST POP ISZERO PUSH2 0x26D7 JUMPI SWAP4 DUP4 PUSH2 0x2459 PUSH2 0x24A8 SWAP5 PUSH2 0x24CA SWAP5 DUP14 SWAP8 PUSH2 0x24E3 SWAP10 PUSH2 0x29AA JUMP JUMPDEST PUSH1 0x40 MLOAD SWAP3 PUSH2 0x2466 DUP5 PUSH2 0x1C6F JUMP JUMPDEST DUP4 MSTORE DUP6 DUP4 ADD SWAP2 DUP11 DUP4 MSTORE PUSH1 0x40 DUP5 ADD SWAP1 DUP2 MSTORE PUSH1 0x60 DUP5 ADD SWAP2 DUP3 MSTORE DUP10 PUSH1 0x40 MLOAD SWAP7 DUP8 SWAP6 PUSH4 0xB858183F PUSH1 0xE0 SHL DUP11 DUP9 ADD MSTORE DUP10 PUSH1 0x24 DUP9 ADD MSTORE MLOAD PUSH1 0x80 PUSH1 0x44 DUP9 ADD MSTORE PUSH1 0xC4 DUP8 ADD SWAP1 PUSH2 0x1D8F JUMP JUMPDEST SWAP4 MLOAD AND PUSH1 0x64 DUP6 ADD MSTORE MLOAD PUSH1 0x84 DUP5 ADD MSTORE MLOAD PUSH1 0xA4 DUP4 ADD MSTORE SUB PUSH1 0x1F NOT DUP2 ADD DUP4 MSTORE DUP3 PUSH2 0x1CA5 JUMP JUMPDEST DUP5 PUSH1 0x3 SLOAD AND PUSH1 0x40 MLOAD SWAP4 DUP5 SWAP3 DUP4 SWAP3 DUP11 DUP5 MSTORE PUSH1 0x4 DUP5 ADD PUSH2 0x1FE9 JUMP JUMPDEST SUB DUP2 PUSH1 0x0 DUP9 GAS CALL SWAP1 DUP2 ISZERO PUSH2 0x8BD JUMPI PUSH1 0x0 SWAP2 PUSH2 0x26A2 JUMPI JUMPDEST POP ISZERO PUSH2 0x2665 JUMPI PUSH2 0x250D JUMPI JUMPDEST POP POP POP POP PUSH1 0x1 SWAP1 JUMP JUMPDEST PUSH1 0x24 SWAP2 DUP5 PUSH32 0x0 SWAP3 PUSH1 0x40 MLOAD SWAP5 DUP6 DUP1 SWAP3 PUSH4 0x70A08231 PUSH1 0xE0 SHL DUP3 MSTORE DUP6 PUSH1 0x4 DUP4 ADD MSTORE DUP7 AND GAS STATICCALL SWAP2 DUP3 ISZERO PUSH2 0x8BD JUMPI DUP6 SWAP4 PUSH1 0x0 SWAP4 PUSH2 0x2630 JUMPI JUMPDEST POP PUSH1 0x0 PUSH2 0x259D SWAP6 PUSH1 0x40 MLOAD SWAP5 PUSH4 0x2E1A7D4D PUSH1 0xE0 SHL DUP8 DUP8 ADD MSTORE PUSH1 0x24 DUP7 ADD MSTORE PUSH1 0x24 DUP6 MSTORE PUSH2 0x2588 DUP6 PUSH2 0x1C8A JUMP JUMPDEST PUSH1 0x40 MLOAD SWAP7 DUP8 SWAP6 DUP7 SWAP5 DUP6 SWAP4 DUP5 MSTORE PUSH1 0x4 DUP5 ADD PUSH2 0x1FE9 JUMP JUMPDEST SUB SWAP3 GAS CALL SWAP1 DUP2 ISZERO PUSH2 0x8BD JUMPI PUSH1 0x0 SWAP2 PUSH2 0x25FB JUMPI JUMPDEST POP ISZERO PUSH2 0x25BE JUMPI DUP1 DUP1 DUP1 PUSH2 0x2504 JUMP JUMPDEST PUSH1 0x64 SWAP1 PUSH1 0x40 MLOAD SWAP1 PUSH3 0x461BCD PUSH1 0xE5 SHL DUP3 MSTORE PUSH1 0x4 DUP3 ADD MSTORE PUSH1 0x16 PUSH1 0x24 DUP3 ADD MSTORE PUSH22 0x15D15512081D5B9DDC985C1C1A5B99C819985A5B1959 PUSH1 0x52 SHL PUSH1 0x44 DUP3 ADD MSTORE REVERT JUMPDEST SWAP1 DUP3 DUP3 DUP2 RETURNDATASIZE DUP4 GT PUSH2 0x2629 JUMPI JUMPDEST PUSH2 0x2611 DUP2 DUP4 PUSH2 0x1CA5 JUMP JUMPDEST DUP2 ADD SUB SLT PUSH2 0x21F1 JUMPI POP PUSH2 0x2623 SWAP1 PUSH2 0x1ECB JUMP JUMPDEST CODESIZE PUSH2 0x25B0 JUMP JUMPDEST POP RETURNDATASIZE PUSH2 0x2607 JUMP JUMPDEST SWAP2 SWAP4 DUP3 DUP2 SWAP5 SWAP3 SWAP5 RETURNDATASIZE DUP4 GT PUSH2 0x265E JUMPI JUMPDEST PUSH2 0x2649 DUP2 DUP4 PUSH2 0x1CA5 JUMP JUMPDEST DUP2 ADD SUB SLT PUSH2 0x21F1 JUMPI POP MLOAD DUP5 SWAP3 SWAP1 SWAP2 PUSH1 0x0 PUSH2 0x255F JUMP JUMPDEST POP RETURNDATASIZE PUSH2 0x263F JUMP JUMPDEST PUSH1 0x40 MLOAD PUSH3 0x461BCD PUSH1 0xE5 SHL DUP2 MSTORE PUSH1 0x4 DUP2 ADD DUP7 SWAP1 MSTORE PUSH1 0x15 PUSH1 0x24 DUP3 ADD MSTORE PUSH21 0x14DDD85C08195E1958DD5D1A5BDB8819985A5B1959 PUSH1 0x5A SHL PUSH1 0x44 DUP3 ADD MSTORE PUSH1 0x64 SWAP1 REVERT JUMPDEST SWAP1 DUP7 DUP3 DUP2 RETURNDATASIZE DUP4 GT PUSH2 0x26D0 JUMPI JUMPDEST PUSH2 0x26B8 DUP2 DUP4 PUSH2 0x1CA5 JUMP JUMPDEST DUP2 ADD SUB SLT PUSH2 0x21F1 JUMPI POP PUSH2 0x26CA SWAP1 PUSH2 0x1ECB JUMP JUMPDEST CODESIZE PUSH2 0x24F9 JUMP JUMPDEST POP RETURNDATASIZE PUSH2 0x26AE JUMP JUMPDEST PUSH1 0x40 MLOAD PUSH3 0x461BCD PUSH1 0xE5 SHL DUP2 MSTORE PUSH1 0x4 DUP2 ADD DUP12 SWAP1 MSTORE PUSH1 0x14 PUSH1 0x24 DUP3 ADD MSTORE PUSH20 0x151BDAD95B88185C1C1C9BDD994819985A5B1959 PUSH1 0x62 SHL PUSH1 0x44 DUP3 ADD MSTORE PUSH1 0x64 SWAP1 REVERT JUMPDEST SWAP1 DUP12 DUP3 DUP2 RETURNDATASIZE DUP4 GT PUSH2 0x2741 JUMPI JUMPDEST PUSH2 0x2729 DUP2 DUP4 PUSH2 0x1CA5 JUMP JUMPDEST DUP2 ADD SUB SLT PUSH2 0x21F1 JUMPI POP PUSH2 0x273B SWAP1 PUSH2 0x1ECB JUMP JUMPDEST CODESIZE PUSH2 0x243B JUMP JUMPDEST POP RETURNDATASIZE PUSH2 0x271F JUMP JUMPDEST PUSH1 0x40 MLOAD PUSH3 0x461BCD PUSH1 0xE5 SHL DUP2 MSTORE PUSH1 0x4 DUP2 ADD DUP11 SWAP1 MSTORE PUSH1 0x11 PUSH1 0x24 DUP3 ADD MSTORE PUSH17 0x14DDD85C081C185D1A081B9BDD081CD95D PUSH1 0x7A SHL PUSH1 0x44 DUP3 ADD MSTORE PUSH1 0x64 SWAP1 REVERT JUMPDEST PUSH1 0x40 MLOAD PUSH3 0x461BCD PUSH1 0xE5 SHL DUP2 MSTORE PUSH1 0x20 PUSH1 0x4 DUP3 ADD MSTORE PUSH1 0x19 PUSH1 0x24 DUP3 ADD MSTORE PUSH32 0x43616E6E6F74207377617020746F2073616D6520746F6B656E00000000000000 PUSH1 0x44 DUP3 ADD MSTORE PUSH1 0x64 SWAP1 REVERT JUMPDEST SWAP2 POP POP PUSH32 0x0 PUSH1 0x1 SWAP2 PUSH2 0x2391 JUMP JUMPDEST PUSH1 0x64 SWAP1 PUSH1 0x40 MLOAD SWAP1 PUSH3 0x461BCD PUSH1 0xE5 SHL DUP3 MSTORE PUSH1 0x4 DUP3 ADD MSTORE PUSH1 0x13 PUSH1 0x24 DUP3 ADD MSTORE PUSH19 0x115512081DDC985C1C1A5B99C819985A5B1959 PUSH1 0x6A SHL PUSH1 0x44 DUP3 ADD MSTORE REVERT JUMPDEST SWAP1 DUP1 SWAP3 SWAP4 SWAP5 POP RETURNDATASIZE DUP4 GT PUSH2 0x285F JUMPI JUMPDEST PUSH2 0x2844 DUP2 DUP7 PUSH2 0x1CA5 JUMP JUMPDEST DUP2 ADD SUB SLT PUSH2 0x21F1 JUMPI POP PUSH2 0x2856 SWAP1 PUSH2 0x1ECB JUMP JUMPDEST CODESIZE DUP1 DUP4 DUP2 PUSH2 0x2379 JUMP JUMPDEST POP RETURNDATASIZE PUSH2 0x283A JUMP JUMPDEST POP PUSH1 0x40 MLOAD SWAP1 RETURNDATASIZE SWAP1 DUP3 RETURNDATACOPY RETURNDATASIZE SWAP1 REVERT JUMPDEST PUSH1 0x40 MLOAD PUSH3 0x461BCD PUSH1 0xE5 SHL DUP2 MSTORE PUSH1 0x20 PUSH1 0x4 DUP3 ADD MSTORE PUSH1 0x2C PUSH1 0x24 DUP3 ADD MSTORE PUSH32 0x4D73672E76616C7565206D75737420657175616C20616D6F756E74496E20666F PUSH1 0x44 DUP3 ADD MSTORE PUSH12 0xE440DCC2E8D2ECCA408AA89 PUSH1 0xA3 SHL PUSH1 0x64 DUP3 ADD MSTORE PUSH1 0x84 SWAP1 REVERT JUMPDEST SWAP3 CALLVALUE ISZERO PUSH2 0x2385 JUMPI PUSH1 0x40 MLOAD PUSH3 0x461BCD PUSH1 0xE5 SHL DUP2 MSTORE PUSH1 0x20 PUSH1 0x4 DUP3 ADD MSTORE PUSH1 0x32 PUSH1 0x24 DUP3 ADD MSTORE PUSH32 0x4E6F204554482073686F756C642062652073656E74207768656E20746F6B656E PUSH1 0x44 DUP3 ADD MSTORE PUSH18 0x40D2E640DCDEE840DCC2E8D2ECCA408AA89 PUSH1 0x73 SHL PUSH1 0x64 DUP3 ADD MSTORE PUSH1 0x84 SWAP1 REVERT JUMPDEST SWAP1 DUP2 PUSH1 0x20 SWAP2 SUB SLT PUSH2 0x3E2 JUMPI MLOAD PUSH1 0xFF DUP2 AND DUP2 SUB PUSH2 0x3E2 JUMPI SWAP1 JUMP JUMPDEST PUSH1 0x0 NOT DUP2 EQ PUSH2 0x1FD3 JUMPI PUSH1 0x1 ADD SWAP1 JUMP JUMPDEST DUP1 MLOAD DUP3 LT ISZERO PUSH2 0x2970 JUMPI PUSH1 0x20 SWAP2 PUSH1 0x5 SHL ADD ADD SWAP1 JUMP JUMPDEST PUSH4 0x4E487B71 PUSH1 0xE0 SHL PUSH1 0x0 MSTORE PUSH1 0x32 PUSH1 0x4 MSTORE PUSH1 0x24 PUSH1 0x0 REVERT JUMPDEST DUP2 DUP2 MUL SWAP3 SWAP2 DUP2 ISZERO SWAP2 DUP5 DIV EQ OR ISZERO PUSH2 0x1FD3 JUMPI JUMP JUMPDEST PUSH1 0xFF AND PUSH1 0x4D DUP2 GT PUSH2 0x1FD3 JUMPI PUSH1 0xA EXP SWAP1 JUMP JUMPDEST SWAP3 SWAP4 PUSH1 0x1 PUSH1 0x1 PUSH1 0xA0 SHL SUB SWAP4 DUP5 AND SWAP4 SWAP1 SWAP3 DUP2 AND SWAP2 DUP5 DUP4 EQ PUSH2 0x2BED JUMPI DUP1 ISZERO PUSH2 0x2BE2 JUMPI PUSH1 0x40 MLOAD SWAP3 PUSH4 0x313CE567 PUSH1 0xE0 SHL SWAP2 DUP3 DUP6 MSTORE PUSH1 0x20 PUSH1 0x4 SWAP9 DUP2 DUP8 DUP12 DUP2 DUP13 GAS STATICCALL SWAP7 DUP8 ISZERO PUSH2 0x8BD JUMPI PUSH1 0x0 SWAP8 PUSH2 0x2BC3 JUMPI JUMPDEST POP PUSH1 0x40 MLOAD SWAP5 DUP6 MSTORE DUP2 DUP6 DUP12 DUP2 DUP8 GAS STATICCALL SWAP5 DUP6 ISZERO PUSH2 0x8BD JUMPI PUSH1 0x0 SWAP6 PUSH2 0x2B94 JUMPI JUMPDEST POP PUSH1 0x0 SWAP1 DUP2 SWAP1 DUP3 SWAP6 DUP4 SWAP9 DUP5 JUMPDEST DUP4 MLOAD DUP2 LT ISZERO PUSH2 0x2B81 JUMPI DUP14 DUP3 PUSH2 0x2A33 DUP4 DUP8 PUSH2 0x295C JUMP JUMPDEST MLOAD MLOAD AND EQ PUSH2 0x2B66 JUMPI JUMPDEST DUP3 DUP3 PUSH2 0x2A48 DUP4 DUP8 PUSH2 0x295C JUMP JUMPDEST MLOAD MLOAD AND EQ PUSH2 0x2B4B JUMPI JUMPDEST DUP6 DUP1 PUSH2 0x2B44 JUMPI JUMPDEST PUSH2 0x2A6A JUMPI PUSH2 0x2A65 SWAP1 PUSH2 0x294D JUMP JUMPDEST PUSH2 0x2A1E JUMP JUMPDEST POP POP POP POP SWAP1 SWAP2 SWAP3 SWAP4 SWAP5 SWAP6 SWAP7 SWAP8 SWAP9 POP JUMPDEST DUP2 PUSH2 0x2B3C JUMPI JUMPDEST POP ISZERO PUSH2 0x2B03 JUMPI POP PUSH2 0x2AB0 SWAP4 SWAP3 PUSH2 0x2AA4 PUSH2 0x2A9E PUSH2 0x2AA4 SWAP5 PUSH2 0x2AAA SWAP5 PUSH2 0x2986 JUMP JUMPDEST SWAP2 PUSH2 0x2999 JUMP JUMPDEST SWAP1 PUSH2 0x2986 JUMP JUMPDEST SWAP4 PUSH2 0x2999 JUMP JUMPDEST SWAP1 DUP2 ISZERO PUSH2 0x2AEE JUMPI DUP4 SLOAD SWAP2 PUSH2 0x2710 SWAP3 DUP4 SUB SWAP2 DUP4 DUP4 GT PUSH2 0x2AD9 JUMPI PUSH2 0x2AD5 SWAP4 SWAP5 SWAP6 POP DIV PUSH2 0x2986 JUMP JUMPDEST DIV SWAP1 JUMP JUMPDEST PUSH1 0x11 DUP7 PUSH4 0x4E487B71 PUSH1 0xE0 SHL PUSH1 0x0 MSTORE MSTORE PUSH1 0x24 PUSH1 0x0 REVERT JUMPDEST PUSH1 0x12 DUP5 PUSH4 0x4E487B71 PUSH1 0xE0 SHL PUSH1 0x0 MSTORE MSTORE PUSH1 0x24 PUSH1 0x0 REVERT JUMPDEST DUP8 PUSH1 0x64 SWAP2 PUSH1 0x40 MLOAD SWAP2 PUSH3 0x461BCD PUSH1 0xE5 SHL DUP4 MSTORE DUP3 ADD MSTORE PUSH1 0x13 PUSH1 0x24 DUP3 ADD MSTORE PUSH19 0x4D697373696E6720746F6B656E207072696365 PUSH1 0x68 SHL PUSH1 0x44 DUP3 ADD MSTORE REVERT JUMPDEST SWAP1 POP CODESIZE PUSH2 0x2A7F JUMP JUMPDEST POP DUP5 PUSH2 0x2A58 JUMP JUMPDEST SWAP4 POP SWAP9 POP DUP5 PUSH2 0x2B5A DUP5 DUP5 PUSH2 0x295C JUMP JUMPDEST MLOAD ADD MLOAD SWAP9 PUSH1 0x1 SWAP4 PUSH2 0x2A51 JUMP JUMPDEST SWAP5 POP SWAP7 POP DUP5 PUSH2 0x2B75 DUP6 DUP5 PUSH2 0x295C JUMP JUMPDEST MLOAD ADD MLOAD SWAP7 PUSH1 0x1 SWAP5 PUSH2 0x2A3C JUMP JUMPDEST POP POP POP POP SWAP1 SWAP2 SWAP3 SWAP4 SWAP5 SWAP6 SWAP7 SWAP8 SWAP9 POP PUSH2 0x2A79 JUMP JUMPDEST PUSH2 0x2BB5 SWAP2 SWAP6 POP DUP3 RETURNDATASIZE DUP5 GT PUSH2 0x2BBC JUMPI JUMPDEST PUSH2 0x2BAD DUP2 DUP4 PUSH2 0x1CA5 JUMP JUMPDEST DUP2 ADD SWAP1 PUSH2 0x2934 JUMP JUMPDEST SWAP4 CODESIZE PUSH2 0x2A12 JUMP JUMPDEST POP RETURNDATASIZE PUSH2 0x2BA3 JUMP JUMPDEST PUSH2 0x2BDB SWAP2 SWAP8 POP DUP3 RETURNDATASIZE DUP5 GT PUSH2 0x2BBC JUMPI PUSH2 0x2BAD DUP2 DUP4 PUSH2 0x1CA5 JUMP JUMPDEST SWAP6 CODESIZE PUSH2 0x29F5 JUMP JUMPDEST POP POP POP SWAP2 POP POP PUSH1 0x0 SWAP1 JUMP JUMPDEST SWAP4 POP POP POP SWAP2 POP SWAP1 JUMP JUMPDEST SWAP2 SWAP3 SWAP1 DUP4 ISZERO PUSH2 0x2504 JUMPI PUSH1 0x2 SLOAD PUSH1 0x1 PUSH1 0x1 PUSH1 0xA0 SHL SUB SWAP5 SWAP1 DUP6 AND SWAP2 DUP1 DUP7 AND DUP1 DUP5 EQ PUSH2 0x2C7C JUMPI PUSH1 0x0 SWAP7 DUP8 JUMPDEST DUP7 MLOAD DUP2 LT ISZERO PUSH2 0x2C6F JUMPI DUP3 DUP3 PUSH2 0x2C33 DUP4 DUP11 PUSH2 0x295C JUMP JUMPDEST MLOAD MLOAD AND EQ PUSH2 0x2C49 JUMPI PUSH2 0x2C44 SWAP1 PUSH2 0x294D JUMP JUMPDEST PUSH2 0x2C1E JUMP JUMPDEST POP POP POP SWAP1 SWAP2 SWAP3 SWAP4 SWAP5 POP PUSH1 0x1 JUMPDEST PUSH2 0x2C63 JUMPI POP POP POP POP POP PUSH1 0x1 SWAP1 JUMP JUMPDEST PUSH2 0x2C6C SWAP5 PUSH2 0x22B6 JUMP JUMPDEST SWAP1 JUMP JUMPDEST POP POP POP SWAP1 SWAP2 SWAP3 SWAP4 SWAP5 PUSH2 0x2C55 JUMP JUMPDEST POP POP POP POP POP POP POP PUSH1 0x1 SWAP1 JUMP JUMPDEST MLOAD SWAP1 DUP2 PUSH1 0x2 SIGNEXTEND DUP3 SUB PUSH2 0x3E2 JUMPI JUMP JUMPDEST MLOAD SWAP1 PUSH1 0x1 PUSH1 0x1 PUSH1 0x80 SHL SUB DUP3 AND DUP3 SUB PUSH2 0x3E2 JUMPI JUMP JUMPDEST SWAP2 SWAP1 DUP3 PUSH2 0x180 SWAP2 SUB SLT PUSH2 0x3E2 JUMPI DUP2 MLOAD PUSH1 0x1 PUSH1 0x1 PUSH1 0x60 SHL SUB DUP2 AND DUP2 SUB PUSH2 0x3E2 JUMPI SWAP2 PUSH2 0x2CD6 PUSH1 0x20 DUP3 ADD PUSH2 0x1EB7 JUMP JUMPDEST SWAP2 PUSH2 0x2CE3 PUSH1 0x40 DUP4 ADD PUSH2 0x1EB7 JUMP JUMPDEST SWAP2 PUSH2 0x2CF0 PUSH1 0x60 DUP3 ADD PUSH2 0x1EB7 JUMP JUMPDEST SWAP2 PUSH2 0x2CFD PUSH1 0x80 DUP4 ADD PUSH2 0x2C88 JUMP JUMPDEST SWAP2 PUSH2 0x2D0A PUSH1 0xA0 DUP3 ADD PUSH2 0x2C88 JUMP JUMPDEST SWAP2 PUSH2 0x2D17 PUSH1 0xC0 DUP4 ADD PUSH2 0x2C88 JUMP JUMPDEST SWAP2 PUSH2 0x2D24 PUSH1 0xE0 DUP3 ADD PUSH2 0x2C96 JUMP JUMPDEST SWAP2 PUSH2 0x100 DUP3 ADD MLOAD SWAP2 PUSH2 0x120 DUP2 ADD MLOAD SWAP2 PUSH2 0x2C6C PUSH2 0x160 PUSH2 0x2D46 PUSH2 0x140 DUP6 ADD PUSH2 0x2C96 JUMP JUMPDEST SWAP4 ADD PUSH2 0x2C96 JUMP JUMPDEST PUSH1 0x40 DUP1 MLOAD SWAP4 SWAP1 SWAP3 PUSH1 0x1 PUSH1 0x1 PUSH1 0xA0 SHL SUB SWAP3 DUP4 AND SWAP2 PUSH2 0x2D69 DUP7 PUSH2 0x1C6F JUMP JUMPDEST DUP6 MSTORE PUSH1 0x20 SWAP3 DUP4 DUP7 ADD DUP4 DUP2 MSTORE DUP6 DUP8 ADD SWAP2 PUSH1 0x1 PUSH1 0x1 PUSH1 0x80 SHL SUB SWAP3 DUP4 SWAP2 DUP3 DUP3 MSTORE PUSH1 0x60 DUP11 ADD SWAP4 DUP4 DUP6 MSTORE DUP10 MLOAD SWAP11 PUSH4 0xFC6F7865 PUSH1 0xE0 SHL DUP11 DUP14 ADD MSTORE MLOAD PUSH1 0x24 DUP13 ADD MSTORE MLOAD AND PUSH1 0x44 DUP11 ADD MSTORE MLOAD AND PUSH1 0x64 DUP9 ADD MSTORE MLOAD AND PUSH1 0x84 DUP7 ADD MSTORE PUSH1 0x84 DUP6 MSTORE PUSH1 0xC0 DUP6 ADD SWAP2 PUSH1 0x1 PUSH1 0x1 PUSH1 0x40 SHL SUB SWAP2 DUP7 DUP5 LT DUP4 DUP6 GT OR PUSH2 0x32B JUMPI DUP4 DUP1 SWAP3 DUP2 DUP9 MSTORE PUSH4 0x5229073F PUSH1 0xE0 SHL DUP3 MSTORE PUSH1 0x0 SWAP6 DUP7 DUP1 SWAP5 DUP12 PUSH2 0x2DFD DUP2 PUSH1 0xBF NOT SWAP4 PUSH1 0xC4 DUP3 ADD PUSH2 0x1FE9 JUMP JUMPDEST SUB ADD SWAP3 GAS CALL SWAP6 DUP7 ISZERO PUSH2 0x2F11 JUMPI DUP4 SWAP3 DUP5 SWAP8 PUSH2 0x2E65 JUMPI JUMPDEST POP POP POP ISZERO PUSH2 0x2E31 JUMPI DUP3 DUP5 DUP1 MLOAD DUP2 ADD SUB SLT PUSH2 0x21F1 JUMPI POP DUP3 ADD MLOAD SWAP2 ADD MLOAD SWAP1 SWAP2 JUMP JUMPDEST POP PUSH1 0x64 SWAP2 MLOAD SWAP1 PUSH3 0x461BCD PUSH1 0xE5 SHL DUP3 MSTORE PUSH1 0x4 DUP3 ADD MSTORE PUSH1 0xE PUSH1 0x24 DUP3 ADD MSTORE PUSH14 0x10DBDB1B1958DD0819985A5B1959 PUSH1 0x92 SHL PUSH1 0x44 DUP3 ADD MSTORE REVERT JUMPDEST SWAP2 SWAP7 POP SWAP2 POP RETURNDATASIZE DUP1 DUP5 DUP9 RETURNDATACOPY PUSH2 0x2E79 DUP2 DUP9 PUSH2 0x1CA5 JUMP JUMPDEST DUP3 ADD SWAP6 DUP6 DUP4 PUSH1 0xC0 DUP10 ADD SWAP9 SUB SLT PUSH2 0x2EF5 JUMPI PUSH2 0x2E92 SWAP1 PUSH2 0x1ECB JUMP JUMPDEST SWAP2 PUSH1 0xE0 DUP2 ADD MLOAD SWAP1 DUP3 DUP3 GT PUSH2 0x2F0D JUMPI ADD DUP7 PUSH1 0xDF DUP3 ADD SLT ISZERO PUSH2 0x2EF5 JUMPI PUSH1 0xC0 DUP2 ADD MLOAD SWAP2 DUP3 GT PUSH2 0x2EF9 JUMPI DUP6 MLOAD SWAP7 PUSH2 0x2ECE PUSH1 0x1F DUP5 ADD PUSH1 0x1F NOT AND DUP8 ADD DUP10 PUSH2 0x1CA5 JUMP JUMPDEST DUP3 DUP9 MSTORE PUSH1 0xE0 DUP4 DUP4 ADD ADD GT PUSH2 0x2EF5 JUMPI SWAP1 PUSH2 0x2EED SWAP2 PUSH1 0xE0 DUP7 DUP10 ADD SWAP2 ADD PUSH2 0x1D6C JUMP JUMPDEST CODESIZE DUP1 DUP1 PUSH2 0x2E12 JUMP JUMPDEST DUP4 DUP1 REVERT JUMPDEST PUSH4 0x4E487B71 PUSH1 0xE0 SHL DUP5 MSTORE PUSH1 0x41 PUSH1 0x4 MSTORE PUSH1 0x24 DUP5 REVERT JUMPDEST DUP5 DUP1 REVERT JUMPDEST DUP6 MLOAD RETURNDATASIZE DUP6 DUP3 RETURNDATACOPY RETURNDATASIZE SWAP1 REVERT JUMPDEST PUSH1 0x2 SLOAD PUSH1 0x40 MLOAD PUSH4 0x70A08231 PUSH1 0xE0 SHL DUP2 MSTORE PUSH1 0x1 PUSH1 0x1 PUSH1 0xA0 SHL SUB SWAP3 DUP4 AND PUSH1 0x4 DUP3 ADD MSTORE SWAP2 PUSH1 0x20 SWAP2 DUP4 SWAP2 PUSH1 0x24 SWAP2 DUP4 SWAP2 AND GAS STATICCALL SWAP1 DUP2 ISZERO PUSH2 0x8BD JUMPI PUSH1 0x0 SWAP2 PUSH2 0x2F5B JUMPI POP SWAP1 JUMP JUMPDEST SWAP1 PUSH1 0x20 DUP3 RETURNDATASIZE DUP3 GT PUSH2 0x2F81 JUMPI JUMPDEST DUP2 PUSH2 0x2F74 PUSH1 0x20 SWAP4 DUP4 PUSH2 0x1CA5 JUMP JUMPDEST DUP2 ADD SUB SLT PUSH2 0x21F1 JUMPI POP MLOAD SWAP1 JUMP JUMPDEST RETURNDATASIZE SWAP2 POP PUSH2 0x2F67 JUMP INVALID 0xC4 JUMPI 0xDA 0xBB SHR 0xD0 TIMESTAMP 0x2F 0x2D 0x4E 0xE0 0xE3 JUMPDEST 0xED 0x2D ORIGIN 0x4C DUP10 PUSH32 0xF52CA6D0033A86D6A43CE80502A264697066735822122031B4CA7B59AD6AF5C7 PREVRANDAO 0xEA MUL SWAP14 0xD5 0xCE DUP12 PUSH24 0x6846539DDCCD0ED55B95C8C8CDEECC64736F6C6343000814 STOP CALLER "
        },
        "methodIdentifiers": {
          "WETH()": "ad5c4648",
          "approvePool(address)": "424c265b",
          "approvedPools(address)": "f0bbcec4",
          "collectAndConvertFees(address,uint256,(address,uint256)[])": "019556a3",
          "owner()": "8da5cb5b",
          "removePool(address)": "3b7d0946",
          "renounceOwnership()": "715018a6",
          "rewardStable()": "f2bf87e3",
          "rewardToken()": "f7c618c1",
          "setRewardStable(address)": "c13d2f75",
          "setRewardToken(address)": "8aee8127",
          "setSlippageTolerance(uint256)": "117da1ee",
          "setSwapPaths((address,address,bytes)[])": "fb0b57b5",
          "slippageTolerance()": "d03153aa",
          "stakeAndCollect(address,uint256,(address,uint256)[])": "0b43791c",
          "swap(address,uint256,address,bool,(address,uint256)[])": "7fcf111c",
          "swapPaths(address,address)": "4a6a749c",
          "swapRouter()": "c31c9c07",
          "transferOwnership(address)": "f2fde38b",
          "unstakeAndCollect(address,uint256,(address,uint256)[])": "46ed0e69",
          "withdrawAndCollect(address,uint256,(address,uint256)[])": "95646852"
        }
      }
    }
  }
}