{
  "contracts/CholoDepositorModule.sol": {
    "CholoDepositorModule": {
      "abi": [
        {
          "inputs": [
            {
              "internalType": "address",
              "name": "_owner",
              "type": "address"
            },
            {
              "internalType": "address",
              "name": "_choloDromeModule",
              "type": "address"
            },
            {
              "internalType": "address",
              "name": "_slipstreamSugar",
              "type": "address"
            }
          ],
          "stateMutability": "nonpayable",
          "type": "constructor"
        },
        {
          "inputs": [
            {
              "internalType": "address",
              "name": "owner",
              "type": "address"
            }
          ],
          "name": "OwnableInvalidOwner",
          "type": "error"
        },
        {
          "inputs": [
            {
              "internalType": "address",
              "name": "account",
              "type": "address"
            }
          ],
          "name": "OwnableUnauthorizedAccount",
          "type": "error"
        },
        {
          "anonymous": false,
          "inputs": [
            {
              "indexed": true,
              "internalType": "address",
              "name": "safe",
              "type": "address"
            },
            {
              "indexed": true,
              "internalType": "address",
              "name": "pool",
              "type": "address"
            },
            {
              "indexed": false,
              "internalType": "uint256",
              "name": "tokenId",
              "type": "uint256"
            }
          ],
          "name": "DepositMaxCompleted",
          "type": "event"
        },
        {
          "anonymous": false,
          "inputs": [
            {
              "indexed": true,
              "internalType": "address",
              "name": "previousOwner",
              "type": "address"
            },
            {
              "indexed": true,
              "internalType": "address",
              "name": "newOwner",
              "type": "address"
            }
          ],
          "name": "OwnershipTransferred",
          "type": "event"
        },
        {
          "inputs": [],
          "name": "choloDromeModule",
          "outputs": [
            {
              "internalType": "address",
              "name": "",
              "type": "address"
            }
          ],
          "stateMutability": "view",
          "type": "function"
        },
        {
          "inputs": [
            {
              "components": [
                {
                  "internalType": "address",
                  "name": "token",
                  "type": "address"
                },
                {
                  "internalType": "uint256",
                  "name": "amount",
                  "type": "uint256"
                }
              ],
              "internalType": "struct CholoDepositorModule.DepositInput[]",
              "name": "deposits",
              "type": "tuple[]"
            },
            {
              "internalType": "address",
              "name": "pool",
              "type": "address"
            },
            {
              "internalType": "int256",
              "name": "ticksBelow",
              "type": "int256"
            },
            {
              "internalType": "int256",
              "name": "ticksAbove",
              "type": "int256"
            }
          ],
          "name": "depositMax",
          "outputs": [],
          "stateMutability": "payable",
          "type": "function"
        },
        {
          "inputs": [],
          "name": "owner",
          "outputs": [
            {
              "internalType": "address",
              "name": "",
              "type": "address"
            }
          ],
          "stateMutability": "view",
          "type": "function"
        },
        {
          "inputs": [],
          "name": "renounceOwnership",
          "outputs": [],
          "stateMutability": "nonpayable",
          "type": "function"
        },
        {
          "inputs": [],
          "name": "slipstreamSugar",
          "outputs": [
            {
              "internalType": "address",
              "name": "",
              "type": "address"
            }
          ],
          "stateMutability": "view",
          "type": "function"
        },
        {
          "inputs": [
            {
              "internalType": "address",
              "name": "newOwner",
              "type": "address"
            }
          ],
          "name": "transferOwnership",
          "outputs": [],
          "stateMutability": "nonpayable",
          "type": "function"
        }
      ],
      "evm": {
        "bytecode": {
          "linkReferences": {},
          "object": "60a034620001bd57601f62001bbb38819003918201601f191683019291906001600160401b03841183851017620001c2578160609284926040968752833981010312620001bd576200005181620001d8565b6200006c836200006460208501620001d8565b9301620001d8565b916001600160a01b03918216908115620001a557600080546001600160a01b0319808216851783559385939290918416907f8be0079c531659141344cd1fd0a4f28419497f9722a3daafe3b4186f6b6457e09080a31691821562000162578316156200011e576001541617600155608052516119cd9081620001ee82396080518181816101b70152818161058d015281816105eb015281816106760152818161070d01528181610802015261087f0152f35b835162461bcd60e51b815260206004820152601560248201527f496e76616c6964205375676172206164647265737300000000000000000000006044820152606490fd5b6064855162461bcd60e51b815260206004820152602060248201527f496e76616c69642043686f6c6f44726f6d654d6f64756c6520616464726573736044820152fd5b8451631e4fbdf760e01b815260006004820152602490fd5b600080fd5b634e487b7160e01b600052604160045260246000fd5b51906001600160a01b0382168203620001bd5756fe60e080604052600436101561001357600080fd5b60003560e01c908163076095ca146101e6575080636ebaf34e146101a1578063715018a6146101485780638da5cb5b1461011f578063a1b627b0146100f65763f2fde38b1461006157600080fd5b346100f15760203660031901126100f1576004356001600160a01b03818116918290036100f1576100906116b6565b81156100d857600054826bffffffffffffffffffffffff60a01b821617600055167f8be0079c531659141344cd1fd0a4f28419497f9722a3daafe3b4186f6b6457e0600080a3005b604051631e4fbdf760e01b815260006004820152602490fd5b600080fd5b346100f15760003660031901126100f1576001546040516001600160a01b039091168152602090f35b346100f15760003660031901126100f1576000546040516001600160a01b039091168152602090f35b346100f15760003660031901126100f1576101616116b6565b600080546001600160a01b0319811682556001600160a01b03167f8be0079c531659141344cd1fd0a4f28419497f9722a3daafe3b4186f6b6457e08280a3005b346100f15760003660031901126100f1576040517f00000000000000000000000000000000000000000000000000000000000000006001600160a01b03168152602090f35b60803660031901126100f15767ffffffffffffffff600435116100f1573660236004350112156100f15767ffffffffffffffff60043560040135116100f1573660246004356004013560061b6004350101116100f1576024356001600160a01b03811690036100f1576001546389a3027160e01b8252602090829060049082906001600160a01b03165afa908115610c8f57600091611697575b506040516370a0823160e01b8152336004820152906020826024816001600160a01b0385165afa918215610c8f57600092611663575b50604051630dfe168160e01b81526020816004816024356001600160a01b03165afa908115610c8f57600091611644575b5060405163d21220a760e01b81526020816004816024356001600160a01b03165afa8015610c8f576000608052611623575b506040516370a0823160e01b81523360048201526020816024816001600160a01b0386165afa908115610c8f576000916115f1575b50604051926370a0823160e01b845233600485015260208460248160018060a01b03608051165afa938415610c8f576000946115bd575b5060009460005b60043560040135811061140857506040516370a0823160e01b81523360048201526020816024816001600160a01b0387165afa908115610c8f5787906000926113d2575b506103db9192611730565b03611395576040516370a0823160e01b81523360048201526020816024816001600160a01b0388165afa8015610c8f57839060009061135f575b61041f9250611723565b60a0526040516370a0823160e01b8152336004820152608051602090829060249082906001600160a01b03165afa8015610c8f578590600090611329575b6104679250611723565b60c0526001600160a01b03838116908216036113175761048a8560a0511461173d565b6001600160a01b038381169082168181149103611300575b156112c257604051633850c7bd60e01b81529260c0846004816024356001600160a01b03165afa918215610c8f57600094600093611245575b506040516334324e9f60e21b8152936020856004816024356001600160a01b03165afa948515610c8f57600095611209575b5061051d8560020b6044356117c7565b96600285900b88810381811260008b129081169290911390151617610c9b5761054b8660020b6064356117c7565b9182808760020b011260008760020b12908015821691151617610c9b5760405163986cfba360e01b8152600287810b8b9003900b6004820152916020836024817f00000000000000000000000000000000000000000000000000000000000000006001600160a01b03165afa928315610c8f576000936111cd575b5060405163986cfba360e01b8152600288810b8601900b6004820152916020836024817f00000000000000000000000000000000000000000000000000000000000000006001600160a01b03165afa928315610c8f57600093611191575b5060405163397d1beb60e21b8152600481018d90526001600160a01b03602480358216908301528b166044820152600289810b8d8103820b60648401528701900b60848201526020818060a4810103817f00000000000000000000000000000000000000000000000000000000000000006001600160a01b03165afa908115610c8f578d918d888c8f94600094611151575b50604051630155925960e21b815260048101969096526001600160a01b03602480358216908801529094166044860152600293840b918203840b60648601520190910b608483015290816020828060a481015b03817f00000000000000000000000000000000000000000000000000000000000000006001600160a01b03165afa908115610c8f578f9260009261111a575b508192806107568484611730565b116110d7575b508a9150506001600160a01b03808216908a1603610f89575060a051908282119081610f7d575b50610e72575b505050505b6001600160a01b0385811690851603610e695789905b6080516001600160a01b0390811690861603610e61578a5b604051635d7e7b4760e11b8152600481019390935260248301526001600160a01b03898116604484015283811660648401528181166084840152602090839060a49082907f0000000000000000000000000000000000000000000000000000000000000000165afa908115610c8f57600091610e26575b6040805163c72e160b60e01b81526001600160a01b038c81166004830152958616602482015291851660448301526001600160801b0392909216606482015292909150829060849082907f0000000000000000000000000000000000000000000000000000000000000000165afa918215610c8f57600091600093610deb575b506001600160a01b0385811690851603610dcc5760648a5b048210610d87576080516001600160a01b0390811690851603610d635760648a5b048310610d1e576040516323e6650160e11b81529960208b6004816024356001600160a01b03165afa9a8b15610c8f5760009b610ced575b506001600160a01b0386811690861603610cd05780945b6080516001600160a01b03908116911603610cb157955b61012c42014211610c9b57604051998a61018081011067ffffffffffffffff6101808d011117610c795760649889976101808d0160405260018060a01b03168c5260018060a01b036080511660208d015260020b60408c01528160020b0360020b60608b015260020b0160020b608089015260a088015260c08701520460e0850152046101008301523361012083015261012c420161014083015260018060a01b03166101608201526040519063b5007d1f60e01b602083015260018060a01b03815116602483015260018060a01b036020820151166044830152604081015160020b6064830152606081015160020b6084830152608081015160020b60a483015260a081015160c483015260c081015160e483015260e081015161010483015261010081015161012483015260018060a01b036101208201511661014483015261014081015161016483015261016060018060a01b0391015116610184908183015281526101c0918282019082821067ffffffffffffffff831117610c79576040829052635229073f60e01b82526001600160a01b03166101c483015260006101e48301819052608061020484015281610b1161024485018561180d565b82610224860152846101bf199103018183335af1928315610c8f57600092600094610bd5575b50505015610ba2576080818051810103126100f157604060208201519101516001600160801b038116036100f1576040519081526024356001600160a01b03169033907fc34e2d22e044e942030b4e10110bc941601e6e29566d733c614338bdb6fc58ca90602090a3005b60405162461bcd60e51b815260206004820152600b60248201526a135a5b9d0819985a5b195960aa1b6044820152606490fd5b91935091503d806000853e610bea81856116e2565b8101926040828486019503126100f157610c03906117ba565b916101e091828101519067ffffffffffffffff82116100f1570190846101df830112156100f1578101519067ffffffffffffffff8211610c795760405194610c55601f8401601f1916602001876116e2565b8286528383830101116100f157610c71926020860191016117ea565b828080610b37565b634e487b7160e01b600052604160045260246000fd5b6040513d6000823e3d90fd5b634e487b7160e01b600052601160045260246000fd5b50606260c0510260c051810460621460c051151715610c9b5795610952565b60a05180606281020460621481151715610c9b576062029461093b565b610d10919b5060203d602011610d17575b610d0881836116e2565b810190611704565b998b610924565b503d610cfe565b60405162461bcd60e51b815260206004820152601960248201527f546f6b656e312075736564206c657373207468616e20393825000000000000006044820152606490fd5b60c051606260c051020460621460c051151715610c9b576064606260c051026108ec565b60405162461bcd60e51b815260206004820152601960248201527f546f6b656e302075736564206c657373207468616e20393825000000000000006044820152606490fd5b60a05180606281020460621481151715610c9b576062606491026108cb565b915091506040813d604011610e1e575b81610e08604093836116e2565b810103126100f15760208151910151918a6108b3565b3d9150610dfb565b90506020823d602011610e59575b81610e41602093836116e2565b810103126100f1576001600160801b03915190610833565b3d9150610e34565b60c0516107bc565b60a051906107a4565b610e82610e899260805192611723565b8833611832565b6040516370a0823160e01b8152336004820152906020826024816001600160a01b038c165afa8015610c8f57600090610f49575b610ec79250611723565b60a052604051906370a0823160e01b825233600483015260208260248160018060a01b03608051165afa8015610c8f57600090610f15575b610f099250611723565b60c0528a808080610789565b506020823d602011610f41575b81610f2f602093836116e2565b810103126100f157610f099151610eff565b3d9150610f22565b506020823d602011610f75575b81610f63602093836116e2565b810103126100f157610ec79151610ebd565b3d9150610f56565b905060c051108f610783565b608051939493919290916001600160a01b038a8116911614610fb0575b505050505061078e565b8260c0511190816110cb575b50610fc8575b81610fa6565b610e82610fd79260c051611723565b604051906370a0823160e01b825233600483015260208260248160018060a01b03608051165afa8015610c8f57600090611097575b6110169250611723565b60c0526040516370a0823160e01b8152336004820152906020826024816001600160a01b038b165afa8015610c8f57600090611063575b6110579250611723565b60a0528a808087610fc2565b506020823d60201161108f575b8161107d602093836116e2565b810103126100f157611057915161104d565b3d9150611070565b506020823d6020116110c3575b816110b1602093836116e2565b810103126100f157611016915161100c565b3d91506110a4565b905060a051108f610fbc565b6110ea906110e58484611730565b611723565b918282111561110957506110ff929350611723565b905b8e808f61075c565b90506111159250611723565b611101565b925090506020823d602011611149575b81611137602093836116e2565b810103126100f1578e91519038610748565b3d915061112a565b955050505050506020813d602011611189575b81611171602093836116e2565b810103126100f157518c908b908d888c6107096106b6565b3d9150611164565b9092506020813d6020116111c5575b816111ad602093836116e2565b810103126100f1576111be90611789565b918c610624565b3d91506111a0565b9092506020813d602011611201575b816111e9602093836116e2565b810103126100f1576111fa90611789565b918b6105c6565b3d91506111dc565b9094506020813d60201161123d575b81611225602093836116e2565b810103126100f1576112369061179d565b938861050d565b3d9150611218565b9450915060c0843d82116112ba575b8161126160c093836116e2565b810103126100f15761127284611789565b6112b160a06112836020880161179d565b96611290604082016117ab565b5061129d606082016117ab565b506112aa608082016117ab565b50016117ba565b509391876104db565b3d9150611254565b60405162461bcd60e51b8152602060048201526016602482015275506f6f6c206d75737420636f6e7461696e205553444360501b6044820152606490fd5b506080516001600160a01b038281169116146104a2565b6113248560c0511461173d565b61048a565b50506020813d602011611357575b81611344602093836116e2565b810103126100f15784610467915161045d565b3d9150611337565b50506020813d60201161138d575b8161137a602093836116e2565b810103126100f1578261041f9151610415565b3d915061136d565b60405162461bcd60e51b81526020600482015260156024820152740aaa6888640c8cae0dee6d2e840dad2e6dac2e8c6d605b1b6044820152606490fd5b9150506020813d602011611400575b816113ee602093836116e2565b810103126100f15751866103db6103d0565b3d91506113e1565b9560406023198860061b60043501360301126100f1576040519081604081011067ffffffffffffffff604084011117610c795760408281019052600435600689901b01602401356001600160a01b03811690036100f157600435600689901b01602481013580845260449091013560208401526001600160a01b03908116908516036114af57602061149c92015190611730565b955b6000198114610c9b5760010161038c565b6040516370a0823160e01b81523360048201526020816024816001600160a01b0389165afa928315610c8f578591600094611584575b50805160209091015161150292916001600160a01b031633611832565b6040516370a0823160e01b81523360048201526020816024816001600160a01b0389165afa908115610c8f57600091611550575b5061154a9261154491611723565b90611730565b9561149e565b90506020813d60201161157c575b8161156b602093836116e2565b810103126100f1575161154a611536565b3d915061155e565b915092506020813d6020116115b5575b816115a1602093836116e2565b810103126100f157519184906115026114e5565b3d9150611594565b9093506020813d6020116115e9575b816115d9602093836116e2565b810103126100f157519285610385565b3d91506115cc565b90506020813d60201161161b575b8161160c602093836116e2565b810103126100f157518461034e565b3d91506115ff565b61163b9060203d602011610d1757610d0881836116e2565b60805283610319565b61165d915060203d602011610d1757610d0881836116e2565b836102e7565b9091506020813d60201161168f575b8161167f602093836116e2565b810103126100f1575190826102b6565b3d9150611672565b6116b0915060203d602011610d1757610d0881836116e2565b81610280565b6000546001600160a01b031633036116ca57565b60405163118cdaa760e01b8152336004820152602490fd5b90601f8019910116810190811067ffffffffffffffff821117610c7957604052565b908160209103126100f157516001600160a01b03811681036100f15790565b91908203918211610c9b57565b91908201809211610c9b57565b1561174457565b60405162461bcd60e51b815260206004820152601a60248201527f555344432075736167652065786365656473206465706f7369740000000000006044820152606490fd5b51906001600160a01b03821682036100f157565b51908160020b82036100f157565b519061ffff821682036100f157565b519081151582036100f157565b818102929160008212600160ff1b821416610c9b578184051490151715610c9b57565b60005b8381106117fd5750506000910152565b81810151838201526020016117ed565b90602091611826815180928185528580860191016117ea565b601f01601f1916010190565b9190926040519260209463a7c1c38b60e01b8686015260018060a01b0380809216938460248801528560448801521660648601526000928360848701526084865260c086019486861067ffffffffffffffff871117611983578486938995938593846040528260015416911560001461197b57905b63468721a760e01b855260c48b015260e48a015260806101048a01526118d16101448a018a61180d565b826101248b01528960bf1991030193165af192831561196e5784908294611931575b50505050156118ff5750565b6064906040519062461bcd60e51b82526004820152600b60248201526a14ddd85c0819985a5b195960aa1b6044820152fd5b9080929394503d8311611967575b61194981866116e2565b81010312611964575061195b906117ba565b388083816118f3565b80fd5b503d61193f565b50604051903d90823e3d90fd5b5082906118a7565b634e487b7160e01b85526041600452602485fdfea2646970667358221220b4dec50f34dbb8d0522d576f8dae8fb53680e5363589726951df6d94096daf0864736f6c63430008140033",
          "opcodes": "PUSH1 0xA0 CALLVALUE PUSH3 0x1BD JUMPI PUSH1 0x1F PUSH3 0x1BBB CODESIZE DUP2 SWAP1 SUB SWAP2 DUP3 ADD PUSH1 0x1F NOT AND DUP4 ADD SWAP3 SWAP2 SWAP1 PUSH1 0x1 PUSH1 0x1 PUSH1 0x40 SHL SUB DUP5 GT DUP4 DUP6 LT OR PUSH3 0x1C2 JUMPI DUP2 PUSH1 0x60 SWAP3 DUP5 SWAP3 PUSH1 0x40 SWAP7 DUP8 MSTORE DUP4 CODECOPY DUP2 ADD SUB SLT PUSH3 0x1BD JUMPI PUSH3 0x51 DUP2 PUSH3 0x1D8 JUMP JUMPDEST PUSH3 0x6C DUP4 PUSH3 0x64 PUSH1 0x20 DUP6 ADD PUSH3 0x1D8 JUMP JUMPDEST SWAP4 ADD PUSH3 0x1D8 JUMP JUMPDEST SWAP2 PUSH1 0x1 PUSH1 0x1 PUSH1 0xA0 SHL SUB SWAP2 DUP3 AND SWAP1 DUP2 ISZERO PUSH3 0x1A5 JUMPI PUSH1 0x0 DUP1 SLOAD PUSH1 0x1 PUSH1 0x1 PUSH1 0xA0 SHL SUB NOT DUP1 DUP3 AND DUP6 OR DUP4 SSTORE SWAP4 DUP6 SWAP4 SWAP3 SWAP1 SWAP2 DUP5 AND SWAP1 PUSH32 0x8BE0079C531659141344CD1FD0A4F28419497F9722A3DAAFE3B4186F6B6457E0 SWAP1 DUP1 LOG3 AND SWAP2 DUP3 ISZERO PUSH3 0x162 JUMPI DUP4 AND ISZERO PUSH3 0x11E JUMPI PUSH1 0x1 SLOAD AND OR PUSH1 0x1 SSTORE PUSH1 0x80 MSTORE MLOAD PUSH2 0x19CD SWAP1 DUP2 PUSH3 0x1EE DUP3 CODECOPY PUSH1 0x80 MLOAD DUP2 DUP2 DUP2 PUSH2 0x1B7 ADD MSTORE DUP2 DUP2 PUSH2 0x58D ADD MSTORE DUP2 DUP2 PUSH2 0x5EB ADD MSTORE DUP2 DUP2 PUSH2 0x676 ADD MSTORE DUP2 DUP2 PUSH2 0x70D ADD MSTORE DUP2 DUP2 PUSH2 0x802 ADD MSTORE PUSH2 0x87F ADD MSTORE RETURN JUMPDEST DUP4 MLOAD PUSH3 0x461BCD PUSH1 0xE5 SHL DUP2 MSTORE PUSH1 0x20 PUSH1 0x4 DUP3 ADD MSTORE PUSH1 0x15 PUSH1 0x24 DUP3 ADD MSTORE PUSH32 0x496E76616C696420537567617220616464726573730000000000000000000000 PUSH1 0x44 DUP3 ADD MSTORE PUSH1 0x64 SWAP1 REVERT JUMPDEST PUSH1 0x64 DUP6 MLOAD PUSH3 0x461BCD PUSH1 0xE5 SHL DUP2 MSTORE PUSH1 0x20 PUSH1 0x4 DUP3 ADD MSTORE PUSH1 0x20 PUSH1 0x24 DUP3 ADD MSTORE PUSH32 0x496E76616C69642043686F6C6F44726F6D654D6F64756C652061646472657373 PUSH1 0x44 DUP3 ADD MSTORE REVERT JUMPDEST DUP5 MLOAD PUSH4 0x1E4FBDF7 PUSH1 0xE0 SHL DUP2 MSTORE PUSH1 0x0 PUSH1 0x4 DUP3 ADD MSTORE PUSH1 0x24 SWAP1 REVERT JUMPDEST PUSH1 0x0 DUP1 REVERT JUMPDEST PUSH4 0x4E487B71 PUSH1 0xE0 SHL PUSH1 0x0 MSTORE PUSH1 0x41 PUSH1 0x4 MSTORE PUSH1 0x24 PUSH1 0x0 REVERT JUMPDEST MLOAD SWAP1 PUSH1 0x1 PUSH1 0x1 PUSH1 0xA0 SHL SUB DUP3 AND DUP3 SUB PUSH3 0x1BD JUMPI JUMP INVALID PUSH1 0xE0 DUP1 PUSH1 0x40 MSTORE PUSH1 0x4 CALLDATASIZE LT ISZERO PUSH2 0x13 JUMPI PUSH1 0x0 DUP1 REVERT JUMPDEST PUSH1 0x0 CALLDATALOAD PUSH1 0xE0 SHR SWAP1 DUP2 PUSH4 0x76095CA EQ PUSH2 0x1E6 JUMPI POP DUP1 PUSH4 0x6EBAF34E EQ PUSH2 0x1A1 JUMPI DUP1 PUSH4 0x715018A6 EQ PUSH2 0x148 JUMPI DUP1 PUSH4 0x8DA5CB5B EQ PUSH2 0x11F JUMPI DUP1 PUSH4 0xA1B627B0 EQ PUSH2 0xF6 JUMPI PUSH4 0xF2FDE38B EQ PUSH2 0x61 JUMPI PUSH1 0x0 DUP1 REVERT JUMPDEST CALLVALUE PUSH2 0xF1 JUMPI PUSH1 0x20 CALLDATASIZE PUSH1 0x3 NOT ADD SLT PUSH2 0xF1 JUMPI PUSH1 0x4 CALLDATALOAD PUSH1 0x1 PUSH1 0x1 PUSH1 0xA0 SHL SUB DUP2 DUP2 AND SWAP2 DUP3 SWAP1 SUB PUSH2 0xF1 JUMPI PUSH2 0x90 PUSH2 0x16B6 JUMP JUMPDEST DUP2 ISZERO PUSH2 0xD8 JUMPI PUSH1 0x0 SLOAD DUP3 PUSH12 0xFFFFFFFFFFFFFFFFFFFFFFFF PUSH1 0xA0 SHL DUP3 AND OR PUSH1 0x0 SSTORE AND PUSH32 0x8BE0079C531659141344CD1FD0A4F28419497F9722A3DAAFE3B4186F6B6457E0 PUSH1 0x0 DUP1 LOG3 STOP JUMPDEST PUSH1 0x40 MLOAD PUSH4 0x1E4FBDF7 PUSH1 0xE0 SHL DUP2 MSTORE PUSH1 0x0 PUSH1 0x4 DUP3 ADD MSTORE PUSH1 0x24 SWAP1 REVERT JUMPDEST PUSH1 0x0 DUP1 REVERT JUMPDEST CALLVALUE PUSH2 0xF1 JUMPI PUSH1 0x0 CALLDATASIZE PUSH1 0x3 NOT ADD SLT PUSH2 0xF1 JUMPI PUSH1 0x1 SLOAD PUSH1 0x40 MLOAD PUSH1 0x1 PUSH1 0x1 PUSH1 0xA0 SHL SUB SWAP1 SWAP2 AND DUP2 MSTORE PUSH1 0x20 SWAP1 RETURN JUMPDEST CALLVALUE PUSH2 0xF1 JUMPI PUSH1 0x0 CALLDATASIZE PUSH1 0x3 NOT ADD SLT PUSH2 0xF1 JUMPI PUSH1 0x0 SLOAD PUSH1 0x40 MLOAD PUSH1 0x1 PUSH1 0x1 PUSH1 0xA0 SHL SUB SWAP1 SWAP2 AND DUP2 MSTORE PUSH1 0x20 SWAP1 RETURN JUMPDEST CALLVALUE PUSH2 0xF1 JUMPI PUSH1 0x0 CALLDATASIZE PUSH1 0x3 NOT ADD SLT PUSH2 0xF1 JUMPI PUSH2 0x161 PUSH2 0x16B6 JUMP JUMPDEST PUSH1 0x0 DUP1 SLOAD PUSH1 0x1 PUSH1 0x1 PUSH1 0xA0 SHL SUB NOT DUP2 AND DUP3 SSTORE PUSH1 0x1 PUSH1 0x1 PUSH1 0xA0 SHL SUB AND PUSH32 0x8BE0079C531659141344CD1FD0A4F28419497F9722A3DAAFE3B4186F6B6457E0 DUP3 DUP1 LOG3 STOP JUMPDEST CALLVALUE PUSH2 0xF1 JUMPI PUSH1 0x0 CALLDATASIZE PUSH1 0x3 NOT ADD SLT PUSH2 0xF1 JUMPI PUSH1 0x40 MLOAD PUSH32 0x0 PUSH1 0x1 PUSH1 0x1 PUSH1 0xA0 SHL SUB AND DUP2 MSTORE PUSH1 0x20 SWAP1 RETURN JUMPDEST PUSH1 0x80 CALLDATASIZE PUSH1 0x3 NOT ADD SLT PUSH2 0xF1 JUMPI PUSH8 0xFFFFFFFFFFFFFFFF PUSH1 0x4 CALLDATALOAD GT PUSH2 0xF1 JUMPI CALLDATASIZE PUSH1 0x23 PUSH1 0x4 CALLDATALOAD ADD SLT ISZERO PUSH2 0xF1 JUMPI PUSH8 0xFFFFFFFFFFFFFFFF PUSH1 0x4 CALLDATALOAD PUSH1 0x4 ADD CALLDATALOAD GT PUSH2 0xF1 JUMPI CALLDATASIZE PUSH1 0x24 PUSH1 0x4 CALLDATALOAD PUSH1 0x4 ADD CALLDATALOAD PUSH1 0x6 SHL PUSH1 0x4 CALLDATALOAD ADD ADD GT PUSH2 0xF1 JUMPI PUSH1 0x24 CALLDATALOAD PUSH1 0x1 PUSH1 0x1 PUSH1 0xA0 SHL SUB DUP2 AND SWAP1 SUB PUSH2 0xF1 JUMPI PUSH1 0x1 SLOAD PUSH4 0x89A30271 PUSH1 0xE0 SHL DUP3 MSTORE PUSH1 0x20 SWAP1 DUP3 SWAP1 PUSH1 0x4 SWAP1 DUP3 SWAP1 PUSH1 0x1 PUSH1 0x1 PUSH1 0xA0 SHL SUB AND GAS STATICCALL SWAP1 DUP2 ISZERO PUSH2 0xC8F JUMPI PUSH1 0x0 SWAP2 PUSH2 0x1697 JUMPI JUMPDEST POP PUSH1 0x40 MLOAD PUSH4 0x70A08231 PUSH1 0xE0 SHL DUP2 MSTORE CALLER PUSH1 0x4 DUP3 ADD MSTORE SWAP1 PUSH1 0x20 DUP3 PUSH1 0x24 DUP2 PUSH1 0x1 PUSH1 0x1 PUSH1 0xA0 SHL SUB DUP6 AND GAS STATICCALL SWAP2 DUP3 ISZERO PUSH2 0xC8F JUMPI PUSH1 0x0 SWAP3 PUSH2 0x1663 JUMPI JUMPDEST POP PUSH1 0x40 MLOAD PUSH4 0xDFE1681 PUSH1 0xE0 SHL DUP2 MSTORE PUSH1 0x20 DUP2 PUSH1 0x4 DUP2 PUSH1 0x24 CALLDATALOAD PUSH1 0x1 PUSH1 0x1 PUSH1 0xA0 SHL SUB AND GAS STATICCALL SWAP1 DUP2 ISZERO PUSH2 0xC8F JUMPI PUSH1 0x0 SWAP2 PUSH2 0x1644 JUMPI JUMPDEST POP PUSH1 0x40 MLOAD PUSH4 0xD21220A7 PUSH1 0xE0 SHL DUP2 MSTORE PUSH1 0x20 DUP2 PUSH1 0x4 DUP2 PUSH1 0x24 CALLDATALOAD PUSH1 0x1 PUSH1 0x1 PUSH1 0xA0 SHL SUB AND GAS STATICCALL DUP1 ISZERO PUSH2 0xC8F JUMPI PUSH1 0x0 PUSH1 0x80 MSTORE PUSH2 0x1623 JUMPI JUMPDEST POP PUSH1 0x40 MLOAD PUSH4 0x70A08231 PUSH1 0xE0 SHL DUP2 MSTORE CALLER PUSH1 0x4 DUP3 ADD MSTORE PUSH1 0x20 DUP2 PUSH1 0x24 DUP2 PUSH1 0x1 PUSH1 0x1 PUSH1 0xA0 SHL SUB DUP7 AND GAS STATICCALL SWAP1 DUP2 ISZERO PUSH2 0xC8F JUMPI PUSH1 0x0 SWAP2 PUSH2 0x15F1 JUMPI JUMPDEST POP PUSH1 0x40 MLOAD SWAP3 PUSH4 0x70A08231 PUSH1 0xE0 SHL DUP5 MSTORE CALLER PUSH1 0x4 DUP6 ADD MSTORE PUSH1 0x20 DUP5 PUSH1 0x24 DUP2 PUSH1 0x1 DUP1 PUSH1 0xA0 SHL SUB PUSH1 0x80 MLOAD AND GAS STATICCALL SWAP4 DUP5 ISZERO PUSH2 0xC8F JUMPI PUSH1 0x0 SWAP5 PUSH2 0x15BD JUMPI JUMPDEST POP PUSH1 0x0 SWAP5 PUSH1 0x0 JUMPDEST PUSH1 0x4 CALLDATALOAD PUSH1 0x4 ADD CALLDATALOAD DUP2 LT PUSH2 0x1408 JUMPI POP PUSH1 0x40 MLOAD PUSH4 0x70A08231 PUSH1 0xE0 SHL DUP2 MSTORE CALLER PUSH1 0x4 DUP3 ADD MSTORE PUSH1 0x20 DUP2 PUSH1 0x24 DUP2 PUSH1 0x1 PUSH1 0x1 PUSH1 0xA0 SHL SUB DUP8 AND GAS STATICCALL SWAP1 DUP2 ISZERO PUSH2 0xC8F JUMPI DUP8 SWAP1 PUSH1 0x0 SWAP3 PUSH2 0x13D2 JUMPI JUMPDEST POP PUSH2 0x3DB SWAP2 SWAP3 PUSH2 0x1730 JUMP JUMPDEST SUB PUSH2 0x1395 JUMPI PUSH1 0x40 MLOAD PUSH4 0x70A08231 PUSH1 0xE0 SHL DUP2 MSTORE CALLER PUSH1 0x4 DUP3 ADD MSTORE PUSH1 0x20 DUP2 PUSH1 0x24 DUP2 PUSH1 0x1 PUSH1 0x1 PUSH1 0xA0 SHL SUB DUP9 AND GAS STATICCALL DUP1 ISZERO PUSH2 0xC8F JUMPI DUP4 SWAP1 PUSH1 0x0 SWAP1 PUSH2 0x135F JUMPI JUMPDEST PUSH2 0x41F SWAP3 POP PUSH2 0x1723 JUMP JUMPDEST PUSH1 0xA0 MSTORE PUSH1 0x40 MLOAD PUSH4 0x70A08231 PUSH1 0xE0 SHL DUP2 MSTORE CALLER PUSH1 0x4 DUP3 ADD MSTORE PUSH1 0x80 MLOAD PUSH1 0x20 SWAP1 DUP3 SWAP1 PUSH1 0x24 SWAP1 DUP3 SWAP1 PUSH1 0x1 PUSH1 0x1 PUSH1 0xA0 SHL SUB AND GAS STATICCALL DUP1 ISZERO PUSH2 0xC8F JUMPI DUP6 SWAP1 PUSH1 0x0 SWAP1 PUSH2 0x1329 JUMPI JUMPDEST PUSH2 0x467 SWAP3 POP PUSH2 0x1723 JUMP JUMPDEST PUSH1 0xC0 MSTORE PUSH1 0x1 PUSH1 0x1 PUSH1 0xA0 SHL SUB DUP4 DUP2 AND SWAP1 DUP3 AND SUB PUSH2 0x1317 JUMPI PUSH2 0x48A DUP6 PUSH1 0xA0 MLOAD EQ PUSH2 0x173D JUMP JUMPDEST PUSH1 0x1 PUSH1 0x1 PUSH1 0xA0 SHL SUB DUP4 DUP2 AND SWAP1 DUP3 AND DUP2 DUP2 EQ SWAP2 SUB PUSH2 0x1300 JUMPI JUMPDEST ISZERO PUSH2 0x12C2 JUMPI PUSH1 0x40 MLOAD PUSH4 0x3850C7BD PUSH1 0xE0 SHL DUP2 MSTORE SWAP3 PUSH1 0xC0 DUP5 PUSH1 0x4 DUP2 PUSH1 0x24 CALLDATALOAD PUSH1 0x1 PUSH1 0x1 PUSH1 0xA0 SHL SUB AND GAS STATICCALL SWAP2 DUP3 ISZERO PUSH2 0xC8F JUMPI PUSH1 0x0 SWAP5 PUSH1 0x0 SWAP4 PUSH2 0x1245 JUMPI JUMPDEST POP PUSH1 0x40 MLOAD PUSH4 0x34324E9F PUSH1 0xE2 SHL DUP2 MSTORE SWAP4 PUSH1 0x20 DUP6 PUSH1 0x4 DUP2 PUSH1 0x24 CALLDATALOAD PUSH1 0x1 PUSH1 0x1 PUSH1 0xA0 SHL SUB AND GAS STATICCALL SWAP5 DUP6 ISZERO PUSH2 0xC8F JUMPI PUSH1 0x0 SWAP6 PUSH2 0x1209 JUMPI JUMPDEST POP PUSH2 0x51D DUP6 PUSH1 0x2 SIGNEXTEND PUSH1 0x44 CALLDATALOAD PUSH2 0x17C7 JUMP JUMPDEST SWAP7 PUSH1 0x2 DUP6 SWAP1 SIGNEXTEND DUP9 DUP2 SUB DUP2 DUP2 SLT PUSH1 0x0 DUP12 SLT SWAP1 DUP2 AND SWAP3 SWAP1 SWAP2 SGT SWAP1 ISZERO AND OR PUSH2 0xC9B JUMPI PUSH2 0x54B DUP7 PUSH1 0x2 SIGNEXTEND PUSH1 0x64 CALLDATALOAD PUSH2 0x17C7 JUMP JUMPDEST SWAP2 DUP3 DUP1 DUP8 PUSH1 0x2 SIGNEXTEND ADD SLT PUSH1 0x0 DUP8 PUSH1 0x2 SIGNEXTEND SLT SWAP1 DUP1 ISZERO DUP3 AND SWAP2 ISZERO AND OR PUSH2 0xC9B JUMPI PUSH1 0x40 MLOAD PUSH4 0x986CFBA3 PUSH1 0xE0 SHL DUP2 MSTORE PUSH1 0x2 DUP8 DUP2 SIGNEXTEND DUP12 SWAP1 SUB SWAP1 SIGNEXTEND PUSH1 0x4 DUP3 ADD MSTORE SWAP2 PUSH1 0x20 DUP4 PUSH1 0x24 DUP2 PUSH32 0x0 PUSH1 0x1 PUSH1 0x1 PUSH1 0xA0 SHL SUB AND GAS STATICCALL SWAP3 DUP4 ISZERO PUSH2 0xC8F JUMPI PUSH1 0x0 SWAP4 PUSH2 0x11CD JUMPI JUMPDEST POP PUSH1 0x40 MLOAD PUSH4 0x986CFBA3 PUSH1 0xE0 SHL DUP2 MSTORE PUSH1 0x2 DUP9 DUP2 SIGNEXTEND DUP7 ADD SWAP1 SIGNEXTEND PUSH1 0x4 DUP3 ADD MSTORE SWAP2 PUSH1 0x20 DUP4 PUSH1 0x24 DUP2 PUSH32 0x0 PUSH1 0x1 PUSH1 0x1 PUSH1 0xA0 SHL SUB AND GAS STATICCALL SWAP3 DUP4 ISZERO PUSH2 0xC8F JUMPI PUSH1 0x0 SWAP4 PUSH2 0x1191 JUMPI JUMPDEST POP PUSH1 0x40 MLOAD PUSH4 0x397D1BEB PUSH1 0xE2 SHL DUP2 MSTORE PUSH1 0x4 DUP2 ADD DUP14 SWAP1 MSTORE PUSH1 0x1 PUSH1 0x1 PUSH1 0xA0 SHL SUB PUSH1 0x24 DUP1 CALLDATALOAD DUP3 AND SWAP1 DUP4 ADD MSTORE DUP12 AND PUSH1 0x44 DUP3 ADD MSTORE PUSH1 0x2 DUP10 DUP2 SIGNEXTEND DUP14 DUP2 SUB DUP3 SIGNEXTEND PUSH1 0x64 DUP5 ADD MSTORE DUP8 ADD SWAP1 SIGNEXTEND PUSH1 0x84 DUP3 ADD MSTORE PUSH1 0x20 DUP2 DUP1 PUSH1 0xA4 DUP2 ADD SUB DUP2 PUSH32 0x0 PUSH1 0x1 PUSH1 0x1 PUSH1 0xA0 SHL SUB AND GAS STATICCALL SWAP1 DUP2 ISZERO PUSH2 0xC8F JUMPI DUP14 SWAP2 DUP14 DUP9 DUP13 DUP16 SWAP5 PUSH1 0x0 SWAP5 PUSH2 0x1151 JUMPI JUMPDEST POP PUSH1 0x40 MLOAD PUSH4 0x1559259 PUSH1 0xE2 SHL DUP2 MSTORE PUSH1 0x4 DUP2 ADD SWAP7 SWAP1 SWAP7 MSTORE PUSH1 0x1 PUSH1 0x1 PUSH1 0xA0 SHL SUB PUSH1 0x24 DUP1 CALLDATALOAD DUP3 AND SWAP1 DUP9 ADD MSTORE SWAP1 SWAP5 AND PUSH1 0x44 DUP7 ADD MSTORE PUSH1 0x2 SWAP4 DUP5 SIGNEXTEND SWAP2 DUP3 SUB DUP5 SIGNEXTEND PUSH1 0x64 DUP7 ADD MSTORE ADD SWAP1 SWAP2 SIGNEXTEND PUSH1 0x84 DUP4 ADD MSTORE SWAP1 DUP2 PUSH1 0x20 DUP3 DUP1 PUSH1 0xA4 DUP2 ADD JUMPDEST SUB DUP2 PUSH32 0x0 PUSH1 0x1 PUSH1 0x1 PUSH1 0xA0 SHL SUB AND GAS STATICCALL SWAP1 DUP2 ISZERO PUSH2 0xC8F JUMPI DUP16 SWAP3 PUSH1 0x0 SWAP3 PUSH2 0x111A JUMPI JUMPDEST POP DUP2 SWAP3 DUP1 PUSH2 0x756 DUP5 DUP5 PUSH2 0x1730 JUMP JUMPDEST GT PUSH2 0x10D7 JUMPI JUMPDEST POP DUP11 SWAP2 POP POP PUSH1 0x1 PUSH1 0x1 PUSH1 0xA0 SHL SUB DUP1 DUP3 AND SWAP1 DUP11 AND SUB PUSH2 0xF89 JUMPI POP PUSH1 0xA0 MLOAD SWAP1 DUP3 DUP3 GT SWAP1 DUP2 PUSH2 0xF7D JUMPI JUMPDEST POP PUSH2 0xE72 JUMPI JUMPDEST POP POP POP POP JUMPDEST PUSH1 0x1 PUSH1 0x1 PUSH1 0xA0 SHL SUB DUP6 DUP2 AND SWAP1 DUP6 AND SUB PUSH2 0xE69 JUMPI DUP10 SWAP1 JUMPDEST PUSH1 0x80 MLOAD PUSH1 0x1 PUSH1 0x1 PUSH1 0xA0 SHL SUB SWAP1 DUP2 AND SWAP1 DUP7 AND SUB PUSH2 0xE61 JUMPI DUP11 JUMPDEST PUSH1 0x40 MLOAD PUSH4 0x5D7E7B47 PUSH1 0xE1 SHL DUP2 MSTORE PUSH1 0x4 DUP2 ADD SWAP4 SWAP1 SWAP4 MSTORE PUSH1 0x24 DUP4 ADD MSTORE PUSH1 0x1 PUSH1 0x1 PUSH1 0xA0 SHL SUB DUP10 DUP2 AND PUSH1 0x44 DUP5 ADD MSTORE DUP4 DUP2 AND PUSH1 0x64 DUP5 ADD MSTORE DUP2 DUP2 AND PUSH1 0x84 DUP5 ADD MSTORE PUSH1 0x20 SWAP1 DUP4 SWAP1 PUSH1 0xA4 SWAP1 DUP3 SWAP1 PUSH32 0x0 AND GAS STATICCALL SWAP1 DUP2 ISZERO PUSH2 0xC8F JUMPI PUSH1 0x0 SWAP2 PUSH2 0xE26 JUMPI JUMPDEST PUSH1 0x40 DUP1 MLOAD PUSH4 0xC72E160B PUSH1 0xE0 SHL DUP2 MSTORE PUSH1 0x1 PUSH1 0x1 PUSH1 0xA0 SHL SUB DUP13 DUP2 AND PUSH1 0x4 DUP4 ADD MSTORE SWAP6 DUP7 AND PUSH1 0x24 DUP3 ADD MSTORE SWAP2 DUP6 AND PUSH1 0x44 DUP4 ADD MSTORE PUSH1 0x1 PUSH1 0x1 PUSH1 0x80 SHL SUB SWAP3 SWAP1 SWAP3 AND PUSH1 0x64 DUP3 ADD MSTORE SWAP3 SWAP1 SWAP2 POP DUP3 SWAP1 PUSH1 0x84 SWAP1 DUP3 SWAP1 PUSH32 0x0 AND GAS STATICCALL SWAP2 DUP3 ISZERO PUSH2 0xC8F JUMPI PUSH1 0x0 SWAP2 PUSH1 0x0 SWAP4 PUSH2 0xDEB JUMPI JUMPDEST POP PUSH1 0x1 PUSH1 0x1 PUSH1 0xA0 SHL SUB DUP6 DUP2 AND SWAP1 DUP6 AND SUB PUSH2 0xDCC JUMPI PUSH1 0x64 DUP11 JUMPDEST DIV DUP3 LT PUSH2 0xD87 JUMPI PUSH1 0x80 MLOAD PUSH1 0x1 PUSH1 0x1 PUSH1 0xA0 SHL SUB SWAP1 DUP2 AND SWAP1 DUP6 AND SUB PUSH2 0xD63 JUMPI PUSH1 0x64 DUP11 JUMPDEST DIV DUP4 LT PUSH2 0xD1E JUMPI PUSH1 0x40 MLOAD PUSH4 0x23E66501 PUSH1 0xE1 SHL DUP2 MSTORE SWAP10 PUSH1 0x20 DUP12 PUSH1 0x4 DUP2 PUSH1 0x24 CALLDATALOAD PUSH1 0x1 PUSH1 0x1 PUSH1 0xA0 SHL SUB AND GAS STATICCALL SWAP11 DUP12 ISZERO PUSH2 0xC8F JUMPI PUSH1 0x0 SWAP12 PUSH2 0xCED JUMPI JUMPDEST POP PUSH1 0x1 PUSH1 0x1 PUSH1 0xA0 SHL SUB DUP7 DUP2 AND SWAP1 DUP7 AND SUB PUSH2 0xCD0 JUMPI DUP1 SWAP5 JUMPDEST PUSH1 0x80 MLOAD PUSH1 0x1 PUSH1 0x1 PUSH1 0xA0 SHL SUB SWAP1 DUP2 AND SWAP2 AND SUB PUSH2 0xCB1 JUMPI SWAP6 JUMPDEST PUSH2 0x12C TIMESTAMP ADD TIMESTAMP GT PUSH2 0xC9B JUMPI PUSH1 0x40 MLOAD SWAP10 DUP11 PUSH2 0x180 DUP2 ADD LT PUSH8 0xFFFFFFFFFFFFFFFF PUSH2 0x180 DUP14 ADD GT OR PUSH2 0xC79 JUMPI PUSH1 0x64 SWAP9 DUP10 SWAP8 PUSH2 0x180 DUP14 ADD PUSH1 0x40 MSTORE PUSH1 0x1 DUP1 PUSH1 0xA0 SHL SUB AND DUP13 MSTORE PUSH1 0x1 DUP1 PUSH1 0xA0 SHL SUB PUSH1 0x80 MLOAD AND PUSH1 0x20 DUP14 ADD MSTORE PUSH1 0x2 SIGNEXTEND PUSH1 0x40 DUP13 ADD MSTORE DUP2 PUSH1 0x2 SIGNEXTEND SUB PUSH1 0x2 SIGNEXTEND PUSH1 0x60 DUP12 ADD MSTORE PUSH1 0x2 SIGNEXTEND ADD PUSH1 0x2 SIGNEXTEND PUSH1 0x80 DUP10 ADD MSTORE PUSH1 0xA0 DUP9 ADD MSTORE PUSH1 0xC0 DUP8 ADD MSTORE DIV PUSH1 0xE0 DUP6 ADD MSTORE DIV PUSH2 0x100 DUP4 ADD MSTORE CALLER PUSH2 0x120 DUP4 ADD MSTORE PUSH2 0x12C TIMESTAMP ADD PUSH2 0x140 DUP4 ADD MSTORE PUSH1 0x1 DUP1 PUSH1 0xA0 SHL SUB AND PUSH2 0x160 DUP3 ADD MSTORE PUSH1 0x40 MLOAD SWAP1 PUSH4 0xB5007D1F PUSH1 0xE0 SHL PUSH1 0x20 DUP4 ADD MSTORE PUSH1 0x1 DUP1 PUSH1 0xA0 SHL SUB DUP2 MLOAD AND PUSH1 0x24 DUP4 ADD MSTORE PUSH1 0x1 DUP1 PUSH1 0xA0 SHL SUB PUSH1 0x20 DUP3 ADD MLOAD AND PUSH1 0x44 DUP4 ADD MSTORE PUSH1 0x40 DUP2 ADD MLOAD PUSH1 0x2 SIGNEXTEND PUSH1 0x64 DUP4 ADD MSTORE PUSH1 0x60 DUP2 ADD MLOAD PUSH1 0x2 SIGNEXTEND PUSH1 0x84 DUP4 ADD MSTORE PUSH1 0x80 DUP2 ADD MLOAD PUSH1 0x2 SIGNEXTEND PUSH1 0xA4 DUP4 ADD MSTORE PUSH1 0xA0 DUP2 ADD MLOAD PUSH1 0xC4 DUP4 ADD MSTORE PUSH1 0xC0 DUP2 ADD MLOAD PUSH1 0xE4 DUP4 ADD MSTORE PUSH1 0xE0 DUP2 ADD MLOAD PUSH2 0x104 DUP4 ADD MSTORE PUSH2 0x100 DUP2 ADD MLOAD PUSH2 0x124 DUP4 ADD MSTORE PUSH1 0x1 DUP1 PUSH1 0xA0 SHL SUB PUSH2 0x120 DUP3 ADD MLOAD AND PUSH2 0x144 DUP4 ADD MSTORE PUSH2 0x140 DUP2 ADD MLOAD PUSH2 0x164 DUP4 ADD MSTORE PUSH2 0x160 PUSH1 0x1 DUP1 PUSH1 0xA0 SHL SUB SWAP2 ADD MLOAD AND PUSH2 0x184 SWAP1 DUP2 DUP4 ADD MSTORE DUP2 MSTORE PUSH2 0x1C0 SWAP2 DUP3 DUP3 ADD SWAP1 DUP3 DUP3 LT PUSH8 0xFFFFFFFFFFFFFFFF DUP4 GT OR PUSH2 0xC79 JUMPI PUSH1 0x40 DUP3 SWAP1 MSTORE PUSH4 0x5229073F PUSH1 0xE0 SHL DUP3 MSTORE PUSH1 0x1 PUSH1 0x1 PUSH1 0xA0 SHL SUB AND PUSH2 0x1C4 DUP4 ADD MSTORE PUSH1 0x0 PUSH2 0x1E4 DUP4 ADD DUP2 SWAP1 MSTORE PUSH1 0x80 PUSH2 0x204 DUP5 ADD MSTORE DUP2 PUSH2 0xB11 PUSH2 0x244 DUP6 ADD DUP6 PUSH2 0x180D JUMP JUMPDEST DUP3 PUSH2 0x224 DUP7 ADD MSTORE DUP5 PUSH2 0x1BF NOT SWAP2 SUB ADD DUP2 DUP4 CALLER GAS CALL SWAP3 DUP4 ISZERO PUSH2 0xC8F JUMPI PUSH1 0x0 SWAP3 PUSH1 0x0 SWAP5 PUSH2 0xBD5 JUMPI JUMPDEST POP POP POP ISZERO PUSH2 0xBA2 JUMPI PUSH1 0x80 DUP2 DUP1 MLOAD DUP2 ADD SUB SLT PUSH2 0xF1 JUMPI PUSH1 0x40 PUSH1 0x20 DUP3 ADD MLOAD SWAP2 ADD MLOAD PUSH1 0x1 PUSH1 0x1 PUSH1 0x80 SHL SUB DUP2 AND SUB PUSH2 0xF1 JUMPI PUSH1 0x40 MLOAD SWAP1 DUP2 MSTORE PUSH1 0x24 CALLDATALOAD PUSH1 0x1 PUSH1 0x1 PUSH1 0xA0 SHL SUB AND SWAP1 CALLER SWAP1 PUSH32 0xC34E2D22E044E942030B4E10110BC941601E6E29566D733C614338BDB6FC58CA SWAP1 PUSH1 0x20 SWAP1 LOG3 STOP JUMPDEST PUSH1 0x40 MLOAD PUSH3 0x461BCD PUSH1 0xE5 SHL DUP2 MSTORE PUSH1 0x20 PUSH1 0x4 DUP3 ADD MSTORE PUSH1 0xB PUSH1 0x24 DUP3 ADD MSTORE PUSH11 0x135A5B9D0819985A5B1959 PUSH1 0xAA SHL PUSH1 0x44 DUP3 ADD MSTORE PUSH1 0x64 SWAP1 REVERT JUMPDEST SWAP2 SWAP4 POP SWAP2 POP RETURNDATASIZE DUP1 PUSH1 0x0 DUP6 RETURNDATACOPY PUSH2 0xBEA DUP2 DUP6 PUSH2 0x16E2 JUMP JUMPDEST DUP2 ADD SWAP3 PUSH1 0x40 DUP3 DUP5 DUP7 ADD SWAP6 SUB SLT PUSH2 0xF1 JUMPI PUSH2 0xC03 SWAP1 PUSH2 0x17BA JUMP JUMPDEST SWAP2 PUSH2 0x1E0 SWAP2 DUP3 DUP2 ADD MLOAD SWAP1 PUSH8 0xFFFFFFFFFFFFFFFF DUP3 GT PUSH2 0xF1 JUMPI ADD SWAP1 DUP5 PUSH2 0x1DF DUP4 ADD SLT ISZERO PUSH2 0xF1 JUMPI DUP2 ADD MLOAD SWAP1 PUSH8 0xFFFFFFFFFFFFFFFF DUP3 GT PUSH2 0xC79 JUMPI PUSH1 0x40 MLOAD SWAP5 PUSH2 0xC55 PUSH1 0x1F DUP5 ADD PUSH1 0x1F NOT AND PUSH1 0x20 ADD DUP8 PUSH2 0x16E2 JUMP JUMPDEST DUP3 DUP7 MSTORE DUP4 DUP4 DUP4 ADD ADD GT PUSH2 0xF1 JUMPI PUSH2 0xC71 SWAP3 PUSH1 0x20 DUP7 ADD SWAP2 ADD PUSH2 0x17EA JUMP JUMPDEST DUP3 DUP1 DUP1 PUSH2 0xB37 JUMP JUMPDEST PUSH4 0x4E487B71 PUSH1 0xE0 SHL PUSH1 0x0 MSTORE PUSH1 0x41 PUSH1 0x4 MSTORE PUSH1 0x24 PUSH1 0x0 REVERT JUMPDEST PUSH1 0x40 MLOAD RETURNDATASIZE PUSH1 0x0 DUP3 RETURNDATACOPY RETURNDATASIZE SWAP1 REVERT JUMPDEST PUSH4 0x4E487B71 PUSH1 0xE0 SHL PUSH1 0x0 MSTORE PUSH1 0x11 PUSH1 0x4 MSTORE PUSH1 0x24 PUSH1 0x0 REVERT JUMPDEST POP PUSH1 0x62 PUSH1 0xC0 MLOAD MUL PUSH1 0xC0 MLOAD DUP2 DIV PUSH1 0x62 EQ PUSH1 0xC0 MLOAD ISZERO OR ISZERO PUSH2 0xC9B JUMPI SWAP6 PUSH2 0x952 JUMP JUMPDEST PUSH1 0xA0 MLOAD DUP1 PUSH1 0x62 DUP2 MUL DIV PUSH1 0x62 EQ DUP2 ISZERO OR ISZERO PUSH2 0xC9B JUMPI PUSH1 0x62 MUL SWAP5 PUSH2 0x93B JUMP JUMPDEST PUSH2 0xD10 SWAP2 SWAP12 POP PUSH1 0x20 RETURNDATASIZE PUSH1 0x20 GT PUSH2 0xD17 JUMPI JUMPDEST PUSH2 0xD08 DUP2 DUP4 PUSH2 0x16E2 JUMP JUMPDEST DUP2 ADD SWAP1 PUSH2 0x1704 JUMP JUMPDEST SWAP10 DUP12 PUSH2 0x924 JUMP JUMPDEST POP RETURNDATASIZE PUSH2 0xCFE JUMP JUMPDEST PUSH1 0x40 MLOAD PUSH3 0x461BCD PUSH1 0xE5 SHL DUP2 MSTORE PUSH1 0x20 PUSH1 0x4 DUP3 ADD MSTORE PUSH1 0x19 PUSH1 0x24 DUP3 ADD MSTORE PUSH32 0x546F6B656E312075736564206C657373207468616E2039382500000000000000 PUSH1 0x44 DUP3 ADD MSTORE PUSH1 0x64 SWAP1 REVERT JUMPDEST PUSH1 0xC0 MLOAD PUSH1 0x62 PUSH1 0xC0 MLOAD MUL DIV PUSH1 0x62 EQ PUSH1 0xC0 MLOAD ISZERO OR ISZERO PUSH2 0xC9B JUMPI PUSH1 0x64 PUSH1 0x62 PUSH1 0xC0 MLOAD MUL PUSH2 0x8EC JUMP JUMPDEST PUSH1 0x40 MLOAD PUSH3 0x461BCD PUSH1 0xE5 SHL DUP2 MSTORE PUSH1 0x20 PUSH1 0x4 DUP3 ADD MSTORE PUSH1 0x19 PUSH1 0x24 DUP3 ADD MSTORE PUSH32 0x546F6B656E302075736564206C657373207468616E2039382500000000000000 PUSH1 0x44 DUP3 ADD MSTORE PUSH1 0x64 SWAP1 REVERT JUMPDEST PUSH1 0xA0 MLOAD DUP1 PUSH1 0x62 DUP2 MUL DIV PUSH1 0x62 EQ DUP2 ISZERO OR ISZERO PUSH2 0xC9B JUMPI PUSH1 0x62 PUSH1 0x64 SWAP2 MUL PUSH2 0x8CB JUMP JUMPDEST SWAP2 POP SWAP2 POP PUSH1 0x40 DUP2 RETURNDATASIZE PUSH1 0x40 GT PUSH2 0xE1E JUMPI JUMPDEST DUP2 PUSH2 0xE08 PUSH1 0x40 SWAP4 DUP4 PUSH2 0x16E2 JUMP JUMPDEST DUP2 ADD SUB SLT PUSH2 0xF1 JUMPI PUSH1 0x20 DUP2 MLOAD SWAP2 ADD MLOAD SWAP2 DUP11 PUSH2 0x8B3 JUMP JUMPDEST RETURNDATASIZE SWAP2 POP PUSH2 0xDFB JUMP JUMPDEST SWAP1 POP PUSH1 0x20 DUP3 RETURNDATASIZE PUSH1 0x20 GT PUSH2 0xE59 JUMPI JUMPDEST DUP2 PUSH2 0xE41 PUSH1 0x20 SWAP4 DUP4 PUSH2 0x16E2 JUMP JUMPDEST DUP2 ADD SUB SLT PUSH2 0xF1 JUMPI PUSH1 0x1 PUSH1 0x1 PUSH1 0x80 SHL SUB SWAP2 MLOAD SWAP1 PUSH2 0x833 JUMP JUMPDEST RETURNDATASIZE SWAP2 POP PUSH2 0xE34 JUMP JUMPDEST PUSH1 0xC0 MLOAD PUSH2 0x7BC JUMP JUMPDEST PUSH1 0xA0 MLOAD SWAP1 PUSH2 0x7A4 JUMP JUMPDEST PUSH2 0xE82 PUSH2 0xE89 SWAP3 PUSH1 0x80 MLOAD SWAP3 PUSH2 0x1723 JUMP JUMPDEST DUP9 CALLER PUSH2 0x1832 JUMP JUMPDEST PUSH1 0x40 MLOAD PUSH4 0x70A08231 PUSH1 0xE0 SHL DUP2 MSTORE CALLER PUSH1 0x4 DUP3 ADD MSTORE SWAP1 PUSH1 0x20 DUP3 PUSH1 0x24 DUP2 PUSH1 0x1 PUSH1 0x1 PUSH1 0xA0 SHL SUB DUP13 AND GAS STATICCALL DUP1 ISZERO PUSH2 0xC8F JUMPI PUSH1 0x0 SWAP1 PUSH2 0xF49 JUMPI JUMPDEST PUSH2 0xEC7 SWAP3 POP PUSH2 0x1723 JUMP JUMPDEST PUSH1 0xA0 MSTORE PUSH1 0x40 MLOAD SWAP1 PUSH4 0x70A08231 PUSH1 0xE0 SHL DUP3 MSTORE CALLER PUSH1 0x4 DUP4 ADD MSTORE PUSH1 0x20 DUP3 PUSH1 0x24 DUP2 PUSH1 0x1 DUP1 PUSH1 0xA0 SHL SUB PUSH1 0x80 MLOAD AND GAS STATICCALL DUP1 ISZERO PUSH2 0xC8F JUMPI PUSH1 0x0 SWAP1 PUSH2 0xF15 JUMPI JUMPDEST PUSH2 0xF09 SWAP3 POP PUSH2 0x1723 JUMP JUMPDEST PUSH1 0xC0 MSTORE DUP11 DUP1 DUP1 DUP1 PUSH2 0x789 JUMP JUMPDEST POP PUSH1 0x20 DUP3 RETURNDATASIZE PUSH1 0x20 GT PUSH2 0xF41 JUMPI JUMPDEST DUP2 PUSH2 0xF2F PUSH1 0x20 SWAP4 DUP4 PUSH2 0x16E2 JUMP JUMPDEST DUP2 ADD SUB SLT PUSH2 0xF1 JUMPI PUSH2 0xF09 SWAP2 MLOAD PUSH2 0xEFF JUMP JUMPDEST RETURNDATASIZE SWAP2 POP PUSH2 0xF22 JUMP JUMPDEST POP PUSH1 0x20 DUP3 RETURNDATASIZE PUSH1 0x20 GT PUSH2 0xF75 JUMPI JUMPDEST DUP2 PUSH2 0xF63 PUSH1 0x20 SWAP4 DUP4 PUSH2 0x16E2 JUMP JUMPDEST DUP2 ADD SUB SLT PUSH2 0xF1 JUMPI PUSH2 0xEC7 SWAP2 MLOAD PUSH2 0xEBD JUMP JUMPDEST RETURNDATASIZE SWAP2 POP PUSH2 0xF56 JUMP JUMPDEST SWAP1 POP PUSH1 0xC0 MLOAD LT DUP16 PUSH2 0x783 JUMP JUMPDEST PUSH1 0x80 MLOAD SWAP4 SWAP5 SWAP4 SWAP2 SWAP3 SWAP1 SWAP2 PUSH1 0x1 PUSH1 0x1 PUSH1 0xA0 SHL SUB DUP11 DUP2 AND SWAP2 AND EQ PUSH2 0xFB0 JUMPI JUMPDEST POP POP POP POP POP PUSH2 0x78E JUMP JUMPDEST DUP3 PUSH1 0xC0 MLOAD GT SWAP1 DUP2 PUSH2 0x10CB JUMPI JUMPDEST POP PUSH2 0xFC8 JUMPI JUMPDEST DUP2 PUSH2 0xFA6 JUMP JUMPDEST PUSH2 0xE82 PUSH2 0xFD7 SWAP3 PUSH1 0xC0 MLOAD PUSH2 0x1723 JUMP JUMPDEST PUSH1 0x40 MLOAD SWAP1 PUSH4 0x70A08231 PUSH1 0xE0 SHL DUP3 MSTORE CALLER PUSH1 0x4 DUP4 ADD MSTORE PUSH1 0x20 DUP3 PUSH1 0x24 DUP2 PUSH1 0x1 DUP1 PUSH1 0xA0 SHL SUB PUSH1 0x80 MLOAD AND GAS STATICCALL DUP1 ISZERO PUSH2 0xC8F JUMPI PUSH1 0x0 SWAP1 PUSH2 0x1097 JUMPI JUMPDEST PUSH2 0x1016 SWAP3 POP PUSH2 0x1723 JUMP JUMPDEST PUSH1 0xC0 MSTORE PUSH1 0x40 MLOAD PUSH4 0x70A08231 PUSH1 0xE0 SHL DUP2 MSTORE CALLER PUSH1 0x4 DUP3 ADD MSTORE SWAP1 PUSH1 0x20 DUP3 PUSH1 0x24 DUP2 PUSH1 0x1 PUSH1 0x1 PUSH1 0xA0 SHL SUB DUP12 AND GAS STATICCALL DUP1 ISZERO PUSH2 0xC8F JUMPI PUSH1 0x0 SWAP1 PUSH2 0x1063 JUMPI JUMPDEST PUSH2 0x1057 SWAP3 POP PUSH2 0x1723 JUMP JUMPDEST PUSH1 0xA0 MSTORE DUP11 DUP1 DUP1 DUP8 PUSH2 0xFC2 JUMP JUMPDEST POP PUSH1 0x20 DUP3 RETURNDATASIZE PUSH1 0x20 GT PUSH2 0x108F JUMPI JUMPDEST DUP2 PUSH2 0x107D PUSH1 0x20 SWAP4 DUP4 PUSH2 0x16E2 JUMP JUMPDEST DUP2 ADD SUB SLT PUSH2 0xF1 JUMPI PUSH2 0x1057 SWAP2 MLOAD PUSH2 0x104D JUMP JUMPDEST RETURNDATASIZE SWAP2 POP PUSH2 0x1070 JUMP JUMPDEST POP PUSH1 0x20 DUP3 RETURNDATASIZE PUSH1 0x20 GT PUSH2 0x10C3 JUMPI JUMPDEST DUP2 PUSH2 0x10B1 PUSH1 0x20 SWAP4 DUP4 PUSH2 0x16E2 JUMP JUMPDEST DUP2 ADD SUB SLT PUSH2 0xF1 JUMPI PUSH2 0x1016 SWAP2 MLOAD PUSH2 0x100C JUMP JUMPDEST RETURNDATASIZE SWAP2 POP PUSH2 0x10A4 JUMP JUMPDEST SWAP1 POP PUSH1 0xA0 MLOAD LT DUP16 PUSH2 0xFBC JUMP JUMPDEST PUSH2 0x10EA SWAP1 PUSH2 0x10E5 DUP5 DUP5 PUSH2 0x1730 JUMP JUMPDEST PUSH2 0x1723 JUMP JUMPDEST SWAP2 DUP3 DUP3 GT ISZERO PUSH2 0x1109 JUMPI POP PUSH2 0x10FF SWAP3 SWAP4 POP PUSH2 0x1723 JUMP JUMPDEST SWAP1 JUMPDEST DUP15 DUP1 DUP16 PUSH2 0x75C JUMP JUMPDEST SWAP1 POP PUSH2 0x1115 SWAP3 POP PUSH2 0x1723 JUMP JUMPDEST PUSH2 0x1101 JUMP JUMPDEST SWAP3 POP SWAP1 POP PUSH1 0x20 DUP3 RETURNDATASIZE PUSH1 0x20 GT PUSH2 0x1149 JUMPI JUMPDEST DUP2 PUSH2 0x1137 PUSH1 0x20 SWAP4 DUP4 PUSH2 0x16E2 JUMP JUMPDEST DUP2 ADD SUB SLT PUSH2 0xF1 JUMPI DUP15 SWAP2 MLOAD SWAP1 CODESIZE PUSH2 0x748 JUMP JUMPDEST RETURNDATASIZE SWAP2 POP PUSH2 0x112A JUMP JUMPDEST SWAP6 POP POP POP POP POP POP PUSH1 0x20 DUP2 RETURNDATASIZE PUSH1 0x20 GT PUSH2 0x1189 JUMPI JUMPDEST DUP2 PUSH2 0x1171 PUSH1 0x20 SWAP4 DUP4 PUSH2 0x16E2 JUMP JUMPDEST DUP2 ADD SUB SLT PUSH2 0xF1 JUMPI MLOAD DUP13 SWAP1 DUP12 SWAP1 DUP14 DUP9 DUP13 PUSH2 0x709 PUSH2 0x6B6 JUMP JUMPDEST RETURNDATASIZE SWAP2 POP PUSH2 0x1164 JUMP JUMPDEST SWAP1 SWAP3 POP PUSH1 0x20 DUP2 RETURNDATASIZE PUSH1 0x20 GT PUSH2 0x11C5 JUMPI JUMPDEST DUP2 PUSH2 0x11AD PUSH1 0x20 SWAP4 DUP4 PUSH2 0x16E2 JUMP JUMPDEST DUP2 ADD SUB SLT PUSH2 0xF1 JUMPI PUSH2 0x11BE SWAP1 PUSH2 0x1789 JUMP JUMPDEST SWAP2 DUP13 PUSH2 0x624 JUMP JUMPDEST RETURNDATASIZE SWAP2 POP PUSH2 0x11A0 JUMP JUMPDEST SWAP1 SWAP3 POP PUSH1 0x20 DUP2 RETURNDATASIZE PUSH1 0x20 GT PUSH2 0x1201 JUMPI JUMPDEST DUP2 PUSH2 0x11E9 PUSH1 0x20 SWAP4 DUP4 PUSH2 0x16E2 JUMP JUMPDEST DUP2 ADD SUB SLT PUSH2 0xF1 JUMPI PUSH2 0x11FA SWAP1 PUSH2 0x1789 JUMP JUMPDEST SWAP2 DUP12 PUSH2 0x5C6 JUMP JUMPDEST RETURNDATASIZE SWAP2 POP PUSH2 0x11DC JUMP JUMPDEST SWAP1 SWAP5 POP PUSH1 0x20 DUP2 RETURNDATASIZE PUSH1 0x20 GT PUSH2 0x123D JUMPI JUMPDEST DUP2 PUSH2 0x1225 PUSH1 0x20 SWAP4 DUP4 PUSH2 0x16E2 JUMP JUMPDEST DUP2 ADD SUB SLT PUSH2 0xF1 JUMPI PUSH2 0x1236 SWAP1 PUSH2 0x179D JUMP JUMPDEST SWAP4 DUP9 PUSH2 0x50D JUMP JUMPDEST RETURNDATASIZE SWAP2 POP PUSH2 0x1218 JUMP JUMPDEST SWAP5 POP SWAP2 POP PUSH1 0xC0 DUP5 RETURNDATASIZE DUP3 GT PUSH2 0x12BA JUMPI JUMPDEST DUP2 PUSH2 0x1261 PUSH1 0xC0 SWAP4 DUP4 PUSH2 0x16E2 JUMP JUMPDEST DUP2 ADD SUB SLT PUSH2 0xF1 JUMPI PUSH2 0x1272 DUP5 PUSH2 0x1789 JUMP JUMPDEST PUSH2 0x12B1 PUSH1 0xA0 PUSH2 0x1283 PUSH1 0x20 DUP9 ADD PUSH2 0x179D JUMP JUMPDEST SWAP7 PUSH2 0x1290 PUSH1 0x40 DUP3 ADD PUSH2 0x17AB JUMP JUMPDEST POP PUSH2 0x129D PUSH1 0x60 DUP3 ADD PUSH2 0x17AB JUMP JUMPDEST POP PUSH2 0x12AA PUSH1 0x80 DUP3 ADD PUSH2 0x17AB JUMP JUMPDEST POP ADD PUSH2 0x17BA JUMP JUMPDEST POP SWAP4 SWAP2 DUP8 PUSH2 0x4DB JUMP JUMPDEST RETURNDATASIZE SWAP2 POP PUSH2 0x1254 JUMP JUMPDEST PUSH1 0x40 MLOAD PUSH3 0x461BCD PUSH1 0xE5 SHL DUP2 MSTORE PUSH1 0x20 PUSH1 0x4 DUP3 ADD MSTORE PUSH1 0x16 PUSH1 0x24 DUP3 ADD MSTORE PUSH22 0x506F6F6C206D75737420636F6E7461696E2055534443 PUSH1 0x50 SHL PUSH1 0x44 DUP3 ADD MSTORE PUSH1 0x64 SWAP1 REVERT JUMPDEST POP PUSH1 0x80 MLOAD PUSH1 0x1 PUSH1 0x1 PUSH1 0xA0 SHL SUB DUP3 DUP2 AND SWAP2 AND EQ PUSH2 0x4A2 JUMP JUMPDEST PUSH2 0x1324 DUP6 PUSH1 0xC0 MLOAD EQ PUSH2 0x173D JUMP JUMPDEST PUSH2 0x48A JUMP JUMPDEST POP POP PUSH1 0x20 DUP2 RETURNDATASIZE PUSH1 0x20 GT PUSH2 0x1357 JUMPI JUMPDEST DUP2 PUSH2 0x1344 PUSH1 0x20 SWAP4 DUP4 PUSH2 0x16E2 JUMP JUMPDEST DUP2 ADD SUB SLT PUSH2 0xF1 JUMPI DUP5 PUSH2 0x467 SWAP2 MLOAD PUSH2 0x45D JUMP JUMPDEST RETURNDATASIZE SWAP2 POP PUSH2 0x1337 JUMP JUMPDEST POP POP PUSH1 0x20 DUP2 RETURNDATASIZE PUSH1 0x20 GT PUSH2 0x138D JUMPI JUMPDEST DUP2 PUSH2 0x137A PUSH1 0x20 SWAP4 DUP4 PUSH2 0x16E2 JUMP JUMPDEST DUP2 ADD SUB SLT PUSH2 0xF1 JUMPI DUP3 PUSH2 0x41F SWAP2 MLOAD PUSH2 0x415 JUMP JUMPDEST RETURNDATASIZE SWAP2 POP PUSH2 0x136D JUMP JUMPDEST PUSH1 0x40 MLOAD PUSH3 0x461BCD PUSH1 0xE5 SHL DUP2 MSTORE PUSH1 0x20 PUSH1 0x4 DUP3 ADD MSTORE PUSH1 0x15 PUSH1 0x24 DUP3 ADD MSTORE PUSH21 0xAAA6888640C8CAE0DEE6D2E840DAD2E6DAC2E8C6D PUSH1 0x5B SHL PUSH1 0x44 DUP3 ADD MSTORE PUSH1 0x64 SWAP1 REVERT JUMPDEST SWAP2 POP POP PUSH1 0x20 DUP2 RETURNDATASIZE PUSH1 0x20 GT PUSH2 0x1400 JUMPI JUMPDEST DUP2 PUSH2 0x13EE PUSH1 0x20 SWAP4 DUP4 PUSH2 0x16E2 JUMP JUMPDEST DUP2 ADD SUB SLT PUSH2 0xF1 JUMPI MLOAD DUP7 PUSH2 0x3DB PUSH2 0x3D0 JUMP JUMPDEST RETURNDATASIZE SWAP2 POP PUSH2 0x13E1 JUMP JUMPDEST SWAP6 PUSH1 0x40 PUSH1 0x23 NOT DUP9 PUSH1 0x6 SHL PUSH1 0x4 CALLDATALOAD ADD CALLDATASIZE SUB ADD SLT PUSH2 0xF1 JUMPI PUSH1 0x40 MLOAD SWAP1 DUP2 PUSH1 0x40 DUP2 ADD LT PUSH8 0xFFFFFFFFFFFFFFFF PUSH1 0x40 DUP5 ADD GT OR PUSH2 0xC79 JUMPI PUSH1 0x40 DUP3 DUP2 ADD SWAP1 MSTORE PUSH1 0x4 CALLDATALOAD PUSH1 0x6 DUP10 SWAP1 SHL ADD PUSH1 0x24 ADD CALLDATALOAD PUSH1 0x1 PUSH1 0x1 PUSH1 0xA0 SHL SUB DUP2 AND SWAP1 SUB PUSH2 0xF1 JUMPI PUSH1 0x4 CALLDATALOAD PUSH1 0x6 DUP10 SWAP1 SHL ADD PUSH1 0x24 DUP2 ADD CALLDATALOAD DUP1 DUP5 MSTORE PUSH1 0x44 SWAP1 SWAP2 ADD CALLDATALOAD PUSH1 0x20 DUP5 ADD MSTORE PUSH1 0x1 PUSH1 0x1 PUSH1 0xA0 SHL SUB SWAP1 DUP2 AND SWAP1 DUP6 AND SUB PUSH2 0x14AF JUMPI PUSH1 0x20 PUSH2 0x149C SWAP3 ADD MLOAD SWAP1 PUSH2 0x1730 JUMP JUMPDEST SWAP6 JUMPDEST PUSH1 0x0 NOT DUP2 EQ PUSH2 0xC9B JUMPI PUSH1 0x1 ADD PUSH2 0x38C JUMP JUMPDEST PUSH1 0x40 MLOAD PUSH4 0x70A08231 PUSH1 0xE0 SHL DUP2 MSTORE CALLER PUSH1 0x4 DUP3 ADD MSTORE PUSH1 0x20 DUP2 PUSH1 0x24 DUP2 PUSH1 0x1 PUSH1 0x1 PUSH1 0xA0 SHL SUB DUP10 AND GAS STATICCALL SWAP3 DUP4 ISZERO PUSH2 0xC8F JUMPI DUP6 SWAP2 PUSH1 0x0 SWAP5 PUSH2 0x1584 JUMPI JUMPDEST POP DUP1 MLOAD PUSH1 0x20 SWAP1 SWAP2 ADD MLOAD PUSH2 0x1502 SWAP3 SWAP2 PUSH1 0x1 PUSH1 0x1 PUSH1 0xA0 SHL SUB AND CALLER PUSH2 0x1832 JUMP JUMPDEST PUSH1 0x40 MLOAD PUSH4 0x70A08231 PUSH1 0xE0 SHL DUP2 MSTORE CALLER PUSH1 0x4 DUP3 ADD MSTORE PUSH1 0x20 DUP2 PUSH1 0x24 DUP2 PUSH1 0x1 PUSH1 0x1 PUSH1 0xA0 SHL SUB DUP10 AND GAS STATICCALL SWAP1 DUP2 ISZERO PUSH2 0xC8F JUMPI PUSH1 0x0 SWAP2 PUSH2 0x1550 JUMPI JUMPDEST POP PUSH2 0x154A SWAP3 PUSH2 0x1544 SWAP2 PUSH2 0x1723 JUMP JUMPDEST SWAP1 PUSH2 0x1730 JUMP JUMPDEST SWAP6 PUSH2 0x149E JUMP JUMPDEST SWAP1 POP PUSH1 0x20 DUP2 RETURNDATASIZE PUSH1 0x20 GT PUSH2 0x157C JUMPI JUMPDEST DUP2 PUSH2 0x156B PUSH1 0x20 SWAP4 DUP4 PUSH2 0x16E2 JUMP JUMPDEST DUP2 ADD SUB SLT PUSH2 0xF1 JUMPI MLOAD PUSH2 0x154A PUSH2 0x1536 JUMP JUMPDEST RETURNDATASIZE SWAP2 POP PUSH2 0x155E JUMP JUMPDEST SWAP2 POP SWAP3 POP PUSH1 0x20 DUP2 RETURNDATASIZE PUSH1 0x20 GT PUSH2 0x15B5 JUMPI JUMPDEST DUP2 PUSH2 0x15A1 PUSH1 0x20 SWAP4 DUP4 PUSH2 0x16E2 JUMP JUMPDEST DUP2 ADD SUB SLT PUSH2 0xF1 JUMPI MLOAD SWAP2 DUP5 SWAP1 PUSH2 0x1502 PUSH2 0x14E5 JUMP JUMPDEST RETURNDATASIZE SWAP2 POP PUSH2 0x1594 JUMP JUMPDEST SWAP1 SWAP4 POP PUSH1 0x20 DUP2 RETURNDATASIZE PUSH1 0x20 GT PUSH2 0x15E9 JUMPI JUMPDEST DUP2 PUSH2 0x15D9 PUSH1 0x20 SWAP4 DUP4 PUSH2 0x16E2 JUMP JUMPDEST DUP2 ADD SUB SLT PUSH2 0xF1 JUMPI MLOAD SWAP3 DUP6 PUSH2 0x385 JUMP JUMPDEST RETURNDATASIZE SWAP2 POP PUSH2 0x15CC JUMP JUMPDEST SWAP1 POP PUSH1 0x20 DUP2 RETURNDATASIZE PUSH1 0x20 GT PUSH2 0x161B JUMPI JUMPDEST DUP2 PUSH2 0x160C PUSH1 0x20 SWAP4 DUP4 PUSH2 0x16E2 JUMP JUMPDEST DUP2 ADD SUB SLT PUSH2 0xF1 JUMPI MLOAD DUP5 PUSH2 0x34E JUMP JUMPDEST RETURNDATASIZE SWAP2 POP PUSH2 0x15FF JUMP JUMPDEST PUSH2 0x163B SWAP1 PUSH1 0x20 RETURNDATASIZE PUSH1 0x20 GT PUSH2 0xD17 JUMPI PUSH2 0xD08 DUP2 DUP4 PUSH2 0x16E2 JUMP JUMPDEST PUSH1 0x80 MSTORE DUP4 PUSH2 0x319 JUMP JUMPDEST PUSH2 0x165D SWAP2 POP PUSH1 0x20 RETURNDATASIZE PUSH1 0x20 GT PUSH2 0xD17 JUMPI PUSH2 0xD08 DUP2 DUP4 PUSH2 0x16E2 JUMP JUMPDEST DUP4 PUSH2 0x2E7 JUMP JUMPDEST SWAP1 SWAP2 POP PUSH1 0x20 DUP2 RETURNDATASIZE PUSH1 0x20 GT PUSH2 0x168F JUMPI JUMPDEST DUP2 PUSH2 0x167F PUSH1 0x20 SWAP4 DUP4 PUSH2 0x16E2 JUMP JUMPDEST DUP2 ADD SUB SLT PUSH2 0xF1 JUMPI MLOAD SWAP1 DUP3 PUSH2 0x2B6 JUMP JUMPDEST RETURNDATASIZE SWAP2 POP PUSH2 0x1672 JUMP JUMPDEST PUSH2 0x16B0 SWAP2 POP PUSH1 0x20 RETURNDATASIZE PUSH1 0x20 GT PUSH2 0xD17 JUMPI PUSH2 0xD08 DUP2 DUP4 PUSH2 0x16E2 JUMP JUMPDEST DUP2 PUSH2 0x280 JUMP JUMPDEST PUSH1 0x0 SLOAD PUSH1 0x1 PUSH1 0x1 PUSH1 0xA0 SHL SUB AND CALLER SUB PUSH2 0x16CA JUMPI JUMP JUMPDEST PUSH1 0x40 MLOAD PUSH4 0x118CDAA7 PUSH1 0xE0 SHL DUP2 MSTORE CALLER PUSH1 0x4 DUP3 ADD MSTORE PUSH1 0x24 SWAP1 REVERT JUMPDEST SWAP1 PUSH1 0x1F DUP1 NOT SWAP2 ADD AND DUP2 ADD SWAP1 DUP2 LT PUSH8 0xFFFFFFFFFFFFFFFF DUP3 GT OR PUSH2 0xC79 JUMPI PUSH1 0x40 MSTORE JUMP JUMPDEST SWAP1 DUP2 PUSH1 0x20 SWAP2 SUB SLT PUSH2 0xF1 JUMPI MLOAD PUSH1 0x1 PUSH1 0x1 PUSH1 0xA0 SHL SUB DUP2 AND DUP2 SUB PUSH2 0xF1 JUMPI SWAP1 JUMP JUMPDEST SWAP2 SWAP1 DUP3 SUB SWAP2 DUP3 GT PUSH2 0xC9B JUMPI JUMP JUMPDEST SWAP2 SWAP1 DUP3 ADD DUP1 SWAP3 GT PUSH2 0xC9B JUMPI JUMP JUMPDEST ISZERO PUSH2 0x1744 JUMPI JUMP JUMPDEST PUSH1 0x40 MLOAD PUSH3 0x461BCD PUSH1 0xE5 SHL DUP2 MSTORE PUSH1 0x20 PUSH1 0x4 DUP3 ADD MSTORE PUSH1 0x1A PUSH1 0x24 DUP3 ADD MSTORE PUSH32 0x555344432075736167652065786365656473206465706F736974000000000000 PUSH1 0x44 DUP3 ADD MSTORE PUSH1 0x64 SWAP1 REVERT JUMPDEST MLOAD SWAP1 PUSH1 0x1 PUSH1 0x1 PUSH1 0xA0 SHL SUB DUP3 AND DUP3 SUB PUSH2 0xF1 JUMPI JUMP JUMPDEST MLOAD SWAP1 DUP2 PUSH1 0x2 SIGNEXTEND DUP3 SUB PUSH2 0xF1 JUMPI JUMP JUMPDEST MLOAD SWAP1 PUSH2 0xFFFF DUP3 AND DUP3 SUB PUSH2 0xF1 JUMPI JUMP JUMPDEST MLOAD SWAP1 DUP2 ISZERO ISZERO DUP3 SUB PUSH2 0xF1 JUMPI JUMP JUMPDEST DUP2 DUP2 MUL SWAP3 SWAP2 PUSH1 0x0 DUP3 SLT PUSH1 0x1 PUSH1 0xFF SHL DUP3 EQ AND PUSH2 0xC9B JUMPI DUP2 DUP5 SDIV EQ SWAP1 ISZERO OR ISZERO PUSH2 0xC9B JUMPI JUMP JUMPDEST PUSH1 0x0 JUMPDEST DUP4 DUP2 LT PUSH2 0x17FD JUMPI POP POP PUSH1 0x0 SWAP2 ADD MSTORE JUMP JUMPDEST DUP2 DUP2 ADD MLOAD DUP4 DUP3 ADD MSTORE PUSH1 0x20 ADD PUSH2 0x17ED JUMP JUMPDEST SWAP1 PUSH1 0x20 SWAP2 PUSH2 0x1826 DUP2 MLOAD DUP1 SWAP3 DUP2 DUP6 MSTORE DUP6 DUP1 DUP7 ADD SWAP2 ADD PUSH2 0x17EA JUMP JUMPDEST PUSH1 0x1F ADD PUSH1 0x1F NOT AND ADD ADD SWAP1 JUMP JUMPDEST SWAP2 SWAP1 SWAP3 PUSH1 0x40 MLOAD SWAP3 PUSH1 0x20 SWAP5 PUSH4 0xA7C1C38B PUSH1 0xE0 SHL DUP7 DUP7 ADD MSTORE PUSH1 0x1 DUP1 PUSH1 0xA0 SHL SUB DUP1 DUP1 SWAP3 AND SWAP4 DUP5 PUSH1 0x24 DUP9 ADD MSTORE DUP6 PUSH1 0x44 DUP9 ADD MSTORE AND PUSH1 0x64 DUP7 ADD MSTORE PUSH1 0x0 SWAP3 DUP4 PUSH1 0x84 DUP8 ADD MSTORE PUSH1 0x84 DUP7 MSTORE PUSH1 0xC0 DUP7 ADD SWAP5 DUP7 DUP7 LT PUSH8 0xFFFFFFFFFFFFFFFF DUP8 GT OR PUSH2 0x1983 JUMPI DUP5 DUP7 SWAP4 DUP10 SWAP6 SWAP4 DUP6 SWAP4 DUP5 PUSH1 0x40 MSTORE DUP3 PUSH1 0x1 SLOAD AND SWAP2 ISZERO PUSH1 0x0 EQ PUSH2 0x197B JUMPI SWAP1 JUMPDEST PUSH4 0x468721A7 PUSH1 0xE0 SHL DUP6 MSTORE PUSH1 0xC4 DUP12 ADD MSTORE PUSH1 0xE4 DUP11 ADD MSTORE PUSH1 0x80 PUSH2 0x104 DUP11 ADD MSTORE PUSH2 0x18D1 PUSH2 0x144 DUP11 ADD DUP11 PUSH2 0x180D JUMP JUMPDEST DUP3 PUSH2 0x124 DUP12 ADD MSTORE DUP10 PUSH1 0xBF NOT SWAP2 SUB ADD SWAP4 AND GAS CALL SWAP3 DUP4 ISZERO PUSH2 0x196E JUMPI DUP5 SWAP1 DUP3 SWAP5 PUSH2 0x1931 JUMPI JUMPDEST POP POP POP POP ISZERO PUSH2 0x18FF JUMPI POP JUMP JUMPDEST PUSH1 0x64 SWAP1 PUSH1 0x40 MLOAD SWAP1 PUSH3 0x461BCD PUSH1 0xE5 SHL DUP3 MSTORE PUSH1 0x4 DUP3 ADD MSTORE PUSH1 0xB PUSH1 0x24 DUP3 ADD MSTORE PUSH11 0x14DDD85C0819985A5B1959 PUSH1 0xAA SHL PUSH1 0x44 DUP3 ADD MSTORE REVERT JUMPDEST SWAP1 DUP1 SWAP3 SWAP4 SWAP5 POP RETURNDATASIZE DUP4 GT PUSH2 0x1967 JUMPI JUMPDEST PUSH2 0x1949 DUP2 DUP7 PUSH2 0x16E2 JUMP JUMPDEST DUP2 ADD SUB SLT PUSH2 0x1964 JUMPI POP PUSH2 0x195B SWAP1 PUSH2 0x17BA JUMP JUMPDEST CODESIZE DUP1 DUP4 DUP2 PUSH2 0x18F3 JUMP JUMPDEST DUP1 REVERT JUMPDEST POP RETURNDATASIZE PUSH2 0x193F JUMP JUMPDEST POP PUSH1 0x40 MLOAD SWAP1 RETURNDATASIZE SWAP1 DUP3 RETURNDATACOPY RETURNDATASIZE SWAP1 REVERT JUMPDEST POP DUP3 SWAP1 PUSH2 0x18A7 JUMP JUMPDEST PUSH4 0x4E487B71 PUSH1 0xE0 SHL DUP6 MSTORE PUSH1 0x41 PUSH1 0x4 MSTORE PUSH1 0x24 DUP6 REVERT INVALID LOG2 PUSH5 0x6970667358 0x22 SLT KECCAK256 0xB4 0xDE 0xC5 0xF CALLVALUE 0xDB 0xB8 0xD0 MSTORE 0x2D JUMPI PUSH16 0x8DAE8FB53680E5363589726951DF6D94 MULMOD PUSH14 0xAF0864736F6C6343000814003300 "
        },
        "methodIdentifiers": {
          "choloDromeModule()": "a1b627b0",
          "depositMax((address,uint256)[],address,int256,int256)": "076095ca",
          "owner()": "8da5cb5b",
          "renounceOwnership()": "715018a6",
          "slipstreamSugar()": "6ebaf34e",
          "transferOwnership(address)": "f2fde38b"
        }
      }
    }
  }
}