{
  "contracts/CholoDromeModule.sol": {
    "CholoDromeModule": {
      "abi": [
        {
          "inputs": [
            {
              "internalType": "address",
              "name": "_owner",
              "type": "address"
            },
            {
              "internalType": "address",
              "name": "_rewardToken",
              "type": "address"
            },
            {
              "internalType": "address",
              "name": "_rewardStable",
              "type": "address"
            },
            {
              "internalType": "address",
              "name": "_swapRouter",
              "type": "address"
            },
            {
              "internalType": "address",
              "name": "_usdc",
              "type": "address"
            },
            {
              "internalType": "address",
              "name": "_weth",
              "type": "address"
            }
          ],
          "stateMutability": "nonpayable",
          "type": "constructor"
        },
        {
          "inputs": [
            {
              "internalType": "address",
              "name": "owner",
              "type": "address"
            }
          ],
          "name": "OwnableInvalidOwner",
          "type": "error"
        },
        {
          "inputs": [
            {
              "internalType": "address",
              "name": "account",
              "type": "address"
            }
          ],
          "name": "OwnableUnauthorizedAccount",
          "type": "error"
        },
        {
          "anonymous": false,
          "inputs": [
            {
              "indexed": true,
              "internalType": "address",
              "name": "safe",
              "type": "address"
            },
            {
              "indexed": true,
              "internalType": "address",
              "name": "pool",
              "type": "address"
            },
            {
              "indexed": false,
              "internalType": "uint256",
              "name": "tokenId",
              "type": "uint256"
            }
          ],
          "name": "DepositMaxCompleted",
          "type": "event"
        },
        {
          "anonymous": false,
          "inputs": [
            {
              "indexed": true,
              "internalType": "address",
              "name": "safe",
              "type": "address"
            },
            {
              "indexed": true,
              "internalType": "address",
              "name": "pool",
              "type": "address"
            },
            {
              "indexed": false,
              "internalType": "uint256",
              "name": "tokenId",
              "type": "uint256"
            },
            {
              "indexed": false,
              "internalType": "uint256",
              "name": "amount0",
              "type": "uint256"
            },
            {
              "indexed": false,
              "internalType": "uint256",
              "name": "amount1",
              "type": "uint256"
            },
            {
              "indexed": false,
              "internalType": "uint256",
              "name": "veloAmount",
              "type": "uint256"
            },
            {
              "indexed": false,
              "internalType": "uint256",
              "name": "totalUsdtAmount",
              "type": "uint256"
            }
          ],
          "name": "EarningsCollected",
          "type": "event"
        },
        {
          "anonymous": false,
          "inputs": [
            {
              "indexed": true,
              "internalType": "address",
              "name": "previousOwner",
              "type": "address"
            },
            {
              "indexed": true,
              "internalType": "address",
              "name": "newOwner",
              "type": "address"
            }
          ],
          "name": "OwnershipTransferred",
          "type": "event"
        },
        {
          "anonymous": false,
          "inputs": [
            {
              "indexed": true,
              "internalType": "address",
              "name": "safe",
              "type": "address"
            },
            {
              "indexed": true,
              "internalType": "address",
              "name": "pool",
              "type": "address"
            }
          ],
          "name": "PoolApproved",
          "type": "event"
        },
        {
          "anonymous": false,
          "inputs": [
            {
              "indexed": true,
              "internalType": "address",
              "name": "safe",
              "type": "address"
            },
            {
              "indexed": true,
              "internalType": "address",
              "name": "pool",
              "type": "address"
            }
          ],
          "name": "PoolRemoved",
          "type": "event"
        },
        {
          "anonymous": false,
          "inputs": [
            {
              "indexed": true,
              "internalType": "address",
              "name": "fromToken",
              "type": "address"
            },
            {
              "indexed": true,
              "internalType": "address",
              "name": "toToken",
              "type": "address"
            },
            {
              "indexed": true,
              "internalType": "address",
              "name": "priceFeed",
              "type": "address"
            }
          ],
          "name": "PriceFeedUpdated",
          "type": "event"
        },
        {
          "anonymous": false,
          "inputs": [
            {
              "indexed": true,
              "internalType": "address",
              "name": "oldStable",
              "type": "address"
            },
            {
              "indexed": true,
              "internalType": "address",
              "name": "newStable",
              "type": "address"
            }
          ],
          "name": "RewardStableUpdated",
          "type": "event"
        },
        {
          "anonymous": false,
          "inputs": [
            {
              "indexed": true,
              "internalType": "address",
              "name": "oldToken",
              "type": "address"
            },
            {
              "indexed": true,
              "internalType": "address",
              "name": "newToken",
              "type": "address"
            }
          ],
          "name": "RewardTokenUpdated",
          "type": "event"
        },
        {
          "anonymous": false,
          "inputs": [
            {
              "indexed": false,
              "internalType": "uint256",
              "name": "oldTolerance",
              "type": "uint256"
            },
            {
              "indexed": false,
              "internalType": "uint256",
              "name": "newTolerance",
              "type": "uint256"
            }
          ],
          "name": "SlippageToleranceUpdated",
          "type": "event"
        },
        {
          "inputs": [],
          "name": "USDC",
          "outputs": [
            {
              "internalType": "address",
              "name": "",
              "type": "address"
            }
          ],
          "stateMutability": "view",
          "type": "function"
        },
        {
          "inputs": [],
          "name": "WETH",
          "outputs": [
            {
              "internalType": "address",
              "name": "",
              "type": "address"
            }
          ],
          "stateMutability": "view",
          "type": "function"
        },
        {
          "inputs": [
            {
              "internalType": "address",
              "name": "pool",
              "type": "address"
            }
          ],
          "name": "approvePool",
          "outputs": [],
          "stateMutability": "nonpayable",
          "type": "function"
        },
        {
          "inputs": [
            {
              "internalType": "address",
              "name": "",
              "type": "address"
            }
          ],
          "name": "approvedPools",
          "outputs": [
            {
              "internalType": "bool",
              "name": "",
              "type": "bool"
            }
          ],
          "stateMutability": "view",
          "type": "function"
        },
        {
          "inputs": [
            {
              "internalType": "address",
              "name": "pool",
              "type": "address"
            },
            {
              "internalType": "uint256",
              "name": "tokenId",
              "type": "uint256"
            }
          ],
          "name": "collectAndConvertFees",
          "outputs": [],
          "stateMutability": "nonpayable",
          "type": "function"
        },
        {
          "inputs": [],
          "name": "owner",
          "outputs": [
            {
              "internalType": "address",
              "name": "",
              "type": "address"
            }
          ],
          "stateMutability": "view",
          "type": "function"
        },
        {
          "inputs": [
            {
              "internalType": "address",
              "name": "",
              "type": "address"
            },
            {
              "internalType": "address",
              "name": "",
              "type": "address"
            }
          ],
          "name": "priceFeeds",
          "outputs": [
            {
              "internalType": "address",
              "name": "",
              "type": "address"
            }
          ],
          "stateMutability": "view",
          "type": "function"
        },
        {
          "inputs": [
            {
              "internalType": "address",
              "name": "pool",
              "type": "address"
            }
          ],
          "name": "removePool",
          "outputs": [],
          "stateMutability": "nonpayable",
          "type": "function"
        },
        {
          "inputs": [],
          "name": "renounceOwnership",
          "outputs": [],
          "stateMutability": "nonpayable",
          "type": "function"
        },
        {
          "inputs": [],
          "name": "rewardStable",
          "outputs": [
            {
              "internalType": "address",
              "name": "",
              "type": "address"
            }
          ],
          "stateMutability": "view",
          "type": "function"
        },
        {
          "inputs": [],
          "name": "rewardToken",
          "outputs": [
            {
              "internalType": "address",
              "name": "",
              "type": "address"
            }
          ],
          "stateMutability": "view",
          "type": "function"
        },
        {
          "inputs": [
            {
              "components": [
                {
                  "internalType": "address",
                  "name": "fromToken",
                  "type": "address"
                },
                {
                  "internalType": "address",
                  "name": "toToken",
                  "type": "address"
                },
                {
                  "internalType": "address",
                  "name": "priceFeed",
                  "type": "address"
                }
              ],
              "internalType": "struct CholoDromeModule.PriceFeedData[]",
              "name": "feeds",
              "type": "tuple[]"
            }
          ],
          "name": "setPriceFeeds",
          "outputs": [],
          "stateMutability": "nonpayable",
          "type": "function"
        },
        {
          "inputs": [
            {
              "internalType": "address",
              "name": "_newRewardStable",
              "type": "address"
            }
          ],
          "name": "setRewardStable",
          "outputs": [],
          "stateMutability": "nonpayable",
          "type": "function"
        },
        {
          "inputs": [
            {
              "internalType": "address",
              "name": "_newRewardToken",
              "type": "address"
            }
          ],
          "name": "setRewardToken",
          "outputs": [],
          "stateMutability": "nonpayable",
          "type": "function"
        },
        {
          "inputs": [
            {
              "internalType": "uint256",
              "name": "_slippageTolerance",
              "type": "uint256"
            }
          ],
          "name": "setSlippageTolerance",
          "outputs": [],
          "stateMutability": "nonpayable",
          "type": "function"
        },
        {
          "inputs": [
            {
              "components": [
                {
                  "internalType": "address",
                  "name": "fromToken",
                  "type": "address"
                },
                {
                  "internalType": "address",
                  "name": "toToken",
                  "type": "address"
                },
                {
                  "internalType": "bytes",
                  "name": "path",
                  "type": "bytes"
                }
              ],
              "internalType": "struct CholoDromeModule.SwapPathData[]",
              "name": "paths",
              "type": "tuple[]"
            }
          ],
          "name": "setSwapPaths",
          "outputs": [],
          "stateMutability": "nonpayable",
          "type": "function"
        },
        {
          "inputs": [],
          "name": "slippageTolerance",
          "outputs": [
            {
              "internalType": "uint256",
              "name": "",
              "type": "uint256"
            }
          ],
          "stateMutability": "view",
          "type": "function"
        },
        {
          "inputs": [
            {
              "internalType": "address",
              "name": "pool",
              "type": "address"
            },
            {
              "internalType": "uint256",
              "name": "tokenId",
              "type": "uint256"
            }
          ],
          "name": "stakeAndCollect",
          "outputs": [],
          "stateMutability": "nonpayable",
          "type": "function"
        },
        {
          "inputs": [
            {
              "internalType": "address",
              "name": "token",
              "type": "address"
            },
            {
              "internalType": "uint256",
              "name": "amountIn",
              "type": "uint256"
            },
            {
              "internalType": "address",
              "name": "toToken",
              "type": "address"
            },
            {
              "internalType": "bool",
              "name": "isEarning",
              "type": "bool"
            }
          ],
          "name": "swap",
          "outputs": [],
          "stateMutability": "payable",
          "type": "function"
        },
        {
          "inputs": [
            {
              "internalType": "address",
              "name": "",
              "type": "address"
            },
            {
              "internalType": "address",
              "name": "",
              "type": "address"
            }
          ],
          "name": "swapPaths",
          "outputs": [
            {
              "internalType": "bytes",
              "name": "",
              "type": "bytes"
            }
          ],
          "stateMutability": "view",
          "type": "function"
        },
        {
          "inputs": [],
          "name": "swapRouter",
          "outputs": [
            {
              "internalType": "address",
              "name": "",
              "type": "address"
            }
          ],
          "stateMutability": "view",
          "type": "function"
        },
        {
          "inputs": [
            {
              "internalType": "address",
              "name": "newOwner",
              "type": "address"
            }
          ],
          "name": "transferOwnership",
          "outputs": [],
          "stateMutability": "nonpayable",
          "type": "function"
        },
        {
          "inputs": [
            {
              "internalType": "address",
              "name": "pool",
              "type": "address"
            },
            {
              "internalType": "uint256",
              "name": "tokenId",
              "type": "uint256"
            }
          ],
          "name": "unstakeAndCollect",
          "outputs": [],
          "stateMutability": "nonpayable",
          "type": "function"
        },
        {
          "inputs": [
            {
              "internalType": "address",
              "name": "pool",
              "type": "address"
            },
            {
              "internalType": "uint256",
              "name": "tokenId",
              "type": "uint256"
            },
            {
              "internalType": "bool",
              "name": "convertToUsdc",
              "type": "bool"
            }
          ],
          "name": "withdrawAndCollect",
          "outputs": [],
          "stateMutability": "nonpayable",
          "type": "function"
        }
      ],
      "evm": {
        "bytecode": {
          "linkReferences": {},
          "object": "60c034620002dc57601f620036cc38819003918201601f191683019291906001600160401b03841183851017620002e1578160c09284926040968752833981010312620002dc576200005181620002f7565b9060209162000062838301620002f7565b6200006f858401620002f7565b6200007d60608501620002f7565b906200009a60a06200009260808801620002f7565b9601620002f7565b956001600160a01b03948516938415620002c457600080546001600160a01b0319808216881783559691908816907f8be0079c531659141344cd1fd0a4f28419497f9722a3daafe3b4186f6b6457e09080a360649186600492848455169384156200028557871694851562000246578716968715620002075780891615620001c8578916156200018a57505050826001541617600155816002541617600255600354161760035560805260a052516133bf90816200030d8239608051818181610c45015281816116f80152612cca015260a0518181816109b30152818161241d0152818161262501526128ed0152f35b895162461bcd60e51b815291820152601460248201527f496e76616c6964205745544820616464726573730000000000000000000000006044820152fd5b50895162461bcd60e51b815291820152601460248201527f496e76616c6964205553444320616464726573730000000000000000000000006044820152fd5b50895162461bcd60e51b815291820152601360248201527f496e76616c6964207377617020726f75746572000000000000000000000000006044820152fd5b50895162461bcd60e51b815291820152601560248201527f496e76616c69642072657761726420737461626c6500000000000000000000006044820152fd5b50895162461bcd60e51b815291820152601460248201527f496e76616c69642072657761726420746f6b656e0000000000000000000000006044820152fd5b8851631e4fbdf760e01b815260006004820152602490fd5b600080fd5b634e487b7160e01b600052604160045260246000fd5b51906001600160a01b0382168203620002dc5756fe6080604052600436101561001257600080fd5b60003560e01c8062b2119014611bdd57806308e64f3d14611462578063117da1ee146113cb57806331a8f1c914610fe85780633b7d094614610f77578063424c265b14610f035780634a6a749c14610e9a5780634bdc76cc14610ccd578063715018a614610c7457806389a3027114610c2f5780638aee812714610b835780638da5cb5b14610b5a578063a7c1c38b146109e2578063ad5c46481461099d578063c13d2f75146108f0578063c31c9c07146108c7578063d03153aa146108a9578063e637030914610504578063f0bbcec4146104c5578063f2bf87e31461049c578063f2fde38b14610413578063f7c618c1146103ea578063f90c69061461039a5763fb0b57b51461012357600080fd5b346103955760203660031901126103955760043567ffffffffffffffff811161039557366023820112156103955767ffffffffffffffff81600401351161039557366024826004013560051b830101116103955761017f611f04565b6000905b8060040135821061019057005b60248260051b82010135608219823603018112156103955781016024810192906001600160a01b036101cd816101c587611f6b565b161515611f7f565b6044808301926101e8836101e086611f6b565b161515611fc0565b6064809101916101f88389611fff565b9050156103655750509080610211610219949388611fff565b949097611f6b565b166000526006602052610230604060002092611f6b565b1660005260205260406000209067ffffffffffffffff811161034f576102568254611d82565b601f8111610307575b506000601f82116001146102a157819060019596600092610296575b5050600019600383901b1c191690841b1790555b0190610183565b01359050388061027b565b601f198216958360005260206000209160005b8881106102ef57508360019798106102d5575b505050831b8301905561028f565b0135600019600384901b60f8161c191690553880806102c7565b909260206001819286860135815501940191016102b4565b826000526020600020601f830160051c81019160208410610345575b601f0160051c01905b818110610339575061025f565b6000815560010161032c565b9091508190610323565b634e487b7160e01b600052604160045260246000fd5b6b092dcecc2d8d2c840e0c2e8d60a31b6040519162461bcd60e51b835260206004840152600c6024840152820152fd5b600080fd5b346103955760403660031901126103955760206103b5611d56565b6103bd611d6c565b60018060a01b03809216600052600783528160406000209116600052825260406000205416604051908152f35b34610395576000366003190112610395576001546040516001600160a01b039091168152602090f35b346103955760203660031901126103955761042c611d56565b610434611f04565b6001600160a01b0390811690811561048357600054826001600160601b0360a01b821617600055167f8be0079c531659141344cd1fd0a4f28419497f9722a3daafe3b4186f6b6457e0600080a3005b604051631e4fbdf760e01b815260006004820152602490fd5b34610395576000366003190112610395576002546040516001600160a01b039091168152602090f35b34610395576020366003190112610395576001600160a01b036104e6611d56565b166000526005602052602060ff604060002054166040519015158152f35b346103955760403660031901126103955761051d611d56565b60243560018060a01b03809216918260005260206005815261054660ff60406000205416612032565b6040516323e6650160e11b8152918183600481885afa92831561079457600093610872575b506040516329bc672160e21b8152908282600481895afa9182156107945760009261083b575b5080821661059e336132fb565b60405163c69deec560e01b81523360048201526024810188905260009687969294929187918382604481895afa8015610794578b92600091610803575b50156107cf575050604051633e491d4760e01b8152336004820152602481018a905293829150849060449082905afa928315610794576000936107a0575b50829483610681575b5050505060008051602061336a83398151915293929161064e61067c925b610649336132fb565b6120eb565b906040519485943398869192608093969594919660a084019784526020840152604083015260608201520152565b0390a3005b816106c49160405190631c4b774b60e01b838301528b6024830152602482526106a982611dd8565b60405163468721a760e01b815293849283926004840161210e565b03816000335af19081156107945760009161075f575b501561071b575061067c9261071161070c60008051602061336a8339815191529897969461064e9460015416336130d1565b61213f565b9282949596610622565b6064906040519062461bcd60e51b82526004820152601760248201527f47617567652067657420726577617264206661696c65640000000000000000006044820152fd5b90508181813d831161078d575b6107768183611df4565b81010312610395576107879061209c565b8a6106da565b503d61076c565b6040513d6000823e3d90fd5b9080935081813d83116107c8575b6107b88183611df4565b8101031261039557519189610619565b503d6107ae565b919450915060008051602061336a833981519152975061064e965061067c9495506107fb92503361312c565b949093610640565b809350858092503d8311610834575b61081c8183611df4565b810103126103955761082e8b9261209c565b8d6105db565b503d610812565b9091508281813d831161086b575b6108538183611df4565b810103126103955761086490612088565b9086610591565b503d610849565b9092508181813d83116108a2575b61088a8183611df4565b810103126103955761089b90612088565b918561056b565b503d610880565b34610395576000366003190112610395576020600454604051908152f35b34610395576000366003190112610395576003546040516001600160a01b039091168152602090f35b3461039557602036600319011261039557610909611d56565b610911611f04565b6001600160a01b0390811690811561096057600254826001600160601b0360a01b821617600255167f9d4858dccb76debed7845fd87ec5c769962d072d518c9e34182581abb3e8247c600080a3005b60405162461bcd60e51b8152602060048201526015602482015274496e76616c69642072657761726420737461626c6560581b6044820152606490fd5b34610395576000366003190112610395576040517f00000000000000000000000000000000000000000000000000000000000000006001600160a01b03168152602090f35b6080366003190112610395576109f6611d56565b6044356001600160a01b0381169190602435838203610395576064359384151585036103955780610a7b5750610a3c9291610a3491333193336123ce565b5033316120eb565b905b610a4457005b60009060405190828252826020830152826040830152606082015281608082015260008051602061336a83398151915260a03392a3005b92604051916370a0823160e01b9081845233600485015260209283856024818a5afa94851561079457600095610b1f575b5094610abb91849596336123ce565b5060246040518096819382523360048301525afa90811561079457600091610aef575b50610ae992506120eb565b90610a3e565b905082813d8311610b18575b610b058183611df4565b8101031261039557610ae9915184610ade565b503d610afb565b919380955082819792973d8311610b53575b610b3b8183611df4565b81010312610395579051909490939290610abb610aac565b503d610b31565b34610395576000366003190112610395576000546040516001600160a01b039091168152602090f35b3461039557602036600319011261039557610b9c611d56565b610ba4611f04565b6001600160a01b03908116908115610bf357600154826001600160601b0360a01b821617600155167f906ff2422a6ffa134f2d7ccaffd446bc0c583a5cb6615749b4b2836942a5fea8600080a3005b60405162461bcd60e51b815260206004820152601460248201527324b73b30b634b2103932bbb0b932103a37b5b2b760611b6044820152606490fd5b34610395576000366003190112610395576040517f00000000000000000000000000000000000000000000000000000000000000006001600160a01b03168152602090f35b3461039557600036600319011261039557610c8d611f04565b600080546001600160a01b0319811682556001600160a01b03167f8be0079c531659141344cd1fd0a4f28419497f9722a3daafe3b4186f6b6457e08280a3005b3461039557604036600319011261039557610ce6611d56565b60243560018060a01b03809216918260005260209060058252610d1060ff60406000205416612032565b6040516329bc672160e21b8152908282600481885afa91821561079457600092610e63575b5060405163c69deec560e01b815233600482015260248101859052908216908381604481855afa801561079457600090610e2d575b610d7491506120a9565b610d7d336132fb565b604051633e491d4760e01b81523360048201526024810186905290918490829060449082905afa928315610794578591600094610df8575b5091610640610dc79260009433612183565b92604051948552840152600060408401526060830152608082015260008051602061336a83398151915260a03392a3005b85809295508193503d8311610e26575b610e128183611df4565b810103126103955751918490610640610db5565b503d610e08565b508381813d8311610e5c575b610e438183611df4565b8101031261039557610e57610d749161209c565b610d6a565b503d610e39565b9091508281813d8311610e93575b610e7b8183611df4565b8101031261039557610e8c90612088565b9085610d35565b503d610e71565b3461039557604036600319011261039557610eb3611d56565b610ebb611d6c565b9060018060a01b03809116600052600660205260406000209116600052602052610eff610eeb6040600020611e16565b604051918291602083526020830190611edf565b0390f35b3461039557602036600319011261039557610f1c611d56565b610f24611f04565b6001600160a01b0316610f38811515611f30565b6000818152600560205260408120805460ff191660011790557ffc1f1e73948cbc47c5b7f90e5601b7daccd9ad7173218486ccc74bdd051d05e88180a3005b3461039557602036600319011261039557610f90611d56565b610f98611f04565b6001600160a01b0316610fac811515611f30565b6000818152600560205260408120805460ff191690557f987eb3c2f78454541205f72f34839b434c306c9eaf4922efd7c0c3060fdb2e4c8180a3005b3461039557604036600319011261039557611001611d56565b602490813560018060a01b0380921691826000526020906005825261102d60ff60406000205416612032565b6040516323e6650160e11b81528281600481885afa90811561079457600091611396575b506040516329bc672160e21b81528381600481895afa90811561079457600091611361575b5060405163c69deec560e01b815233600482015260248101869052838216908581604481855afa9081156107945760009161132c575b506112e85790604485969798926110c2336132fb565b946110ce8a823361312c565b9890976040519485809263e985e9c560e01b8252336004830152868a83015285165afa80156107945789936000916112b2575b50156111f1575b505060405163b6b55f2560e01b8282015283810189905283815261112f926106a982611dd8565b03816000335af1908115610794576000916111bc575b501561118a575061115990610649336132fb565b92604051948552840152604083015260006060830152608082015260008051602061336a83398151915260a03392a3005b84600c6064926040519262461bcd60e51b845260048401528201526b14dd185ad94819985a5b195960a21b6044820152fd5b90508581813d83116111ea575b6111d38183611df4565b81010312610395576111e49061209c565b88611145565b503d6111c9565b9061121f92916040519163a22cb46560e01b848401528683015260016044830152604482526106a982611dbc565b03816000335af19081156107945760009161127d575b501561124357858980611108565b60405162461bcd60e51b8152600481018790526013818401527213919508185c1c1c9bdd985b0819985a5b1959606a1b6044820152606490fd5b90508681813d83116112ab575b6112948183611df4565b81010312610395576112a59061209c565b89611235565b503d61128a565b84819592503d83116112e1575b6112c98183611df4565b81010312610395576112db899361209c565b8c611101565b503d6112bf565b60405162461bcd60e51b8152600481018690526017818a01527f506f736974696f6e20616c7265616479207374616b65640000000000000000006044820152606490fd5b90508581813d831161135a575b6113438183611df4565b81010312610395576113549061209c565b896110ac565b503d611339565b90508381813d831161138f575b6113788183611df4565b810103126103955761138990612088565b87611076565b503d61136e565b90508281813d83116113c4575b6113ad8183611df4565b81010312610395576113be90612088565b86611051565b503d6113a3565b34610395576020366003190112610395576004356113e7611f04565b6103e881116114295760407fddd31550b26e9ef8ade466958be83ff8a014d9b4f36d546b61a6847a4530657591600454908060045582519182526020820152a1005b60405162461bcd60e51b81526020600482015260116024820152700a6d8d2e0e0c2ceca40e8dede40d0d2ced607b1b6044820152606490fd5b346103955760603660031901126103955761147b611d56565b604435151560443503610395576001600160a01b0381166000908152600560205260409020546114ad9060ff16612032565b6040516323e6650160e11b8152906020826004816001600160a01b0385165afa91821561079457600092611ba1575b5060405163133f757160e31b81526024803560048301526101809081908390816001600160a01b0388165afa92831561079457600092600092600095611ae7575b5050611528336132fb565b6040516329bc672160e21b81529560009391906020886004816001600160a01b0388165afa97881561079457600098611aab575b5060405163c69deec560e01b81523360048201526024803590820152976020896044816001600160a01b0385165afa98891561079457600099611a6f575b50886119e7575b50600096600098156119ce575b6001600160801b038116611854575b5060206115f6916115d1602435823361312c565b5050604051630852cd8d60e31b8382015260248035818301528152906106a982611dd8565b03816000335af19081156107945760009161181a575b50156117e75761161f90610649336132fb565b90604435611679575b50604080516024358152602081019690965285019590955260608401919091526080830193909352506001600160a01b0390911690339060008051602061336a833981519152908060a0810161067c565b6040516370a0823160e01b8082523360048301526001600160a01b038716602083602481845afa928315610794576000936117b3575b506040519182523360048301526001600160a01b038416976020836024818c5afa92831561079457600093611767575b5060008051602061336a8339815191529861067c9695947f000000000000000000000000000000000000000000000000000000000000000094936001600160a01b03861693918691859003611754575b50505003611741575b50505090611628565b61174b92336123ce565b50878080611738565b61175e92336123ce565b508c848161172f565b9594939250906020863d6020116117ab575b8161178660209383611df4565b810103126103955794519394929391929060008051602061336a8339815191526116df565b3d9150611779565b9092506020813d6020116117df575b816117cf60209383611df4565b810103126103955751918a6116af565b3d91506117c2565b60405162461bcd60e51b815260206004820152600b60248201526a109d5c9b8819985a5b195960aa1b6044820152606490fd5b90506020813d60201161184c575b8161183560209383611df4565b81010312610395576118469061209c565b8861160c565b3d9150611828565b604051908160a081011067ffffffffffffffff60a08401111761034f5760a0820160405260243582526001600160801b03602083019116815260408201600081526060830190600082526001600160801b03608085019342855260405195630624e65f60e11b6020880152516024870152511660448501525160648401525160848301525160a482015260a481528060e081011067ffffffffffffffff60e08301111761034f5760e08101604081905263468721a760e01b815260209060df1983611923818760e4820161210e565b030160e084016000335af19081156107945760009161198e575b501561194957886115bd565b60405162461bcd60e51b815260206004820152601960248201527f4465637265617365206c6971756964697479206661696c6564000000000000006044820152606490fd5b90506020813d6020116119c6575b816119ac60209360e08401611df4565b810103126103955760e06119c0910161209c565b8961193d565b3d915061199c565b965096506119df602435883361312c565b9790966115ae565b604051633e491d4760e01b815233600482015260248035908201529095506020816044816001600160a01b038a165afa801561079457600090611a3b575b611a359150956024359033612183565b886115a1565b506020813d602011611a67575b81611a5560209383611df4565b8101031261039557611a359051611a25565b3d9150611a48565b9098506020813d602011611aa3575b81611a8b60209383611df4565b8101031261039557611a9c9061209c565b978961159a565b3d9150611a7e565b9097506020813d602011611adf575b81611ac760209383611df4565b8101031261039557611ad890612088565b968861155c565b3d9150611aba565b92509250925081813d8311611b9a575b611b018183611df4565b810103126103955780516001600160601b0381160361039557611b2660208201612088565b50611b3360408201612088565b90611b4060608201612088565b91611b4d6080830161310a565b50611b5a60a0830161310a565b50611b6760c0830161310a565b50611b8f610160611b7a60e08501613118565b93611b886101408201613118565b5001613118565b50919092858061151d565b503d611af7565b9091506020813d602011611bd5575b81611bbd60209383611df4565b8101031261039557611bce90612088565b90826114dc565b3d9150611bb0565b34610395576020806003193601126103955767ffffffffffffffff600435818111610395573660238201121561039557806004013591821161039557602490606036838286028401011161039557611c33611f04565b60005b848110611c3f57005b8082028301848101906001600160a01b03611c5d816101c585611f6b565b60449283830192611c71836101e086611f6b565b60648091019483611c8187611f6b565b1615611d21575050908080611cf1611ceb611ceb8897968f611ca560019c9b611f6b565b9086611cb084611f6b565b166000526007815260406000209087611cc88c611f6b565b166000525285604060002091166001600160601b0360a01b825416179055611f6b565b95611f6b565b16931691167f749f8bd52d751fb993fa16283117f0242f19e5471f5cb26f1185d1028cd803e5600080a401611c36565b71125b9d985b1a59081c1c9a58d9481999595960721b8c9160128c6040519462461bcd60e51b86526004860152840152820152fd5b600435906001600160a01b038216820361039557565b602435906001600160a01b038216820361039557565b90600182811c92168015611db2575b6020831014611d9c57565b634e487b7160e01b600052602260045260246000fd5b91607f1691611d91565b6080810190811067ffffffffffffffff82111761034f57604052565b6060810190811067ffffffffffffffff82111761034f57604052565b90601f8019910116810190811067ffffffffffffffff82111761034f57604052565b9060405191826000825492611e2a84611d82565b908184526001948581169081600014611e995750600114611e56575b5050611e5492500383611df4565b565b9093915060005260209081600020936000915b818310611e81575050611e5493508201013880611e46565b85548884018501529485019487945091830191611e69565b915050611e5494506020925060ff191682840152151560051b8201013880611e46565b60005b838110611ecf5750506000910152565b8181015183820152602001611ebf565b90602091611ef881518092818552858086019101611ebc565b601f01601f1916010190565b6000546001600160a01b03163303611f1857565b60405163118cdaa760e01b8152336004820152602490fd5b15611f3757565b60405162461bcd60e51b815260206004820152600c60248201526b125b9d985b1a59081c1bdbdb60a21b6044820152606490fd5b356001600160a01b03811681036103955790565b15611f8657565b60405162461bcd60e51b815260206004820152601260248201527124b73b30b634b210333937b6903a37b5b2b760711b6044820152606490fd5b15611fc757565b60405162461bcd60e51b815260206004820152601060248201526f24b73b30b634b2103a37903a37b5b2b760811b6044820152606490fd5b903590601e1981360301821215610395570180359067ffffffffffffffff82116103955760200191813603831361039557565b1561203957565b60405162461bcd60e51b815260206004820152602160248201527f506f6f6c206e6f7420617070726f76656420666f722074686973206d6f64756c6044820152606560f81b6064820152608490fd5b51906001600160a01b038216820361039557565b5190811515820361039557565b156120b057565b60405162461bcd60e51b8152602060048201526013602482015272141bdcda5d1a5bdb881b9bdd081cdd185ad959606a1b6044820152606490fd5b919082039182116120f857565b634e487b7160e01b600052601160045260246000fd5b929161213a60609160009360018060a01b03168652836020870152608060408701526080860190611edf565b930152565b1561214657565b60405162461bcd60e51b815260206004820152601560248201527414ddd85c081d1bc81cdd18589b194819985a5b1959605a1b6044820152606490fd5b916001600160a01b0391808316918215612399576040805163c69deec560e01b81528587166001600160a01b038116600483015260248201849052602094929392909185816044818a5afa801561238e57600090612358575b6121e691506120a9565b8351633e491d4760e01b81526001600160a01b038316600482015260248101849052958590879060449082905afa95861561234d5760009661231e575b5091849161226993855192632e1a7d4d60e01b8585015260248401526024835261224c83611dd8565b6000865180968195829463468721a760e01b84526004840161210e565b03925af1908115612313576000916122db575b50156122a05750508061228e57505050565b611e549261070c9260015416906130d1565b60649250519062461bcd60e51b82526004820152601560248201527411d85d59d9481dda5d1a191c985dc819985a5b1959605a1b6044820152fd5b908382813d831161230c575b6122f18183611df4565b8101031261230957506123039061209c565b3861227c565b80fd5b503d6122e7565b82513d6000823e3d90fd5b90958582813d8311612346575b6123358183611df4565b810103126123095750519484612223565b503d61232b565b84513d6000823e3d90fd5b8682813d8311612387575b61236d8183611df4565b8101031261230957506123826121e69161209c565b6121dc565b503d612363565b85513d6000823e3d90fd5b60405162461bcd60e51b815260206004820152600d60248201526c496e76616c696420676175676560981b6044820152606490fd5b919291906001600160a01b03908181166129f05750833403612996576040516020630d0e30db60e41b8183015260048252604082019180831067ffffffffffffffff84111761034f57826040527f00000000000000000000000000000000000000000000000000000000000000009263468721a760e01b815284841660448301528760648301526080608483015261246960c4830183611edf565b83826000928360a487015285603f1991030181848a8c165af1928315612989578490829461294f575b505050501561291557505b6000828516156128ea575b828516948383168681146128a55760005260209660068852604096876000209060005288526124d987600020611e16565b9182511561286d57600354885163095ea7b360e01b8b8201529087166001600160a01b031660248201526044808201849052815296869061251b60648a611df4565b169488518a818061253b63468721a760e01b9c8d8352866004840161210e565b038160008b5af19081156128625760009161282d575b50156127f2576125f4938361256e6125ba948d966125dc95612ad7565b8b519261257a84611dbc565b8352858301918983528c8401908152606084019182528a8d5196879563b858183f60e01b8a880152896024880152516080604488015260c4870190611edf565b93511660648501525160848401525160a483015203601f198101835282611df4565b8560035416885193849283928a84526004840161210e565b03816000875af19081156127e7576000916127b2575b50156127765761261f575b5050505050600190565b602491857f0000000000000000000000000000000000000000000000000000000000000000918651948580926370a0823160e01b825286600483015285165afa92831561238e579086939291600093612741575b5060006126af95875194632e1a7d4d60e01b8787015260248601526024855261269b85611dd8565b87519687958694859384526004840161210e565b03925af19081156123135760009161270c575b50156126d057808080612615565b60649250519062461bcd60e51b82526004820152601660248201527515d15512081d5b9ddc985c1c1a5b99c819985a5b195960521b6044820152fd5b908382813d831161273a575b6127228183611df4565b8101031261230957506127349061209c565b386126c2565b503d612718565b919382819492943d831161276f575b61275a8183611df4565b81010312612309575051859290916000612673565b503d612750565b845162461bcd60e51b815260048101879052601560248201527414ddd85c08195e1958dd5d1a5bdb8819985a5b1959605a1b6044820152606490fd5b908782813d83116127e0575b6127c88183611df4565b8101031261230957506127da9061209c565b3861260a565b503d6127be565b86513d6000823e3d90fd5b885162461bcd60e51b8152600481018b90526014602482015273151bdad95b88185c1c1c9bdd994819985a5b195960621b6044820152606490fd5b908b82813d831161285b575b6128438183611df4565b8101031261230957506128559061209c565b38612551565b503d612839565b8a513d6000823e3d90fd5b875162461bcd60e51b8152600481018a9052601160248201527014ddd85c081c185d1a081b9bdd081cd95d607a1b6044820152606490fd5b60405162461bcd60e51b815260206004820152601960248201527f43616e6e6f74207377617020746f2073616d6520746f6b656e000000000000006044820152606490fd5b507f0000000000000000000000000000000000000000000000000000000000000000935060016124a8565b6064906040519062461bcd60e51b825260048201526013602482015272115512081ddc985c1c1a5b99c819985a5b1959606a1b6044820152fd5b9080929394503d8311612982575b6129678186611df4565b8101031261230957506129799061209c565b38808381612492565b503d61295d565b50604051903d90823e3d90fd5b60405162461bcd60e51b815260206004820152602c60248201527f4d73672e76616c7565206d75737420657175616c20616d6f756e74496e20666f60448201526b0e440dcc2e8d2ecca408aa8960a31b6064820152608490fd5b341561249d5760405162461bcd60e51b815260206004820152603260248201527f4e6f204554482073686f756c642062652073656e74207768656e20746f6b656e604482015271040d2e640dcdee840dcc2e8d2ecca408aa8960731b6064820152608490fd5b90816020910312610395575160ff811681036103955790565b818102929181159184041417156120f857565b60ff166008019060ff82116120f857565b60ff6005199116019060ff82116120f857565b60ff16604d81116120f857600a0a90565b8115612ac1570490565b634e487b7160e01b600052601260045260246000fd5b6001600160a01b038084169391928184169291838614612e2d5760409283519563313ce56760e01b95868852602093600499858a8c81865afa998a15612e035760009a612e0e575b50875198895285898c81845afa988915612e0357600099612dd4575b5082600052600786528760002081600052865281886000205416926007875288600020816000528752828960002054166000941515600014612c4157505050505090612b8691612eff565b939093612bfe575050612bb6612bc79493612bb0612baa612bc195612bbc95612a6f565b91612aa6565b90612a6f565b92612a82565b612aa6565b90612ab7565b905b80549161271092830391838311612be9575090612be591612a6f565b0490565b601190634e487b7160e01b6000525260246000fd5b5162461bcd60e51b815280870191909152601860248201527f556e657870656374656420696e766572736520707269636500000000000000006044820152606490fd5b15612cbb575050505090612c5491612eff565b93909315612c7f575050612bb6612c799493612bb0612baa612bc195612bbc95612a6f565b90612bc9565b5162461bcd60e51b8152808701919091526016602482015275457870656374656420696e766572736520707269636560501b6044820152606490fd5b9b9a999496939b9897919592987f0000000000000000000000000000000000000000000000000000000000000000968716809114159182612dc9575b505015612d90575050612d1e612d1684655af3107a4000999a9b612eff565b959094612eff565b90965093612d7457612bbc612d42612d3c612d4795612bc194612a6f565b93612a82565b612a93565b905b612d6457612baa612d5d93612bb092612a6f565b0490612bc9565b612baa612d5d93612bb092612a6f565b612bbc612d42612d3c612d8a95612bc194612a6f565b90612d49565b5162461bcd60e51b815280890191909152601360248201527209cde40ecc2d8d2c840e0e4d2c6ca40e0c2e8d606b1b6044820152606490fd5b141590503880612cf7565b612df5919950863d8811612dfc575b612ded8183611df4565b810190612a56565b9738612b3b565b503d612de3565b88513d6000823e3d90fd5b612e26919a50863d8811612dfc57612ded8183611df4565b9838612b1f565b50935050505090565b519069ffffffffffffffffffff8216820361039557565b908160a091031261039557612e6181612e36565b91602082015191604081015191612e7f608060608401519301612e36565b90565b15612e8957565b60405162461bcd60e51b815260206004820152600d60248201526c496e76616c696420707269636560981b6044820152606490fd5b15612ec557565b60405162461bcd60e51b8152602060048201526012602482015271141c9a58d94819995959081d1bdbc81bdb1960721b6044820152606490fd5b60018060a01b03809116906000918083526007602052604093828585209116908185526020528285852054168061304a575083526007602052838320908352602052828220541680612f8557825162461bcd60e51b8152602060048201526013602482015272139bc81c1c9a58d9481999595908199bdd5b99606a1b6044820152606490fd5b9160a0600493825194858092633fabe5a360e21b82525afa90811561303f575081928291612ffc575b5062015180612fcb612fd292612fc5858713612e82565b426120eb565b1115612ebe565b8115612fe85750662386f26fc100000490600190565b634e487b7160e01b81526012600452602490fd5b612fcb9350612fd2915061302a620151809160a03d8111613038575b6130228183611df4565b810190612e4d565b509692505094925050612fae565b503d613018565b51913d9150823e3d90fd5b8551633fabe5a360e21b8152949695935060a0925084915060049082905afa9081156130c8575083918491613095575b5062015180612fcb61309192612fc5878613612e82565b9190565b612fcb925061309191506130ba620151809160a03d8111613038576130228183611df4565b50959250509392505061307a565b513d85823e3d90fd5b918015613102576002546001600160a01b039081169290811683146130f957612e7f936123ce565b50505050600190565b505050600190565b51908160020b820361039557565b51906001600160801b038216820361039557565b604080519390926001600160a01b039283169161314886611dbc565b8552602092838601838152858701916001600160801b0392839182825260608a019383855289519a63fc6f786560e01b8a8d01525160248c0152511660448a015251166064880152511660848601526084855260c085019167ffffffffffffffff918684108385111761034f57838092818852635229073f60e01b82526000958680948b6131dd8160bf199360c4820161210e565b0301925af19586156132f15783928497613245575b5050501561321157828480518101031261230957508201519101519091565b50606491519062461bcd60e51b82526004820152600e60248201526d10dbdb1b1958dd0819985a5b195960921b6044820152fd5b91965091503d8084883e6132598188611df4565b820195858360c089019803126132d5576132729061209c565b9160e0810151908282116132ed57018660df820112156132d55760c08101519182116132d9578551966132ae601f8401601f1916870189611df4565b82885260e083830101116132d557906132cd9160e08689019101611ebc565b3880806131f2565b8380fd5b634e487b7160e01b84526041600452602484fd5b8480fd5b85513d85823e3d90fd5b6002546040516370a0823160e01b81526001600160a01b0392831660048201529160209183916024918391165afa9081156107945760009161333b575090565b906020823d8211613361575b8161335460209383611df4565b8101031261230957505190565b3d915061334756fec457dabb1cd0422f2d4ee0e35bed2d324c897ff52ca6d0033a86d6a43ce80502a26469706673582212204c3af8828e5a5c150f95c0624080a2e8f7f3e05ca726a659e54979d5ef7346f164736f6c63430008140033",
          "opcodes": "PUSH1 0xC0 CALLVALUE PUSH3 0x2DC JUMPI PUSH1 0x1F PUSH3 0x36CC CODESIZE DUP2 SWAP1 SUB SWAP2 DUP3 ADD PUSH1 0x1F NOT AND DUP4 ADD SWAP3 SWAP2 SWAP1 PUSH1 0x1 PUSH1 0x1 PUSH1 0x40 SHL SUB DUP5 GT DUP4 DUP6 LT OR PUSH3 0x2E1 JUMPI DUP2 PUSH1 0xC0 SWAP3 DUP5 SWAP3 PUSH1 0x40 SWAP7 DUP8 MSTORE DUP4 CODECOPY DUP2 ADD SUB SLT PUSH3 0x2DC JUMPI PUSH3 0x51 DUP2 PUSH3 0x2F7 JUMP JUMPDEST SWAP1 PUSH1 0x20 SWAP2 PUSH3 0x62 DUP4 DUP4 ADD PUSH3 0x2F7 JUMP JUMPDEST PUSH3 0x6F DUP6 DUP5 ADD PUSH3 0x2F7 JUMP JUMPDEST PUSH3 0x7D PUSH1 0x60 DUP6 ADD PUSH3 0x2F7 JUMP JUMPDEST SWAP1 PUSH3 0x9A PUSH1 0xA0 PUSH3 0x92 PUSH1 0x80 DUP9 ADD PUSH3 0x2F7 JUMP JUMPDEST SWAP7 ADD PUSH3 0x2F7 JUMP JUMPDEST SWAP6 PUSH1 0x1 PUSH1 0x1 PUSH1 0xA0 SHL SUB SWAP5 DUP6 AND SWAP4 DUP5 ISZERO PUSH3 0x2C4 JUMPI PUSH1 0x0 DUP1 SLOAD PUSH1 0x1 PUSH1 0x1 PUSH1 0xA0 SHL SUB NOT DUP1 DUP3 AND DUP9 OR DUP4 SSTORE SWAP7 SWAP2 SWAP1 DUP9 AND SWAP1 PUSH32 0x8BE0079C531659141344CD1FD0A4F28419497F9722A3DAAFE3B4186F6B6457E0 SWAP1 DUP1 LOG3 PUSH1 0x64 SWAP2 DUP7 PUSH1 0x4 SWAP3 DUP5 DUP5 SSTORE AND SWAP4 DUP5 ISZERO PUSH3 0x285 JUMPI DUP8 AND SWAP5 DUP6 ISZERO PUSH3 0x246 JUMPI DUP8 AND SWAP7 DUP8 ISZERO PUSH3 0x207 JUMPI DUP1 DUP10 AND ISZERO PUSH3 0x1C8 JUMPI DUP10 AND ISZERO PUSH3 0x18A JUMPI POP POP POP DUP3 PUSH1 0x1 SLOAD AND OR PUSH1 0x1 SSTORE DUP2 PUSH1 0x2 SLOAD AND OR PUSH1 0x2 SSTORE PUSH1 0x3 SLOAD AND OR PUSH1 0x3 SSTORE PUSH1 0x80 MSTORE PUSH1 0xA0 MSTORE MLOAD PUSH2 0x33BF SWAP1 DUP2 PUSH3 0x30D DUP3 CODECOPY PUSH1 0x80 MLOAD DUP2 DUP2 DUP2 PUSH2 0xC45 ADD MSTORE DUP2 DUP2 PUSH2 0x16F8 ADD MSTORE PUSH2 0x2CCA ADD MSTORE PUSH1 0xA0 MLOAD DUP2 DUP2 DUP2 PUSH2 0x9B3 ADD MSTORE DUP2 DUP2 PUSH2 0x241D ADD MSTORE DUP2 DUP2 PUSH2 0x2625 ADD MSTORE PUSH2 0x28ED ADD MSTORE RETURN JUMPDEST DUP10 MLOAD PUSH3 0x461BCD PUSH1 0xE5 SHL DUP2 MSTORE SWAP2 DUP3 ADD MSTORE PUSH1 0x14 PUSH1 0x24 DUP3 ADD MSTORE PUSH32 0x496E76616C696420574554482061646472657373000000000000000000000000 PUSH1 0x44 DUP3 ADD MSTORE REVERT JUMPDEST POP DUP10 MLOAD PUSH3 0x461BCD PUSH1 0xE5 SHL DUP2 MSTORE SWAP2 DUP3 ADD MSTORE PUSH1 0x14 PUSH1 0x24 DUP3 ADD MSTORE PUSH32 0x496E76616C696420555344432061646472657373000000000000000000000000 PUSH1 0x44 DUP3 ADD MSTORE REVERT JUMPDEST POP DUP10 MLOAD PUSH3 0x461BCD PUSH1 0xE5 SHL DUP2 MSTORE SWAP2 DUP3 ADD MSTORE PUSH1 0x13 PUSH1 0x24 DUP3 ADD MSTORE PUSH32 0x496E76616C6964207377617020726F7574657200000000000000000000000000 PUSH1 0x44 DUP3 ADD MSTORE REVERT JUMPDEST POP DUP10 MLOAD PUSH3 0x461BCD PUSH1 0xE5 SHL DUP2 MSTORE SWAP2 DUP3 ADD MSTORE PUSH1 0x15 PUSH1 0x24 DUP3 ADD MSTORE PUSH32 0x496E76616C69642072657761726420737461626C650000000000000000000000 PUSH1 0x44 DUP3 ADD MSTORE REVERT JUMPDEST POP DUP10 MLOAD PUSH3 0x461BCD PUSH1 0xE5 SHL DUP2 MSTORE SWAP2 DUP3 ADD MSTORE PUSH1 0x14 PUSH1 0x24 DUP3 ADD MSTORE PUSH32 0x496E76616C69642072657761726420746F6B656E000000000000000000000000 PUSH1 0x44 DUP3 ADD MSTORE REVERT JUMPDEST DUP9 MLOAD PUSH4 0x1E4FBDF7 PUSH1 0xE0 SHL DUP2 MSTORE PUSH1 0x0 PUSH1 0x4 DUP3 ADD MSTORE PUSH1 0x24 SWAP1 REVERT JUMPDEST PUSH1 0x0 DUP1 REVERT JUMPDEST PUSH4 0x4E487B71 PUSH1 0xE0 SHL PUSH1 0x0 MSTORE PUSH1 0x41 PUSH1 0x4 MSTORE PUSH1 0x24 PUSH1 0x0 REVERT JUMPDEST MLOAD SWAP1 PUSH1 0x1 PUSH1 0x1 PUSH1 0xA0 SHL SUB DUP3 AND DUP3 SUB PUSH3 0x2DC JUMPI JUMP INVALID PUSH1 0x80 PUSH1 0x40 MSTORE PUSH1 0x4 CALLDATASIZE LT ISZERO PUSH2 0x12 JUMPI PUSH1 0x0 DUP1 REVERT JUMPDEST PUSH1 0x0 CALLDATALOAD PUSH1 0xE0 SHR DUP1 PUSH3 0xB21190 EQ PUSH2 0x1BDD JUMPI DUP1 PUSH4 0x8E64F3D EQ PUSH2 0x1462 JUMPI DUP1 PUSH4 0x117DA1EE EQ PUSH2 0x13CB JUMPI DUP1 PUSH4 0x31A8F1C9 EQ PUSH2 0xFE8 JUMPI DUP1 PUSH4 0x3B7D0946 EQ PUSH2 0xF77 JUMPI DUP1 PUSH4 0x424C265B EQ PUSH2 0xF03 JUMPI DUP1 PUSH4 0x4A6A749C EQ PUSH2 0xE9A JUMPI DUP1 PUSH4 0x4BDC76CC EQ PUSH2 0xCCD JUMPI DUP1 PUSH4 0x715018A6 EQ PUSH2 0xC74 JUMPI DUP1 PUSH4 0x89A30271 EQ PUSH2 0xC2F JUMPI DUP1 PUSH4 0x8AEE8127 EQ PUSH2 0xB83 JUMPI DUP1 PUSH4 0x8DA5CB5B EQ PUSH2 0xB5A JUMPI DUP1 PUSH4 0xA7C1C38B EQ PUSH2 0x9E2 JUMPI DUP1 PUSH4 0xAD5C4648 EQ PUSH2 0x99D JUMPI DUP1 PUSH4 0xC13D2F75 EQ PUSH2 0x8F0 JUMPI DUP1 PUSH4 0xC31C9C07 EQ PUSH2 0x8C7 JUMPI DUP1 PUSH4 0xD03153AA EQ PUSH2 0x8A9 JUMPI DUP1 PUSH4 0xE6370309 EQ PUSH2 0x504 JUMPI DUP1 PUSH4 0xF0BBCEC4 EQ PUSH2 0x4C5 JUMPI DUP1 PUSH4 0xF2BF87E3 EQ PUSH2 0x49C JUMPI DUP1 PUSH4 0xF2FDE38B EQ PUSH2 0x413 JUMPI DUP1 PUSH4 0xF7C618C1 EQ PUSH2 0x3EA JUMPI DUP1 PUSH4 0xF90C6906 EQ PUSH2 0x39A JUMPI PUSH4 0xFB0B57B5 EQ PUSH2 0x123 JUMPI PUSH1 0x0 DUP1 REVERT JUMPDEST CALLVALUE PUSH2 0x395 JUMPI PUSH1 0x20 CALLDATASIZE PUSH1 0x3 NOT ADD SLT PUSH2 0x395 JUMPI PUSH1 0x4 CALLDATALOAD PUSH8 0xFFFFFFFFFFFFFFFF DUP2 GT PUSH2 0x395 JUMPI CALLDATASIZE PUSH1 0x23 DUP3 ADD SLT ISZERO PUSH2 0x395 JUMPI PUSH8 0xFFFFFFFFFFFFFFFF DUP2 PUSH1 0x4 ADD CALLDATALOAD GT PUSH2 0x395 JUMPI CALLDATASIZE PUSH1 0x24 DUP3 PUSH1 0x4 ADD CALLDATALOAD PUSH1 0x5 SHL DUP4 ADD ADD GT PUSH2 0x395 JUMPI PUSH2 0x17F PUSH2 0x1F04 JUMP JUMPDEST PUSH1 0x0 SWAP1 JUMPDEST DUP1 PUSH1 0x4 ADD CALLDATALOAD DUP3 LT PUSH2 0x190 JUMPI STOP JUMPDEST PUSH1 0x24 DUP3 PUSH1 0x5 SHL DUP3 ADD ADD CALLDATALOAD PUSH1 0x82 NOT DUP3 CALLDATASIZE SUB ADD DUP2 SLT ISZERO PUSH2 0x395 JUMPI DUP2 ADD PUSH1 0x24 DUP2 ADD SWAP3 SWAP1 PUSH1 0x1 PUSH1 0x1 PUSH1 0xA0 SHL SUB PUSH2 0x1CD DUP2 PUSH2 0x1C5 DUP8 PUSH2 0x1F6B JUMP JUMPDEST AND ISZERO ISZERO PUSH2 0x1F7F JUMP JUMPDEST PUSH1 0x44 DUP1 DUP4 ADD SWAP3 PUSH2 0x1E8 DUP4 PUSH2 0x1E0 DUP7 PUSH2 0x1F6B JUMP JUMPDEST AND ISZERO ISZERO PUSH2 0x1FC0 JUMP JUMPDEST PUSH1 0x64 DUP1 SWAP2 ADD SWAP2 PUSH2 0x1F8 DUP4 DUP10 PUSH2 0x1FFF JUMP JUMPDEST SWAP1 POP ISZERO PUSH2 0x365 JUMPI POP POP SWAP1 DUP1 PUSH2 0x211 PUSH2 0x219 SWAP5 SWAP4 DUP9 PUSH2 0x1FFF JUMP JUMPDEST SWAP5 SWAP1 SWAP8 PUSH2 0x1F6B JUMP JUMPDEST AND PUSH1 0x0 MSTORE PUSH1 0x6 PUSH1 0x20 MSTORE PUSH2 0x230 PUSH1 0x40 PUSH1 0x0 KECCAK256 SWAP3 PUSH2 0x1F6B JUMP JUMPDEST AND PUSH1 0x0 MSTORE PUSH1 0x20 MSTORE PUSH1 0x40 PUSH1 0x0 KECCAK256 SWAP1 PUSH8 0xFFFFFFFFFFFFFFFF DUP2 GT PUSH2 0x34F JUMPI PUSH2 0x256 DUP3 SLOAD PUSH2 0x1D82 JUMP JUMPDEST PUSH1 0x1F DUP2 GT PUSH2 0x307 JUMPI JUMPDEST POP PUSH1 0x0 PUSH1 0x1F DUP3 GT PUSH1 0x1 EQ PUSH2 0x2A1 JUMPI DUP2 SWAP1 PUSH1 0x1 SWAP6 SWAP7 PUSH1 0x0 SWAP3 PUSH2 0x296 JUMPI JUMPDEST POP POP PUSH1 0x0 NOT PUSH1 0x3 DUP4 SWAP1 SHL SHR NOT AND SWAP1 DUP5 SHL OR SWAP1 SSTORE JUMPDEST ADD SWAP1 PUSH2 0x183 JUMP JUMPDEST ADD CALLDATALOAD SWAP1 POP CODESIZE DUP1 PUSH2 0x27B JUMP JUMPDEST PUSH1 0x1F NOT DUP3 AND SWAP6 DUP4 PUSH1 0x0 MSTORE PUSH1 0x20 PUSH1 0x0 KECCAK256 SWAP2 PUSH1 0x0 JUMPDEST DUP9 DUP2 LT PUSH2 0x2EF JUMPI POP DUP4 PUSH1 0x1 SWAP8 SWAP9 LT PUSH2 0x2D5 JUMPI JUMPDEST POP POP POP DUP4 SHL DUP4 ADD SWAP1 SSTORE PUSH2 0x28F JUMP JUMPDEST ADD CALLDATALOAD PUSH1 0x0 NOT PUSH1 0x3 DUP5 SWAP1 SHL PUSH1 0xF8 AND SHR NOT AND SWAP1 SSTORE CODESIZE DUP1 DUP1 PUSH2 0x2C7 JUMP JUMPDEST SWAP1 SWAP3 PUSH1 0x20 PUSH1 0x1 DUP2 SWAP3 DUP7 DUP7 ADD CALLDATALOAD DUP2 SSTORE ADD SWAP5 ADD SWAP2 ADD PUSH2 0x2B4 JUMP JUMPDEST DUP3 PUSH1 0x0 MSTORE PUSH1 0x20 PUSH1 0x0 KECCAK256 PUSH1 0x1F DUP4 ADD PUSH1 0x5 SHR DUP2 ADD SWAP2 PUSH1 0x20 DUP5 LT PUSH2 0x345 JUMPI JUMPDEST PUSH1 0x1F ADD PUSH1 0x5 SHR ADD SWAP1 JUMPDEST DUP2 DUP2 LT PUSH2 0x339 JUMPI POP PUSH2 0x25F JUMP JUMPDEST PUSH1 0x0 DUP2 SSTORE PUSH1 0x1 ADD PUSH2 0x32C JUMP JUMPDEST SWAP1 SWAP2 POP DUP2 SWAP1 PUSH2 0x323 JUMP JUMPDEST PUSH4 0x4E487B71 PUSH1 0xE0 SHL PUSH1 0x0 MSTORE PUSH1 0x41 PUSH1 0x4 MSTORE PUSH1 0x24 PUSH1 0x0 REVERT JUMPDEST PUSH12 0x92DCECC2D8D2C840E0C2E8D PUSH1 0xA3 SHL PUSH1 0x40 MLOAD SWAP2 PUSH3 0x461BCD PUSH1 0xE5 SHL DUP4 MSTORE PUSH1 0x20 PUSH1 0x4 DUP5 ADD MSTORE PUSH1 0xC PUSH1 0x24 DUP5 ADD MSTORE DUP3 ADD MSTORE REVERT JUMPDEST PUSH1 0x0 DUP1 REVERT JUMPDEST CALLVALUE PUSH2 0x395 JUMPI PUSH1 0x40 CALLDATASIZE PUSH1 0x3 NOT ADD SLT PUSH2 0x395 JUMPI PUSH1 0x20 PUSH2 0x3B5 PUSH2 0x1D56 JUMP JUMPDEST PUSH2 0x3BD PUSH2 0x1D6C JUMP JUMPDEST PUSH1 0x1 DUP1 PUSH1 0xA0 SHL SUB DUP1 SWAP3 AND PUSH1 0x0 MSTORE PUSH1 0x7 DUP4 MSTORE DUP2 PUSH1 0x40 PUSH1 0x0 KECCAK256 SWAP2 AND PUSH1 0x0 MSTORE DUP3 MSTORE PUSH1 0x40 PUSH1 0x0 KECCAK256 SLOAD AND PUSH1 0x40 MLOAD SWAP1 DUP2 MSTORE RETURN JUMPDEST CALLVALUE PUSH2 0x395 JUMPI PUSH1 0x0 CALLDATASIZE PUSH1 0x3 NOT ADD SLT PUSH2 0x395 JUMPI PUSH1 0x1 SLOAD PUSH1 0x40 MLOAD PUSH1 0x1 PUSH1 0x1 PUSH1 0xA0 SHL SUB SWAP1 SWAP2 AND DUP2 MSTORE PUSH1 0x20 SWAP1 RETURN JUMPDEST CALLVALUE PUSH2 0x395 JUMPI PUSH1 0x20 CALLDATASIZE PUSH1 0x3 NOT ADD SLT PUSH2 0x395 JUMPI PUSH2 0x42C PUSH2 0x1D56 JUMP JUMPDEST PUSH2 0x434 PUSH2 0x1F04 JUMP JUMPDEST PUSH1 0x1 PUSH1 0x1 PUSH1 0xA0 SHL SUB SWAP1 DUP2 AND SWAP1 DUP2 ISZERO PUSH2 0x483 JUMPI PUSH1 0x0 SLOAD DUP3 PUSH1 0x1 PUSH1 0x1 PUSH1 0x60 SHL SUB PUSH1 0xA0 SHL DUP3 AND OR PUSH1 0x0 SSTORE AND PUSH32 0x8BE0079C531659141344CD1FD0A4F28419497F9722A3DAAFE3B4186F6B6457E0 PUSH1 0x0 DUP1 LOG3 STOP JUMPDEST PUSH1 0x40 MLOAD PUSH4 0x1E4FBDF7 PUSH1 0xE0 SHL DUP2 MSTORE PUSH1 0x0 PUSH1 0x4 DUP3 ADD MSTORE PUSH1 0x24 SWAP1 REVERT JUMPDEST CALLVALUE PUSH2 0x395 JUMPI PUSH1 0x0 CALLDATASIZE PUSH1 0x3 NOT ADD SLT PUSH2 0x395 JUMPI PUSH1 0x2 SLOAD PUSH1 0x40 MLOAD PUSH1 0x1 PUSH1 0x1 PUSH1 0xA0 SHL SUB SWAP1 SWAP2 AND DUP2 MSTORE PUSH1 0x20 SWAP1 RETURN JUMPDEST CALLVALUE PUSH2 0x395 JUMPI PUSH1 0x20 CALLDATASIZE PUSH1 0x3 NOT ADD SLT PUSH2 0x395 JUMPI PUSH1 0x1 PUSH1 0x1 PUSH1 0xA0 SHL SUB PUSH2 0x4E6 PUSH2 0x1D56 JUMP JUMPDEST AND PUSH1 0x0 MSTORE PUSH1 0x5 PUSH1 0x20 MSTORE PUSH1 0x20 PUSH1 0xFF PUSH1 0x40 PUSH1 0x0 KECCAK256 SLOAD AND PUSH1 0x40 MLOAD SWAP1 ISZERO ISZERO DUP2 MSTORE RETURN JUMPDEST CALLVALUE PUSH2 0x395 JUMPI PUSH1 0x40 CALLDATASIZE PUSH1 0x3 NOT ADD SLT PUSH2 0x395 JUMPI PUSH2 0x51D PUSH2 0x1D56 JUMP JUMPDEST PUSH1 0x24 CALLDATALOAD PUSH1 0x1 DUP1 PUSH1 0xA0 SHL SUB DUP1 SWAP3 AND SWAP2 DUP3 PUSH1 0x0 MSTORE PUSH1 0x20 PUSH1 0x5 DUP2 MSTORE PUSH2 0x546 PUSH1 0xFF PUSH1 0x40 PUSH1 0x0 KECCAK256 SLOAD AND PUSH2 0x2032 JUMP JUMPDEST PUSH1 0x40 MLOAD PUSH4 0x23E66501 PUSH1 0xE1 SHL DUP2 MSTORE SWAP2 DUP2 DUP4 PUSH1 0x4 DUP2 DUP9 GAS STATICCALL SWAP3 DUP4 ISZERO PUSH2 0x794 JUMPI PUSH1 0x0 SWAP4 PUSH2 0x872 JUMPI JUMPDEST POP PUSH1 0x40 MLOAD PUSH4 0x29BC6721 PUSH1 0xE2 SHL DUP2 MSTORE SWAP1 DUP3 DUP3 PUSH1 0x4 DUP2 DUP10 GAS STATICCALL SWAP2 DUP3 ISZERO PUSH2 0x794 JUMPI PUSH1 0x0 SWAP3 PUSH2 0x83B JUMPI JUMPDEST POP DUP1 DUP3 AND PUSH2 0x59E CALLER PUSH2 0x32FB JUMP JUMPDEST PUSH1 0x40 MLOAD PUSH4 0xC69DEEC5 PUSH1 0xE0 SHL DUP2 MSTORE CALLER PUSH1 0x4 DUP3 ADD MSTORE PUSH1 0x24 DUP2 ADD DUP9 SWAP1 MSTORE PUSH1 0x0 SWAP7 DUP8 SWAP7 SWAP3 SWAP5 SWAP3 SWAP2 DUP8 SWAP2 DUP4 DUP3 PUSH1 0x44 DUP2 DUP10 GAS STATICCALL DUP1 ISZERO PUSH2 0x794 JUMPI DUP12 SWAP3 PUSH1 0x0 SWAP2 PUSH2 0x803 JUMPI JUMPDEST POP ISZERO PUSH2 0x7CF JUMPI POP POP PUSH1 0x40 MLOAD PUSH4 0x3E491D47 PUSH1 0xE0 SHL DUP2 MSTORE CALLER PUSH1 0x4 DUP3 ADD MSTORE PUSH1 0x24 DUP2 ADD DUP11 SWAP1 MSTORE SWAP4 DUP3 SWAP2 POP DUP5 SWAP1 PUSH1 0x44 SWAP1 DUP3 SWAP1 GAS STATICCALL SWAP3 DUP4 ISZERO PUSH2 0x794 JUMPI PUSH1 0x0 SWAP4 PUSH2 0x7A0 JUMPI JUMPDEST POP DUP3 SWAP5 DUP4 PUSH2 0x681 JUMPI JUMPDEST POP POP POP POP PUSH1 0x0 DUP1 MLOAD PUSH1 0x20 PUSH2 0x336A DUP4 CODECOPY DUP2 MLOAD SWAP2 MSTORE SWAP4 SWAP3 SWAP2 PUSH2 0x64E PUSH2 0x67C SWAP3 JUMPDEST PUSH2 0x649 CALLER PUSH2 0x32FB JUMP JUMPDEST PUSH2 0x20EB JUMP JUMPDEST SWAP1 PUSH1 0x40 MLOAD SWAP5 DUP6 SWAP5 CALLER SWAP9 DUP7 SWAP2 SWAP3 PUSH1 0x80 SWAP4 SWAP7 SWAP6 SWAP5 SWAP2 SWAP7 PUSH1 0xA0 DUP5 ADD SWAP8 DUP5 MSTORE PUSH1 0x20 DUP5 ADD MSTORE PUSH1 0x40 DUP4 ADD MSTORE PUSH1 0x60 DUP3 ADD MSTORE ADD MSTORE JUMP JUMPDEST SUB SWAP1 LOG3 STOP JUMPDEST DUP2 PUSH2 0x6C4 SWAP2 PUSH1 0x40 MLOAD SWAP1 PUSH4 0x1C4B774B PUSH1 0xE0 SHL DUP4 DUP4 ADD MSTORE DUP12 PUSH1 0x24 DUP4 ADD MSTORE PUSH1 0x24 DUP3 MSTORE PUSH2 0x6A9 DUP3 PUSH2 0x1DD8 JUMP JUMPDEST PUSH1 0x40 MLOAD PUSH4 0x468721A7 PUSH1 0xE0 SHL DUP2 MSTORE SWAP4 DUP5 SWAP3 DUP4 SWAP3 PUSH1 0x4 DUP5 ADD PUSH2 0x210E JUMP JUMPDEST SUB DUP2 PUSH1 0x0 CALLER GAS CALL SWAP1 DUP2 ISZERO PUSH2 0x794 JUMPI PUSH1 0x0 SWAP2 PUSH2 0x75F JUMPI JUMPDEST POP ISZERO PUSH2 0x71B JUMPI POP PUSH2 0x67C SWAP3 PUSH2 0x711 PUSH2 0x70C PUSH1 0x0 DUP1 MLOAD PUSH1 0x20 PUSH2 0x336A DUP4 CODECOPY DUP2 MLOAD SWAP2 MSTORE SWAP9 SWAP8 SWAP7 SWAP5 PUSH2 0x64E SWAP5 PUSH1 0x1 SLOAD AND CALLER PUSH2 0x30D1 JUMP JUMPDEST PUSH2 0x213F JUMP JUMPDEST SWAP3 DUP3 SWAP5 SWAP6 SWAP7 PUSH2 0x622 JUMP JUMPDEST PUSH1 0x64 SWAP1 PUSH1 0x40 MLOAD SWAP1 PUSH3 0x461BCD PUSH1 0xE5 SHL DUP3 MSTORE PUSH1 0x4 DUP3 ADD MSTORE PUSH1 0x17 PUSH1 0x24 DUP3 ADD MSTORE PUSH32 0x47617567652067657420726577617264206661696C6564000000000000000000 PUSH1 0x44 DUP3 ADD MSTORE REVERT JUMPDEST SWAP1 POP DUP2 DUP2 DUP2 RETURNDATASIZE DUP4 GT PUSH2 0x78D JUMPI JUMPDEST PUSH2 0x776 DUP2 DUP4 PUSH2 0x1DF4 JUMP JUMPDEST DUP2 ADD SUB SLT PUSH2 0x395 JUMPI PUSH2 0x787 SWAP1 PUSH2 0x209C JUMP JUMPDEST DUP11 PUSH2 0x6DA JUMP JUMPDEST POP RETURNDATASIZE PUSH2 0x76C JUMP JUMPDEST PUSH1 0x40 MLOAD RETURNDATASIZE PUSH1 0x0 DUP3 RETURNDATACOPY RETURNDATASIZE SWAP1 REVERT JUMPDEST SWAP1 DUP1 SWAP4 POP DUP2 DUP2 RETURNDATASIZE DUP4 GT PUSH2 0x7C8 JUMPI JUMPDEST PUSH2 0x7B8 DUP2 DUP4 PUSH2 0x1DF4 JUMP JUMPDEST DUP2 ADD SUB SLT PUSH2 0x395 JUMPI MLOAD SWAP2 DUP10 PUSH2 0x619 JUMP JUMPDEST POP RETURNDATASIZE PUSH2 0x7AE JUMP JUMPDEST SWAP2 SWAP5 POP SWAP2 POP PUSH1 0x0 DUP1 MLOAD PUSH1 0x20 PUSH2 0x336A DUP4 CODECOPY DUP2 MLOAD SWAP2 MSTORE SWAP8 POP PUSH2 0x64E SWAP7 POP PUSH2 0x67C SWAP5 SWAP6 POP PUSH2 0x7FB SWAP3 POP CALLER PUSH2 0x312C JUMP JUMPDEST SWAP5 SWAP1 SWAP4 PUSH2 0x640 JUMP JUMPDEST DUP1 SWAP4 POP DUP6 DUP1 SWAP3 POP RETURNDATASIZE DUP4 GT PUSH2 0x834 JUMPI JUMPDEST PUSH2 0x81C DUP2 DUP4 PUSH2 0x1DF4 JUMP JUMPDEST DUP2 ADD SUB SLT PUSH2 0x395 JUMPI PUSH2 0x82E DUP12 SWAP3 PUSH2 0x209C JUMP JUMPDEST DUP14 PUSH2 0x5DB JUMP JUMPDEST POP RETURNDATASIZE PUSH2 0x812 JUMP JUMPDEST SWAP1 SWAP2 POP DUP3 DUP2 DUP2 RETURNDATASIZE DUP4 GT PUSH2 0x86B JUMPI JUMPDEST PUSH2 0x853 DUP2 DUP4 PUSH2 0x1DF4 JUMP JUMPDEST DUP2 ADD SUB SLT PUSH2 0x395 JUMPI PUSH2 0x864 SWAP1 PUSH2 0x2088 JUMP JUMPDEST SWAP1 DUP7 PUSH2 0x591 JUMP JUMPDEST POP RETURNDATASIZE PUSH2 0x849 JUMP JUMPDEST SWAP1 SWAP3 POP DUP2 DUP2 DUP2 RETURNDATASIZE DUP4 GT PUSH2 0x8A2 JUMPI JUMPDEST PUSH2 0x88A DUP2 DUP4 PUSH2 0x1DF4 JUMP JUMPDEST DUP2 ADD SUB SLT PUSH2 0x395 JUMPI PUSH2 0x89B SWAP1 PUSH2 0x2088 JUMP JUMPDEST SWAP2 DUP6 PUSH2 0x56B JUMP JUMPDEST POP RETURNDATASIZE PUSH2 0x880 JUMP JUMPDEST CALLVALUE PUSH2 0x395 JUMPI PUSH1 0x0 CALLDATASIZE PUSH1 0x3 NOT ADD SLT PUSH2 0x395 JUMPI PUSH1 0x20 PUSH1 0x4 SLOAD PUSH1 0x40 MLOAD SWAP1 DUP2 MSTORE RETURN JUMPDEST CALLVALUE PUSH2 0x395 JUMPI PUSH1 0x0 CALLDATASIZE PUSH1 0x3 NOT ADD SLT PUSH2 0x395 JUMPI PUSH1 0x3 SLOAD PUSH1 0x40 MLOAD PUSH1 0x1 PUSH1 0x1 PUSH1 0xA0 SHL SUB SWAP1 SWAP2 AND DUP2 MSTORE PUSH1 0x20 SWAP1 RETURN JUMPDEST CALLVALUE PUSH2 0x395 JUMPI PUSH1 0x20 CALLDATASIZE PUSH1 0x3 NOT ADD SLT PUSH2 0x395 JUMPI PUSH2 0x909 PUSH2 0x1D56 JUMP JUMPDEST PUSH2 0x911 PUSH2 0x1F04 JUMP JUMPDEST PUSH1 0x1 PUSH1 0x1 PUSH1 0xA0 SHL SUB SWAP1 DUP2 AND SWAP1 DUP2 ISZERO PUSH2 0x960 JUMPI PUSH1 0x2 SLOAD DUP3 PUSH1 0x1 PUSH1 0x1 PUSH1 0x60 SHL SUB PUSH1 0xA0 SHL DUP3 AND OR PUSH1 0x2 SSTORE AND PUSH32 0x9D4858DCCB76DEBED7845FD87EC5C769962D072D518C9E34182581ABB3E8247C PUSH1 0x0 DUP1 LOG3 STOP JUMPDEST PUSH1 0x40 MLOAD PUSH3 0x461BCD PUSH1 0xE5 SHL DUP2 MSTORE PUSH1 0x20 PUSH1 0x4 DUP3 ADD MSTORE PUSH1 0x15 PUSH1 0x24 DUP3 ADD MSTORE PUSH21 0x496E76616C69642072657761726420737461626C65 PUSH1 0x58 SHL PUSH1 0x44 DUP3 ADD MSTORE PUSH1 0x64 SWAP1 REVERT JUMPDEST CALLVALUE PUSH2 0x395 JUMPI PUSH1 0x0 CALLDATASIZE PUSH1 0x3 NOT ADD SLT PUSH2 0x395 JUMPI PUSH1 0x40 MLOAD PUSH32 0x0 PUSH1 0x1 PUSH1 0x1 PUSH1 0xA0 SHL SUB AND DUP2 MSTORE PUSH1 0x20 SWAP1 RETURN JUMPDEST PUSH1 0x80 CALLDATASIZE PUSH1 0x3 NOT ADD SLT PUSH2 0x395 JUMPI PUSH2 0x9F6 PUSH2 0x1D56 JUMP JUMPDEST PUSH1 0x44 CALLDATALOAD PUSH1 0x1 PUSH1 0x1 PUSH1 0xA0 SHL SUB DUP2 AND SWAP2 SWAP1 PUSH1 0x24 CALLDATALOAD DUP4 DUP3 SUB PUSH2 0x395 JUMPI PUSH1 0x64 CALLDATALOAD SWAP4 DUP5 ISZERO ISZERO DUP6 SUB PUSH2 0x395 JUMPI DUP1 PUSH2 0xA7B JUMPI POP PUSH2 0xA3C SWAP3 SWAP2 PUSH2 0xA34 SWAP2 CALLER BALANCE SWAP4 CALLER PUSH2 0x23CE JUMP JUMPDEST POP CALLER BALANCE PUSH2 0x20EB JUMP JUMPDEST SWAP1 JUMPDEST PUSH2 0xA44 JUMPI STOP JUMPDEST PUSH1 0x0 SWAP1 PUSH1 0x40 MLOAD SWAP1 DUP3 DUP3 MSTORE DUP3 PUSH1 0x20 DUP4 ADD MSTORE DUP3 PUSH1 0x40 DUP4 ADD MSTORE PUSH1 0x60 DUP3 ADD MSTORE DUP2 PUSH1 0x80 DUP3 ADD MSTORE PUSH1 0x0 DUP1 MLOAD PUSH1 0x20 PUSH2 0x336A DUP4 CODECOPY DUP2 MLOAD SWAP2 MSTORE PUSH1 0xA0 CALLER SWAP3 LOG3 STOP JUMPDEST SWAP3 PUSH1 0x40 MLOAD SWAP2 PUSH4 0x70A08231 PUSH1 0xE0 SHL SWAP1 DUP2 DUP5 MSTORE CALLER PUSH1 0x4 DUP6 ADD MSTORE PUSH1 0x20 SWAP3 DUP4 DUP6 PUSH1 0x24 DUP2 DUP11 GAS STATICCALL SWAP5 DUP6 ISZERO PUSH2 0x794 JUMPI PUSH1 0x0 SWAP6 PUSH2 0xB1F JUMPI JUMPDEST POP SWAP5 PUSH2 0xABB SWAP2 DUP5 SWAP6 SWAP7 CALLER PUSH2 0x23CE JUMP JUMPDEST POP PUSH1 0x24 PUSH1 0x40 MLOAD DUP1 SWAP7 DUP2 SWAP4 DUP3 MSTORE CALLER PUSH1 0x4 DUP4 ADD MSTORE GAS STATICCALL SWAP1 DUP2 ISZERO PUSH2 0x794 JUMPI PUSH1 0x0 SWAP2 PUSH2 0xAEF JUMPI JUMPDEST POP PUSH2 0xAE9 SWAP3 POP PUSH2 0x20EB JUMP JUMPDEST SWAP1 PUSH2 0xA3E JUMP JUMPDEST SWAP1 POP DUP3 DUP2 RETURNDATASIZE DUP4 GT PUSH2 0xB18 JUMPI JUMPDEST PUSH2 0xB05 DUP2 DUP4 PUSH2 0x1DF4 JUMP JUMPDEST DUP2 ADD SUB SLT PUSH2 0x395 JUMPI PUSH2 0xAE9 SWAP2 MLOAD DUP5 PUSH2 0xADE JUMP JUMPDEST POP RETURNDATASIZE PUSH2 0xAFB JUMP JUMPDEST SWAP2 SWAP4 DUP1 SWAP6 POP DUP3 DUP2 SWAP8 SWAP3 SWAP8 RETURNDATASIZE DUP4 GT PUSH2 0xB53 JUMPI JUMPDEST PUSH2 0xB3B DUP2 DUP4 PUSH2 0x1DF4 JUMP JUMPDEST DUP2 ADD SUB SLT PUSH2 0x395 JUMPI SWAP1 MLOAD SWAP1 SWAP5 SWAP1 SWAP4 SWAP3 SWAP1 PUSH2 0xABB PUSH2 0xAAC JUMP JUMPDEST POP RETURNDATASIZE PUSH2 0xB31 JUMP JUMPDEST CALLVALUE PUSH2 0x395 JUMPI PUSH1 0x0 CALLDATASIZE PUSH1 0x3 NOT ADD SLT PUSH2 0x395 JUMPI PUSH1 0x0 SLOAD PUSH1 0x40 MLOAD PUSH1 0x1 PUSH1 0x1 PUSH1 0xA0 SHL SUB SWAP1 SWAP2 AND DUP2 MSTORE PUSH1 0x20 SWAP1 RETURN JUMPDEST CALLVALUE PUSH2 0x395 JUMPI PUSH1 0x20 CALLDATASIZE PUSH1 0x3 NOT ADD SLT PUSH2 0x395 JUMPI PUSH2 0xB9C PUSH2 0x1D56 JUMP JUMPDEST PUSH2 0xBA4 PUSH2 0x1F04 JUMP JUMPDEST PUSH1 0x1 PUSH1 0x1 PUSH1 0xA0 SHL SUB SWAP1 DUP2 AND SWAP1 DUP2 ISZERO PUSH2 0xBF3 JUMPI PUSH1 0x1 SLOAD DUP3 PUSH1 0x1 PUSH1 0x1 PUSH1 0x60 SHL SUB PUSH1 0xA0 SHL DUP3 AND OR PUSH1 0x1 SSTORE AND PUSH32 0x906FF2422A6FFA134F2D7CCAFFD446BC0C583A5CB6615749B4B2836942A5FEA8 PUSH1 0x0 DUP1 LOG3 STOP JUMPDEST PUSH1 0x40 MLOAD PUSH3 0x461BCD PUSH1 0xE5 SHL DUP2 MSTORE PUSH1 0x20 PUSH1 0x4 DUP3 ADD MSTORE PUSH1 0x14 PUSH1 0x24 DUP3 ADD MSTORE PUSH20 0x24B73B30B634B2103932BBB0B932103A37B5B2B7 PUSH1 0x61 SHL PUSH1 0x44 DUP3 ADD MSTORE PUSH1 0x64 SWAP1 REVERT JUMPDEST CALLVALUE PUSH2 0x395 JUMPI PUSH1 0x0 CALLDATASIZE PUSH1 0x3 NOT ADD SLT PUSH2 0x395 JUMPI PUSH1 0x40 MLOAD PUSH32 0x0 PUSH1 0x1 PUSH1 0x1 PUSH1 0xA0 SHL SUB AND DUP2 MSTORE PUSH1 0x20 SWAP1 RETURN JUMPDEST CALLVALUE PUSH2 0x395 JUMPI PUSH1 0x0 CALLDATASIZE PUSH1 0x3 NOT ADD SLT PUSH2 0x395 JUMPI PUSH2 0xC8D PUSH2 0x1F04 JUMP JUMPDEST PUSH1 0x0 DUP1 SLOAD PUSH1 0x1 PUSH1 0x1 PUSH1 0xA0 SHL SUB NOT DUP2 AND DUP3 SSTORE PUSH1 0x1 PUSH1 0x1 PUSH1 0xA0 SHL SUB AND PUSH32 0x8BE0079C531659141344CD1FD0A4F28419497F9722A3DAAFE3B4186F6B6457E0 DUP3 DUP1 LOG3 STOP JUMPDEST CALLVALUE PUSH2 0x395 JUMPI PUSH1 0x40 CALLDATASIZE PUSH1 0x3 NOT ADD SLT PUSH2 0x395 JUMPI PUSH2 0xCE6 PUSH2 0x1D56 JUMP JUMPDEST PUSH1 0x24 CALLDATALOAD PUSH1 0x1 DUP1 PUSH1 0xA0 SHL SUB DUP1 SWAP3 AND SWAP2 DUP3 PUSH1 0x0 MSTORE PUSH1 0x20 SWAP1 PUSH1 0x5 DUP3 MSTORE PUSH2 0xD10 PUSH1 0xFF PUSH1 0x40 PUSH1 0x0 KECCAK256 SLOAD AND PUSH2 0x2032 JUMP JUMPDEST PUSH1 0x40 MLOAD PUSH4 0x29BC6721 PUSH1 0xE2 SHL DUP2 MSTORE SWAP1 DUP3 DUP3 PUSH1 0x4 DUP2 DUP9 GAS STATICCALL SWAP2 DUP3 ISZERO PUSH2 0x794 JUMPI PUSH1 0x0 SWAP3 PUSH2 0xE63 JUMPI JUMPDEST POP PUSH1 0x40 MLOAD PUSH4 0xC69DEEC5 PUSH1 0xE0 SHL DUP2 MSTORE CALLER PUSH1 0x4 DUP3 ADD MSTORE PUSH1 0x24 DUP2 ADD DUP6 SWAP1 MSTORE SWAP1 DUP3 AND SWAP1 DUP4 DUP2 PUSH1 0x44 DUP2 DUP6 GAS STATICCALL DUP1 ISZERO PUSH2 0x794 JUMPI PUSH1 0x0 SWAP1 PUSH2 0xE2D JUMPI JUMPDEST PUSH2 0xD74 SWAP2 POP PUSH2 0x20A9 JUMP JUMPDEST PUSH2 0xD7D CALLER PUSH2 0x32FB JUMP JUMPDEST PUSH1 0x40 MLOAD PUSH4 0x3E491D47 PUSH1 0xE0 SHL DUP2 MSTORE CALLER PUSH1 0x4 DUP3 ADD MSTORE PUSH1 0x24 DUP2 ADD DUP7 SWAP1 MSTORE SWAP1 SWAP2 DUP5 SWAP1 DUP3 SWAP1 PUSH1 0x44 SWAP1 DUP3 SWAP1 GAS STATICCALL SWAP3 DUP4 ISZERO PUSH2 0x794 JUMPI DUP6 SWAP2 PUSH1 0x0 SWAP5 PUSH2 0xDF8 JUMPI JUMPDEST POP SWAP2 PUSH2 0x640 PUSH2 0xDC7 SWAP3 PUSH1 0x0 SWAP5 CALLER PUSH2 0x2183 JUMP JUMPDEST SWAP3 PUSH1 0x40 MLOAD SWAP5 DUP6 MSTORE DUP5 ADD MSTORE PUSH1 0x0 PUSH1 0x40 DUP5 ADD MSTORE PUSH1 0x60 DUP4 ADD MSTORE PUSH1 0x80 DUP3 ADD MSTORE PUSH1 0x0 DUP1 MLOAD PUSH1 0x20 PUSH2 0x336A DUP4 CODECOPY DUP2 MLOAD SWAP2 MSTORE PUSH1 0xA0 CALLER SWAP3 LOG3 STOP JUMPDEST DUP6 DUP1 SWAP3 SWAP6 POP DUP2 SWAP4 POP RETURNDATASIZE DUP4 GT PUSH2 0xE26 JUMPI JUMPDEST PUSH2 0xE12 DUP2 DUP4 PUSH2 0x1DF4 JUMP JUMPDEST DUP2 ADD SUB SLT PUSH2 0x395 JUMPI MLOAD SWAP2 DUP5 SWAP1 PUSH2 0x640 PUSH2 0xDB5 JUMP JUMPDEST POP RETURNDATASIZE PUSH2 0xE08 JUMP JUMPDEST POP DUP4 DUP2 DUP2 RETURNDATASIZE DUP4 GT PUSH2 0xE5C JUMPI JUMPDEST PUSH2 0xE43 DUP2 DUP4 PUSH2 0x1DF4 JUMP JUMPDEST DUP2 ADD SUB SLT PUSH2 0x395 JUMPI PUSH2 0xE57 PUSH2 0xD74 SWAP2 PUSH2 0x209C JUMP JUMPDEST PUSH2 0xD6A JUMP JUMPDEST POP RETURNDATASIZE PUSH2 0xE39 JUMP JUMPDEST SWAP1 SWAP2 POP DUP3 DUP2 DUP2 RETURNDATASIZE DUP4 GT PUSH2 0xE93 JUMPI JUMPDEST PUSH2 0xE7B DUP2 DUP4 PUSH2 0x1DF4 JUMP JUMPDEST DUP2 ADD SUB SLT PUSH2 0x395 JUMPI PUSH2 0xE8C SWAP1 PUSH2 0x2088 JUMP JUMPDEST SWAP1 DUP6 PUSH2 0xD35 JUMP JUMPDEST POP RETURNDATASIZE PUSH2 0xE71 JUMP JUMPDEST CALLVALUE PUSH2 0x395 JUMPI PUSH1 0x40 CALLDATASIZE PUSH1 0x3 NOT ADD SLT PUSH2 0x395 JUMPI PUSH2 0xEB3 PUSH2 0x1D56 JUMP JUMPDEST PUSH2 0xEBB PUSH2 0x1D6C JUMP JUMPDEST SWAP1 PUSH1 0x1 DUP1 PUSH1 0xA0 SHL SUB DUP1 SWAP2 AND PUSH1 0x0 MSTORE PUSH1 0x6 PUSH1 0x20 MSTORE PUSH1 0x40 PUSH1 0x0 KECCAK256 SWAP2 AND PUSH1 0x0 MSTORE PUSH1 0x20 MSTORE PUSH2 0xEFF PUSH2 0xEEB PUSH1 0x40 PUSH1 0x0 KECCAK256 PUSH2 0x1E16 JUMP JUMPDEST PUSH1 0x40 MLOAD SWAP2 DUP3 SWAP2 PUSH1 0x20 DUP4 MSTORE PUSH1 0x20 DUP4 ADD SWAP1 PUSH2 0x1EDF JUMP JUMPDEST SUB SWAP1 RETURN JUMPDEST CALLVALUE PUSH2 0x395 JUMPI PUSH1 0x20 CALLDATASIZE PUSH1 0x3 NOT ADD SLT PUSH2 0x395 JUMPI PUSH2 0xF1C PUSH2 0x1D56 JUMP JUMPDEST PUSH2 0xF24 PUSH2 0x1F04 JUMP JUMPDEST PUSH1 0x1 PUSH1 0x1 PUSH1 0xA0 SHL SUB AND PUSH2 0xF38 DUP2 ISZERO ISZERO PUSH2 0x1F30 JUMP JUMPDEST PUSH1 0x0 DUP2 DUP2 MSTORE PUSH1 0x5 PUSH1 0x20 MSTORE PUSH1 0x40 DUP2 KECCAK256 DUP1 SLOAD PUSH1 0xFF NOT AND PUSH1 0x1 OR SWAP1 SSTORE PUSH32 0xFC1F1E73948CBC47C5B7F90E5601B7DACCD9AD7173218486CCC74BDD051D05E8 DUP2 DUP1 LOG3 STOP JUMPDEST CALLVALUE PUSH2 0x395 JUMPI PUSH1 0x20 CALLDATASIZE PUSH1 0x3 NOT ADD SLT PUSH2 0x395 JUMPI PUSH2 0xF90 PUSH2 0x1D56 JUMP JUMPDEST PUSH2 0xF98 PUSH2 0x1F04 JUMP JUMPDEST PUSH1 0x1 PUSH1 0x1 PUSH1 0xA0 SHL SUB AND PUSH2 0xFAC DUP2 ISZERO ISZERO PUSH2 0x1F30 JUMP JUMPDEST PUSH1 0x0 DUP2 DUP2 MSTORE PUSH1 0x5 PUSH1 0x20 MSTORE PUSH1 0x40 DUP2 KECCAK256 DUP1 SLOAD PUSH1 0xFF NOT AND SWAP1 SSTORE PUSH32 0x987EB3C2F78454541205F72F34839B434C306C9EAF4922EFD7C0C3060FDB2E4C DUP2 DUP1 LOG3 STOP JUMPDEST CALLVALUE PUSH2 0x395 JUMPI PUSH1 0x40 CALLDATASIZE PUSH1 0x3 NOT ADD SLT PUSH2 0x395 JUMPI PUSH2 0x1001 PUSH2 0x1D56 JUMP JUMPDEST PUSH1 0x24 SWAP1 DUP2 CALLDATALOAD PUSH1 0x1 DUP1 PUSH1 0xA0 SHL SUB DUP1 SWAP3 AND SWAP2 DUP3 PUSH1 0x0 MSTORE PUSH1 0x20 SWAP1 PUSH1 0x5 DUP3 MSTORE PUSH2 0x102D PUSH1 0xFF PUSH1 0x40 PUSH1 0x0 KECCAK256 SLOAD AND PUSH2 0x2032 JUMP JUMPDEST PUSH1 0x40 MLOAD PUSH4 0x23E66501 PUSH1 0xE1 SHL DUP2 MSTORE DUP3 DUP2 PUSH1 0x4 DUP2 DUP9 GAS STATICCALL SWAP1 DUP2 ISZERO PUSH2 0x794 JUMPI PUSH1 0x0 SWAP2 PUSH2 0x1396 JUMPI JUMPDEST POP PUSH1 0x40 MLOAD PUSH4 0x29BC6721 PUSH1 0xE2 SHL DUP2 MSTORE DUP4 DUP2 PUSH1 0x4 DUP2 DUP10 GAS STATICCALL SWAP1 DUP2 ISZERO PUSH2 0x794 JUMPI PUSH1 0x0 SWAP2 PUSH2 0x1361 JUMPI JUMPDEST POP PUSH1 0x40 MLOAD PUSH4 0xC69DEEC5 PUSH1 0xE0 SHL DUP2 MSTORE CALLER PUSH1 0x4 DUP3 ADD MSTORE PUSH1 0x24 DUP2 ADD DUP7 SWAP1 MSTORE DUP4 DUP3 AND SWAP1 DUP6 DUP2 PUSH1 0x44 DUP2 DUP6 GAS STATICCALL SWAP1 DUP2 ISZERO PUSH2 0x794 JUMPI PUSH1 0x0 SWAP2 PUSH2 0x132C JUMPI JUMPDEST POP PUSH2 0x12E8 JUMPI SWAP1 PUSH1 0x44 DUP6 SWAP7 SWAP8 SWAP9 SWAP3 PUSH2 0x10C2 CALLER PUSH2 0x32FB JUMP JUMPDEST SWAP5 PUSH2 0x10CE DUP11 DUP3 CALLER PUSH2 0x312C JUMP JUMPDEST SWAP9 SWAP1 SWAP8 PUSH1 0x40 MLOAD SWAP5 DUP6 DUP1 SWAP3 PUSH4 0xE985E9C5 PUSH1 0xE0 SHL DUP3 MSTORE CALLER PUSH1 0x4 DUP4 ADD MSTORE DUP7 DUP11 DUP4 ADD MSTORE DUP6 AND GAS STATICCALL DUP1 ISZERO PUSH2 0x794 JUMPI DUP10 SWAP4 PUSH1 0x0 SWAP2 PUSH2 0x12B2 JUMPI JUMPDEST POP ISZERO PUSH2 0x11F1 JUMPI JUMPDEST POP POP PUSH1 0x40 MLOAD PUSH4 0xB6B55F25 PUSH1 0xE0 SHL DUP3 DUP3 ADD MSTORE DUP4 DUP2 ADD DUP10 SWAP1 MSTORE DUP4 DUP2 MSTORE PUSH2 0x112F SWAP3 PUSH2 0x6A9 DUP3 PUSH2 0x1DD8 JUMP JUMPDEST SUB DUP2 PUSH1 0x0 CALLER GAS CALL SWAP1 DUP2 ISZERO PUSH2 0x794 JUMPI PUSH1 0x0 SWAP2 PUSH2 0x11BC JUMPI JUMPDEST POP ISZERO PUSH2 0x118A JUMPI POP PUSH2 0x1159 SWAP1 PUSH2 0x649 CALLER PUSH2 0x32FB JUMP JUMPDEST SWAP3 PUSH1 0x40 MLOAD SWAP5 DUP6 MSTORE DUP5 ADD MSTORE PUSH1 0x40 DUP4 ADD MSTORE PUSH1 0x0 PUSH1 0x60 DUP4 ADD MSTORE PUSH1 0x80 DUP3 ADD MSTORE PUSH1 0x0 DUP1 MLOAD PUSH1 0x20 PUSH2 0x336A DUP4 CODECOPY DUP2 MLOAD SWAP2 MSTORE PUSH1 0xA0 CALLER SWAP3 LOG3 STOP JUMPDEST DUP5 PUSH1 0xC PUSH1 0x64 SWAP3 PUSH1 0x40 MLOAD SWAP3 PUSH3 0x461BCD PUSH1 0xE5 SHL DUP5 MSTORE PUSH1 0x4 DUP5 ADD MSTORE DUP3 ADD MSTORE PUSH12 0x14DD185AD94819985A5B1959 PUSH1 0xA2 SHL PUSH1 0x44 DUP3 ADD MSTORE REVERT JUMPDEST SWAP1 POP DUP6 DUP2 DUP2 RETURNDATASIZE DUP4 GT PUSH2 0x11EA JUMPI JUMPDEST PUSH2 0x11D3 DUP2 DUP4 PUSH2 0x1DF4 JUMP JUMPDEST DUP2 ADD SUB SLT PUSH2 0x395 JUMPI PUSH2 0x11E4 SWAP1 PUSH2 0x209C JUMP JUMPDEST DUP9 PUSH2 0x1145 JUMP JUMPDEST POP RETURNDATASIZE PUSH2 0x11C9 JUMP JUMPDEST SWAP1 PUSH2 0x121F SWAP3 SWAP2 PUSH1 0x40 MLOAD SWAP2 PUSH4 0xA22CB465 PUSH1 0xE0 SHL DUP5 DUP5 ADD MSTORE DUP7 DUP4 ADD MSTORE PUSH1 0x1 PUSH1 0x44 DUP4 ADD MSTORE PUSH1 0x44 DUP3 MSTORE PUSH2 0x6A9 DUP3 PUSH2 0x1DBC JUMP JUMPDEST SUB DUP2 PUSH1 0x0 CALLER GAS CALL SWAP1 DUP2 ISZERO PUSH2 0x794 JUMPI PUSH1 0x0 SWAP2 PUSH2 0x127D JUMPI JUMPDEST POP ISZERO PUSH2 0x1243 JUMPI DUP6 DUP10 DUP1 PUSH2 0x1108 JUMP JUMPDEST PUSH1 0x40 MLOAD PUSH3 0x461BCD PUSH1 0xE5 SHL DUP2 MSTORE PUSH1 0x4 DUP2 ADD DUP8 SWAP1 MSTORE PUSH1 0x13 DUP2 DUP5 ADD MSTORE PUSH19 0x13919508185C1C1C9BDD985B0819985A5B1959 PUSH1 0x6A SHL PUSH1 0x44 DUP3 ADD MSTORE PUSH1 0x64 SWAP1 REVERT JUMPDEST SWAP1 POP DUP7 DUP2 DUP2 RETURNDATASIZE DUP4 GT PUSH2 0x12AB JUMPI JUMPDEST PUSH2 0x1294 DUP2 DUP4 PUSH2 0x1DF4 JUMP JUMPDEST DUP2 ADD SUB SLT PUSH2 0x395 JUMPI PUSH2 0x12A5 SWAP1 PUSH2 0x209C JUMP JUMPDEST DUP10 PUSH2 0x1235 JUMP JUMPDEST POP RETURNDATASIZE PUSH2 0x128A JUMP JUMPDEST DUP5 DUP2 SWAP6 SWAP3 POP RETURNDATASIZE DUP4 GT PUSH2 0x12E1 JUMPI JUMPDEST PUSH2 0x12C9 DUP2 DUP4 PUSH2 0x1DF4 JUMP JUMPDEST DUP2 ADD SUB SLT PUSH2 0x395 JUMPI PUSH2 0x12DB DUP10 SWAP4 PUSH2 0x209C JUMP JUMPDEST DUP13 PUSH2 0x1101 JUMP JUMPDEST POP RETURNDATASIZE PUSH2 0x12BF JUMP JUMPDEST PUSH1 0x40 MLOAD PUSH3 0x461BCD PUSH1 0xE5 SHL DUP2 MSTORE PUSH1 0x4 DUP2 ADD DUP7 SWAP1 MSTORE PUSH1 0x17 DUP2 DUP11 ADD MSTORE PUSH32 0x506F736974696F6E20616C7265616479207374616B6564000000000000000000 PUSH1 0x44 DUP3 ADD MSTORE PUSH1 0x64 SWAP1 REVERT JUMPDEST SWAP1 POP DUP6 DUP2 DUP2 RETURNDATASIZE DUP4 GT PUSH2 0x135A JUMPI JUMPDEST PUSH2 0x1343 DUP2 DUP4 PUSH2 0x1DF4 JUMP JUMPDEST DUP2 ADD SUB SLT PUSH2 0x395 JUMPI PUSH2 0x1354 SWAP1 PUSH2 0x209C JUMP JUMPDEST DUP10 PUSH2 0x10AC JUMP JUMPDEST POP RETURNDATASIZE PUSH2 0x1339 JUMP JUMPDEST SWAP1 POP DUP4 DUP2 DUP2 RETURNDATASIZE DUP4 GT PUSH2 0x138F JUMPI JUMPDEST PUSH2 0x1378 DUP2 DUP4 PUSH2 0x1DF4 JUMP JUMPDEST DUP2 ADD SUB SLT PUSH2 0x395 JUMPI PUSH2 0x1389 SWAP1 PUSH2 0x2088 JUMP JUMPDEST DUP8 PUSH2 0x1076 JUMP JUMPDEST POP RETURNDATASIZE PUSH2 0x136E JUMP JUMPDEST SWAP1 POP DUP3 DUP2 DUP2 RETURNDATASIZE DUP4 GT PUSH2 0x13C4 JUMPI JUMPDEST PUSH2 0x13AD DUP2 DUP4 PUSH2 0x1DF4 JUMP JUMPDEST DUP2 ADD SUB SLT PUSH2 0x395 JUMPI PUSH2 0x13BE SWAP1 PUSH2 0x2088 JUMP JUMPDEST DUP7 PUSH2 0x1051 JUMP JUMPDEST POP RETURNDATASIZE PUSH2 0x13A3 JUMP JUMPDEST CALLVALUE PUSH2 0x395 JUMPI PUSH1 0x20 CALLDATASIZE PUSH1 0x3 NOT ADD SLT PUSH2 0x395 JUMPI PUSH1 0x4 CALLDATALOAD PUSH2 0x13E7 PUSH2 0x1F04 JUMP JUMPDEST PUSH2 0x3E8 DUP2 GT PUSH2 0x1429 JUMPI PUSH1 0x40 PUSH32 0xDDD31550B26E9EF8ADE466958BE83FF8A014D9B4F36D546B61A6847A45306575 SWAP2 PUSH1 0x4 SLOAD SWAP1 DUP1 PUSH1 0x4 SSTORE DUP3 MLOAD SWAP2 DUP3 MSTORE PUSH1 0x20 DUP3 ADD MSTORE LOG1 STOP JUMPDEST PUSH1 0x40 MLOAD PUSH3 0x461BCD PUSH1 0xE5 SHL DUP2 MSTORE PUSH1 0x20 PUSH1 0x4 DUP3 ADD MSTORE PUSH1 0x11 PUSH1 0x24 DUP3 ADD MSTORE PUSH17 0xA6D8D2E0E0C2CECA40E8DEDE40D0D2CED PUSH1 0x7B SHL PUSH1 0x44 DUP3 ADD MSTORE PUSH1 0x64 SWAP1 REVERT JUMPDEST CALLVALUE PUSH2 0x395 JUMPI PUSH1 0x60 CALLDATASIZE PUSH1 0x3 NOT ADD SLT PUSH2 0x395 JUMPI PUSH2 0x147B PUSH2 0x1D56 JUMP JUMPDEST PUSH1 0x44 CALLDATALOAD ISZERO ISZERO PUSH1 0x44 CALLDATALOAD SUB PUSH2 0x395 JUMPI PUSH1 0x1 PUSH1 0x1 PUSH1 0xA0 SHL SUB DUP2 AND PUSH1 0x0 SWAP1 DUP2 MSTORE PUSH1 0x5 PUSH1 0x20 MSTORE PUSH1 0x40 SWAP1 KECCAK256 SLOAD PUSH2 0x14AD SWAP1 PUSH1 0xFF AND PUSH2 0x2032 JUMP JUMPDEST PUSH1 0x40 MLOAD PUSH4 0x23E66501 PUSH1 0xE1 SHL DUP2 MSTORE SWAP1 PUSH1 0x20 DUP3 PUSH1 0x4 DUP2 PUSH1 0x1 PUSH1 0x1 PUSH1 0xA0 SHL SUB DUP6 AND GAS STATICCALL SWAP2 DUP3 ISZERO PUSH2 0x794 JUMPI PUSH1 0x0 SWAP3 PUSH2 0x1BA1 JUMPI JUMPDEST POP PUSH1 0x40 MLOAD PUSH4 0x133F7571 PUSH1 0xE3 SHL DUP2 MSTORE PUSH1 0x24 DUP1 CALLDATALOAD PUSH1 0x4 DUP4 ADD MSTORE PUSH2 0x180 SWAP1 DUP2 SWAP1 DUP4 SWAP1 DUP2 PUSH1 0x1 PUSH1 0x1 PUSH1 0xA0 SHL SUB DUP9 AND GAS STATICCALL SWAP3 DUP4 ISZERO PUSH2 0x794 JUMPI PUSH1 0x0 SWAP3 PUSH1 0x0 SWAP3 PUSH1 0x0 SWAP6 PUSH2 0x1AE7 JUMPI JUMPDEST POP POP PUSH2 0x1528 CALLER PUSH2 0x32FB JUMP JUMPDEST PUSH1 0x40 MLOAD PUSH4 0x29BC6721 PUSH1 0xE2 SHL DUP2 MSTORE SWAP6 PUSH1 0x0 SWAP4 SWAP2 SWAP1 PUSH1 0x20 DUP9 PUSH1 0x4 DUP2 PUSH1 0x1 PUSH1 0x1 PUSH1 0xA0 SHL SUB DUP9 AND GAS STATICCALL SWAP8 DUP9 ISZERO PUSH2 0x794 JUMPI PUSH1 0x0 SWAP9 PUSH2 0x1AAB JUMPI JUMPDEST POP PUSH1 0x40 MLOAD PUSH4 0xC69DEEC5 PUSH1 0xE0 SHL DUP2 MSTORE CALLER PUSH1 0x4 DUP3 ADD MSTORE PUSH1 0x24 DUP1 CALLDATALOAD SWAP1 DUP3 ADD MSTORE SWAP8 PUSH1 0x20 DUP10 PUSH1 0x44 DUP2 PUSH1 0x1 PUSH1 0x1 PUSH1 0xA0 SHL SUB DUP6 AND GAS STATICCALL SWAP9 DUP10 ISZERO PUSH2 0x794 JUMPI PUSH1 0x0 SWAP10 PUSH2 0x1A6F JUMPI JUMPDEST POP DUP9 PUSH2 0x19E7 JUMPI JUMPDEST POP PUSH1 0x0 SWAP7 PUSH1 0x0 SWAP9 ISZERO PUSH2 0x19CE JUMPI JUMPDEST PUSH1 0x1 PUSH1 0x1 PUSH1 0x80 SHL SUB DUP2 AND PUSH2 0x1854 JUMPI JUMPDEST POP PUSH1 0x20 PUSH2 0x15F6 SWAP2 PUSH2 0x15D1 PUSH1 0x24 CALLDATALOAD DUP3 CALLER PUSH2 0x312C JUMP JUMPDEST POP POP PUSH1 0x40 MLOAD PUSH4 0x852CD8D PUSH1 0xE3 SHL DUP4 DUP3 ADD MSTORE PUSH1 0x24 DUP1 CALLDATALOAD DUP2 DUP4 ADD MSTORE DUP2 MSTORE SWAP1 PUSH2 0x6A9 DUP3 PUSH2 0x1DD8 JUMP JUMPDEST SUB DUP2 PUSH1 0x0 CALLER GAS CALL SWAP1 DUP2 ISZERO PUSH2 0x794 JUMPI PUSH1 0x0 SWAP2 PUSH2 0x181A JUMPI JUMPDEST POP ISZERO PUSH2 0x17E7 JUMPI PUSH2 0x161F SWAP1 PUSH2 0x649 CALLER PUSH2 0x32FB JUMP JUMPDEST SWAP1 PUSH1 0x44 CALLDATALOAD PUSH2 0x1679 JUMPI JUMPDEST POP PUSH1 0x40 DUP1 MLOAD PUSH1 0x24 CALLDATALOAD DUP2 MSTORE PUSH1 0x20 DUP2 ADD SWAP7 SWAP1 SWAP7 MSTORE DUP6 ADD SWAP6 SWAP1 SWAP6 MSTORE PUSH1 0x60 DUP5 ADD SWAP2 SWAP1 SWAP2 MSTORE PUSH1 0x80 DUP4 ADD SWAP4 SWAP1 SWAP4 MSTORE POP PUSH1 0x1 PUSH1 0x1 PUSH1 0xA0 SHL SUB SWAP1 SWAP2 AND SWAP1 CALLER SWAP1 PUSH1 0x0 DUP1 MLOAD PUSH1 0x20 PUSH2 0x336A DUP4 CODECOPY DUP2 MLOAD SWAP2 MSTORE SWAP1 DUP1 PUSH1 0xA0 DUP2 ADD PUSH2 0x67C JUMP JUMPDEST PUSH1 0x40 MLOAD PUSH4 0x70A08231 PUSH1 0xE0 SHL DUP1 DUP3 MSTORE CALLER PUSH1 0x4 DUP4 ADD MSTORE PUSH1 0x1 PUSH1 0x1 PUSH1 0xA0 SHL SUB DUP8 AND PUSH1 0x20 DUP4 PUSH1 0x24 DUP2 DUP5 GAS STATICCALL SWAP3 DUP4 ISZERO PUSH2 0x794 JUMPI PUSH1 0x0 SWAP4 PUSH2 0x17B3 JUMPI JUMPDEST POP PUSH1 0x40 MLOAD SWAP2 DUP3 MSTORE CALLER PUSH1 0x4 DUP4 ADD MSTORE PUSH1 0x1 PUSH1 0x1 PUSH1 0xA0 SHL SUB DUP5 AND SWAP8 PUSH1 0x20 DUP4 PUSH1 0x24 DUP2 DUP13 GAS STATICCALL SWAP3 DUP4 ISZERO PUSH2 0x794 JUMPI PUSH1 0x0 SWAP4 PUSH2 0x1767 JUMPI JUMPDEST POP PUSH1 0x0 DUP1 MLOAD PUSH1 0x20 PUSH2 0x336A DUP4 CODECOPY DUP2 MLOAD SWAP2 MSTORE SWAP9 PUSH2 0x67C SWAP7 SWAP6 SWAP5 PUSH32 0x0 SWAP5 SWAP4 PUSH1 0x1 PUSH1 0x1 PUSH1 0xA0 SHL SUB DUP7 AND SWAP4 SWAP2 DUP7 SWAP2 DUP6 SWAP1 SUB PUSH2 0x1754 JUMPI JUMPDEST POP POP POP SUB PUSH2 0x1741 JUMPI JUMPDEST POP POP POP SWAP1 PUSH2 0x1628 JUMP JUMPDEST PUSH2 0x174B SWAP3 CALLER PUSH2 0x23CE JUMP JUMPDEST POP DUP8 DUP1 DUP1 PUSH2 0x1738 JUMP JUMPDEST PUSH2 0x175E SWAP3 CALLER PUSH2 0x23CE JUMP JUMPDEST POP DUP13 DUP5 DUP2 PUSH2 0x172F JUMP JUMPDEST SWAP6 SWAP5 SWAP4 SWAP3 POP SWAP1 PUSH1 0x20 DUP7 RETURNDATASIZE PUSH1 0x20 GT PUSH2 0x17AB JUMPI JUMPDEST DUP2 PUSH2 0x1786 PUSH1 0x20 SWAP4 DUP4 PUSH2 0x1DF4 JUMP JUMPDEST DUP2 ADD SUB SLT PUSH2 0x395 JUMPI SWAP5 MLOAD SWAP4 SWAP5 SWAP3 SWAP4 SWAP2 SWAP3 SWAP1 PUSH1 0x0 DUP1 MLOAD PUSH1 0x20 PUSH2 0x336A DUP4 CODECOPY DUP2 MLOAD SWAP2 MSTORE PUSH2 0x16DF JUMP JUMPDEST RETURNDATASIZE SWAP2 POP PUSH2 0x1779 JUMP JUMPDEST SWAP1 SWAP3 POP PUSH1 0x20 DUP2 RETURNDATASIZE PUSH1 0x20 GT PUSH2 0x17DF JUMPI JUMPDEST DUP2 PUSH2 0x17CF PUSH1 0x20 SWAP4 DUP4 PUSH2 0x1DF4 JUMP JUMPDEST DUP2 ADD SUB SLT PUSH2 0x395 JUMPI MLOAD SWAP2 DUP11 PUSH2 0x16AF JUMP JUMPDEST RETURNDATASIZE SWAP2 POP PUSH2 0x17C2 JUMP JUMPDEST PUSH1 0x40 MLOAD PUSH3 0x461BCD PUSH1 0xE5 SHL DUP2 MSTORE PUSH1 0x20 PUSH1 0x4 DUP3 ADD MSTORE PUSH1 0xB PUSH1 0x24 DUP3 ADD MSTORE PUSH11 0x109D5C9B8819985A5B1959 PUSH1 0xAA SHL PUSH1 0x44 DUP3 ADD MSTORE PUSH1 0x64 SWAP1 REVERT JUMPDEST SWAP1 POP PUSH1 0x20 DUP2 RETURNDATASIZE PUSH1 0x20 GT PUSH2 0x184C JUMPI JUMPDEST DUP2 PUSH2 0x1835 PUSH1 0x20 SWAP4 DUP4 PUSH2 0x1DF4 JUMP JUMPDEST DUP2 ADD SUB SLT PUSH2 0x395 JUMPI PUSH2 0x1846 SWAP1 PUSH2 0x209C JUMP JUMPDEST DUP9 PUSH2 0x160C JUMP JUMPDEST RETURNDATASIZE SWAP2 POP PUSH2 0x1828 JUMP JUMPDEST PUSH1 0x40 MLOAD SWAP1 DUP2 PUSH1 0xA0 DUP2 ADD LT PUSH8 0xFFFFFFFFFFFFFFFF PUSH1 0xA0 DUP5 ADD GT OR PUSH2 0x34F JUMPI PUSH1 0xA0 DUP3 ADD PUSH1 0x40 MSTORE PUSH1 0x24 CALLDATALOAD DUP3 MSTORE PUSH1 0x1 PUSH1 0x1 PUSH1 0x80 SHL SUB PUSH1 0x20 DUP4 ADD SWAP2 AND DUP2 MSTORE PUSH1 0x40 DUP3 ADD PUSH1 0x0 DUP2 MSTORE PUSH1 0x60 DUP4 ADD SWAP1 PUSH1 0x0 DUP3 MSTORE PUSH1 0x1 PUSH1 0x1 PUSH1 0x80 SHL SUB PUSH1 0x80 DUP6 ADD SWAP4 TIMESTAMP DUP6 MSTORE PUSH1 0x40 MLOAD SWAP6 PUSH4 0x624E65F PUSH1 0xE1 SHL PUSH1 0x20 DUP9 ADD MSTORE MLOAD PUSH1 0x24 DUP8 ADD MSTORE MLOAD AND PUSH1 0x44 DUP6 ADD MSTORE MLOAD PUSH1 0x64 DUP5 ADD MSTORE MLOAD PUSH1 0x84 DUP4 ADD MSTORE MLOAD PUSH1 0xA4 DUP3 ADD MSTORE PUSH1 0xA4 DUP2 MSTORE DUP1 PUSH1 0xE0 DUP2 ADD LT PUSH8 0xFFFFFFFFFFFFFFFF PUSH1 0xE0 DUP4 ADD GT OR PUSH2 0x34F JUMPI PUSH1 0xE0 DUP2 ADD PUSH1 0x40 DUP2 SWAP1 MSTORE PUSH4 0x468721A7 PUSH1 0xE0 SHL DUP2 MSTORE PUSH1 0x20 SWAP1 PUSH1 0xDF NOT DUP4 PUSH2 0x1923 DUP2 DUP8 PUSH1 0xE4 DUP3 ADD PUSH2 0x210E JUMP JUMPDEST SUB ADD PUSH1 0xE0 DUP5 ADD PUSH1 0x0 CALLER GAS CALL SWAP1 DUP2 ISZERO PUSH2 0x794 JUMPI PUSH1 0x0 SWAP2 PUSH2 0x198E JUMPI JUMPDEST POP ISZERO PUSH2 0x1949 JUMPI DUP9 PUSH2 0x15BD JUMP JUMPDEST PUSH1 0x40 MLOAD PUSH3 0x461BCD PUSH1 0xE5 SHL DUP2 MSTORE PUSH1 0x20 PUSH1 0x4 DUP3 ADD MSTORE PUSH1 0x19 PUSH1 0x24 DUP3 ADD MSTORE PUSH32 0x4465637265617365206C6971756964697479206661696C656400000000000000 PUSH1 0x44 DUP3 ADD MSTORE PUSH1 0x64 SWAP1 REVERT JUMPDEST SWAP1 POP PUSH1 0x20 DUP2 RETURNDATASIZE PUSH1 0x20 GT PUSH2 0x19C6 JUMPI JUMPDEST DUP2 PUSH2 0x19AC PUSH1 0x20 SWAP4 PUSH1 0xE0 DUP5 ADD PUSH2 0x1DF4 JUMP JUMPDEST DUP2 ADD SUB SLT PUSH2 0x395 JUMPI PUSH1 0xE0 PUSH2 0x19C0 SWAP2 ADD PUSH2 0x209C JUMP JUMPDEST DUP10 PUSH2 0x193D JUMP JUMPDEST RETURNDATASIZE SWAP2 POP PUSH2 0x199C JUMP JUMPDEST SWAP7 POP SWAP7 POP PUSH2 0x19DF PUSH1 0x24 CALLDATALOAD DUP9 CALLER PUSH2 0x312C JUMP JUMPDEST SWAP8 SWAP1 SWAP7 PUSH2 0x15AE JUMP JUMPDEST PUSH1 0x40 MLOAD PUSH4 0x3E491D47 PUSH1 0xE0 SHL DUP2 MSTORE CALLER PUSH1 0x4 DUP3 ADD MSTORE PUSH1 0x24 DUP1 CALLDATALOAD SWAP1 DUP3 ADD MSTORE SWAP1 SWAP6 POP PUSH1 0x20 DUP2 PUSH1 0x44 DUP2 PUSH1 0x1 PUSH1 0x1 PUSH1 0xA0 SHL SUB DUP11 AND GAS STATICCALL DUP1 ISZERO PUSH2 0x794 JUMPI PUSH1 0x0 SWAP1 PUSH2 0x1A3B JUMPI JUMPDEST PUSH2 0x1A35 SWAP2 POP SWAP6 PUSH1 0x24 CALLDATALOAD SWAP1 CALLER PUSH2 0x2183 JUMP JUMPDEST DUP9 PUSH2 0x15A1 JUMP JUMPDEST POP PUSH1 0x20 DUP2 RETURNDATASIZE PUSH1 0x20 GT PUSH2 0x1A67 JUMPI JUMPDEST DUP2 PUSH2 0x1A55 PUSH1 0x20 SWAP4 DUP4 PUSH2 0x1DF4 JUMP JUMPDEST DUP2 ADD SUB SLT PUSH2 0x395 JUMPI PUSH2 0x1A35 SWAP1 MLOAD PUSH2 0x1A25 JUMP JUMPDEST RETURNDATASIZE SWAP2 POP PUSH2 0x1A48 JUMP JUMPDEST SWAP1 SWAP9 POP PUSH1 0x20 DUP2 RETURNDATASIZE PUSH1 0x20 GT PUSH2 0x1AA3 JUMPI JUMPDEST DUP2 PUSH2 0x1A8B PUSH1 0x20 SWAP4 DUP4 PUSH2 0x1DF4 JUMP JUMPDEST DUP2 ADD SUB SLT PUSH2 0x395 JUMPI PUSH2 0x1A9C SWAP1 PUSH2 0x209C JUMP JUMPDEST SWAP8 DUP10 PUSH2 0x159A JUMP JUMPDEST RETURNDATASIZE SWAP2 POP PUSH2 0x1A7E JUMP JUMPDEST SWAP1 SWAP8 POP PUSH1 0x20 DUP2 RETURNDATASIZE PUSH1 0x20 GT PUSH2 0x1ADF JUMPI JUMPDEST DUP2 PUSH2 0x1AC7 PUSH1 0x20 SWAP4 DUP4 PUSH2 0x1DF4 JUMP JUMPDEST DUP2 ADD SUB SLT PUSH2 0x395 JUMPI PUSH2 0x1AD8 SWAP1 PUSH2 0x2088 JUMP JUMPDEST SWAP7 DUP9 PUSH2 0x155C JUMP JUMPDEST RETURNDATASIZE SWAP2 POP PUSH2 0x1ABA JUMP JUMPDEST SWAP3 POP SWAP3 POP SWAP3 POP DUP2 DUP2 RETURNDATASIZE DUP4 GT PUSH2 0x1B9A JUMPI JUMPDEST PUSH2 0x1B01 DUP2 DUP4 PUSH2 0x1DF4 JUMP JUMPDEST DUP2 ADD SUB SLT PUSH2 0x395 JUMPI DUP1 MLOAD PUSH1 0x1 PUSH1 0x1 PUSH1 0x60 SHL SUB DUP2 AND SUB PUSH2 0x395 JUMPI PUSH2 0x1B26 PUSH1 0x20 DUP3 ADD PUSH2 0x2088 JUMP JUMPDEST POP PUSH2 0x1B33 PUSH1 0x40 DUP3 ADD PUSH2 0x2088 JUMP JUMPDEST SWAP1 PUSH2 0x1B40 PUSH1 0x60 DUP3 ADD PUSH2 0x2088 JUMP JUMPDEST SWAP2 PUSH2 0x1B4D PUSH1 0x80 DUP4 ADD PUSH2 0x310A JUMP JUMPDEST POP PUSH2 0x1B5A PUSH1 0xA0 DUP4 ADD PUSH2 0x310A JUMP JUMPDEST POP PUSH2 0x1B67 PUSH1 0xC0 DUP4 ADD PUSH2 0x310A JUMP JUMPDEST POP PUSH2 0x1B8F PUSH2 0x160 PUSH2 0x1B7A PUSH1 0xE0 DUP6 ADD PUSH2 0x3118 JUMP JUMPDEST SWAP4 PUSH2 0x1B88 PUSH2 0x140 DUP3 ADD PUSH2 0x3118 JUMP JUMPDEST POP ADD PUSH2 0x3118 JUMP JUMPDEST POP SWAP2 SWAP1 SWAP3 DUP6 DUP1 PUSH2 0x151D JUMP JUMPDEST POP RETURNDATASIZE PUSH2 0x1AF7 JUMP JUMPDEST SWAP1 SWAP2 POP PUSH1 0x20 DUP2 RETURNDATASIZE PUSH1 0x20 GT PUSH2 0x1BD5 JUMPI JUMPDEST DUP2 PUSH2 0x1BBD PUSH1 0x20 SWAP4 DUP4 PUSH2 0x1DF4 JUMP JUMPDEST DUP2 ADD SUB SLT PUSH2 0x395 JUMPI PUSH2 0x1BCE SWAP1 PUSH2 0x2088 JUMP JUMPDEST SWAP1 DUP3 PUSH2 0x14DC JUMP JUMPDEST RETURNDATASIZE SWAP2 POP PUSH2 0x1BB0 JUMP JUMPDEST CALLVALUE PUSH2 0x395 JUMPI PUSH1 0x20 DUP1 PUSH1 0x3 NOT CALLDATASIZE ADD SLT PUSH2 0x395 JUMPI PUSH8 0xFFFFFFFFFFFFFFFF PUSH1 0x4 CALLDATALOAD DUP2 DUP2 GT PUSH2 0x395 JUMPI CALLDATASIZE PUSH1 0x23 DUP3 ADD SLT ISZERO PUSH2 0x395 JUMPI DUP1 PUSH1 0x4 ADD CALLDATALOAD SWAP2 DUP3 GT PUSH2 0x395 JUMPI PUSH1 0x24 SWAP1 PUSH1 0x60 CALLDATASIZE DUP4 DUP3 DUP7 MUL DUP5 ADD ADD GT PUSH2 0x395 JUMPI PUSH2 0x1C33 PUSH2 0x1F04 JUMP JUMPDEST PUSH1 0x0 JUMPDEST DUP5 DUP2 LT PUSH2 0x1C3F JUMPI STOP JUMPDEST DUP1 DUP3 MUL DUP4 ADD DUP5 DUP2 ADD SWAP1 PUSH1 0x1 PUSH1 0x1 PUSH1 0xA0 SHL SUB PUSH2 0x1C5D DUP2 PUSH2 0x1C5 DUP6 PUSH2 0x1F6B JUMP JUMPDEST PUSH1 0x44 SWAP3 DUP4 DUP4 ADD SWAP3 PUSH2 0x1C71 DUP4 PUSH2 0x1E0 DUP7 PUSH2 0x1F6B JUMP JUMPDEST PUSH1 0x64 DUP1 SWAP2 ADD SWAP5 DUP4 PUSH2 0x1C81 DUP8 PUSH2 0x1F6B JUMP JUMPDEST AND ISZERO PUSH2 0x1D21 JUMPI POP POP SWAP1 DUP1 DUP1 PUSH2 0x1CF1 PUSH2 0x1CEB PUSH2 0x1CEB DUP9 SWAP8 SWAP7 DUP16 PUSH2 0x1CA5 PUSH1 0x1 SWAP13 SWAP12 PUSH2 0x1F6B JUMP JUMPDEST SWAP1 DUP7 PUSH2 0x1CB0 DUP5 PUSH2 0x1F6B JUMP JUMPDEST AND PUSH1 0x0 MSTORE PUSH1 0x7 DUP2 MSTORE PUSH1 0x40 PUSH1 0x0 KECCAK256 SWAP1 DUP8 PUSH2 0x1CC8 DUP13 PUSH2 0x1F6B JUMP JUMPDEST AND PUSH1 0x0 MSTORE MSTORE DUP6 PUSH1 0x40 PUSH1 0x0 KECCAK256 SWAP2 AND PUSH1 0x1 PUSH1 0x1 PUSH1 0x60 SHL SUB PUSH1 0xA0 SHL DUP3 SLOAD AND OR SWAP1 SSTORE PUSH2 0x1F6B JUMP JUMPDEST SWAP6 PUSH2 0x1F6B JUMP JUMPDEST AND SWAP4 AND SWAP2 AND PUSH32 0x749F8BD52D751FB993FA16283117F0242F19E5471F5CB26F1185D1028CD803E5 PUSH1 0x0 DUP1 LOG4 ADD PUSH2 0x1C36 JUMP JUMPDEST PUSH18 0x125B9D985B1A59081C1C9A58D94819995959 PUSH1 0x72 SHL DUP13 SWAP2 PUSH1 0x12 DUP13 PUSH1 0x40 MLOAD SWAP5 PUSH3 0x461BCD PUSH1 0xE5 SHL DUP7 MSTORE PUSH1 0x4 DUP7 ADD MSTORE DUP5 ADD MSTORE DUP3 ADD MSTORE REVERT JUMPDEST PUSH1 0x4 CALLDATALOAD SWAP1 PUSH1 0x1 PUSH1 0x1 PUSH1 0xA0 SHL SUB DUP3 AND DUP3 SUB PUSH2 0x395 JUMPI JUMP JUMPDEST PUSH1 0x24 CALLDATALOAD SWAP1 PUSH1 0x1 PUSH1 0x1 PUSH1 0xA0 SHL SUB DUP3 AND DUP3 SUB PUSH2 0x395 JUMPI JUMP JUMPDEST SWAP1 PUSH1 0x1 DUP3 DUP2 SHR SWAP3 AND DUP1 ISZERO PUSH2 0x1DB2 JUMPI JUMPDEST PUSH1 0x20 DUP4 LT EQ PUSH2 0x1D9C JUMPI JUMP JUMPDEST PUSH4 0x4E487B71 PUSH1 0xE0 SHL PUSH1 0x0 MSTORE PUSH1 0x22 PUSH1 0x4 MSTORE PUSH1 0x24 PUSH1 0x0 REVERT JUMPDEST SWAP2 PUSH1 0x7F AND SWAP2 PUSH2 0x1D91 JUMP JUMPDEST PUSH1 0x80 DUP2 ADD SWAP1 DUP2 LT PUSH8 0xFFFFFFFFFFFFFFFF DUP3 GT OR PUSH2 0x34F JUMPI PUSH1 0x40 MSTORE JUMP JUMPDEST PUSH1 0x60 DUP2 ADD SWAP1 DUP2 LT PUSH8 0xFFFFFFFFFFFFFFFF DUP3 GT OR PUSH2 0x34F JUMPI PUSH1 0x40 MSTORE JUMP JUMPDEST SWAP1 PUSH1 0x1F DUP1 NOT SWAP2 ADD AND DUP2 ADD SWAP1 DUP2 LT PUSH8 0xFFFFFFFFFFFFFFFF DUP3 GT OR PUSH2 0x34F JUMPI PUSH1 0x40 MSTORE JUMP JUMPDEST SWAP1 PUSH1 0x40 MLOAD SWAP2 DUP3 PUSH1 0x0 DUP3 SLOAD SWAP3 PUSH2 0x1E2A DUP5 PUSH2 0x1D82 JUMP JUMPDEST SWAP1 DUP2 DUP5 MSTORE PUSH1 0x1 SWAP5 DUP6 DUP2 AND SWAP1 DUP2 PUSH1 0x0 EQ PUSH2 0x1E99 JUMPI POP PUSH1 0x1 EQ PUSH2 0x1E56 JUMPI JUMPDEST POP POP PUSH2 0x1E54 SWAP3 POP SUB DUP4 PUSH2 0x1DF4 JUMP JUMPDEST JUMP JUMPDEST SWAP1 SWAP4 SWAP2 POP PUSH1 0x0 MSTORE PUSH1 0x20 SWAP1 DUP2 PUSH1 0x0 KECCAK256 SWAP4 PUSH1 0x0 SWAP2 JUMPDEST DUP2 DUP4 LT PUSH2 0x1E81 JUMPI POP POP PUSH2 0x1E54 SWAP4 POP DUP3 ADD ADD CODESIZE DUP1 PUSH2 0x1E46 JUMP JUMPDEST DUP6 SLOAD DUP9 DUP5 ADD DUP6 ADD MSTORE SWAP5 DUP6 ADD SWAP5 DUP8 SWAP5 POP SWAP2 DUP4 ADD SWAP2 PUSH2 0x1E69 JUMP JUMPDEST SWAP2 POP POP PUSH2 0x1E54 SWAP5 POP PUSH1 0x20 SWAP3 POP PUSH1 0xFF NOT AND DUP3 DUP5 ADD MSTORE ISZERO ISZERO PUSH1 0x5 SHL DUP3 ADD ADD CODESIZE DUP1 PUSH2 0x1E46 JUMP JUMPDEST PUSH1 0x0 JUMPDEST DUP4 DUP2 LT PUSH2 0x1ECF JUMPI POP POP PUSH1 0x0 SWAP2 ADD MSTORE JUMP JUMPDEST DUP2 DUP2 ADD MLOAD DUP4 DUP3 ADD MSTORE PUSH1 0x20 ADD PUSH2 0x1EBF JUMP JUMPDEST SWAP1 PUSH1 0x20 SWAP2 PUSH2 0x1EF8 DUP2 MLOAD DUP1 SWAP3 DUP2 DUP6 MSTORE DUP6 DUP1 DUP7 ADD SWAP2 ADD PUSH2 0x1EBC JUMP JUMPDEST PUSH1 0x1F ADD PUSH1 0x1F NOT AND ADD ADD SWAP1 JUMP JUMPDEST PUSH1 0x0 SLOAD PUSH1 0x1 PUSH1 0x1 PUSH1 0xA0 SHL SUB AND CALLER SUB PUSH2 0x1F18 JUMPI JUMP JUMPDEST PUSH1 0x40 MLOAD PUSH4 0x118CDAA7 PUSH1 0xE0 SHL DUP2 MSTORE CALLER PUSH1 0x4 DUP3 ADD MSTORE PUSH1 0x24 SWAP1 REVERT JUMPDEST ISZERO PUSH2 0x1F37 JUMPI JUMP JUMPDEST PUSH1 0x40 MLOAD PUSH3 0x461BCD PUSH1 0xE5 SHL DUP2 MSTORE PUSH1 0x20 PUSH1 0x4 DUP3 ADD MSTORE PUSH1 0xC PUSH1 0x24 DUP3 ADD MSTORE PUSH12 0x125B9D985B1A59081C1BDBDB PUSH1 0xA2 SHL PUSH1 0x44 DUP3 ADD MSTORE PUSH1 0x64 SWAP1 REVERT JUMPDEST CALLDATALOAD PUSH1 0x1 PUSH1 0x1 PUSH1 0xA0 SHL SUB DUP2 AND DUP2 SUB PUSH2 0x395 JUMPI SWAP1 JUMP JUMPDEST ISZERO PUSH2 0x1F86 JUMPI JUMP JUMPDEST PUSH1 0x40 MLOAD PUSH3 0x461BCD PUSH1 0xE5 SHL DUP2 MSTORE PUSH1 0x20 PUSH1 0x4 DUP3 ADD MSTORE PUSH1 0x12 PUSH1 0x24 DUP3 ADD MSTORE PUSH18 0x24B73B30B634B210333937B6903A37B5B2B7 PUSH1 0x71 SHL PUSH1 0x44 DUP3 ADD MSTORE PUSH1 0x64 SWAP1 REVERT JUMPDEST ISZERO PUSH2 0x1FC7 JUMPI JUMP JUMPDEST PUSH1 0x40 MLOAD PUSH3 0x461BCD PUSH1 0xE5 SHL DUP2 MSTORE PUSH1 0x20 PUSH1 0x4 DUP3 ADD MSTORE PUSH1 0x10 PUSH1 0x24 DUP3 ADD MSTORE PUSH16 0x24B73B30B634B2103A37903A37B5B2B7 PUSH1 0x81 SHL PUSH1 0x44 DUP3 ADD MSTORE PUSH1 0x64 SWAP1 REVERT JUMPDEST SWAP1 CALLDATALOAD SWAP1 PUSH1 0x1E NOT DUP2 CALLDATASIZE SUB ADD DUP3 SLT ISZERO PUSH2 0x395 JUMPI ADD DUP1 CALLDATALOAD SWAP1 PUSH8 0xFFFFFFFFFFFFFFFF DUP3 GT PUSH2 0x395 JUMPI PUSH1 0x20 ADD SWAP2 DUP2 CALLDATASIZE SUB DUP4 SGT PUSH2 0x395 JUMPI JUMP JUMPDEST ISZERO PUSH2 0x2039 JUMPI JUMP JUMPDEST PUSH1 0x40 MLOAD PUSH3 0x461BCD PUSH1 0xE5 SHL DUP2 MSTORE PUSH1 0x20 PUSH1 0x4 DUP3 ADD MSTORE PUSH1 0x21 PUSH1 0x24 DUP3 ADD MSTORE PUSH32 0x506F6F6C206E6F7420617070726F76656420666F722074686973206D6F64756C PUSH1 0x44 DUP3 ADD MSTORE PUSH1 0x65 PUSH1 0xF8 SHL PUSH1 0x64 DUP3 ADD MSTORE PUSH1 0x84 SWAP1 REVERT JUMPDEST MLOAD SWAP1 PUSH1 0x1 PUSH1 0x1 PUSH1 0xA0 SHL SUB DUP3 AND DUP3 SUB PUSH2 0x395 JUMPI JUMP JUMPDEST MLOAD SWAP1 DUP2 ISZERO ISZERO DUP3 SUB PUSH2 0x395 JUMPI JUMP JUMPDEST ISZERO PUSH2 0x20B0 JUMPI JUMP JUMPDEST PUSH1 0x40 MLOAD PUSH3 0x461BCD PUSH1 0xE5 SHL DUP2 MSTORE PUSH1 0x20 PUSH1 0x4 DUP3 ADD MSTORE PUSH1 0x13 PUSH1 0x24 DUP3 ADD MSTORE PUSH19 0x141BDCDA5D1A5BDB881B9BDD081CDD185AD959 PUSH1 0x6A SHL PUSH1 0x44 DUP3 ADD MSTORE PUSH1 0x64 SWAP1 REVERT JUMPDEST SWAP2 SWAP1 DUP3 SUB SWAP2 DUP3 GT PUSH2 0x20F8 JUMPI JUMP JUMPDEST PUSH4 0x4E487B71 PUSH1 0xE0 SHL PUSH1 0x0 MSTORE PUSH1 0x11 PUSH1 0x4 MSTORE PUSH1 0x24 PUSH1 0x0 REVERT JUMPDEST SWAP3 SWAP2 PUSH2 0x213A PUSH1 0x60 SWAP2 PUSH1 0x0 SWAP4 PUSH1 0x1 DUP1 PUSH1 0xA0 SHL SUB AND DUP7 MSTORE DUP4 PUSH1 0x20 DUP8 ADD MSTORE PUSH1 0x80 PUSH1 0x40 DUP8 ADD MSTORE PUSH1 0x80 DUP7 ADD SWAP1 PUSH2 0x1EDF JUMP JUMPDEST SWAP4 ADD MSTORE JUMP JUMPDEST ISZERO PUSH2 0x2146 JUMPI JUMP JUMPDEST PUSH1 0x40 MLOAD PUSH3 0x461BCD PUSH1 0xE5 SHL DUP2 MSTORE PUSH1 0x20 PUSH1 0x4 DUP3 ADD MSTORE PUSH1 0x15 PUSH1 0x24 DUP3 ADD MSTORE PUSH21 0x14DDD85C081D1BC81CDD18589B194819985A5B1959 PUSH1 0x5A SHL PUSH1 0x44 DUP3 ADD MSTORE PUSH1 0x64 SWAP1 REVERT JUMPDEST SWAP2 PUSH1 0x1 PUSH1 0x1 PUSH1 0xA0 SHL SUB SWAP2 DUP1 DUP4 AND SWAP2 DUP3 ISZERO PUSH2 0x2399 JUMPI PUSH1 0x40 DUP1 MLOAD PUSH4 0xC69DEEC5 PUSH1 0xE0 SHL DUP2 MSTORE DUP6 DUP8 AND PUSH1 0x1 PUSH1 0x1 PUSH1 0xA0 SHL SUB DUP2 AND PUSH1 0x4 DUP4 ADD MSTORE PUSH1 0x24 DUP3 ADD DUP5 SWAP1 MSTORE PUSH1 0x20 SWAP5 SWAP3 SWAP4 SWAP3 SWAP1 SWAP2 DUP6 DUP2 PUSH1 0x44 DUP2 DUP11 GAS STATICCALL DUP1 ISZERO PUSH2 0x238E JUMPI PUSH1 0x0 SWAP1 PUSH2 0x2358 JUMPI JUMPDEST PUSH2 0x21E6 SWAP2 POP PUSH2 0x20A9 JUMP JUMPDEST DUP4 MLOAD PUSH4 0x3E491D47 PUSH1 0xE0 SHL DUP2 MSTORE PUSH1 0x1 PUSH1 0x1 PUSH1 0xA0 SHL SUB DUP4 AND PUSH1 0x4 DUP3 ADD MSTORE PUSH1 0x24 DUP2 ADD DUP5 SWAP1 MSTORE SWAP6 DUP6 SWAP1 DUP8 SWAP1 PUSH1 0x44 SWAP1 DUP3 SWAP1 GAS STATICCALL SWAP6 DUP7 ISZERO PUSH2 0x234D JUMPI PUSH1 0x0 SWAP7 PUSH2 0x231E JUMPI JUMPDEST POP SWAP2 DUP5 SWAP2 PUSH2 0x2269 SWAP4 DUP6 MLOAD SWAP3 PUSH4 0x2E1A7D4D PUSH1 0xE0 SHL DUP6 DUP6 ADD MSTORE PUSH1 0x24 DUP5 ADD MSTORE PUSH1 0x24 DUP4 MSTORE PUSH2 0x224C DUP4 PUSH2 0x1DD8 JUMP JUMPDEST PUSH1 0x0 DUP7 MLOAD DUP1 SWAP7 DUP2 SWAP6 DUP3 SWAP5 PUSH4 0x468721A7 PUSH1 0xE0 SHL DUP5 MSTORE PUSH1 0x4 DUP5 ADD PUSH2 0x210E JUMP JUMPDEST SUB SWAP3 GAS CALL SWAP1 DUP2 ISZERO PUSH2 0x2313 JUMPI PUSH1 0x0 SWAP2 PUSH2 0x22DB JUMPI JUMPDEST POP ISZERO PUSH2 0x22A0 JUMPI POP POP DUP1 PUSH2 0x228E JUMPI POP POP POP JUMP JUMPDEST PUSH2 0x1E54 SWAP3 PUSH2 0x70C SWAP3 PUSH1 0x1 SLOAD AND SWAP1 PUSH2 0x30D1 JUMP JUMPDEST PUSH1 0x64 SWAP3 POP MLOAD SWAP1 PUSH3 0x461BCD PUSH1 0xE5 SHL DUP3 MSTORE PUSH1 0x4 DUP3 ADD MSTORE PUSH1 0x15 PUSH1 0x24 DUP3 ADD MSTORE PUSH21 0x11D85D59D9481DDA5D1A191C985DC819985A5B1959 PUSH1 0x5A SHL PUSH1 0x44 DUP3 ADD MSTORE REVERT JUMPDEST SWAP1 DUP4 DUP3 DUP2 RETURNDATASIZE DUP4 GT PUSH2 0x230C JUMPI JUMPDEST PUSH2 0x22F1 DUP2 DUP4 PUSH2 0x1DF4 JUMP JUMPDEST DUP2 ADD SUB SLT PUSH2 0x2309 JUMPI POP PUSH2 0x2303 SWAP1 PUSH2 0x209C JUMP JUMPDEST CODESIZE PUSH2 0x227C JUMP JUMPDEST DUP1 REVERT JUMPDEST POP RETURNDATASIZE PUSH2 0x22E7 JUMP JUMPDEST DUP3 MLOAD RETURNDATASIZE PUSH1 0x0 DUP3 RETURNDATACOPY RETURNDATASIZE SWAP1 REVERT JUMPDEST SWAP1 SWAP6 DUP6 DUP3 DUP2 RETURNDATASIZE DUP4 GT PUSH2 0x2346 JUMPI JUMPDEST PUSH2 0x2335 DUP2 DUP4 PUSH2 0x1DF4 JUMP JUMPDEST DUP2 ADD SUB SLT PUSH2 0x2309 JUMPI POP MLOAD SWAP5 DUP5 PUSH2 0x2223 JUMP JUMPDEST POP RETURNDATASIZE PUSH2 0x232B JUMP JUMPDEST DUP5 MLOAD RETURNDATASIZE PUSH1 0x0 DUP3 RETURNDATACOPY RETURNDATASIZE SWAP1 REVERT JUMPDEST DUP7 DUP3 DUP2 RETURNDATASIZE DUP4 GT PUSH2 0x2387 JUMPI JUMPDEST PUSH2 0x236D DUP2 DUP4 PUSH2 0x1DF4 JUMP JUMPDEST DUP2 ADD SUB SLT PUSH2 0x2309 JUMPI POP PUSH2 0x2382 PUSH2 0x21E6 SWAP2 PUSH2 0x209C JUMP JUMPDEST PUSH2 0x21DC JUMP JUMPDEST POP RETURNDATASIZE PUSH2 0x2363 JUMP JUMPDEST DUP6 MLOAD RETURNDATASIZE PUSH1 0x0 DUP3 RETURNDATACOPY RETURNDATASIZE SWAP1 REVERT JUMPDEST PUSH1 0x40 MLOAD PUSH3 0x461BCD PUSH1 0xE5 SHL DUP2 MSTORE PUSH1 0x20 PUSH1 0x4 DUP3 ADD MSTORE PUSH1 0xD PUSH1 0x24 DUP3 ADD MSTORE PUSH13 0x496E76616C6964206761756765 PUSH1 0x98 SHL PUSH1 0x44 DUP3 ADD MSTORE PUSH1 0x64 SWAP1 REVERT JUMPDEST SWAP2 SWAP3 SWAP2 SWAP1 PUSH1 0x1 PUSH1 0x1 PUSH1 0xA0 SHL SUB SWAP1 DUP2 DUP2 AND PUSH2 0x29F0 JUMPI POP DUP4 CALLVALUE SUB PUSH2 0x2996 JUMPI PUSH1 0x40 MLOAD PUSH1 0x20 PUSH4 0xD0E30DB PUSH1 0xE4 SHL DUP2 DUP4 ADD MSTORE PUSH1 0x4 DUP3 MSTORE PUSH1 0x40 DUP3 ADD SWAP2 DUP1 DUP4 LT PUSH8 0xFFFFFFFFFFFFFFFF DUP5 GT OR PUSH2 0x34F JUMPI DUP3 PUSH1 0x40 MSTORE PUSH32 0x0 SWAP3 PUSH4 0x468721A7 PUSH1 0xE0 SHL DUP2 MSTORE DUP5 DUP5 AND PUSH1 0x44 DUP4 ADD MSTORE DUP8 PUSH1 0x64 DUP4 ADD MSTORE PUSH1 0x80 PUSH1 0x84 DUP4 ADD MSTORE PUSH2 0x2469 PUSH1 0xC4 DUP4 ADD DUP4 PUSH2 0x1EDF JUMP JUMPDEST DUP4 DUP3 PUSH1 0x0 SWAP3 DUP4 PUSH1 0xA4 DUP8 ADD MSTORE DUP6 PUSH1 0x3F NOT SWAP2 SUB ADD DUP2 DUP5 DUP11 DUP13 AND GAS CALL SWAP3 DUP4 ISZERO PUSH2 0x2989 JUMPI DUP5 SWAP1 DUP3 SWAP5 PUSH2 0x294F JUMPI JUMPDEST POP POP POP POP ISZERO PUSH2 0x2915 JUMPI POP JUMPDEST PUSH1 0x0 DUP3 DUP6 AND ISZERO PUSH2 0x28EA JUMPI JUMPDEST DUP3 DUP6 AND SWAP5 DUP4 DUP4 AND DUP7 DUP2 EQ PUSH2 0x28A5 JUMPI PUSH1 0x0 MSTORE PUSH1 0x20 SWAP7 PUSH1 0x6 DUP9 MSTORE PUSH1 0x40 SWAP7 DUP8 PUSH1 0x0 KECCAK256 SWAP1 PUSH1 0x0 MSTORE DUP9 MSTORE PUSH2 0x24D9 DUP8 PUSH1 0x0 KECCAK256 PUSH2 0x1E16 JUMP JUMPDEST SWAP2 DUP3 MLOAD ISZERO PUSH2 0x286D JUMPI PUSH1 0x3 SLOAD DUP9 MLOAD PUSH4 0x95EA7B3 PUSH1 0xE0 SHL DUP12 DUP3 ADD MSTORE SWAP1 DUP8 AND PUSH1 0x1 PUSH1 0x1 PUSH1 0xA0 SHL SUB AND PUSH1 0x24 DUP3 ADD MSTORE PUSH1 0x44 DUP1 DUP3 ADD DUP5 SWAP1 MSTORE DUP2 MSTORE SWAP7 DUP7 SWAP1 PUSH2 0x251B PUSH1 0x64 DUP11 PUSH2 0x1DF4 JUMP JUMPDEST AND SWAP5 DUP9 MLOAD DUP11 DUP2 DUP1 PUSH2 0x253B PUSH4 0x468721A7 PUSH1 0xE0 SHL SWAP13 DUP14 DUP4 MSTORE DUP7 PUSH1 0x4 DUP5 ADD PUSH2 0x210E JUMP JUMPDEST SUB DUP2 PUSH1 0x0 DUP12 GAS CALL SWAP1 DUP2 ISZERO PUSH2 0x2862 JUMPI PUSH1 0x0 SWAP2 PUSH2 0x282D JUMPI JUMPDEST POP ISZERO PUSH2 0x27F2 JUMPI PUSH2 0x25F4 SWAP4 DUP4 PUSH2 0x256E PUSH2 0x25BA SWAP5 DUP14 SWAP7 PUSH2 0x25DC SWAP6 PUSH2 0x2AD7 JUMP JUMPDEST DUP12 MLOAD SWAP3 PUSH2 0x257A DUP5 PUSH2 0x1DBC JUMP JUMPDEST DUP4 MSTORE DUP6 DUP4 ADD SWAP2 DUP10 DUP4 MSTORE DUP13 DUP5 ADD SWAP1 DUP2 MSTORE PUSH1 0x60 DUP5 ADD SWAP2 DUP3 MSTORE DUP11 DUP14 MLOAD SWAP7 DUP8 SWAP6 PUSH4 0xB858183F PUSH1 0xE0 SHL DUP11 DUP9 ADD MSTORE DUP10 PUSH1 0x24 DUP9 ADD MSTORE MLOAD PUSH1 0x80 PUSH1 0x44 DUP9 ADD MSTORE PUSH1 0xC4 DUP8 ADD SWAP1 PUSH2 0x1EDF JUMP JUMPDEST SWAP4 MLOAD AND PUSH1 0x64 DUP6 ADD MSTORE MLOAD PUSH1 0x84 DUP5 ADD MSTORE MLOAD PUSH1 0xA4 DUP4 ADD MSTORE SUB PUSH1 0x1F NOT DUP2 ADD DUP4 MSTORE DUP3 PUSH2 0x1DF4 JUMP JUMPDEST DUP6 PUSH1 0x3 SLOAD AND DUP9 MLOAD SWAP4 DUP5 SWAP3 DUP4 SWAP3 DUP11 DUP5 MSTORE PUSH1 0x4 DUP5 ADD PUSH2 0x210E JUMP JUMPDEST SUB DUP2 PUSH1 0x0 DUP8 GAS CALL SWAP1 DUP2 ISZERO PUSH2 0x27E7 JUMPI PUSH1 0x0 SWAP2 PUSH2 0x27B2 JUMPI JUMPDEST POP ISZERO PUSH2 0x2776 JUMPI PUSH2 0x261F JUMPI JUMPDEST POP POP POP POP POP PUSH1 0x1 SWAP1 JUMP JUMPDEST PUSH1 0x24 SWAP2 DUP6 PUSH32 0x0 SWAP2 DUP7 MLOAD SWAP5 DUP6 DUP1 SWAP3 PUSH4 0x70A08231 PUSH1 0xE0 SHL DUP3 MSTORE DUP7 PUSH1 0x4 DUP4 ADD MSTORE DUP6 AND GAS STATICCALL SWAP3 DUP4 ISZERO PUSH2 0x238E JUMPI SWAP1 DUP7 SWAP4 SWAP3 SWAP2 PUSH1 0x0 SWAP4 PUSH2 0x2741 JUMPI JUMPDEST POP PUSH1 0x0 PUSH2 0x26AF SWAP6 DUP8 MLOAD SWAP5 PUSH4 0x2E1A7D4D PUSH1 0xE0 SHL DUP8 DUP8 ADD MSTORE PUSH1 0x24 DUP7 ADD MSTORE PUSH1 0x24 DUP6 MSTORE PUSH2 0x269B DUP6 PUSH2 0x1DD8 JUMP JUMPDEST DUP8 MLOAD SWAP7 DUP8 SWAP6 DUP7 SWAP5 DUP6 SWAP4 DUP5 MSTORE PUSH1 0x4 DUP5 ADD PUSH2 0x210E JUMP JUMPDEST SUB SWAP3 GAS CALL SWAP1 DUP2 ISZERO PUSH2 0x2313 JUMPI PUSH1 0x0 SWAP2 PUSH2 0x270C JUMPI JUMPDEST POP ISZERO PUSH2 0x26D0 JUMPI DUP1 DUP1 DUP1 PUSH2 0x2615 JUMP JUMPDEST PUSH1 0x64 SWAP3 POP MLOAD SWAP1 PUSH3 0x461BCD PUSH1 0xE5 SHL DUP3 MSTORE PUSH1 0x4 DUP3 ADD MSTORE PUSH1 0x16 PUSH1 0x24 DUP3 ADD MSTORE PUSH22 0x15D15512081D5B9DDC985C1C1A5B99C819985A5B1959 PUSH1 0x52 SHL PUSH1 0x44 DUP3 ADD MSTORE REVERT JUMPDEST SWAP1 DUP4 DUP3 DUP2 RETURNDATASIZE DUP4 GT PUSH2 0x273A JUMPI JUMPDEST PUSH2 0x2722 DUP2 DUP4 PUSH2 0x1DF4 JUMP JUMPDEST DUP2 ADD SUB SLT PUSH2 0x2309 JUMPI POP PUSH2 0x2734 SWAP1 PUSH2 0x209C JUMP JUMPDEST CODESIZE PUSH2 0x26C2 JUMP JUMPDEST POP RETURNDATASIZE PUSH2 0x2718 JUMP JUMPDEST SWAP2 SWAP4 DUP3 DUP2 SWAP5 SWAP3 SWAP5 RETURNDATASIZE DUP4 GT PUSH2 0x276F JUMPI JUMPDEST PUSH2 0x275A DUP2 DUP4 PUSH2 0x1DF4 JUMP JUMPDEST DUP2 ADD SUB SLT PUSH2 0x2309 JUMPI POP MLOAD DUP6 SWAP3 SWAP1 SWAP2 PUSH1 0x0 PUSH2 0x2673 JUMP JUMPDEST POP RETURNDATASIZE PUSH2 0x2750 JUMP JUMPDEST DUP5 MLOAD PUSH3 0x461BCD PUSH1 0xE5 SHL DUP2 MSTORE PUSH1 0x4 DUP2 ADD DUP8 SWAP1 MSTORE PUSH1 0x15 PUSH1 0x24 DUP3 ADD MSTORE PUSH21 0x14DDD85C08195E1958DD5D1A5BDB8819985A5B1959 PUSH1 0x5A SHL PUSH1 0x44 DUP3 ADD MSTORE PUSH1 0x64 SWAP1 REVERT JUMPDEST SWAP1 DUP8 DUP3 DUP2 RETURNDATASIZE DUP4 GT PUSH2 0x27E0 JUMPI JUMPDEST PUSH2 0x27C8 DUP2 DUP4 PUSH2 0x1DF4 JUMP JUMPDEST DUP2 ADD SUB SLT PUSH2 0x2309 JUMPI POP PUSH2 0x27DA SWAP1 PUSH2 0x209C JUMP JUMPDEST CODESIZE PUSH2 0x260A JUMP JUMPDEST POP RETURNDATASIZE PUSH2 0x27BE JUMP JUMPDEST DUP7 MLOAD RETURNDATASIZE PUSH1 0x0 DUP3 RETURNDATACOPY RETURNDATASIZE SWAP1 REVERT JUMPDEST DUP9 MLOAD PUSH3 0x461BCD PUSH1 0xE5 SHL DUP2 MSTORE PUSH1 0x4 DUP2 ADD DUP12 SWAP1 MSTORE PUSH1 0x14 PUSH1 0x24 DUP3 ADD MSTORE PUSH20 0x151BDAD95B88185C1C1C9BDD994819985A5B1959 PUSH1 0x62 SHL PUSH1 0x44 DUP3 ADD MSTORE PUSH1 0x64 SWAP1 REVERT JUMPDEST SWAP1 DUP12 DUP3 DUP2 RETURNDATASIZE DUP4 GT PUSH2 0x285B JUMPI JUMPDEST PUSH2 0x2843 DUP2 DUP4 PUSH2 0x1DF4 JUMP JUMPDEST DUP2 ADD SUB SLT PUSH2 0x2309 JUMPI POP PUSH2 0x2855 SWAP1 PUSH2 0x209C JUMP JUMPDEST CODESIZE PUSH2 0x2551 JUMP JUMPDEST POP RETURNDATASIZE PUSH2 0x2839 JUMP JUMPDEST DUP11 MLOAD RETURNDATASIZE PUSH1 0x0 DUP3 RETURNDATACOPY RETURNDATASIZE SWAP1 REVERT JUMPDEST DUP8 MLOAD PUSH3 0x461BCD PUSH1 0xE5 SHL DUP2 MSTORE PUSH1 0x4 DUP2 ADD DUP11 SWAP1 MSTORE PUSH1 0x11 PUSH1 0x24 DUP3 ADD MSTORE PUSH17 0x14DDD85C081C185D1A081B9BDD081CD95D PUSH1 0x7A SHL PUSH1 0x44 DUP3 ADD MSTORE PUSH1 0x64 SWAP1 REVERT JUMPDEST PUSH1 0x40 MLOAD PUSH3 0x461BCD PUSH1 0xE5 SHL DUP2 MSTORE PUSH1 0x20 PUSH1 0x4 DUP3 ADD MSTORE PUSH1 0x19 PUSH1 0x24 DUP3 ADD MSTORE PUSH32 0x43616E6E6F74207377617020746F2073616D6520746F6B656E00000000000000 PUSH1 0x44 DUP3 ADD MSTORE PUSH1 0x64 SWAP1 REVERT JUMPDEST POP PUSH32 0x0 SWAP4 POP PUSH1 0x1 PUSH2 0x24A8 JUMP JUMPDEST PUSH1 0x64 SWAP1 PUSH1 0x40 MLOAD SWAP1 PUSH3 0x461BCD PUSH1 0xE5 SHL DUP3 MSTORE PUSH1 0x4 DUP3 ADD MSTORE PUSH1 0x13 PUSH1 0x24 DUP3 ADD MSTORE PUSH19 0x115512081DDC985C1C1A5B99C819985A5B1959 PUSH1 0x6A SHL PUSH1 0x44 DUP3 ADD MSTORE REVERT JUMPDEST SWAP1 DUP1 SWAP3 SWAP4 SWAP5 POP RETURNDATASIZE DUP4 GT PUSH2 0x2982 JUMPI JUMPDEST PUSH2 0x2967 DUP2 DUP7 PUSH2 0x1DF4 JUMP JUMPDEST DUP2 ADD SUB SLT PUSH2 0x2309 JUMPI POP PUSH2 0x2979 SWAP1 PUSH2 0x209C JUMP JUMPDEST CODESIZE DUP1 DUP4 DUP2 PUSH2 0x2492 JUMP JUMPDEST POP RETURNDATASIZE PUSH2 0x295D JUMP JUMPDEST POP PUSH1 0x40 MLOAD SWAP1 RETURNDATASIZE SWAP1 DUP3 RETURNDATACOPY RETURNDATASIZE SWAP1 REVERT JUMPDEST PUSH1 0x40 MLOAD PUSH3 0x461BCD PUSH1 0xE5 SHL DUP2 MSTORE PUSH1 0x20 PUSH1 0x4 DUP3 ADD MSTORE PUSH1 0x2C PUSH1 0x24 DUP3 ADD MSTORE PUSH32 0x4D73672E76616C7565206D75737420657175616C20616D6F756E74496E20666F PUSH1 0x44 DUP3 ADD MSTORE PUSH12 0xE440DCC2E8D2ECCA408AA89 PUSH1 0xA3 SHL PUSH1 0x64 DUP3 ADD MSTORE PUSH1 0x84 SWAP1 REVERT JUMPDEST CALLVALUE ISZERO PUSH2 0x249D JUMPI PUSH1 0x40 MLOAD PUSH3 0x461BCD PUSH1 0xE5 SHL DUP2 MSTORE PUSH1 0x20 PUSH1 0x4 DUP3 ADD MSTORE PUSH1 0x32 PUSH1 0x24 DUP3 ADD MSTORE PUSH32 0x4E6F204554482073686F756C642062652073656E74207768656E20746F6B656E PUSH1 0x44 DUP3 ADD MSTORE PUSH18 0x40D2E640DCDEE840DCC2E8D2ECCA408AA89 PUSH1 0x73 SHL PUSH1 0x64 DUP3 ADD MSTORE PUSH1 0x84 SWAP1 REVERT JUMPDEST SWAP1 DUP2 PUSH1 0x20 SWAP2 SUB SLT PUSH2 0x395 JUMPI MLOAD PUSH1 0xFF DUP2 AND DUP2 SUB PUSH2 0x395 JUMPI SWAP1 JUMP JUMPDEST DUP2 DUP2 MUL SWAP3 SWAP2 DUP2 ISZERO SWAP2 DUP5 DIV EQ OR ISZERO PUSH2 0x20F8 JUMPI JUMP JUMPDEST PUSH1 0xFF AND PUSH1 0x8 ADD SWAP1 PUSH1 0xFF DUP3 GT PUSH2 0x20F8 JUMPI JUMP JUMPDEST PUSH1 0xFF PUSH1 0x5 NOT SWAP2 AND ADD SWAP1 PUSH1 0xFF DUP3 GT PUSH2 0x20F8 JUMPI JUMP JUMPDEST PUSH1 0xFF AND PUSH1 0x4D DUP2 GT PUSH2 0x20F8 JUMPI PUSH1 0xA EXP SWAP1 JUMP JUMPDEST DUP2 ISZERO PUSH2 0x2AC1 JUMPI DIV SWAP1 JUMP JUMPDEST PUSH4 0x4E487B71 PUSH1 0xE0 SHL PUSH1 0x0 MSTORE PUSH1 0x12 PUSH1 0x4 MSTORE PUSH1 0x24 PUSH1 0x0 REVERT JUMPDEST PUSH1 0x1 PUSH1 0x1 PUSH1 0xA0 SHL SUB DUP1 DUP5 AND SWAP4 SWAP2 SWAP3 DUP2 DUP5 AND SWAP3 SWAP2 DUP4 DUP7 EQ PUSH2 0x2E2D JUMPI PUSH1 0x40 SWAP3 DUP4 MLOAD SWAP6 PUSH4 0x313CE567 PUSH1 0xE0 SHL SWAP6 DUP7 DUP9 MSTORE PUSH1 0x20 SWAP4 PUSH1 0x4 SWAP10 DUP6 DUP11 DUP13 DUP2 DUP7 GAS STATICCALL SWAP10 DUP11 ISZERO PUSH2 0x2E03 JUMPI PUSH1 0x0 SWAP11 PUSH2 0x2E0E JUMPI JUMPDEST POP DUP8 MLOAD SWAP9 DUP10 MSTORE DUP6 DUP10 DUP13 DUP2 DUP5 GAS STATICCALL SWAP9 DUP10 ISZERO PUSH2 0x2E03 JUMPI PUSH1 0x0 SWAP10 PUSH2 0x2DD4 JUMPI JUMPDEST POP DUP3 PUSH1 0x0 MSTORE PUSH1 0x7 DUP7 MSTORE DUP8 PUSH1 0x0 KECCAK256 DUP2 PUSH1 0x0 MSTORE DUP7 MSTORE DUP2 DUP9 PUSH1 0x0 KECCAK256 SLOAD AND SWAP3 PUSH1 0x7 DUP8 MSTORE DUP9 PUSH1 0x0 KECCAK256 DUP2 PUSH1 0x0 MSTORE DUP8 MSTORE DUP3 DUP10 PUSH1 0x0 KECCAK256 SLOAD AND PUSH1 0x0 SWAP5 ISZERO ISZERO PUSH1 0x0 EQ PUSH2 0x2C41 JUMPI POP POP POP POP POP SWAP1 PUSH2 0x2B86 SWAP2 PUSH2 0x2EFF JUMP JUMPDEST SWAP4 SWAP1 SWAP4 PUSH2 0x2BFE JUMPI POP POP PUSH2 0x2BB6 PUSH2 0x2BC7 SWAP5 SWAP4 PUSH2 0x2BB0 PUSH2 0x2BAA PUSH2 0x2BC1 SWAP6 PUSH2 0x2BBC SWAP6 PUSH2 0x2A6F JUMP JUMPDEST SWAP2 PUSH2 0x2AA6 JUMP JUMPDEST SWAP1 PUSH2 0x2A6F JUMP JUMPDEST SWAP3 PUSH2 0x2A82 JUMP JUMPDEST PUSH2 0x2AA6 JUMP JUMPDEST SWAP1 PUSH2 0x2AB7 JUMP JUMPDEST SWAP1 JUMPDEST DUP1 SLOAD SWAP2 PUSH2 0x2710 SWAP3 DUP4 SUB SWAP2 DUP4 DUP4 GT PUSH2 0x2BE9 JUMPI POP SWAP1 PUSH2 0x2BE5 SWAP2 PUSH2 0x2A6F JUMP JUMPDEST DIV SWAP1 JUMP JUMPDEST PUSH1 0x11 SWAP1 PUSH4 0x4E487B71 PUSH1 0xE0 SHL PUSH1 0x0 MSTORE MSTORE PUSH1 0x24 PUSH1 0x0 REVERT JUMPDEST MLOAD PUSH3 0x461BCD PUSH1 0xE5 SHL DUP2 MSTORE DUP1 DUP8 ADD SWAP2 SWAP1 SWAP2 MSTORE PUSH1 0x18 PUSH1 0x24 DUP3 ADD MSTORE PUSH32 0x556E657870656374656420696E76657273652070726963650000000000000000 PUSH1 0x44 DUP3 ADD MSTORE PUSH1 0x64 SWAP1 REVERT JUMPDEST ISZERO PUSH2 0x2CBB JUMPI POP POP POP POP SWAP1 PUSH2 0x2C54 SWAP2 PUSH2 0x2EFF JUMP JUMPDEST SWAP4 SWAP1 SWAP4 ISZERO PUSH2 0x2C7F JUMPI POP POP PUSH2 0x2BB6 PUSH2 0x2C79 SWAP5 SWAP4 PUSH2 0x2BB0 PUSH2 0x2BAA PUSH2 0x2BC1 SWAP6 PUSH2 0x2BBC SWAP6 PUSH2 0x2A6F JUMP JUMPDEST SWAP1 PUSH2 0x2BC9 JUMP JUMPDEST MLOAD PUSH3 0x461BCD PUSH1 0xE5 SHL DUP2 MSTORE DUP1 DUP8 ADD SWAP2 SWAP1 SWAP2 MSTORE PUSH1 0x16 PUSH1 0x24 DUP3 ADD MSTORE PUSH22 0x457870656374656420696E7665727365207072696365 PUSH1 0x50 SHL PUSH1 0x44 DUP3 ADD MSTORE PUSH1 0x64 SWAP1 REVERT JUMPDEST SWAP12 SWAP11 SWAP10 SWAP5 SWAP7 SWAP4 SWAP12 SWAP9 SWAP8 SWAP2 SWAP6 SWAP3 SWAP9 PUSH32 0x0 SWAP7 DUP8 AND DUP1 SWAP2 EQ ISZERO SWAP2 DUP3 PUSH2 0x2DC9 JUMPI JUMPDEST POP POP ISZERO PUSH2 0x2D90 JUMPI POP POP PUSH2 0x2D1E PUSH2 0x2D16 DUP5 PUSH6 0x5AF3107A4000 SWAP10 SWAP11 SWAP12 PUSH2 0x2EFF JUMP JUMPDEST SWAP6 SWAP1 SWAP5 PUSH2 0x2EFF JUMP JUMPDEST SWAP1 SWAP7 POP SWAP4 PUSH2 0x2D74 JUMPI PUSH2 0x2BBC PUSH2 0x2D42 PUSH2 0x2D3C PUSH2 0x2D47 SWAP6 PUSH2 0x2BC1 SWAP5 PUSH2 0x2A6F JUMP JUMPDEST SWAP4 PUSH2 0x2A82 JUMP JUMPDEST PUSH2 0x2A93 JUMP JUMPDEST SWAP1 JUMPDEST PUSH2 0x2D64 JUMPI PUSH2 0x2BAA PUSH2 0x2D5D SWAP4 PUSH2 0x2BB0 SWAP3 PUSH2 0x2A6F JUMP JUMPDEST DIV SWAP1 PUSH2 0x2BC9 JUMP JUMPDEST PUSH2 0x2BAA PUSH2 0x2D5D SWAP4 PUSH2 0x2BB0 SWAP3 PUSH2 0x2A6F JUMP JUMPDEST PUSH2 0x2BBC PUSH2 0x2D42 PUSH2 0x2D3C PUSH2 0x2D8A SWAP6 PUSH2 0x2BC1 SWAP5 PUSH2 0x2A6F JUMP JUMPDEST SWAP1 PUSH2 0x2D49 JUMP JUMPDEST MLOAD PUSH3 0x461BCD PUSH1 0xE5 SHL DUP2 MSTORE DUP1 DUP10 ADD SWAP2 SWAP1 SWAP2 MSTORE PUSH1 0x13 PUSH1 0x24 DUP3 ADD MSTORE PUSH19 0x9CDE40ECC2D8D2C840E0E4D2C6CA40E0C2E8D PUSH1 0x6B SHL PUSH1 0x44 DUP3 ADD MSTORE PUSH1 0x64 SWAP1 REVERT JUMPDEST EQ ISZERO SWAP1 POP CODESIZE DUP1 PUSH2 0x2CF7 JUMP JUMPDEST PUSH2 0x2DF5 SWAP2 SWAP10 POP DUP7 RETURNDATASIZE DUP9 GT PUSH2 0x2DFC JUMPI JUMPDEST PUSH2 0x2DED DUP2 DUP4 PUSH2 0x1DF4 JUMP JUMPDEST DUP2 ADD SWAP1 PUSH2 0x2A56 JUMP JUMPDEST SWAP8 CODESIZE PUSH2 0x2B3B JUMP JUMPDEST POP RETURNDATASIZE PUSH2 0x2DE3 JUMP JUMPDEST DUP9 MLOAD RETURNDATASIZE PUSH1 0x0 DUP3 RETURNDATACOPY RETURNDATASIZE SWAP1 REVERT JUMPDEST PUSH2 0x2E26 SWAP2 SWAP11 POP DUP7 RETURNDATASIZE DUP9 GT PUSH2 0x2DFC JUMPI PUSH2 0x2DED DUP2 DUP4 PUSH2 0x1DF4 JUMP JUMPDEST SWAP9 CODESIZE PUSH2 0x2B1F JUMP JUMPDEST POP SWAP4 POP POP POP POP SWAP1 JUMP JUMPDEST MLOAD SWAP1 PUSH10 0xFFFFFFFFFFFFFFFFFFFF DUP3 AND DUP3 SUB PUSH2 0x395 JUMPI JUMP JUMPDEST SWAP1 DUP2 PUSH1 0xA0 SWAP2 SUB SLT PUSH2 0x395 JUMPI PUSH2 0x2E61 DUP2 PUSH2 0x2E36 JUMP JUMPDEST SWAP2 PUSH1 0x20 DUP3 ADD MLOAD SWAP2 PUSH1 0x40 DUP2 ADD MLOAD SWAP2 PUSH2 0x2E7F PUSH1 0x80 PUSH1 0x60 DUP5 ADD MLOAD SWAP4 ADD PUSH2 0x2E36 JUMP JUMPDEST SWAP1 JUMP JUMPDEST ISZERO PUSH2 0x2E89 JUMPI JUMP JUMPDEST PUSH1 0x40 MLOAD PUSH3 0x461BCD PUSH1 0xE5 SHL DUP2 MSTORE PUSH1 0x20 PUSH1 0x4 DUP3 ADD MSTORE PUSH1 0xD PUSH1 0x24 DUP3 ADD MSTORE PUSH13 0x496E76616C6964207072696365 PUSH1 0x98 SHL PUSH1 0x44 DUP3 ADD MSTORE PUSH1 0x64 SWAP1 REVERT JUMPDEST ISZERO PUSH2 0x2EC5 JUMPI JUMP JUMPDEST PUSH1 0x40 MLOAD PUSH3 0x461BCD PUSH1 0xE5 SHL DUP2 MSTORE PUSH1 0x20 PUSH1 0x4 DUP3 ADD MSTORE PUSH1 0x12 PUSH1 0x24 DUP3 ADD MSTORE PUSH18 0x141C9A58D94819995959081D1BDBC81BDB19 PUSH1 0x72 SHL PUSH1 0x44 DUP3 ADD MSTORE PUSH1 0x64 SWAP1 REVERT JUMPDEST PUSH1 0x1 DUP1 PUSH1 0xA0 SHL SUB DUP1 SWAP2 AND SWAP1 PUSH1 0x0 SWAP2 DUP1 DUP4 MSTORE PUSH1 0x7 PUSH1 0x20 MSTORE PUSH1 0x40 SWAP4 DUP3 DUP6 DUP6 KECCAK256 SWAP2 AND SWAP1 DUP2 DUP6 MSTORE PUSH1 0x20 MSTORE DUP3 DUP6 DUP6 KECCAK256 SLOAD AND DUP1 PUSH2 0x304A JUMPI POP DUP4 MSTORE PUSH1 0x7 PUSH1 0x20 MSTORE DUP4 DUP4 KECCAK256 SWAP1 DUP4 MSTORE PUSH1 0x20 MSTORE DUP3 DUP3 KECCAK256 SLOAD AND DUP1 PUSH2 0x2F85 JUMPI DUP3 MLOAD PUSH3 0x461BCD PUSH1 0xE5 SHL DUP2 MSTORE PUSH1 0x20 PUSH1 0x4 DUP3 ADD MSTORE PUSH1 0x13 PUSH1 0x24 DUP3 ADD MSTORE PUSH19 0x139BC81C1C9A58D9481999595908199BDD5B99 PUSH1 0x6A SHL PUSH1 0x44 DUP3 ADD MSTORE PUSH1 0x64 SWAP1 REVERT JUMPDEST SWAP2 PUSH1 0xA0 PUSH1 0x4 SWAP4 DUP3 MLOAD SWAP5 DUP6 DUP1 SWAP3 PUSH4 0x3FABE5A3 PUSH1 0xE2 SHL DUP3 MSTORE GAS STATICCALL SWAP1 DUP2 ISZERO PUSH2 0x303F JUMPI POP DUP2 SWAP3 DUP3 SWAP2 PUSH2 0x2FFC JUMPI JUMPDEST POP PUSH3 0x15180 PUSH2 0x2FCB PUSH2 0x2FD2 SWAP3 PUSH2 0x2FC5 DUP6 DUP8 SGT PUSH2 0x2E82 JUMP JUMPDEST TIMESTAMP PUSH2 0x20EB JUMP JUMPDEST GT ISZERO PUSH2 0x2EBE JUMP JUMPDEST DUP2 ISZERO PUSH2 0x2FE8 JUMPI POP PUSH7 0x2386F26FC10000 DIV SWAP1 PUSH1 0x1 SWAP1 JUMP JUMPDEST PUSH4 0x4E487B71 PUSH1 0xE0 SHL DUP2 MSTORE PUSH1 0x12 PUSH1 0x4 MSTORE PUSH1 0x24 SWAP1 REVERT JUMPDEST PUSH2 0x2FCB SWAP4 POP PUSH2 0x2FD2 SWAP2 POP PUSH2 0x302A PUSH3 0x15180 SWAP2 PUSH1 0xA0 RETURNDATASIZE DUP2 GT PUSH2 0x3038 JUMPI JUMPDEST PUSH2 0x3022 DUP2 DUP4 PUSH2 0x1DF4 JUMP JUMPDEST DUP2 ADD SWAP1 PUSH2 0x2E4D JUMP JUMPDEST POP SWAP7 SWAP3 POP POP SWAP5 SWAP3 POP POP PUSH2 0x2FAE JUMP JUMPDEST POP RETURNDATASIZE PUSH2 0x3018 JUMP JUMPDEST MLOAD SWAP2 RETURNDATASIZE SWAP2 POP DUP3 RETURNDATACOPY RETURNDATASIZE SWAP1 REVERT JUMPDEST DUP6 MLOAD PUSH4 0x3FABE5A3 PUSH1 0xE2 SHL DUP2 MSTORE SWAP5 SWAP7 SWAP6 SWAP4 POP PUSH1 0xA0 SWAP3 POP DUP5 SWAP2 POP PUSH1 0x4 SWAP1 DUP3 SWAP1 GAS STATICCALL SWAP1 DUP2 ISZERO PUSH2 0x30C8 JUMPI POP DUP4 SWAP2 DUP5 SWAP2 PUSH2 0x3095 JUMPI JUMPDEST POP PUSH3 0x15180 PUSH2 0x2FCB PUSH2 0x3091 SWAP3 PUSH2 0x2FC5 DUP8 DUP7 SGT PUSH2 0x2E82 JUMP JUMPDEST SWAP2 SWAP1 JUMP JUMPDEST PUSH2 0x2FCB SWAP3 POP PUSH2 0x3091 SWAP2 POP PUSH2 0x30BA PUSH3 0x15180 SWAP2 PUSH1 0xA0 RETURNDATASIZE DUP2 GT PUSH2 0x3038 JUMPI PUSH2 0x3022 DUP2 DUP4 PUSH2 0x1DF4 JUMP JUMPDEST POP SWAP6 SWAP3 POP POP SWAP4 SWAP3 POP POP PUSH2 0x307A JUMP JUMPDEST MLOAD RETURNDATASIZE DUP6 DUP3 RETURNDATACOPY RETURNDATASIZE SWAP1 REVERT JUMPDEST SWAP2 DUP1 ISZERO PUSH2 0x3102 JUMPI PUSH1 0x2 SLOAD PUSH1 0x1 PUSH1 0x1 PUSH1 0xA0 SHL SUB SWAP1 DUP2 AND SWAP3 SWAP1 DUP2 AND DUP4 EQ PUSH2 0x30F9 JUMPI PUSH2 0x2E7F SWAP4 PUSH2 0x23CE JUMP JUMPDEST POP POP POP POP PUSH1 0x1 SWAP1 JUMP JUMPDEST POP POP POP PUSH1 0x1 SWAP1 JUMP JUMPDEST MLOAD SWAP1 DUP2 PUSH1 0x2 SIGNEXTEND DUP3 SUB PUSH2 0x395 JUMPI JUMP JUMPDEST MLOAD SWAP1 PUSH1 0x1 PUSH1 0x1 PUSH1 0x80 SHL SUB DUP3 AND DUP3 SUB PUSH2 0x395 JUMPI JUMP JUMPDEST PUSH1 0x40 DUP1 MLOAD SWAP4 SWAP1 SWAP3 PUSH1 0x1 PUSH1 0x1 PUSH1 0xA0 SHL SUB SWAP3 DUP4 AND SWAP2 PUSH2 0x3148 DUP7 PUSH2 0x1DBC JUMP JUMPDEST DUP6 MSTORE PUSH1 0x20 SWAP3 DUP4 DUP7 ADD DUP4 DUP2 MSTORE DUP6 DUP8 ADD SWAP2 PUSH1 0x1 PUSH1 0x1 PUSH1 0x80 SHL SUB SWAP3 DUP4 SWAP2 DUP3 DUP3 MSTORE PUSH1 0x60 DUP11 ADD SWAP4 DUP4 DUP6 MSTORE DUP10 MLOAD SWAP11 PUSH4 0xFC6F7865 PUSH1 0xE0 SHL DUP11 DUP14 ADD MSTORE MLOAD PUSH1 0x24 DUP13 ADD MSTORE MLOAD AND PUSH1 0x44 DUP11 ADD MSTORE MLOAD AND PUSH1 0x64 DUP9 ADD MSTORE MLOAD AND PUSH1 0x84 DUP7 ADD MSTORE PUSH1 0x84 DUP6 MSTORE PUSH1 0xC0 DUP6 ADD SWAP2 PUSH8 0xFFFFFFFFFFFFFFFF SWAP2 DUP7 DUP5 LT DUP4 DUP6 GT OR PUSH2 0x34F JUMPI DUP4 DUP1 SWAP3 DUP2 DUP9 MSTORE PUSH4 0x5229073F PUSH1 0xE0 SHL DUP3 MSTORE PUSH1 0x0 SWAP6 DUP7 DUP1 SWAP5 DUP12 PUSH2 0x31DD DUP2 PUSH1 0xBF NOT SWAP4 PUSH1 0xC4 DUP3 ADD PUSH2 0x210E JUMP JUMPDEST SUB ADD SWAP3 GAS CALL SWAP6 DUP7 ISZERO PUSH2 0x32F1 JUMPI DUP4 SWAP3 DUP5 SWAP8 PUSH2 0x3245 JUMPI JUMPDEST POP POP POP ISZERO PUSH2 0x3211 JUMPI DUP3 DUP5 DUP1 MLOAD DUP2 ADD SUB SLT PUSH2 0x2309 JUMPI POP DUP3 ADD MLOAD SWAP2 ADD MLOAD SWAP1 SWAP2 JUMP JUMPDEST POP PUSH1 0x64 SWAP2 MLOAD SWAP1 PUSH3 0x461BCD PUSH1 0xE5 SHL DUP3 MSTORE PUSH1 0x4 DUP3 ADD MSTORE PUSH1 0xE PUSH1 0x24 DUP3 ADD MSTORE PUSH14 0x10DBDB1B1958DD0819985A5B1959 PUSH1 0x92 SHL PUSH1 0x44 DUP3 ADD MSTORE REVERT JUMPDEST SWAP2 SWAP7 POP SWAP2 POP RETURNDATASIZE DUP1 DUP5 DUP9 RETURNDATACOPY PUSH2 0x3259 DUP2 DUP9 PUSH2 0x1DF4 JUMP JUMPDEST DUP3 ADD SWAP6 DUP6 DUP4 PUSH1 0xC0 DUP10 ADD SWAP9 SUB SLT PUSH2 0x32D5 JUMPI PUSH2 0x3272 SWAP1 PUSH2 0x209C JUMP JUMPDEST SWAP2 PUSH1 0xE0 DUP2 ADD MLOAD SWAP1 DUP3 DUP3 GT PUSH2 0x32ED JUMPI ADD DUP7 PUSH1 0xDF DUP3 ADD SLT ISZERO PUSH2 0x32D5 JUMPI PUSH1 0xC0 DUP2 ADD MLOAD SWAP2 DUP3 GT PUSH2 0x32D9 JUMPI DUP6 MLOAD SWAP7 PUSH2 0x32AE PUSH1 0x1F DUP5 ADD PUSH1 0x1F NOT AND DUP8 ADD DUP10 PUSH2 0x1DF4 JUMP JUMPDEST DUP3 DUP9 MSTORE PUSH1 0xE0 DUP4 DUP4 ADD ADD GT PUSH2 0x32D5 JUMPI SWAP1 PUSH2 0x32CD SWAP2 PUSH1 0xE0 DUP7 DUP10 ADD SWAP2 ADD PUSH2 0x1EBC JUMP JUMPDEST CODESIZE DUP1 DUP1 PUSH2 0x31F2 JUMP JUMPDEST DUP4 DUP1 REVERT JUMPDEST PUSH4 0x4E487B71 PUSH1 0xE0 SHL DUP5 MSTORE PUSH1 0x41 PUSH1 0x4 MSTORE PUSH1 0x24 DUP5 REVERT JUMPDEST DUP5 DUP1 REVERT JUMPDEST DUP6 MLOAD RETURNDATASIZE DUP6 DUP3 RETURNDATACOPY RETURNDATASIZE SWAP1 REVERT JUMPDEST PUSH1 0x2 SLOAD PUSH1 0x40 MLOAD PUSH4 0x70A08231 PUSH1 0xE0 SHL DUP2 MSTORE PUSH1 0x1 PUSH1 0x1 PUSH1 0xA0 SHL SUB SWAP3 DUP4 AND PUSH1 0x4 DUP3 ADD MSTORE SWAP2 PUSH1 0x20 SWAP2 DUP4 SWAP2 PUSH1 0x24 SWAP2 DUP4 SWAP2 AND GAS STATICCALL SWAP1 DUP2 ISZERO PUSH2 0x794 JUMPI PUSH1 0x0 SWAP2 PUSH2 0x333B JUMPI POP SWAP1 JUMP JUMPDEST SWAP1 PUSH1 0x20 DUP3 RETURNDATASIZE DUP3 GT PUSH2 0x3361 JUMPI JUMPDEST DUP2 PUSH2 0x3354 PUSH1 0x20 SWAP4 DUP4 PUSH2 0x1DF4 JUMP JUMPDEST DUP2 ADD SUB SLT PUSH2 0x2309 JUMPI POP MLOAD SWAP1 JUMP JUMPDEST RETURNDATASIZE SWAP2 POP PUSH2 0x3347 JUMP INVALID 0xC4 JUMPI 0xDA 0xBB SHR 0xD0 TIMESTAMP 0x2F 0x2D 0x4E 0xE0 0xE3 JUMPDEST 0xED 0x2D ORIGIN 0x4C DUP10 PUSH32 0xF52CA6D0033A86D6A43CE80502A26469706673582212204C3AF8828E5A5C150F SWAP6 0xC0 PUSH3 0x4080A2 0xE8 0xF7 RETURN 0xE0 0x5C 0xA7 0x26 0xA6 MSIZE 0xE5 0x49 PUSH26 0xD5EF7346F164736F6C6343000814003300000000000000000000 "
        },
        "methodIdentifiers": {
          "USDC()": "89a30271",
          "WETH()": "ad5c4648",
          "approvePool(address)": "424c265b",
          "approvedPools(address)": "f0bbcec4",
          "collectAndConvertFees(address,uint256)": "e6370309",
          "owner()": "8da5cb5b",
          "priceFeeds(address,address)": "f90c6906",
          "removePool(address)": "3b7d0946",
          "renounceOwnership()": "715018a6",
          "rewardStable()": "f2bf87e3",
          "rewardToken()": "f7c618c1",
          "setPriceFeeds((address,address,address)[])": "00b21190",
          "setRewardStable(address)": "c13d2f75",
          "setRewardToken(address)": "8aee8127",
          "setSlippageTolerance(uint256)": "117da1ee",
          "setSwapPaths((address,address,bytes)[])": "fb0b57b5",
          "slippageTolerance()": "d03153aa",
          "stakeAndCollect(address,uint256)": "31a8f1c9",
          "swap(address,uint256,address,bool)": "a7c1c38b",
          "swapPaths(address,address)": "4a6a749c",
          "swapRouter()": "c31c9c07",
          "transferOwnership(address)": "f2fde38b",
          "unstakeAndCollect(address,uint256)": "4bdc76cc",
          "withdrawAndCollect(address,uint256,bool)": "08e64f3d"
        }
      }
    }
  }
}