{
  "contracts/CholoDromeModule.sol": {
    "CholoDromeModule": {
      "abi": [
        {
          "inputs": [
            {
              "internalType": "address",
              "name": "_owner",
              "type": "address"
            },
            {
              "internalType": "address",
              "name": "_rewardToken",
              "type": "address"
            },
            {
              "internalType": "address",
              "name": "_rewardStable",
              "type": "address"
            },
            {
              "internalType": "address",
              "name": "_swapRouter",
              "type": "address"
            },
            {
              "internalType": "address",
              "name": "_usdc",
              "type": "address"
            }
          ],
          "stateMutability": "nonpayable",
          "type": "constructor"
        },
        {
          "inputs": [
            {
              "internalType": "address",
              "name": "owner",
              "type": "address"
            }
          ],
          "name": "OwnableInvalidOwner",
          "type": "error"
        },
        {
          "inputs": [
            {
              "internalType": "address",
              "name": "account",
              "type": "address"
            }
          ],
          "name": "OwnableUnauthorizedAccount",
          "type": "error"
        },
        {
          "anonymous": false,
          "inputs": [
            {
              "indexed": true,
              "internalType": "address",
              "name": "safe",
              "type": "address"
            },
            {
              "indexed": true,
              "internalType": "address",
              "name": "pool",
              "type": "address"
            },
            {
              "indexed": false,
              "internalType": "uint256",
              "name": "tokenId",
              "type": "uint256"
            },
            {
              "indexed": false,
              "internalType": "uint256",
              "name": "amount0",
              "type": "uint256"
            },
            {
              "indexed": false,
              "internalType": "uint256",
              "name": "amount1",
              "type": "uint256"
            },
            {
              "indexed": false,
              "internalType": "uint256",
              "name": "veloAmount",
              "type": "uint256"
            },
            {
              "indexed": false,
              "internalType": "uint256",
              "name": "totalUsdtAmount",
              "type": "uint256"
            }
          ],
          "name": "EarningsCollected",
          "type": "event"
        },
        {
          "anonymous": false,
          "inputs": [
            {
              "indexed": true,
              "internalType": "address",
              "name": "previousOwner",
              "type": "address"
            },
            {
              "indexed": true,
              "internalType": "address",
              "name": "newOwner",
              "type": "address"
            }
          ],
          "name": "OwnershipTransferred",
          "type": "event"
        },
        {
          "anonymous": false,
          "inputs": [
            {
              "indexed": true,
              "internalType": "address",
              "name": "safe",
              "type": "address"
            },
            {
              "indexed": true,
              "internalType": "address",
              "name": "pool",
              "type": "address"
            }
          ],
          "name": "PoolApproved",
          "type": "event"
        },
        {
          "anonymous": false,
          "inputs": [
            {
              "indexed": true,
              "internalType": "address",
              "name": "safe",
              "type": "address"
            },
            {
              "indexed": true,
              "internalType": "address",
              "name": "pool",
              "type": "address"
            }
          ],
          "name": "PoolRemoved",
          "type": "event"
        },
        {
          "anonymous": false,
          "inputs": [
            {
              "indexed": true,
              "internalType": "address",
              "name": "fromToken",
              "type": "address"
            },
            {
              "indexed": true,
              "internalType": "address",
              "name": "toToken",
              "type": "address"
            },
            {
              "indexed": true,
              "internalType": "address",
              "name": "priceFeed",
              "type": "address"
            }
          ],
          "name": "PriceFeedUpdated",
          "type": "event"
        },
        {
          "anonymous": false,
          "inputs": [
            {
              "indexed": true,
              "internalType": "address",
              "name": "oldStable",
              "type": "address"
            },
            {
              "indexed": true,
              "internalType": "address",
              "name": "newStable",
              "type": "address"
            }
          ],
          "name": "RewardStableUpdated",
          "type": "event"
        },
        {
          "anonymous": false,
          "inputs": [
            {
              "indexed": true,
              "internalType": "address",
              "name": "oldToken",
              "type": "address"
            },
            {
              "indexed": true,
              "internalType": "address",
              "name": "newToken",
              "type": "address"
            }
          ],
          "name": "RewardTokenUpdated",
          "type": "event"
        },
        {
          "anonymous": false,
          "inputs": [
            {
              "indexed": false,
              "internalType": "uint256",
              "name": "oldTolerance",
              "type": "uint256"
            },
            {
              "indexed": false,
              "internalType": "uint256",
              "name": "newTolerance",
              "type": "uint256"
            }
          ],
          "name": "SlippageToleranceUpdated",
          "type": "event"
        },
        {
          "inputs": [],
          "name": "USDC",
          "outputs": [
            {
              "internalType": "address",
              "name": "",
              "type": "address"
            }
          ],
          "stateMutability": "view",
          "type": "function"
        },
        {
          "inputs": [
            {
              "internalType": "address",
              "name": "pool",
              "type": "address"
            }
          ],
          "name": "approvePool",
          "outputs": [],
          "stateMutability": "nonpayable",
          "type": "function"
        },
        {
          "inputs": [
            {
              "internalType": "address",
              "name": "",
              "type": "address"
            }
          ],
          "name": "approvedPools",
          "outputs": [
            {
              "internalType": "bool",
              "name": "",
              "type": "bool"
            }
          ],
          "stateMutability": "view",
          "type": "function"
        },
        {
          "inputs": [
            {
              "internalType": "address",
              "name": "pool",
              "type": "address"
            },
            {
              "internalType": "uint256",
              "name": "tokenId",
              "type": "uint256"
            }
          ],
          "name": "collectAndConvertFees",
          "outputs": [],
          "stateMutability": "nonpayable",
          "type": "function"
        },
        {
          "inputs": [],
          "name": "owner",
          "outputs": [
            {
              "internalType": "address",
              "name": "",
              "type": "address"
            }
          ],
          "stateMutability": "view",
          "type": "function"
        },
        {
          "inputs": [
            {
              "internalType": "address",
              "name": "",
              "type": "address"
            },
            {
              "internalType": "address",
              "name": "",
              "type": "address"
            }
          ],
          "name": "priceFeeds",
          "outputs": [
            {
              "internalType": "address",
              "name": "",
              "type": "address"
            }
          ],
          "stateMutability": "view",
          "type": "function"
        },
        {
          "inputs": [
            {
              "internalType": "address",
              "name": "pool",
              "type": "address"
            }
          ],
          "name": "removePool",
          "outputs": [],
          "stateMutability": "nonpayable",
          "type": "function"
        },
        {
          "inputs": [],
          "name": "renounceOwnership",
          "outputs": [],
          "stateMutability": "nonpayable",
          "type": "function"
        },
        {
          "inputs": [],
          "name": "rewardStable",
          "outputs": [
            {
              "internalType": "address",
              "name": "",
              "type": "address"
            }
          ],
          "stateMutability": "view",
          "type": "function"
        },
        {
          "inputs": [],
          "name": "rewardToken",
          "outputs": [
            {
              "internalType": "address",
              "name": "",
              "type": "address"
            }
          ],
          "stateMutability": "view",
          "type": "function"
        },
        {
          "inputs": [
            {
              "internalType": "address",
              "name": "fromToken",
              "type": "address"
            },
            {
              "internalType": "address",
              "name": "toToken",
              "type": "address"
            },
            {
              "internalType": "address",
              "name": "priceFeed",
              "type": "address"
            }
          ],
          "name": "setPriceFeed",
          "outputs": [],
          "stateMutability": "nonpayable",
          "type": "function"
        },
        {
          "inputs": [
            {
              "internalType": "address",
              "name": "_newRewardStable",
              "type": "address"
            }
          ],
          "name": "setRewardStable",
          "outputs": [],
          "stateMutability": "nonpayable",
          "type": "function"
        },
        {
          "inputs": [
            {
              "internalType": "address",
              "name": "_newRewardToken",
              "type": "address"
            }
          ],
          "name": "setRewardToken",
          "outputs": [],
          "stateMutability": "nonpayable",
          "type": "function"
        },
        {
          "inputs": [
            {
              "internalType": "uint256",
              "name": "_slippageTolerance",
              "type": "uint256"
            }
          ],
          "name": "setSlippageTolerance",
          "outputs": [],
          "stateMutability": "nonpayable",
          "type": "function"
        },
        {
          "inputs": [
            {
              "internalType": "address",
              "name": "fromToken",
              "type": "address"
            },
            {
              "internalType": "address",
              "name": "toToken",
              "type": "address"
            },
            {
              "internalType": "bytes",
              "name": "path",
              "type": "bytes"
            }
          ],
          "name": "setSwapPath",
          "outputs": [],
          "stateMutability": "nonpayable",
          "type": "function"
        },
        {
          "inputs": [],
          "name": "slippageTolerance",
          "outputs": [
            {
              "internalType": "uint256",
              "name": "",
              "type": "uint256"
            }
          ],
          "stateMutability": "view",
          "type": "function"
        },
        {
          "inputs": [
            {
              "internalType": "address",
              "name": "pool",
              "type": "address"
            },
            {
              "internalType": "uint256",
              "name": "tokenId",
              "type": "uint256"
            }
          ],
          "name": "stakeAndCollect",
          "outputs": [],
          "stateMutability": "nonpayable",
          "type": "function"
        },
        {
          "inputs": [
            {
              "internalType": "address",
              "name": "",
              "type": "address"
            },
            {
              "internalType": "address",
              "name": "",
              "type": "address"
            }
          ],
          "name": "swapPaths",
          "outputs": [
            {
              "internalType": "bytes",
              "name": "",
              "type": "bytes"
            }
          ],
          "stateMutability": "view",
          "type": "function"
        },
        {
          "inputs": [],
          "name": "swapRouter",
          "outputs": [
            {
              "internalType": "address",
              "name": "",
              "type": "address"
            }
          ],
          "stateMutability": "view",
          "type": "function"
        },
        {
          "inputs": [
            {
              "internalType": "address",
              "name": "newOwner",
              "type": "address"
            }
          ],
          "name": "transferOwnership",
          "outputs": [],
          "stateMutability": "nonpayable",
          "type": "function"
        },
        {
          "inputs": [
            {
              "internalType": "address",
              "name": "pool",
              "type": "address"
            },
            {
              "internalType": "uint256",
              "name": "tokenId",
              "type": "uint256"
            }
          ],
          "name": "unstakeAndCollect",
          "outputs": [],
          "stateMutability": "nonpayable",
          "type": "function"
        },
        {
          "inputs": [
            {
              "internalType": "address",
              "name": "pool",
              "type": "address"
            },
            {
              "internalType": "uint256",
              "name": "tokenId",
              "type": "uint256"
            }
          ],
          "name": "withdrawAndCollect",
          "outputs": [],
          "stateMutability": "nonpayable",
          "type": "function"
        }
      ],
      "evm": {
        "bytecode": {
          "linkReferences": {},
          "object": "60a0346200026b57601f62002d9b38819003918201601f191683019291906001600160401b0384118385101762000270578160a092849260409687528339810103126200026b57620000518162000286565b6200005f6020830162000286565b6200006c84840162000286565b92620000896080620000816060840162000286565b920162000286565b936001600160a01b039384169283156200025357600080546001600160a01b0319808216871783559587939290918416907f8be0079c531659141344cd1fd0a4f28419497f9722a3daafe3b4186f6b6457e09080a36032600455169081156200020f578416918215620001cb57841693841562000187578516156200014357826001541617600155816002541617600255600354161760035560805251612aff90816200029c8239608051818181610e4b01526123a10152f35b855162461bcd60e51b815260206004820152601460248201527f496e76616c6964205553444320616464726573730000000000000000000000006044820152606490fd5b865162461bcd60e51b815260206004820152601360248201527f496e76616c6964207377617020726f75746572000000000000000000000000006044820152606490fd5b865162461bcd60e51b815260206004820152601560248201527f496e76616c69642072657761726420737461626c6500000000000000000000006044820152606490fd5b865162461bcd60e51b815260206004820152601460248201527f496e76616c69642072657761726420746f6b656e0000000000000000000000006044820152606490fd5b8651631e4fbdf760e01b815260006004820152602490fd5b600080fd5b634e487b7160e01b600052604160045260246000fd5b51906001600160a01b03821682036200026b5756fe6080604052600436101561001257600080fd5b60003560e01c8063117da1ee14611a6557806331a8f1c9146115895780633b7d094614611518578063424c265b146114a4578063483103a4146112605780634a6a749c146111f75780634bdc76cc1461102a57806367a1d5ab14610ed3578063715018a614610e7a57806389a3027114610e355780638aee812714610d895780638da5cb5b14610d60578063ac6e07ee14610804578063c13d2f7514610757578063c31c9c071461072e578063d03153aa14610710578063e63703091461027d578063f0bbcec41461023e578063f2bf87e314610215578063f2fde38b1461018c578063f7c618c1146101635763f90c69061461010e57600080fd5b3461015e57604036600319011261015e576020610129611afc565b610131611b12565b60018060a01b03809216600052600783528160406000209116600052825260406000205416604051908152f35b600080fd5b3461015e57600036600319011261015e576001546040516001600160a01b039091168152602090f35b3461015e57602036600319011261015e576101a5611afc565b6101ad611caa565b6001600160a01b039081169081156101fc57600054826001600160601b0360a01b821617600055167f8be0079c531659141344cd1fd0a4f28419497f9722a3daafe3b4186f6b6457e0600080a3005b604051631e4fbdf760e01b815260006004820152602490fd5b3461015e57600036600319011261015e576002546040516001600160a01b039091168152602090f35b3461015e57602036600319011261015e576001600160a01b0361025f611afc565b166000526005602052602060ff604060002054166040519015158152f35b3461015e57604036600319011261015e576001600160a01b0361029e611afc565b168060005260056020526102b960ff60406000205416611d11565b6040516323e6650160e11b8152602081600481855afa908115610564576000916106d6575b5060405163133f757160e31b815260248035600483015290916101809182908490816001600160a01b0385165afa92831561056457600092600094610696575b50506040516329bc672160e21b815290602082600481885afa9182156105645760009261065a575b5061035033612a3b565b60405163c69deec560e01b8152336004820152602480359082015260009591948693909284929091906020816044816001600160a01b038b165afa90811561056457600091610620575b50156105a4575050604051633e491d4760e01b8152336004820152602480359082015294915060209050846044816001600160a01b0387165afa93841561056457600094610570575b50839284610449575b50600080516020612aaa8339815191529350610414610444915b61040f33612a3b565b611dca565b6040519384933397602435869192608093969594919660a084019784526020840152604083015260608201520152565b0390a3005b602061048f9160405190631c4b774b60e01b8383015260243560248301526024825261047482611b7e565b60405163468721a760e01b8152938492839260048401611ded565b03816000335af19081156105645760009161052a575b50156104e557610414610444916104de6104d9600080516020612aaa8339815191529760018060a01b0360015416336120ad565b611e1e565b91506103ec565b60405162461bcd60e51b815260206004820152601760248201527f47617567652067657420726577617264206661696c65640000000000000000006044820152606490fd5b90506020813d60201161055c575b8161054560209383611b9a565b8101031261015e5761055690611d7b565b876104a5565b3d9150610538565b6040513d6000823e3d90fd5b9093506020813d60201161059c575b8161058c60209383611b9a565b8101031261015e575192866103e3565b3d915061057f565b610444939750610414929550600080516020612aaa833981519152969194506105d1906024359033612861565b90948195809981610606575b5050816105ec575b5050610406565b6105ff916105fa91336120ad565b612820565b88806105e5565b6106199161061491336120ad565b6127df565b8a806105dd565b90506020813d602011610652575b8161063b60209383611b9a565b8101031261015e5761064c90611d7b565b8a61039a565b3d915061062e565b9091506020813d60201161068e575b8161067660209383611b9a565b8101031261015e5761068790611d67565b9085610346565b3d9150610669565b80919294506106ba9350903d106106cf575b6106b28183611b9a565b810190612739565b5050505050505050925090509091848061031e565b503d6106a8565b90506020813d602011610708575b816106f160209383611b9a565b8101031261015e5761070290611d67565b826102de565b3d91506106e4565b3461015e57600036600319011261015e576020600454604051908152f35b3461015e57600036600319011261015e576003546040516001600160a01b039091168152602090f35b3461015e57602036600319011261015e57610770611afc565b610778611caa565b6001600160a01b039081169081156107c757600254826001600160601b0360a01b821617600255167f9d4858dccb76debed7845fd87ec5c769962d072d518c9e34182581abb3e8247c600080a3005b60405162461bcd60e51b8152602060048201526015602482015274496e76616c69642072657761726420737461626c6560581b6044820152606490fd5b3461015e57604036600319011261015e5761081d611afc565b60243560018060a01b0391828116600052600560205261084460ff60406000205416611d11565b6040516323e6650160e11b8152926020846004818585165afa93841561056457600094610d24575b506040519163133f757160e31b83528360048401526101809485846024818685165afa93841561056457600090600097600096610cf1575b50506108af33612a3b565b91600095604051926329bc672160e21b84526020846004818a8a165afa93841561056457600094610cb5575b5060405163c69deec560e01b8152336004820152602481018a90528785169490602081604481895afa958615610564578b91600097610c77575b5086610bf2575b50505060009960009415610ba5575b50506001600160801b0380911680610a4f575b5050602081610951896109769433612861565b5050604051630852cd8d60e31b8382015260248082018b905281529061047482611b7e565b03816000335af190811561056457600091610a15575b50156109e257600080516020612aaa833981519152946109b26104449361040f33612a3b565b9160405195869516983398869192608093969594919660a084019784526020840152604083015260608201520152565b60405162461bcd60e51b815260206004820152600b60248201526a109d5c9b8819985a5b195960aa1b6044820152606490fd5b90506020813d602011610a47575b81610a3060209383611b9a565b8101031261015e57610a4190611d7b565b8861098c565b3d9150610a23565b60405191610a5c83611b62565b898352602083019182526040830160008152606084019160008352608085019342855260405195630624e65f60e11b6020880152516024870152511660448501525160648401525160848301525160a482015260a4815260e0810181811067ffffffffffffffff821117610b8f57604081905263468721a760e01b815260208160df1984610aee818860e48201611ded565b0301816000335af191821561056457600092610b58575b505015610b1357888061093e565b60405162461bcd60e51b815260206004820152601960248201527f4465637265617365206c6971756964697479206661696c6564000000000000006044820152606490fd5b6020809293503d8311610b88575b610b708185611b9a565b8101031261015e57610b8190611d7b565b8980610b05565b503d610b66565b634e487b7160e01b600052604160045260246000fd5b93509850610bb4888333612861565b90938194809b81610bdd575b5050811561092b57610bd6916105fa91336120ad565b898061092b565b610beb9161061491336120ad565b8b80610bc0565b604051633e491d4760e01b8152336004820152602481019290925291995090602090829060449082905afa8015610564578a90600090610c41575b610c3992509933611e62565b8a898161091c565b50506020813d602011610c6f575b81610c5c60209383611b9a565b8101031261015e5789610c399151610c2d565b3d9150610c4f565b915095506020813d602011610cad575b81610c9460209383611b9a565b8101031261015e57610ca68b91611d7b565b958d610915565b3d9150610c87565b9093506020813d602011610ce9575b81610cd160209383611b9a565b8101031261015e57610ce290611d67565b928a6108db565b3d9150610cc4565b9150919450610d0d929650803d106106cf576106b28183611b9a565b505050509a965050505094915093959387806108a4565b9093506020813d602011610d58575b81610d4060209383611b9a565b8101031261015e57610d5190611d67565b928461086c565b3d9150610d33565b3461015e57600036600319011261015e576000546040516001600160a01b039091168152602090f35b3461015e57602036600319011261015e57610da2611afc565b610daa611caa565b6001600160a01b03908116908115610df957600154826001600160601b0360a01b821617600155167f906ff2422a6ffa134f2d7ccaffd446bc0c583a5cb6615749b4b2836942a5fea8600080a3005b60405162461bcd60e51b815260206004820152601460248201527324b73b30b634b2103932bbb0b932103a37b5b2b760611b6044820152606490fd5b3461015e57600036600319011261015e576040517f00000000000000000000000000000000000000000000000000000000000000006001600160a01b03168152602090f35b3461015e57600036600319011261015e57610e93611caa565b600080546001600160a01b0319811682556001600160a01b03167f8be0079c531659141344cd1fd0a4f28419497f9722a3daafe3b4186f6b6457e08280a3005b3461015e57606036600319011261015e57610eec611afc565b610ef4611b12565b6001600160a01b03604435818116939084900361015e578190610f15611caa565b16918215610ff05716908115610fb8578215610f7e578060005260076020526040600020826000526020526040600020836001600160601b0360a01b8254161790557f749f8bd52d751fb993fa16283117f0242f19e5471f5cb26f1185d1028cd803e5600080a4005b60405162461bcd60e51b8152602060048201526012602482015271125b9d985b1a59081c1c9a58d9481999595960721b6044820152606490fd5b60405162461bcd60e51b815260206004820152601060248201526f24b73b30b634b2103a37903a37b5b2b760811b6044820152606490fd5b60405162461bcd60e51b815260206004820152601260248201527124b73b30b634b210333937b6903a37b5b2b760711b6044820152606490fd5b3461015e57604036600319011261015e57611043611afc565b60243560018060a01b0380921691826000526020906005825261106d60ff60406000205416611d11565b6040516329bc672160e21b8152908282600481885afa918215610564576000926111c0575b5060405163c69deec560e01b815233600482015260248101859052908216908381604481855afa80156105645760009061118a575b6110d19150611d88565b6110da33612a3b565b604051633e491d4760e01b81523360048201526024810186905290918490829060449082905afa928315610564578591600094611155575b50916104066111249260009433611e62565b926040519485528401526000604084015260608301526080820152600080516020612aaa83398151915260a03392a3005b85809295508193503d8311611183575b61116f8183611b9a565b8101031261015e5751918490610406611112565b503d611165565b508381813d83116111b9575b6111a08183611b9a565b8101031261015e576111b46110d191611d7b565b6110c7565b503d611196565b9091508281813d83116111f0575b6111d88183611b9a565b8101031261015e576111e990611d67565b9085611092565b503d6111ce565b3461015e57604036600319011261015e57611210611afc565b611218611b12565b9060018060a01b0380911660005260066020526040600020911660005260205261125c6112486040600020611bbc565b604051918291602083526020830190611c85565b0390f35b3461015e57606036600319011261015e57611279611afc565b611281611b12565b906044359067ffffffffffffffff9081831161015e573660238401121561015e57826004013591821161015e576024903682848601011161015e576112c4611caa565b6001600160a01b0390811694851561146c5716938415611436578215611403576000526020936006855260406000209060005284526040600020926113098454611b28565b601f81116113bd575b50600094601f8411600114611354575093829394600093611347575b505050600019600383901b1c191660019190911b179055005b010135905083808061132e565b91601f198416958560005283600020936000905b8882106113a3575050846001969710611387575b50505050811b019055005b60001960f88660031b161c19920101351690558380808061137c565b806001849786839596890101358155019601920190611368565b8460005285600020601f850160051c8101918786106113f9575b601f0160051c01905b8181106113ed5750611312565b600081556001016113e0565b90915081906113d7565b60405162461bcd60e51b815260206004820152600c818401526b092dcecc2d8d2c840e0c2e8d60a31b6044820152606490fd5b60405162461bcd60e51b815260206004820152600f818401526e24b73b30b634b2103a37aa37b5b2b760891b6044820152606490fd5b60405162461bcd60e51b8152602060048201526011818501527024b73b30b634b210333937b6aa37b5b2b760791b6044820152606490fd5b3461015e57602036600319011261015e576114bd611afc565b6114c5611caa565b6001600160a01b03166114d9811515611cd6565b6000818152600560205260408120805460ff191660011790557ffc1f1e73948cbc47c5b7f90e5601b7daccd9ad7173218486ccc74bdd051d05e88180a3005b3461015e57602036600319011261015e57611531611afc565b611539611caa565b6001600160a01b031661154d811515611cd6565b6000818152600560205260408120805460ff191690557f987eb3c2f78454541205f72f34839b434c306c9eaf4922efd7c0c3060fdb2e4c8180a3005b3461015e57604036600319011261015e576115a2611afc565b602480359060018060a01b038093169283600052602091600583526115ce60ff60406000205416611d11565b6040516323e6650160e11b8152908382600481895afa91821561056457600092611a2e575b506040516329bc672160e21b81529084826004818a5afa918215610564576000926119f7575b5060405163c69deec560e01b81523360048201526024810187905284841694831692908681604481875afa908115610564576000916119c2575b5061197e5761166133612a3b565b926040519463133f757160e31b865288600487015261018095868186818b5afa97881561056457899160009860009a611947575b50509082916116a88c6044969533612861565b9a81809b8d93611932575b50508161191d575b50506040519485809263e985e9c560e01b8252336004830152868a8301525afa80156105645789936000916118e7575b50156117db575b505060405163b6b55f2560e01b828201528381018990528381526117199261047482611b7e565b03816000335af1908115610564576000916117a6575b501561177457506117439061040f33612a3b565b926040519485528401526040830152600060608301526080820152600080516020612aaa83398151915260a03392a3005b84600c6064926040519262461bcd60e51b845260048401528201526b14dd185ad94819985a5b195960a21b6044820152fd5b90508581813d83116117d4575b6117bd8183611b9a565b8101031261015e576117ce90611d7b565b8861172f565b503d6117b3565b9091506040519163a22cb46560e01b89840152848301526001604483015260448252608082019082821067ffffffffffffffff8311176118d2578189918160405263468721a760e01b82528461183881607f199360848201611ded565b0301816000335af191821561056457889060009361189b575b50505015611861578589806116f2565b60405162461bcd60e51b8152600481018790526013818401527213919508185c1c1c9bdd985b0819985a5b1959606a1b6044820152606490fd5b90809293503d83116118cb575b6118b28185611b9a565b8101031261015e576118c390611d7b565b898781611851565b503d6118a8565b84634e487b7160e01b60005260416004526000fd5b84819592503d8311611916575b6118fe8183611b9a565b8101031261015e576119108993611d7b565b8c6116eb565b503d6118f4565b61192b916105fa91336120ad565b898e6116bb565b6119409161061491336120ad565b8a386116b3565b611965929a5060449594939950803d106106cf576106b28183611b9a565b505050505050505099925090509798909192938d611695565b60405162461bcd60e51b8152600481018790526017818401527f506f736974696f6e20616c7265616479207374616b65640000000000000000006044820152606490fd5b90508681813d83116119f0575b6119d98183611b9a565b8101031261015e576119ea90611d7b565b89611653565b503d6119cf565b9091508481813d8311611a27575b611a0f8183611b9a565b8101031261015e57611a2090611d67565b9087611619565b503d611a05565b9091508381813d8311611a5e575b611a468183611b9a565b8101031261015e57611a5790611d67565b90866115f3565b503d611a3c565b3461015e57602036600319011261015e57600435611a81611caa565b6103e88111611ac35760407fddd31550b26e9ef8ade466958be83ff8a014d9b4f36d546b61a6847a4530657591600454908060045582519182526020820152a1005b60405162461bcd60e51b81526020600482015260116024820152700a6d8d2e0e0c2ceca40e8dede40d0d2ced607b1b6044820152606490fd5b600435906001600160a01b038216820361015e57565b602435906001600160a01b038216820361015e57565b90600182811c92168015611b58575b6020831014611b4257565b634e487b7160e01b600052602260045260246000fd5b91607f1691611b37565b60a0810190811067ffffffffffffffff821117610b8f57604052565b6060810190811067ffffffffffffffff821117610b8f57604052565b90601f8019910116810190811067ffffffffffffffff821117610b8f57604052565b9060405191826000825492611bd084611b28565b908184526001948581169081600014611c3f5750600114611bfc575b5050611bfa92500383611b9a565b565b9093915060005260209081600020936000915b818310611c27575050611bfa93508201013880611bec565b85548884018501529485019487945091830191611c0f565b915050611bfa94506020925060ff191682840152151560051b8201013880611bec565b60005b838110611c755750506000910152565b8181015183820152602001611c65565b90602091611c9e81518092818552858086019101611c62565b601f01601f1916010190565b6000546001600160a01b03163303611cbe57565b60405163118cdaa760e01b8152336004820152602490fd5b15611cdd57565b60405162461bcd60e51b815260206004820152600c60248201526b125b9d985b1a59081c1bdbdb60a21b6044820152606490fd5b15611d1857565b60405162461bcd60e51b815260206004820152602160248201527f506f6f6c206e6f7420617070726f76656420666f722074686973206d6f64756c6044820152606560f81b6064820152608490fd5b51906001600160a01b038216820361015e57565b5190811515820361015e57565b15611d8f57565b60405162461bcd60e51b8152602060048201526013602482015272141bdcda5d1a5bdb881b9bdd081cdd185ad959606a1b6044820152606490fd5b91908203918211611dd757565b634e487b7160e01b600052601160045260246000fd5b9291611e1960609160009360018060a01b03168652836020870152608060408701526080860190611c85565b930152565b15611e2557565b60405162461bcd60e51b815260206004820152601560248201527414ddd85c081d1bc81cdd18589b194819985a5b1959605a1b6044820152606490fd5b916001600160a01b0391808316918215612078576040805163c69deec560e01b81528587166001600160a01b038116600483015260248201849052602094929392909185816044818a5afa801561206d57600090612037575b611ec59150611d88565b8351633e491d4760e01b81526001600160a01b038316600482015260248101849052958590879060449082905afa95861561202c57600096611ffd575b50918491611f4893855192632e1a7d4d60e01b85850152602484015260248352611f2b83611b7e565b6000865180968195829463468721a760e01b845260048401611ded565b03925af1908115611ff257600091611fba575b5015611f7f57505080611f6d57505050565b611bfa926104d99260015416906120ad565b60649250519062461bcd60e51b82526004820152601560248201527411d85d59d9481dda5d1a191c985dc819985a5b1959605a1b6044820152fd5b908382813d8311611feb575b611fd08183611b9a565b81010312611fe85750611fe290611d7b565b38611f5b565b80fd5b503d611fc6565b82513d6000823e3d90fd5b90958582813d8311612025575b6120148183611b9a565b81010312611fe85750519484611f02565b503d61200a565b84513d6000823e3d90fd5b8682813d8311612066575b61204c8183611b9a565b81010312611fe85750612061611ec591611d7b565b611ebb565b503d612042565b85513d6000823e3d90fd5b60405162461bcd60e51b815260206004820152600d60248201526c496e76616c696420676175676560981b6044820152606490fd5b91908115612364576002546001600160a01b0390811693828216929091908386146123595760009384526020926006845260409687862090865284526120f4878620611bbc565b80511561232157600354885163095ea7b360e01b878201529085166001600160a01b031660248201526044808201899052815296601f1992859061213960648b611b9a565b1693895187818061215963468721a760e01b9d8e83528660048401611ded565b03818c8a5af19081156123175789916122de575b50156122a3578161217d9161237f565b61012c42019182421161228f57918695949291889794928c51936121a085611b62565b8452888401928784528d850190815260608501918252608085019283528d5198899563c04b8d5960e01b8c8801528b6024880152516044870160a0905260e487016121ea91611c85565b94511660648601525160848501525160a48401525160c48301520390810184526122149084611b9a565b60035416958588518098819582948352600483019161223292611ded565b03925af19384156122845750819361224b575b50505090565b9091809350813d831161227d575b6122638183611b9a565b81010312611fe8575061227590611d7b565b388080612245565b503d612259565b51913d9150823e3d90fd5b634e487b7160e01b89526011600452602489fd5b895162461bcd60e51b8152600481018890526014602482015273151bdad95b88185c1c1c9bdd994819985a5b195960621b6044820152606490fd5b90508781813d8311612310575b6122f58183611b9a565b8101031261230c5761230690611d7b565b3861216d565b8880fd5b503d6122eb565b8b513d8b823e3d90fd5b875162461bcd60e51b815260048101869052601160248201527014ddd85c081c185d1a081b9bdd081cd95d607a1b6044820152606490fd5b505050505050600190565b505050600190565b81810292918115918404141715611dd757565b6002546001600160a01b03918083169183169082821461252f576123cc6123c77f000000000000000000000000000000000000000000000000000000000000000093846126a1565b61254d565b9382168314612502576123c7602095926123e5926126a1565b906040519485809463313ce56760e01b825260049788915afa928315610564576000936124be575b5060ff9161241a9161236c565b911660080160ff81116124a95760ff60051991160160ff81116124a95760ff16604d81116124a957600a0a908115612494579161245d916305f5e100930461236c565b04908054916127109283039183831161247f57509061247b9161236c565b0490565b601190634e487b7160e01b6000525260246000fd5b601284634e487b7160e01b6000525260246000fd5b601184634e487b7160e01b6000525260246000fd5b6020939193813d82116124fa575b816124d960209383611b9a565b810103126124f657519060ff82168203611fe857509160ff61240d565b5080fd5b3d91506124cc565b505050612514906305f5e1009261236c565b0460045490612710918203828111611dd75761247b9161236c565b5050505090565b519069ffffffffffffffffffff8216820361015e57565b6001600160a01b031680156126675760a060049160405192838092633fabe5a360e21b82525afa8015610564576000918291612613575b5060008213156125de5761259c620151809142611dca565b116125a45790565b60405162461bcd60e51b8152602060048201526012602482015271141c9a58d94819995959081d1bdbc81bdb1960721b6044820152606490fd5b60405162461bcd60e51b815260206004820152600d60248201526c496e76616c696420707269636560981b6044820152606490fd5b91905060a0823d821161265f575b8161262e60a09383611b9a565b81010312611fe8575061264081612536565b506020810151612657608060608401519301612536565b509038612584565b3d9150612621565b60405162461bcd60e51b8152602060048201526012602482015271141c9a58d94819995959081b9bdd081cd95d60721b6044820152606490fd5b9060018060a01b03809216600052600760205281604060002091166000526020526040600020541680156126d25790565b60405162461bcd60e51b815260206004820152601c60248201527f4e6f207072696365206665656420666f7220746f6b656e2070616972000000006044820152606490fd5b51908160020b820361015e57565b51906001600160801b038216820361015e57565b91908261018091031261015e5781516001600160601b038116810361015e579161276560208201611d67565b9161277260408301611d67565b9161277f60608201611d67565b9161278c60808301612717565b9161279960a08201612717565b916127a660c08301612717565b916127b360e08201612725565b9161010082015191610120810151916127dc6101606127d56101408501612725565b9301612725565b90565b156127e657565b60405162461bcd60e51b8152602060048201526012602482015271151bdad95b8c081cddd85c0819985a5b195960721b6044820152606490fd5b1561282757565b60405162461bcd60e51b8152602060048201526012602482015271151bdad95b8c481cddd85c0819985a5b195960721b6044820152606490fd5b604080519390926001600160a01b0392909167ffffffffffffffff918416906080870183811188821017610b8f5786528652602093848701828152868801916001600160801b0392839182825260608b01938385528a519b8c8b63fc6f786560e01b9101525160248d0152511660448b015251166064890152511660848701526084865260c086019286841083851117610b8f57838092818852635229073f60e01b82526000958680948b61291d8160bf199360c48201611ded565b0301925af1958615612a315783928497612985575b50505015612951578284805181010312611fe857508201519101519091565b50606491519062461bcd60e51b82526004820152600e60248201526d10dbdb1b1958dd0819985a5b195960921b6044820152fd5b91965091503d8084883e6129998188611b9a565b820195858360c08901980312612a15576129b290611d7b565b9160e081015190828211612a2d57018660df82011215612a155760c0810151918211612a19578551966129ee601f8401601f1916870189611b9a565b82885260e08383010111612a155790612a0d9160e08689019101611c62565b388080612932565b8380fd5b634e487b7160e01b84526041600452602484fd5b8480fd5b85513d85823e3d90fd5b6002546040516370a0823160e01b81526001600160a01b0392831660048201529160209183916024918391165afa90811561056457600091612a7b575090565b906020823d8211612aa1575b81612a9460209383611b9a565b81010312611fe857505190565b3d9150612a8756fec457dabb1cd0422f2d4ee0e35bed2d324c897ff52ca6d0033a86d6a43ce80502a2646970667358221220a1b3005df6eca71d1ea72d915b72967804d812705dd5f6488ea27498f5cfdee364736f6c63430008140033",
          "opcodes": "PUSH1 0xA0 CALLVALUE PUSH3 0x26B JUMPI PUSH1 0x1F PUSH3 0x2D9B CODESIZE DUP2 SWAP1 SUB SWAP2 DUP3 ADD PUSH1 0x1F NOT AND DUP4 ADD SWAP3 SWAP2 SWAP1 PUSH1 0x1 PUSH1 0x1 PUSH1 0x40 SHL SUB DUP5 GT DUP4 DUP6 LT OR PUSH3 0x270 JUMPI DUP2 PUSH1 0xA0 SWAP3 DUP5 SWAP3 PUSH1 0x40 SWAP7 DUP8 MSTORE DUP4 CODECOPY DUP2 ADD SUB SLT PUSH3 0x26B JUMPI PUSH3 0x51 DUP2 PUSH3 0x286 JUMP JUMPDEST PUSH3 0x5F PUSH1 0x20 DUP4 ADD PUSH3 0x286 JUMP JUMPDEST PUSH3 0x6C DUP5 DUP5 ADD PUSH3 0x286 JUMP JUMPDEST SWAP3 PUSH3 0x89 PUSH1 0x80 PUSH3 0x81 PUSH1 0x60 DUP5 ADD PUSH3 0x286 JUMP JUMPDEST SWAP3 ADD PUSH3 0x286 JUMP JUMPDEST SWAP4 PUSH1 0x1 PUSH1 0x1 PUSH1 0xA0 SHL SUB SWAP4 DUP5 AND SWAP3 DUP4 ISZERO PUSH3 0x253 JUMPI PUSH1 0x0 DUP1 SLOAD PUSH1 0x1 PUSH1 0x1 PUSH1 0xA0 SHL SUB NOT DUP1 DUP3 AND DUP8 OR DUP4 SSTORE SWAP6 DUP8 SWAP4 SWAP3 SWAP1 SWAP2 DUP5 AND SWAP1 PUSH32 0x8BE0079C531659141344CD1FD0A4F28419497F9722A3DAAFE3B4186F6B6457E0 SWAP1 DUP1 LOG3 PUSH1 0x32 PUSH1 0x4 SSTORE AND SWAP1 DUP2 ISZERO PUSH3 0x20F JUMPI DUP5 AND SWAP2 DUP3 ISZERO PUSH3 0x1CB JUMPI DUP5 AND SWAP4 DUP5 ISZERO PUSH3 0x187 JUMPI DUP6 AND ISZERO PUSH3 0x143 JUMPI DUP3 PUSH1 0x1 SLOAD AND OR PUSH1 0x1 SSTORE DUP2 PUSH1 0x2 SLOAD AND OR PUSH1 0x2 SSTORE PUSH1 0x3 SLOAD AND OR PUSH1 0x3 SSTORE PUSH1 0x80 MSTORE MLOAD PUSH2 0x2AFF SWAP1 DUP2 PUSH3 0x29C DUP3 CODECOPY PUSH1 0x80 MLOAD DUP2 DUP2 DUP2 PUSH2 0xE4B ADD MSTORE PUSH2 0x23A1 ADD MSTORE RETURN JUMPDEST DUP6 MLOAD PUSH3 0x461BCD PUSH1 0xE5 SHL DUP2 MSTORE PUSH1 0x20 PUSH1 0x4 DUP3 ADD MSTORE PUSH1 0x14 PUSH1 0x24 DUP3 ADD MSTORE PUSH32 0x496E76616C696420555344432061646472657373000000000000000000000000 PUSH1 0x44 DUP3 ADD MSTORE PUSH1 0x64 SWAP1 REVERT JUMPDEST DUP7 MLOAD PUSH3 0x461BCD PUSH1 0xE5 SHL DUP2 MSTORE PUSH1 0x20 PUSH1 0x4 DUP3 ADD MSTORE PUSH1 0x13 PUSH1 0x24 DUP3 ADD MSTORE PUSH32 0x496E76616C6964207377617020726F7574657200000000000000000000000000 PUSH1 0x44 DUP3 ADD MSTORE PUSH1 0x64 SWAP1 REVERT JUMPDEST DUP7 MLOAD PUSH3 0x461BCD PUSH1 0xE5 SHL DUP2 MSTORE PUSH1 0x20 PUSH1 0x4 DUP3 ADD MSTORE PUSH1 0x15 PUSH1 0x24 DUP3 ADD MSTORE PUSH32 0x496E76616C69642072657761726420737461626C650000000000000000000000 PUSH1 0x44 DUP3 ADD MSTORE PUSH1 0x64 SWAP1 REVERT JUMPDEST DUP7 MLOAD PUSH3 0x461BCD PUSH1 0xE5 SHL DUP2 MSTORE PUSH1 0x20 PUSH1 0x4 DUP3 ADD MSTORE PUSH1 0x14 PUSH1 0x24 DUP3 ADD MSTORE PUSH32 0x496E76616C69642072657761726420746F6B656E000000000000000000000000 PUSH1 0x44 DUP3 ADD MSTORE PUSH1 0x64 SWAP1 REVERT JUMPDEST DUP7 MLOAD PUSH4 0x1E4FBDF7 PUSH1 0xE0 SHL DUP2 MSTORE PUSH1 0x0 PUSH1 0x4 DUP3 ADD MSTORE PUSH1 0x24 SWAP1 REVERT JUMPDEST PUSH1 0x0 DUP1 REVERT JUMPDEST PUSH4 0x4E487B71 PUSH1 0xE0 SHL PUSH1 0x0 MSTORE PUSH1 0x41 PUSH1 0x4 MSTORE PUSH1 0x24 PUSH1 0x0 REVERT JUMPDEST MLOAD SWAP1 PUSH1 0x1 PUSH1 0x1 PUSH1 0xA0 SHL SUB DUP3 AND DUP3 SUB PUSH3 0x26B JUMPI JUMP INVALID PUSH1 0x80 PUSH1 0x40 MSTORE PUSH1 0x4 CALLDATASIZE LT ISZERO PUSH2 0x12 JUMPI PUSH1 0x0 DUP1 REVERT JUMPDEST PUSH1 0x0 CALLDATALOAD PUSH1 0xE0 SHR DUP1 PUSH4 0x117DA1EE EQ PUSH2 0x1A65 JUMPI DUP1 PUSH4 0x31A8F1C9 EQ PUSH2 0x1589 JUMPI DUP1 PUSH4 0x3B7D0946 EQ PUSH2 0x1518 JUMPI DUP1 PUSH4 0x424C265B EQ PUSH2 0x14A4 JUMPI DUP1 PUSH4 0x483103A4 EQ PUSH2 0x1260 JUMPI DUP1 PUSH4 0x4A6A749C EQ PUSH2 0x11F7 JUMPI DUP1 PUSH4 0x4BDC76CC EQ PUSH2 0x102A JUMPI DUP1 PUSH4 0x67A1D5AB EQ PUSH2 0xED3 JUMPI DUP1 PUSH4 0x715018A6 EQ PUSH2 0xE7A JUMPI DUP1 PUSH4 0x89A30271 EQ PUSH2 0xE35 JUMPI DUP1 PUSH4 0x8AEE8127 EQ PUSH2 0xD89 JUMPI DUP1 PUSH4 0x8DA5CB5B EQ PUSH2 0xD60 JUMPI DUP1 PUSH4 0xAC6E07EE EQ PUSH2 0x804 JUMPI DUP1 PUSH4 0xC13D2F75 EQ PUSH2 0x757 JUMPI DUP1 PUSH4 0xC31C9C07 EQ PUSH2 0x72E JUMPI DUP1 PUSH4 0xD03153AA EQ PUSH2 0x710 JUMPI DUP1 PUSH4 0xE6370309 EQ PUSH2 0x27D JUMPI DUP1 PUSH4 0xF0BBCEC4 EQ PUSH2 0x23E JUMPI DUP1 PUSH4 0xF2BF87E3 EQ PUSH2 0x215 JUMPI DUP1 PUSH4 0xF2FDE38B EQ PUSH2 0x18C JUMPI DUP1 PUSH4 0xF7C618C1 EQ PUSH2 0x163 JUMPI PUSH4 0xF90C6906 EQ PUSH2 0x10E JUMPI PUSH1 0x0 DUP1 REVERT JUMPDEST CALLVALUE PUSH2 0x15E JUMPI PUSH1 0x40 CALLDATASIZE PUSH1 0x3 NOT ADD SLT PUSH2 0x15E JUMPI PUSH1 0x20 PUSH2 0x129 PUSH2 0x1AFC JUMP JUMPDEST PUSH2 0x131 PUSH2 0x1B12 JUMP JUMPDEST PUSH1 0x1 DUP1 PUSH1 0xA0 SHL SUB DUP1 SWAP3 AND PUSH1 0x0 MSTORE PUSH1 0x7 DUP4 MSTORE DUP2 PUSH1 0x40 PUSH1 0x0 KECCAK256 SWAP2 AND PUSH1 0x0 MSTORE DUP3 MSTORE PUSH1 0x40 PUSH1 0x0 KECCAK256 SLOAD AND PUSH1 0x40 MLOAD SWAP1 DUP2 MSTORE RETURN JUMPDEST PUSH1 0x0 DUP1 REVERT JUMPDEST CALLVALUE PUSH2 0x15E JUMPI PUSH1 0x0 CALLDATASIZE PUSH1 0x3 NOT ADD SLT PUSH2 0x15E JUMPI PUSH1 0x1 SLOAD PUSH1 0x40 MLOAD PUSH1 0x1 PUSH1 0x1 PUSH1 0xA0 SHL SUB SWAP1 SWAP2 AND DUP2 MSTORE PUSH1 0x20 SWAP1 RETURN JUMPDEST CALLVALUE PUSH2 0x15E JUMPI PUSH1 0x20 CALLDATASIZE PUSH1 0x3 NOT ADD SLT PUSH2 0x15E JUMPI PUSH2 0x1A5 PUSH2 0x1AFC JUMP JUMPDEST PUSH2 0x1AD PUSH2 0x1CAA JUMP JUMPDEST PUSH1 0x1 PUSH1 0x1 PUSH1 0xA0 SHL SUB SWAP1 DUP2 AND SWAP1 DUP2 ISZERO PUSH2 0x1FC JUMPI PUSH1 0x0 SLOAD DUP3 PUSH1 0x1 PUSH1 0x1 PUSH1 0x60 SHL SUB PUSH1 0xA0 SHL DUP3 AND OR PUSH1 0x0 SSTORE AND PUSH32 0x8BE0079C531659141344CD1FD0A4F28419497F9722A3DAAFE3B4186F6B6457E0 PUSH1 0x0 DUP1 LOG3 STOP JUMPDEST PUSH1 0x40 MLOAD PUSH4 0x1E4FBDF7 PUSH1 0xE0 SHL DUP2 MSTORE PUSH1 0x0 PUSH1 0x4 DUP3 ADD MSTORE PUSH1 0x24 SWAP1 REVERT JUMPDEST CALLVALUE PUSH2 0x15E JUMPI PUSH1 0x0 CALLDATASIZE PUSH1 0x3 NOT ADD SLT PUSH2 0x15E JUMPI PUSH1 0x2 SLOAD PUSH1 0x40 MLOAD PUSH1 0x1 PUSH1 0x1 PUSH1 0xA0 SHL SUB SWAP1 SWAP2 AND DUP2 MSTORE PUSH1 0x20 SWAP1 RETURN JUMPDEST CALLVALUE PUSH2 0x15E JUMPI PUSH1 0x20 CALLDATASIZE PUSH1 0x3 NOT ADD SLT PUSH2 0x15E JUMPI PUSH1 0x1 PUSH1 0x1 PUSH1 0xA0 SHL SUB PUSH2 0x25F PUSH2 0x1AFC JUMP JUMPDEST AND PUSH1 0x0 MSTORE PUSH1 0x5 PUSH1 0x20 MSTORE PUSH1 0x20 PUSH1 0xFF PUSH1 0x40 PUSH1 0x0 KECCAK256 SLOAD AND PUSH1 0x40 MLOAD SWAP1 ISZERO ISZERO DUP2 MSTORE RETURN JUMPDEST CALLVALUE PUSH2 0x15E JUMPI PUSH1 0x40 CALLDATASIZE PUSH1 0x3 NOT ADD SLT PUSH2 0x15E JUMPI PUSH1 0x1 PUSH1 0x1 PUSH1 0xA0 SHL SUB PUSH2 0x29E PUSH2 0x1AFC JUMP JUMPDEST AND DUP1 PUSH1 0x0 MSTORE PUSH1 0x5 PUSH1 0x20 MSTORE PUSH2 0x2B9 PUSH1 0xFF PUSH1 0x40 PUSH1 0x0 KECCAK256 SLOAD AND PUSH2 0x1D11 JUMP JUMPDEST PUSH1 0x40 MLOAD PUSH4 0x23E66501 PUSH1 0xE1 SHL DUP2 MSTORE PUSH1 0x20 DUP2 PUSH1 0x4 DUP2 DUP6 GAS STATICCALL SWAP1 DUP2 ISZERO PUSH2 0x564 JUMPI PUSH1 0x0 SWAP2 PUSH2 0x6D6 JUMPI JUMPDEST POP PUSH1 0x40 MLOAD PUSH4 0x133F7571 PUSH1 0xE3 SHL DUP2 MSTORE PUSH1 0x24 DUP1 CALLDATALOAD PUSH1 0x4 DUP4 ADD MSTORE SWAP1 SWAP2 PUSH2 0x180 SWAP2 DUP3 SWAP1 DUP5 SWAP1 DUP2 PUSH1 0x1 PUSH1 0x1 PUSH1 0xA0 SHL SUB DUP6 AND GAS STATICCALL SWAP3 DUP4 ISZERO PUSH2 0x564 JUMPI PUSH1 0x0 SWAP3 PUSH1 0x0 SWAP5 PUSH2 0x696 JUMPI JUMPDEST POP POP PUSH1 0x40 MLOAD PUSH4 0x29BC6721 PUSH1 0xE2 SHL DUP2 MSTORE SWAP1 PUSH1 0x20 DUP3 PUSH1 0x4 DUP2 DUP9 GAS STATICCALL SWAP2 DUP3 ISZERO PUSH2 0x564 JUMPI PUSH1 0x0 SWAP3 PUSH2 0x65A JUMPI JUMPDEST POP PUSH2 0x350 CALLER PUSH2 0x2A3B JUMP JUMPDEST PUSH1 0x40 MLOAD PUSH4 0xC69DEEC5 PUSH1 0xE0 SHL DUP2 MSTORE CALLER PUSH1 0x4 DUP3 ADD MSTORE PUSH1 0x24 DUP1 CALLDATALOAD SWAP1 DUP3 ADD MSTORE PUSH1 0x0 SWAP6 SWAP2 SWAP5 DUP7 SWAP4 SWAP1 SWAP3 DUP5 SWAP3 SWAP1 SWAP2 SWAP1 PUSH1 0x20 DUP2 PUSH1 0x44 DUP2 PUSH1 0x1 PUSH1 0x1 PUSH1 0xA0 SHL SUB DUP12 AND GAS STATICCALL SWAP1 DUP2 ISZERO PUSH2 0x564 JUMPI PUSH1 0x0 SWAP2 PUSH2 0x620 JUMPI JUMPDEST POP ISZERO PUSH2 0x5A4 JUMPI POP POP PUSH1 0x40 MLOAD PUSH4 0x3E491D47 PUSH1 0xE0 SHL DUP2 MSTORE CALLER PUSH1 0x4 DUP3 ADD MSTORE PUSH1 0x24 DUP1 CALLDATALOAD SWAP1 DUP3 ADD MSTORE SWAP5 SWAP2 POP PUSH1 0x20 SWAP1 POP DUP5 PUSH1 0x44 DUP2 PUSH1 0x1 PUSH1 0x1 PUSH1 0xA0 SHL SUB DUP8 AND GAS STATICCALL SWAP4 DUP5 ISZERO PUSH2 0x564 JUMPI PUSH1 0x0 SWAP5 PUSH2 0x570 JUMPI JUMPDEST POP DUP4 SWAP3 DUP5 PUSH2 0x449 JUMPI JUMPDEST POP PUSH1 0x0 DUP1 MLOAD PUSH1 0x20 PUSH2 0x2AAA DUP4 CODECOPY DUP2 MLOAD SWAP2 MSTORE SWAP4 POP PUSH2 0x414 PUSH2 0x444 SWAP2 JUMPDEST PUSH2 0x40F CALLER PUSH2 0x2A3B JUMP JUMPDEST PUSH2 0x1DCA JUMP JUMPDEST PUSH1 0x40 MLOAD SWAP4 DUP5 SWAP4 CALLER SWAP8 PUSH1 0x24 CALLDATALOAD DUP7 SWAP2 SWAP3 PUSH1 0x80 SWAP4 SWAP7 SWAP6 SWAP5 SWAP2 SWAP7 PUSH1 0xA0 DUP5 ADD SWAP8 DUP5 MSTORE PUSH1 0x20 DUP5 ADD MSTORE PUSH1 0x40 DUP4 ADD MSTORE PUSH1 0x60 DUP3 ADD MSTORE ADD MSTORE JUMP JUMPDEST SUB SWAP1 LOG3 STOP JUMPDEST PUSH1 0x20 PUSH2 0x48F SWAP2 PUSH1 0x40 MLOAD SWAP1 PUSH4 0x1C4B774B PUSH1 0xE0 SHL DUP4 DUP4 ADD MSTORE PUSH1 0x24 CALLDATALOAD PUSH1 0x24 DUP4 ADD MSTORE PUSH1 0x24 DUP3 MSTORE PUSH2 0x474 DUP3 PUSH2 0x1B7E JUMP JUMPDEST PUSH1 0x40 MLOAD PUSH4 0x468721A7 PUSH1 0xE0 SHL DUP2 MSTORE SWAP4 DUP5 SWAP3 DUP4 SWAP3 PUSH1 0x4 DUP5 ADD PUSH2 0x1DED JUMP JUMPDEST SUB DUP2 PUSH1 0x0 CALLER GAS CALL SWAP1 DUP2 ISZERO PUSH2 0x564 JUMPI PUSH1 0x0 SWAP2 PUSH2 0x52A JUMPI JUMPDEST POP ISZERO PUSH2 0x4E5 JUMPI PUSH2 0x414 PUSH2 0x444 SWAP2 PUSH2 0x4DE PUSH2 0x4D9 PUSH1 0x0 DUP1 MLOAD PUSH1 0x20 PUSH2 0x2AAA DUP4 CODECOPY DUP2 MLOAD SWAP2 MSTORE SWAP8 PUSH1 0x1 DUP1 PUSH1 0xA0 SHL SUB PUSH1 0x1 SLOAD AND CALLER PUSH2 0x20AD JUMP JUMPDEST PUSH2 0x1E1E JUMP JUMPDEST SWAP2 POP PUSH2 0x3EC JUMP JUMPDEST PUSH1 0x40 MLOAD PUSH3 0x461BCD PUSH1 0xE5 SHL DUP2 MSTORE PUSH1 0x20 PUSH1 0x4 DUP3 ADD MSTORE PUSH1 0x17 PUSH1 0x24 DUP3 ADD MSTORE PUSH32 0x47617567652067657420726577617264206661696C6564000000000000000000 PUSH1 0x44 DUP3 ADD MSTORE PUSH1 0x64 SWAP1 REVERT JUMPDEST SWAP1 POP PUSH1 0x20 DUP2 RETURNDATASIZE PUSH1 0x20 GT PUSH2 0x55C JUMPI JUMPDEST DUP2 PUSH2 0x545 PUSH1 0x20 SWAP4 DUP4 PUSH2 0x1B9A JUMP JUMPDEST DUP2 ADD SUB SLT PUSH2 0x15E JUMPI PUSH2 0x556 SWAP1 PUSH2 0x1D7B JUMP JUMPDEST DUP8 PUSH2 0x4A5 JUMP JUMPDEST RETURNDATASIZE SWAP2 POP PUSH2 0x538 JUMP JUMPDEST PUSH1 0x40 MLOAD RETURNDATASIZE PUSH1 0x0 DUP3 RETURNDATACOPY RETURNDATASIZE SWAP1 REVERT JUMPDEST SWAP1 SWAP4 POP PUSH1 0x20 DUP2 RETURNDATASIZE PUSH1 0x20 GT PUSH2 0x59C JUMPI JUMPDEST DUP2 PUSH2 0x58C PUSH1 0x20 SWAP4 DUP4 PUSH2 0x1B9A JUMP JUMPDEST DUP2 ADD SUB SLT PUSH2 0x15E JUMPI MLOAD SWAP3 DUP7 PUSH2 0x3E3 JUMP JUMPDEST RETURNDATASIZE SWAP2 POP PUSH2 0x57F JUMP JUMPDEST PUSH2 0x444 SWAP4 SWAP8 POP PUSH2 0x414 SWAP3 SWAP6 POP PUSH1 0x0 DUP1 MLOAD PUSH1 0x20 PUSH2 0x2AAA DUP4 CODECOPY DUP2 MLOAD SWAP2 MSTORE SWAP7 SWAP2 SWAP5 POP PUSH2 0x5D1 SWAP1 PUSH1 0x24 CALLDATALOAD SWAP1 CALLER PUSH2 0x2861 JUMP JUMPDEST SWAP1 SWAP5 DUP2 SWAP6 DUP1 SWAP10 DUP2 PUSH2 0x606 JUMPI JUMPDEST POP POP DUP2 PUSH2 0x5EC JUMPI JUMPDEST POP POP PUSH2 0x406 JUMP JUMPDEST PUSH2 0x5FF SWAP2 PUSH2 0x5FA SWAP2 CALLER PUSH2 0x20AD JUMP JUMPDEST PUSH2 0x2820 JUMP JUMPDEST DUP9 DUP1 PUSH2 0x5E5 JUMP JUMPDEST PUSH2 0x619 SWAP2 PUSH2 0x614 SWAP2 CALLER PUSH2 0x20AD JUMP JUMPDEST PUSH2 0x27DF JUMP JUMPDEST DUP11 DUP1 PUSH2 0x5DD JUMP JUMPDEST SWAP1 POP PUSH1 0x20 DUP2 RETURNDATASIZE PUSH1 0x20 GT PUSH2 0x652 JUMPI JUMPDEST DUP2 PUSH2 0x63B PUSH1 0x20 SWAP4 DUP4 PUSH2 0x1B9A JUMP JUMPDEST DUP2 ADD SUB SLT PUSH2 0x15E JUMPI PUSH2 0x64C SWAP1 PUSH2 0x1D7B JUMP JUMPDEST DUP11 PUSH2 0x39A JUMP JUMPDEST RETURNDATASIZE SWAP2 POP PUSH2 0x62E JUMP JUMPDEST SWAP1 SWAP2 POP PUSH1 0x20 DUP2 RETURNDATASIZE PUSH1 0x20 GT PUSH2 0x68E JUMPI JUMPDEST DUP2 PUSH2 0x676 PUSH1 0x20 SWAP4 DUP4 PUSH2 0x1B9A JUMP JUMPDEST DUP2 ADD SUB SLT PUSH2 0x15E JUMPI PUSH2 0x687 SWAP1 PUSH2 0x1D67 JUMP JUMPDEST SWAP1 DUP6 PUSH2 0x346 JUMP JUMPDEST RETURNDATASIZE SWAP2 POP PUSH2 0x669 JUMP JUMPDEST DUP1 SWAP2 SWAP3 SWAP5 POP PUSH2 0x6BA SWAP4 POP SWAP1 RETURNDATASIZE LT PUSH2 0x6CF JUMPI JUMPDEST PUSH2 0x6B2 DUP2 DUP4 PUSH2 0x1B9A JUMP JUMPDEST DUP2 ADD SWAP1 PUSH2 0x2739 JUMP JUMPDEST POP POP POP POP POP POP POP POP SWAP3 POP SWAP1 POP SWAP1 SWAP2 DUP5 DUP1 PUSH2 0x31E JUMP JUMPDEST POP RETURNDATASIZE PUSH2 0x6A8 JUMP JUMPDEST SWAP1 POP PUSH1 0x20 DUP2 RETURNDATASIZE PUSH1 0x20 GT PUSH2 0x708 JUMPI JUMPDEST DUP2 PUSH2 0x6F1 PUSH1 0x20 SWAP4 DUP4 PUSH2 0x1B9A JUMP JUMPDEST DUP2 ADD SUB SLT PUSH2 0x15E JUMPI PUSH2 0x702 SWAP1 PUSH2 0x1D67 JUMP JUMPDEST DUP3 PUSH2 0x2DE JUMP JUMPDEST RETURNDATASIZE SWAP2 POP PUSH2 0x6E4 JUMP JUMPDEST CALLVALUE PUSH2 0x15E JUMPI PUSH1 0x0 CALLDATASIZE PUSH1 0x3 NOT ADD SLT PUSH2 0x15E JUMPI PUSH1 0x20 PUSH1 0x4 SLOAD PUSH1 0x40 MLOAD SWAP1 DUP2 MSTORE RETURN JUMPDEST CALLVALUE PUSH2 0x15E JUMPI PUSH1 0x0 CALLDATASIZE PUSH1 0x3 NOT ADD SLT PUSH2 0x15E JUMPI PUSH1 0x3 SLOAD PUSH1 0x40 MLOAD PUSH1 0x1 PUSH1 0x1 PUSH1 0xA0 SHL SUB SWAP1 SWAP2 AND DUP2 MSTORE PUSH1 0x20 SWAP1 RETURN JUMPDEST CALLVALUE PUSH2 0x15E JUMPI PUSH1 0x20 CALLDATASIZE PUSH1 0x3 NOT ADD SLT PUSH2 0x15E JUMPI PUSH2 0x770 PUSH2 0x1AFC JUMP JUMPDEST PUSH2 0x778 PUSH2 0x1CAA JUMP JUMPDEST PUSH1 0x1 PUSH1 0x1 PUSH1 0xA0 SHL SUB SWAP1 DUP2 AND SWAP1 DUP2 ISZERO PUSH2 0x7C7 JUMPI PUSH1 0x2 SLOAD DUP3 PUSH1 0x1 PUSH1 0x1 PUSH1 0x60 SHL SUB PUSH1 0xA0 SHL DUP3 AND OR PUSH1 0x2 SSTORE AND PUSH32 0x9D4858DCCB76DEBED7845FD87EC5C769962D072D518C9E34182581ABB3E8247C PUSH1 0x0 DUP1 LOG3 STOP JUMPDEST PUSH1 0x40 MLOAD PUSH3 0x461BCD PUSH1 0xE5 SHL DUP2 MSTORE PUSH1 0x20 PUSH1 0x4 DUP3 ADD MSTORE PUSH1 0x15 PUSH1 0x24 DUP3 ADD MSTORE PUSH21 0x496E76616C69642072657761726420737461626C65 PUSH1 0x58 SHL PUSH1 0x44 DUP3 ADD MSTORE PUSH1 0x64 SWAP1 REVERT JUMPDEST CALLVALUE PUSH2 0x15E JUMPI PUSH1 0x40 CALLDATASIZE PUSH1 0x3 NOT ADD SLT PUSH2 0x15E JUMPI PUSH2 0x81D PUSH2 0x1AFC JUMP JUMPDEST PUSH1 0x24 CALLDATALOAD PUSH1 0x1 DUP1 PUSH1 0xA0 SHL SUB SWAP2 DUP3 DUP2 AND PUSH1 0x0 MSTORE PUSH1 0x5 PUSH1 0x20 MSTORE PUSH2 0x844 PUSH1 0xFF PUSH1 0x40 PUSH1 0x0 KECCAK256 SLOAD AND PUSH2 0x1D11 JUMP JUMPDEST PUSH1 0x40 MLOAD PUSH4 0x23E66501 PUSH1 0xE1 SHL DUP2 MSTORE SWAP3 PUSH1 0x20 DUP5 PUSH1 0x4 DUP2 DUP6 DUP6 AND GAS STATICCALL SWAP4 DUP5 ISZERO PUSH2 0x564 JUMPI PUSH1 0x0 SWAP5 PUSH2 0xD24 JUMPI JUMPDEST POP PUSH1 0x40 MLOAD SWAP2 PUSH4 0x133F7571 PUSH1 0xE3 SHL DUP4 MSTORE DUP4 PUSH1 0x4 DUP5 ADD MSTORE PUSH2 0x180 SWAP5 DUP6 DUP5 PUSH1 0x24 DUP2 DUP7 DUP6 AND GAS STATICCALL SWAP4 DUP5 ISZERO PUSH2 0x564 JUMPI PUSH1 0x0 SWAP1 PUSH1 0x0 SWAP8 PUSH1 0x0 SWAP7 PUSH2 0xCF1 JUMPI JUMPDEST POP POP PUSH2 0x8AF CALLER PUSH2 0x2A3B JUMP JUMPDEST SWAP2 PUSH1 0x0 SWAP6 PUSH1 0x40 MLOAD SWAP3 PUSH4 0x29BC6721 PUSH1 0xE2 SHL DUP5 MSTORE PUSH1 0x20 DUP5 PUSH1 0x4 DUP2 DUP11 DUP11 AND GAS STATICCALL SWAP4 DUP5 ISZERO PUSH2 0x564 JUMPI PUSH1 0x0 SWAP5 PUSH2 0xCB5 JUMPI JUMPDEST POP PUSH1 0x40 MLOAD PUSH4 0xC69DEEC5 PUSH1 0xE0 SHL DUP2 MSTORE CALLER PUSH1 0x4 DUP3 ADD MSTORE PUSH1 0x24 DUP2 ADD DUP11 SWAP1 MSTORE DUP8 DUP6 AND SWAP5 SWAP1 PUSH1 0x20 DUP2 PUSH1 0x44 DUP2 DUP10 GAS STATICCALL SWAP6 DUP7 ISZERO PUSH2 0x564 JUMPI DUP12 SWAP2 PUSH1 0x0 SWAP8 PUSH2 0xC77 JUMPI JUMPDEST POP DUP7 PUSH2 0xBF2 JUMPI JUMPDEST POP POP POP PUSH1 0x0 SWAP10 PUSH1 0x0 SWAP5 ISZERO PUSH2 0xBA5 JUMPI JUMPDEST POP POP PUSH1 0x1 PUSH1 0x1 PUSH1 0x80 SHL SUB DUP1 SWAP2 AND DUP1 PUSH2 0xA4F JUMPI JUMPDEST POP POP PUSH1 0x20 DUP2 PUSH2 0x951 DUP10 PUSH2 0x976 SWAP5 CALLER PUSH2 0x2861 JUMP JUMPDEST POP POP PUSH1 0x40 MLOAD PUSH4 0x852CD8D PUSH1 0xE3 SHL DUP4 DUP3 ADD MSTORE PUSH1 0x24 DUP1 DUP3 ADD DUP12 SWAP1 MSTORE DUP2 MSTORE SWAP1 PUSH2 0x474 DUP3 PUSH2 0x1B7E JUMP JUMPDEST SUB DUP2 PUSH1 0x0 CALLER GAS CALL SWAP1 DUP2 ISZERO PUSH2 0x564 JUMPI PUSH1 0x0 SWAP2 PUSH2 0xA15 JUMPI JUMPDEST POP ISZERO PUSH2 0x9E2 JUMPI PUSH1 0x0 DUP1 MLOAD PUSH1 0x20 PUSH2 0x2AAA DUP4 CODECOPY DUP2 MLOAD SWAP2 MSTORE SWAP5 PUSH2 0x9B2 PUSH2 0x444 SWAP4 PUSH2 0x40F CALLER PUSH2 0x2A3B JUMP JUMPDEST SWAP2 PUSH1 0x40 MLOAD SWAP6 DUP7 SWAP6 AND SWAP9 CALLER SWAP9 DUP7 SWAP2 SWAP3 PUSH1 0x80 SWAP4 SWAP7 SWAP6 SWAP5 SWAP2 SWAP7 PUSH1 0xA0 DUP5 ADD SWAP8 DUP5 MSTORE PUSH1 0x20 DUP5 ADD MSTORE PUSH1 0x40 DUP4 ADD MSTORE PUSH1 0x60 DUP3 ADD MSTORE ADD MSTORE JUMP JUMPDEST PUSH1 0x40 MLOAD PUSH3 0x461BCD PUSH1 0xE5 SHL DUP2 MSTORE PUSH1 0x20 PUSH1 0x4 DUP3 ADD MSTORE PUSH1 0xB PUSH1 0x24 DUP3 ADD MSTORE PUSH11 0x109D5C9B8819985A5B1959 PUSH1 0xAA SHL PUSH1 0x44 DUP3 ADD MSTORE PUSH1 0x64 SWAP1 REVERT JUMPDEST SWAP1 POP PUSH1 0x20 DUP2 RETURNDATASIZE PUSH1 0x20 GT PUSH2 0xA47 JUMPI JUMPDEST DUP2 PUSH2 0xA30 PUSH1 0x20 SWAP4 DUP4 PUSH2 0x1B9A JUMP JUMPDEST DUP2 ADD SUB SLT PUSH2 0x15E JUMPI PUSH2 0xA41 SWAP1 PUSH2 0x1D7B JUMP JUMPDEST DUP9 PUSH2 0x98C JUMP JUMPDEST RETURNDATASIZE SWAP2 POP PUSH2 0xA23 JUMP JUMPDEST PUSH1 0x40 MLOAD SWAP2 PUSH2 0xA5C DUP4 PUSH2 0x1B62 JUMP JUMPDEST DUP10 DUP4 MSTORE PUSH1 0x20 DUP4 ADD SWAP2 DUP3 MSTORE PUSH1 0x40 DUP4 ADD PUSH1 0x0 DUP2 MSTORE PUSH1 0x60 DUP5 ADD SWAP2 PUSH1 0x0 DUP4 MSTORE PUSH1 0x80 DUP6 ADD SWAP4 TIMESTAMP DUP6 MSTORE PUSH1 0x40 MLOAD SWAP6 PUSH4 0x624E65F PUSH1 0xE1 SHL PUSH1 0x20 DUP9 ADD MSTORE MLOAD PUSH1 0x24 DUP8 ADD MSTORE MLOAD AND PUSH1 0x44 DUP6 ADD MSTORE MLOAD PUSH1 0x64 DUP5 ADD MSTORE MLOAD PUSH1 0x84 DUP4 ADD MSTORE MLOAD PUSH1 0xA4 DUP3 ADD MSTORE PUSH1 0xA4 DUP2 MSTORE PUSH1 0xE0 DUP2 ADD DUP2 DUP2 LT PUSH8 0xFFFFFFFFFFFFFFFF DUP3 GT OR PUSH2 0xB8F JUMPI PUSH1 0x40 DUP2 SWAP1 MSTORE PUSH4 0x468721A7 PUSH1 0xE0 SHL DUP2 MSTORE PUSH1 0x20 DUP2 PUSH1 0xDF NOT DUP5 PUSH2 0xAEE DUP2 DUP9 PUSH1 0xE4 DUP3 ADD PUSH2 0x1DED JUMP JUMPDEST SUB ADD DUP2 PUSH1 0x0 CALLER GAS CALL SWAP2 DUP3 ISZERO PUSH2 0x564 JUMPI PUSH1 0x0 SWAP3 PUSH2 0xB58 JUMPI JUMPDEST POP POP ISZERO PUSH2 0xB13 JUMPI DUP9 DUP1 PUSH2 0x93E JUMP JUMPDEST PUSH1 0x40 MLOAD PUSH3 0x461BCD PUSH1 0xE5 SHL DUP2 MSTORE PUSH1 0x20 PUSH1 0x4 DUP3 ADD MSTORE PUSH1 0x19 PUSH1 0x24 DUP3 ADD MSTORE PUSH32 0x4465637265617365206C6971756964697479206661696C656400000000000000 PUSH1 0x44 DUP3 ADD MSTORE PUSH1 0x64 SWAP1 REVERT JUMPDEST PUSH1 0x20 DUP1 SWAP3 SWAP4 POP RETURNDATASIZE DUP4 GT PUSH2 0xB88 JUMPI JUMPDEST PUSH2 0xB70 DUP2 DUP6 PUSH2 0x1B9A JUMP JUMPDEST DUP2 ADD SUB SLT PUSH2 0x15E JUMPI PUSH2 0xB81 SWAP1 PUSH2 0x1D7B JUMP JUMPDEST DUP10 DUP1 PUSH2 0xB05 JUMP JUMPDEST POP RETURNDATASIZE PUSH2 0xB66 JUMP JUMPDEST PUSH4 0x4E487B71 PUSH1 0xE0 SHL PUSH1 0x0 MSTORE PUSH1 0x41 PUSH1 0x4 MSTORE PUSH1 0x24 PUSH1 0x0 REVERT JUMPDEST SWAP4 POP SWAP9 POP PUSH2 0xBB4 DUP9 DUP4 CALLER PUSH2 0x2861 JUMP JUMPDEST SWAP1 SWAP4 DUP2 SWAP5 DUP1 SWAP12 DUP2 PUSH2 0xBDD JUMPI JUMPDEST POP POP DUP2 ISZERO PUSH2 0x92B JUMPI PUSH2 0xBD6 SWAP2 PUSH2 0x5FA SWAP2 CALLER PUSH2 0x20AD JUMP JUMPDEST DUP10 DUP1 PUSH2 0x92B JUMP JUMPDEST PUSH2 0xBEB SWAP2 PUSH2 0x614 SWAP2 CALLER PUSH2 0x20AD JUMP JUMPDEST DUP12 DUP1 PUSH2 0xBC0 JUMP JUMPDEST PUSH1 0x40 MLOAD PUSH4 0x3E491D47 PUSH1 0xE0 SHL DUP2 MSTORE CALLER PUSH1 0x4 DUP3 ADD MSTORE PUSH1 0x24 DUP2 ADD SWAP3 SWAP1 SWAP3 MSTORE SWAP2 SWAP10 POP SWAP1 PUSH1 0x20 SWAP1 DUP3 SWAP1 PUSH1 0x44 SWAP1 DUP3 SWAP1 GAS STATICCALL DUP1 ISZERO PUSH2 0x564 JUMPI DUP11 SWAP1 PUSH1 0x0 SWAP1 PUSH2 0xC41 JUMPI JUMPDEST PUSH2 0xC39 SWAP3 POP SWAP10 CALLER PUSH2 0x1E62 JUMP JUMPDEST DUP11 DUP10 DUP2 PUSH2 0x91C JUMP JUMPDEST POP POP PUSH1 0x20 DUP2 RETURNDATASIZE PUSH1 0x20 GT PUSH2 0xC6F JUMPI JUMPDEST DUP2 PUSH2 0xC5C PUSH1 0x20 SWAP4 DUP4 PUSH2 0x1B9A JUMP JUMPDEST DUP2 ADD SUB SLT PUSH2 0x15E JUMPI DUP10 PUSH2 0xC39 SWAP2 MLOAD PUSH2 0xC2D JUMP JUMPDEST RETURNDATASIZE SWAP2 POP PUSH2 0xC4F JUMP JUMPDEST SWAP2 POP SWAP6 POP PUSH1 0x20 DUP2 RETURNDATASIZE PUSH1 0x20 GT PUSH2 0xCAD JUMPI JUMPDEST DUP2 PUSH2 0xC94 PUSH1 0x20 SWAP4 DUP4 PUSH2 0x1B9A JUMP JUMPDEST DUP2 ADD SUB SLT PUSH2 0x15E JUMPI PUSH2 0xCA6 DUP12 SWAP2 PUSH2 0x1D7B JUMP JUMPDEST SWAP6 DUP14 PUSH2 0x915 JUMP JUMPDEST RETURNDATASIZE SWAP2 POP PUSH2 0xC87 JUMP JUMPDEST SWAP1 SWAP4 POP PUSH1 0x20 DUP2 RETURNDATASIZE PUSH1 0x20 GT PUSH2 0xCE9 JUMPI JUMPDEST DUP2 PUSH2 0xCD1 PUSH1 0x20 SWAP4 DUP4 PUSH2 0x1B9A JUMP JUMPDEST DUP2 ADD SUB SLT PUSH2 0x15E JUMPI PUSH2 0xCE2 SWAP1 PUSH2 0x1D67 JUMP JUMPDEST SWAP3 DUP11 PUSH2 0x8DB JUMP JUMPDEST RETURNDATASIZE SWAP2 POP PUSH2 0xCC4 JUMP JUMPDEST SWAP2 POP SWAP2 SWAP5 POP PUSH2 0xD0D SWAP3 SWAP7 POP DUP1 RETURNDATASIZE LT PUSH2 0x6CF JUMPI PUSH2 0x6B2 DUP2 DUP4 PUSH2 0x1B9A JUMP JUMPDEST POP POP POP POP SWAP11 SWAP7 POP POP POP POP SWAP5 SWAP2 POP SWAP4 SWAP6 SWAP4 DUP8 DUP1 PUSH2 0x8A4 JUMP JUMPDEST SWAP1 SWAP4 POP PUSH1 0x20 DUP2 RETURNDATASIZE PUSH1 0x20 GT PUSH2 0xD58 JUMPI JUMPDEST DUP2 PUSH2 0xD40 PUSH1 0x20 SWAP4 DUP4 PUSH2 0x1B9A JUMP JUMPDEST DUP2 ADD SUB SLT PUSH2 0x15E JUMPI PUSH2 0xD51 SWAP1 PUSH2 0x1D67 JUMP JUMPDEST SWAP3 DUP5 PUSH2 0x86C JUMP JUMPDEST RETURNDATASIZE SWAP2 POP PUSH2 0xD33 JUMP JUMPDEST CALLVALUE PUSH2 0x15E JUMPI PUSH1 0x0 CALLDATASIZE PUSH1 0x3 NOT ADD SLT PUSH2 0x15E JUMPI PUSH1 0x0 SLOAD PUSH1 0x40 MLOAD PUSH1 0x1 PUSH1 0x1 PUSH1 0xA0 SHL SUB SWAP1 SWAP2 AND DUP2 MSTORE PUSH1 0x20 SWAP1 RETURN JUMPDEST CALLVALUE PUSH2 0x15E JUMPI PUSH1 0x20 CALLDATASIZE PUSH1 0x3 NOT ADD SLT PUSH2 0x15E JUMPI PUSH2 0xDA2 PUSH2 0x1AFC JUMP JUMPDEST PUSH2 0xDAA PUSH2 0x1CAA JUMP JUMPDEST PUSH1 0x1 PUSH1 0x1 PUSH1 0xA0 SHL SUB SWAP1 DUP2 AND SWAP1 DUP2 ISZERO PUSH2 0xDF9 JUMPI PUSH1 0x1 SLOAD DUP3 PUSH1 0x1 PUSH1 0x1 PUSH1 0x60 SHL SUB PUSH1 0xA0 SHL DUP3 AND OR PUSH1 0x1 SSTORE AND PUSH32 0x906FF2422A6FFA134F2D7CCAFFD446BC0C583A5CB6615749B4B2836942A5FEA8 PUSH1 0x0 DUP1 LOG3 STOP JUMPDEST PUSH1 0x40 MLOAD PUSH3 0x461BCD PUSH1 0xE5 SHL DUP2 MSTORE PUSH1 0x20 PUSH1 0x4 DUP3 ADD MSTORE PUSH1 0x14 PUSH1 0x24 DUP3 ADD MSTORE PUSH20 0x24B73B30B634B2103932BBB0B932103A37B5B2B7 PUSH1 0x61 SHL PUSH1 0x44 DUP3 ADD MSTORE PUSH1 0x64 SWAP1 REVERT JUMPDEST CALLVALUE PUSH2 0x15E JUMPI PUSH1 0x0 CALLDATASIZE PUSH1 0x3 NOT ADD SLT PUSH2 0x15E JUMPI PUSH1 0x40 MLOAD PUSH32 0x0 PUSH1 0x1 PUSH1 0x1 PUSH1 0xA0 SHL SUB AND DUP2 MSTORE PUSH1 0x20 SWAP1 RETURN JUMPDEST CALLVALUE PUSH2 0x15E JUMPI PUSH1 0x0 CALLDATASIZE PUSH1 0x3 NOT ADD SLT PUSH2 0x15E JUMPI PUSH2 0xE93 PUSH2 0x1CAA JUMP JUMPDEST PUSH1 0x0 DUP1 SLOAD PUSH1 0x1 PUSH1 0x1 PUSH1 0xA0 SHL SUB NOT DUP2 AND DUP3 SSTORE PUSH1 0x1 PUSH1 0x1 PUSH1 0xA0 SHL SUB AND PUSH32 0x8BE0079C531659141344CD1FD0A4F28419497F9722A3DAAFE3B4186F6B6457E0 DUP3 DUP1 LOG3 STOP JUMPDEST CALLVALUE PUSH2 0x15E JUMPI PUSH1 0x60 CALLDATASIZE PUSH1 0x3 NOT ADD SLT PUSH2 0x15E JUMPI PUSH2 0xEEC PUSH2 0x1AFC JUMP JUMPDEST PUSH2 0xEF4 PUSH2 0x1B12 JUMP JUMPDEST PUSH1 0x1 PUSH1 0x1 PUSH1 0xA0 SHL SUB PUSH1 0x44 CALLDATALOAD DUP2 DUP2 AND SWAP4 SWAP1 DUP5 SWAP1 SUB PUSH2 0x15E JUMPI DUP2 SWAP1 PUSH2 0xF15 PUSH2 0x1CAA JUMP JUMPDEST AND SWAP2 DUP3 ISZERO PUSH2 0xFF0 JUMPI AND SWAP1 DUP2 ISZERO PUSH2 0xFB8 JUMPI DUP3 ISZERO PUSH2 0xF7E JUMPI DUP1 PUSH1 0x0 MSTORE PUSH1 0x7 PUSH1 0x20 MSTORE PUSH1 0x40 PUSH1 0x0 KECCAK256 DUP3 PUSH1 0x0 MSTORE PUSH1 0x20 MSTORE PUSH1 0x40 PUSH1 0x0 KECCAK256 DUP4 PUSH1 0x1 PUSH1 0x1 PUSH1 0x60 SHL SUB PUSH1 0xA0 SHL DUP3 SLOAD AND OR SWAP1 SSTORE PUSH32 0x749F8BD52D751FB993FA16283117F0242F19E5471F5CB26F1185D1028CD803E5 PUSH1 0x0 DUP1 LOG4 STOP JUMPDEST PUSH1 0x40 MLOAD PUSH3 0x461BCD PUSH1 0xE5 SHL DUP2 MSTORE PUSH1 0x20 PUSH1 0x4 DUP3 ADD MSTORE PUSH1 0x12 PUSH1 0x24 DUP3 ADD MSTORE PUSH18 0x125B9D985B1A59081C1C9A58D94819995959 PUSH1 0x72 SHL PUSH1 0x44 DUP3 ADD MSTORE PUSH1 0x64 SWAP1 REVERT JUMPDEST PUSH1 0x40 MLOAD PUSH3 0x461BCD PUSH1 0xE5 SHL DUP2 MSTORE PUSH1 0x20 PUSH1 0x4 DUP3 ADD MSTORE PUSH1 0x10 PUSH1 0x24 DUP3 ADD MSTORE PUSH16 0x24B73B30B634B2103A37903A37B5B2B7 PUSH1 0x81 SHL PUSH1 0x44 DUP3 ADD MSTORE PUSH1 0x64 SWAP1 REVERT JUMPDEST PUSH1 0x40 MLOAD PUSH3 0x461BCD PUSH1 0xE5 SHL DUP2 MSTORE PUSH1 0x20 PUSH1 0x4 DUP3 ADD MSTORE PUSH1 0x12 PUSH1 0x24 DUP3 ADD MSTORE PUSH18 0x24B73B30B634B210333937B6903A37B5B2B7 PUSH1 0x71 SHL PUSH1 0x44 DUP3 ADD MSTORE PUSH1 0x64 SWAP1 REVERT JUMPDEST CALLVALUE PUSH2 0x15E JUMPI PUSH1 0x40 CALLDATASIZE PUSH1 0x3 NOT ADD SLT PUSH2 0x15E JUMPI PUSH2 0x1043 PUSH2 0x1AFC JUMP JUMPDEST PUSH1 0x24 CALLDATALOAD PUSH1 0x1 DUP1 PUSH1 0xA0 SHL SUB DUP1 SWAP3 AND SWAP2 DUP3 PUSH1 0x0 MSTORE PUSH1 0x20 SWAP1 PUSH1 0x5 DUP3 MSTORE PUSH2 0x106D PUSH1 0xFF PUSH1 0x40 PUSH1 0x0 KECCAK256 SLOAD AND PUSH2 0x1D11 JUMP JUMPDEST PUSH1 0x40 MLOAD PUSH4 0x29BC6721 PUSH1 0xE2 SHL DUP2 MSTORE SWAP1 DUP3 DUP3 PUSH1 0x4 DUP2 DUP9 GAS STATICCALL SWAP2 DUP3 ISZERO PUSH2 0x564 JUMPI PUSH1 0x0 SWAP3 PUSH2 0x11C0 JUMPI JUMPDEST POP PUSH1 0x40 MLOAD PUSH4 0xC69DEEC5 PUSH1 0xE0 SHL DUP2 MSTORE CALLER PUSH1 0x4 DUP3 ADD MSTORE PUSH1 0x24 DUP2 ADD DUP6 SWAP1 MSTORE SWAP1 DUP3 AND SWAP1 DUP4 DUP2 PUSH1 0x44 DUP2 DUP6 GAS STATICCALL DUP1 ISZERO PUSH2 0x564 JUMPI PUSH1 0x0 SWAP1 PUSH2 0x118A JUMPI JUMPDEST PUSH2 0x10D1 SWAP2 POP PUSH2 0x1D88 JUMP JUMPDEST PUSH2 0x10DA CALLER PUSH2 0x2A3B JUMP JUMPDEST PUSH1 0x40 MLOAD PUSH4 0x3E491D47 PUSH1 0xE0 SHL DUP2 MSTORE CALLER PUSH1 0x4 DUP3 ADD MSTORE PUSH1 0x24 DUP2 ADD DUP7 SWAP1 MSTORE SWAP1 SWAP2 DUP5 SWAP1 DUP3 SWAP1 PUSH1 0x44 SWAP1 DUP3 SWAP1 GAS STATICCALL SWAP3 DUP4 ISZERO PUSH2 0x564 JUMPI DUP6 SWAP2 PUSH1 0x0 SWAP5 PUSH2 0x1155 JUMPI JUMPDEST POP SWAP2 PUSH2 0x406 PUSH2 0x1124 SWAP3 PUSH1 0x0 SWAP5 CALLER PUSH2 0x1E62 JUMP JUMPDEST SWAP3 PUSH1 0x40 MLOAD SWAP5 DUP6 MSTORE DUP5 ADD MSTORE PUSH1 0x0 PUSH1 0x40 DUP5 ADD MSTORE PUSH1 0x60 DUP4 ADD MSTORE PUSH1 0x80 DUP3 ADD MSTORE PUSH1 0x0 DUP1 MLOAD PUSH1 0x20 PUSH2 0x2AAA DUP4 CODECOPY DUP2 MLOAD SWAP2 MSTORE PUSH1 0xA0 CALLER SWAP3 LOG3 STOP JUMPDEST DUP6 DUP1 SWAP3 SWAP6 POP DUP2 SWAP4 POP RETURNDATASIZE DUP4 GT PUSH2 0x1183 JUMPI JUMPDEST PUSH2 0x116F DUP2 DUP4 PUSH2 0x1B9A JUMP JUMPDEST DUP2 ADD SUB SLT PUSH2 0x15E JUMPI MLOAD SWAP2 DUP5 SWAP1 PUSH2 0x406 PUSH2 0x1112 JUMP JUMPDEST POP RETURNDATASIZE PUSH2 0x1165 JUMP JUMPDEST POP DUP4 DUP2 DUP2 RETURNDATASIZE DUP4 GT PUSH2 0x11B9 JUMPI JUMPDEST PUSH2 0x11A0 DUP2 DUP4 PUSH2 0x1B9A JUMP JUMPDEST DUP2 ADD SUB SLT PUSH2 0x15E JUMPI PUSH2 0x11B4 PUSH2 0x10D1 SWAP2 PUSH2 0x1D7B JUMP JUMPDEST PUSH2 0x10C7 JUMP JUMPDEST POP RETURNDATASIZE PUSH2 0x1196 JUMP JUMPDEST SWAP1 SWAP2 POP DUP3 DUP2 DUP2 RETURNDATASIZE DUP4 GT PUSH2 0x11F0 JUMPI JUMPDEST PUSH2 0x11D8 DUP2 DUP4 PUSH2 0x1B9A JUMP JUMPDEST DUP2 ADD SUB SLT PUSH2 0x15E JUMPI PUSH2 0x11E9 SWAP1 PUSH2 0x1D67 JUMP JUMPDEST SWAP1 DUP6 PUSH2 0x1092 JUMP JUMPDEST POP RETURNDATASIZE PUSH2 0x11CE JUMP JUMPDEST CALLVALUE PUSH2 0x15E JUMPI PUSH1 0x40 CALLDATASIZE PUSH1 0x3 NOT ADD SLT PUSH2 0x15E JUMPI PUSH2 0x1210 PUSH2 0x1AFC JUMP JUMPDEST PUSH2 0x1218 PUSH2 0x1B12 JUMP JUMPDEST SWAP1 PUSH1 0x1 DUP1 PUSH1 0xA0 SHL SUB DUP1 SWAP2 AND PUSH1 0x0 MSTORE PUSH1 0x6 PUSH1 0x20 MSTORE PUSH1 0x40 PUSH1 0x0 KECCAK256 SWAP2 AND PUSH1 0x0 MSTORE PUSH1 0x20 MSTORE PUSH2 0x125C PUSH2 0x1248 PUSH1 0x40 PUSH1 0x0 KECCAK256 PUSH2 0x1BBC JUMP JUMPDEST PUSH1 0x40 MLOAD SWAP2 DUP3 SWAP2 PUSH1 0x20 DUP4 MSTORE PUSH1 0x20 DUP4 ADD SWAP1 PUSH2 0x1C85 JUMP JUMPDEST SUB SWAP1 RETURN JUMPDEST CALLVALUE PUSH2 0x15E JUMPI PUSH1 0x60 CALLDATASIZE PUSH1 0x3 NOT ADD SLT PUSH2 0x15E JUMPI PUSH2 0x1279 PUSH2 0x1AFC JUMP JUMPDEST PUSH2 0x1281 PUSH2 0x1B12 JUMP JUMPDEST SWAP1 PUSH1 0x44 CALLDATALOAD SWAP1 PUSH8 0xFFFFFFFFFFFFFFFF SWAP1 DUP2 DUP4 GT PUSH2 0x15E JUMPI CALLDATASIZE PUSH1 0x23 DUP5 ADD SLT ISZERO PUSH2 0x15E JUMPI DUP3 PUSH1 0x4 ADD CALLDATALOAD SWAP2 DUP3 GT PUSH2 0x15E JUMPI PUSH1 0x24 SWAP1 CALLDATASIZE DUP3 DUP5 DUP7 ADD ADD GT PUSH2 0x15E JUMPI PUSH2 0x12C4 PUSH2 0x1CAA JUMP JUMPDEST PUSH1 0x1 PUSH1 0x1 PUSH1 0xA0 SHL SUB SWAP1 DUP2 AND SWAP5 DUP6 ISZERO PUSH2 0x146C JUMPI AND SWAP4 DUP5 ISZERO PUSH2 0x1436 JUMPI DUP3 ISZERO PUSH2 0x1403 JUMPI PUSH1 0x0 MSTORE PUSH1 0x20 SWAP4 PUSH1 0x6 DUP6 MSTORE PUSH1 0x40 PUSH1 0x0 KECCAK256 SWAP1 PUSH1 0x0 MSTORE DUP5 MSTORE PUSH1 0x40 PUSH1 0x0 KECCAK256 SWAP3 PUSH2 0x1309 DUP5 SLOAD PUSH2 0x1B28 JUMP JUMPDEST PUSH1 0x1F DUP2 GT PUSH2 0x13BD JUMPI JUMPDEST POP PUSH1 0x0 SWAP5 PUSH1 0x1F DUP5 GT PUSH1 0x1 EQ PUSH2 0x1354 JUMPI POP SWAP4 DUP3 SWAP4 SWAP5 PUSH1 0x0 SWAP4 PUSH2 0x1347 JUMPI JUMPDEST POP POP POP PUSH1 0x0 NOT PUSH1 0x3 DUP4 SWAP1 SHL SHR NOT AND PUSH1 0x1 SWAP2 SWAP1 SWAP2 SHL OR SWAP1 SSTORE STOP JUMPDEST ADD ADD CALLDATALOAD SWAP1 POP DUP4 DUP1 DUP1 PUSH2 0x132E JUMP JUMPDEST SWAP2 PUSH1 0x1F NOT DUP5 AND SWAP6 DUP6 PUSH1 0x0 MSTORE DUP4 PUSH1 0x0 KECCAK256 SWAP4 PUSH1 0x0 SWAP1 JUMPDEST DUP9 DUP3 LT PUSH2 0x13A3 JUMPI POP POP DUP5 PUSH1 0x1 SWAP7 SWAP8 LT PUSH2 0x1387 JUMPI JUMPDEST POP POP POP POP DUP2 SHL ADD SWAP1 SSTORE STOP JUMPDEST PUSH1 0x0 NOT PUSH1 0xF8 DUP7 PUSH1 0x3 SHL AND SHR NOT SWAP3 ADD ADD CALLDATALOAD AND SWAP1 SSTORE DUP4 DUP1 DUP1 DUP1 PUSH2 0x137C JUMP JUMPDEST DUP1 PUSH1 0x1 DUP5 SWAP8 DUP7 DUP4 SWAP6 SWAP7 DUP10 ADD ADD CALLDATALOAD DUP2 SSTORE ADD SWAP7 ADD SWAP3 ADD SWAP1 PUSH2 0x1368 JUMP JUMPDEST DUP5 PUSH1 0x0 MSTORE DUP6 PUSH1 0x0 KECCAK256 PUSH1 0x1F DUP6 ADD PUSH1 0x5 SHR DUP2 ADD SWAP2 DUP8 DUP7 LT PUSH2 0x13F9 JUMPI JUMPDEST PUSH1 0x1F ADD PUSH1 0x5 SHR ADD SWAP1 JUMPDEST DUP2 DUP2 LT PUSH2 0x13ED JUMPI POP PUSH2 0x1312 JUMP JUMPDEST PUSH1 0x0 DUP2 SSTORE PUSH1 0x1 ADD PUSH2 0x13E0 JUMP JUMPDEST SWAP1 SWAP2 POP DUP2 SWAP1 PUSH2 0x13D7 JUMP JUMPDEST PUSH1 0x40 MLOAD PUSH3 0x461BCD PUSH1 0xE5 SHL DUP2 MSTORE PUSH1 0x20 PUSH1 0x4 DUP3 ADD MSTORE PUSH1 0xC DUP2 DUP5 ADD MSTORE PUSH12 0x92DCECC2D8D2C840E0C2E8D PUSH1 0xA3 SHL PUSH1 0x44 DUP3 ADD MSTORE PUSH1 0x64 SWAP1 REVERT JUMPDEST PUSH1 0x40 MLOAD PUSH3 0x461BCD PUSH1 0xE5 SHL DUP2 MSTORE PUSH1 0x20 PUSH1 0x4 DUP3 ADD MSTORE PUSH1 0xF DUP2 DUP5 ADD MSTORE PUSH15 0x24B73B30B634B2103A37AA37B5B2B7 PUSH1 0x89 SHL PUSH1 0x44 DUP3 ADD MSTORE PUSH1 0x64 SWAP1 REVERT JUMPDEST PUSH1 0x40 MLOAD PUSH3 0x461BCD PUSH1 0xE5 SHL DUP2 MSTORE PUSH1 0x20 PUSH1 0x4 DUP3 ADD MSTORE PUSH1 0x11 DUP2 DUP6 ADD MSTORE PUSH17 0x24B73B30B634B210333937B6AA37B5B2B7 PUSH1 0x79 SHL PUSH1 0x44 DUP3 ADD MSTORE PUSH1 0x64 SWAP1 REVERT JUMPDEST CALLVALUE PUSH2 0x15E JUMPI PUSH1 0x20 CALLDATASIZE PUSH1 0x3 NOT ADD SLT PUSH2 0x15E JUMPI PUSH2 0x14BD PUSH2 0x1AFC JUMP JUMPDEST PUSH2 0x14C5 PUSH2 0x1CAA JUMP JUMPDEST PUSH1 0x1 PUSH1 0x1 PUSH1 0xA0 SHL SUB AND PUSH2 0x14D9 DUP2 ISZERO ISZERO PUSH2 0x1CD6 JUMP JUMPDEST PUSH1 0x0 DUP2 DUP2 MSTORE PUSH1 0x5 PUSH1 0x20 MSTORE PUSH1 0x40 DUP2 KECCAK256 DUP1 SLOAD PUSH1 0xFF NOT AND PUSH1 0x1 OR SWAP1 SSTORE PUSH32 0xFC1F1E73948CBC47C5B7F90E5601B7DACCD9AD7173218486CCC74BDD051D05E8 DUP2 DUP1 LOG3 STOP JUMPDEST CALLVALUE PUSH2 0x15E JUMPI PUSH1 0x20 CALLDATASIZE PUSH1 0x3 NOT ADD SLT PUSH2 0x15E JUMPI PUSH2 0x1531 PUSH2 0x1AFC JUMP JUMPDEST PUSH2 0x1539 PUSH2 0x1CAA JUMP JUMPDEST PUSH1 0x1 PUSH1 0x1 PUSH1 0xA0 SHL SUB AND PUSH2 0x154D DUP2 ISZERO ISZERO PUSH2 0x1CD6 JUMP JUMPDEST PUSH1 0x0 DUP2 DUP2 MSTORE PUSH1 0x5 PUSH1 0x20 MSTORE PUSH1 0x40 DUP2 KECCAK256 DUP1 SLOAD PUSH1 0xFF NOT AND SWAP1 SSTORE PUSH32 0x987EB3C2F78454541205F72F34839B434C306C9EAF4922EFD7C0C3060FDB2E4C DUP2 DUP1 LOG3 STOP JUMPDEST CALLVALUE PUSH2 0x15E JUMPI PUSH1 0x40 CALLDATASIZE PUSH1 0x3 NOT ADD SLT PUSH2 0x15E JUMPI PUSH2 0x15A2 PUSH2 0x1AFC JUMP JUMPDEST PUSH1 0x24 DUP1 CALLDATALOAD SWAP1 PUSH1 0x1 DUP1 PUSH1 0xA0 SHL SUB DUP1 SWAP4 AND SWAP3 DUP4 PUSH1 0x0 MSTORE PUSH1 0x20 SWAP2 PUSH1 0x5 DUP4 MSTORE PUSH2 0x15CE PUSH1 0xFF PUSH1 0x40 PUSH1 0x0 KECCAK256 SLOAD AND PUSH2 0x1D11 JUMP JUMPDEST PUSH1 0x40 MLOAD PUSH4 0x23E66501 PUSH1 0xE1 SHL DUP2 MSTORE SWAP1 DUP4 DUP3 PUSH1 0x4 DUP2 DUP10 GAS STATICCALL SWAP2 DUP3 ISZERO PUSH2 0x564 JUMPI PUSH1 0x0 SWAP3 PUSH2 0x1A2E JUMPI JUMPDEST POP PUSH1 0x40 MLOAD PUSH4 0x29BC6721 PUSH1 0xE2 SHL DUP2 MSTORE SWAP1 DUP5 DUP3 PUSH1 0x4 DUP2 DUP11 GAS STATICCALL SWAP2 DUP3 ISZERO PUSH2 0x564 JUMPI PUSH1 0x0 SWAP3 PUSH2 0x19F7 JUMPI JUMPDEST POP PUSH1 0x40 MLOAD PUSH4 0xC69DEEC5 PUSH1 0xE0 SHL DUP2 MSTORE CALLER PUSH1 0x4 DUP3 ADD MSTORE PUSH1 0x24 DUP2 ADD DUP8 SWAP1 MSTORE DUP5 DUP5 AND SWAP5 DUP4 AND SWAP3 SWAP1 DUP7 DUP2 PUSH1 0x44 DUP2 DUP8 GAS STATICCALL SWAP1 DUP2 ISZERO PUSH2 0x564 JUMPI PUSH1 0x0 SWAP2 PUSH2 0x19C2 JUMPI JUMPDEST POP PUSH2 0x197E JUMPI PUSH2 0x1661 CALLER PUSH2 0x2A3B JUMP JUMPDEST SWAP3 PUSH1 0x40 MLOAD SWAP5 PUSH4 0x133F7571 PUSH1 0xE3 SHL DUP7 MSTORE DUP9 PUSH1 0x4 DUP8 ADD MSTORE PUSH2 0x180 SWAP6 DUP7 DUP2 DUP7 DUP2 DUP12 GAS STATICCALL SWAP8 DUP9 ISZERO PUSH2 0x564 JUMPI DUP10 SWAP2 PUSH1 0x0 SWAP9 PUSH1 0x0 SWAP11 PUSH2 0x1947 JUMPI JUMPDEST POP POP SWAP1 DUP3 SWAP2 PUSH2 0x16A8 DUP13 PUSH1 0x44 SWAP7 SWAP6 CALLER PUSH2 0x2861 JUMP JUMPDEST SWAP11 DUP2 DUP1 SWAP12 DUP14 SWAP4 PUSH2 0x1932 JUMPI JUMPDEST POP POP DUP2 PUSH2 0x191D JUMPI JUMPDEST POP POP PUSH1 0x40 MLOAD SWAP5 DUP6 DUP1 SWAP3 PUSH4 0xE985E9C5 PUSH1 0xE0 SHL DUP3 MSTORE CALLER PUSH1 0x4 DUP4 ADD MSTORE DUP7 DUP11 DUP4 ADD MSTORE GAS STATICCALL DUP1 ISZERO PUSH2 0x564 JUMPI DUP10 SWAP4 PUSH1 0x0 SWAP2 PUSH2 0x18E7 JUMPI JUMPDEST POP ISZERO PUSH2 0x17DB JUMPI JUMPDEST POP POP PUSH1 0x40 MLOAD PUSH4 0xB6B55F25 PUSH1 0xE0 SHL DUP3 DUP3 ADD MSTORE DUP4 DUP2 ADD DUP10 SWAP1 MSTORE DUP4 DUP2 MSTORE PUSH2 0x1719 SWAP3 PUSH2 0x474 DUP3 PUSH2 0x1B7E JUMP JUMPDEST SUB DUP2 PUSH1 0x0 CALLER GAS CALL SWAP1 DUP2 ISZERO PUSH2 0x564 JUMPI PUSH1 0x0 SWAP2 PUSH2 0x17A6 JUMPI JUMPDEST POP ISZERO PUSH2 0x1774 JUMPI POP PUSH2 0x1743 SWAP1 PUSH2 0x40F CALLER PUSH2 0x2A3B JUMP JUMPDEST SWAP3 PUSH1 0x40 MLOAD SWAP5 DUP6 MSTORE DUP5 ADD MSTORE PUSH1 0x40 DUP4 ADD MSTORE PUSH1 0x0 PUSH1 0x60 DUP4 ADD MSTORE PUSH1 0x80 DUP3 ADD MSTORE PUSH1 0x0 DUP1 MLOAD PUSH1 0x20 PUSH2 0x2AAA DUP4 CODECOPY DUP2 MLOAD SWAP2 MSTORE PUSH1 0xA0 CALLER SWAP3 LOG3 STOP JUMPDEST DUP5 PUSH1 0xC PUSH1 0x64 SWAP3 PUSH1 0x40 MLOAD SWAP3 PUSH3 0x461BCD PUSH1 0xE5 SHL DUP5 MSTORE PUSH1 0x4 DUP5 ADD MSTORE DUP3 ADD MSTORE PUSH12 0x14DD185AD94819985A5B1959 PUSH1 0xA2 SHL PUSH1 0x44 DUP3 ADD MSTORE REVERT JUMPDEST SWAP1 POP DUP6 DUP2 DUP2 RETURNDATASIZE DUP4 GT PUSH2 0x17D4 JUMPI JUMPDEST PUSH2 0x17BD DUP2 DUP4 PUSH2 0x1B9A JUMP JUMPDEST DUP2 ADD SUB SLT PUSH2 0x15E JUMPI PUSH2 0x17CE SWAP1 PUSH2 0x1D7B JUMP JUMPDEST DUP9 PUSH2 0x172F JUMP JUMPDEST POP RETURNDATASIZE PUSH2 0x17B3 JUMP JUMPDEST SWAP1 SWAP2 POP PUSH1 0x40 MLOAD SWAP2 PUSH4 0xA22CB465 PUSH1 0xE0 SHL DUP10 DUP5 ADD MSTORE DUP5 DUP4 ADD MSTORE PUSH1 0x1 PUSH1 0x44 DUP4 ADD MSTORE PUSH1 0x44 DUP3 MSTORE PUSH1 0x80 DUP3 ADD SWAP1 DUP3 DUP3 LT PUSH8 0xFFFFFFFFFFFFFFFF DUP4 GT OR PUSH2 0x18D2 JUMPI DUP2 DUP10 SWAP2 DUP2 PUSH1 0x40 MSTORE PUSH4 0x468721A7 PUSH1 0xE0 SHL DUP3 MSTORE DUP5 PUSH2 0x1838 DUP2 PUSH1 0x7F NOT SWAP4 PUSH1 0x84 DUP3 ADD PUSH2 0x1DED JUMP JUMPDEST SUB ADD DUP2 PUSH1 0x0 CALLER GAS CALL SWAP2 DUP3 ISZERO PUSH2 0x564 JUMPI DUP9 SWAP1 PUSH1 0x0 SWAP4 PUSH2 0x189B JUMPI JUMPDEST POP POP POP ISZERO PUSH2 0x1861 JUMPI DUP6 DUP10 DUP1 PUSH2 0x16F2 JUMP JUMPDEST PUSH1 0x40 MLOAD PUSH3 0x461BCD PUSH1 0xE5 SHL DUP2 MSTORE PUSH1 0x4 DUP2 ADD DUP8 SWAP1 MSTORE PUSH1 0x13 DUP2 DUP5 ADD MSTORE PUSH19 0x13919508185C1C1C9BDD985B0819985A5B1959 PUSH1 0x6A SHL PUSH1 0x44 DUP3 ADD MSTORE PUSH1 0x64 SWAP1 REVERT JUMPDEST SWAP1 DUP1 SWAP3 SWAP4 POP RETURNDATASIZE DUP4 GT PUSH2 0x18CB JUMPI JUMPDEST PUSH2 0x18B2 DUP2 DUP6 PUSH2 0x1B9A JUMP JUMPDEST DUP2 ADD SUB SLT PUSH2 0x15E JUMPI PUSH2 0x18C3 SWAP1 PUSH2 0x1D7B JUMP JUMPDEST DUP10 DUP8 DUP2 PUSH2 0x1851 JUMP JUMPDEST POP RETURNDATASIZE PUSH2 0x18A8 JUMP JUMPDEST DUP5 PUSH4 0x4E487B71 PUSH1 0xE0 SHL PUSH1 0x0 MSTORE PUSH1 0x41 PUSH1 0x4 MSTORE PUSH1 0x0 REVERT JUMPDEST DUP5 DUP2 SWAP6 SWAP3 POP RETURNDATASIZE DUP4 GT PUSH2 0x1916 JUMPI JUMPDEST PUSH2 0x18FE DUP2 DUP4 PUSH2 0x1B9A JUMP JUMPDEST DUP2 ADD SUB SLT PUSH2 0x15E JUMPI PUSH2 0x1910 DUP10 SWAP4 PUSH2 0x1D7B JUMP JUMPDEST DUP13 PUSH2 0x16EB JUMP JUMPDEST POP RETURNDATASIZE PUSH2 0x18F4 JUMP JUMPDEST PUSH2 0x192B SWAP2 PUSH2 0x5FA SWAP2 CALLER PUSH2 0x20AD JUMP JUMPDEST DUP10 DUP15 PUSH2 0x16BB JUMP JUMPDEST PUSH2 0x1940 SWAP2 PUSH2 0x614 SWAP2 CALLER PUSH2 0x20AD JUMP JUMPDEST DUP11 CODESIZE PUSH2 0x16B3 JUMP JUMPDEST PUSH2 0x1965 SWAP3 SWAP11 POP PUSH1 0x44 SWAP6 SWAP5 SWAP4 SWAP10 POP DUP1 RETURNDATASIZE LT PUSH2 0x6CF JUMPI PUSH2 0x6B2 DUP2 DUP4 PUSH2 0x1B9A JUMP JUMPDEST POP POP POP POP POP POP POP POP SWAP10 SWAP3 POP SWAP1 POP SWAP8 SWAP9 SWAP1 SWAP2 SWAP3 SWAP4 DUP14 PUSH2 0x1695 JUMP JUMPDEST PUSH1 0x40 MLOAD PUSH3 0x461BCD PUSH1 0xE5 SHL DUP2 MSTORE PUSH1 0x4 DUP2 ADD DUP8 SWAP1 MSTORE PUSH1 0x17 DUP2 DUP5 ADD MSTORE PUSH32 0x506F736974696F6E20616C7265616479207374616B6564000000000000000000 PUSH1 0x44 DUP3 ADD MSTORE PUSH1 0x64 SWAP1 REVERT JUMPDEST SWAP1 POP DUP7 DUP2 DUP2 RETURNDATASIZE DUP4 GT PUSH2 0x19F0 JUMPI JUMPDEST PUSH2 0x19D9 DUP2 DUP4 PUSH2 0x1B9A JUMP JUMPDEST DUP2 ADD SUB SLT PUSH2 0x15E JUMPI PUSH2 0x19EA SWAP1 PUSH2 0x1D7B JUMP JUMPDEST DUP10 PUSH2 0x1653 JUMP JUMPDEST POP RETURNDATASIZE PUSH2 0x19CF JUMP JUMPDEST SWAP1 SWAP2 POP DUP5 DUP2 DUP2 RETURNDATASIZE DUP4 GT PUSH2 0x1A27 JUMPI JUMPDEST PUSH2 0x1A0F DUP2 DUP4 PUSH2 0x1B9A JUMP JUMPDEST DUP2 ADD SUB SLT PUSH2 0x15E JUMPI PUSH2 0x1A20 SWAP1 PUSH2 0x1D67 JUMP JUMPDEST SWAP1 DUP8 PUSH2 0x1619 JUMP JUMPDEST POP RETURNDATASIZE PUSH2 0x1A05 JUMP JUMPDEST SWAP1 SWAP2 POP DUP4 DUP2 DUP2 RETURNDATASIZE DUP4 GT PUSH2 0x1A5E JUMPI JUMPDEST PUSH2 0x1A46 DUP2 DUP4 PUSH2 0x1B9A JUMP JUMPDEST DUP2 ADD SUB SLT PUSH2 0x15E JUMPI PUSH2 0x1A57 SWAP1 PUSH2 0x1D67 JUMP JUMPDEST SWAP1 DUP7 PUSH2 0x15F3 JUMP JUMPDEST POP RETURNDATASIZE PUSH2 0x1A3C JUMP JUMPDEST CALLVALUE PUSH2 0x15E JUMPI PUSH1 0x20 CALLDATASIZE PUSH1 0x3 NOT ADD SLT PUSH2 0x15E JUMPI PUSH1 0x4 CALLDATALOAD PUSH2 0x1A81 PUSH2 0x1CAA JUMP JUMPDEST PUSH2 0x3E8 DUP2 GT PUSH2 0x1AC3 JUMPI PUSH1 0x40 PUSH32 0xDDD31550B26E9EF8ADE466958BE83FF8A014D9B4F36D546B61A6847A45306575 SWAP2 PUSH1 0x4 SLOAD SWAP1 DUP1 PUSH1 0x4 SSTORE DUP3 MLOAD SWAP2 DUP3 MSTORE PUSH1 0x20 DUP3 ADD MSTORE LOG1 STOP JUMPDEST PUSH1 0x40 MLOAD PUSH3 0x461BCD PUSH1 0xE5 SHL DUP2 MSTORE PUSH1 0x20 PUSH1 0x4 DUP3 ADD MSTORE PUSH1 0x11 PUSH1 0x24 DUP3 ADD MSTORE PUSH17 0xA6D8D2E0E0C2CECA40E8DEDE40D0D2CED PUSH1 0x7B SHL PUSH1 0x44 DUP3 ADD MSTORE PUSH1 0x64 SWAP1 REVERT JUMPDEST PUSH1 0x4 CALLDATALOAD SWAP1 PUSH1 0x1 PUSH1 0x1 PUSH1 0xA0 SHL SUB DUP3 AND DUP3 SUB PUSH2 0x15E JUMPI JUMP JUMPDEST PUSH1 0x24 CALLDATALOAD SWAP1 PUSH1 0x1 PUSH1 0x1 PUSH1 0xA0 SHL SUB DUP3 AND DUP3 SUB PUSH2 0x15E JUMPI JUMP JUMPDEST SWAP1 PUSH1 0x1 DUP3 DUP2 SHR SWAP3 AND DUP1 ISZERO PUSH2 0x1B58 JUMPI JUMPDEST PUSH1 0x20 DUP4 LT EQ PUSH2 0x1B42 JUMPI JUMP JUMPDEST PUSH4 0x4E487B71 PUSH1 0xE0 SHL PUSH1 0x0 MSTORE PUSH1 0x22 PUSH1 0x4 MSTORE PUSH1 0x24 PUSH1 0x0 REVERT JUMPDEST SWAP2 PUSH1 0x7F AND SWAP2 PUSH2 0x1B37 JUMP JUMPDEST PUSH1 0xA0 DUP2 ADD SWAP1 DUP2 LT PUSH8 0xFFFFFFFFFFFFFFFF DUP3 GT OR PUSH2 0xB8F JUMPI PUSH1 0x40 MSTORE JUMP JUMPDEST PUSH1 0x60 DUP2 ADD SWAP1 DUP2 LT PUSH8 0xFFFFFFFFFFFFFFFF DUP3 GT OR PUSH2 0xB8F JUMPI PUSH1 0x40 MSTORE JUMP JUMPDEST SWAP1 PUSH1 0x1F DUP1 NOT SWAP2 ADD AND DUP2 ADD SWAP1 DUP2 LT PUSH8 0xFFFFFFFFFFFFFFFF DUP3 GT OR PUSH2 0xB8F JUMPI PUSH1 0x40 MSTORE JUMP JUMPDEST SWAP1 PUSH1 0x40 MLOAD SWAP2 DUP3 PUSH1 0x0 DUP3 SLOAD SWAP3 PUSH2 0x1BD0 DUP5 PUSH2 0x1B28 JUMP JUMPDEST SWAP1 DUP2 DUP5 MSTORE PUSH1 0x1 SWAP5 DUP6 DUP2 AND SWAP1 DUP2 PUSH1 0x0 EQ PUSH2 0x1C3F JUMPI POP PUSH1 0x1 EQ PUSH2 0x1BFC JUMPI JUMPDEST POP POP PUSH2 0x1BFA SWAP3 POP SUB DUP4 PUSH2 0x1B9A JUMP JUMPDEST JUMP JUMPDEST SWAP1 SWAP4 SWAP2 POP PUSH1 0x0 MSTORE PUSH1 0x20 SWAP1 DUP2 PUSH1 0x0 KECCAK256 SWAP4 PUSH1 0x0 SWAP2 JUMPDEST DUP2 DUP4 LT PUSH2 0x1C27 JUMPI POP POP PUSH2 0x1BFA SWAP4 POP DUP3 ADD ADD CODESIZE DUP1 PUSH2 0x1BEC JUMP JUMPDEST DUP6 SLOAD DUP9 DUP5 ADD DUP6 ADD MSTORE SWAP5 DUP6 ADD SWAP5 DUP8 SWAP5 POP SWAP2 DUP4 ADD SWAP2 PUSH2 0x1C0F JUMP JUMPDEST SWAP2 POP POP PUSH2 0x1BFA SWAP5 POP PUSH1 0x20 SWAP3 POP PUSH1 0xFF NOT AND DUP3 DUP5 ADD MSTORE ISZERO ISZERO PUSH1 0x5 SHL DUP3 ADD ADD CODESIZE DUP1 PUSH2 0x1BEC JUMP JUMPDEST PUSH1 0x0 JUMPDEST DUP4 DUP2 LT PUSH2 0x1C75 JUMPI POP POP PUSH1 0x0 SWAP2 ADD MSTORE JUMP JUMPDEST DUP2 DUP2 ADD MLOAD DUP4 DUP3 ADD MSTORE PUSH1 0x20 ADD PUSH2 0x1C65 JUMP JUMPDEST SWAP1 PUSH1 0x20 SWAP2 PUSH2 0x1C9E DUP2 MLOAD DUP1 SWAP3 DUP2 DUP6 MSTORE DUP6 DUP1 DUP7 ADD SWAP2 ADD PUSH2 0x1C62 JUMP JUMPDEST PUSH1 0x1F ADD PUSH1 0x1F NOT AND ADD ADD SWAP1 JUMP JUMPDEST PUSH1 0x0 SLOAD PUSH1 0x1 PUSH1 0x1 PUSH1 0xA0 SHL SUB AND CALLER SUB PUSH2 0x1CBE JUMPI JUMP JUMPDEST PUSH1 0x40 MLOAD PUSH4 0x118CDAA7 PUSH1 0xE0 SHL DUP2 MSTORE CALLER PUSH1 0x4 DUP3 ADD MSTORE PUSH1 0x24 SWAP1 REVERT JUMPDEST ISZERO PUSH2 0x1CDD JUMPI JUMP JUMPDEST PUSH1 0x40 MLOAD PUSH3 0x461BCD PUSH1 0xE5 SHL DUP2 MSTORE PUSH1 0x20 PUSH1 0x4 DUP3 ADD MSTORE PUSH1 0xC PUSH1 0x24 DUP3 ADD MSTORE PUSH12 0x125B9D985B1A59081C1BDBDB PUSH1 0xA2 SHL PUSH1 0x44 DUP3 ADD MSTORE PUSH1 0x64 SWAP1 REVERT JUMPDEST ISZERO PUSH2 0x1D18 JUMPI JUMP JUMPDEST PUSH1 0x40 MLOAD PUSH3 0x461BCD PUSH1 0xE5 SHL DUP2 MSTORE PUSH1 0x20 PUSH1 0x4 DUP3 ADD MSTORE PUSH1 0x21 PUSH1 0x24 DUP3 ADD MSTORE PUSH32 0x506F6F6C206E6F7420617070726F76656420666F722074686973206D6F64756C PUSH1 0x44 DUP3 ADD MSTORE PUSH1 0x65 PUSH1 0xF8 SHL PUSH1 0x64 DUP3 ADD MSTORE PUSH1 0x84 SWAP1 REVERT JUMPDEST MLOAD SWAP1 PUSH1 0x1 PUSH1 0x1 PUSH1 0xA0 SHL SUB DUP3 AND DUP3 SUB PUSH2 0x15E JUMPI JUMP JUMPDEST MLOAD SWAP1 DUP2 ISZERO ISZERO DUP3 SUB PUSH2 0x15E JUMPI JUMP JUMPDEST ISZERO PUSH2 0x1D8F JUMPI JUMP JUMPDEST PUSH1 0x40 MLOAD PUSH3 0x461BCD PUSH1 0xE5 SHL DUP2 MSTORE PUSH1 0x20 PUSH1 0x4 DUP3 ADD MSTORE PUSH1 0x13 PUSH1 0x24 DUP3 ADD MSTORE PUSH19 0x141BDCDA5D1A5BDB881B9BDD081CDD185AD959 PUSH1 0x6A SHL PUSH1 0x44 DUP3 ADD MSTORE PUSH1 0x64 SWAP1 REVERT JUMPDEST SWAP2 SWAP1 DUP3 SUB SWAP2 DUP3 GT PUSH2 0x1DD7 JUMPI JUMP JUMPDEST PUSH4 0x4E487B71 PUSH1 0xE0 SHL PUSH1 0x0 MSTORE PUSH1 0x11 PUSH1 0x4 MSTORE PUSH1 0x24 PUSH1 0x0 REVERT JUMPDEST SWAP3 SWAP2 PUSH2 0x1E19 PUSH1 0x60 SWAP2 PUSH1 0x0 SWAP4 PUSH1 0x1 DUP1 PUSH1 0xA0 SHL SUB AND DUP7 MSTORE DUP4 PUSH1 0x20 DUP8 ADD MSTORE PUSH1 0x80 PUSH1 0x40 DUP8 ADD MSTORE PUSH1 0x80 DUP7 ADD SWAP1 PUSH2 0x1C85 JUMP JUMPDEST SWAP4 ADD MSTORE JUMP JUMPDEST ISZERO PUSH2 0x1E25 JUMPI JUMP JUMPDEST PUSH1 0x40 MLOAD PUSH3 0x461BCD PUSH1 0xE5 SHL DUP2 MSTORE PUSH1 0x20 PUSH1 0x4 DUP3 ADD MSTORE PUSH1 0x15 PUSH1 0x24 DUP3 ADD MSTORE PUSH21 0x14DDD85C081D1BC81CDD18589B194819985A5B1959 PUSH1 0x5A SHL PUSH1 0x44 DUP3 ADD MSTORE PUSH1 0x64 SWAP1 REVERT JUMPDEST SWAP2 PUSH1 0x1 PUSH1 0x1 PUSH1 0xA0 SHL SUB SWAP2 DUP1 DUP4 AND SWAP2 DUP3 ISZERO PUSH2 0x2078 JUMPI PUSH1 0x40 DUP1 MLOAD PUSH4 0xC69DEEC5 PUSH1 0xE0 SHL DUP2 MSTORE DUP6 DUP8 AND PUSH1 0x1 PUSH1 0x1 PUSH1 0xA0 SHL SUB DUP2 AND PUSH1 0x4 DUP4 ADD MSTORE PUSH1 0x24 DUP3 ADD DUP5 SWAP1 MSTORE PUSH1 0x20 SWAP5 SWAP3 SWAP4 SWAP3 SWAP1 SWAP2 DUP6 DUP2 PUSH1 0x44 DUP2 DUP11 GAS STATICCALL DUP1 ISZERO PUSH2 0x206D JUMPI PUSH1 0x0 SWAP1 PUSH2 0x2037 JUMPI JUMPDEST PUSH2 0x1EC5 SWAP2 POP PUSH2 0x1D88 JUMP JUMPDEST DUP4 MLOAD PUSH4 0x3E491D47 PUSH1 0xE0 SHL DUP2 MSTORE PUSH1 0x1 PUSH1 0x1 PUSH1 0xA0 SHL SUB DUP4 AND PUSH1 0x4 DUP3 ADD MSTORE PUSH1 0x24 DUP2 ADD DUP5 SWAP1 MSTORE SWAP6 DUP6 SWAP1 DUP8 SWAP1 PUSH1 0x44 SWAP1 DUP3 SWAP1 GAS STATICCALL SWAP6 DUP7 ISZERO PUSH2 0x202C JUMPI PUSH1 0x0 SWAP7 PUSH2 0x1FFD JUMPI JUMPDEST POP SWAP2 DUP5 SWAP2 PUSH2 0x1F48 SWAP4 DUP6 MLOAD SWAP3 PUSH4 0x2E1A7D4D PUSH1 0xE0 SHL DUP6 DUP6 ADD MSTORE PUSH1 0x24 DUP5 ADD MSTORE PUSH1 0x24 DUP4 MSTORE PUSH2 0x1F2B DUP4 PUSH2 0x1B7E JUMP JUMPDEST PUSH1 0x0 DUP7 MLOAD DUP1 SWAP7 DUP2 SWAP6 DUP3 SWAP5 PUSH4 0x468721A7 PUSH1 0xE0 SHL DUP5 MSTORE PUSH1 0x4 DUP5 ADD PUSH2 0x1DED JUMP JUMPDEST SUB SWAP3 GAS CALL SWAP1 DUP2 ISZERO PUSH2 0x1FF2 JUMPI PUSH1 0x0 SWAP2 PUSH2 0x1FBA JUMPI JUMPDEST POP ISZERO PUSH2 0x1F7F JUMPI POP POP DUP1 PUSH2 0x1F6D JUMPI POP POP POP JUMP JUMPDEST PUSH2 0x1BFA SWAP3 PUSH2 0x4D9 SWAP3 PUSH1 0x1 SLOAD AND SWAP1 PUSH2 0x20AD JUMP JUMPDEST PUSH1 0x64 SWAP3 POP MLOAD SWAP1 PUSH3 0x461BCD PUSH1 0xE5 SHL DUP3 MSTORE PUSH1 0x4 DUP3 ADD MSTORE PUSH1 0x15 PUSH1 0x24 DUP3 ADD MSTORE PUSH21 0x11D85D59D9481DDA5D1A191C985DC819985A5B1959 PUSH1 0x5A SHL PUSH1 0x44 DUP3 ADD MSTORE REVERT JUMPDEST SWAP1 DUP4 DUP3 DUP2 RETURNDATASIZE DUP4 GT PUSH2 0x1FEB JUMPI JUMPDEST PUSH2 0x1FD0 DUP2 DUP4 PUSH2 0x1B9A JUMP JUMPDEST DUP2 ADD SUB SLT PUSH2 0x1FE8 JUMPI POP PUSH2 0x1FE2 SWAP1 PUSH2 0x1D7B JUMP JUMPDEST CODESIZE PUSH2 0x1F5B JUMP JUMPDEST DUP1 REVERT JUMPDEST POP RETURNDATASIZE PUSH2 0x1FC6 JUMP JUMPDEST DUP3 MLOAD RETURNDATASIZE PUSH1 0x0 DUP3 RETURNDATACOPY RETURNDATASIZE SWAP1 REVERT JUMPDEST SWAP1 SWAP6 DUP6 DUP3 DUP2 RETURNDATASIZE DUP4 GT PUSH2 0x2025 JUMPI JUMPDEST PUSH2 0x2014 DUP2 DUP4 PUSH2 0x1B9A JUMP JUMPDEST DUP2 ADD SUB SLT PUSH2 0x1FE8 JUMPI POP MLOAD SWAP5 DUP5 PUSH2 0x1F02 JUMP JUMPDEST POP RETURNDATASIZE PUSH2 0x200A JUMP JUMPDEST DUP5 MLOAD RETURNDATASIZE PUSH1 0x0 DUP3 RETURNDATACOPY RETURNDATASIZE SWAP1 REVERT JUMPDEST DUP7 DUP3 DUP2 RETURNDATASIZE DUP4 GT PUSH2 0x2066 JUMPI JUMPDEST PUSH2 0x204C DUP2 DUP4 PUSH2 0x1B9A JUMP JUMPDEST DUP2 ADD SUB SLT PUSH2 0x1FE8 JUMPI POP PUSH2 0x2061 PUSH2 0x1EC5 SWAP2 PUSH2 0x1D7B JUMP JUMPDEST PUSH2 0x1EBB JUMP JUMPDEST POP RETURNDATASIZE PUSH2 0x2042 JUMP JUMPDEST DUP6 MLOAD RETURNDATASIZE PUSH1 0x0 DUP3 RETURNDATACOPY RETURNDATASIZE SWAP1 REVERT JUMPDEST PUSH1 0x40 MLOAD PUSH3 0x461BCD PUSH1 0xE5 SHL DUP2 MSTORE PUSH1 0x20 PUSH1 0x4 DUP3 ADD MSTORE PUSH1 0xD PUSH1 0x24 DUP3 ADD MSTORE PUSH13 0x496E76616C6964206761756765 PUSH1 0x98 SHL PUSH1 0x44 DUP3 ADD MSTORE PUSH1 0x64 SWAP1 REVERT JUMPDEST SWAP2 SWAP1 DUP2 ISZERO PUSH2 0x2364 JUMPI PUSH1 0x2 SLOAD PUSH1 0x1 PUSH1 0x1 PUSH1 0xA0 SHL SUB SWAP1 DUP2 AND SWAP4 DUP3 DUP3 AND SWAP3 SWAP1 SWAP2 SWAP1 DUP4 DUP7 EQ PUSH2 0x2359 JUMPI PUSH1 0x0 SWAP4 DUP5 MSTORE PUSH1 0x20 SWAP3 PUSH1 0x6 DUP5 MSTORE PUSH1 0x40 SWAP7 DUP8 DUP7 KECCAK256 SWAP1 DUP7 MSTORE DUP5 MSTORE PUSH2 0x20F4 DUP8 DUP7 KECCAK256 PUSH2 0x1BBC JUMP JUMPDEST DUP1 MLOAD ISZERO PUSH2 0x2321 JUMPI PUSH1 0x3 SLOAD DUP9 MLOAD PUSH4 0x95EA7B3 PUSH1 0xE0 SHL DUP8 DUP3 ADD MSTORE SWAP1 DUP6 AND PUSH1 0x1 PUSH1 0x1 PUSH1 0xA0 SHL SUB AND PUSH1 0x24 DUP3 ADD MSTORE PUSH1 0x44 DUP1 DUP3 ADD DUP10 SWAP1 MSTORE DUP2 MSTORE SWAP7 PUSH1 0x1F NOT SWAP3 DUP6 SWAP1 PUSH2 0x2139 PUSH1 0x64 DUP12 PUSH2 0x1B9A JUMP JUMPDEST AND SWAP4 DUP10 MLOAD DUP8 DUP2 DUP1 PUSH2 0x2159 PUSH4 0x468721A7 PUSH1 0xE0 SHL SWAP14 DUP15 DUP4 MSTORE DUP7 PUSH1 0x4 DUP5 ADD PUSH2 0x1DED JUMP JUMPDEST SUB DUP2 DUP13 DUP11 GAS CALL SWAP1 DUP2 ISZERO PUSH2 0x2317 JUMPI DUP10 SWAP2 PUSH2 0x22DE JUMPI JUMPDEST POP ISZERO PUSH2 0x22A3 JUMPI DUP2 PUSH2 0x217D SWAP2 PUSH2 0x237F JUMP JUMPDEST PUSH2 0x12C TIMESTAMP ADD SWAP2 DUP3 TIMESTAMP GT PUSH2 0x228F JUMPI SWAP2 DUP7 SWAP6 SWAP5 SWAP3 SWAP2 DUP9 SWAP8 SWAP5 SWAP3 DUP13 MLOAD SWAP4 PUSH2 0x21A0 DUP6 PUSH2 0x1B62 JUMP JUMPDEST DUP5 MSTORE DUP9 DUP5 ADD SWAP3 DUP8 DUP5 MSTORE DUP14 DUP6 ADD SWAP1 DUP2 MSTORE PUSH1 0x60 DUP6 ADD SWAP2 DUP3 MSTORE PUSH1 0x80 DUP6 ADD SWAP3 DUP4 MSTORE DUP14 MLOAD SWAP9 DUP10 SWAP6 PUSH4 0xC04B8D59 PUSH1 0xE0 SHL DUP13 DUP9 ADD MSTORE DUP12 PUSH1 0x24 DUP9 ADD MSTORE MLOAD PUSH1 0x44 DUP8 ADD PUSH1 0xA0 SWAP1 MSTORE PUSH1 0xE4 DUP8 ADD PUSH2 0x21EA SWAP2 PUSH2 0x1C85 JUMP JUMPDEST SWAP5 MLOAD AND PUSH1 0x64 DUP7 ADD MSTORE MLOAD PUSH1 0x84 DUP6 ADD MSTORE MLOAD PUSH1 0xA4 DUP5 ADD MSTORE MLOAD PUSH1 0xC4 DUP4 ADD MSTORE SUB SWAP1 DUP2 ADD DUP5 MSTORE PUSH2 0x2214 SWAP1 DUP5 PUSH2 0x1B9A JUMP JUMPDEST PUSH1 0x3 SLOAD AND SWAP6 DUP6 DUP9 MLOAD DUP1 SWAP9 DUP2 SWAP6 DUP3 SWAP5 DUP4 MSTORE PUSH1 0x4 DUP4 ADD SWAP2 PUSH2 0x2232 SWAP3 PUSH2 0x1DED JUMP JUMPDEST SUB SWAP3 GAS CALL SWAP4 DUP5 ISZERO PUSH2 0x2284 JUMPI POP DUP2 SWAP4 PUSH2 0x224B JUMPI JUMPDEST POP POP POP SWAP1 JUMP JUMPDEST SWAP1 SWAP2 DUP1 SWAP4 POP DUP2 RETURNDATASIZE DUP4 GT PUSH2 0x227D JUMPI JUMPDEST PUSH2 0x2263 DUP2 DUP4 PUSH2 0x1B9A JUMP JUMPDEST DUP2 ADD SUB SLT PUSH2 0x1FE8 JUMPI POP PUSH2 0x2275 SWAP1 PUSH2 0x1D7B JUMP JUMPDEST CODESIZE DUP1 DUP1 PUSH2 0x2245 JUMP JUMPDEST POP RETURNDATASIZE PUSH2 0x2259 JUMP JUMPDEST MLOAD SWAP2 RETURNDATASIZE SWAP2 POP DUP3 RETURNDATACOPY RETURNDATASIZE SWAP1 REVERT JUMPDEST PUSH4 0x4E487B71 PUSH1 0xE0 SHL DUP10 MSTORE PUSH1 0x11 PUSH1 0x4 MSTORE PUSH1 0x24 DUP10 REVERT JUMPDEST DUP10 MLOAD PUSH3 0x461BCD PUSH1 0xE5 SHL DUP2 MSTORE PUSH1 0x4 DUP2 ADD DUP9 SWAP1 MSTORE PUSH1 0x14 PUSH1 0x24 DUP3 ADD MSTORE PUSH20 0x151BDAD95B88185C1C1C9BDD994819985A5B1959 PUSH1 0x62 SHL PUSH1 0x44 DUP3 ADD MSTORE PUSH1 0x64 SWAP1 REVERT JUMPDEST SWAP1 POP DUP8 DUP2 DUP2 RETURNDATASIZE DUP4 GT PUSH2 0x2310 JUMPI JUMPDEST PUSH2 0x22F5 DUP2 DUP4 PUSH2 0x1B9A JUMP JUMPDEST DUP2 ADD SUB SLT PUSH2 0x230C JUMPI PUSH2 0x2306 SWAP1 PUSH2 0x1D7B JUMP JUMPDEST CODESIZE PUSH2 0x216D JUMP JUMPDEST DUP9 DUP1 REVERT JUMPDEST POP RETURNDATASIZE PUSH2 0x22EB JUMP JUMPDEST DUP12 MLOAD RETURNDATASIZE DUP12 DUP3 RETURNDATACOPY RETURNDATASIZE SWAP1 REVERT JUMPDEST DUP8 MLOAD PUSH3 0x461BCD PUSH1 0xE5 SHL DUP2 MSTORE PUSH1 0x4 DUP2 ADD DUP7 SWAP1 MSTORE PUSH1 0x11 PUSH1 0x24 DUP3 ADD MSTORE PUSH17 0x14DDD85C081C185D1A081B9BDD081CD95D PUSH1 0x7A SHL PUSH1 0x44 DUP3 ADD MSTORE PUSH1 0x64 SWAP1 REVERT JUMPDEST POP POP POP POP POP POP PUSH1 0x1 SWAP1 JUMP JUMPDEST POP POP POP PUSH1 0x1 SWAP1 JUMP JUMPDEST DUP2 DUP2 MUL SWAP3 SWAP2 DUP2 ISZERO SWAP2 DUP5 DIV EQ OR ISZERO PUSH2 0x1DD7 JUMPI JUMP JUMPDEST PUSH1 0x2 SLOAD PUSH1 0x1 PUSH1 0x1 PUSH1 0xA0 SHL SUB SWAP2 DUP1 DUP4 AND SWAP2 DUP4 AND SWAP1 DUP3 DUP3 EQ PUSH2 0x252F JUMPI PUSH2 0x23CC PUSH2 0x23C7 PUSH32 0x0 SWAP4 DUP5 PUSH2 0x26A1 JUMP JUMPDEST PUSH2 0x254D JUMP JUMPDEST SWAP4 DUP3 AND DUP4 EQ PUSH2 0x2502 JUMPI PUSH2 0x23C7 PUSH1 0x20 SWAP6 SWAP3 PUSH2 0x23E5 SWAP3 PUSH2 0x26A1 JUMP JUMPDEST SWAP1 PUSH1 0x40 MLOAD SWAP5 DUP6 DUP1 SWAP5 PUSH4 0x313CE567 PUSH1 0xE0 SHL DUP3 MSTORE PUSH1 0x4 SWAP8 DUP9 SWAP2 GAS STATICCALL SWAP3 DUP4 ISZERO PUSH2 0x564 JUMPI PUSH1 0x0 SWAP4 PUSH2 0x24BE JUMPI JUMPDEST POP PUSH1 0xFF SWAP2 PUSH2 0x241A SWAP2 PUSH2 0x236C JUMP JUMPDEST SWAP2 AND PUSH1 0x8 ADD PUSH1 0xFF DUP2 GT PUSH2 0x24A9 JUMPI PUSH1 0xFF PUSH1 0x5 NOT SWAP2 AND ADD PUSH1 0xFF DUP2 GT PUSH2 0x24A9 JUMPI PUSH1 0xFF AND PUSH1 0x4D DUP2 GT PUSH2 0x24A9 JUMPI PUSH1 0xA EXP SWAP1 DUP2 ISZERO PUSH2 0x2494 JUMPI SWAP2 PUSH2 0x245D SWAP2 PUSH4 0x5F5E100 SWAP4 DIV PUSH2 0x236C JUMP JUMPDEST DIV SWAP1 DUP1 SLOAD SWAP2 PUSH2 0x2710 SWAP3 DUP4 SUB SWAP2 DUP4 DUP4 GT PUSH2 0x247F JUMPI POP SWAP1 PUSH2 0x247B SWAP2 PUSH2 0x236C JUMP JUMPDEST DIV SWAP1 JUMP JUMPDEST PUSH1 0x11 SWAP1 PUSH4 0x4E487B71 PUSH1 0xE0 SHL PUSH1 0x0 MSTORE MSTORE PUSH1 0x24 PUSH1 0x0 REVERT JUMPDEST PUSH1 0x12 DUP5 PUSH4 0x4E487B71 PUSH1 0xE0 SHL PUSH1 0x0 MSTORE MSTORE PUSH1 0x24 PUSH1 0x0 REVERT JUMPDEST PUSH1 0x11 DUP5 PUSH4 0x4E487B71 PUSH1 0xE0 SHL PUSH1 0x0 MSTORE MSTORE PUSH1 0x24 PUSH1 0x0 REVERT JUMPDEST PUSH1 0x20 SWAP4 SWAP2 SWAP4 DUP2 RETURNDATASIZE DUP3 GT PUSH2 0x24FA JUMPI JUMPDEST DUP2 PUSH2 0x24D9 PUSH1 0x20 SWAP4 DUP4 PUSH2 0x1B9A JUMP JUMPDEST DUP2 ADD SUB SLT PUSH2 0x24F6 JUMPI MLOAD SWAP1 PUSH1 0xFF DUP3 AND DUP3 SUB PUSH2 0x1FE8 JUMPI POP SWAP2 PUSH1 0xFF PUSH2 0x240D JUMP JUMPDEST POP DUP1 REVERT JUMPDEST RETURNDATASIZE SWAP2 POP PUSH2 0x24CC JUMP JUMPDEST POP POP POP PUSH2 0x2514 SWAP1 PUSH4 0x5F5E100 SWAP3 PUSH2 0x236C JUMP JUMPDEST DIV PUSH1 0x4 SLOAD SWAP1 PUSH2 0x2710 SWAP2 DUP3 SUB DUP3 DUP2 GT PUSH2 0x1DD7 JUMPI PUSH2 0x247B SWAP2 PUSH2 0x236C JUMP JUMPDEST POP POP POP POP SWAP1 JUMP JUMPDEST MLOAD SWAP1 PUSH10 0xFFFFFFFFFFFFFFFFFFFF DUP3 AND DUP3 SUB PUSH2 0x15E JUMPI JUMP JUMPDEST PUSH1 0x1 PUSH1 0x1 PUSH1 0xA0 SHL SUB AND DUP1 ISZERO PUSH2 0x2667 JUMPI PUSH1 0xA0 PUSH1 0x4 SWAP2 PUSH1 0x40 MLOAD SWAP3 DUP4 DUP1 SWAP3 PUSH4 0x3FABE5A3 PUSH1 0xE2 SHL DUP3 MSTORE GAS STATICCALL DUP1 ISZERO PUSH2 0x564 JUMPI PUSH1 0x0 SWAP2 DUP3 SWAP2 PUSH2 0x2613 JUMPI JUMPDEST POP PUSH1 0x0 DUP3 SGT ISZERO PUSH2 0x25DE JUMPI PUSH2 0x259C PUSH3 0x15180 SWAP2 TIMESTAMP PUSH2 0x1DCA JUMP JUMPDEST GT PUSH2 0x25A4 JUMPI SWAP1 JUMP JUMPDEST PUSH1 0x40 MLOAD PUSH3 0x461BCD PUSH1 0xE5 SHL DUP2 MSTORE PUSH1 0x20 PUSH1 0x4 DUP3 ADD MSTORE PUSH1 0x12 PUSH1 0x24 DUP3 ADD MSTORE PUSH18 0x141C9A58D94819995959081D1BDBC81BDB19 PUSH1 0x72 SHL PUSH1 0x44 DUP3 ADD MSTORE PUSH1 0x64 SWAP1 REVERT JUMPDEST PUSH1 0x40 MLOAD PUSH3 0x461BCD PUSH1 0xE5 SHL DUP2 MSTORE PUSH1 0x20 PUSH1 0x4 DUP3 ADD MSTORE PUSH1 0xD PUSH1 0x24 DUP3 ADD MSTORE PUSH13 0x496E76616C6964207072696365 PUSH1 0x98 SHL PUSH1 0x44 DUP3 ADD MSTORE PUSH1 0x64 SWAP1 REVERT JUMPDEST SWAP2 SWAP1 POP PUSH1 0xA0 DUP3 RETURNDATASIZE DUP3 GT PUSH2 0x265F JUMPI JUMPDEST DUP2 PUSH2 0x262E PUSH1 0xA0 SWAP4 DUP4 PUSH2 0x1B9A JUMP JUMPDEST DUP2 ADD SUB SLT PUSH2 0x1FE8 JUMPI POP PUSH2 0x2640 DUP2 PUSH2 0x2536 JUMP JUMPDEST POP PUSH1 0x20 DUP2 ADD MLOAD PUSH2 0x2657 PUSH1 0x80 PUSH1 0x60 DUP5 ADD MLOAD SWAP4 ADD PUSH2 0x2536 JUMP JUMPDEST POP SWAP1 CODESIZE PUSH2 0x2584 JUMP JUMPDEST RETURNDATASIZE SWAP2 POP PUSH2 0x2621 JUMP JUMPDEST PUSH1 0x40 MLOAD PUSH3 0x461BCD PUSH1 0xE5 SHL DUP2 MSTORE PUSH1 0x20 PUSH1 0x4 DUP3 ADD MSTORE PUSH1 0x12 PUSH1 0x24 DUP3 ADD MSTORE PUSH18 0x141C9A58D94819995959081B9BDD081CD95D PUSH1 0x72 SHL PUSH1 0x44 DUP3 ADD MSTORE PUSH1 0x64 SWAP1 REVERT JUMPDEST SWAP1 PUSH1 0x1 DUP1 PUSH1 0xA0 SHL SUB DUP1 SWAP3 AND PUSH1 0x0 MSTORE PUSH1 0x7 PUSH1 0x20 MSTORE DUP2 PUSH1 0x40 PUSH1 0x0 KECCAK256 SWAP2 AND PUSH1 0x0 MSTORE PUSH1 0x20 MSTORE PUSH1 0x40 PUSH1 0x0 KECCAK256 SLOAD AND DUP1 ISZERO PUSH2 0x26D2 JUMPI SWAP1 JUMP JUMPDEST PUSH1 0x40 MLOAD PUSH3 0x461BCD PUSH1 0xE5 SHL DUP2 MSTORE PUSH1 0x20 PUSH1 0x4 DUP3 ADD MSTORE PUSH1 0x1C PUSH1 0x24 DUP3 ADD MSTORE PUSH32 0x4E6F207072696365206665656420666F7220746F6B656E207061697200000000 PUSH1 0x44 DUP3 ADD MSTORE PUSH1 0x64 SWAP1 REVERT JUMPDEST MLOAD SWAP1 DUP2 PUSH1 0x2 SIGNEXTEND DUP3 SUB PUSH2 0x15E JUMPI JUMP JUMPDEST MLOAD SWAP1 PUSH1 0x1 PUSH1 0x1 PUSH1 0x80 SHL SUB DUP3 AND DUP3 SUB PUSH2 0x15E JUMPI JUMP JUMPDEST SWAP2 SWAP1 DUP3 PUSH2 0x180 SWAP2 SUB SLT PUSH2 0x15E JUMPI DUP2 MLOAD PUSH1 0x1 PUSH1 0x1 PUSH1 0x60 SHL SUB DUP2 AND DUP2 SUB PUSH2 0x15E JUMPI SWAP2 PUSH2 0x2765 PUSH1 0x20 DUP3 ADD PUSH2 0x1D67 JUMP JUMPDEST SWAP2 PUSH2 0x2772 PUSH1 0x40 DUP4 ADD PUSH2 0x1D67 JUMP JUMPDEST SWAP2 PUSH2 0x277F PUSH1 0x60 DUP3 ADD PUSH2 0x1D67 JUMP JUMPDEST SWAP2 PUSH2 0x278C PUSH1 0x80 DUP4 ADD PUSH2 0x2717 JUMP JUMPDEST SWAP2 PUSH2 0x2799 PUSH1 0xA0 DUP3 ADD PUSH2 0x2717 JUMP JUMPDEST SWAP2 PUSH2 0x27A6 PUSH1 0xC0 DUP4 ADD PUSH2 0x2717 JUMP JUMPDEST SWAP2 PUSH2 0x27B3 PUSH1 0xE0 DUP3 ADD PUSH2 0x2725 JUMP JUMPDEST SWAP2 PUSH2 0x100 DUP3 ADD MLOAD SWAP2 PUSH2 0x120 DUP2 ADD MLOAD SWAP2 PUSH2 0x27DC PUSH2 0x160 PUSH2 0x27D5 PUSH2 0x140 DUP6 ADD PUSH2 0x2725 JUMP JUMPDEST SWAP4 ADD PUSH2 0x2725 JUMP JUMPDEST SWAP1 JUMP JUMPDEST ISZERO PUSH2 0x27E6 JUMPI JUMP JUMPDEST PUSH1 0x40 MLOAD PUSH3 0x461BCD PUSH1 0xE5 SHL DUP2 MSTORE PUSH1 0x20 PUSH1 0x4 DUP3 ADD MSTORE PUSH1 0x12 PUSH1 0x24 DUP3 ADD MSTORE PUSH18 0x151BDAD95B8C081CDDD85C0819985A5B1959 PUSH1 0x72 SHL PUSH1 0x44 DUP3 ADD MSTORE PUSH1 0x64 SWAP1 REVERT JUMPDEST ISZERO PUSH2 0x2827 JUMPI JUMP JUMPDEST PUSH1 0x40 MLOAD PUSH3 0x461BCD PUSH1 0xE5 SHL DUP2 MSTORE PUSH1 0x20 PUSH1 0x4 DUP3 ADD MSTORE PUSH1 0x12 PUSH1 0x24 DUP3 ADD MSTORE PUSH18 0x151BDAD95B8C481CDDD85C0819985A5B1959 PUSH1 0x72 SHL PUSH1 0x44 DUP3 ADD MSTORE PUSH1 0x64 SWAP1 REVERT JUMPDEST PUSH1 0x40 DUP1 MLOAD SWAP4 SWAP1 SWAP3 PUSH1 0x1 PUSH1 0x1 PUSH1 0xA0 SHL SUB SWAP3 SWAP1 SWAP2 PUSH8 0xFFFFFFFFFFFFFFFF SWAP2 DUP5 AND SWAP1 PUSH1 0x80 DUP8 ADD DUP4 DUP2 GT DUP9 DUP3 LT OR PUSH2 0xB8F JUMPI DUP7 MSTORE DUP7 MSTORE PUSH1 0x20 SWAP4 DUP5 DUP8 ADD DUP3 DUP2 MSTORE DUP7 DUP9 ADD SWAP2 PUSH1 0x1 PUSH1 0x1 PUSH1 0x80 SHL SUB SWAP3 DUP4 SWAP2 DUP3 DUP3 MSTORE PUSH1 0x60 DUP12 ADD SWAP4 DUP4 DUP6 MSTORE DUP11 MLOAD SWAP12 DUP13 DUP12 PUSH4 0xFC6F7865 PUSH1 0xE0 SHL SWAP2 ADD MSTORE MLOAD PUSH1 0x24 DUP14 ADD MSTORE MLOAD AND PUSH1 0x44 DUP12 ADD MSTORE MLOAD AND PUSH1 0x64 DUP10 ADD MSTORE MLOAD AND PUSH1 0x84 DUP8 ADD MSTORE PUSH1 0x84 DUP7 MSTORE PUSH1 0xC0 DUP7 ADD SWAP3 DUP7 DUP5 LT DUP4 DUP6 GT OR PUSH2 0xB8F JUMPI DUP4 DUP1 SWAP3 DUP2 DUP9 MSTORE PUSH4 0x5229073F PUSH1 0xE0 SHL DUP3 MSTORE PUSH1 0x0 SWAP6 DUP7 DUP1 SWAP5 DUP12 PUSH2 0x291D DUP2 PUSH1 0xBF NOT SWAP4 PUSH1 0xC4 DUP3 ADD PUSH2 0x1DED JUMP JUMPDEST SUB ADD SWAP3 GAS CALL SWAP6 DUP7 ISZERO PUSH2 0x2A31 JUMPI DUP4 SWAP3 DUP5 SWAP8 PUSH2 0x2985 JUMPI JUMPDEST POP POP POP ISZERO PUSH2 0x2951 JUMPI DUP3 DUP5 DUP1 MLOAD DUP2 ADD SUB SLT PUSH2 0x1FE8 JUMPI POP DUP3 ADD MLOAD SWAP2 ADD MLOAD SWAP1 SWAP2 JUMP JUMPDEST POP PUSH1 0x64 SWAP2 MLOAD SWAP1 PUSH3 0x461BCD PUSH1 0xE5 SHL DUP3 MSTORE PUSH1 0x4 DUP3 ADD MSTORE PUSH1 0xE PUSH1 0x24 DUP3 ADD MSTORE PUSH14 0x10DBDB1B1958DD0819985A5B1959 PUSH1 0x92 SHL PUSH1 0x44 DUP3 ADD MSTORE REVERT JUMPDEST SWAP2 SWAP7 POP SWAP2 POP RETURNDATASIZE DUP1 DUP5 DUP9 RETURNDATACOPY PUSH2 0x2999 DUP2 DUP9 PUSH2 0x1B9A JUMP JUMPDEST DUP3 ADD SWAP6 DUP6 DUP4 PUSH1 0xC0 DUP10 ADD SWAP9 SUB SLT PUSH2 0x2A15 JUMPI PUSH2 0x29B2 SWAP1 PUSH2 0x1D7B JUMP JUMPDEST SWAP2 PUSH1 0xE0 DUP2 ADD MLOAD SWAP1 DUP3 DUP3 GT PUSH2 0x2A2D JUMPI ADD DUP7 PUSH1 0xDF DUP3 ADD SLT ISZERO PUSH2 0x2A15 JUMPI PUSH1 0xC0 DUP2 ADD MLOAD SWAP2 DUP3 GT PUSH2 0x2A19 JUMPI DUP6 MLOAD SWAP7 PUSH2 0x29EE PUSH1 0x1F DUP5 ADD PUSH1 0x1F NOT AND DUP8 ADD DUP10 PUSH2 0x1B9A JUMP JUMPDEST DUP3 DUP9 MSTORE PUSH1 0xE0 DUP4 DUP4 ADD ADD GT PUSH2 0x2A15 JUMPI SWAP1 PUSH2 0x2A0D SWAP2 PUSH1 0xE0 DUP7 DUP10 ADD SWAP2 ADD PUSH2 0x1C62 JUMP JUMPDEST CODESIZE DUP1 DUP1 PUSH2 0x2932 JUMP JUMPDEST DUP4 DUP1 REVERT JUMPDEST PUSH4 0x4E487B71 PUSH1 0xE0 SHL DUP5 MSTORE PUSH1 0x41 PUSH1 0x4 MSTORE PUSH1 0x24 DUP5 REVERT JUMPDEST DUP5 DUP1 REVERT JUMPDEST DUP6 MLOAD RETURNDATASIZE DUP6 DUP3 RETURNDATACOPY RETURNDATASIZE SWAP1 REVERT JUMPDEST PUSH1 0x2 SLOAD PUSH1 0x40 MLOAD PUSH4 0x70A08231 PUSH1 0xE0 SHL DUP2 MSTORE PUSH1 0x1 PUSH1 0x1 PUSH1 0xA0 SHL SUB SWAP3 DUP4 AND PUSH1 0x4 DUP3 ADD MSTORE SWAP2 PUSH1 0x20 SWAP2 DUP4 SWAP2 PUSH1 0x24 SWAP2 DUP4 SWAP2 AND GAS STATICCALL SWAP1 DUP2 ISZERO PUSH2 0x564 JUMPI PUSH1 0x0 SWAP2 PUSH2 0x2A7B JUMPI POP SWAP1 JUMP JUMPDEST SWAP1 PUSH1 0x20 DUP3 RETURNDATASIZE DUP3 GT PUSH2 0x2AA1 JUMPI JUMPDEST DUP2 PUSH2 0x2A94 PUSH1 0x20 SWAP4 DUP4 PUSH2 0x1B9A JUMP JUMPDEST DUP2 ADD SUB SLT PUSH2 0x1FE8 JUMPI POP MLOAD SWAP1 JUMP JUMPDEST RETURNDATASIZE SWAP2 POP PUSH2 0x2A87 JUMP INVALID 0xC4 JUMPI 0xDA 0xBB SHR 0xD0 TIMESTAMP 0x2F 0x2D 0x4E 0xE0 0xE3 JUMPDEST 0xED 0x2D ORIGIN 0x4C DUP10 PUSH32 0xF52CA6D0033A86D6A43CE80502A2646970667358221220A1B3005DF6ECA71D1E 0xA7 0x2D SWAP2 JUMPDEST PUSH19 0x967804D812705DD5F6488EA27498F5CFDEE364 PUSH20 0x6F6C634300081400330000000000000000000000 "
        },
        "methodIdentifiers": {
          "USDC()": "89a30271",
          "approvePool(address)": "424c265b",
          "approvedPools(address)": "f0bbcec4",
          "collectAndConvertFees(address,uint256)": "e6370309",
          "owner()": "8da5cb5b",
          "priceFeeds(address,address)": "f90c6906",
          "removePool(address)": "3b7d0946",
          "renounceOwnership()": "715018a6",
          "rewardStable()": "f2bf87e3",
          "rewardToken()": "f7c618c1",
          "setPriceFeed(address,address,address)": "67a1d5ab",
          "setRewardStable(address)": "c13d2f75",
          "setRewardToken(address)": "8aee8127",
          "setSlippageTolerance(uint256)": "117da1ee",
          "setSwapPath(address,address,bytes)": "483103a4",
          "slippageTolerance()": "d03153aa",
          "stakeAndCollect(address,uint256)": "31a8f1c9",
          "swapPaths(address,address)": "4a6a749c",
          "swapRouter()": "c31c9c07",
          "transferOwnership(address)": "f2fde38b",
          "unstakeAndCollect(address,uint256)": "4bdc76cc",
          "withdrawAndCollect(address,uint256)": "ac6e07ee"
        }
      }
    }
  }
}