{
  "contracts/CholoDromeModule.sol": {
    "CholoDromeModule": {
      "abi": [
        {
          "inputs": [
            {
              "internalType": "address",
              "name": "_owner",
              "type": "address"
            },
            {
              "internalType": "address",
              "name": "_rewardToken",
              "type": "address"
            },
            {
              "internalType": "address",
              "name": "_rewardStable",
              "type": "address"
            },
            {
              "internalType": "address",
              "name": "_quoter",
              "type": "address"
            },
            {
              "internalType": "address",
              "name": "_swapRouter",
              "type": "address"
            }
          ],
          "stateMutability": "nonpayable",
          "type": "constructor"
        },
        {
          "inputs": [
            {
              "internalType": "address",
              "name": "owner",
              "type": "address"
            }
          ],
          "name": "OwnableInvalidOwner",
          "type": "error"
        },
        {
          "inputs": [
            {
              "internalType": "address",
              "name": "account",
              "type": "address"
            }
          ],
          "name": "OwnableUnauthorizedAccount",
          "type": "error"
        },
        {
          "anonymous": false,
          "inputs": [
            {
              "indexed": true,
              "internalType": "address",
              "name": "safe",
              "type": "address"
            },
            {
              "indexed": true,
              "internalType": "address",
              "name": "pool",
              "type": "address"
            },
            {
              "indexed": false,
              "internalType": "uint256",
              "name": "tokenId",
              "type": "uint256"
            },
            {
              "indexed": false,
              "internalType": "uint256",
              "name": "amount0",
              "type": "uint256"
            },
            {
              "indexed": false,
              "internalType": "uint256",
              "name": "amount1",
              "type": "uint256"
            },
            {
              "indexed": false,
              "internalType": "uint256",
              "name": "veloAmount",
              "type": "uint256"
            },
            {
              "indexed": false,
              "internalType": "uint256",
              "name": "totalUsdtAmount",
              "type": "uint256"
            }
          ],
          "name": "FeesCollectedAndSwapped",
          "type": "event"
        },
        {
          "anonymous": false,
          "inputs": [
            {
              "indexed": true,
              "internalType": "address",
              "name": "previousOwner",
              "type": "address"
            },
            {
              "indexed": true,
              "internalType": "address",
              "name": "newOwner",
              "type": "address"
            }
          ],
          "name": "OwnershipTransferred",
          "type": "event"
        },
        {
          "anonymous": false,
          "inputs": [
            {
              "indexed": true,
              "internalType": "address",
              "name": "safe",
              "type": "address"
            },
            {
              "indexed": true,
              "internalType": "address",
              "name": "pool",
              "type": "address"
            }
          ],
          "name": "PoolApproved",
          "type": "event"
        },
        {
          "anonymous": false,
          "inputs": [
            {
              "indexed": true,
              "internalType": "address",
              "name": "safe",
              "type": "address"
            },
            {
              "indexed": true,
              "internalType": "address",
              "name": "pool",
              "type": "address"
            }
          ],
          "name": "PoolRemoved",
          "type": "event"
        },
        {
          "anonymous": false,
          "inputs": [
            {
              "indexed": true,
              "internalType": "address",
              "name": "oldStable",
              "type": "address"
            },
            {
              "indexed": true,
              "internalType": "address",
              "name": "newStable",
              "type": "address"
            }
          ],
          "name": "RewardStableUpdated",
          "type": "event"
        },
        {
          "anonymous": false,
          "inputs": [
            {
              "indexed": true,
              "internalType": "address",
              "name": "oldToken",
              "type": "address"
            },
            {
              "indexed": true,
              "internalType": "address",
              "name": "newToken",
              "type": "address"
            }
          ],
          "name": "RewardTokenUpdated",
          "type": "event"
        },
        {
          "anonymous": false,
          "inputs": [
            {
              "indexed": false,
              "internalType": "uint256",
              "name": "oldTolerance",
              "type": "uint256"
            },
            {
              "indexed": false,
              "internalType": "uint256",
              "name": "newTolerance",
              "type": "uint256"
            }
          ],
          "name": "SlippageToleranceUpdated",
          "type": "event"
        },
        {
          "anonymous": false,
          "inputs": [
            {
              "indexed": true,
              "internalType": "address",
              "name": "safe",
              "type": "address"
            },
            {
              "indexed": true,
              "internalType": "address",
              "name": "pool",
              "type": "address"
            },
            {
              "indexed": false,
              "internalType": "uint256",
              "name": "tokenId",
              "type": "uint256"
            },
            {
              "indexed": false,
              "internalType": "uint256",
              "name": "amount0",
              "type": "uint256"
            },
            {
              "indexed": false,
              "internalType": "uint256",
              "name": "amount1",
              "type": "uint256"
            },
            {
              "indexed": false,
              "internalType": "uint256",
              "name": "veloAmount",
              "type": "uint256"
            },
            {
              "indexed": false,
              "internalType": "uint256",
              "name": "totalUsdtAmount",
              "type": "uint256"
            }
          ],
          "name": "WithdrawAndCollect",
          "type": "event"
        },
        {
          "inputs": [
            {
              "internalType": "address",
              "name": "pool",
              "type": "address"
            }
          ],
          "name": "approvePool",
          "outputs": [],
          "stateMutability": "nonpayable",
          "type": "function"
        },
        {
          "inputs": [
            {
              "internalType": "address",
              "name": "",
              "type": "address"
            }
          ],
          "name": "approvedPools",
          "outputs": [
            {
              "internalType": "bool",
              "name": "",
              "type": "bool"
            }
          ],
          "stateMutability": "view",
          "type": "function"
        },
        {
          "inputs": [
            {
              "internalType": "address",
              "name": "pool",
              "type": "address"
            },
            {
              "internalType": "uint256",
              "name": "tokenId",
              "type": "uint256"
            }
          ],
          "name": "collectAndConvertFees",
          "outputs": [],
          "stateMutability": "nonpayable",
          "type": "function"
        },
        {
          "inputs": [
            {
              "internalType": "address",
              "name": "pool",
              "type": "address"
            },
            {
              "internalType": "uint256",
              "name": "tokenId",
              "type": "uint256"
            }
          ],
          "name": "collectStaked",
          "outputs": [],
          "stateMutability": "nonpayable",
          "type": "function"
        },
        {
          "inputs": [],
          "name": "owner",
          "outputs": [
            {
              "internalType": "address",
              "name": "",
              "type": "address"
            }
          ],
          "stateMutability": "view",
          "type": "function"
        },
        {
          "inputs": [],
          "name": "quoter",
          "outputs": [
            {
              "internalType": "address",
              "name": "",
              "type": "address"
            }
          ],
          "stateMutability": "view",
          "type": "function"
        },
        {
          "inputs": [
            {
              "internalType": "address",
              "name": "pool",
              "type": "address"
            }
          ],
          "name": "removePool",
          "outputs": [],
          "stateMutability": "nonpayable",
          "type": "function"
        },
        {
          "inputs": [],
          "name": "renounceOwnership",
          "outputs": [],
          "stateMutability": "nonpayable",
          "type": "function"
        },
        {
          "inputs": [],
          "name": "rewardStable",
          "outputs": [
            {
              "internalType": "address",
              "name": "",
              "type": "address"
            }
          ],
          "stateMutability": "view",
          "type": "function"
        },
        {
          "inputs": [],
          "name": "rewardToken",
          "outputs": [
            {
              "internalType": "address",
              "name": "",
              "type": "address"
            }
          ],
          "stateMutability": "view",
          "type": "function"
        },
        {
          "inputs": [
            {
              "internalType": "address",
              "name": "_newRewardStable",
              "type": "address"
            }
          ],
          "name": "setRewardStable",
          "outputs": [],
          "stateMutability": "nonpayable",
          "type": "function"
        },
        {
          "inputs": [
            {
              "internalType": "address",
              "name": "_newRewardToken",
              "type": "address"
            }
          ],
          "name": "setRewardToken",
          "outputs": [],
          "stateMutability": "nonpayable",
          "type": "function"
        },
        {
          "inputs": [
            {
              "internalType": "uint256",
              "name": "_slippageTolerance",
              "type": "uint256"
            }
          ],
          "name": "setSlippageTolerance",
          "outputs": [],
          "stateMutability": "nonpayable",
          "type": "function"
        },
        {
          "inputs": [
            {
              "internalType": "address",
              "name": "fromToken",
              "type": "address"
            },
            {
              "internalType": "address",
              "name": "toToken",
              "type": "address"
            },
            {
              "internalType": "bytes",
              "name": "path",
              "type": "bytes"
            }
          ],
          "name": "setSwapPath",
          "outputs": [],
          "stateMutability": "nonpayable",
          "type": "function"
        },
        {
          "inputs": [],
          "name": "slippageTolerance",
          "outputs": [
            {
              "internalType": "uint256",
              "name": "",
              "type": "uint256"
            }
          ],
          "stateMutability": "view",
          "type": "function"
        },
        {
          "inputs": [
            {
              "internalType": "address",
              "name": "",
              "type": "address"
            },
            {
              "internalType": "address",
              "name": "",
              "type": "address"
            }
          ],
          "name": "swapPaths",
          "outputs": [
            {
              "internalType": "bytes",
              "name": "",
              "type": "bytes"
            }
          ],
          "stateMutability": "view",
          "type": "function"
        },
        {
          "inputs": [],
          "name": "swapRouter",
          "outputs": [
            {
              "internalType": "address",
              "name": "",
              "type": "address"
            }
          ],
          "stateMutability": "view",
          "type": "function"
        },
        {
          "inputs": [
            {
              "internalType": "address",
              "name": "newOwner",
              "type": "address"
            }
          ],
          "name": "transferOwnership",
          "outputs": [],
          "stateMutability": "nonpayable",
          "type": "function"
        },
        {
          "inputs": [
            {
              "internalType": "address",
              "name": "pool",
              "type": "address"
            },
            {
              "internalType": "uint256",
              "name": "tokenId",
              "type": "uint256"
            }
          ],
          "name": "withdrawAndCollect",
          "outputs": [],
          "stateMutability": "nonpayable",
          "type": "function"
        }
      ],
      "evm": {
        "bytecode": {
          "linkReferences": {},
          "object": "6080346200025657601f6200265e38819003918201601f191683019291906001600160401b038411838510176200025b578160a092849260409687528339810103126200025657620000518162000271565b6200005f6020830162000271565b906200006d84840162000271565b926200008a6080620000826060840162000271565b920162000271565b6001600160a01b039283169390929084156200023e57600080546001600160a01b0319808216881783559684939290918416907f8be0079c531659141344cd1fd0a4f28419497f9722a3daafe3b4186f6b6457e09080a3603260055516948515620001fa578116918215620001b65781169283156200018157169384156200013d578360015416176001558260025416176002558160045416176004556003541617600355516123d79081620002878239f35b855162461bcd60e51b815260206004820152601360248201527f496e76616c6964207377617020726f75746572000000000000000000000000006044820152606490fd5b865162461bcd60e51b815260206004820152600e60248201526d24b73b30b634b21038bab7ba32b960911b6044820152606490fd5b865162461bcd60e51b815260206004820152601560248201527f496e76616c69642072657761726420737461626c6500000000000000000000006044820152606490fd5b865162461bcd60e51b815260206004820152601460248201527f496e76616c69642072657761726420746f6b656e0000000000000000000000006044820152606490fd5b8651631e4fbdf760e01b815260006004820152602490fd5b600080fd5b634e487b7160e01b600052604160045260246000fd5b51906001600160a01b0382168203620002565756fe6080604052600436101561001257600080fd5b60003560e01c8063117da1ee146115f05780633341870d1461139c5780633b7d09461461132b578063424c265b146112b7578063483103a4146110735780634a6a749c1461100a578063715018a614610fb15780638aee812714610f055780638da5cb5b14610edc578063ac6e07ee14610752578063c13d2f75146106a5578063c31c9c071461067c578063c6bbd5a714610653578063d03153aa14610635578063e63703091461020c578063f0bbcec4146101cd578063f2bf87e3146101a4578063f2fde38b1461011b5763f7c618c1146100ed57600080fd5b34610116576000366003190112610116576001546040516001600160a01b039091168152602090f35b600080fd5b3461011657602036600319011261011657610134611687565b61013c611835565b6001600160a01b0390811690811561018b57600054826001600160601b0360a01b821617600055167f8be0079c531659141344cd1fd0a4f28419497f9722a3daafe3b4186f6b6457e0600080a3005b604051631e4fbdf760e01b815260006004820152602490fd5b34610116576000366003190112610116576002546040516001600160a01b039091168152602090f35b34610116576020366003190112610116576001600160a01b036101ee611687565b166000526006602052602060ff604060002054166040519015158152f35b3461011657604036600319011261011657610225611687565b60243560018060a01b0380921691826000526020906006825261024f60ff6040600020541661189c565b6040516323e6650160e11b8152908282600481885afa9182156104a1576000926105fe575b5060405163133f757160e31b815260048101859052906101809081836024818785165afa9283156104a1576000926000946105be575b50506040516329bc672160e21b81529285846004818b5afa9384156104a157600094610587575b50610315828516946102e233612333565b60405163c69deec560e01b8152336004820152602481018b90526000978897929591949192918b90869081906044820190565b0381845afa9485156104a1578b918d91600097610547575b50604051633e491d4760e01b8152336004820152602481019290925290919082908180604481015b03915afa998a156104a1578b958d9260009c610513575b50156104ad5750505050866103d3575b505061039291505b61038d33612333565b611a50565b936040519586528501526040840152606083015260808201527f694588a032a621c2c34a328afbc6a04b9b9824cd08e38bcd497470a906ef79d660a03392a3005b604051631c4b774b60e01b8184015260248082018b9052815261041592916103fa82611709565b60405163468721a760e01b8152938492839260048401611a80565b03816000335af180156104a1578691600091610457575b50610450916103929461044161044b936122e7565b6001541633611f41565b611ab1565b858961037c565b809250888092503d831161049a575b6104708183611725565b810103126101165761044b866103929461044161048f61045095611a73565b93505094509161042c565b503d610466565b6040513d6000823e3d90fd5b9298509250955061039294506104c4925033611d67565b909481958095816104f9575b5050816104df575b5050610384565b6104f2916104ed9133611f41565b611a0f565b88806104d8565b61050c916105079133611f41565b6119ce565b8a806104d0565b92509a509481813d8311610540575b61052c8183611725565b81010312610116578a948c91519a8f61036c565b503d610522565b92839197508092503d8311610580575b6105618183611725565b81010312610116578a8c61057761035593611a73565b9690919261032d565b503d610557565b9093508581813d83116105b7575b61059f8183611725565b81010312610116576105b0906118f2565b92886102d1565b503d610595565b80919294506105e29350903d106105f7575b6105da8183611725565b810190611928565b505050505050505092509050909187806102aa565b503d6105d0565b9091508281813d831161062e575b6106168183611725565b8101031261011657610627906118f2565b9085610274565b503d61060c565b34610116576000366003190112610116576020600554604051908152f35b34610116576000366003190112610116576004546040516001600160a01b039091168152602090f35b34610116576000366003190112610116576003546040516001600160a01b039091168152602090f35b34610116576020366003190112610116576106be611687565b6106c6611835565b6001600160a01b0390811690811561071557600254826001600160601b0360a01b821617600255167f9d4858dccb76debed7845fd87ec5c769962d072d518c9e34182581abb3e8247c600080a3005b60405162461bcd60e51b8152602060048201526015602482015274496e76616c69642072657761726420737461626c6560581b6044820152606490fd5b34610116576040366003190112610116576001600160a01b03610773611687565b1680600052600660205261078e60ff6040600020541661189c565b6040516323e6650160e11b8152602081600481855afa9081156104a157600091610ea2575b5060405163133f757160e31b8152602480356004830152610180908290816001600160a01b0386165afa9182156104a15760009260008092600094600093610e6a575b508361080133612333565b92604051976329bc672160e21b89526020896004818d5afa9889156104a157600099610e2e575b50604051633e491d4760e01b81523360048201526024803590820152966020886044816001600160a01b038e165afa9788156104a157600098610df3575b506001600160801b039061087d6024358c33611af5565b1680610bdc575b506108c4916108b36105076104ed936108a06024358933611d67565b50506001600160801b038c169033611f41565b6001600160801b0387169033611f41565b60405163133f757160e31b8152602480356004830152610180908290816001600160a01b0387165afa9081156104a157600090600092610ba4575b506001600160801b0316610b5f576001600160801b0316610b1a576001600160801b0316610ae05760206109529160405190630852cd8d60e31b838301526024356024830152602482526103fa82611709565b03816000335af19081156104a157600091610aa6575b5015610a735761097b9061038d33612333565b60405163c69deec560e01b8152336004820152602480359082015294909390602090869060449082906001600160a01b03165afa9485156104a157600095610a37575b508415610a3157506000935b15610a2357506001600160801b0360005b81604051956024358752166020860152166040840152606083015260808201527fab246cbdd9653a6d72a5dbac4c4246a5bfa3c50a09ddca840f7c735607c6546060a03392a3005b6001600160801b03906109db565b936109ca565b9094506020813d602011610a6b575b81610a5360209383611725565b8101031261011657610a6490611a73565b93866109be565b3d9150610a46565b60405162461bcd60e51b815260206004820152600b60248201526a109d5c9b8819985a5b195960aa1b6044820152606490fd5b90506020813d602011610ad8575b81610ac160209383611725565b8101031261011657610ad290611a73565b87610968565b3d9150610ab4565b60405162461bcd60e51b81526020600482015260126024820152714c6971756964697479206e6f74207a65726f60701b6044820152606490fd5b60405162461bcd60e51b815260206004820152601760248201527f556e636f6c6c656374656420746f6b656e3120666565730000000000000000006044820152606490fd5b60405162461bcd60e51b815260206004820152601760248201527f556e636f6c6c656374656420746f6b656e3020666565730000000000000000006044820152606490fd5b6001600160801b039250610bc991506101803d610180116105f7576105da8183611725565b9b9a5098505050505050505050906108ff565b604051919350610beb826116ed565b60243582526020820190815260408201600081526060830190600082526001600160801b03608085019342855260405195630624e65f60e11b6020880152516024870152511660448501525160648401525160848301525160a482015260a481528060e081011067ffffffffffffffff60e083011117610ddd5760e08101604081905263468721a760e01b815260209060df1983610c8d818960e48201611a80565b030160e084016000335af19081156104a157600091610d9d575b5015610d585760405163133f757160e31b8152602480356004830152610180908290816001600160a01b0388165afa9182156104a1576108b36105078a6104ed948a6108c497600092600090600092610d1c575b50610d109394610d0a91611d4e565b50611d4e565b50959350505091610884565b610d109450610d0a9250610d4191506101803d610180116105f7576105da8183611725565b939d939b509950919750610cfb9650505050505050565b60405162461bcd60e51b815260206004820152601960248201527f4465637265617365206c6971756964697479206661696c6564000000000000006044820152606490fd5b90506020813d602011610dd5575b81610dbb60209360e08401611725565b810103126101165760e0610dcf9101611a73565b8a610ca7565b3d9150610dab565b634e487b7160e01b600052604160045260246000fd5b9097506020813d602011610e26575b81610e0f60209383611725565b810103126101165751966001600160801b03610866565b3d9150610e02565b9098506020813d602011610e62575b81610e4a60209383611725565b8101031261011657610e5b906118f2565b978a610828565b3d9150610e3d565b935094505050610e8b91506101803d610180116105f7576105da8183611725565b989b909a509298509194508b93506107f692505050565b90506020813d602011610ed4575b81610ebd60209383611725565b8101031261011657610ece906118f2565b826107b3565b3d9150610eb0565b34610116576000366003190112610116576000546040516001600160a01b039091168152602090f35b3461011657602036600319011261011657610f1e611687565b610f26611835565b6001600160a01b03908116908115610f7557600154826001600160601b0360a01b821617600155167f906ff2422a6ffa134f2d7ccaffd446bc0c583a5cb6615749b4b2836942a5fea8600080a3005b60405162461bcd60e51b815260206004820152601460248201527324b73b30b634b2103932bbb0b932103a37b5b2b760611b6044820152606490fd5b3461011657600036600319011261011657610fca611835565b600080546001600160a01b0319811682556001600160a01b03167f8be0079c531659141344cd1fd0a4f28419497f9722a3daafe3b4186f6b6457e08280a3005b3461011657604036600319011261011657611023611687565b61102b61169d565b9060018060a01b0380911660005260076020526040600020911660005260205261106f61105b6040600020611747565b604051918291602083526020830190611810565b0390f35b346101165760603660031901126101165761108c611687565b61109461169d565b906044359067ffffffffffffffff9081831161011657366023840112156101165782600401359182116101165760249036828486010111610116576110d7611835565b6001600160a01b0390811694851561127f57169384156112495782156112165760005260209360078552604060002090600052845260406000209261111c84546116b3565b601f81116111d0575b50600094601f841160011461116757509382939460009361115a575b505050600019600383901b1c191660019190911b179055005b0101359050838080611141565b91601f198416958560005283600020936000905b8882106111b657505084600196971061119a575b50505050811b019055005b60001960f88660031b161c19920101351690558380808061118f565b80600184978683959689010135815501960192019061117b565b8460005285600020601f850160051c81019187861061120c575b601f0160051c01905b8181106112005750611125565b600081556001016111f3565b90915081906111ea565b60405162461bcd60e51b815260206004820152600c818401526b092dcecc2d8d2c840e0c2e8d60a31b6044820152606490fd5b60405162461bcd60e51b815260206004820152600f818401526e24b73b30b634b2103a37aa37b5b2b760891b6044820152606490fd5b60405162461bcd60e51b8152602060048201526011818501527024b73b30b634b210333937b6aa37b5b2b760791b6044820152606490fd5b34610116576020366003190112610116576112d0611687565b6112d8611835565b6001600160a01b03166112ec811515611861565b6000818152600660205260408120805460ff191660011790557ffc1f1e73948cbc47c5b7f90e5601b7daccd9ad7173218486ccc74bdd051d05e88180a3005b3461011657602036600319011261011657611344611687565b61134c611835565b6001600160a01b0316611360811515611861565b6000818152600660205260408120805460ff191690557f987eb3c2f78454541205f72f34839b434c306c9eaf4922efd7c0c3060fdb2e4c8180a3005b34610116576040366003190112610116576113b5611687565b60243590600460018060a01b03809216918260005260208093600682526113e360ff6040600020541661189c565b6040516329bc672160e21b815293849182905afa9182156104a1576000926115b9575b50604051633e491d4760e01b8152336004820152602481018590529082168382604481845afa9182156104a15760009261158a575b5060405163c69deec560e01b815233600482015260248101869052908490829060449082905afa9081156104a157600091611555575b501561151a5761147d57005b6114c092829160405191631c4b774b60e01b848401526024830152602482526114a582611709565b60405163468721a760e01b8152948592839260048401611a80565b03816000335af19081156104a1576000916114e3575b506114e191506122e7565b005b905081813d8311611513575b6114f98183611725565b810103126101165761150d6114e191611a73565b826114d6565b503d6114ef565b60405162461bcd60e51b8152600481018490526013602482015272141bdcda5d1a5bdb881b9bdd081cdd185ad959606a1b6044820152606490fd5b90508381813d8311611583575b61156c8183611725565b810103126101165761157d90611a73565b85611471565b503d611562565b9091508381813d83116115b2575b6115a28183611725565b810103126101165751908561143b565b503d611598565b9091508281813d83116115e9575b6115d18183611725565b81010312610116576115e2906118f2565b9084611406565b503d6115c7565b346101165760203660031901126101165760043561160c611835565b6103e8811161164e5760407fddd31550b26e9ef8ade466958be83ff8a014d9b4f36d546b61a6847a4530657591600554908060055582519182526020820152a1005b60405162461bcd60e51b81526020600482015260116024820152700a6d8d2e0e0c2ceca40e8dede40d0d2ced607b1b6044820152606490fd5b600435906001600160a01b038216820361011657565b602435906001600160a01b038216820361011657565b90600182811c921680156116e3575b60208310146116cd57565b634e487b7160e01b600052602260045260246000fd5b91607f16916116c2565b60a0810190811067ffffffffffffffff821117610ddd57604052565b6060810190811067ffffffffffffffff821117610ddd57604052565b90601f8019910116810190811067ffffffffffffffff821117610ddd57604052565b906040519182600082549261175b846116b3565b9081845260019485811690816000146117ca5750600114611787575b505061178592500383611725565b565b9093915060005260209081600020936000915b8183106117b257505061178593508201013880611777565b8554888401850152948501948794509183019161179a565b91505061178594506020925060ff191682840152151560051b8201013880611777565b60005b8381106118005750506000910152565b81810151838201526020016117f0565b90602091611829815180928185528580860191016117ed565b601f01601f1916010190565b6000546001600160a01b0316330361184957565b60405163118cdaa760e01b8152336004820152602490fd5b1561186857565b60405162461bcd60e51b815260206004820152600c60248201526b125b9d985b1a59081c1bdbdb60a21b6044820152606490fd5b156118a357565b60405162461bcd60e51b815260206004820152602160248201527f506f6f6c206e6f7420617070726f76656420666f722074686973206d6f64756c6044820152606560f81b6064820152608490fd5b51906001600160a01b038216820361011657565b51908160020b820361011657565b51906001600160801b038216820361011657565b9190826101809103126101165781516001600160601b03811681036101165791611954602082016118f2565b91611961604083016118f2565b9161196e606082016118f2565b9161197b60808301611906565b9161198860a08201611906565b9161199560c08301611906565b916119a260e08201611914565b9161010082015191610120810151916119cb6101606119c46101408501611914565b9301611914565b90565b156119d557565b60405162461bcd60e51b8152602060048201526012602482015271151bdad95b8c081cddd85c0819985a5b195960721b6044820152606490fd5b15611a1657565b60405162461bcd60e51b8152602060048201526012602482015271151bdad95b8c481cddd85c0819985a5b195960721b6044820152606490fd5b91908203918211611a5d57565b634e487b7160e01b600052601160045260246000fd5b5190811515820361011657565b9291611aac60609160009360018060a01b03168652836020870152608060408701526080860190611810565b930152565b15611ab857565b60405162461bcd60e51b815260206004820152601560248201527414ddd85c081d1bc81cdd18589b194819985a5b1959605a1b6044820152606490fd5b916001600160a01b039182811691908215611d19576040805163c69deec560e01b81528587166001600160a01b03811660048301526024820185905260209492939092909185816044818a5afa908115611cd957600091611ce4575b508451633e491d4760e01b81526001600160a01b038516600482015260248101839052968690889060449082905afa968715611cd957600097611caa575b508015611c9f57611bbc575b505050505080611baa57505050565b6117859261044b926001541690611f41565b611c00928592855192632e1a7d4d60e01b85850152602484015260248352611be383611709565b6000865180968195829463468721a760e01b845260048401611a80565b03925af1908115611c9457600091611c5c575b5015611c2157808080611b9b565b60649250519062461bcd60e51b82526004820152601560248201527411d85d59d9481dda5d1a191c985dc819985a5b1959605a1b6044820152fd5b908382813d8311611c8d575b611c728183611725565b81010312611c8a5750611c8490611a73565b38611c13565b80fd5b503d611c68565b82513d6000823e3d90fd5b505050505050505050565b90968682813d8311611cd2575b611cc18183611725565b81010312611c8a5750519538611b8f565b503d611cb7565b85513d6000823e3d90fd5b908682813d8311611d12575b611cfa8183611725565b81010312611c8a5750611d0c90611a73565b38611b51565b503d611cf0565b60405162461bcd60e51b815260206004820152600d60248201526c496e76616c696420676175676560981b6044820152606490fd5b6001600160801b039182169082160391908211611a5d57565b604080519390926001600160a01b0392909167ffffffffffffffff918416906080870183811188821017610ddd5786528652602093848701828152868801916001600160801b0392839182825260608b01938385528a519b8c8b63fc6f786560e01b9101525160248d0152511660448b015251166064890152511660848701526084865260c086019286841083851117610ddd57838092818852635229073f60e01b82526000958680948b611e238160bf199360c48201611a80565b0301925af1958615611f375783928497611e8b575b50505015611e57578284805181010312611c8a57508201519101519091565b50606491519062461bcd60e51b82526004820152600e60248201526d10dbdb1b1958dd0819985a5b195960921b6044820152fd5b91965091503d8084883e611e9f8188611725565b820195858360c08901980312611f1b57611eb890611a73565b9160e081015190828211611f3357018660df82011215611f1b5760c0810151918211611f1f57855196611ef4601f8401601f1916870189611725565b82885260e08383010111611f1b5790611f139160e086890191016117ed565b388080611e38565b8380fd5b634e487b7160e01b84526041600452602484fd5b8480fd5b85513d85823e3d90fd5b918015612270576002546001600160a01b0393908416838516811461226657611f6a9084612278565b84600354169160409586519160209463095ea7b360e01b868501528284611fab8960249485840160209093929193604081019460018060a01b031681520152565b0392611fbf601f1994858101885287611725565b169489519763468721a760e01b998a8a5289898180611fe360049b868d8401611a80565b0360009d8e8d5af190811561225c578b91612223575b50156121e957908861201361203b93886002541690612278565b8d888a5416908d8b82519788958694859363cdca175360e01b85528401526044830190611810565b878b83015203925af19182156121df578a926121ac575b5060055492612710938403928484116121885783810293818504149015171561219a5761012c42019081421161218857928b95928895928f998d9c9a96878e9d9b98519161209f836116ed565b82528d8201968d8852818301948552606083019586526080830196048652519c8d9763c04b8d5960e01b828a0152880152516044870160a0905260e487016120e691611810565b94511660648601525160848501525160a48401525160c48301520390810186526121109086611725565b6003548a51998a5289958694859361212b9316908401611a80565b03925af193841561217d57508193612144575b50505090565b9091809350813d8311612176575b61215c8183611725565b81010312611c8a575061216e90611a73565b38808061213e565b503d612152565b51913d9150823e3d90fd5b634e487b7160e01b8c5260118952858cfd5b634e487b7160e01b8b5260118852848bfd5b9091508881813d83116121d8575b6121c48183611725565b810103126121d457519038612052565b8980fd5b503d6121ba565b8c513d8c823e3d90fd5b508a5162461bcd60e51b815280870189905260148185015273151bdad95b88185c1c1c9bdd994819985a5b195960621b6044820152606490fd5b90508981813d8311612255575b61223a8183611725565b810103126122515761224b90611a73565b38611ff9565b8a80fd5b503d612230565b8d513d8d823e3d90fd5b5050505050600190565b505050600190565b60018060a01b038091166000526007602052604060002091166000526020526122a46040600020611747565b908151156122ae57565b60405162461bcd60e51b815260206004820152601160248201527014ddd85c081c185d1a081b9bdd081cd95d607a1b6044820152606490fd5b156122ee57565b60405162461bcd60e51b815260206004820152601760248201527f47617567652067657420726577617264206661696c65640000000000000000006044820152606490fd5b6002546040516370a0823160e01b81526001600160a01b0392831660048201529160209183916024918391165afa9081156104a157600091612373575090565b906020823d8211612399575b8161238c60209383611725565b81010312611c8a57505190565b3d915061237f56fea2646970667358221220876583371ec2559506c674b5623574cef5d56dcc7ae05a4989d25e7e497a18ca64736f6c63430008140033",
          "opcodes": "PUSH1 0x80 CALLVALUE PUSH3 0x256 JUMPI PUSH1 0x1F PUSH3 0x265E CODESIZE DUP2 SWAP1 SUB SWAP2 DUP3 ADD PUSH1 0x1F NOT AND DUP4 ADD SWAP3 SWAP2 SWAP1 PUSH1 0x1 PUSH1 0x1 PUSH1 0x40 SHL SUB DUP5 GT DUP4 DUP6 LT OR PUSH3 0x25B JUMPI DUP2 PUSH1 0xA0 SWAP3 DUP5 SWAP3 PUSH1 0x40 SWAP7 DUP8 MSTORE DUP4 CODECOPY DUP2 ADD SUB SLT PUSH3 0x256 JUMPI PUSH3 0x51 DUP2 PUSH3 0x271 JUMP JUMPDEST PUSH3 0x5F PUSH1 0x20 DUP4 ADD PUSH3 0x271 JUMP JUMPDEST SWAP1 PUSH3 0x6D DUP5 DUP5 ADD PUSH3 0x271 JUMP JUMPDEST SWAP3 PUSH3 0x8A PUSH1 0x80 PUSH3 0x82 PUSH1 0x60 DUP5 ADD PUSH3 0x271 JUMP JUMPDEST SWAP3 ADD PUSH3 0x271 JUMP JUMPDEST PUSH1 0x1 PUSH1 0x1 PUSH1 0xA0 SHL SUB SWAP3 DUP4 AND SWAP4 SWAP1 SWAP3 SWAP1 DUP5 ISZERO PUSH3 0x23E JUMPI PUSH1 0x0 DUP1 SLOAD PUSH1 0x1 PUSH1 0x1 PUSH1 0xA0 SHL SUB NOT DUP1 DUP3 AND DUP9 OR DUP4 SSTORE SWAP7 DUP5 SWAP4 SWAP3 SWAP1 SWAP2 DUP5 AND SWAP1 PUSH32 0x8BE0079C531659141344CD1FD0A4F28419497F9722A3DAAFE3B4186F6B6457E0 SWAP1 DUP1 LOG3 PUSH1 0x32 PUSH1 0x5 SSTORE AND SWAP5 DUP6 ISZERO PUSH3 0x1FA JUMPI DUP2 AND SWAP2 DUP3 ISZERO PUSH3 0x1B6 JUMPI DUP2 AND SWAP3 DUP4 ISZERO PUSH3 0x181 JUMPI AND SWAP4 DUP5 ISZERO PUSH3 0x13D JUMPI DUP4 PUSH1 0x1 SLOAD AND OR PUSH1 0x1 SSTORE DUP3 PUSH1 0x2 SLOAD AND OR PUSH1 0x2 SSTORE DUP2 PUSH1 0x4 SLOAD AND OR PUSH1 0x4 SSTORE PUSH1 0x3 SLOAD AND OR PUSH1 0x3 SSTORE MLOAD PUSH2 0x23D7 SWAP1 DUP2 PUSH3 0x287 DUP3 CODECOPY RETURN JUMPDEST DUP6 MLOAD PUSH3 0x461BCD PUSH1 0xE5 SHL DUP2 MSTORE PUSH1 0x20 PUSH1 0x4 DUP3 ADD MSTORE PUSH1 0x13 PUSH1 0x24 DUP3 ADD MSTORE PUSH32 0x496E76616C6964207377617020726F7574657200000000000000000000000000 PUSH1 0x44 DUP3 ADD MSTORE PUSH1 0x64 SWAP1 REVERT JUMPDEST DUP7 MLOAD PUSH3 0x461BCD PUSH1 0xE5 SHL DUP2 MSTORE PUSH1 0x20 PUSH1 0x4 DUP3 ADD MSTORE PUSH1 0xE PUSH1 0x24 DUP3 ADD MSTORE PUSH14 0x24B73B30B634B21038BAB7BA32B9 PUSH1 0x91 SHL PUSH1 0x44 DUP3 ADD MSTORE PUSH1 0x64 SWAP1 REVERT JUMPDEST DUP7 MLOAD PUSH3 0x461BCD PUSH1 0xE5 SHL DUP2 MSTORE PUSH1 0x20 PUSH1 0x4 DUP3 ADD MSTORE PUSH1 0x15 PUSH1 0x24 DUP3 ADD MSTORE PUSH32 0x496E76616C69642072657761726420737461626C650000000000000000000000 PUSH1 0x44 DUP3 ADD MSTORE PUSH1 0x64 SWAP1 REVERT JUMPDEST DUP7 MLOAD PUSH3 0x461BCD PUSH1 0xE5 SHL DUP2 MSTORE PUSH1 0x20 PUSH1 0x4 DUP3 ADD MSTORE PUSH1 0x14 PUSH1 0x24 DUP3 ADD MSTORE PUSH32 0x496E76616C69642072657761726420746F6B656E000000000000000000000000 PUSH1 0x44 DUP3 ADD MSTORE PUSH1 0x64 SWAP1 REVERT JUMPDEST DUP7 MLOAD PUSH4 0x1E4FBDF7 PUSH1 0xE0 SHL DUP2 MSTORE PUSH1 0x0 PUSH1 0x4 DUP3 ADD MSTORE PUSH1 0x24 SWAP1 REVERT JUMPDEST PUSH1 0x0 DUP1 REVERT JUMPDEST PUSH4 0x4E487B71 PUSH1 0xE0 SHL PUSH1 0x0 MSTORE PUSH1 0x41 PUSH1 0x4 MSTORE PUSH1 0x24 PUSH1 0x0 REVERT JUMPDEST MLOAD SWAP1 PUSH1 0x1 PUSH1 0x1 PUSH1 0xA0 SHL SUB DUP3 AND DUP3 SUB PUSH3 0x256 JUMPI JUMP INVALID PUSH1 0x80 PUSH1 0x40 MSTORE PUSH1 0x4 CALLDATASIZE LT ISZERO PUSH2 0x12 JUMPI PUSH1 0x0 DUP1 REVERT JUMPDEST PUSH1 0x0 CALLDATALOAD PUSH1 0xE0 SHR DUP1 PUSH4 0x117DA1EE EQ PUSH2 0x15F0 JUMPI DUP1 PUSH4 0x3341870D EQ PUSH2 0x139C JUMPI DUP1 PUSH4 0x3B7D0946 EQ PUSH2 0x132B JUMPI DUP1 PUSH4 0x424C265B EQ PUSH2 0x12B7 JUMPI DUP1 PUSH4 0x483103A4 EQ PUSH2 0x1073 JUMPI DUP1 PUSH4 0x4A6A749C EQ PUSH2 0x100A JUMPI DUP1 PUSH4 0x715018A6 EQ PUSH2 0xFB1 JUMPI DUP1 PUSH4 0x8AEE8127 EQ PUSH2 0xF05 JUMPI DUP1 PUSH4 0x8DA5CB5B EQ PUSH2 0xEDC JUMPI DUP1 PUSH4 0xAC6E07EE EQ PUSH2 0x752 JUMPI DUP1 PUSH4 0xC13D2F75 EQ PUSH2 0x6A5 JUMPI DUP1 PUSH4 0xC31C9C07 EQ PUSH2 0x67C JUMPI DUP1 PUSH4 0xC6BBD5A7 EQ PUSH2 0x653 JUMPI DUP1 PUSH4 0xD03153AA EQ PUSH2 0x635 JUMPI DUP1 PUSH4 0xE6370309 EQ PUSH2 0x20C JUMPI DUP1 PUSH4 0xF0BBCEC4 EQ PUSH2 0x1CD JUMPI DUP1 PUSH4 0xF2BF87E3 EQ PUSH2 0x1A4 JUMPI DUP1 PUSH4 0xF2FDE38B EQ PUSH2 0x11B JUMPI PUSH4 0xF7C618C1 EQ PUSH2 0xED JUMPI PUSH1 0x0 DUP1 REVERT JUMPDEST CALLVALUE PUSH2 0x116 JUMPI PUSH1 0x0 CALLDATASIZE PUSH1 0x3 NOT ADD SLT PUSH2 0x116 JUMPI PUSH1 0x1 SLOAD PUSH1 0x40 MLOAD PUSH1 0x1 PUSH1 0x1 PUSH1 0xA0 SHL SUB SWAP1 SWAP2 AND DUP2 MSTORE PUSH1 0x20 SWAP1 RETURN JUMPDEST PUSH1 0x0 DUP1 REVERT JUMPDEST CALLVALUE PUSH2 0x116 JUMPI PUSH1 0x20 CALLDATASIZE PUSH1 0x3 NOT ADD SLT PUSH2 0x116 JUMPI PUSH2 0x134 PUSH2 0x1687 JUMP JUMPDEST PUSH2 0x13C PUSH2 0x1835 JUMP JUMPDEST PUSH1 0x1 PUSH1 0x1 PUSH1 0xA0 SHL SUB SWAP1 DUP2 AND SWAP1 DUP2 ISZERO PUSH2 0x18B JUMPI PUSH1 0x0 SLOAD DUP3 PUSH1 0x1 PUSH1 0x1 PUSH1 0x60 SHL SUB PUSH1 0xA0 SHL DUP3 AND OR PUSH1 0x0 SSTORE AND PUSH32 0x8BE0079C531659141344CD1FD0A4F28419497F9722A3DAAFE3B4186F6B6457E0 PUSH1 0x0 DUP1 LOG3 STOP JUMPDEST PUSH1 0x40 MLOAD PUSH4 0x1E4FBDF7 PUSH1 0xE0 SHL DUP2 MSTORE PUSH1 0x0 PUSH1 0x4 DUP3 ADD MSTORE PUSH1 0x24 SWAP1 REVERT JUMPDEST CALLVALUE PUSH2 0x116 JUMPI PUSH1 0x0 CALLDATASIZE PUSH1 0x3 NOT ADD SLT PUSH2 0x116 JUMPI PUSH1 0x2 SLOAD PUSH1 0x40 MLOAD PUSH1 0x1 PUSH1 0x1 PUSH1 0xA0 SHL SUB SWAP1 SWAP2 AND DUP2 MSTORE PUSH1 0x20 SWAP1 RETURN JUMPDEST CALLVALUE PUSH2 0x116 JUMPI PUSH1 0x20 CALLDATASIZE PUSH1 0x3 NOT ADD SLT PUSH2 0x116 JUMPI PUSH1 0x1 PUSH1 0x1 PUSH1 0xA0 SHL SUB PUSH2 0x1EE PUSH2 0x1687 JUMP JUMPDEST AND PUSH1 0x0 MSTORE PUSH1 0x6 PUSH1 0x20 MSTORE PUSH1 0x20 PUSH1 0xFF PUSH1 0x40 PUSH1 0x0 KECCAK256 SLOAD AND PUSH1 0x40 MLOAD SWAP1 ISZERO ISZERO DUP2 MSTORE RETURN JUMPDEST CALLVALUE PUSH2 0x116 JUMPI PUSH1 0x40 CALLDATASIZE PUSH1 0x3 NOT ADD SLT PUSH2 0x116 JUMPI PUSH2 0x225 PUSH2 0x1687 JUMP JUMPDEST PUSH1 0x24 CALLDATALOAD PUSH1 0x1 DUP1 PUSH1 0xA0 SHL SUB DUP1 SWAP3 AND SWAP2 DUP3 PUSH1 0x0 MSTORE PUSH1 0x20 SWAP1 PUSH1 0x6 DUP3 MSTORE PUSH2 0x24F PUSH1 0xFF PUSH1 0x40 PUSH1 0x0 KECCAK256 SLOAD AND PUSH2 0x189C JUMP JUMPDEST PUSH1 0x40 MLOAD PUSH4 0x23E66501 PUSH1 0xE1 SHL DUP2 MSTORE SWAP1 DUP3 DUP3 PUSH1 0x4 DUP2 DUP9 GAS STATICCALL SWAP2 DUP3 ISZERO PUSH2 0x4A1 JUMPI PUSH1 0x0 SWAP3 PUSH2 0x5FE JUMPI JUMPDEST POP PUSH1 0x40 MLOAD PUSH4 0x133F7571 PUSH1 0xE3 SHL DUP2 MSTORE PUSH1 0x4 DUP2 ADD DUP6 SWAP1 MSTORE SWAP1 PUSH2 0x180 SWAP1 DUP2 DUP4 PUSH1 0x24 DUP2 DUP8 DUP6 AND GAS STATICCALL SWAP3 DUP4 ISZERO PUSH2 0x4A1 JUMPI PUSH1 0x0 SWAP3 PUSH1 0x0 SWAP5 PUSH2 0x5BE JUMPI JUMPDEST POP POP PUSH1 0x40 MLOAD PUSH4 0x29BC6721 PUSH1 0xE2 SHL DUP2 MSTORE SWAP3 DUP6 DUP5 PUSH1 0x4 DUP2 DUP12 GAS STATICCALL SWAP4 DUP5 ISZERO PUSH2 0x4A1 JUMPI PUSH1 0x0 SWAP5 PUSH2 0x587 JUMPI JUMPDEST POP PUSH2 0x315 DUP3 DUP6 AND SWAP5 PUSH2 0x2E2 CALLER PUSH2 0x2333 JUMP JUMPDEST PUSH1 0x40 MLOAD PUSH4 0xC69DEEC5 PUSH1 0xE0 SHL DUP2 MSTORE CALLER PUSH1 0x4 DUP3 ADD MSTORE PUSH1 0x24 DUP2 ADD DUP12 SWAP1 MSTORE PUSH1 0x0 SWAP8 DUP9 SWAP8 SWAP3 SWAP6 SWAP2 SWAP5 SWAP2 SWAP3 SWAP2 DUP12 SWAP1 DUP7 SWAP1 DUP2 SWAP1 PUSH1 0x44 DUP3 ADD SWAP1 JUMP JUMPDEST SUB DUP2 DUP5 GAS STATICCALL SWAP5 DUP6 ISZERO PUSH2 0x4A1 JUMPI DUP12 SWAP2 DUP14 SWAP2 PUSH1 0x0 SWAP8 PUSH2 0x547 JUMPI JUMPDEST POP PUSH1 0x40 MLOAD PUSH4 0x3E491D47 PUSH1 0xE0 SHL DUP2 MSTORE CALLER PUSH1 0x4 DUP3 ADD MSTORE PUSH1 0x24 DUP2 ADD SWAP3 SWAP1 SWAP3 MSTORE SWAP1 SWAP2 SWAP1 DUP3 SWAP1 DUP2 DUP1 PUSH1 0x44 DUP2 ADD JUMPDEST SUB SWAP2 GAS STATICCALL SWAP10 DUP11 ISZERO PUSH2 0x4A1 JUMPI DUP12 SWAP6 DUP14 SWAP3 PUSH1 0x0 SWAP13 PUSH2 0x513 JUMPI JUMPDEST POP ISZERO PUSH2 0x4AD JUMPI POP POP POP POP DUP7 PUSH2 0x3D3 JUMPI JUMPDEST POP POP PUSH2 0x392 SWAP2 POP JUMPDEST PUSH2 0x38D CALLER PUSH2 0x2333 JUMP JUMPDEST PUSH2 0x1A50 JUMP JUMPDEST SWAP4 PUSH1 0x40 MLOAD SWAP6 DUP7 MSTORE DUP6 ADD MSTORE PUSH1 0x40 DUP5 ADD MSTORE PUSH1 0x60 DUP4 ADD MSTORE PUSH1 0x80 DUP3 ADD MSTORE PUSH32 0x694588A032A621C2C34A328AFBC6A04B9B9824CD08E38BCD497470A906EF79D6 PUSH1 0xA0 CALLER SWAP3 LOG3 STOP JUMPDEST PUSH1 0x40 MLOAD PUSH4 0x1C4B774B PUSH1 0xE0 SHL DUP2 DUP5 ADD MSTORE PUSH1 0x24 DUP1 DUP3 ADD DUP12 SWAP1 MSTORE DUP2 MSTORE PUSH2 0x415 SWAP3 SWAP2 PUSH2 0x3FA DUP3 PUSH2 0x1709 JUMP JUMPDEST PUSH1 0x40 MLOAD PUSH4 0x468721A7 PUSH1 0xE0 SHL DUP2 MSTORE SWAP4 DUP5 SWAP3 DUP4 SWAP3 PUSH1 0x4 DUP5 ADD PUSH2 0x1A80 JUMP JUMPDEST SUB DUP2 PUSH1 0x0 CALLER GAS CALL DUP1 ISZERO PUSH2 0x4A1 JUMPI DUP7 SWAP2 PUSH1 0x0 SWAP2 PUSH2 0x457 JUMPI JUMPDEST POP PUSH2 0x450 SWAP2 PUSH2 0x392 SWAP5 PUSH2 0x441 PUSH2 0x44B SWAP4 PUSH2 0x22E7 JUMP JUMPDEST PUSH1 0x1 SLOAD AND CALLER PUSH2 0x1F41 JUMP JUMPDEST PUSH2 0x1AB1 JUMP JUMPDEST DUP6 DUP10 PUSH2 0x37C JUMP JUMPDEST DUP1 SWAP3 POP DUP9 DUP1 SWAP3 POP RETURNDATASIZE DUP4 GT PUSH2 0x49A JUMPI JUMPDEST PUSH2 0x470 DUP2 DUP4 PUSH2 0x1725 JUMP JUMPDEST DUP2 ADD SUB SLT PUSH2 0x116 JUMPI PUSH2 0x44B DUP7 PUSH2 0x392 SWAP5 PUSH2 0x441 PUSH2 0x48F PUSH2 0x450 SWAP6 PUSH2 0x1A73 JUMP JUMPDEST SWAP4 POP POP SWAP5 POP SWAP2 PUSH2 0x42C JUMP JUMPDEST POP RETURNDATASIZE PUSH2 0x466 JUMP JUMPDEST PUSH1 0x40 MLOAD RETURNDATASIZE PUSH1 0x0 DUP3 RETURNDATACOPY RETURNDATASIZE SWAP1 REVERT JUMPDEST SWAP3 SWAP9 POP SWAP3 POP SWAP6 POP PUSH2 0x392 SWAP5 POP PUSH2 0x4C4 SWAP3 POP CALLER PUSH2 0x1D67 JUMP JUMPDEST SWAP1 SWAP5 DUP2 SWAP6 DUP1 SWAP6 DUP2 PUSH2 0x4F9 JUMPI JUMPDEST POP POP DUP2 PUSH2 0x4DF JUMPI JUMPDEST POP POP PUSH2 0x384 JUMP JUMPDEST PUSH2 0x4F2 SWAP2 PUSH2 0x4ED SWAP2 CALLER PUSH2 0x1F41 JUMP JUMPDEST PUSH2 0x1A0F JUMP JUMPDEST DUP9 DUP1 PUSH2 0x4D8 JUMP JUMPDEST PUSH2 0x50C SWAP2 PUSH2 0x507 SWAP2 CALLER PUSH2 0x1F41 JUMP JUMPDEST PUSH2 0x19CE JUMP JUMPDEST DUP11 DUP1 PUSH2 0x4D0 JUMP JUMPDEST SWAP3 POP SWAP11 POP SWAP5 DUP2 DUP2 RETURNDATASIZE DUP4 GT PUSH2 0x540 JUMPI JUMPDEST PUSH2 0x52C DUP2 DUP4 PUSH2 0x1725 JUMP JUMPDEST DUP2 ADD SUB SLT PUSH2 0x116 JUMPI DUP11 SWAP5 DUP13 SWAP2 MLOAD SWAP11 DUP16 PUSH2 0x36C JUMP JUMPDEST POP RETURNDATASIZE PUSH2 0x522 JUMP JUMPDEST SWAP3 DUP4 SWAP2 SWAP8 POP DUP1 SWAP3 POP RETURNDATASIZE DUP4 GT PUSH2 0x580 JUMPI JUMPDEST PUSH2 0x561 DUP2 DUP4 PUSH2 0x1725 JUMP JUMPDEST DUP2 ADD SUB SLT PUSH2 0x116 JUMPI DUP11 DUP13 PUSH2 0x577 PUSH2 0x355 SWAP4 PUSH2 0x1A73 JUMP JUMPDEST SWAP7 SWAP1 SWAP2 SWAP3 PUSH2 0x32D JUMP JUMPDEST POP RETURNDATASIZE PUSH2 0x557 JUMP JUMPDEST SWAP1 SWAP4 POP DUP6 DUP2 DUP2 RETURNDATASIZE DUP4 GT PUSH2 0x5B7 JUMPI JUMPDEST PUSH2 0x59F DUP2 DUP4 PUSH2 0x1725 JUMP JUMPDEST DUP2 ADD SUB SLT PUSH2 0x116 JUMPI PUSH2 0x5B0 SWAP1 PUSH2 0x18F2 JUMP JUMPDEST SWAP3 DUP9 PUSH2 0x2D1 JUMP JUMPDEST POP RETURNDATASIZE PUSH2 0x595 JUMP JUMPDEST DUP1 SWAP2 SWAP3 SWAP5 POP PUSH2 0x5E2 SWAP4 POP SWAP1 RETURNDATASIZE LT PUSH2 0x5F7 JUMPI JUMPDEST PUSH2 0x5DA DUP2 DUP4 PUSH2 0x1725 JUMP JUMPDEST DUP2 ADD SWAP1 PUSH2 0x1928 JUMP JUMPDEST POP POP POP POP POP POP POP POP SWAP3 POP SWAP1 POP SWAP1 SWAP2 DUP8 DUP1 PUSH2 0x2AA JUMP JUMPDEST POP RETURNDATASIZE PUSH2 0x5D0 JUMP JUMPDEST SWAP1 SWAP2 POP DUP3 DUP2 DUP2 RETURNDATASIZE DUP4 GT PUSH2 0x62E JUMPI JUMPDEST PUSH2 0x616 DUP2 DUP4 PUSH2 0x1725 JUMP JUMPDEST DUP2 ADD SUB SLT PUSH2 0x116 JUMPI PUSH2 0x627 SWAP1 PUSH2 0x18F2 JUMP JUMPDEST SWAP1 DUP6 PUSH2 0x274 JUMP JUMPDEST POP RETURNDATASIZE PUSH2 0x60C JUMP JUMPDEST CALLVALUE PUSH2 0x116 JUMPI PUSH1 0x0 CALLDATASIZE PUSH1 0x3 NOT ADD SLT PUSH2 0x116 JUMPI PUSH1 0x20 PUSH1 0x5 SLOAD PUSH1 0x40 MLOAD SWAP1 DUP2 MSTORE RETURN JUMPDEST CALLVALUE PUSH2 0x116 JUMPI PUSH1 0x0 CALLDATASIZE PUSH1 0x3 NOT ADD SLT PUSH2 0x116 JUMPI PUSH1 0x4 SLOAD PUSH1 0x40 MLOAD PUSH1 0x1 PUSH1 0x1 PUSH1 0xA0 SHL SUB SWAP1 SWAP2 AND DUP2 MSTORE PUSH1 0x20 SWAP1 RETURN JUMPDEST CALLVALUE PUSH2 0x116 JUMPI PUSH1 0x0 CALLDATASIZE PUSH1 0x3 NOT ADD SLT PUSH2 0x116 JUMPI PUSH1 0x3 SLOAD PUSH1 0x40 MLOAD PUSH1 0x1 PUSH1 0x1 PUSH1 0xA0 SHL SUB SWAP1 SWAP2 AND DUP2 MSTORE PUSH1 0x20 SWAP1 RETURN JUMPDEST CALLVALUE PUSH2 0x116 JUMPI PUSH1 0x20 CALLDATASIZE PUSH1 0x3 NOT ADD SLT PUSH2 0x116 JUMPI PUSH2 0x6BE PUSH2 0x1687 JUMP JUMPDEST PUSH2 0x6C6 PUSH2 0x1835 JUMP JUMPDEST PUSH1 0x1 PUSH1 0x1 PUSH1 0xA0 SHL SUB SWAP1 DUP2 AND SWAP1 DUP2 ISZERO PUSH2 0x715 JUMPI PUSH1 0x2 SLOAD DUP3 PUSH1 0x1 PUSH1 0x1 PUSH1 0x60 SHL SUB PUSH1 0xA0 SHL DUP3 AND OR PUSH1 0x2 SSTORE AND PUSH32 0x9D4858DCCB76DEBED7845FD87EC5C769962D072D518C9E34182581ABB3E8247C PUSH1 0x0 DUP1 LOG3 STOP JUMPDEST PUSH1 0x40 MLOAD PUSH3 0x461BCD PUSH1 0xE5 SHL DUP2 MSTORE PUSH1 0x20 PUSH1 0x4 DUP3 ADD MSTORE PUSH1 0x15 PUSH1 0x24 DUP3 ADD MSTORE PUSH21 0x496E76616C69642072657761726420737461626C65 PUSH1 0x58 SHL PUSH1 0x44 DUP3 ADD MSTORE PUSH1 0x64 SWAP1 REVERT JUMPDEST CALLVALUE PUSH2 0x116 JUMPI PUSH1 0x40 CALLDATASIZE PUSH1 0x3 NOT ADD SLT PUSH2 0x116 JUMPI PUSH1 0x1 PUSH1 0x1 PUSH1 0xA0 SHL SUB PUSH2 0x773 PUSH2 0x1687 JUMP JUMPDEST AND DUP1 PUSH1 0x0 MSTORE PUSH1 0x6 PUSH1 0x20 MSTORE PUSH2 0x78E PUSH1 0xFF PUSH1 0x40 PUSH1 0x0 KECCAK256 SLOAD AND PUSH2 0x189C JUMP JUMPDEST PUSH1 0x40 MLOAD PUSH4 0x23E66501 PUSH1 0xE1 SHL DUP2 MSTORE PUSH1 0x20 DUP2 PUSH1 0x4 DUP2 DUP6 GAS STATICCALL SWAP1 DUP2 ISZERO PUSH2 0x4A1 JUMPI PUSH1 0x0 SWAP2 PUSH2 0xEA2 JUMPI JUMPDEST POP PUSH1 0x40 MLOAD PUSH4 0x133F7571 PUSH1 0xE3 SHL DUP2 MSTORE PUSH1 0x24 DUP1 CALLDATALOAD PUSH1 0x4 DUP4 ADD MSTORE PUSH2 0x180 SWAP1 DUP3 SWAP1 DUP2 PUSH1 0x1 PUSH1 0x1 PUSH1 0xA0 SHL SUB DUP7 AND GAS STATICCALL SWAP2 DUP3 ISZERO PUSH2 0x4A1 JUMPI PUSH1 0x0 SWAP3 PUSH1 0x0 DUP1 SWAP3 PUSH1 0x0 SWAP5 PUSH1 0x0 SWAP4 PUSH2 0xE6A JUMPI JUMPDEST POP DUP4 PUSH2 0x801 CALLER PUSH2 0x2333 JUMP JUMPDEST SWAP3 PUSH1 0x40 MLOAD SWAP8 PUSH4 0x29BC6721 PUSH1 0xE2 SHL DUP10 MSTORE PUSH1 0x20 DUP10 PUSH1 0x4 DUP2 DUP14 GAS STATICCALL SWAP9 DUP10 ISZERO PUSH2 0x4A1 JUMPI PUSH1 0x0 SWAP10 PUSH2 0xE2E JUMPI JUMPDEST POP PUSH1 0x40 MLOAD PUSH4 0x3E491D47 PUSH1 0xE0 SHL DUP2 MSTORE CALLER PUSH1 0x4 DUP3 ADD MSTORE PUSH1 0x24 DUP1 CALLDATALOAD SWAP1 DUP3 ADD MSTORE SWAP7 PUSH1 0x20 DUP9 PUSH1 0x44 DUP2 PUSH1 0x1 PUSH1 0x1 PUSH1 0xA0 SHL SUB DUP15 AND GAS STATICCALL SWAP8 DUP9 ISZERO PUSH2 0x4A1 JUMPI PUSH1 0x0 SWAP9 PUSH2 0xDF3 JUMPI JUMPDEST POP PUSH1 0x1 PUSH1 0x1 PUSH1 0x80 SHL SUB SWAP1 PUSH2 0x87D PUSH1 0x24 CALLDATALOAD DUP13 CALLER PUSH2 0x1AF5 JUMP JUMPDEST AND DUP1 PUSH2 0xBDC JUMPI JUMPDEST POP PUSH2 0x8C4 SWAP2 PUSH2 0x8B3 PUSH2 0x507 PUSH2 0x4ED SWAP4 PUSH2 0x8A0 PUSH1 0x24 CALLDATALOAD DUP10 CALLER PUSH2 0x1D67 JUMP JUMPDEST POP POP PUSH1 0x1 PUSH1 0x1 PUSH1 0x80 SHL SUB DUP13 AND SWAP1 CALLER PUSH2 0x1F41 JUMP JUMPDEST PUSH1 0x1 PUSH1 0x1 PUSH1 0x80 SHL SUB DUP8 AND SWAP1 CALLER PUSH2 0x1F41 JUMP JUMPDEST PUSH1 0x40 MLOAD PUSH4 0x133F7571 PUSH1 0xE3 SHL DUP2 MSTORE PUSH1 0x24 DUP1 CALLDATALOAD PUSH1 0x4 DUP4 ADD MSTORE PUSH2 0x180 SWAP1 DUP3 SWAP1 DUP2 PUSH1 0x1 PUSH1 0x1 PUSH1 0xA0 SHL SUB DUP8 AND GAS STATICCALL SWAP1 DUP2 ISZERO PUSH2 0x4A1 JUMPI PUSH1 0x0 SWAP1 PUSH1 0x0 SWAP3 PUSH2 0xBA4 JUMPI JUMPDEST POP PUSH1 0x1 PUSH1 0x1 PUSH1 0x80 SHL SUB AND PUSH2 0xB5F JUMPI PUSH1 0x1 PUSH1 0x1 PUSH1 0x80 SHL SUB AND PUSH2 0xB1A JUMPI PUSH1 0x1 PUSH1 0x1 PUSH1 0x80 SHL SUB AND PUSH2 0xAE0 JUMPI PUSH1 0x20 PUSH2 0x952 SWAP2 PUSH1 0x40 MLOAD SWAP1 PUSH4 0x852CD8D PUSH1 0xE3 SHL DUP4 DUP4 ADD MSTORE PUSH1 0x24 CALLDATALOAD PUSH1 0x24 DUP4 ADD MSTORE PUSH1 0x24 DUP3 MSTORE PUSH2 0x3FA DUP3 PUSH2 0x1709 JUMP JUMPDEST SUB DUP2 PUSH1 0x0 CALLER GAS CALL SWAP1 DUP2 ISZERO PUSH2 0x4A1 JUMPI PUSH1 0x0 SWAP2 PUSH2 0xAA6 JUMPI JUMPDEST POP ISZERO PUSH2 0xA73 JUMPI PUSH2 0x97B SWAP1 PUSH2 0x38D CALLER PUSH2 0x2333 JUMP JUMPDEST PUSH1 0x40 MLOAD PUSH4 0xC69DEEC5 PUSH1 0xE0 SHL DUP2 MSTORE CALLER PUSH1 0x4 DUP3 ADD MSTORE PUSH1 0x24 DUP1 CALLDATALOAD SWAP1 DUP3 ADD MSTORE SWAP5 SWAP1 SWAP4 SWAP1 PUSH1 0x20 SWAP1 DUP7 SWAP1 PUSH1 0x44 SWAP1 DUP3 SWAP1 PUSH1 0x1 PUSH1 0x1 PUSH1 0xA0 SHL SUB AND GAS STATICCALL SWAP5 DUP6 ISZERO PUSH2 0x4A1 JUMPI PUSH1 0x0 SWAP6 PUSH2 0xA37 JUMPI JUMPDEST POP DUP5 ISZERO PUSH2 0xA31 JUMPI POP PUSH1 0x0 SWAP4 JUMPDEST ISZERO PUSH2 0xA23 JUMPI POP PUSH1 0x1 PUSH1 0x1 PUSH1 0x80 SHL SUB PUSH1 0x0 JUMPDEST DUP2 PUSH1 0x40 MLOAD SWAP6 PUSH1 0x24 CALLDATALOAD DUP8 MSTORE AND PUSH1 0x20 DUP7 ADD MSTORE AND PUSH1 0x40 DUP5 ADD MSTORE PUSH1 0x60 DUP4 ADD MSTORE PUSH1 0x80 DUP3 ADD MSTORE PUSH32 0xAB246CBDD9653A6D72A5DBAC4C4246A5BFA3C50A09DDCA840F7C735607C65460 PUSH1 0xA0 CALLER SWAP3 LOG3 STOP JUMPDEST PUSH1 0x1 PUSH1 0x1 PUSH1 0x80 SHL SUB SWAP1 PUSH2 0x9DB JUMP JUMPDEST SWAP4 PUSH2 0x9CA JUMP JUMPDEST SWAP1 SWAP5 POP PUSH1 0x20 DUP2 RETURNDATASIZE PUSH1 0x20 GT PUSH2 0xA6B JUMPI JUMPDEST DUP2 PUSH2 0xA53 PUSH1 0x20 SWAP4 DUP4 PUSH2 0x1725 JUMP JUMPDEST DUP2 ADD SUB SLT PUSH2 0x116 JUMPI PUSH2 0xA64 SWAP1 PUSH2 0x1A73 JUMP JUMPDEST SWAP4 DUP7 PUSH2 0x9BE JUMP JUMPDEST RETURNDATASIZE SWAP2 POP PUSH2 0xA46 JUMP JUMPDEST PUSH1 0x40 MLOAD PUSH3 0x461BCD PUSH1 0xE5 SHL DUP2 MSTORE PUSH1 0x20 PUSH1 0x4 DUP3 ADD MSTORE PUSH1 0xB PUSH1 0x24 DUP3 ADD MSTORE PUSH11 0x109D5C9B8819985A5B1959 PUSH1 0xAA SHL PUSH1 0x44 DUP3 ADD MSTORE PUSH1 0x64 SWAP1 REVERT JUMPDEST SWAP1 POP PUSH1 0x20 DUP2 RETURNDATASIZE PUSH1 0x20 GT PUSH2 0xAD8 JUMPI JUMPDEST DUP2 PUSH2 0xAC1 PUSH1 0x20 SWAP4 DUP4 PUSH2 0x1725 JUMP JUMPDEST DUP2 ADD SUB SLT PUSH2 0x116 JUMPI PUSH2 0xAD2 SWAP1 PUSH2 0x1A73 JUMP JUMPDEST DUP8 PUSH2 0x968 JUMP JUMPDEST RETURNDATASIZE SWAP2 POP PUSH2 0xAB4 JUMP JUMPDEST PUSH1 0x40 MLOAD PUSH3 0x461BCD PUSH1 0xE5 SHL DUP2 MSTORE PUSH1 0x20 PUSH1 0x4 DUP3 ADD MSTORE PUSH1 0x12 PUSH1 0x24 DUP3 ADD MSTORE PUSH18 0x4C6971756964697479206E6F74207A65726F PUSH1 0x70 SHL PUSH1 0x44 DUP3 ADD MSTORE PUSH1 0x64 SWAP1 REVERT JUMPDEST PUSH1 0x40 MLOAD PUSH3 0x461BCD PUSH1 0xE5 SHL DUP2 MSTORE PUSH1 0x20 PUSH1 0x4 DUP3 ADD MSTORE PUSH1 0x17 PUSH1 0x24 DUP3 ADD MSTORE PUSH32 0x556E636F6C6C656374656420746F6B656E312066656573000000000000000000 PUSH1 0x44 DUP3 ADD MSTORE PUSH1 0x64 SWAP1 REVERT JUMPDEST PUSH1 0x40 MLOAD PUSH3 0x461BCD PUSH1 0xE5 SHL DUP2 MSTORE PUSH1 0x20 PUSH1 0x4 DUP3 ADD MSTORE PUSH1 0x17 PUSH1 0x24 DUP3 ADD MSTORE PUSH32 0x556E636F6C6C656374656420746F6B656E302066656573000000000000000000 PUSH1 0x44 DUP3 ADD MSTORE PUSH1 0x64 SWAP1 REVERT JUMPDEST PUSH1 0x1 PUSH1 0x1 PUSH1 0x80 SHL SUB SWAP3 POP PUSH2 0xBC9 SWAP2 POP PUSH2 0x180 RETURNDATASIZE PUSH2 0x180 GT PUSH2 0x5F7 JUMPI PUSH2 0x5DA DUP2 DUP4 PUSH2 0x1725 JUMP JUMPDEST SWAP12 SWAP11 POP SWAP9 POP POP POP POP POP POP POP POP POP SWAP1 PUSH2 0x8FF JUMP JUMPDEST PUSH1 0x40 MLOAD SWAP2 SWAP4 POP PUSH2 0xBEB DUP3 PUSH2 0x16ED JUMP JUMPDEST PUSH1 0x24 CALLDATALOAD DUP3 MSTORE PUSH1 0x20 DUP3 ADD SWAP1 DUP2 MSTORE PUSH1 0x40 DUP3 ADD PUSH1 0x0 DUP2 MSTORE PUSH1 0x60 DUP4 ADD SWAP1 PUSH1 0x0 DUP3 MSTORE PUSH1 0x1 PUSH1 0x1 PUSH1 0x80 SHL SUB PUSH1 0x80 DUP6 ADD SWAP4 TIMESTAMP DUP6 MSTORE PUSH1 0x40 MLOAD SWAP6 PUSH4 0x624E65F PUSH1 0xE1 SHL PUSH1 0x20 DUP9 ADD MSTORE MLOAD PUSH1 0x24 DUP8 ADD MSTORE MLOAD AND PUSH1 0x44 DUP6 ADD MSTORE MLOAD PUSH1 0x64 DUP5 ADD MSTORE MLOAD PUSH1 0x84 DUP4 ADD MSTORE MLOAD PUSH1 0xA4 DUP3 ADD MSTORE PUSH1 0xA4 DUP2 MSTORE DUP1 PUSH1 0xE0 DUP2 ADD LT PUSH8 0xFFFFFFFFFFFFFFFF PUSH1 0xE0 DUP4 ADD GT OR PUSH2 0xDDD JUMPI PUSH1 0xE0 DUP2 ADD PUSH1 0x40 DUP2 SWAP1 MSTORE PUSH4 0x468721A7 PUSH1 0xE0 SHL DUP2 MSTORE PUSH1 0x20 SWAP1 PUSH1 0xDF NOT DUP4 PUSH2 0xC8D DUP2 DUP10 PUSH1 0xE4 DUP3 ADD PUSH2 0x1A80 JUMP JUMPDEST SUB ADD PUSH1 0xE0 DUP5 ADD PUSH1 0x0 CALLER GAS CALL SWAP1 DUP2 ISZERO PUSH2 0x4A1 JUMPI PUSH1 0x0 SWAP2 PUSH2 0xD9D JUMPI JUMPDEST POP ISZERO PUSH2 0xD58 JUMPI PUSH1 0x40 MLOAD PUSH4 0x133F7571 PUSH1 0xE3 SHL DUP2 MSTORE PUSH1 0x24 DUP1 CALLDATALOAD PUSH1 0x4 DUP4 ADD MSTORE PUSH2 0x180 SWAP1 DUP3 SWAP1 DUP2 PUSH1 0x1 PUSH1 0x1 PUSH1 0xA0 SHL SUB DUP9 AND GAS STATICCALL SWAP2 DUP3 ISZERO PUSH2 0x4A1 JUMPI PUSH2 0x8B3 PUSH2 0x507 DUP11 PUSH2 0x4ED SWAP5 DUP11 PUSH2 0x8C4 SWAP8 PUSH1 0x0 SWAP3 PUSH1 0x0 SWAP1 PUSH1 0x0 SWAP3 PUSH2 0xD1C JUMPI JUMPDEST POP PUSH2 0xD10 SWAP4 SWAP5 PUSH2 0xD0A SWAP2 PUSH2 0x1D4E JUMP JUMPDEST POP PUSH2 0x1D4E JUMP JUMPDEST POP SWAP6 SWAP4 POP POP POP SWAP2 PUSH2 0x884 JUMP JUMPDEST PUSH2 0xD10 SWAP5 POP PUSH2 0xD0A SWAP3 POP PUSH2 0xD41 SWAP2 POP PUSH2 0x180 RETURNDATASIZE PUSH2 0x180 GT PUSH2 0x5F7 JUMPI PUSH2 0x5DA DUP2 DUP4 PUSH2 0x1725 JUMP JUMPDEST SWAP4 SWAP14 SWAP4 SWAP12 POP SWAP10 POP SWAP2 SWAP8 POP PUSH2 0xCFB SWAP7 POP POP POP POP POP POP POP JUMP JUMPDEST PUSH1 0x40 MLOAD PUSH3 0x461BCD PUSH1 0xE5 SHL DUP2 MSTORE PUSH1 0x20 PUSH1 0x4 DUP3 ADD MSTORE PUSH1 0x19 PUSH1 0x24 DUP3 ADD MSTORE PUSH32 0x4465637265617365206C6971756964697479206661696C656400000000000000 PUSH1 0x44 DUP3 ADD MSTORE PUSH1 0x64 SWAP1 REVERT JUMPDEST SWAP1 POP PUSH1 0x20 DUP2 RETURNDATASIZE PUSH1 0x20 GT PUSH2 0xDD5 JUMPI JUMPDEST DUP2 PUSH2 0xDBB PUSH1 0x20 SWAP4 PUSH1 0xE0 DUP5 ADD PUSH2 0x1725 JUMP JUMPDEST DUP2 ADD SUB SLT PUSH2 0x116 JUMPI PUSH1 0xE0 PUSH2 0xDCF SWAP2 ADD PUSH2 0x1A73 JUMP JUMPDEST DUP11 PUSH2 0xCA7 JUMP JUMPDEST RETURNDATASIZE SWAP2 POP PUSH2 0xDAB JUMP JUMPDEST PUSH4 0x4E487B71 PUSH1 0xE0 SHL PUSH1 0x0 MSTORE PUSH1 0x41 PUSH1 0x4 MSTORE PUSH1 0x24 PUSH1 0x0 REVERT JUMPDEST SWAP1 SWAP8 POP PUSH1 0x20 DUP2 RETURNDATASIZE PUSH1 0x20 GT PUSH2 0xE26 JUMPI JUMPDEST DUP2 PUSH2 0xE0F PUSH1 0x20 SWAP4 DUP4 PUSH2 0x1725 JUMP JUMPDEST DUP2 ADD SUB SLT PUSH2 0x116 JUMPI MLOAD SWAP7 PUSH1 0x1 PUSH1 0x1 PUSH1 0x80 SHL SUB PUSH2 0x866 JUMP JUMPDEST RETURNDATASIZE SWAP2 POP PUSH2 0xE02 JUMP JUMPDEST SWAP1 SWAP9 POP PUSH1 0x20 DUP2 RETURNDATASIZE PUSH1 0x20 GT PUSH2 0xE62 JUMPI JUMPDEST DUP2 PUSH2 0xE4A PUSH1 0x20 SWAP4 DUP4 PUSH2 0x1725 JUMP JUMPDEST DUP2 ADD SUB SLT PUSH2 0x116 JUMPI PUSH2 0xE5B SWAP1 PUSH2 0x18F2 JUMP JUMPDEST SWAP8 DUP11 PUSH2 0x828 JUMP JUMPDEST RETURNDATASIZE SWAP2 POP PUSH2 0xE3D JUMP JUMPDEST SWAP4 POP SWAP5 POP POP POP PUSH2 0xE8B SWAP2 POP PUSH2 0x180 RETURNDATASIZE PUSH2 0x180 GT PUSH2 0x5F7 JUMPI PUSH2 0x5DA DUP2 DUP4 PUSH2 0x1725 JUMP JUMPDEST SWAP9 SWAP12 SWAP1 SWAP11 POP SWAP3 SWAP9 POP SWAP2 SWAP5 POP DUP12 SWAP4 POP PUSH2 0x7F6 SWAP3 POP POP POP JUMP JUMPDEST SWAP1 POP PUSH1 0x20 DUP2 RETURNDATASIZE PUSH1 0x20 GT PUSH2 0xED4 JUMPI JUMPDEST DUP2 PUSH2 0xEBD PUSH1 0x20 SWAP4 DUP4 PUSH2 0x1725 JUMP JUMPDEST DUP2 ADD SUB SLT PUSH2 0x116 JUMPI PUSH2 0xECE SWAP1 PUSH2 0x18F2 JUMP JUMPDEST DUP3 PUSH2 0x7B3 JUMP JUMPDEST RETURNDATASIZE SWAP2 POP PUSH2 0xEB0 JUMP JUMPDEST CALLVALUE PUSH2 0x116 JUMPI PUSH1 0x0 CALLDATASIZE PUSH1 0x3 NOT ADD SLT PUSH2 0x116 JUMPI PUSH1 0x0 SLOAD PUSH1 0x40 MLOAD PUSH1 0x1 PUSH1 0x1 PUSH1 0xA0 SHL SUB SWAP1 SWAP2 AND DUP2 MSTORE PUSH1 0x20 SWAP1 RETURN JUMPDEST CALLVALUE PUSH2 0x116 JUMPI PUSH1 0x20 CALLDATASIZE PUSH1 0x3 NOT ADD SLT PUSH2 0x116 JUMPI PUSH2 0xF1E PUSH2 0x1687 JUMP JUMPDEST PUSH2 0xF26 PUSH2 0x1835 JUMP JUMPDEST PUSH1 0x1 PUSH1 0x1 PUSH1 0xA0 SHL SUB SWAP1 DUP2 AND SWAP1 DUP2 ISZERO PUSH2 0xF75 JUMPI PUSH1 0x1 SLOAD DUP3 PUSH1 0x1 PUSH1 0x1 PUSH1 0x60 SHL SUB PUSH1 0xA0 SHL DUP3 AND OR PUSH1 0x1 SSTORE AND PUSH32 0x906FF2422A6FFA134F2D7CCAFFD446BC0C583A5CB6615749B4B2836942A5FEA8 PUSH1 0x0 DUP1 LOG3 STOP JUMPDEST PUSH1 0x40 MLOAD PUSH3 0x461BCD PUSH1 0xE5 SHL DUP2 MSTORE PUSH1 0x20 PUSH1 0x4 DUP3 ADD MSTORE PUSH1 0x14 PUSH1 0x24 DUP3 ADD MSTORE PUSH20 0x24B73B30B634B2103932BBB0B932103A37B5B2B7 PUSH1 0x61 SHL PUSH1 0x44 DUP3 ADD MSTORE PUSH1 0x64 SWAP1 REVERT JUMPDEST CALLVALUE PUSH2 0x116 JUMPI PUSH1 0x0 CALLDATASIZE PUSH1 0x3 NOT ADD SLT PUSH2 0x116 JUMPI PUSH2 0xFCA PUSH2 0x1835 JUMP JUMPDEST PUSH1 0x0 DUP1 SLOAD PUSH1 0x1 PUSH1 0x1 PUSH1 0xA0 SHL SUB NOT DUP2 AND DUP3 SSTORE PUSH1 0x1 PUSH1 0x1 PUSH1 0xA0 SHL SUB AND PUSH32 0x8BE0079C531659141344CD1FD0A4F28419497F9722A3DAAFE3B4186F6B6457E0 DUP3 DUP1 LOG3 STOP JUMPDEST CALLVALUE PUSH2 0x116 JUMPI PUSH1 0x40 CALLDATASIZE PUSH1 0x3 NOT ADD SLT PUSH2 0x116 JUMPI PUSH2 0x1023 PUSH2 0x1687 JUMP JUMPDEST PUSH2 0x102B PUSH2 0x169D JUMP JUMPDEST SWAP1 PUSH1 0x1 DUP1 PUSH1 0xA0 SHL SUB DUP1 SWAP2 AND PUSH1 0x0 MSTORE PUSH1 0x7 PUSH1 0x20 MSTORE PUSH1 0x40 PUSH1 0x0 KECCAK256 SWAP2 AND PUSH1 0x0 MSTORE PUSH1 0x20 MSTORE PUSH2 0x106F PUSH2 0x105B PUSH1 0x40 PUSH1 0x0 KECCAK256 PUSH2 0x1747 JUMP JUMPDEST PUSH1 0x40 MLOAD SWAP2 DUP3 SWAP2 PUSH1 0x20 DUP4 MSTORE PUSH1 0x20 DUP4 ADD SWAP1 PUSH2 0x1810 JUMP JUMPDEST SUB SWAP1 RETURN JUMPDEST CALLVALUE PUSH2 0x116 JUMPI PUSH1 0x60 CALLDATASIZE PUSH1 0x3 NOT ADD SLT PUSH2 0x116 JUMPI PUSH2 0x108C PUSH2 0x1687 JUMP JUMPDEST PUSH2 0x1094 PUSH2 0x169D JUMP JUMPDEST SWAP1 PUSH1 0x44 CALLDATALOAD SWAP1 PUSH8 0xFFFFFFFFFFFFFFFF SWAP1 DUP2 DUP4 GT PUSH2 0x116 JUMPI CALLDATASIZE PUSH1 0x23 DUP5 ADD SLT ISZERO PUSH2 0x116 JUMPI DUP3 PUSH1 0x4 ADD CALLDATALOAD SWAP2 DUP3 GT PUSH2 0x116 JUMPI PUSH1 0x24 SWAP1 CALLDATASIZE DUP3 DUP5 DUP7 ADD ADD GT PUSH2 0x116 JUMPI PUSH2 0x10D7 PUSH2 0x1835 JUMP JUMPDEST PUSH1 0x1 PUSH1 0x1 PUSH1 0xA0 SHL SUB SWAP1 DUP2 AND SWAP5 DUP6 ISZERO PUSH2 0x127F JUMPI AND SWAP4 DUP5 ISZERO PUSH2 0x1249 JUMPI DUP3 ISZERO PUSH2 0x1216 JUMPI PUSH1 0x0 MSTORE PUSH1 0x20 SWAP4 PUSH1 0x7 DUP6 MSTORE PUSH1 0x40 PUSH1 0x0 KECCAK256 SWAP1 PUSH1 0x0 MSTORE DUP5 MSTORE PUSH1 0x40 PUSH1 0x0 KECCAK256 SWAP3 PUSH2 0x111C DUP5 SLOAD PUSH2 0x16B3 JUMP JUMPDEST PUSH1 0x1F DUP2 GT PUSH2 0x11D0 JUMPI JUMPDEST POP PUSH1 0x0 SWAP5 PUSH1 0x1F DUP5 GT PUSH1 0x1 EQ PUSH2 0x1167 JUMPI POP SWAP4 DUP3 SWAP4 SWAP5 PUSH1 0x0 SWAP4 PUSH2 0x115A JUMPI JUMPDEST POP POP POP PUSH1 0x0 NOT PUSH1 0x3 DUP4 SWAP1 SHL SHR NOT AND PUSH1 0x1 SWAP2 SWAP1 SWAP2 SHL OR SWAP1 SSTORE STOP JUMPDEST ADD ADD CALLDATALOAD SWAP1 POP DUP4 DUP1 DUP1 PUSH2 0x1141 JUMP JUMPDEST SWAP2 PUSH1 0x1F NOT DUP5 AND SWAP6 DUP6 PUSH1 0x0 MSTORE DUP4 PUSH1 0x0 KECCAK256 SWAP4 PUSH1 0x0 SWAP1 JUMPDEST DUP9 DUP3 LT PUSH2 0x11B6 JUMPI POP POP DUP5 PUSH1 0x1 SWAP7 SWAP8 LT PUSH2 0x119A JUMPI JUMPDEST POP POP POP POP DUP2 SHL ADD SWAP1 SSTORE STOP JUMPDEST PUSH1 0x0 NOT PUSH1 0xF8 DUP7 PUSH1 0x3 SHL AND SHR NOT SWAP3 ADD ADD CALLDATALOAD AND SWAP1 SSTORE DUP4 DUP1 DUP1 DUP1 PUSH2 0x118F JUMP JUMPDEST DUP1 PUSH1 0x1 DUP5 SWAP8 DUP7 DUP4 SWAP6 SWAP7 DUP10 ADD ADD CALLDATALOAD DUP2 SSTORE ADD SWAP7 ADD SWAP3 ADD SWAP1 PUSH2 0x117B JUMP JUMPDEST DUP5 PUSH1 0x0 MSTORE DUP6 PUSH1 0x0 KECCAK256 PUSH1 0x1F DUP6 ADD PUSH1 0x5 SHR DUP2 ADD SWAP2 DUP8 DUP7 LT PUSH2 0x120C JUMPI JUMPDEST PUSH1 0x1F ADD PUSH1 0x5 SHR ADD SWAP1 JUMPDEST DUP2 DUP2 LT PUSH2 0x1200 JUMPI POP PUSH2 0x1125 JUMP JUMPDEST PUSH1 0x0 DUP2 SSTORE PUSH1 0x1 ADD PUSH2 0x11F3 JUMP JUMPDEST SWAP1 SWAP2 POP DUP2 SWAP1 PUSH2 0x11EA JUMP JUMPDEST PUSH1 0x40 MLOAD PUSH3 0x461BCD PUSH1 0xE5 SHL DUP2 MSTORE PUSH1 0x20 PUSH1 0x4 DUP3 ADD MSTORE PUSH1 0xC DUP2 DUP5 ADD MSTORE PUSH12 0x92DCECC2D8D2C840E0C2E8D PUSH1 0xA3 SHL PUSH1 0x44 DUP3 ADD MSTORE PUSH1 0x64 SWAP1 REVERT JUMPDEST PUSH1 0x40 MLOAD PUSH3 0x461BCD PUSH1 0xE5 SHL DUP2 MSTORE PUSH1 0x20 PUSH1 0x4 DUP3 ADD MSTORE PUSH1 0xF DUP2 DUP5 ADD MSTORE PUSH15 0x24B73B30B634B2103A37AA37B5B2B7 PUSH1 0x89 SHL PUSH1 0x44 DUP3 ADD MSTORE PUSH1 0x64 SWAP1 REVERT JUMPDEST PUSH1 0x40 MLOAD PUSH3 0x461BCD PUSH1 0xE5 SHL DUP2 MSTORE PUSH1 0x20 PUSH1 0x4 DUP3 ADD MSTORE PUSH1 0x11 DUP2 DUP6 ADD MSTORE PUSH17 0x24B73B30B634B210333937B6AA37B5B2B7 PUSH1 0x79 SHL PUSH1 0x44 DUP3 ADD MSTORE PUSH1 0x64 SWAP1 REVERT JUMPDEST CALLVALUE PUSH2 0x116 JUMPI PUSH1 0x20 CALLDATASIZE PUSH1 0x3 NOT ADD SLT PUSH2 0x116 JUMPI PUSH2 0x12D0 PUSH2 0x1687 JUMP JUMPDEST PUSH2 0x12D8 PUSH2 0x1835 JUMP JUMPDEST PUSH1 0x1 PUSH1 0x1 PUSH1 0xA0 SHL SUB AND PUSH2 0x12EC DUP2 ISZERO ISZERO PUSH2 0x1861 JUMP JUMPDEST PUSH1 0x0 DUP2 DUP2 MSTORE PUSH1 0x6 PUSH1 0x20 MSTORE PUSH1 0x40 DUP2 KECCAK256 DUP1 SLOAD PUSH1 0xFF NOT AND PUSH1 0x1 OR SWAP1 SSTORE PUSH32 0xFC1F1E73948CBC47C5B7F90E5601B7DACCD9AD7173218486CCC74BDD051D05E8 DUP2 DUP1 LOG3 STOP JUMPDEST CALLVALUE PUSH2 0x116 JUMPI PUSH1 0x20 CALLDATASIZE PUSH1 0x3 NOT ADD SLT PUSH2 0x116 JUMPI PUSH2 0x1344 PUSH2 0x1687 JUMP JUMPDEST PUSH2 0x134C PUSH2 0x1835 JUMP JUMPDEST PUSH1 0x1 PUSH1 0x1 PUSH1 0xA0 SHL SUB AND PUSH2 0x1360 DUP2 ISZERO ISZERO PUSH2 0x1861 JUMP JUMPDEST PUSH1 0x0 DUP2 DUP2 MSTORE PUSH1 0x6 PUSH1 0x20 MSTORE PUSH1 0x40 DUP2 KECCAK256 DUP1 SLOAD PUSH1 0xFF NOT AND SWAP1 SSTORE PUSH32 0x987EB3C2F78454541205F72F34839B434C306C9EAF4922EFD7C0C3060FDB2E4C DUP2 DUP1 LOG3 STOP JUMPDEST CALLVALUE PUSH2 0x116 JUMPI PUSH1 0x40 CALLDATASIZE PUSH1 0x3 NOT ADD SLT PUSH2 0x116 JUMPI PUSH2 0x13B5 PUSH2 0x1687 JUMP JUMPDEST PUSH1 0x24 CALLDATALOAD SWAP1 PUSH1 0x4 PUSH1 0x1 DUP1 PUSH1 0xA0 SHL SUB DUP1 SWAP3 AND SWAP2 DUP3 PUSH1 0x0 MSTORE PUSH1 0x20 DUP1 SWAP4 PUSH1 0x6 DUP3 MSTORE PUSH2 0x13E3 PUSH1 0xFF PUSH1 0x40 PUSH1 0x0 KECCAK256 SLOAD AND PUSH2 0x189C JUMP JUMPDEST PUSH1 0x40 MLOAD PUSH4 0x29BC6721 PUSH1 0xE2 SHL DUP2 MSTORE SWAP4 DUP5 SWAP2 DUP3 SWAP1 GAS STATICCALL SWAP2 DUP3 ISZERO PUSH2 0x4A1 JUMPI PUSH1 0x0 SWAP3 PUSH2 0x15B9 JUMPI JUMPDEST POP PUSH1 0x40 MLOAD PUSH4 0x3E491D47 PUSH1 0xE0 SHL DUP2 MSTORE CALLER PUSH1 0x4 DUP3 ADD MSTORE PUSH1 0x24 DUP2 ADD DUP6 SWAP1 MSTORE SWAP1 DUP3 AND DUP4 DUP3 PUSH1 0x44 DUP2 DUP5 GAS STATICCALL SWAP2 DUP3 ISZERO PUSH2 0x4A1 JUMPI PUSH1 0x0 SWAP3 PUSH2 0x158A JUMPI JUMPDEST POP PUSH1 0x40 MLOAD PUSH4 0xC69DEEC5 PUSH1 0xE0 SHL DUP2 MSTORE CALLER PUSH1 0x4 DUP3 ADD MSTORE PUSH1 0x24 DUP2 ADD DUP7 SWAP1 MSTORE SWAP1 DUP5 SWAP1 DUP3 SWAP1 PUSH1 0x44 SWAP1 DUP3 SWAP1 GAS STATICCALL SWAP1 DUP2 ISZERO PUSH2 0x4A1 JUMPI PUSH1 0x0 SWAP2 PUSH2 0x1555 JUMPI JUMPDEST POP ISZERO PUSH2 0x151A JUMPI PUSH2 0x147D JUMPI STOP JUMPDEST PUSH2 0x14C0 SWAP3 DUP3 SWAP2 PUSH1 0x40 MLOAD SWAP2 PUSH4 0x1C4B774B PUSH1 0xE0 SHL DUP5 DUP5 ADD MSTORE PUSH1 0x24 DUP4 ADD MSTORE PUSH1 0x24 DUP3 MSTORE PUSH2 0x14A5 DUP3 PUSH2 0x1709 JUMP JUMPDEST PUSH1 0x40 MLOAD PUSH4 0x468721A7 PUSH1 0xE0 SHL DUP2 MSTORE SWAP5 DUP6 SWAP3 DUP4 SWAP3 PUSH1 0x4 DUP5 ADD PUSH2 0x1A80 JUMP JUMPDEST SUB DUP2 PUSH1 0x0 CALLER GAS CALL SWAP1 DUP2 ISZERO PUSH2 0x4A1 JUMPI PUSH1 0x0 SWAP2 PUSH2 0x14E3 JUMPI JUMPDEST POP PUSH2 0x14E1 SWAP2 POP PUSH2 0x22E7 JUMP JUMPDEST STOP JUMPDEST SWAP1 POP DUP2 DUP2 RETURNDATASIZE DUP4 GT PUSH2 0x1513 JUMPI JUMPDEST PUSH2 0x14F9 DUP2 DUP4 PUSH2 0x1725 JUMP JUMPDEST DUP2 ADD SUB SLT PUSH2 0x116 JUMPI PUSH2 0x150D PUSH2 0x14E1 SWAP2 PUSH2 0x1A73 JUMP JUMPDEST DUP3 PUSH2 0x14D6 JUMP JUMPDEST POP RETURNDATASIZE PUSH2 0x14EF JUMP JUMPDEST PUSH1 0x40 MLOAD PUSH3 0x461BCD PUSH1 0xE5 SHL DUP2 MSTORE PUSH1 0x4 DUP2 ADD DUP5 SWAP1 MSTORE PUSH1 0x13 PUSH1 0x24 DUP3 ADD MSTORE PUSH19 0x141BDCDA5D1A5BDB881B9BDD081CDD185AD959 PUSH1 0x6A SHL PUSH1 0x44 DUP3 ADD MSTORE PUSH1 0x64 SWAP1 REVERT JUMPDEST SWAP1 POP DUP4 DUP2 DUP2 RETURNDATASIZE DUP4 GT PUSH2 0x1583 JUMPI JUMPDEST PUSH2 0x156C DUP2 DUP4 PUSH2 0x1725 JUMP JUMPDEST DUP2 ADD SUB SLT PUSH2 0x116 JUMPI PUSH2 0x157D SWAP1 PUSH2 0x1A73 JUMP JUMPDEST DUP6 PUSH2 0x1471 JUMP JUMPDEST POP RETURNDATASIZE PUSH2 0x1562 JUMP JUMPDEST SWAP1 SWAP2 POP DUP4 DUP2 DUP2 RETURNDATASIZE DUP4 GT PUSH2 0x15B2 JUMPI JUMPDEST PUSH2 0x15A2 DUP2 DUP4 PUSH2 0x1725 JUMP JUMPDEST DUP2 ADD SUB SLT PUSH2 0x116 JUMPI MLOAD SWAP1 DUP6 PUSH2 0x143B JUMP JUMPDEST POP RETURNDATASIZE PUSH2 0x1598 JUMP JUMPDEST SWAP1 SWAP2 POP DUP3 DUP2 DUP2 RETURNDATASIZE DUP4 GT PUSH2 0x15E9 JUMPI JUMPDEST PUSH2 0x15D1 DUP2 DUP4 PUSH2 0x1725 JUMP JUMPDEST DUP2 ADD SUB SLT PUSH2 0x116 JUMPI PUSH2 0x15E2 SWAP1 PUSH2 0x18F2 JUMP JUMPDEST SWAP1 DUP5 PUSH2 0x1406 JUMP JUMPDEST POP RETURNDATASIZE PUSH2 0x15C7 JUMP JUMPDEST CALLVALUE PUSH2 0x116 JUMPI PUSH1 0x20 CALLDATASIZE PUSH1 0x3 NOT ADD SLT PUSH2 0x116 JUMPI PUSH1 0x4 CALLDATALOAD PUSH2 0x160C PUSH2 0x1835 JUMP JUMPDEST PUSH2 0x3E8 DUP2 GT PUSH2 0x164E JUMPI PUSH1 0x40 PUSH32 0xDDD31550B26E9EF8ADE466958BE83FF8A014D9B4F36D546B61A6847A45306575 SWAP2 PUSH1 0x5 SLOAD SWAP1 DUP1 PUSH1 0x5 SSTORE DUP3 MLOAD SWAP2 DUP3 MSTORE PUSH1 0x20 DUP3 ADD MSTORE LOG1 STOP JUMPDEST PUSH1 0x40 MLOAD PUSH3 0x461BCD PUSH1 0xE5 SHL DUP2 MSTORE PUSH1 0x20 PUSH1 0x4 DUP3 ADD MSTORE PUSH1 0x11 PUSH1 0x24 DUP3 ADD MSTORE PUSH17 0xA6D8D2E0E0C2CECA40E8DEDE40D0D2CED PUSH1 0x7B SHL PUSH1 0x44 DUP3 ADD MSTORE PUSH1 0x64 SWAP1 REVERT JUMPDEST PUSH1 0x4 CALLDATALOAD SWAP1 PUSH1 0x1 PUSH1 0x1 PUSH1 0xA0 SHL SUB DUP3 AND DUP3 SUB PUSH2 0x116 JUMPI JUMP JUMPDEST PUSH1 0x24 CALLDATALOAD SWAP1 PUSH1 0x1 PUSH1 0x1 PUSH1 0xA0 SHL SUB DUP3 AND DUP3 SUB PUSH2 0x116 JUMPI JUMP JUMPDEST SWAP1 PUSH1 0x1 DUP3 DUP2 SHR SWAP3 AND DUP1 ISZERO PUSH2 0x16E3 JUMPI JUMPDEST PUSH1 0x20 DUP4 LT EQ PUSH2 0x16CD JUMPI JUMP JUMPDEST PUSH4 0x4E487B71 PUSH1 0xE0 SHL PUSH1 0x0 MSTORE PUSH1 0x22 PUSH1 0x4 MSTORE PUSH1 0x24 PUSH1 0x0 REVERT JUMPDEST SWAP2 PUSH1 0x7F AND SWAP2 PUSH2 0x16C2 JUMP JUMPDEST PUSH1 0xA0 DUP2 ADD SWAP1 DUP2 LT PUSH8 0xFFFFFFFFFFFFFFFF DUP3 GT OR PUSH2 0xDDD JUMPI PUSH1 0x40 MSTORE JUMP JUMPDEST PUSH1 0x60 DUP2 ADD SWAP1 DUP2 LT PUSH8 0xFFFFFFFFFFFFFFFF DUP3 GT OR PUSH2 0xDDD JUMPI PUSH1 0x40 MSTORE JUMP JUMPDEST SWAP1 PUSH1 0x1F DUP1 NOT SWAP2 ADD AND DUP2 ADD SWAP1 DUP2 LT PUSH8 0xFFFFFFFFFFFFFFFF DUP3 GT OR PUSH2 0xDDD JUMPI PUSH1 0x40 MSTORE JUMP JUMPDEST SWAP1 PUSH1 0x40 MLOAD SWAP2 DUP3 PUSH1 0x0 DUP3 SLOAD SWAP3 PUSH2 0x175B DUP5 PUSH2 0x16B3 JUMP JUMPDEST SWAP1 DUP2 DUP5 MSTORE PUSH1 0x1 SWAP5 DUP6 DUP2 AND SWAP1 DUP2 PUSH1 0x0 EQ PUSH2 0x17CA JUMPI POP PUSH1 0x1 EQ PUSH2 0x1787 JUMPI JUMPDEST POP POP PUSH2 0x1785 SWAP3 POP SUB DUP4 PUSH2 0x1725 JUMP JUMPDEST JUMP JUMPDEST SWAP1 SWAP4 SWAP2 POP PUSH1 0x0 MSTORE PUSH1 0x20 SWAP1 DUP2 PUSH1 0x0 KECCAK256 SWAP4 PUSH1 0x0 SWAP2 JUMPDEST DUP2 DUP4 LT PUSH2 0x17B2 JUMPI POP POP PUSH2 0x1785 SWAP4 POP DUP3 ADD ADD CODESIZE DUP1 PUSH2 0x1777 JUMP JUMPDEST DUP6 SLOAD DUP9 DUP5 ADD DUP6 ADD MSTORE SWAP5 DUP6 ADD SWAP5 DUP8 SWAP5 POP SWAP2 DUP4 ADD SWAP2 PUSH2 0x179A JUMP JUMPDEST SWAP2 POP POP PUSH2 0x1785 SWAP5 POP PUSH1 0x20 SWAP3 POP PUSH1 0xFF NOT AND DUP3 DUP5 ADD MSTORE ISZERO ISZERO PUSH1 0x5 SHL DUP3 ADD ADD CODESIZE DUP1 PUSH2 0x1777 JUMP JUMPDEST PUSH1 0x0 JUMPDEST DUP4 DUP2 LT PUSH2 0x1800 JUMPI POP POP PUSH1 0x0 SWAP2 ADD MSTORE JUMP JUMPDEST DUP2 DUP2 ADD MLOAD DUP4 DUP3 ADD MSTORE PUSH1 0x20 ADD PUSH2 0x17F0 JUMP JUMPDEST SWAP1 PUSH1 0x20 SWAP2 PUSH2 0x1829 DUP2 MLOAD DUP1 SWAP3 DUP2 DUP6 MSTORE DUP6 DUP1 DUP7 ADD SWAP2 ADD PUSH2 0x17ED JUMP JUMPDEST PUSH1 0x1F ADD PUSH1 0x1F NOT AND ADD ADD SWAP1 JUMP JUMPDEST PUSH1 0x0 SLOAD PUSH1 0x1 PUSH1 0x1 PUSH1 0xA0 SHL SUB AND CALLER SUB PUSH2 0x1849 JUMPI JUMP JUMPDEST PUSH1 0x40 MLOAD PUSH4 0x118CDAA7 PUSH1 0xE0 SHL DUP2 MSTORE CALLER PUSH1 0x4 DUP3 ADD MSTORE PUSH1 0x24 SWAP1 REVERT JUMPDEST ISZERO PUSH2 0x1868 JUMPI JUMP JUMPDEST PUSH1 0x40 MLOAD PUSH3 0x461BCD PUSH1 0xE5 SHL DUP2 MSTORE PUSH1 0x20 PUSH1 0x4 DUP3 ADD MSTORE PUSH1 0xC PUSH1 0x24 DUP3 ADD MSTORE PUSH12 0x125B9D985B1A59081C1BDBDB PUSH1 0xA2 SHL PUSH1 0x44 DUP3 ADD MSTORE PUSH1 0x64 SWAP1 REVERT JUMPDEST ISZERO PUSH2 0x18A3 JUMPI JUMP JUMPDEST PUSH1 0x40 MLOAD PUSH3 0x461BCD PUSH1 0xE5 SHL DUP2 MSTORE PUSH1 0x20 PUSH1 0x4 DUP3 ADD MSTORE PUSH1 0x21 PUSH1 0x24 DUP3 ADD MSTORE PUSH32 0x506F6F6C206E6F7420617070726F76656420666F722074686973206D6F64756C PUSH1 0x44 DUP3 ADD MSTORE PUSH1 0x65 PUSH1 0xF8 SHL PUSH1 0x64 DUP3 ADD MSTORE PUSH1 0x84 SWAP1 REVERT JUMPDEST MLOAD SWAP1 PUSH1 0x1 PUSH1 0x1 PUSH1 0xA0 SHL SUB DUP3 AND DUP3 SUB PUSH2 0x116 JUMPI JUMP JUMPDEST MLOAD SWAP1 DUP2 PUSH1 0x2 SIGNEXTEND DUP3 SUB PUSH2 0x116 JUMPI JUMP JUMPDEST MLOAD SWAP1 PUSH1 0x1 PUSH1 0x1 PUSH1 0x80 SHL SUB DUP3 AND DUP3 SUB PUSH2 0x116 JUMPI JUMP JUMPDEST SWAP2 SWAP1 DUP3 PUSH2 0x180 SWAP2 SUB SLT PUSH2 0x116 JUMPI DUP2 MLOAD PUSH1 0x1 PUSH1 0x1 PUSH1 0x60 SHL SUB DUP2 AND DUP2 SUB PUSH2 0x116 JUMPI SWAP2 PUSH2 0x1954 PUSH1 0x20 DUP3 ADD PUSH2 0x18F2 JUMP JUMPDEST SWAP2 PUSH2 0x1961 PUSH1 0x40 DUP4 ADD PUSH2 0x18F2 JUMP JUMPDEST SWAP2 PUSH2 0x196E PUSH1 0x60 DUP3 ADD PUSH2 0x18F2 JUMP JUMPDEST SWAP2 PUSH2 0x197B PUSH1 0x80 DUP4 ADD PUSH2 0x1906 JUMP JUMPDEST SWAP2 PUSH2 0x1988 PUSH1 0xA0 DUP3 ADD PUSH2 0x1906 JUMP JUMPDEST SWAP2 PUSH2 0x1995 PUSH1 0xC0 DUP4 ADD PUSH2 0x1906 JUMP JUMPDEST SWAP2 PUSH2 0x19A2 PUSH1 0xE0 DUP3 ADD PUSH2 0x1914 JUMP JUMPDEST SWAP2 PUSH2 0x100 DUP3 ADD MLOAD SWAP2 PUSH2 0x120 DUP2 ADD MLOAD SWAP2 PUSH2 0x19CB PUSH2 0x160 PUSH2 0x19C4 PUSH2 0x140 DUP6 ADD PUSH2 0x1914 JUMP JUMPDEST SWAP4 ADD PUSH2 0x1914 JUMP JUMPDEST SWAP1 JUMP JUMPDEST ISZERO PUSH2 0x19D5 JUMPI JUMP JUMPDEST PUSH1 0x40 MLOAD PUSH3 0x461BCD PUSH1 0xE5 SHL DUP2 MSTORE PUSH1 0x20 PUSH1 0x4 DUP3 ADD MSTORE PUSH1 0x12 PUSH1 0x24 DUP3 ADD MSTORE PUSH18 0x151BDAD95B8C081CDDD85C0819985A5B1959 PUSH1 0x72 SHL PUSH1 0x44 DUP3 ADD MSTORE PUSH1 0x64 SWAP1 REVERT JUMPDEST ISZERO PUSH2 0x1A16 JUMPI JUMP JUMPDEST PUSH1 0x40 MLOAD PUSH3 0x461BCD PUSH1 0xE5 SHL DUP2 MSTORE PUSH1 0x20 PUSH1 0x4 DUP3 ADD MSTORE PUSH1 0x12 PUSH1 0x24 DUP3 ADD MSTORE PUSH18 0x151BDAD95B8C481CDDD85C0819985A5B1959 PUSH1 0x72 SHL PUSH1 0x44 DUP3 ADD MSTORE PUSH1 0x64 SWAP1 REVERT JUMPDEST SWAP2 SWAP1 DUP3 SUB SWAP2 DUP3 GT PUSH2 0x1A5D JUMPI JUMP JUMPDEST PUSH4 0x4E487B71 PUSH1 0xE0 SHL PUSH1 0x0 MSTORE PUSH1 0x11 PUSH1 0x4 MSTORE PUSH1 0x24 PUSH1 0x0 REVERT JUMPDEST MLOAD SWAP1 DUP2 ISZERO ISZERO DUP3 SUB PUSH2 0x116 JUMPI JUMP JUMPDEST SWAP3 SWAP2 PUSH2 0x1AAC PUSH1 0x60 SWAP2 PUSH1 0x0 SWAP4 PUSH1 0x1 DUP1 PUSH1 0xA0 SHL SUB AND DUP7 MSTORE DUP4 PUSH1 0x20 DUP8 ADD MSTORE PUSH1 0x80 PUSH1 0x40 DUP8 ADD MSTORE PUSH1 0x80 DUP7 ADD SWAP1 PUSH2 0x1810 JUMP JUMPDEST SWAP4 ADD MSTORE JUMP JUMPDEST ISZERO PUSH2 0x1AB8 JUMPI JUMP JUMPDEST PUSH1 0x40 MLOAD PUSH3 0x461BCD PUSH1 0xE5 SHL DUP2 MSTORE PUSH1 0x20 PUSH1 0x4 DUP3 ADD MSTORE PUSH1 0x15 PUSH1 0x24 DUP3 ADD MSTORE PUSH21 0x14DDD85C081D1BC81CDD18589B194819985A5B1959 PUSH1 0x5A SHL PUSH1 0x44 DUP3 ADD MSTORE PUSH1 0x64 SWAP1 REVERT JUMPDEST SWAP2 PUSH1 0x1 PUSH1 0x1 PUSH1 0xA0 SHL SUB SWAP2 DUP3 DUP2 AND SWAP2 SWAP1 DUP3 ISZERO PUSH2 0x1D19 JUMPI PUSH1 0x40 DUP1 MLOAD PUSH4 0xC69DEEC5 PUSH1 0xE0 SHL DUP2 MSTORE DUP6 DUP8 AND PUSH1 0x1 PUSH1 0x1 PUSH1 0xA0 SHL SUB DUP2 AND PUSH1 0x4 DUP4 ADD MSTORE PUSH1 0x24 DUP3 ADD DUP6 SWAP1 MSTORE PUSH1 0x20 SWAP5 SWAP3 SWAP4 SWAP1 SWAP3 SWAP1 SWAP2 DUP6 DUP2 PUSH1 0x44 DUP2 DUP11 GAS STATICCALL SWAP1 DUP2 ISZERO PUSH2 0x1CD9 JUMPI PUSH1 0x0 SWAP2 PUSH2 0x1CE4 JUMPI JUMPDEST POP DUP5 MLOAD PUSH4 0x3E491D47 PUSH1 0xE0 SHL DUP2 MSTORE PUSH1 0x1 PUSH1 0x1 PUSH1 0xA0 SHL SUB DUP6 AND PUSH1 0x4 DUP3 ADD MSTORE PUSH1 0x24 DUP2 ADD DUP4 SWAP1 MSTORE SWAP7 DUP7 SWAP1 DUP9 SWAP1 PUSH1 0x44 SWAP1 DUP3 SWAP1 GAS STATICCALL SWAP7 DUP8 ISZERO PUSH2 0x1CD9 JUMPI PUSH1 0x0 SWAP8 PUSH2 0x1CAA JUMPI JUMPDEST POP DUP1 ISZERO PUSH2 0x1C9F JUMPI PUSH2 0x1BBC JUMPI JUMPDEST POP POP POP POP POP DUP1 PUSH2 0x1BAA JUMPI POP POP POP JUMP JUMPDEST PUSH2 0x1785 SWAP3 PUSH2 0x44B SWAP3 PUSH1 0x1 SLOAD AND SWAP1 PUSH2 0x1F41 JUMP JUMPDEST PUSH2 0x1C00 SWAP3 DUP6 SWAP3 DUP6 MLOAD SWAP3 PUSH4 0x2E1A7D4D PUSH1 0xE0 SHL DUP6 DUP6 ADD MSTORE PUSH1 0x24 DUP5 ADD MSTORE PUSH1 0x24 DUP4 MSTORE PUSH2 0x1BE3 DUP4 PUSH2 0x1709 JUMP JUMPDEST PUSH1 0x0 DUP7 MLOAD DUP1 SWAP7 DUP2 SWAP6 DUP3 SWAP5 PUSH4 0x468721A7 PUSH1 0xE0 SHL DUP5 MSTORE PUSH1 0x4 DUP5 ADD PUSH2 0x1A80 JUMP JUMPDEST SUB SWAP3 GAS CALL SWAP1 DUP2 ISZERO PUSH2 0x1C94 JUMPI PUSH1 0x0 SWAP2 PUSH2 0x1C5C JUMPI JUMPDEST POP ISZERO PUSH2 0x1C21 JUMPI DUP1 DUP1 DUP1 PUSH2 0x1B9B JUMP JUMPDEST PUSH1 0x64 SWAP3 POP MLOAD SWAP1 PUSH3 0x461BCD PUSH1 0xE5 SHL DUP3 MSTORE PUSH1 0x4 DUP3 ADD MSTORE PUSH1 0x15 PUSH1 0x24 DUP3 ADD MSTORE PUSH21 0x11D85D59D9481DDA5D1A191C985DC819985A5B1959 PUSH1 0x5A SHL PUSH1 0x44 DUP3 ADD MSTORE REVERT JUMPDEST SWAP1 DUP4 DUP3 DUP2 RETURNDATASIZE DUP4 GT PUSH2 0x1C8D JUMPI JUMPDEST PUSH2 0x1C72 DUP2 DUP4 PUSH2 0x1725 JUMP JUMPDEST DUP2 ADD SUB SLT PUSH2 0x1C8A JUMPI POP PUSH2 0x1C84 SWAP1 PUSH2 0x1A73 JUMP JUMPDEST CODESIZE PUSH2 0x1C13 JUMP JUMPDEST DUP1 REVERT JUMPDEST POP RETURNDATASIZE PUSH2 0x1C68 JUMP JUMPDEST DUP3 MLOAD RETURNDATASIZE PUSH1 0x0 DUP3 RETURNDATACOPY RETURNDATASIZE SWAP1 REVERT JUMPDEST POP POP POP POP POP POP POP POP POP JUMP JUMPDEST SWAP1 SWAP7 DUP7 DUP3 DUP2 RETURNDATASIZE DUP4 GT PUSH2 0x1CD2 JUMPI JUMPDEST PUSH2 0x1CC1 DUP2 DUP4 PUSH2 0x1725 JUMP JUMPDEST DUP2 ADD SUB SLT PUSH2 0x1C8A JUMPI POP MLOAD SWAP6 CODESIZE PUSH2 0x1B8F JUMP JUMPDEST POP RETURNDATASIZE PUSH2 0x1CB7 JUMP JUMPDEST DUP6 MLOAD RETURNDATASIZE PUSH1 0x0 DUP3 RETURNDATACOPY RETURNDATASIZE SWAP1 REVERT JUMPDEST SWAP1 DUP7 DUP3 DUP2 RETURNDATASIZE DUP4 GT PUSH2 0x1D12 JUMPI JUMPDEST PUSH2 0x1CFA DUP2 DUP4 PUSH2 0x1725 JUMP JUMPDEST DUP2 ADD SUB SLT PUSH2 0x1C8A JUMPI POP PUSH2 0x1D0C SWAP1 PUSH2 0x1A73 JUMP JUMPDEST CODESIZE PUSH2 0x1B51 JUMP JUMPDEST POP RETURNDATASIZE PUSH2 0x1CF0 JUMP JUMPDEST PUSH1 0x40 MLOAD PUSH3 0x461BCD PUSH1 0xE5 SHL DUP2 MSTORE PUSH1 0x20 PUSH1 0x4 DUP3 ADD MSTORE PUSH1 0xD PUSH1 0x24 DUP3 ADD MSTORE PUSH13 0x496E76616C6964206761756765 PUSH1 0x98 SHL PUSH1 0x44 DUP3 ADD MSTORE PUSH1 0x64 SWAP1 REVERT JUMPDEST PUSH1 0x1 PUSH1 0x1 PUSH1 0x80 SHL SUB SWAP2 DUP3 AND SWAP1 DUP3 AND SUB SWAP2 SWAP1 DUP3 GT PUSH2 0x1A5D JUMPI JUMP JUMPDEST PUSH1 0x40 DUP1 MLOAD SWAP4 SWAP1 SWAP3 PUSH1 0x1 PUSH1 0x1 PUSH1 0xA0 SHL SUB SWAP3 SWAP1 SWAP2 PUSH8 0xFFFFFFFFFFFFFFFF SWAP2 DUP5 AND SWAP1 PUSH1 0x80 DUP8 ADD DUP4 DUP2 GT DUP9 DUP3 LT OR PUSH2 0xDDD JUMPI DUP7 MSTORE DUP7 MSTORE PUSH1 0x20 SWAP4 DUP5 DUP8 ADD DUP3 DUP2 MSTORE DUP7 DUP9 ADD SWAP2 PUSH1 0x1 PUSH1 0x1 PUSH1 0x80 SHL SUB SWAP3 DUP4 SWAP2 DUP3 DUP3 MSTORE PUSH1 0x60 DUP12 ADD SWAP4 DUP4 DUP6 MSTORE DUP11 MLOAD SWAP12 DUP13 DUP12 PUSH4 0xFC6F7865 PUSH1 0xE0 SHL SWAP2 ADD MSTORE MLOAD PUSH1 0x24 DUP14 ADD MSTORE MLOAD AND PUSH1 0x44 DUP12 ADD MSTORE MLOAD AND PUSH1 0x64 DUP10 ADD MSTORE MLOAD AND PUSH1 0x84 DUP8 ADD MSTORE PUSH1 0x84 DUP7 MSTORE PUSH1 0xC0 DUP7 ADD SWAP3 DUP7 DUP5 LT DUP4 DUP6 GT OR PUSH2 0xDDD JUMPI DUP4 DUP1 SWAP3 DUP2 DUP9 MSTORE PUSH4 0x5229073F PUSH1 0xE0 SHL DUP3 MSTORE PUSH1 0x0 SWAP6 DUP7 DUP1 SWAP5 DUP12 PUSH2 0x1E23 DUP2 PUSH1 0xBF NOT SWAP4 PUSH1 0xC4 DUP3 ADD PUSH2 0x1A80 JUMP JUMPDEST SUB ADD SWAP3 GAS CALL SWAP6 DUP7 ISZERO PUSH2 0x1F37 JUMPI DUP4 SWAP3 DUP5 SWAP8 PUSH2 0x1E8B JUMPI JUMPDEST POP POP POP ISZERO PUSH2 0x1E57 JUMPI DUP3 DUP5 DUP1 MLOAD DUP2 ADD SUB SLT PUSH2 0x1C8A JUMPI POP DUP3 ADD MLOAD SWAP2 ADD MLOAD SWAP1 SWAP2 JUMP JUMPDEST POP PUSH1 0x64 SWAP2 MLOAD SWAP1 PUSH3 0x461BCD PUSH1 0xE5 SHL DUP3 MSTORE PUSH1 0x4 DUP3 ADD MSTORE PUSH1 0xE PUSH1 0x24 DUP3 ADD MSTORE PUSH14 0x10DBDB1B1958DD0819985A5B1959 PUSH1 0x92 SHL PUSH1 0x44 DUP3 ADD MSTORE REVERT JUMPDEST SWAP2 SWAP7 POP SWAP2 POP RETURNDATASIZE DUP1 DUP5 DUP9 RETURNDATACOPY PUSH2 0x1E9F DUP2 DUP9 PUSH2 0x1725 JUMP JUMPDEST DUP3 ADD SWAP6 DUP6 DUP4 PUSH1 0xC0 DUP10 ADD SWAP9 SUB SLT PUSH2 0x1F1B JUMPI PUSH2 0x1EB8 SWAP1 PUSH2 0x1A73 JUMP JUMPDEST SWAP2 PUSH1 0xE0 DUP2 ADD MLOAD SWAP1 DUP3 DUP3 GT PUSH2 0x1F33 JUMPI ADD DUP7 PUSH1 0xDF DUP3 ADD SLT ISZERO PUSH2 0x1F1B JUMPI PUSH1 0xC0 DUP2 ADD MLOAD SWAP2 DUP3 GT PUSH2 0x1F1F JUMPI DUP6 MLOAD SWAP7 PUSH2 0x1EF4 PUSH1 0x1F DUP5 ADD PUSH1 0x1F NOT AND DUP8 ADD DUP10 PUSH2 0x1725 JUMP JUMPDEST DUP3 DUP9 MSTORE PUSH1 0xE0 DUP4 DUP4 ADD ADD GT PUSH2 0x1F1B JUMPI SWAP1 PUSH2 0x1F13 SWAP2 PUSH1 0xE0 DUP7 DUP10 ADD SWAP2 ADD PUSH2 0x17ED JUMP JUMPDEST CODESIZE DUP1 DUP1 PUSH2 0x1E38 JUMP JUMPDEST DUP4 DUP1 REVERT JUMPDEST PUSH4 0x4E487B71 PUSH1 0xE0 SHL DUP5 MSTORE PUSH1 0x41 PUSH1 0x4 MSTORE PUSH1 0x24 DUP5 REVERT JUMPDEST DUP5 DUP1 REVERT JUMPDEST DUP6 MLOAD RETURNDATASIZE DUP6 DUP3 RETURNDATACOPY RETURNDATASIZE SWAP1 REVERT JUMPDEST SWAP2 DUP1 ISZERO PUSH2 0x2270 JUMPI PUSH1 0x2 SLOAD PUSH1 0x1 PUSH1 0x1 PUSH1 0xA0 SHL SUB SWAP4 SWAP1 DUP5 AND DUP4 DUP6 AND DUP2 EQ PUSH2 0x2266 JUMPI PUSH2 0x1F6A SWAP1 DUP5 PUSH2 0x2278 JUMP JUMPDEST DUP5 PUSH1 0x3 SLOAD AND SWAP2 PUSH1 0x40 SWAP6 DUP7 MLOAD SWAP2 PUSH1 0x20 SWAP5 PUSH4 0x95EA7B3 PUSH1 0xE0 SHL DUP7 DUP6 ADD MSTORE DUP3 DUP5 PUSH2 0x1FAB DUP10 PUSH1 0x24 SWAP5 DUP6 DUP5 ADD PUSH1 0x20 SWAP1 SWAP4 SWAP3 SWAP2 SWAP4 PUSH1 0x40 DUP2 ADD SWAP5 PUSH1 0x1 DUP1 PUSH1 0xA0 SHL SUB AND DUP2 MSTORE ADD MSTORE JUMP JUMPDEST SUB SWAP3 PUSH2 0x1FBF PUSH1 0x1F NOT SWAP5 DUP6 DUP2 ADD DUP9 MSTORE DUP8 PUSH2 0x1725 JUMP JUMPDEST AND SWAP5 DUP10 MLOAD SWAP8 PUSH4 0x468721A7 PUSH1 0xE0 SHL SWAP10 DUP11 DUP11 MSTORE DUP10 DUP10 DUP2 DUP1 PUSH2 0x1FE3 PUSH1 0x4 SWAP12 DUP7 DUP14 DUP5 ADD PUSH2 0x1A80 JUMP JUMPDEST SUB PUSH1 0x0 SWAP14 DUP15 DUP14 GAS CALL SWAP1 DUP2 ISZERO PUSH2 0x225C JUMPI DUP12 SWAP2 PUSH2 0x2223 JUMPI JUMPDEST POP ISZERO PUSH2 0x21E9 JUMPI SWAP1 DUP9 PUSH2 0x2013 PUSH2 0x203B SWAP4 DUP9 PUSH1 0x2 SLOAD AND SWAP1 PUSH2 0x2278 JUMP JUMPDEST DUP14 DUP9 DUP11 SLOAD AND SWAP1 DUP14 DUP12 DUP3 MLOAD SWAP8 DUP9 SWAP6 DUP7 SWAP5 DUP6 SWAP4 PUSH4 0xCDCA1753 PUSH1 0xE0 SHL DUP6 MSTORE DUP5 ADD MSTORE PUSH1 0x44 DUP4 ADD SWAP1 PUSH2 0x1810 JUMP JUMPDEST DUP8 DUP12 DUP4 ADD MSTORE SUB SWAP3 GAS CALL SWAP2 DUP3 ISZERO PUSH2 0x21DF JUMPI DUP11 SWAP3 PUSH2 0x21AC JUMPI JUMPDEST POP PUSH1 0x5 SLOAD SWAP3 PUSH2 0x2710 SWAP4 DUP5 SUB SWAP3 DUP5 DUP5 GT PUSH2 0x2188 JUMPI DUP4 DUP2 MUL SWAP4 DUP2 DUP6 DIV EQ SWAP1 ISZERO OR ISZERO PUSH2 0x219A JUMPI PUSH2 0x12C TIMESTAMP ADD SWAP1 DUP2 TIMESTAMP GT PUSH2 0x2188 JUMPI SWAP3 DUP12 SWAP6 SWAP3 DUP9 SWAP6 SWAP3 DUP16 SWAP10 DUP14 SWAP13 SWAP11 SWAP7 DUP8 DUP15 SWAP14 SWAP12 SWAP9 MLOAD SWAP2 PUSH2 0x209F DUP4 PUSH2 0x16ED JUMP JUMPDEST DUP3 MSTORE DUP14 DUP3 ADD SWAP7 DUP14 DUP9 MSTORE DUP2 DUP4 ADD SWAP5 DUP6 MSTORE PUSH1 0x60 DUP4 ADD SWAP6 DUP7 MSTORE PUSH1 0x80 DUP4 ADD SWAP7 DIV DUP7 MSTORE MLOAD SWAP13 DUP14 SWAP8 PUSH4 0xC04B8D59 PUSH1 0xE0 SHL DUP3 DUP11 ADD MSTORE DUP9 ADD MSTORE MLOAD PUSH1 0x44 DUP8 ADD PUSH1 0xA0 SWAP1 MSTORE PUSH1 0xE4 DUP8 ADD PUSH2 0x20E6 SWAP2 PUSH2 0x1810 JUMP JUMPDEST SWAP5 MLOAD AND PUSH1 0x64 DUP7 ADD MSTORE MLOAD PUSH1 0x84 DUP6 ADD MSTORE MLOAD PUSH1 0xA4 DUP5 ADD MSTORE MLOAD PUSH1 0xC4 DUP4 ADD MSTORE SUB SWAP1 DUP2 ADD DUP7 MSTORE PUSH2 0x2110 SWAP1 DUP7 PUSH2 0x1725 JUMP JUMPDEST PUSH1 0x3 SLOAD DUP11 MLOAD SWAP10 DUP11 MSTORE DUP10 SWAP6 DUP7 SWAP5 DUP6 SWAP4 PUSH2 0x212B SWAP4 AND SWAP1 DUP5 ADD PUSH2 0x1A80 JUMP JUMPDEST SUB SWAP3 GAS CALL SWAP4 DUP5 ISZERO PUSH2 0x217D JUMPI POP DUP2 SWAP4 PUSH2 0x2144 JUMPI JUMPDEST POP POP POP SWAP1 JUMP JUMPDEST SWAP1 SWAP2 DUP1 SWAP4 POP DUP2 RETURNDATASIZE DUP4 GT PUSH2 0x2176 JUMPI JUMPDEST PUSH2 0x215C DUP2 DUP4 PUSH2 0x1725 JUMP JUMPDEST DUP2 ADD SUB SLT PUSH2 0x1C8A JUMPI POP PUSH2 0x216E SWAP1 PUSH2 0x1A73 JUMP JUMPDEST CODESIZE DUP1 DUP1 PUSH2 0x213E JUMP JUMPDEST POP RETURNDATASIZE PUSH2 0x2152 JUMP JUMPDEST MLOAD SWAP2 RETURNDATASIZE SWAP2 POP DUP3 RETURNDATACOPY RETURNDATASIZE SWAP1 REVERT JUMPDEST PUSH4 0x4E487B71 PUSH1 0xE0 SHL DUP13 MSTORE PUSH1 0x11 DUP10 MSTORE DUP6 DUP13 REVERT JUMPDEST PUSH4 0x4E487B71 PUSH1 0xE0 SHL DUP12 MSTORE PUSH1 0x11 DUP9 MSTORE DUP5 DUP12 REVERT JUMPDEST SWAP1 SWAP2 POP DUP9 DUP2 DUP2 RETURNDATASIZE DUP4 GT PUSH2 0x21D8 JUMPI JUMPDEST PUSH2 0x21C4 DUP2 DUP4 PUSH2 0x1725 JUMP JUMPDEST DUP2 ADD SUB SLT PUSH2 0x21D4 JUMPI MLOAD SWAP1 CODESIZE PUSH2 0x2052 JUMP JUMPDEST DUP10 DUP1 REVERT JUMPDEST POP RETURNDATASIZE PUSH2 0x21BA JUMP JUMPDEST DUP13 MLOAD RETURNDATASIZE DUP13 DUP3 RETURNDATACOPY RETURNDATASIZE SWAP1 REVERT JUMPDEST POP DUP11 MLOAD PUSH3 0x461BCD PUSH1 0xE5 SHL DUP2 MSTORE DUP1 DUP8 ADD DUP10 SWAP1 MSTORE PUSH1 0x14 DUP2 DUP6 ADD MSTORE PUSH20 0x151BDAD95B88185C1C1C9BDD994819985A5B1959 PUSH1 0x62 SHL PUSH1 0x44 DUP3 ADD MSTORE PUSH1 0x64 SWAP1 REVERT JUMPDEST SWAP1 POP DUP10 DUP2 DUP2 RETURNDATASIZE DUP4 GT PUSH2 0x2255 JUMPI JUMPDEST PUSH2 0x223A DUP2 DUP4 PUSH2 0x1725 JUMP JUMPDEST DUP2 ADD SUB SLT PUSH2 0x2251 JUMPI PUSH2 0x224B SWAP1 PUSH2 0x1A73 JUMP JUMPDEST CODESIZE PUSH2 0x1FF9 JUMP JUMPDEST DUP11 DUP1 REVERT JUMPDEST POP RETURNDATASIZE PUSH2 0x2230 JUMP JUMPDEST DUP14 MLOAD RETURNDATASIZE DUP14 DUP3 RETURNDATACOPY RETURNDATASIZE SWAP1 REVERT JUMPDEST POP POP POP POP POP PUSH1 0x1 SWAP1 JUMP JUMPDEST POP POP POP PUSH1 0x1 SWAP1 JUMP JUMPDEST PUSH1 0x1 DUP1 PUSH1 0xA0 SHL SUB DUP1 SWAP2 AND PUSH1 0x0 MSTORE PUSH1 0x7 PUSH1 0x20 MSTORE PUSH1 0x40 PUSH1 0x0 KECCAK256 SWAP2 AND PUSH1 0x0 MSTORE PUSH1 0x20 MSTORE PUSH2 0x22A4 PUSH1 0x40 PUSH1 0x0 KECCAK256 PUSH2 0x1747 JUMP JUMPDEST SWAP1 DUP2 MLOAD ISZERO PUSH2 0x22AE JUMPI JUMP JUMPDEST PUSH1 0x40 MLOAD PUSH3 0x461BCD PUSH1 0xE5 SHL DUP2 MSTORE PUSH1 0x20 PUSH1 0x4 DUP3 ADD MSTORE PUSH1 0x11 PUSH1 0x24 DUP3 ADD MSTORE PUSH17 0x14DDD85C081C185D1A081B9BDD081CD95D PUSH1 0x7A SHL PUSH1 0x44 DUP3 ADD MSTORE PUSH1 0x64 SWAP1 REVERT JUMPDEST ISZERO PUSH2 0x22EE JUMPI JUMP JUMPDEST PUSH1 0x40 MLOAD PUSH3 0x461BCD PUSH1 0xE5 SHL DUP2 MSTORE PUSH1 0x20 PUSH1 0x4 DUP3 ADD MSTORE PUSH1 0x17 PUSH1 0x24 DUP3 ADD MSTORE PUSH32 0x47617567652067657420726577617264206661696C6564000000000000000000 PUSH1 0x44 DUP3 ADD MSTORE PUSH1 0x64 SWAP1 REVERT JUMPDEST PUSH1 0x2 SLOAD PUSH1 0x40 MLOAD PUSH4 0x70A08231 PUSH1 0xE0 SHL DUP2 MSTORE PUSH1 0x1 PUSH1 0x1 PUSH1 0xA0 SHL SUB SWAP3 DUP4 AND PUSH1 0x4 DUP3 ADD MSTORE SWAP2 PUSH1 0x20 SWAP2 DUP4 SWAP2 PUSH1 0x24 SWAP2 DUP4 SWAP2 AND GAS STATICCALL SWAP1 DUP2 ISZERO PUSH2 0x4A1 JUMPI PUSH1 0x0 SWAP2 PUSH2 0x2373 JUMPI POP SWAP1 JUMP JUMPDEST SWAP1 PUSH1 0x20 DUP3 RETURNDATASIZE DUP3 GT PUSH2 0x2399 JUMPI JUMPDEST DUP2 PUSH2 0x238C PUSH1 0x20 SWAP4 DUP4 PUSH2 0x1725 JUMP JUMPDEST DUP2 ADD SUB SLT PUSH2 0x1C8A JUMPI POP MLOAD SWAP1 JUMP JUMPDEST RETURNDATASIZE SWAP2 POP PUSH2 0x237F JUMP INVALID LOG2 PUSH5 0x6970667358 0x22 SLT KECCAK256 DUP8 PUSH6 0x83371EC25595 MOD 0xC6 PUSH21 0xB5623574CEF5D56DCC7AE05A4989D25E7E497A18CA PUSH5 0x736F6C6343 STOP ADDMOD EQ STOP CALLER "
        },
        "methodIdentifiers": {
          "approvePool(address)": "424c265b",
          "approvedPools(address)": "f0bbcec4",
          "collectAndConvertFees(address,uint256)": "e6370309",
          "collectStaked(address,uint256)": "3341870d",
          "owner()": "8da5cb5b",
          "quoter()": "c6bbd5a7",
          "removePool(address)": "3b7d0946",
          "renounceOwnership()": "715018a6",
          "rewardStable()": "f2bf87e3",
          "rewardToken()": "f7c618c1",
          "setRewardStable(address)": "c13d2f75",
          "setRewardToken(address)": "8aee8127",
          "setSlippageTolerance(uint256)": "117da1ee",
          "setSwapPath(address,address,bytes)": "483103a4",
          "slippageTolerance()": "d03153aa",
          "swapPaths(address,address)": "4a6a749c",
          "swapRouter()": "c31c9c07",
          "transferOwnership(address)": "f2fde38b",
          "withdrawAndCollect(address,uint256)": "ac6e07ee"
        }
      }
    }
  }
}