{
  "contracts/CholoDromeModule.sol": {
    "CholoDromeModule": {
      "abi": [
        {
          "inputs": [
            {
              "internalType": "address",
              "name": "_owner",
              "type": "address"
            },
            {
              "internalType": "address",
              "name": "_rewardToken",
              "type": "address"
            },
            {
              "internalType": "address",
              "name": "_rewardStable",
              "type": "address"
            },
            {
              "internalType": "address",
              "name": "_quoter",
              "type": "address"
            },
            {
              "internalType": "address",
              "name": "_swapRouter",
              "type": "address"
            }
          ],
          "stateMutability": "nonpayable",
          "type": "constructor"
        },
        {
          "inputs": [
            {
              "internalType": "address",
              "name": "owner",
              "type": "address"
            }
          ],
          "name": "OwnableInvalidOwner",
          "type": "error"
        },
        {
          "inputs": [
            {
              "internalType": "address",
              "name": "account",
              "type": "address"
            }
          ],
          "name": "OwnableUnauthorizedAccount",
          "type": "error"
        },
        {
          "anonymous": false,
          "inputs": [
            {
              "indexed": true,
              "internalType": "address",
              "name": "safe",
              "type": "address"
            },
            {
              "indexed": true,
              "internalType": "address",
              "name": "pool",
              "type": "address"
            },
            {
              "indexed": false,
              "internalType": "uint256",
              "name": "tokenId",
              "type": "uint256"
            },
            {
              "indexed": false,
              "internalType": "uint256",
              "name": "amount0",
              "type": "uint256"
            },
            {
              "indexed": false,
              "internalType": "uint256",
              "name": "amount1",
              "type": "uint256"
            },
            {
              "indexed": false,
              "internalType": "uint256",
              "name": "veloAmount",
              "type": "uint256"
            },
            {
              "indexed": false,
              "internalType": "uint256",
              "name": "totalUsdtAmount",
              "type": "uint256"
            }
          ],
          "name": "EarningsCollected",
          "type": "event"
        },
        {
          "anonymous": false,
          "inputs": [
            {
              "indexed": true,
              "internalType": "address",
              "name": "previousOwner",
              "type": "address"
            },
            {
              "indexed": true,
              "internalType": "address",
              "name": "newOwner",
              "type": "address"
            }
          ],
          "name": "OwnershipTransferred",
          "type": "event"
        },
        {
          "anonymous": false,
          "inputs": [
            {
              "indexed": true,
              "internalType": "address",
              "name": "safe",
              "type": "address"
            },
            {
              "indexed": true,
              "internalType": "address",
              "name": "pool",
              "type": "address"
            }
          ],
          "name": "PoolApproved",
          "type": "event"
        },
        {
          "anonymous": false,
          "inputs": [
            {
              "indexed": true,
              "internalType": "address",
              "name": "safe",
              "type": "address"
            },
            {
              "indexed": true,
              "internalType": "address",
              "name": "pool",
              "type": "address"
            }
          ],
          "name": "PoolRemoved",
          "type": "event"
        },
        {
          "anonymous": false,
          "inputs": [
            {
              "indexed": true,
              "internalType": "address",
              "name": "oldStable",
              "type": "address"
            },
            {
              "indexed": true,
              "internalType": "address",
              "name": "newStable",
              "type": "address"
            }
          ],
          "name": "RewardStableUpdated",
          "type": "event"
        },
        {
          "anonymous": false,
          "inputs": [
            {
              "indexed": true,
              "internalType": "address",
              "name": "oldToken",
              "type": "address"
            },
            {
              "indexed": true,
              "internalType": "address",
              "name": "newToken",
              "type": "address"
            }
          ],
          "name": "RewardTokenUpdated",
          "type": "event"
        },
        {
          "anonymous": false,
          "inputs": [
            {
              "indexed": false,
              "internalType": "uint256",
              "name": "oldTolerance",
              "type": "uint256"
            },
            {
              "indexed": false,
              "internalType": "uint256",
              "name": "newTolerance",
              "type": "uint256"
            }
          ],
          "name": "SlippageToleranceUpdated",
          "type": "event"
        },
        {
          "inputs": [
            {
              "internalType": "address",
              "name": "pool",
              "type": "address"
            }
          ],
          "name": "approvePool",
          "outputs": [],
          "stateMutability": "nonpayable",
          "type": "function"
        },
        {
          "inputs": [
            {
              "internalType": "address",
              "name": "",
              "type": "address"
            }
          ],
          "name": "approvedPools",
          "outputs": [
            {
              "internalType": "bool",
              "name": "",
              "type": "bool"
            }
          ],
          "stateMutability": "view",
          "type": "function"
        },
        {
          "inputs": [
            {
              "internalType": "address",
              "name": "pool",
              "type": "address"
            },
            {
              "internalType": "uint256",
              "name": "tokenId",
              "type": "uint256"
            }
          ],
          "name": "collectAndConvertFees",
          "outputs": [],
          "stateMutability": "nonpayable",
          "type": "function"
        },
        {
          "inputs": [],
          "name": "owner",
          "outputs": [
            {
              "internalType": "address",
              "name": "",
              "type": "address"
            }
          ],
          "stateMutability": "view",
          "type": "function"
        },
        {
          "inputs": [],
          "name": "quoter",
          "outputs": [
            {
              "internalType": "address",
              "name": "",
              "type": "address"
            }
          ],
          "stateMutability": "view",
          "type": "function"
        },
        {
          "inputs": [
            {
              "internalType": "address",
              "name": "pool",
              "type": "address"
            }
          ],
          "name": "removePool",
          "outputs": [],
          "stateMutability": "nonpayable",
          "type": "function"
        },
        {
          "inputs": [],
          "name": "renounceOwnership",
          "outputs": [],
          "stateMutability": "nonpayable",
          "type": "function"
        },
        {
          "inputs": [],
          "name": "rewardStable",
          "outputs": [
            {
              "internalType": "address",
              "name": "",
              "type": "address"
            }
          ],
          "stateMutability": "view",
          "type": "function"
        },
        {
          "inputs": [],
          "name": "rewardToken",
          "outputs": [
            {
              "internalType": "address",
              "name": "",
              "type": "address"
            }
          ],
          "stateMutability": "view",
          "type": "function"
        },
        {
          "inputs": [
            {
              "internalType": "address",
              "name": "_newRewardStable",
              "type": "address"
            }
          ],
          "name": "setRewardStable",
          "outputs": [],
          "stateMutability": "nonpayable",
          "type": "function"
        },
        {
          "inputs": [
            {
              "internalType": "address",
              "name": "_newRewardToken",
              "type": "address"
            }
          ],
          "name": "setRewardToken",
          "outputs": [],
          "stateMutability": "nonpayable",
          "type": "function"
        },
        {
          "inputs": [
            {
              "internalType": "uint256",
              "name": "_slippageTolerance",
              "type": "uint256"
            }
          ],
          "name": "setSlippageTolerance",
          "outputs": [],
          "stateMutability": "nonpayable",
          "type": "function"
        },
        {
          "inputs": [
            {
              "internalType": "address",
              "name": "fromToken",
              "type": "address"
            },
            {
              "internalType": "address",
              "name": "toToken",
              "type": "address"
            },
            {
              "internalType": "bytes",
              "name": "path",
              "type": "bytes"
            }
          ],
          "name": "setSwapPath",
          "outputs": [],
          "stateMutability": "nonpayable",
          "type": "function"
        },
        {
          "inputs": [],
          "name": "slippageTolerance",
          "outputs": [
            {
              "internalType": "uint256",
              "name": "",
              "type": "uint256"
            }
          ],
          "stateMutability": "view",
          "type": "function"
        },
        {
          "inputs": [
            {
              "internalType": "address",
              "name": "pool",
              "type": "address"
            },
            {
              "internalType": "uint256",
              "name": "tokenId",
              "type": "uint256"
            }
          ],
          "name": "stakeAndCollect",
          "outputs": [],
          "stateMutability": "nonpayable",
          "type": "function"
        },
        {
          "inputs": [
            {
              "internalType": "address",
              "name": "",
              "type": "address"
            },
            {
              "internalType": "address",
              "name": "",
              "type": "address"
            }
          ],
          "name": "swapPaths",
          "outputs": [
            {
              "internalType": "bytes",
              "name": "",
              "type": "bytes"
            }
          ],
          "stateMutability": "view",
          "type": "function"
        },
        {
          "inputs": [],
          "name": "swapRouter",
          "outputs": [
            {
              "internalType": "address",
              "name": "",
              "type": "address"
            }
          ],
          "stateMutability": "view",
          "type": "function"
        },
        {
          "inputs": [
            {
              "internalType": "address",
              "name": "newOwner",
              "type": "address"
            }
          ],
          "name": "transferOwnership",
          "outputs": [],
          "stateMutability": "nonpayable",
          "type": "function"
        },
        {
          "inputs": [
            {
              "internalType": "address",
              "name": "pool",
              "type": "address"
            },
            {
              "internalType": "uint256",
              "name": "tokenId",
              "type": "uint256"
            }
          ],
          "name": "unstakeAndCollect",
          "outputs": [],
          "stateMutability": "nonpayable",
          "type": "function"
        },
        {
          "inputs": [
            {
              "internalType": "address",
              "name": "pool",
              "type": "address"
            },
            {
              "internalType": "uint256",
              "name": "tokenId",
              "type": "uint256"
            }
          ],
          "name": "withdrawAndCollect",
          "outputs": [],
          "stateMutability": "nonpayable",
          "type": "function"
        }
      ],
      "evm": {
        "bytecode": {
          "linkReferences": {},
          "object": "6080346200025657601f620028e938819003918201601f191683019291906001600160401b038411838510176200025b578160a092849260409687528339810103126200025657620000518162000271565b6200005f6020830162000271565b906200006d84840162000271565b926200008a6080620000826060840162000271565b920162000271565b6001600160a01b039283169390929084156200023e57600080546001600160a01b0319808216881783559684939290918416907f8be0079c531659141344cd1fd0a4f28419497f9722a3daafe3b4186f6b6457e09080a3603260055516948515620001fa578116918215620001b65781169283156200018157169384156200013d578360015416176001558260025416176002558160045416176004556003541617600355516126629081620002878239f35b855162461bcd60e51b815260206004820152601360248201527f496e76616c6964207377617020726f75746572000000000000000000000000006044820152606490fd5b865162461bcd60e51b815260206004820152600e60248201526d24b73b30b634b21038bab7ba32b960911b6044820152606490fd5b865162461bcd60e51b815260206004820152601560248201527f496e76616c69642072657761726420737461626c6500000000000000000000006044820152606490fd5b865162461bcd60e51b815260206004820152601460248201527f496e76616c69642072657761726420746f6b656e0000000000000000000000006044820152606490fd5b8651631e4fbdf760e01b815260006004820152602490fd5b600080fd5b634e487b7160e01b600052604160045260246000fd5b51906001600160a01b0382168203620002565756fe6080604052600436101561001257600080fd5b60003560e01c8063117da1ee1461188c57806331a8f1c9146113b05780633b7d09461461133f578063424c265b146112cb578063483103a4146110875780634a6a749c1461101e5780634bdc76cc14610e51578063715018a614610df85780638aee812714610d4c5780638da5cb5b14610d23578063ac6e07ee146107c7578063c13d2f751461071a578063c31c9c07146106f1578063c6bbd5a7146106c8578063d03153aa146106aa578063e637030914610217578063f0bbcec4146101d8578063f2bf87e3146101af578063f2fde38b146101265763f7c618c1146100f857600080fd5b34610121576000366003190112610121576001546040516001600160a01b039091168152602090f35b600080fd5b346101215760203660031901126101215761013f611923565b610147611ad1565b6001600160a01b0390811690811561019657600054826001600160601b0360a01b821617600055167f8be0079c531659141344cd1fd0a4f28419497f9722a3daafe3b4186f6b6457e0600080a3005b604051631e4fbdf760e01b815260006004820152602490fd5b34610121576000366003190112610121576002546040516001600160a01b039091168152602090f35b34610121576020366003190112610121576001600160a01b036101f9611923565b166000526006602052602060ff604060002054166040519015158152f35b34610121576040366003190112610121576001600160a01b03610238611923565b1680600052600660205261025360ff60406000205416611b38565b6040516323e6650160e11b8152602081600481855afa9081156104fe57600091610670575b5060405163133f757160e31b815260248035600483015290916101809182908490816001600160a01b0385165afa9283156104fe57600092600094610630575b50506040516329bc672160e21b815290602082600481885afa9182156104fe576000926105f4575b506102ea3361259e565b60405163c69deec560e01b8152336004820152602480359082015260009591948693909284929091906020816044816001600160a01b038b165afa9081156104fe576000916105ba575b501561053e575050604051633e491d4760e01b8152336004820152602480359082015294915060209050846044816001600160a01b0387165afa9384156104fe5760009461050a575b508392846103e3575b5060008051602061260d83398151915293506103ae6103de915b6103a93361259e565b611bf1565b6040519384933397602435869192608093969594919660a084019784526020840152604083015260608201520152565b0390a3005b60206104299160405190631c4b774b60e01b8383015260243560248301526024825261040e826119a5565b60405163468721a760e01b8152938492839260048401611c14565b03816000335af19081156104fe576000916104c4575b501561047f576103ae6103de9161047861047360008051602061260d8339815191529760018060a01b036001541633611ed4565b611c45565b9150610386565b60405162461bcd60e51b815260206004820152601760248201527f47617567652067657420726577617264206661696c65640000000000000000006044820152606490fd5b90506020813d6020116104f6575b816104df602093836119c1565b81010312610121576104f090611ba2565b8761043f565b3d91506104d2565b6040513d6000823e3d90fd5b9093506020813d602011610536575b81610526602093836119c1565b810103126101215751928661037d565b3d9150610519565b6103de9397506103ae92955060008051602061260d8339815191529691945061056b9060243590336123c4565b909481958099816105a0575b505081610586575b50506103a0565b610599916105949133611ed4565b612383565b888061057f565b6105b3916105ae9133611ed4565b612342565b8a80610577565b90506020813d6020116105ec575b816105d5602093836119c1565b81010312610121576105e690611ba2565b8a610334565b3d91506105c8565b9091506020813d602011610628575b81610610602093836119c1565b810103126101215761062190611b8e565b90856102e0565b3d9150610603565b80919294506106549350903d10610669575b61064c81836119c1565b81019061229c565b505050505050505092509050909184806102b8565b503d610642565b90506020813d6020116106a2575b8161068b602093836119c1565b810103126101215761069c90611b8e565b82610278565b3d915061067e565b34610121576000366003190112610121576020600554604051908152f35b34610121576000366003190112610121576004546040516001600160a01b039091168152602090f35b34610121576000366003190112610121576003546040516001600160a01b039091168152602090f35b3461012157602036600319011261012157610733611923565b61073b611ad1565b6001600160a01b0390811690811561078a57600254826001600160601b0360a01b821617600255167f9d4858dccb76debed7845fd87ec5c769962d072d518c9e34182581abb3e8247c600080a3005b60405162461bcd60e51b8152602060048201526015602482015274496e76616c69642072657761726420737461626c6560581b6044820152606490fd5b34610121576040366003190112610121576107e0611923565b60243560018060a01b0391828116600052600660205261080760ff60406000205416611b38565b6040516323e6650160e11b8152926020846004818585165afa9384156104fe57600094610ce7575b506040519163133f757160e31b83528360048401526101809485846024818685165afa9384156104fe57600090600097600096610cb4575b50506108723361259e565b91600095604051926329bc672160e21b84526020846004818a8a165afa9384156104fe57600094610c78575b5060405163c69deec560e01b8152336004820152602481018a90528785169490602081604481895afa9586156104fe578b91600097610c3a575b5086610bb5575b50505060009960009415610b68575b50506001600160801b0380911680610a12575b50506020816109148961093994336123c4565b5050604051630852cd8d60e31b8382015260248082018b905281529061040e826119a5565b03816000335af19081156104fe576000916109d8575b50156109a55760008051602061260d833981519152946109756103de936103a93361259e565b9160405195869516983398869192608093969594919660a084019784526020840152604083015260608201520152565b60405162461bcd60e51b815260206004820152600b60248201526a109d5c9b8819985a5b195960aa1b6044820152606490fd5b90506020813d602011610a0a575b816109f3602093836119c1565b8101031261012157610a0490611ba2565b8861094f565b3d91506109e6565b60405191610a1f83611989565b898352602083019182526040830160008152606084019160008352608085019342855260405195630624e65f60e11b6020880152516024870152511660448501525160648401525160848301525160a482015260a4815260e0810181811067ffffffffffffffff821117610b5257604081905263468721a760e01b815260208160df1984610ab1818860e48201611c14565b0301816000335af19182156104fe57600092610b1b575b505015610ad6578880610901565b60405162461bcd60e51b815260206004820152601960248201527f4465637265617365206c6971756964697479206661696c6564000000000000006044820152606490fd5b6020809293503d8311610b4b575b610b3381856119c1565b8101031261012157610b4490611ba2565b8980610ac8565b503d610b29565b634e487b7160e01b600052604160045260246000fd5b93509850610b778883336123c4565b90938194809b81610ba0575b505081156108ee57610b99916105949133611ed4565b89806108ee565b610bae916105ae9133611ed4565b8b80610b83565b604051633e491d4760e01b8152336004820152602481019290925291995090602090829060449082905afa80156104fe578a90600090610c04575b610bfc92509933611c89565b8a89816108df565b50506020813d602011610c32575b81610c1f602093836119c1565b810103126101215789610bfc9151610bf0565b3d9150610c12565b915095506020813d602011610c70575b81610c57602093836119c1565b8101031261012157610c698b91611ba2565b958d6108d8565b3d9150610c4a565b9093506020813d602011610cac575b81610c94602093836119c1565b8101031261012157610ca590611b8e565b928a61089e565b3d9150610c87565b9150919450610cd0929650803d106106695761064c81836119c1565b505050509a96505050509491509395938780610867565b9093506020813d602011610d1b575b81610d03602093836119c1565b8101031261012157610d1490611b8e565b928461082f565b3d9150610cf6565b34610121576000366003190112610121576000546040516001600160a01b039091168152602090f35b3461012157602036600319011261012157610d65611923565b610d6d611ad1565b6001600160a01b03908116908115610dbc57600154826001600160601b0360a01b821617600155167f906ff2422a6ffa134f2d7ccaffd446bc0c583a5cb6615749b4b2836942a5fea8600080a3005b60405162461bcd60e51b815260206004820152601460248201527324b73b30b634b2103932bbb0b932103a37b5b2b760611b6044820152606490fd5b3461012157600036600319011261012157610e11611ad1565b600080546001600160a01b0319811682556001600160a01b03167f8be0079c531659141344cd1fd0a4f28419497f9722a3daafe3b4186f6b6457e08280a3005b3461012157604036600319011261012157610e6a611923565b60243560018060a01b03809216918260005260209060068252610e9460ff60406000205416611b38565b6040516329bc672160e21b8152908282600481885afa9182156104fe57600092610fe7575b5060405163c69deec560e01b815233600482015260248101859052908216908381604481855afa80156104fe57600090610fb1575b610ef89150611baf565b610f013361259e565b604051633e491d4760e01b81523360048201526024810186905290918490829060449082905afa9283156104fe578591600094610f7c575b50916103a0610f4b9260009433611c89565b92604051948552840152600060408401526060830152608082015260008051602061260d83398151915260a03392a3005b85809295508193503d8311610faa575b610f9681836119c1565b8101031261012157519184906103a0610f39565b503d610f8c565b508381813d8311610fe0575b610fc781836119c1565b8101031261012157610fdb610ef891611ba2565b610eee565b503d610fbd565b9091508281813d8311611017575b610fff81836119c1565b810103126101215761101090611b8e565b9085610eb9565b503d610ff5565b3461012157604036600319011261012157611037611923565b61103f611939565b9060018060a01b0380911660005260076020526040600020911660005260205261108361106f60406000206119e3565b604051918291602083526020830190611aac565b0390f35b34610121576060366003190112610121576110a0611923565b6110a8611939565b906044359067ffffffffffffffff9081831161012157366023840112156101215782600401359182116101215760249036828486010111610121576110eb611ad1565b6001600160a01b03908116948515611293571693841561125d57821561122a57600052602093600785526040600020906000528452604060002092611130845461194f565b601f81116111e4575b50600094601f841160011461117b57509382939460009361116e575b505050600019600383901b1c191660019190911b179055005b0101359050838080611155565b91601f198416958560005283600020936000905b8882106111ca5750508460019697106111ae575b50505050811b019055005b60001960f88660031b161c1992010135169055838080806111a3565b80600184978683959689010135815501960192019061118f565b8460005285600020601f850160051c810191878610611220575b601f0160051c01905b8181106112145750611139565b60008155600101611207565b90915081906111fe565b60405162461bcd60e51b815260206004820152600c818401526b092dcecc2d8d2c840e0c2e8d60a31b6044820152606490fd5b60405162461bcd60e51b815260206004820152600f818401526e24b73b30b634b2103a37aa37b5b2b760891b6044820152606490fd5b60405162461bcd60e51b8152602060048201526011818501527024b73b30b634b210333937b6aa37b5b2b760791b6044820152606490fd5b34610121576020366003190112610121576112e4611923565b6112ec611ad1565b6001600160a01b0316611300811515611afd565b6000818152600660205260408120805460ff191660011790557ffc1f1e73948cbc47c5b7f90e5601b7daccd9ad7173218486ccc74bdd051d05e88180a3005b3461012157602036600319011261012157611358611923565b611360611ad1565b6001600160a01b0316611374811515611afd565b6000818152600660205260408120805460ff191690557f987eb3c2f78454541205f72f34839b434c306c9eaf4922efd7c0c3060fdb2e4c8180a3005b34610121576040366003190112610121576113c9611923565b602480359060018060a01b038093169283600052602091600683526113f560ff60406000205416611b38565b6040516323e6650160e11b8152908382600481895afa9182156104fe57600092611855575b506040516329bc672160e21b81529084826004818a5afa9182156104fe5760009261181e575b5060405163c69deec560e01b81523360048201526024810187905284841694831692908681604481875afa9081156104fe576000916117e9575b506117a5576114883361259e565b926040519463133f757160e31b865288600487015261018095868186818b5afa9788156104fe57899160009860009a61176e575b50509082916114cf8c60449695336123c4565b9a81809b8d93611759575b505081611744575b50506040519485809263e985e9c560e01b8252336004830152868a8301525afa80156104fe57899360009161170e575b5015611602575b505060405163b6b55f2560e01b828201528381018990528381526115409261040e826119a5565b03816000335af19081156104fe576000916115cd575b501561159b575061156a906103a93361259e565b92604051948552840152604083015260006060830152608082015260008051602061260d83398151915260a03392a3005b84600c6064926040519262461bcd60e51b845260048401528201526b14dd185ad94819985a5b195960a21b6044820152fd5b90508581813d83116115fb575b6115e481836119c1565b81010312610121576115f590611ba2565b88611556565b503d6115da565b9091506040519163a22cb46560e01b89840152848301526001604483015260448252608082019082821067ffffffffffffffff8311176116f9578189918160405263468721a760e01b82528461165f81607f199360848201611c14565b0301816000335af19182156104fe5788906000936116c2575b5050501561168857858980611519565b60405162461bcd60e51b8152600481018790526013818401527213919508185c1c1c9bdd985b0819985a5b1959606a1b6044820152606490fd5b90809293503d83116116f2575b6116d981856119c1565b81010312610121576116ea90611ba2565b898781611678565b503d6116cf565b84634e487b7160e01b60005260416004526000fd5b84819592503d831161173d575b61172581836119c1565b81010312610121576117378993611ba2565b8c611512565b503d61171b565b611752916105949133611ed4565b898e6114e2565b611767916105ae9133611ed4565b8a386114da565b61178c929a5060449594939950803d106106695761064c81836119c1565b505050505050505099925090509798909192938d6114bc565b60405162461bcd60e51b8152600481018790526017818401527f506f736974696f6e20616c7265616479207374616b65640000000000000000006044820152606490fd5b90508681813d8311611817575b61180081836119c1565b810103126101215761181190611ba2565b8961147a565b503d6117f6565b9091508481813d831161184e575b61183681836119c1565b810103126101215761184790611b8e565b9087611440565b503d61182c565b9091508381813d8311611885575b61186d81836119c1565b810103126101215761187e90611b8e565b908661141a565b503d611863565b34610121576020366003190112610121576004356118a8611ad1565b6103e881116118ea5760407fddd31550b26e9ef8ade466958be83ff8a014d9b4f36d546b61a6847a4530657591600554908060055582519182526020820152a1005b60405162461bcd60e51b81526020600482015260116024820152700a6d8d2e0e0c2ceca40e8dede40d0d2ced607b1b6044820152606490fd5b600435906001600160a01b038216820361012157565b602435906001600160a01b038216820361012157565b90600182811c9216801561197f575b602083101461196957565b634e487b7160e01b600052602260045260246000fd5b91607f169161195e565b60a0810190811067ffffffffffffffff821117610b5257604052565b6060810190811067ffffffffffffffff821117610b5257604052565b90601f8019910116810190811067ffffffffffffffff821117610b5257604052565b90604051918260008254926119f78461194f565b908184526001948581169081600014611a665750600114611a23575b5050611a21925003836119c1565b565b9093915060005260209081600020936000915b818310611a4e575050611a2193508201013880611a13565b85548884018501529485019487945091830191611a36565b915050611a2194506020925060ff191682840152151560051b8201013880611a13565b60005b838110611a9c5750506000910152565b8181015183820152602001611a8c565b90602091611ac581518092818552858086019101611a89565b601f01601f1916010190565b6000546001600160a01b03163303611ae557565b60405163118cdaa760e01b8152336004820152602490fd5b15611b0457565b60405162461bcd60e51b815260206004820152600c60248201526b125b9d985b1a59081c1bdbdb60a21b6044820152606490fd5b15611b3f57565b60405162461bcd60e51b815260206004820152602160248201527f506f6f6c206e6f7420617070726f76656420666f722074686973206d6f64756c6044820152606560f81b6064820152608490fd5b51906001600160a01b038216820361012157565b5190811515820361012157565b15611bb657565b60405162461bcd60e51b8152602060048201526013602482015272141bdcda5d1a5bdb881b9bdd081cdd185ad959606a1b6044820152606490fd5b91908203918211611bfe57565b634e487b7160e01b600052601160045260246000fd5b9291611c4060609160009360018060a01b03168652836020870152608060408701526080860190611aac565b930152565b15611c4c57565b60405162461bcd60e51b815260206004820152601560248201527414ddd85c081d1bc81cdd18589b194819985a5b1959605a1b6044820152606490fd5b916001600160a01b0391808316918215611e9f576040805163c69deec560e01b81528587166001600160a01b038116600483015260248201849052602094929392909185816044818a5afa8015611e9457600090611e5e575b611cec9150611baf565b8351633e491d4760e01b81526001600160a01b038316600482015260248101849052958590879060449082905afa958615611e5357600096611e24575b50918491611d6f93855192632e1a7d4d60e01b85850152602484015260248352611d52836119a5565b6000865180968195829463468721a760e01b845260048401611c14565b03925af1908115611e1957600091611de1575b5015611da657505080611d9457505050565b611a2192610473926001541690611ed4565b60649250519062461bcd60e51b82526004820152601560248201527411d85d59d9481dda5d1a191c985dc819985a5b1959605a1b6044820152fd5b908382813d8311611e12575b611df781836119c1565b81010312611e0f5750611e0990611ba2565b38611d82565b80fd5b503d611ded565b82513d6000823e3d90fd5b90958582813d8311611e4c575b611e3b81836119c1565b81010312611e0f5750519484611d29565b503d611e31565b84513d6000823e3d90fd5b8682813d8311611e8d575b611e7381836119c1565b81010312611e0f5750611e88611cec91611ba2565b611ce2565b503d611e69565b85513d6000823e3d90fd5b60405162461bcd60e51b815260206004820152600d60248201526c496e76616c696420676175676560981b6044820152606490fd5b918015612203576002546001600160a01b039390841683851681146121f957611efd908461220b565b84600354169160409586519160209463095ea7b360e01b868501528284611f3e8960249485840160209093929193604081019460018060a01b031681520152565b0392611f52601f19948581018852876119c1565b169489519763468721a760e01b998a8a5289898180611f7660049b868d8401611c14565b0360009d8e8d5af19081156121ef578b916121b6575b501561217c579088611fa6611fce9388600254169061220b565b8d888a5416908d8b82519788958694859363cdca175360e01b85528401526044830190611aac565b878b83015203925af1918215612172578a9261213f575b50600554926127109384039284841161211b5783810293818504149015171561212d5761012c42019081421161211b57928b95928895928f998d9c9a96878e9d9b98519161203283611989565b82528d8201968d8852818301948552606083019586526080830196048652519c8d9763c04b8d5960e01b828a0152880152516044870160a0905260e4870161207991611aac565b94511660648601525160848501525160a48401525160c48301520390810186526120a390866119c1565b6003548a51998a528995869485936120be9316908401611c14565b03925af1938415612110575081936120d7575b50505090565b9091809350813d8311612109575b6120ef81836119c1565b81010312611e0f575061210190611ba2565b3880806120d1565b503d6120e5565b51913d9150823e3d90fd5b634e487b7160e01b8c5260118952858cfd5b634e487b7160e01b8b5260118852848bfd5b9091508881813d831161216b575b61215781836119c1565b8101031261216757519038611fe5565b8980fd5b503d61214d565b8c513d8c823e3d90fd5b508a5162461bcd60e51b815280870189905260148185015273151bdad95b88185c1c1c9bdd994819985a5b195960621b6044820152606490fd5b90508981813d83116121e8575b6121cd81836119c1565b810103126121e4576121de90611ba2565b38611f8c565b8a80fd5b503d6121c3565b8d513d8d823e3d90fd5b5050505050600190565b505050600190565b60018060a01b0380911660005260076020526040600020911660005260205261223760406000206119e3565b9081511561224157565b60405162461bcd60e51b815260206004820152601160248201527014ddd85c081c185d1a081b9bdd081cd95d607a1b6044820152606490fd5b51908160020b820361012157565b51906001600160801b038216820361012157565b9190826101809103126101215781516001600160601b038116810361012157916122c860208201611b8e565b916122d560408301611b8e565b916122e260608201611b8e565b916122ef6080830161227a565b916122fc60a0820161227a565b9161230960c0830161227a565b9161231660e08201612288565b91610100820151916101208101519161233f6101606123386101408501612288565b9301612288565b90565b1561234957565b60405162461bcd60e51b8152602060048201526012602482015271151bdad95b8c081cddd85c0819985a5b195960721b6044820152606490fd5b1561238a57565b60405162461bcd60e51b8152602060048201526012602482015271151bdad95b8c481cddd85c0819985a5b195960721b6044820152606490fd5b604080519390926001600160a01b0392909167ffffffffffffffff918416906080870183811188821017610b525786528652602093848701828152868801916001600160801b0392839182825260608b01938385528a519b8c8b63fc6f786560e01b9101525160248d0152511660448b015251166064890152511660848701526084865260c086019286841083851117610b5257838092818852635229073f60e01b82526000958680948b6124808160bf199360c48201611c14565b0301925af195861561259457839284976124e8575b505050156124b4578284805181010312611e0f57508201519101519091565b50606491519062461bcd60e51b82526004820152600e60248201526d10dbdb1b1958dd0819985a5b195960921b6044820152fd5b91965091503d8084883e6124fc81886119c1565b820195858360c089019803126125785761251590611ba2565b9160e08101519082821161259057018660df820112156125785760c081015191821161257c57855196612551601f8401601f19168701896119c1565b82885260e0838301011161257857906125709160e08689019101611a89565b388080612495565b8380fd5b634e487b7160e01b84526041600452602484fd5b8480fd5b85513d85823e3d90fd5b6002546040516370a0823160e01b81526001600160a01b0392831660048201529160209183916024918391165afa9081156104fe576000916125de575090565b906020823d8211612604575b816125f7602093836119c1565b81010312611e0f57505190565b3d91506125ea56fec457dabb1cd0422f2d4ee0e35bed2d324c897ff52ca6d0033a86d6a43ce80502a2646970667358221220e0c70eaf42fc6d750fc0cf6e8fea59a10d6dafa2f19aed23498db1870e51c00e64736f6c63430008140033",
          "opcodes": "PUSH1 0x80 CALLVALUE PUSH3 0x256 JUMPI PUSH1 0x1F PUSH3 0x28E9 CODESIZE DUP2 SWAP1 SUB SWAP2 DUP3 ADD PUSH1 0x1F NOT AND DUP4 ADD SWAP3 SWAP2 SWAP1 PUSH1 0x1 PUSH1 0x1 PUSH1 0x40 SHL SUB DUP5 GT DUP4 DUP6 LT OR PUSH3 0x25B JUMPI DUP2 PUSH1 0xA0 SWAP3 DUP5 SWAP3 PUSH1 0x40 SWAP7 DUP8 MSTORE DUP4 CODECOPY DUP2 ADD SUB SLT PUSH3 0x256 JUMPI PUSH3 0x51 DUP2 PUSH3 0x271 JUMP JUMPDEST PUSH3 0x5F PUSH1 0x20 DUP4 ADD PUSH3 0x271 JUMP JUMPDEST SWAP1 PUSH3 0x6D DUP5 DUP5 ADD PUSH3 0x271 JUMP JUMPDEST SWAP3 PUSH3 0x8A PUSH1 0x80 PUSH3 0x82 PUSH1 0x60 DUP5 ADD PUSH3 0x271 JUMP JUMPDEST SWAP3 ADD PUSH3 0x271 JUMP JUMPDEST PUSH1 0x1 PUSH1 0x1 PUSH1 0xA0 SHL SUB SWAP3 DUP4 AND SWAP4 SWAP1 SWAP3 SWAP1 DUP5 ISZERO PUSH3 0x23E JUMPI PUSH1 0x0 DUP1 SLOAD PUSH1 0x1 PUSH1 0x1 PUSH1 0xA0 SHL SUB NOT DUP1 DUP3 AND DUP9 OR DUP4 SSTORE SWAP7 DUP5 SWAP4 SWAP3 SWAP1 SWAP2 DUP5 AND SWAP1 PUSH32 0x8BE0079C531659141344CD1FD0A4F28419497F9722A3DAAFE3B4186F6B6457E0 SWAP1 DUP1 LOG3 PUSH1 0x32 PUSH1 0x5 SSTORE AND SWAP5 DUP6 ISZERO PUSH3 0x1FA JUMPI DUP2 AND SWAP2 DUP3 ISZERO PUSH3 0x1B6 JUMPI DUP2 AND SWAP3 DUP4 ISZERO PUSH3 0x181 JUMPI AND SWAP4 DUP5 ISZERO PUSH3 0x13D JUMPI DUP4 PUSH1 0x1 SLOAD AND OR PUSH1 0x1 SSTORE DUP3 PUSH1 0x2 SLOAD AND OR PUSH1 0x2 SSTORE DUP2 PUSH1 0x4 SLOAD AND OR PUSH1 0x4 SSTORE PUSH1 0x3 SLOAD AND OR PUSH1 0x3 SSTORE MLOAD PUSH2 0x2662 SWAP1 DUP2 PUSH3 0x287 DUP3 CODECOPY RETURN JUMPDEST DUP6 MLOAD PUSH3 0x461BCD PUSH1 0xE5 SHL DUP2 MSTORE PUSH1 0x20 PUSH1 0x4 DUP3 ADD MSTORE PUSH1 0x13 PUSH1 0x24 DUP3 ADD MSTORE PUSH32 0x496E76616C6964207377617020726F7574657200000000000000000000000000 PUSH1 0x44 DUP3 ADD MSTORE PUSH1 0x64 SWAP1 REVERT JUMPDEST DUP7 MLOAD PUSH3 0x461BCD PUSH1 0xE5 SHL DUP2 MSTORE PUSH1 0x20 PUSH1 0x4 DUP3 ADD MSTORE PUSH1 0xE PUSH1 0x24 DUP3 ADD MSTORE PUSH14 0x24B73B30B634B21038BAB7BA32B9 PUSH1 0x91 SHL PUSH1 0x44 DUP3 ADD MSTORE PUSH1 0x64 SWAP1 REVERT JUMPDEST DUP7 MLOAD PUSH3 0x461BCD PUSH1 0xE5 SHL DUP2 MSTORE PUSH1 0x20 PUSH1 0x4 DUP3 ADD MSTORE PUSH1 0x15 PUSH1 0x24 DUP3 ADD MSTORE PUSH32 0x496E76616C69642072657761726420737461626C650000000000000000000000 PUSH1 0x44 DUP3 ADD MSTORE PUSH1 0x64 SWAP1 REVERT JUMPDEST DUP7 MLOAD PUSH3 0x461BCD PUSH1 0xE5 SHL DUP2 MSTORE PUSH1 0x20 PUSH1 0x4 DUP3 ADD MSTORE PUSH1 0x14 PUSH1 0x24 DUP3 ADD MSTORE PUSH32 0x496E76616C69642072657761726420746F6B656E000000000000000000000000 PUSH1 0x44 DUP3 ADD MSTORE PUSH1 0x64 SWAP1 REVERT JUMPDEST DUP7 MLOAD PUSH4 0x1E4FBDF7 PUSH1 0xE0 SHL DUP2 MSTORE PUSH1 0x0 PUSH1 0x4 DUP3 ADD MSTORE PUSH1 0x24 SWAP1 REVERT JUMPDEST PUSH1 0x0 DUP1 REVERT JUMPDEST PUSH4 0x4E487B71 PUSH1 0xE0 SHL PUSH1 0x0 MSTORE PUSH1 0x41 PUSH1 0x4 MSTORE PUSH1 0x24 PUSH1 0x0 REVERT JUMPDEST MLOAD SWAP1 PUSH1 0x1 PUSH1 0x1 PUSH1 0xA0 SHL SUB DUP3 AND DUP3 SUB PUSH3 0x256 JUMPI JUMP INVALID PUSH1 0x80 PUSH1 0x40 MSTORE PUSH1 0x4 CALLDATASIZE LT ISZERO PUSH2 0x12 JUMPI PUSH1 0x0 DUP1 REVERT JUMPDEST PUSH1 0x0 CALLDATALOAD PUSH1 0xE0 SHR DUP1 PUSH4 0x117DA1EE EQ PUSH2 0x188C JUMPI DUP1 PUSH4 0x31A8F1C9 EQ PUSH2 0x13B0 JUMPI DUP1 PUSH4 0x3B7D0946 EQ PUSH2 0x133F JUMPI DUP1 PUSH4 0x424C265B EQ PUSH2 0x12CB JUMPI DUP1 PUSH4 0x483103A4 EQ PUSH2 0x1087 JUMPI DUP1 PUSH4 0x4A6A749C EQ PUSH2 0x101E JUMPI DUP1 PUSH4 0x4BDC76CC EQ PUSH2 0xE51 JUMPI DUP1 PUSH4 0x715018A6 EQ PUSH2 0xDF8 JUMPI DUP1 PUSH4 0x8AEE8127 EQ PUSH2 0xD4C JUMPI DUP1 PUSH4 0x8DA5CB5B EQ PUSH2 0xD23 JUMPI DUP1 PUSH4 0xAC6E07EE EQ PUSH2 0x7C7 JUMPI DUP1 PUSH4 0xC13D2F75 EQ PUSH2 0x71A JUMPI DUP1 PUSH4 0xC31C9C07 EQ PUSH2 0x6F1 JUMPI DUP1 PUSH4 0xC6BBD5A7 EQ PUSH2 0x6C8 JUMPI DUP1 PUSH4 0xD03153AA EQ PUSH2 0x6AA JUMPI DUP1 PUSH4 0xE6370309 EQ PUSH2 0x217 JUMPI DUP1 PUSH4 0xF0BBCEC4 EQ PUSH2 0x1D8 JUMPI DUP1 PUSH4 0xF2BF87E3 EQ PUSH2 0x1AF JUMPI DUP1 PUSH4 0xF2FDE38B EQ PUSH2 0x126 JUMPI PUSH4 0xF7C618C1 EQ PUSH2 0xF8 JUMPI PUSH1 0x0 DUP1 REVERT JUMPDEST CALLVALUE PUSH2 0x121 JUMPI PUSH1 0x0 CALLDATASIZE PUSH1 0x3 NOT ADD SLT PUSH2 0x121 JUMPI PUSH1 0x1 SLOAD PUSH1 0x40 MLOAD PUSH1 0x1 PUSH1 0x1 PUSH1 0xA0 SHL SUB SWAP1 SWAP2 AND DUP2 MSTORE PUSH1 0x20 SWAP1 RETURN JUMPDEST PUSH1 0x0 DUP1 REVERT JUMPDEST CALLVALUE PUSH2 0x121 JUMPI PUSH1 0x20 CALLDATASIZE PUSH1 0x3 NOT ADD SLT PUSH2 0x121 JUMPI PUSH2 0x13F PUSH2 0x1923 JUMP JUMPDEST PUSH2 0x147 PUSH2 0x1AD1 JUMP JUMPDEST PUSH1 0x1 PUSH1 0x1 PUSH1 0xA0 SHL SUB SWAP1 DUP2 AND SWAP1 DUP2 ISZERO PUSH2 0x196 JUMPI PUSH1 0x0 SLOAD DUP3 PUSH1 0x1 PUSH1 0x1 PUSH1 0x60 SHL SUB PUSH1 0xA0 SHL DUP3 AND OR PUSH1 0x0 SSTORE AND PUSH32 0x8BE0079C531659141344CD1FD0A4F28419497F9722A3DAAFE3B4186F6B6457E0 PUSH1 0x0 DUP1 LOG3 STOP JUMPDEST PUSH1 0x40 MLOAD PUSH4 0x1E4FBDF7 PUSH1 0xE0 SHL DUP2 MSTORE PUSH1 0x0 PUSH1 0x4 DUP3 ADD MSTORE PUSH1 0x24 SWAP1 REVERT JUMPDEST CALLVALUE PUSH2 0x121 JUMPI PUSH1 0x0 CALLDATASIZE PUSH1 0x3 NOT ADD SLT PUSH2 0x121 JUMPI PUSH1 0x2 SLOAD PUSH1 0x40 MLOAD PUSH1 0x1 PUSH1 0x1 PUSH1 0xA0 SHL SUB SWAP1 SWAP2 AND DUP2 MSTORE PUSH1 0x20 SWAP1 RETURN JUMPDEST CALLVALUE PUSH2 0x121 JUMPI PUSH1 0x20 CALLDATASIZE PUSH1 0x3 NOT ADD SLT PUSH2 0x121 JUMPI PUSH1 0x1 PUSH1 0x1 PUSH1 0xA0 SHL SUB PUSH2 0x1F9 PUSH2 0x1923 JUMP JUMPDEST AND PUSH1 0x0 MSTORE PUSH1 0x6 PUSH1 0x20 MSTORE PUSH1 0x20 PUSH1 0xFF PUSH1 0x40 PUSH1 0x0 KECCAK256 SLOAD AND PUSH1 0x40 MLOAD SWAP1 ISZERO ISZERO DUP2 MSTORE RETURN JUMPDEST CALLVALUE PUSH2 0x121 JUMPI PUSH1 0x40 CALLDATASIZE PUSH1 0x3 NOT ADD SLT PUSH2 0x121 JUMPI PUSH1 0x1 PUSH1 0x1 PUSH1 0xA0 SHL SUB PUSH2 0x238 PUSH2 0x1923 JUMP JUMPDEST AND DUP1 PUSH1 0x0 MSTORE PUSH1 0x6 PUSH1 0x20 MSTORE PUSH2 0x253 PUSH1 0xFF PUSH1 0x40 PUSH1 0x0 KECCAK256 SLOAD AND PUSH2 0x1B38 JUMP JUMPDEST PUSH1 0x40 MLOAD PUSH4 0x23E66501 PUSH1 0xE1 SHL DUP2 MSTORE PUSH1 0x20 DUP2 PUSH1 0x4 DUP2 DUP6 GAS STATICCALL SWAP1 DUP2 ISZERO PUSH2 0x4FE JUMPI PUSH1 0x0 SWAP2 PUSH2 0x670 JUMPI JUMPDEST POP PUSH1 0x40 MLOAD PUSH4 0x133F7571 PUSH1 0xE3 SHL DUP2 MSTORE PUSH1 0x24 DUP1 CALLDATALOAD PUSH1 0x4 DUP4 ADD MSTORE SWAP1 SWAP2 PUSH2 0x180 SWAP2 DUP3 SWAP1 DUP5 SWAP1 DUP2 PUSH1 0x1 PUSH1 0x1 PUSH1 0xA0 SHL SUB DUP6 AND GAS STATICCALL SWAP3 DUP4 ISZERO PUSH2 0x4FE JUMPI PUSH1 0x0 SWAP3 PUSH1 0x0 SWAP5 PUSH2 0x630 JUMPI JUMPDEST POP POP PUSH1 0x40 MLOAD PUSH4 0x29BC6721 PUSH1 0xE2 SHL DUP2 MSTORE SWAP1 PUSH1 0x20 DUP3 PUSH1 0x4 DUP2 DUP9 GAS STATICCALL SWAP2 DUP3 ISZERO PUSH2 0x4FE JUMPI PUSH1 0x0 SWAP3 PUSH2 0x5F4 JUMPI JUMPDEST POP PUSH2 0x2EA CALLER PUSH2 0x259E JUMP JUMPDEST PUSH1 0x40 MLOAD PUSH4 0xC69DEEC5 PUSH1 0xE0 SHL DUP2 MSTORE CALLER PUSH1 0x4 DUP3 ADD MSTORE PUSH1 0x24 DUP1 CALLDATALOAD SWAP1 DUP3 ADD MSTORE PUSH1 0x0 SWAP6 SWAP2 SWAP5 DUP7 SWAP4 SWAP1 SWAP3 DUP5 SWAP3 SWAP1 SWAP2 SWAP1 PUSH1 0x20 DUP2 PUSH1 0x44 DUP2 PUSH1 0x1 PUSH1 0x1 PUSH1 0xA0 SHL SUB DUP12 AND GAS STATICCALL SWAP1 DUP2 ISZERO PUSH2 0x4FE JUMPI PUSH1 0x0 SWAP2 PUSH2 0x5BA JUMPI JUMPDEST POP ISZERO PUSH2 0x53E JUMPI POP POP PUSH1 0x40 MLOAD PUSH4 0x3E491D47 PUSH1 0xE0 SHL DUP2 MSTORE CALLER PUSH1 0x4 DUP3 ADD MSTORE PUSH1 0x24 DUP1 CALLDATALOAD SWAP1 DUP3 ADD MSTORE SWAP5 SWAP2 POP PUSH1 0x20 SWAP1 POP DUP5 PUSH1 0x44 DUP2 PUSH1 0x1 PUSH1 0x1 PUSH1 0xA0 SHL SUB DUP8 AND GAS STATICCALL SWAP4 DUP5 ISZERO PUSH2 0x4FE JUMPI PUSH1 0x0 SWAP5 PUSH2 0x50A JUMPI JUMPDEST POP DUP4 SWAP3 DUP5 PUSH2 0x3E3 JUMPI JUMPDEST POP PUSH1 0x0 DUP1 MLOAD PUSH1 0x20 PUSH2 0x260D DUP4 CODECOPY DUP2 MLOAD SWAP2 MSTORE SWAP4 POP PUSH2 0x3AE PUSH2 0x3DE SWAP2 JUMPDEST PUSH2 0x3A9 CALLER PUSH2 0x259E JUMP JUMPDEST PUSH2 0x1BF1 JUMP JUMPDEST PUSH1 0x40 MLOAD SWAP4 DUP5 SWAP4 CALLER SWAP8 PUSH1 0x24 CALLDATALOAD DUP7 SWAP2 SWAP3 PUSH1 0x80 SWAP4 SWAP7 SWAP6 SWAP5 SWAP2 SWAP7 PUSH1 0xA0 DUP5 ADD SWAP8 DUP5 MSTORE PUSH1 0x20 DUP5 ADD MSTORE PUSH1 0x40 DUP4 ADD MSTORE PUSH1 0x60 DUP3 ADD MSTORE ADD MSTORE JUMP JUMPDEST SUB SWAP1 LOG3 STOP JUMPDEST PUSH1 0x20 PUSH2 0x429 SWAP2 PUSH1 0x40 MLOAD SWAP1 PUSH4 0x1C4B774B PUSH1 0xE0 SHL DUP4 DUP4 ADD MSTORE PUSH1 0x24 CALLDATALOAD PUSH1 0x24 DUP4 ADD MSTORE PUSH1 0x24 DUP3 MSTORE PUSH2 0x40E DUP3 PUSH2 0x19A5 JUMP JUMPDEST PUSH1 0x40 MLOAD PUSH4 0x468721A7 PUSH1 0xE0 SHL DUP2 MSTORE SWAP4 DUP5 SWAP3 DUP4 SWAP3 PUSH1 0x4 DUP5 ADD PUSH2 0x1C14 JUMP JUMPDEST SUB DUP2 PUSH1 0x0 CALLER GAS CALL SWAP1 DUP2 ISZERO PUSH2 0x4FE JUMPI PUSH1 0x0 SWAP2 PUSH2 0x4C4 JUMPI JUMPDEST POP ISZERO PUSH2 0x47F JUMPI PUSH2 0x3AE PUSH2 0x3DE SWAP2 PUSH2 0x478 PUSH2 0x473 PUSH1 0x0 DUP1 MLOAD PUSH1 0x20 PUSH2 0x260D DUP4 CODECOPY DUP2 MLOAD SWAP2 MSTORE SWAP8 PUSH1 0x1 DUP1 PUSH1 0xA0 SHL SUB PUSH1 0x1 SLOAD AND CALLER PUSH2 0x1ED4 JUMP JUMPDEST PUSH2 0x1C45 JUMP JUMPDEST SWAP2 POP PUSH2 0x386 JUMP JUMPDEST PUSH1 0x40 MLOAD PUSH3 0x461BCD PUSH1 0xE5 SHL DUP2 MSTORE PUSH1 0x20 PUSH1 0x4 DUP3 ADD MSTORE PUSH1 0x17 PUSH1 0x24 DUP3 ADD MSTORE PUSH32 0x47617567652067657420726577617264206661696C6564000000000000000000 PUSH1 0x44 DUP3 ADD MSTORE PUSH1 0x64 SWAP1 REVERT JUMPDEST SWAP1 POP PUSH1 0x20 DUP2 RETURNDATASIZE PUSH1 0x20 GT PUSH2 0x4F6 JUMPI JUMPDEST DUP2 PUSH2 0x4DF PUSH1 0x20 SWAP4 DUP4 PUSH2 0x19C1 JUMP JUMPDEST DUP2 ADD SUB SLT PUSH2 0x121 JUMPI PUSH2 0x4F0 SWAP1 PUSH2 0x1BA2 JUMP JUMPDEST DUP8 PUSH2 0x43F JUMP JUMPDEST RETURNDATASIZE SWAP2 POP PUSH2 0x4D2 JUMP JUMPDEST PUSH1 0x40 MLOAD RETURNDATASIZE PUSH1 0x0 DUP3 RETURNDATACOPY RETURNDATASIZE SWAP1 REVERT JUMPDEST SWAP1 SWAP4 POP PUSH1 0x20 DUP2 RETURNDATASIZE PUSH1 0x20 GT PUSH2 0x536 JUMPI JUMPDEST DUP2 PUSH2 0x526 PUSH1 0x20 SWAP4 DUP4 PUSH2 0x19C1 JUMP JUMPDEST DUP2 ADD SUB SLT PUSH2 0x121 JUMPI MLOAD SWAP3 DUP7 PUSH2 0x37D JUMP JUMPDEST RETURNDATASIZE SWAP2 POP PUSH2 0x519 JUMP JUMPDEST PUSH2 0x3DE SWAP4 SWAP8 POP PUSH2 0x3AE SWAP3 SWAP6 POP PUSH1 0x0 DUP1 MLOAD PUSH1 0x20 PUSH2 0x260D DUP4 CODECOPY DUP2 MLOAD SWAP2 MSTORE SWAP7 SWAP2 SWAP5 POP PUSH2 0x56B SWAP1 PUSH1 0x24 CALLDATALOAD SWAP1 CALLER PUSH2 0x23C4 JUMP JUMPDEST SWAP1 SWAP5 DUP2 SWAP6 DUP1 SWAP10 DUP2 PUSH2 0x5A0 JUMPI JUMPDEST POP POP DUP2 PUSH2 0x586 JUMPI JUMPDEST POP POP PUSH2 0x3A0 JUMP JUMPDEST PUSH2 0x599 SWAP2 PUSH2 0x594 SWAP2 CALLER PUSH2 0x1ED4 JUMP JUMPDEST PUSH2 0x2383 JUMP JUMPDEST DUP9 DUP1 PUSH2 0x57F JUMP JUMPDEST PUSH2 0x5B3 SWAP2 PUSH2 0x5AE SWAP2 CALLER PUSH2 0x1ED4 JUMP JUMPDEST PUSH2 0x2342 JUMP JUMPDEST DUP11 DUP1 PUSH2 0x577 JUMP JUMPDEST SWAP1 POP PUSH1 0x20 DUP2 RETURNDATASIZE PUSH1 0x20 GT PUSH2 0x5EC JUMPI JUMPDEST DUP2 PUSH2 0x5D5 PUSH1 0x20 SWAP4 DUP4 PUSH2 0x19C1 JUMP JUMPDEST DUP2 ADD SUB SLT PUSH2 0x121 JUMPI PUSH2 0x5E6 SWAP1 PUSH2 0x1BA2 JUMP JUMPDEST DUP11 PUSH2 0x334 JUMP JUMPDEST RETURNDATASIZE SWAP2 POP PUSH2 0x5C8 JUMP JUMPDEST SWAP1 SWAP2 POP PUSH1 0x20 DUP2 RETURNDATASIZE PUSH1 0x20 GT PUSH2 0x628 JUMPI JUMPDEST DUP2 PUSH2 0x610 PUSH1 0x20 SWAP4 DUP4 PUSH2 0x19C1 JUMP JUMPDEST DUP2 ADD SUB SLT PUSH2 0x121 JUMPI PUSH2 0x621 SWAP1 PUSH2 0x1B8E JUMP JUMPDEST SWAP1 DUP6 PUSH2 0x2E0 JUMP JUMPDEST RETURNDATASIZE SWAP2 POP PUSH2 0x603 JUMP JUMPDEST DUP1 SWAP2 SWAP3 SWAP5 POP PUSH2 0x654 SWAP4 POP SWAP1 RETURNDATASIZE LT PUSH2 0x669 JUMPI JUMPDEST PUSH2 0x64C DUP2 DUP4 PUSH2 0x19C1 JUMP JUMPDEST DUP2 ADD SWAP1 PUSH2 0x229C JUMP JUMPDEST POP POP POP POP POP POP POP POP SWAP3 POP SWAP1 POP SWAP1 SWAP2 DUP5 DUP1 PUSH2 0x2B8 JUMP JUMPDEST POP RETURNDATASIZE PUSH2 0x642 JUMP JUMPDEST SWAP1 POP PUSH1 0x20 DUP2 RETURNDATASIZE PUSH1 0x20 GT PUSH2 0x6A2 JUMPI JUMPDEST DUP2 PUSH2 0x68B PUSH1 0x20 SWAP4 DUP4 PUSH2 0x19C1 JUMP JUMPDEST DUP2 ADD SUB SLT PUSH2 0x121 JUMPI PUSH2 0x69C SWAP1 PUSH2 0x1B8E JUMP JUMPDEST DUP3 PUSH2 0x278 JUMP JUMPDEST RETURNDATASIZE SWAP2 POP PUSH2 0x67E JUMP JUMPDEST CALLVALUE PUSH2 0x121 JUMPI PUSH1 0x0 CALLDATASIZE PUSH1 0x3 NOT ADD SLT PUSH2 0x121 JUMPI PUSH1 0x20 PUSH1 0x5 SLOAD PUSH1 0x40 MLOAD SWAP1 DUP2 MSTORE RETURN JUMPDEST CALLVALUE PUSH2 0x121 JUMPI PUSH1 0x0 CALLDATASIZE PUSH1 0x3 NOT ADD SLT PUSH2 0x121 JUMPI PUSH1 0x4 SLOAD PUSH1 0x40 MLOAD PUSH1 0x1 PUSH1 0x1 PUSH1 0xA0 SHL SUB SWAP1 SWAP2 AND DUP2 MSTORE PUSH1 0x20 SWAP1 RETURN JUMPDEST CALLVALUE PUSH2 0x121 JUMPI PUSH1 0x0 CALLDATASIZE PUSH1 0x3 NOT ADD SLT PUSH2 0x121 JUMPI PUSH1 0x3 SLOAD PUSH1 0x40 MLOAD PUSH1 0x1 PUSH1 0x1 PUSH1 0xA0 SHL SUB SWAP1 SWAP2 AND DUP2 MSTORE PUSH1 0x20 SWAP1 RETURN JUMPDEST CALLVALUE PUSH2 0x121 JUMPI PUSH1 0x20 CALLDATASIZE PUSH1 0x3 NOT ADD SLT PUSH2 0x121 JUMPI PUSH2 0x733 PUSH2 0x1923 JUMP JUMPDEST PUSH2 0x73B PUSH2 0x1AD1 JUMP JUMPDEST PUSH1 0x1 PUSH1 0x1 PUSH1 0xA0 SHL SUB SWAP1 DUP2 AND SWAP1 DUP2 ISZERO PUSH2 0x78A JUMPI PUSH1 0x2 SLOAD DUP3 PUSH1 0x1 PUSH1 0x1 PUSH1 0x60 SHL SUB PUSH1 0xA0 SHL DUP3 AND OR PUSH1 0x2 SSTORE AND PUSH32 0x9D4858DCCB76DEBED7845FD87EC5C769962D072D518C9E34182581ABB3E8247C PUSH1 0x0 DUP1 LOG3 STOP JUMPDEST PUSH1 0x40 MLOAD PUSH3 0x461BCD PUSH1 0xE5 SHL DUP2 MSTORE PUSH1 0x20 PUSH1 0x4 DUP3 ADD MSTORE PUSH1 0x15 PUSH1 0x24 DUP3 ADD MSTORE PUSH21 0x496E76616C69642072657761726420737461626C65 PUSH1 0x58 SHL PUSH1 0x44 DUP3 ADD MSTORE PUSH1 0x64 SWAP1 REVERT JUMPDEST CALLVALUE PUSH2 0x121 JUMPI PUSH1 0x40 CALLDATASIZE PUSH1 0x3 NOT ADD SLT PUSH2 0x121 JUMPI PUSH2 0x7E0 PUSH2 0x1923 JUMP JUMPDEST PUSH1 0x24 CALLDATALOAD PUSH1 0x1 DUP1 PUSH1 0xA0 SHL SUB SWAP2 DUP3 DUP2 AND PUSH1 0x0 MSTORE PUSH1 0x6 PUSH1 0x20 MSTORE PUSH2 0x807 PUSH1 0xFF PUSH1 0x40 PUSH1 0x0 KECCAK256 SLOAD AND PUSH2 0x1B38 JUMP JUMPDEST PUSH1 0x40 MLOAD PUSH4 0x23E66501 PUSH1 0xE1 SHL DUP2 MSTORE SWAP3 PUSH1 0x20 DUP5 PUSH1 0x4 DUP2 DUP6 DUP6 AND GAS STATICCALL SWAP4 DUP5 ISZERO PUSH2 0x4FE JUMPI PUSH1 0x0 SWAP5 PUSH2 0xCE7 JUMPI JUMPDEST POP PUSH1 0x40 MLOAD SWAP2 PUSH4 0x133F7571 PUSH1 0xE3 SHL DUP4 MSTORE DUP4 PUSH1 0x4 DUP5 ADD MSTORE PUSH2 0x180 SWAP5 DUP6 DUP5 PUSH1 0x24 DUP2 DUP7 DUP6 AND GAS STATICCALL SWAP4 DUP5 ISZERO PUSH2 0x4FE JUMPI PUSH1 0x0 SWAP1 PUSH1 0x0 SWAP8 PUSH1 0x0 SWAP7 PUSH2 0xCB4 JUMPI JUMPDEST POP POP PUSH2 0x872 CALLER PUSH2 0x259E JUMP JUMPDEST SWAP2 PUSH1 0x0 SWAP6 PUSH1 0x40 MLOAD SWAP3 PUSH4 0x29BC6721 PUSH1 0xE2 SHL DUP5 MSTORE PUSH1 0x20 DUP5 PUSH1 0x4 DUP2 DUP11 DUP11 AND GAS STATICCALL SWAP4 DUP5 ISZERO PUSH2 0x4FE JUMPI PUSH1 0x0 SWAP5 PUSH2 0xC78 JUMPI JUMPDEST POP PUSH1 0x40 MLOAD PUSH4 0xC69DEEC5 PUSH1 0xE0 SHL DUP2 MSTORE CALLER PUSH1 0x4 DUP3 ADD MSTORE PUSH1 0x24 DUP2 ADD DUP11 SWAP1 MSTORE DUP8 DUP6 AND SWAP5 SWAP1 PUSH1 0x20 DUP2 PUSH1 0x44 DUP2 DUP10 GAS STATICCALL SWAP6 DUP7 ISZERO PUSH2 0x4FE JUMPI DUP12 SWAP2 PUSH1 0x0 SWAP8 PUSH2 0xC3A JUMPI JUMPDEST POP DUP7 PUSH2 0xBB5 JUMPI JUMPDEST POP POP POP PUSH1 0x0 SWAP10 PUSH1 0x0 SWAP5 ISZERO PUSH2 0xB68 JUMPI JUMPDEST POP POP PUSH1 0x1 PUSH1 0x1 PUSH1 0x80 SHL SUB DUP1 SWAP2 AND DUP1 PUSH2 0xA12 JUMPI JUMPDEST POP POP PUSH1 0x20 DUP2 PUSH2 0x914 DUP10 PUSH2 0x939 SWAP5 CALLER PUSH2 0x23C4 JUMP JUMPDEST POP POP PUSH1 0x40 MLOAD PUSH4 0x852CD8D PUSH1 0xE3 SHL DUP4 DUP3 ADD MSTORE PUSH1 0x24 DUP1 DUP3 ADD DUP12 SWAP1 MSTORE DUP2 MSTORE SWAP1 PUSH2 0x40E DUP3 PUSH2 0x19A5 JUMP JUMPDEST SUB DUP2 PUSH1 0x0 CALLER GAS CALL SWAP1 DUP2 ISZERO PUSH2 0x4FE JUMPI PUSH1 0x0 SWAP2 PUSH2 0x9D8 JUMPI JUMPDEST POP ISZERO PUSH2 0x9A5 JUMPI PUSH1 0x0 DUP1 MLOAD PUSH1 0x20 PUSH2 0x260D DUP4 CODECOPY DUP2 MLOAD SWAP2 MSTORE SWAP5 PUSH2 0x975 PUSH2 0x3DE SWAP4 PUSH2 0x3A9 CALLER PUSH2 0x259E JUMP JUMPDEST SWAP2 PUSH1 0x40 MLOAD SWAP6 DUP7 SWAP6 AND SWAP9 CALLER SWAP9 DUP7 SWAP2 SWAP3 PUSH1 0x80 SWAP4 SWAP7 SWAP6 SWAP5 SWAP2 SWAP7 PUSH1 0xA0 DUP5 ADD SWAP8 DUP5 MSTORE PUSH1 0x20 DUP5 ADD MSTORE PUSH1 0x40 DUP4 ADD MSTORE PUSH1 0x60 DUP3 ADD MSTORE ADD MSTORE JUMP JUMPDEST PUSH1 0x40 MLOAD PUSH3 0x461BCD PUSH1 0xE5 SHL DUP2 MSTORE PUSH1 0x20 PUSH1 0x4 DUP3 ADD MSTORE PUSH1 0xB PUSH1 0x24 DUP3 ADD MSTORE PUSH11 0x109D5C9B8819985A5B1959 PUSH1 0xAA SHL PUSH1 0x44 DUP3 ADD MSTORE PUSH1 0x64 SWAP1 REVERT JUMPDEST SWAP1 POP PUSH1 0x20 DUP2 RETURNDATASIZE PUSH1 0x20 GT PUSH2 0xA0A JUMPI JUMPDEST DUP2 PUSH2 0x9F3 PUSH1 0x20 SWAP4 DUP4 PUSH2 0x19C1 JUMP JUMPDEST DUP2 ADD SUB SLT PUSH2 0x121 JUMPI PUSH2 0xA04 SWAP1 PUSH2 0x1BA2 JUMP JUMPDEST DUP9 PUSH2 0x94F JUMP JUMPDEST RETURNDATASIZE SWAP2 POP PUSH2 0x9E6 JUMP JUMPDEST PUSH1 0x40 MLOAD SWAP2 PUSH2 0xA1F DUP4 PUSH2 0x1989 JUMP JUMPDEST DUP10 DUP4 MSTORE PUSH1 0x20 DUP4 ADD SWAP2 DUP3 MSTORE PUSH1 0x40 DUP4 ADD PUSH1 0x0 DUP2 MSTORE PUSH1 0x60 DUP5 ADD SWAP2 PUSH1 0x0 DUP4 MSTORE PUSH1 0x80 DUP6 ADD SWAP4 TIMESTAMP DUP6 MSTORE PUSH1 0x40 MLOAD SWAP6 PUSH4 0x624E65F PUSH1 0xE1 SHL PUSH1 0x20 DUP9 ADD MSTORE MLOAD PUSH1 0x24 DUP8 ADD MSTORE MLOAD AND PUSH1 0x44 DUP6 ADD MSTORE MLOAD PUSH1 0x64 DUP5 ADD MSTORE MLOAD PUSH1 0x84 DUP4 ADD MSTORE MLOAD PUSH1 0xA4 DUP3 ADD MSTORE PUSH1 0xA4 DUP2 MSTORE PUSH1 0xE0 DUP2 ADD DUP2 DUP2 LT PUSH8 0xFFFFFFFFFFFFFFFF DUP3 GT OR PUSH2 0xB52 JUMPI PUSH1 0x40 DUP2 SWAP1 MSTORE PUSH4 0x468721A7 PUSH1 0xE0 SHL DUP2 MSTORE PUSH1 0x20 DUP2 PUSH1 0xDF NOT DUP5 PUSH2 0xAB1 DUP2 DUP9 PUSH1 0xE4 DUP3 ADD PUSH2 0x1C14 JUMP JUMPDEST SUB ADD DUP2 PUSH1 0x0 CALLER GAS CALL SWAP2 DUP3 ISZERO PUSH2 0x4FE JUMPI PUSH1 0x0 SWAP3 PUSH2 0xB1B JUMPI JUMPDEST POP POP ISZERO PUSH2 0xAD6 JUMPI DUP9 DUP1 PUSH2 0x901 JUMP JUMPDEST PUSH1 0x40 MLOAD PUSH3 0x461BCD PUSH1 0xE5 SHL DUP2 MSTORE PUSH1 0x20 PUSH1 0x4 DUP3 ADD MSTORE PUSH1 0x19 PUSH1 0x24 DUP3 ADD MSTORE PUSH32 0x4465637265617365206C6971756964697479206661696C656400000000000000 PUSH1 0x44 DUP3 ADD MSTORE PUSH1 0x64 SWAP1 REVERT JUMPDEST PUSH1 0x20 DUP1 SWAP3 SWAP4 POP RETURNDATASIZE DUP4 GT PUSH2 0xB4B JUMPI JUMPDEST PUSH2 0xB33 DUP2 DUP6 PUSH2 0x19C1 JUMP JUMPDEST DUP2 ADD SUB SLT PUSH2 0x121 JUMPI PUSH2 0xB44 SWAP1 PUSH2 0x1BA2 JUMP JUMPDEST DUP10 DUP1 PUSH2 0xAC8 JUMP JUMPDEST POP RETURNDATASIZE PUSH2 0xB29 JUMP JUMPDEST PUSH4 0x4E487B71 PUSH1 0xE0 SHL PUSH1 0x0 MSTORE PUSH1 0x41 PUSH1 0x4 MSTORE PUSH1 0x24 PUSH1 0x0 REVERT JUMPDEST SWAP4 POP SWAP9 POP PUSH2 0xB77 DUP9 DUP4 CALLER PUSH2 0x23C4 JUMP JUMPDEST SWAP1 SWAP4 DUP2 SWAP5 DUP1 SWAP12 DUP2 PUSH2 0xBA0 JUMPI JUMPDEST POP POP DUP2 ISZERO PUSH2 0x8EE JUMPI PUSH2 0xB99 SWAP2 PUSH2 0x594 SWAP2 CALLER PUSH2 0x1ED4 JUMP JUMPDEST DUP10 DUP1 PUSH2 0x8EE JUMP JUMPDEST PUSH2 0xBAE SWAP2 PUSH2 0x5AE SWAP2 CALLER PUSH2 0x1ED4 JUMP JUMPDEST DUP12 DUP1 PUSH2 0xB83 JUMP JUMPDEST PUSH1 0x40 MLOAD PUSH4 0x3E491D47 PUSH1 0xE0 SHL DUP2 MSTORE CALLER PUSH1 0x4 DUP3 ADD MSTORE PUSH1 0x24 DUP2 ADD SWAP3 SWAP1 SWAP3 MSTORE SWAP2 SWAP10 POP SWAP1 PUSH1 0x20 SWAP1 DUP3 SWAP1 PUSH1 0x44 SWAP1 DUP3 SWAP1 GAS STATICCALL DUP1 ISZERO PUSH2 0x4FE JUMPI DUP11 SWAP1 PUSH1 0x0 SWAP1 PUSH2 0xC04 JUMPI JUMPDEST PUSH2 0xBFC SWAP3 POP SWAP10 CALLER PUSH2 0x1C89 JUMP JUMPDEST DUP11 DUP10 DUP2 PUSH2 0x8DF JUMP JUMPDEST POP POP PUSH1 0x20 DUP2 RETURNDATASIZE PUSH1 0x20 GT PUSH2 0xC32 JUMPI JUMPDEST DUP2 PUSH2 0xC1F PUSH1 0x20 SWAP4 DUP4 PUSH2 0x19C1 JUMP JUMPDEST DUP2 ADD SUB SLT PUSH2 0x121 JUMPI DUP10 PUSH2 0xBFC SWAP2 MLOAD PUSH2 0xBF0 JUMP JUMPDEST RETURNDATASIZE SWAP2 POP PUSH2 0xC12 JUMP JUMPDEST SWAP2 POP SWAP6 POP PUSH1 0x20 DUP2 RETURNDATASIZE PUSH1 0x20 GT PUSH2 0xC70 JUMPI JUMPDEST DUP2 PUSH2 0xC57 PUSH1 0x20 SWAP4 DUP4 PUSH2 0x19C1 JUMP JUMPDEST DUP2 ADD SUB SLT PUSH2 0x121 JUMPI PUSH2 0xC69 DUP12 SWAP2 PUSH2 0x1BA2 JUMP JUMPDEST SWAP6 DUP14 PUSH2 0x8D8 JUMP JUMPDEST RETURNDATASIZE SWAP2 POP PUSH2 0xC4A JUMP JUMPDEST SWAP1 SWAP4 POP PUSH1 0x20 DUP2 RETURNDATASIZE PUSH1 0x20 GT PUSH2 0xCAC JUMPI JUMPDEST DUP2 PUSH2 0xC94 PUSH1 0x20 SWAP4 DUP4 PUSH2 0x19C1 JUMP JUMPDEST DUP2 ADD SUB SLT PUSH2 0x121 JUMPI PUSH2 0xCA5 SWAP1 PUSH2 0x1B8E JUMP JUMPDEST SWAP3 DUP11 PUSH2 0x89E JUMP JUMPDEST RETURNDATASIZE SWAP2 POP PUSH2 0xC87 JUMP JUMPDEST SWAP2 POP SWAP2 SWAP5 POP PUSH2 0xCD0 SWAP3 SWAP7 POP DUP1 RETURNDATASIZE LT PUSH2 0x669 JUMPI PUSH2 0x64C DUP2 DUP4 PUSH2 0x19C1 JUMP JUMPDEST POP POP POP POP SWAP11 SWAP7 POP POP POP POP SWAP5 SWAP2 POP SWAP4 SWAP6 SWAP4 DUP8 DUP1 PUSH2 0x867 JUMP JUMPDEST SWAP1 SWAP4 POP PUSH1 0x20 DUP2 RETURNDATASIZE PUSH1 0x20 GT PUSH2 0xD1B JUMPI JUMPDEST DUP2 PUSH2 0xD03 PUSH1 0x20 SWAP4 DUP4 PUSH2 0x19C1 JUMP JUMPDEST DUP2 ADD SUB SLT PUSH2 0x121 JUMPI PUSH2 0xD14 SWAP1 PUSH2 0x1B8E JUMP JUMPDEST SWAP3 DUP5 PUSH2 0x82F JUMP JUMPDEST RETURNDATASIZE SWAP2 POP PUSH2 0xCF6 JUMP JUMPDEST CALLVALUE PUSH2 0x121 JUMPI PUSH1 0x0 CALLDATASIZE PUSH1 0x3 NOT ADD SLT PUSH2 0x121 JUMPI PUSH1 0x0 SLOAD PUSH1 0x40 MLOAD PUSH1 0x1 PUSH1 0x1 PUSH1 0xA0 SHL SUB SWAP1 SWAP2 AND DUP2 MSTORE PUSH1 0x20 SWAP1 RETURN JUMPDEST CALLVALUE PUSH2 0x121 JUMPI PUSH1 0x20 CALLDATASIZE PUSH1 0x3 NOT ADD SLT PUSH2 0x121 JUMPI PUSH2 0xD65 PUSH2 0x1923 JUMP JUMPDEST PUSH2 0xD6D PUSH2 0x1AD1 JUMP JUMPDEST PUSH1 0x1 PUSH1 0x1 PUSH1 0xA0 SHL SUB SWAP1 DUP2 AND SWAP1 DUP2 ISZERO PUSH2 0xDBC JUMPI PUSH1 0x1 SLOAD DUP3 PUSH1 0x1 PUSH1 0x1 PUSH1 0x60 SHL SUB PUSH1 0xA0 SHL DUP3 AND OR PUSH1 0x1 SSTORE AND PUSH32 0x906FF2422A6FFA134F2D7CCAFFD446BC0C583A5CB6615749B4B2836942A5FEA8 PUSH1 0x0 DUP1 LOG3 STOP JUMPDEST PUSH1 0x40 MLOAD PUSH3 0x461BCD PUSH1 0xE5 SHL DUP2 MSTORE PUSH1 0x20 PUSH1 0x4 DUP3 ADD MSTORE PUSH1 0x14 PUSH1 0x24 DUP3 ADD MSTORE PUSH20 0x24B73B30B634B2103932BBB0B932103A37B5B2B7 PUSH1 0x61 SHL PUSH1 0x44 DUP3 ADD MSTORE PUSH1 0x64 SWAP1 REVERT JUMPDEST CALLVALUE PUSH2 0x121 JUMPI PUSH1 0x0 CALLDATASIZE PUSH1 0x3 NOT ADD SLT PUSH2 0x121 JUMPI PUSH2 0xE11 PUSH2 0x1AD1 JUMP JUMPDEST PUSH1 0x0 DUP1 SLOAD PUSH1 0x1 PUSH1 0x1 PUSH1 0xA0 SHL SUB NOT DUP2 AND DUP3 SSTORE PUSH1 0x1 PUSH1 0x1 PUSH1 0xA0 SHL SUB AND PUSH32 0x8BE0079C531659141344CD1FD0A4F28419497F9722A3DAAFE3B4186F6B6457E0 DUP3 DUP1 LOG3 STOP JUMPDEST CALLVALUE PUSH2 0x121 JUMPI PUSH1 0x40 CALLDATASIZE PUSH1 0x3 NOT ADD SLT PUSH2 0x121 JUMPI PUSH2 0xE6A PUSH2 0x1923 JUMP JUMPDEST PUSH1 0x24 CALLDATALOAD PUSH1 0x1 DUP1 PUSH1 0xA0 SHL SUB DUP1 SWAP3 AND SWAP2 DUP3 PUSH1 0x0 MSTORE PUSH1 0x20 SWAP1 PUSH1 0x6 DUP3 MSTORE PUSH2 0xE94 PUSH1 0xFF PUSH1 0x40 PUSH1 0x0 KECCAK256 SLOAD AND PUSH2 0x1B38 JUMP JUMPDEST PUSH1 0x40 MLOAD PUSH4 0x29BC6721 PUSH1 0xE2 SHL DUP2 MSTORE SWAP1 DUP3 DUP3 PUSH1 0x4 DUP2 DUP9 GAS STATICCALL SWAP2 DUP3 ISZERO PUSH2 0x4FE JUMPI PUSH1 0x0 SWAP3 PUSH2 0xFE7 JUMPI JUMPDEST POP PUSH1 0x40 MLOAD PUSH4 0xC69DEEC5 PUSH1 0xE0 SHL DUP2 MSTORE CALLER PUSH1 0x4 DUP3 ADD MSTORE PUSH1 0x24 DUP2 ADD DUP6 SWAP1 MSTORE SWAP1 DUP3 AND SWAP1 DUP4 DUP2 PUSH1 0x44 DUP2 DUP6 GAS STATICCALL DUP1 ISZERO PUSH2 0x4FE JUMPI PUSH1 0x0 SWAP1 PUSH2 0xFB1 JUMPI JUMPDEST PUSH2 0xEF8 SWAP2 POP PUSH2 0x1BAF JUMP JUMPDEST PUSH2 0xF01 CALLER PUSH2 0x259E JUMP JUMPDEST PUSH1 0x40 MLOAD PUSH4 0x3E491D47 PUSH1 0xE0 SHL DUP2 MSTORE CALLER PUSH1 0x4 DUP3 ADD MSTORE PUSH1 0x24 DUP2 ADD DUP7 SWAP1 MSTORE SWAP1 SWAP2 DUP5 SWAP1 DUP3 SWAP1 PUSH1 0x44 SWAP1 DUP3 SWAP1 GAS STATICCALL SWAP3 DUP4 ISZERO PUSH2 0x4FE JUMPI DUP6 SWAP2 PUSH1 0x0 SWAP5 PUSH2 0xF7C JUMPI JUMPDEST POP SWAP2 PUSH2 0x3A0 PUSH2 0xF4B SWAP3 PUSH1 0x0 SWAP5 CALLER PUSH2 0x1C89 JUMP JUMPDEST SWAP3 PUSH1 0x40 MLOAD SWAP5 DUP6 MSTORE DUP5 ADD MSTORE PUSH1 0x0 PUSH1 0x40 DUP5 ADD MSTORE PUSH1 0x60 DUP4 ADD MSTORE PUSH1 0x80 DUP3 ADD MSTORE PUSH1 0x0 DUP1 MLOAD PUSH1 0x20 PUSH2 0x260D DUP4 CODECOPY DUP2 MLOAD SWAP2 MSTORE PUSH1 0xA0 CALLER SWAP3 LOG3 STOP JUMPDEST DUP6 DUP1 SWAP3 SWAP6 POP DUP2 SWAP4 POP RETURNDATASIZE DUP4 GT PUSH2 0xFAA JUMPI JUMPDEST PUSH2 0xF96 DUP2 DUP4 PUSH2 0x19C1 JUMP JUMPDEST DUP2 ADD SUB SLT PUSH2 0x121 JUMPI MLOAD SWAP2 DUP5 SWAP1 PUSH2 0x3A0 PUSH2 0xF39 JUMP JUMPDEST POP RETURNDATASIZE PUSH2 0xF8C JUMP JUMPDEST POP DUP4 DUP2 DUP2 RETURNDATASIZE DUP4 GT PUSH2 0xFE0 JUMPI JUMPDEST PUSH2 0xFC7 DUP2 DUP4 PUSH2 0x19C1 JUMP JUMPDEST DUP2 ADD SUB SLT PUSH2 0x121 JUMPI PUSH2 0xFDB PUSH2 0xEF8 SWAP2 PUSH2 0x1BA2 JUMP JUMPDEST PUSH2 0xEEE JUMP JUMPDEST POP RETURNDATASIZE PUSH2 0xFBD JUMP JUMPDEST SWAP1 SWAP2 POP DUP3 DUP2 DUP2 RETURNDATASIZE DUP4 GT PUSH2 0x1017 JUMPI JUMPDEST PUSH2 0xFFF DUP2 DUP4 PUSH2 0x19C1 JUMP JUMPDEST DUP2 ADD SUB SLT PUSH2 0x121 JUMPI PUSH2 0x1010 SWAP1 PUSH2 0x1B8E JUMP JUMPDEST SWAP1 DUP6 PUSH2 0xEB9 JUMP JUMPDEST POP RETURNDATASIZE PUSH2 0xFF5 JUMP JUMPDEST CALLVALUE PUSH2 0x121 JUMPI PUSH1 0x40 CALLDATASIZE PUSH1 0x3 NOT ADD SLT PUSH2 0x121 JUMPI PUSH2 0x1037 PUSH2 0x1923 JUMP JUMPDEST PUSH2 0x103F PUSH2 0x1939 JUMP JUMPDEST SWAP1 PUSH1 0x1 DUP1 PUSH1 0xA0 SHL SUB DUP1 SWAP2 AND PUSH1 0x0 MSTORE PUSH1 0x7 PUSH1 0x20 MSTORE PUSH1 0x40 PUSH1 0x0 KECCAK256 SWAP2 AND PUSH1 0x0 MSTORE PUSH1 0x20 MSTORE PUSH2 0x1083 PUSH2 0x106F PUSH1 0x40 PUSH1 0x0 KECCAK256 PUSH2 0x19E3 JUMP JUMPDEST PUSH1 0x40 MLOAD SWAP2 DUP3 SWAP2 PUSH1 0x20 DUP4 MSTORE PUSH1 0x20 DUP4 ADD SWAP1 PUSH2 0x1AAC JUMP JUMPDEST SUB SWAP1 RETURN JUMPDEST CALLVALUE PUSH2 0x121 JUMPI PUSH1 0x60 CALLDATASIZE PUSH1 0x3 NOT ADD SLT PUSH2 0x121 JUMPI PUSH2 0x10A0 PUSH2 0x1923 JUMP JUMPDEST PUSH2 0x10A8 PUSH2 0x1939 JUMP JUMPDEST SWAP1 PUSH1 0x44 CALLDATALOAD SWAP1 PUSH8 0xFFFFFFFFFFFFFFFF SWAP1 DUP2 DUP4 GT PUSH2 0x121 JUMPI CALLDATASIZE PUSH1 0x23 DUP5 ADD SLT ISZERO PUSH2 0x121 JUMPI DUP3 PUSH1 0x4 ADD CALLDATALOAD SWAP2 DUP3 GT PUSH2 0x121 JUMPI PUSH1 0x24 SWAP1 CALLDATASIZE DUP3 DUP5 DUP7 ADD ADD GT PUSH2 0x121 JUMPI PUSH2 0x10EB PUSH2 0x1AD1 JUMP JUMPDEST PUSH1 0x1 PUSH1 0x1 PUSH1 0xA0 SHL SUB SWAP1 DUP2 AND SWAP5 DUP6 ISZERO PUSH2 0x1293 JUMPI AND SWAP4 DUP5 ISZERO PUSH2 0x125D JUMPI DUP3 ISZERO PUSH2 0x122A JUMPI PUSH1 0x0 MSTORE PUSH1 0x20 SWAP4 PUSH1 0x7 DUP6 MSTORE PUSH1 0x40 PUSH1 0x0 KECCAK256 SWAP1 PUSH1 0x0 MSTORE DUP5 MSTORE PUSH1 0x40 PUSH1 0x0 KECCAK256 SWAP3 PUSH2 0x1130 DUP5 SLOAD PUSH2 0x194F JUMP JUMPDEST PUSH1 0x1F DUP2 GT PUSH2 0x11E4 JUMPI JUMPDEST POP PUSH1 0x0 SWAP5 PUSH1 0x1F DUP5 GT PUSH1 0x1 EQ PUSH2 0x117B JUMPI POP SWAP4 DUP3 SWAP4 SWAP5 PUSH1 0x0 SWAP4 PUSH2 0x116E JUMPI JUMPDEST POP POP POP PUSH1 0x0 NOT PUSH1 0x3 DUP4 SWAP1 SHL SHR NOT AND PUSH1 0x1 SWAP2 SWAP1 SWAP2 SHL OR SWAP1 SSTORE STOP JUMPDEST ADD ADD CALLDATALOAD SWAP1 POP DUP4 DUP1 DUP1 PUSH2 0x1155 JUMP JUMPDEST SWAP2 PUSH1 0x1F NOT DUP5 AND SWAP6 DUP6 PUSH1 0x0 MSTORE DUP4 PUSH1 0x0 KECCAK256 SWAP4 PUSH1 0x0 SWAP1 JUMPDEST DUP9 DUP3 LT PUSH2 0x11CA JUMPI POP POP DUP5 PUSH1 0x1 SWAP7 SWAP8 LT PUSH2 0x11AE JUMPI JUMPDEST POP POP POP POP DUP2 SHL ADD SWAP1 SSTORE STOP JUMPDEST PUSH1 0x0 NOT PUSH1 0xF8 DUP7 PUSH1 0x3 SHL AND SHR NOT SWAP3 ADD ADD CALLDATALOAD AND SWAP1 SSTORE DUP4 DUP1 DUP1 DUP1 PUSH2 0x11A3 JUMP JUMPDEST DUP1 PUSH1 0x1 DUP5 SWAP8 DUP7 DUP4 SWAP6 SWAP7 DUP10 ADD ADD CALLDATALOAD DUP2 SSTORE ADD SWAP7 ADD SWAP3 ADD SWAP1 PUSH2 0x118F JUMP JUMPDEST DUP5 PUSH1 0x0 MSTORE DUP6 PUSH1 0x0 KECCAK256 PUSH1 0x1F DUP6 ADD PUSH1 0x5 SHR DUP2 ADD SWAP2 DUP8 DUP7 LT PUSH2 0x1220 JUMPI JUMPDEST PUSH1 0x1F ADD PUSH1 0x5 SHR ADD SWAP1 JUMPDEST DUP2 DUP2 LT PUSH2 0x1214 JUMPI POP PUSH2 0x1139 JUMP JUMPDEST PUSH1 0x0 DUP2 SSTORE PUSH1 0x1 ADD PUSH2 0x1207 JUMP JUMPDEST SWAP1 SWAP2 POP DUP2 SWAP1 PUSH2 0x11FE JUMP JUMPDEST PUSH1 0x40 MLOAD PUSH3 0x461BCD PUSH1 0xE5 SHL DUP2 MSTORE PUSH1 0x20 PUSH1 0x4 DUP3 ADD MSTORE PUSH1 0xC DUP2 DUP5 ADD MSTORE PUSH12 0x92DCECC2D8D2C840E0C2E8D PUSH1 0xA3 SHL PUSH1 0x44 DUP3 ADD MSTORE PUSH1 0x64 SWAP1 REVERT JUMPDEST PUSH1 0x40 MLOAD PUSH3 0x461BCD PUSH1 0xE5 SHL DUP2 MSTORE PUSH1 0x20 PUSH1 0x4 DUP3 ADD MSTORE PUSH1 0xF DUP2 DUP5 ADD MSTORE PUSH15 0x24B73B30B634B2103A37AA37B5B2B7 PUSH1 0x89 SHL PUSH1 0x44 DUP3 ADD MSTORE PUSH1 0x64 SWAP1 REVERT JUMPDEST PUSH1 0x40 MLOAD PUSH3 0x461BCD PUSH1 0xE5 SHL DUP2 MSTORE PUSH1 0x20 PUSH1 0x4 DUP3 ADD MSTORE PUSH1 0x11 DUP2 DUP6 ADD MSTORE PUSH17 0x24B73B30B634B210333937B6AA37B5B2B7 PUSH1 0x79 SHL PUSH1 0x44 DUP3 ADD MSTORE PUSH1 0x64 SWAP1 REVERT JUMPDEST CALLVALUE PUSH2 0x121 JUMPI PUSH1 0x20 CALLDATASIZE PUSH1 0x3 NOT ADD SLT PUSH2 0x121 JUMPI PUSH2 0x12E4 PUSH2 0x1923 JUMP JUMPDEST PUSH2 0x12EC PUSH2 0x1AD1 JUMP JUMPDEST PUSH1 0x1 PUSH1 0x1 PUSH1 0xA0 SHL SUB AND PUSH2 0x1300 DUP2 ISZERO ISZERO PUSH2 0x1AFD JUMP JUMPDEST PUSH1 0x0 DUP2 DUP2 MSTORE PUSH1 0x6 PUSH1 0x20 MSTORE PUSH1 0x40 DUP2 KECCAK256 DUP1 SLOAD PUSH1 0xFF NOT AND PUSH1 0x1 OR SWAP1 SSTORE PUSH32 0xFC1F1E73948CBC47C5B7F90E5601B7DACCD9AD7173218486CCC74BDD051D05E8 DUP2 DUP1 LOG3 STOP JUMPDEST CALLVALUE PUSH2 0x121 JUMPI PUSH1 0x20 CALLDATASIZE PUSH1 0x3 NOT ADD SLT PUSH2 0x121 JUMPI PUSH2 0x1358 PUSH2 0x1923 JUMP JUMPDEST PUSH2 0x1360 PUSH2 0x1AD1 JUMP JUMPDEST PUSH1 0x1 PUSH1 0x1 PUSH1 0xA0 SHL SUB AND PUSH2 0x1374 DUP2 ISZERO ISZERO PUSH2 0x1AFD JUMP JUMPDEST PUSH1 0x0 DUP2 DUP2 MSTORE PUSH1 0x6 PUSH1 0x20 MSTORE PUSH1 0x40 DUP2 KECCAK256 DUP1 SLOAD PUSH1 0xFF NOT AND SWAP1 SSTORE PUSH32 0x987EB3C2F78454541205F72F34839B434C306C9EAF4922EFD7C0C3060FDB2E4C DUP2 DUP1 LOG3 STOP JUMPDEST CALLVALUE PUSH2 0x121 JUMPI PUSH1 0x40 CALLDATASIZE PUSH1 0x3 NOT ADD SLT PUSH2 0x121 JUMPI PUSH2 0x13C9 PUSH2 0x1923 JUMP JUMPDEST PUSH1 0x24 DUP1 CALLDATALOAD SWAP1 PUSH1 0x1 DUP1 PUSH1 0xA0 SHL SUB DUP1 SWAP4 AND SWAP3 DUP4 PUSH1 0x0 MSTORE PUSH1 0x20 SWAP2 PUSH1 0x6 DUP4 MSTORE PUSH2 0x13F5 PUSH1 0xFF PUSH1 0x40 PUSH1 0x0 KECCAK256 SLOAD AND PUSH2 0x1B38 JUMP JUMPDEST PUSH1 0x40 MLOAD PUSH4 0x23E66501 PUSH1 0xE1 SHL DUP2 MSTORE SWAP1 DUP4 DUP3 PUSH1 0x4 DUP2 DUP10 GAS STATICCALL SWAP2 DUP3 ISZERO PUSH2 0x4FE JUMPI PUSH1 0x0 SWAP3 PUSH2 0x1855 JUMPI JUMPDEST POP PUSH1 0x40 MLOAD PUSH4 0x29BC6721 PUSH1 0xE2 SHL DUP2 MSTORE SWAP1 DUP5 DUP3 PUSH1 0x4 DUP2 DUP11 GAS STATICCALL SWAP2 DUP3 ISZERO PUSH2 0x4FE JUMPI PUSH1 0x0 SWAP3 PUSH2 0x181E JUMPI JUMPDEST POP PUSH1 0x40 MLOAD PUSH4 0xC69DEEC5 PUSH1 0xE0 SHL DUP2 MSTORE CALLER PUSH1 0x4 DUP3 ADD MSTORE PUSH1 0x24 DUP2 ADD DUP8 SWAP1 MSTORE DUP5 DUP5 AND SWAP5 DUP4 AND SWAP3 SWAP1 DUP7 DUP2 PUSH1 0x44 DUP2 DUP8 GAS STATICCALL SWAP1 DUP2 ISZERO PUSH2 0x4FE JUMPI PUSH1 0x0 SWAP2 PUSH2 0x17E9 JUMPI JUMPDEST POP PUSH2 0x17A5 JUMPI PUSH2 0x1488 CALLER PUSH2 0x259E JUMP JUMPDEST SWAP3 PUSH1 0x40 MLOAD SWAP5 PUSH4 0x133F7571 PUSH1 0xE3 SHL DUP7 MSTORE DUP9 PUSH1 0x4 DUP8 ADD MSTORE PUSH2 0x180 SWAP6 DUP7 DUP2 DUP7 DUP2 DUP12 GAS STATICCALL SWAP8 DUP9 ISZERO PUSH2 0x4FE JUMPI DUP10 SWAP2 PUSH1 0x0 SWAP9 PUSH1 0x0 SWAP11 PUSH2 0x176E JUMPI JUMPDEST POP POP SWAP1 DUP3 SWAP2 PUSH2 0x14CF DUP13 PUSH1 0x44 SWAP7 SWAP6 CALLER PUSH2 0x23C4 JUMP JUMPDEST SWAP11 DUP2 DUP1 SWAP12 DUP14 SWAP4 PUSH2 0x1759 JUMPI JUMPDEST POP POP DUP2 PUSH2 0x1744 JUMPI JUMPDEST POP POP PUSH1 0x40 MLOAD SWAP5 DUP6 DUP1 SWAP3 PUSH4 0xE985E9C5 PUSH1 0xE0 SHL DUP3 MSTORE CALLER PUSH1 0x4 DUP4 ADD MSTORE DUP7 DUP11 DUP4 ADD MSTORE GAS STATICCALL DUP1 ISZERO PUSH2 0x4FE JUMPI DUP10 SWAP4 PUSH1 0x0 SWAP2 PUSH2 0x170E JUMPI JUMPDEST POP ISZERO PUSH2 0x1602 JUMPI JUMPDEST POP POP PUSH1 0x40 MLOAD PUSH4 0xB6B55F25 PUSH1 0xE0 SHL DUP3 DUP3 ADD MSTORE DUP4 DUP2 ADD DUP10 SWAP1 MSTORE DUP4 DUP2 MSTORE PUSH2 0x1540 SWAP3 PUSH2 0x40E DUP3 PUSH2 0x19A5 JUMP JUMPDEST SUB DUP2 PUSH1 0x0 CALLER GAS CALL SWAP1 DUP2 ISZERO PUSH2 0x4FE JUMPI PUSH1 0x0 SWAP2 PUSH2 0x15CD JUMPI JUMPDEST POP ISZERO PUSH2 0x159B JUMPI POP PUSH2 0x156A SWAP1 PUSH2 0x3A9 CALLER PUSH2 0x259E JUMP JUMPDEST SWAP3 PUSH1 0x40 MLOAD SWAP5 DUP6 MSTORE DUP5 ADD MSTORE PUSH1 0x40 DUP4 ADD MSTORE PUSH1 0x0 PUSH1 0x60 DUP4 ADD MSTORE PUSH1 0x80 DUP3 ADD MSTORE PUSH1 0x0 DUP1 MLOAD PUSH1 0x20 PUSH2 0x260D DUP4 CODECOPY DUP2 MLOAD SWAP2 MSTORE PUSH1 0xA0 CALLER SWAP3 LOG3 STOP JUMPDEST DUP5 PUSH1 0xC PUSH1 0x64 SWAP3 PUSH1 0x40 MLOAD SWAP3 PUSH3 0x461BCD PUSH1 0xE5 SHL DUP5 MSTORE PUSH1 0x4 DUP5 ADD MSTORE DUP3 ADD MSTORE PUSH12 0x14DD185AD94819985A5B1959 PUSH1 0xA2 SHL PUSH1 0x44 DUP3 ADD MSTORE REVERT JUMPDEST SWAP1 POP DUP6 DUP2 DUP2 RETURNDATASIZE DUP4 GT PUSH2 0x15FB JUMPI JUMPDEST PUSH2 0x15E4 DUP2 DUP4 PUSH2 0x19C1 JUMP JUMPDEST DUP2 ADD SUB SLT PUSH2 0x121 JUMPI PUSH2 0x15F5 SWAP1 PUSH2 0x1BA2 JUMP JUMPDEST DUP9 PUSH2 0x1556 JUMP JUMPDEST POP RETURNDATASIZE PUSH2 0x15DA JUMP JUMPDEST SWAP1 SWAP2 POP PUSH1 0x40 MLOAD SWAP2 PUSH4 0xA22CB465 PUSH1 0xE0 SHL DUP10 DUP5 ADD MSTORE DUP5 DUP4 ADD MSTORE PUSH1 0x1 PUSH1 0x44 DUP4 ADD MSTORE PUSH1 0x44 DUP3 MSTORE PUSH1 0x80 DUP3 ADD SWAP1 DUP3 DUP3 LT PUSH8 0xFFFFFFFFFFFFFFFF DUP4 GT OR PUSH2 0x16F9 JUMPI DUP2 DUP10 SWAP2 DUP2 PUSH1 0x40 MSTORE PUSH4 0x468721A7 PUSH1 0xE0 SHL DUP3 MSTORE DUP5 PUSH2 0x165F DUP2 PUSH1 0x7F NOT SWAP4 PUSH1 0x84 DUP3 ADD PUSH2 0x1C14 JUMP JUMPDEST SUB ADD DUP2 PUSH1 0x0 CALLER GAS CALL SWAP2 DUP3 ISZERO PUSH2 0x4FE JUMPI DUP9 SWAP1 PUSH1 0x0 SWAP4 PUSH2 0x16C2 JUMPI JUMPDEST POP POP POP ISZERO PUSH2 0x1688 JUMPI DUP6 DUP10 DUP1 PUSH2 0x1519 JUMP JUMPDEST PUSH1 0x40 MLOAD PUSH3 0x461BCD PUSH1 0xE5 SHL DUP2 MSTORE PUSH1 0x4 DUP2 ADD DUP8 SWAP1 MSTORE PUSH1 0x13 DUP2 DUP5 ADD MSTORE PUSH19 0x13919508185C1C1C9BDD985B0819985A5B1959 PUSH1 0x6A SHL PUSH1 0x44 DUP3 ADD MSTORE PUSH1 0x64 SWAP1 REVERT JUMPDEST SWAP1 DUP1 SWAP3 SWAP4 POP RETURNDATASIZE DUP4 GT PUSH2 0x16F2 JUMPI JUMPDEST PUSH2 0x16D9 DUP2 DUP6 PUSH2 0x19C1 JUMP JUMPDEST DUP2 ADD SUB SLT PUSH2 0x121 JUMPI PUSH2 0x16EA SWAP1 PUSH2 0x1BA2 JUMP JUMPDEST DUP10 DUP8 DUP2 PUSH2 0x1678 JUMP JUMPDEST POP RETURNDATASIZE PUSH2 0x16CF JUMP JUMPDEST DUP5 PUSH4 0x4E487B71 PUSH1 0xE0 SHL PUSH1 0x0 MSTORE PUSH1 0x41 PUSH1 0x4 MSTORE PUSH1 0x0 REVERT JUMPDEST DUP5 DUP2 SWAP6 SWAP3 POP RETURNDATASIZE DUP4 GT PUSH2 0x173D JUMPI JUMPDEST PUSH2 0x1725 DUP2 DUP4 PUSH2 0x19C1 JUMP JUMPDEST DUP2 ADD SUB SLT PUSH2 0x121 JUMPI PUSH2 0x1737 DUP10 SWAP4 PUSH2 0x1BA2 JUMP JUMPDEST DUP13 PUSH2 0x1512 JUMP JUMPDEST POP RETURNDATASIZE PUSH2 0x171B JUMP JUMPDEST PUSH2 0x1752 SWAP2 PUSH2 0x594 SWAP2 CALLER PUSH2 0x1ED4 JUMP JUMPDEST DUP10 DUP15 PUSH2 0x14E2 JUMP JUMPDEST PUSH2 0x1767 SWAP2 PUSH2 0x5AE SWAP2 CALLER PUSH2 0x1ED4 JUMP JUMPDEST DUP11 CODESIZE PUSH2 0x14DA JUMP JUMPDEST PUSH2 0x178C SWAP3 SWAP11 POP PUSH1 0x44 SWAP6 SWAP5 SWAP4 SWAP10 POP DUP1 RETURNDATASIZE LT PUSH2 0x669 JUMPI PUSH2 0x64C DUP2 DUP4 PUSH2 0x19C1 JUMP JUMPDEST POP POP POP POP POP POP POP POP SWAP10 SWAP3 POP SWAP1 POP SWAP8 SWAP9 SWAP1 SWAP2 SWAP3 SWAP4 DUP14 PUSH2 0x14BC JUMP JUMPDEST PUSH1 0x40 MLOAD PUSH3 0x461BCD PUSH1 0xE5 SHL DUP2 MSTORE PUSH1 0x4 DUP2 ADD DUP8 SWAP1 MSTORE PUSH1 0x17 DUP2 DUP5 ADD MSTORE PUSH32 0x506F736974696F6E20616C7265616479207374616B6564000000000000000000 PUSH1 0x44 DUP3 ADD MSTORE PUSH1 0x64 SWAP1 REVERT JUMPDEST SWAP1 POP DUP7 DUP2 DUP2 RETURNDATASIZE DUP4 GT PUSH2 0x1817 JUMPI JUMPDEST PUSH2 0x1800 DUP2 DUP4 PUSH2 0x19C1 JUMP JUMPDEST DUP2 ADD SUB SLT PUSH2 0x121 JUMPI PUSH2 0x1811 SWAP1 PUSH2 0x1BA2 JUMP JUMPDEST DUP10 PUSH2 0x147A JUMP JUMPDEST POP RETURNDATASIZE PUSH2 0x17F6 JUMP JUMPDEST SWAP1 SWAP2 POP DUP5 DUP2 DUP2 RETURNDATASIZE DUP4 GT PUSH2 0x184E JUMPI JUMPDEST PUSH2 0x1836 DUP2 DUP4 PUSH2 0x19C1 JUMP JUMPDEST DUP2 ADD SUB SLT PUSH2 0x121 JUMPI PUSH2 0x1847 SWAP1 PUSH2 0x1B8E JUMP JUMPDEST SWAP1 DUP8 PUSH2 0x1440 JUMP JUMPDEST POP RETURNDATASIZE PUSH2 0x182C JUMP JUMPDEST SWAP1 SWAP2 POP DUP4 DUP2 DUP2 RETURNDATASIZE DUP4 GT PUSH2 0x1885 JUMPI JUMPDEST PUSH2 0x186D DUP2 DUP4 PUSH2 0x19C1 JUMP JUMPDEST DUP2 ADD SUB SLT PUSH2 0x121 JUMPI PUSH2 0x187E SWAP1 PUSH2 0x1B8E JUMP JUMPDEST SWAP1 DUP7 PUSH2 0x141A JUMP JUMPDEST POP RETURNDATASIZE PUSH2 0x1863 JUMP JUMPDEST CALLVALUE PUSH2 0x121 JUMPI PUSH1 0x20 CALLDATASIZE PUSH1 0x3 NOT ADD SLT PUSH2 0x121 JUMPI PUSH1 0x4 CALLDATALOAD PUSH2 0x18A8 PUSH2 0x1AD1 JUMP JUMPDEST PUSH2 0x3E8 DUP2 GT PUSH2 0x18EA JUMPI PUSH1 0x40 PUSH32 0xDDD31550B26E9EF8ADE466958BE83FF8A014D9B4F36D546B61A6847A45306575 SWAP2 PUSH1 0x5 SLOAD SWAP1 DUP1 PUSH1 0x5 SSTORE DUP3 MLOAD SWAP2 DUP3 MSTORE PUSH1 0x20 DUP3 ADD MSTORE LOG1 STOP JUMPDEST PUSH1 0x40 MLOAD PUSH3 0x461BCD PUSH1 0xE5 SHL DUP2 MSTORE PUSH1 0x20 PUSH1 0x4 DUP3 ADD MSTORE PUSH1 0x11 PUSH1 0x24 DUP3 ADD MSTORE PUSH17 0xA6D8D2E0E0C2CECA40E8DEDE40D0D2CED PUSH1 0x7B SHL PUSH1 0x44 DUP3 ADD MSTORE PUSH1 0x64 SWAP1 REVERT JUMPDEST PUSH1 0x4 CALLDATALOAD SWAP1 PUSH1 0x1 PUSH1 0x1 PUSH1 0xA0 SHL SUB DUP3 AND DUP3 SUB PUSH2 0x121 JUMPI JUMP JUMPDEST PUSH1 0x24 CALLDATALOAD SWAP1 PUSH1 0x1 PUSH1 0x1 PUSH1 0xA0 SHL SUB DUP3 AND DUP3 SUB PUSH2 0x121 JUMPI JUMP JUMPDEST SWAP1 PUSH1 0x1 DUP3 DUP2 SHR SWAP3 AND DUP1 ISZERO PUSH2 0x197F JUMPI JUMPDEST PUSH1 0x20 DUP4 LT EQ PUSH2 0x1969 JUMPI JUMP JUMPDEST PUSH4 0x4E487B71 PUSH1 0xE0 SHL PUSH1 0x0 MSTORE PUSH1 0x22 PUSH1 0x4 MSTORE PUSH1 0x24 PUSH1 0x0 REVERT JUMPDEST SWAP2 PUSH1 0x7F AND SWAP2 PUSH2 0x195E JUMP JUMPDEST PUSH1 0xA0 DUP2 ADD SWAP1 DUP2 LT PUSH8 0xFFFFFFFFFFFFFFFF DUP3 GT OR PUSH2 0xB52 JUMPI PUSH1 0x40 MSTORE JUMP JUMPDEST PUSH1 0x60 DUP2 ADD SWAP1 DUP2 LT PUSH8 0xFFFFFFFFFFFFFFFF DUP3 GT OR PUSH2 0xB52 JUMPI PUSH1 0x40 MSTORE JUMP JUMPDEST SWAP1 PUSH1 0x1F DUP1 NOT SWAP2 ADD AND DUP2 ADD SWAP1 DUP2 LT PUSH8 0xFFFFFFFFFFFFFFFF DUP3 GT OR PUSH2 0xB52 JUMPI PUSH1 0x40 MSTORE JUMP JUMPDEST SWAP1 PUSH1 0x40 MLOAD SWAP2 DUP3 PUSH1 0x0 DUP3 SLOAD SWAP3 PUSH2 0x19F7 DUP5 PUSH2 0x194F JUMP JUMPDEST SWAP1 DUP2 DUP5 MSTORE PUSH1 0x1 SWAP5 DUP6 DUP2 AND SWAP1 DUP2 PUSH1 0x0 EQ PUSH2 0x1A66 JUMPI POP PUSH1 0x1 EQ PUSH2 0x1A23 JUMPI JUMPDEST POP POP PUSH2 0x1A21 SWAP3 POP SUB DUP4 PUSH2 0x19C1 JUMP JUMPDEST JUMP JUMPDEST SWAP1 SWAP4 SWAP2 POP PUSH1 0x0 MSTORE PUSH1 0x20 SWAP1 DUP2 PUSH1 0x0 KECCAK256 SWAP4 PUSH1 0x0 SWAP2 JUMPDEST DUP2 DUP4 LT PUSH2 0x1A4E JUMPI POP POP PUSH2 0x1A21 SWAP4 POP DUP3 ADD ADD CODESIZE DUP1 PUSH2 0x1A13 JUMP JUMPDEST DUP6 SLOAD DUP9 DUP5 ADD DUP6 ADD MSTORE SWAP5 DUP6 ADD SWAP5 DUP8 SWAP5 POP SWAP2 DUP4 ADD SWAP2 PUSH2 0x1A36 JUMP JUMPDEST SWAP2 POP POP PUSH2 0x1A21 SWAP5 POP PUSH1 0x20 SWAP3 POP PUSH1 0xFF NOT AND DUP3 DUP5 ADD MSTORE ISZERO ISZERO PUSH1 0x5 SHL DUP3 ADD ADD CODESIZE DUP1 PUSH2 0x1A13 JUMP JUMPDEST PUSH1 0x0 JUMPDEST DUP4 DUP2 LT PUSH2 0x1A9C JUMPI POP POP PUSH1 0x0 SWAP2 ADD MSTORE JUMP JUMPDEST DUP2 DUP2 ADD MLOAD DUP4 DUP3 ADD MSTORE PUSH1 0x20 ADD PUSH2 0x1A8C JUMP JUMPDEST SWAP1 PUSH1 0x20 SWAP2 PUSH2 0x1AC5 DUP2 MLOAD DUP1 SWAP3 DUP2 DUP6 MSTORE DUP6 DUP1 DUP7 ADD SWAP2 ADD PUSH2 0x1A89 JUMP JUMPDEST PUSH1 0x1F ADD PUSH1 0x1F NOT AND ADD ADD SWAP1 JUMP JUMPDEST PUSH1 0x0 SLOAD PUSH1 0x1 PUSH1 0x1 PUSH1 0xA0 SHL SUB AND CALLER SUB PUSH2 0x1AE5 JUMPI JUMP JUMPDEST PUSH1 0x40 MLOAD PUSH4 0x118CDAA7 PUSH1 0xE0 SHL DUP2 MSTORE CALLER PUSH1 0x4 DUP3 ADD MSTORE PUSH1 0x24 SWAP1 REVERT JUMPDEST ISZERO PUSH2 0x1B04 JUMPI JUMP JUMPDEST PUSH1 0x40 MLOAD PUSH3 0x461BCD PUSH1 0xE5 SHL DUP2 MSTORE PUSH1 0x20 PUSH1 0x4 DUP3 ADD MSTORE PUSH1 0xC PUSH1 0x24 DUP3 ADD MSTORE PUSH12 0x125B9D985B1A59081C1BDBDB PUSH1 0xA2 SHL PUSH1 0x44 DUP3 ADD MSTORE PUSH1 0x64 SWAP1 REVERT JUMPDEST ISZERO PUSH2 0x1B3F JUMPI JUMP JUMPDEST PUSH1 0x40 MLOAD PUSH3 0x461BCD PUSH1 0xE5 SHL DUP2 MSTORE PUSH1 0x20 PUSH1 0x4 DUP3 ADD MSTORE PUSH1 0x21 PUSH1 0x24 DUP3 ADD MSTORE PUSH32 0x506F6F6C206E6F7420617070726F76656420666F722074686973206D6F64756C PUSH1 0x44 DUP3 ADD MSTORE PUSH1 0x65 PUSH1 0xF8 SHL PUSH1 0x64 DUP3 ADD MSTORE PUSH1 0x84 SWAP1 REVERT JUMPDEST MLOAD SWAP1 PUSH1 0x1 PUSH1 0x1 PUSH1 0xA0 SHL SUB DUP3 AND DUP3 SUB PUSH2 0x121 JUMPI JUMP JUMPDEST MLOAD SWAP1 DUP2 ISZERO ISZERO DUP3 SUB PUSH2 0x121 JUMPI JUMP JUMPDEST ISZERO PUSH2 0x1BB6 JUMPI JUMP JUMPDEST PUSH1 0x40 MLOAD PUSH3 0x461BCD PUSH1 0xE5 SHL DUP2 MSTORE PUSH1 0x20 PUSH1 0x4 DUP3 ADD MSTORE PUSH1 0x13 PUSH1 0x24 DUP3 ADD MSTORE PUSH19 0x141BDCDA5D1A5BDB881B9BDD081CDD185AD959 PUSH1 0x6A SHL PUSH1 0x44 DUP3 ADD MSTORE PUSH1 0x64 SWAP1 REVERT JUMPDEST SWAP2 SWAP1 DUP3 SUB SWAP2 DUP3 GT PUSH2 0x1BFE JUMPI JUMP JUMPDEST PUSH4 0x4E487B71 PUSH1 0xE0 SHL PUSH1 0x0 MSTORE PUSH1 0x11 PUSH1 0x4 MSTORE PUSH1 0x24 PUSH1 0x0 REVERT JUMPDEST SWAP3 SWAP2 PUSH2 0x1C40 PUSH1 0x60 SWAP2 PUSH1 0x0 SWAP4 PUSH1 0x1 DUP1 PUSH1 0xA0 SHL SUB AND DUP7 MSTORE DUP4 PUSH1 0x20 DUP8 ADD MSTORE PUSH1 0x80 PUSH1 0x40 DUP8 ADD MSTORE PUSH1 0x80 DUP7 ADD SWAP1 PUSH2 0x1AAC JUMP JUMPDEST SWAP4 ADD MSTORE JUMP JUMPDEST ISZERO PUSH2 0x1C4C JUMPI JUMP JUMPDEST PUSH1 0x40 MLOAD PUSH3 0x461BCD PUSH1 0xE5 SHL DUP2 MSTORE PUSH1 0x20 PUSH1 0x4 DUP3 ADD MSTORE PUSH1 0x15 PUSH1 0x24 DUP3 ADD MSTORE PUSH21 0x14DDD85C081D1BC81CDD18589B194819985A5B1959 PUSH1 0x5A SHL PUSH1 0x44 DUP3 ADD MSTORE PUSH1 0x64 SWAP1 REVERT JUMPDEST SWAP2 PUSH1 0x1 PUSH1 0x1 PUSH1 0xA0 SHL SUB SWAP2 DUP1 DUP4 AND SWAP2 DUP3 ISZERO PUSH2 0x1E9F JUMPI PUSH1 0x40 DUP1 MLOAD PUSH4 0xC69DEEC5 PUSH1 0xE0 SHL DUP2 MSTORE DUP6 DUP8 AND PUSH1 0x1 PUSH1 0x1 PUSH1 0xA0 SHL SUB DUP2 AND PUSH1 0x4 DUP4 ADD MSTORE PUSH1 0x24 DUP3 ADD DUP5 SWAP1 MSTORE PUSH1 0x20 SWAP5 SWAP3 SWAP4 SWAP3 SWAP1 SWAP2 DUP6 DUP2 PUSH1 0x44 DUP2 DUP11 GAS STATICCALL DUP1 ISZERO PUSH2 0x1E94 JUMPI PUSH1 0x0 SWAP1 PUSH2 0x1E5E JUMPI JUMPDEST PUSH2 0x1CEC SWAP2 POP PUSH2 0x1BAF JUMP JUMPDEST DUP4 MLOAD PUSH4 0x3E491D47 PUSH1 0xE0 SHL DUP2 MSTORE PUSH1 0x1 PUSH1 0x1 PUSH1 0xA0 SHL SUB DUP4 AND PUSH1 0x4 DUP3 ADD MSTORE PUSH1 0x24 DUP2 ADD DUP5 SWAP1 MSTORE SWAP6 DUP6 SWAP1 DUP8 SWAP1 PUSH1 0x44 SWAP1 DUP3 SWAP1 GAS STATICCALL SWAP6 DUP7 ISZERO PUSH2 0x1E53 JUMPI PUSH1 0x0 SWAP7 PUSH2 0x1E24 JUMPI JUMPDEST POP SWAP2 DUP5 SWAP2 PUSH2 0x1D6F SWAP4 DUP6 MLOAD SWAP3 PUSH4 0x2E1A7D4D PUSH1 0xE0 SHL DUP6 DUP6 ADD MSTORE PUSH1 0x24 DUP5 ADD MSTORE PUSH1 0x24 DUP4 MSTORE PUSH2 0x1D52 DUP4 PUSH2 0x19A5 JUMP JUMPDEST PUSH1 0x0 DUP7 MLOAD DUP1 SWAP7 DUP2 SWAP6 DUP3 SWAP5 PUSH4 0x468721A7 PUSH1 0xE0 SHL DUP5 MSTORE PUSH1 0x4 DUP5 ADD PUSH2 0x1C14 JUMP JUMPDEST SUB SWAP3 GAS CALL SWAP1 DUP2 ISZERO PUSH2 0x1E19 JUMPI PUSH1 0x0 SWAP2 PUSH2 0x1DE1 JUMPI JUMPDEST POP ISZERO PUSH2 0x1DA6 JUMPI POP POP DUP1 PUSH2 0x1D94 JUMPI POP POP POP JUMP JUMPDEST PUSH2 0x1A21 SWAP3 PUSH2 0x473 SWAP3 PUSH1 0x1 SLOAD AND SWAP1 PUSH2 0x1ED4 JUMP JUMPDEST PUSH1 0x64 SWAP3 POP MLOAD SWAP1 PUSH3 0x461BCD PUSH1 0xE5 SHL DUP3 MSTORE PUSH1 0x4 DUP3 ADD MSTORE PUSH1 0x15 PUSH1 0x24 DUP3 ADD MSTORE PUSH21 0x11D85D59D9481DDA5D1A191C985DC819985A5B1959 PUSH1 0x5A SHL PUSH1 0x44 DUP3 ADD MSTORE REVERT JUMPDEST SWAP1 DUP4 DUP3 DUP2 RETURNDATASIZE DUP4 GT PUSH2 0x1E12 JUMPI JUMPDEST PUSH2 0x1DF7 DUP2 DUP4 PUSH2 0x19C1 JUMP JUMPDEST DUP2 ADD SUB SLT PUSH2 0x1E0F JUMPI POP PUSH2 0x1E09 SWAP1 PUSH2 0x1BA2 JUMP JUMPDEST CODESIZE PUSH2 0x1D82 JUMP JUMPDEST DUP1 REVERT JUMPDEST POP RETURNDATASIZE PUSH2 0x1DED JUMP JUMPDEST DUP3 MLOAD RETURNDATASIZE PUSH1 0x0 DUP3 RETURNDATACOPY RETURNDATASIZE SWAP1 REVERT JUMPDEST SWAP1 SWAP6 DUP6 DUP3 DUP2 RETURNDATASIZE DUP4 GT PUSH2 0x1E4C JUMPI JUMPDEST PUSH2 0x1E3B DUP2 DUP4 PUSH2 0x19C1 JUMP JUMPDEST DUP2 ADD SUB SLT PUSH2 0x1E0F JUMPI POP MLOAD SWAP5 DUP5 PUSH2 0x1D29 JUMP JUMPDEST POP RETURNDATASIZE PUSH2 0x1E31 JUMP JUMPDEST DUP5 MLOAD RETURNDATASIZE PUSH1 0x0 DUP3 RETURNDATACOPY RETURNDATASIZE SWAP1 REVERT JUMPDEST DUP7 DUP3 DUP2 RETURNDATASIZE DUP4 GT PUSH2 0x1E8D JUMPI JUMPDEST PUSH2 0x1E73 DUP2 DUP4 PUSH2 0x19C1 JUMP JUMPDEST DUP2 ADD SUB SLT PUSH2 0x1E0F JUMPI POP PUSH2 0x1E88 PUSH2 0x1CEC SWAP2 PUSH2 0x1BA2 JUMP JUMPDEST PUSH2 0x1CE2 JUMP JUMPDEST POP RETURNDATASIZE PUSH2 0x1E69 JUMP JUMPDEST DUP6 MLOAD RETURNDATASIZE PUSH1 0x0 DUP3 RETURNDATACOPY RETURNDATASIZE SWAP1 REVERT JUMPDEST PUSH1 0x40 MLOAD PUSH3 0x461BCD PUSH1 0xE5 SHL DUP2 MSTORE PUSH1 0x20 PUSH1 0x4 DUP3 ADD MSTORE PUSH1 0xD PUSH1 0x24 DUP3 ADD MSTORE PUSH13 0x496E76616C6964206761756765 PUSH1 0x98 SHL PUSH1 0x44 DUP3 ADD MSTORE PUSH1 0x64 SWAP1 REVERT JUMPDEST SWAP2 DUP1 ISZERO PUSH2 0x2203 JUMPI PUSH1 0x2 SLOAD PUSH1 0x1 PUSH1 0x1 PUSH1 0xA0 SHL SUB SWAP4 SWAP1 DUP5 AND DUP4 DUP6 AND DUP2 EQ PUSH2 0x21F9 JUMPI PUSH2 0x1EFD SWAP1 DUP5 PUSH2 0x220B JUMP JUMPDEST DUP5 PUSH1 0x3 SLOAD AND SWAP2 PUSH1 0x40 SWAP6 DUP7 MLOAD SWAP2 PUSH1 0x20 SWAP5 PUSH4 0x95EA7B3 PUSH1 0xE0 SHL DUP7 DUP6 ADD MSTORE DUP3 DUP5 PUSH2 0x1F3E DUP10 PUSH1 0x24 SWAP5 DUP6 DUP5 ADD PUSH1 0x20 SWAP1 SWAP4 SWAP3 SWAP2 SWAP4 PUSH1 0x40 DUP2 ADD SWAP5 PUSH1 0x1 DUP1 PUSH1 0xA0 SHL SUB AND DUP2 MSTORE ADD MSTORE JUMP JUMPDEST SUB SWAP3 PUSH2 0x1F52 PUSH1 0x1F NOT SWAP5 DUP6 DUP2 ADD DUP9 MSTORE DUP8 PUSH2 0x19C1 JUMP JUMPDEST AND SWAP5 DUP10 MLOAD SWAP8 PUSH4 0x468721A7 PUSH1 0xE0 SHL SWAP10 DUP11 DUP11 MSTORE DUP10 DUP10 DUP2 DUP1 PUSH2 0x1F76 PUSH1 0x4 SWAP12 DUP7 DUP14 DUP5 ADD PUSH2 0x1C14 JUMP JUMPDEST SUB PUSH1 0x0 SWAP14 DUP15 DUP14 GAS CALL SWAP1 DUP2 ISZERO PUSH2 0x21EF JUMPI DUP12 SWAP2 PUSH2 0x21B6 JUMPI JUMPDEST POP ISZERO PUSH2 0x217C JUMPI SWAP1 DUP9 PUSH2 0x1FA6 PUSH2 0x1FCE SWAP4 DUP9 PUSH1 0x2 SLOAD AND SWAP1 PUSH2 0x220B JUMP JUMPDEST DUP14 DUP9 DUP11 SLOAD AND SWAP1 DUP14 DUP12 DUP3 MLOAD SWAP8 DUP9 SWAP6 DUP7 SWAP5 DUP6 SWAP4 PUSH4 0xCDCA1753 PUSH1 0xE0 SHL DUP6 MSTORE DUP5 ADD MSTORE PUSH1 0x44 DUP4 ADD SWAP1 PUSH2 0x1AAC JUMP JUMPDEST DUP8 DUP12 DUP4 ADD MSTORE SUB SWAP3 GAS CALL SWAP2 DUP3 ISZERO PUSH2 0x2172 JUMPI DUP11 SWAP3 PUSH2 0x213F JUMPI JUMPDEST POP PUSH1 0x5 SLOAD SWAP3 PUSH2 0x2710 SWAP4 DUP5 SUB SWAP3 DUP5 DUP5 GT PUSH2 0x211B JUMPI DUP4 DUP2 MUL SWAP4 DUP2 DUP6 DIV EQ SWAP1 ISZERO OR ISZERO PUSH2 0x212D JUMPI PUSH2 0x12C TIMESTAMP ADD SWAP1 DUP2 TIMESTAMP GT PUSH2 0x211B JUMPI SWAP3 DUP12 SWAP6 SWAP3 DUP9 SWAP6 SWAP3 DUP16 SWAP10 DUP14 SWAP13 SWAP11 SWAP7 DUP8 DUP15 SWAP14 SWAP12 SWAP9 MLOAD SWAP2 PUSH2 0x2032 DUP4 PUSH2 0x1989 JUMP JUMPDEST DUP3 MSTORE DUP14 DUP3 ADD SWAP7 DUP14 DUP9 MSTORE DUP2 DUP4 ADD SWAP5 DUP6 MSTORE PUSH1 0x60 DUP4 ADD SWAP6 DUP7 MSTORE PUSH1 0x80 DUP4 ADD SWAP7 DIV DUP7 MSTORE MLOAD SWAP13 DUP14 SWAP8 PUSH4 0xC04B8D59 PUSH1 0xE0 SHL DUP3 DUP11 ADD MSTORE DUP9 ADD MSTORE MLOAD PUSH1 0x44 DUP8 ADD PUSH1 0xA0 SWAP1 MSTORE PUSH1 0xE4 DUP8 ADD PUSH2 0x2079 SWAP2 PUSH2 0x1AAC JUMP JUMPDEST SWAP5 MLOAD AND PUSH1 0x64 DUP7 ADD MSTORE MLOAD PUSH1 0x84 DUP6 ADD MSTORE MLOAD PUSH1 0xA4 DUP5 ADD MSTORE MLOAD PUSH1 0xC4 DUP4 ADD MSTORE SUB SWAP1 DUP2 ADD DUP7 MSTORE PUSH2 0x20A3 SWAP1 DUP7 PUSH2 0x19C1 JUMP JUMPDEST PUSH1 0x3 SLOAD DUP11 MLOAD SWAP10 DUP11 MSTORE DUP10 SWAP6 DUP7 SWAP5 DUP6 SWAP4 PUSH2 0x20BE SWAP4 AND SWAP1 DUP5 ADD PUSH2 0x1C14 JUMP JUMPDEST SUB SWAP3 GAS CALL SWAP4 DUP5 ISZERO PUSH2 0x2110 JUMPI POP DUP2 SWAP4 PUSH2 0x20D7 JUMPI JUMPDEST POP POP POP SWAP1 JUMP JUMPDEST SWAP1 SWAP2 DUP1 SWAP4 POP DUP2 RETURNDATASIZE DUP4 GT PUSH2 0x2109 JUMPI JUMPDEST PUSH2 0x20EF DUP2 DUP4 PUSH2 0x19C1 JUMP JUMPDEST DUP2 ADD SUB SLT PUSH2 0x1E0F JUMPI POP PUSH2 0x2101 SWAP1 PUSH2 0x1BA2 JUMP JUMPDEST CODESIZE DUP1 DUP1 PUSH2 0x20D1 JUMP JUMPDEST POP RETURNDATASIZE PUSH2 0x20E5 JUMP JUMPDEST MLOAD SWAP2 RETURNDATASIZE SWAP2 POP DUP3 RETURNDATACOPY RETURNDATASIZE SWAP1 REVERT JUMPDEST PUSH4 0x4E487B71 PUSH1 0xE0 SHL DUP13 MSTORE PUSH1 0x11 DUP10 MSTORE DUP6 DUP13 REVERT JUMPDEST PUSH4 0x4E487B71 PUSH1 0xE0 SHL DUP12 MSTORE PUSH1 0x11 DUP9 MSTORE DUP5 DUP12 REVERT JUMPDEST SWAP1 SWAP2 POP DUP9 DUP2 DUP2 RETURNDATASIZE DUP4 GT PUSH2 0x216B JUMPI JUMPDEST PUSH2 0x2157 DUP2 DUP4 PUSH2 0x19C1 JUMP JUMPDEST DUP2 ADD SUB SLT PUSH2 0x2167 JUMPI MLOAD SWAP1 CODESIZE PUSH2 0x1FE5 JUMP JUMPDEST DUP10 DUP1 REVERT JUMPDEST POP RETURNDATASIZE PUSH2 0x214D JUMP JUMPDEST DUP13 MLOAD RETURNDATASIZE DUP13 DUP3 RETURNDATACOPY RETURNDATASIZE SWAP1 REVERT JUMPDEST POP DUP11 MLOAD PUSH3 0x461BCD PUSH1 0xE5 SHL DUP2 MSTORE DUP1 DUP8 ADD DUP10 SWAP1 MSTORE PUSH1 0x14 DUP2 DUP6 ADD MSTORE PUSH20 0x151BDAD95B88185C1C1C9BDD994819985A5B1959 PUSH1 0x62 SHL PUSH1 0x44 DUP3 ADD MSTORE PUSH1 0x64 SWAP1 REVERT JUMPDEST SWAP1 POP DUP10 DUP2 DUP2 RETURNDATASIZE DUP4 GT PUSH2 0x21E8 JUMPI JUMPDEST PUSH2 0x21CD DUP2 DUP4 PUSH2 0x19C1 JUMP JUMPDEST DUP2 ADD SUB SLT PUSH2 0x21E4 JUMPI PUSH2 0x21DE SWAP1 PUSH2 0x1BA2 JUMP JUMPDEST CODESIZE PUSH2 0x1F8C JUMP JUMPDEST DUP11 DUP1 REVERT JUMPDEST POP RETURNDATASIZE PUSH2 0x21C3 JUMP JUMPDEST DUP14 MLOAD RETURNDATASIZE DUP14 DUP3 RETURNDATACOPY RETURNDATASIZE SWAP1 REVERT JUMPDEST POP POP POP POP POP PUSH1 0x1 SWAP1 JUMP JUMPDEST POP POP POP PUSH1 0x1 SWAP1 JUMP JUMPDEST PUSH1 0x1 DUP1 PUSH1 0xA0 SHL SUB DUP1 SWAP2 AND PUSH1 0x0 MSTORE PUSH1 0x7 PUSH1 0x20 MSTORE PUSH1 0x40 PUSH1 0x0 KECCAK256 SWAP2 AND PUSH1 0x0 MSTORE PUSH1 0x20 MSTORE PUSH2 0x2237 PUSH1 0x40 PUSH1 0x0 KECCAK256 PUSH2 0x19E3 JUMP JUMPDEST SWAP1 DUP2 MLOAD ISZERO PUSH2 0x2241 JUMPI JUMP JUMPDEST PUSH1 0x40 MLOAD PUSH3 0x461BCD PUSH1 0xE5 SHL DUP2 MSTORE PUSH1 0x20 PUSH1 0x4 DUP3 ADD MSTORE PUSH1 0x11 PUSH1 0x24 DUP3 ADD MSTORE PUSH17 0x14DDD85C081C185D1A081B9BDD081CD95D PUSH1 0x7A SHL PUSH1 0x44 DUP3 ADD MSTORE PUSH1 0x64 SWAP1 REVERT JUMPDEST MLOAD SWAP1 DUP2 PUSH1 0x2 SIGNEXTEND DUP3 SUB PUSH2 0x121 JUMPI JUMP JUMPDEST MLOAD SWAP1 PUSH1 0x1 PUSH1 0x1 PUSH1 0x80 SHL SUB DUP3 AND DUP3 SUB PUSH2 0x121 JUMPI JUMP JUMPDEST SWAP2 SWAP1 DUP3 PUSH2 0x180 SWAP2 SUB SLT PUSH2 0x121 JUMPI DUP2 MLOAD PUSH1 0x1 PUSH1 0x1 PUSH1 0x60 SHL SUB DUP2 AND DUP2 SUB PUSH2 0x121 JUMPI SWAP2 PUSH2 0x22C8 PUSH1 0x20 DUP3 ADD PUSH2 0x1B8E JUMP JUMPDEST SWAP2 PUSH2 0x22D5 PUSH1 0x40 DUP4 ADD PUSH2 0x1B8E JUMP JUMPDEST SWAP2 PUSH2 0x22E2 PUSH1 0x60 DUP3 ADD PUSH2 0x1B8E JUMP JUMPDEST SWAP2 PUSH2 0x22EF PUSH1 0x80 DUP4 ADD PUSH2 0x227A JUMP JUMPDEST SWAP2 PUSH2 0x22FC PUSH1 0xA0 DUP3 ADD PUSH2 0x227A JUMP JUMPDEST SWAP2 PUSH2 0x2309 PUSH1 0xC0 DUP4 ADD PUSH2 0x227A JUMP JUMPDEST SWAP2 PUSH2 0x2316 PUSH1 0xE0 DUP3 ADD PUSH2 0x2288 JUMP JUMPDEST SWAP2 PUSH2 0x100 DUP3 ADD MLOAD SWAP2 PUSH2 0x120 DUP2 ADD MLOAD SWAP2 PUSH2 0x233F PUSH2 0x160 PUSH2 0x2338 PUSH2 0x140 DUP6 ADD PUSH2 0x2288 JUMP JUMPDEST SWAP4 ADD PUSH2 0x2288 JUMP JUMPDEST SWAP1 JUMP JUMPDEST ISZERO PUSH2 0x2349 JUMPI JUMP JUMPDEST PUSH1 0x40 MLOAD PUSH3 0x461BCD PUSH1 0xE5 SHL DUP2 MSTORE PUSH1 0x20 PUSH1 0x4 DUP3 ADD MSTORE PUSH1 0x12 PUSH1 0x24 DUP3 ADD MSTORE PUSH18 0x151BDAD95B8C081CDDD85C0819985A5B1959 PUSH1 0x72 SHL PUSH1 0x44 DUP3 ADD MSTORE PUSH1 0x64 SWAP1 REVERT JUMPDEST ISZERO PUSH2 0x238A JUMPI JUMP JUMPDEST PUSH1 0x40 MLOAD PUSH3 0x461BCD PUSH1 0xE5 SHL DUP2 MSTORE PUSH1 0x20 PUSH1 0x4 DUP3 ADD MSTORE PUSH1 0x12 PUSH1 0x24 DUP3 ADD MSTORE PUSH18 0x151BDAD95B8C481CDDD85C0819985A5B1959 PUSH1 0x72 SHL PUSH1 0x44 DUP3 ADD MSTORE PUSH1 0x64 SWAP1 REVERT JUMPDEST PUSH1 0x40 DUP1 MLOAD SWAP4 SWAP1 SWAP3 PUSH1 0x1 PUSH1 0x1 PUSH1 0xA0 SHL SUB SWAP3 SWAP1 SWAP2 PUSH8 0xFFFFFFFFFFFFFFFF SWAP2 DUP5 AND SWAP1 PUSH1 0x80 DUP8 ADD DUP4 DUP2 GT DUP9 DUP3 LT OR PUSH2 0xB52 JUMPI DUP7 MSTORE DUP7 MSTORE PUSH1 0x20 SWAP4 DUP5 DUP8 ADD DUP3 DUP2 MSTORE DUP7 DUP9 ADD SWAP2 PUSH1 0x1 PUSH1 0x1 PUSH1 0x80 SHL SUB SWAP3 DUP4 SWAP2 DUP3 DUP3 MSTORE PUSH1 0x60 DUP12 ADD SWAP4 DUP4 DUP6 MSTORE DUP11 MLOAD SWAP12 DUP13 DUP12 PUSH4 0xFC6F7865 PUSH1 0xE0 SHL SWAP2 ADD MSTORE MLOAD PUSH1 0x24 DUP14 ADD MSTORE MLOAD AND PUSH1 0x44 DUP12 ADD MSTORE MLOAD AND PUSH1 0x64 DUP10 ADD MSTORE MLOAD AND PUSH1 0x84 DUP8 ADD MSTORE PUSH1 0x84 DUP7 MSTORE PUSH1 0xC0 DUP7 ADD SWAP3 DUP7 DUP5 LT DUP4 DUP6 GT OR PUSH2 0xB52 JUMPI DUP4 DUP1 SWAP3 DUP2 DUP9 MSTORE PUSH4 0x5229073F PUSH1 0xE0 SHL DUP3 MSTORE PUSH1 0x0 SWAP6 DUP7 DUP1 SWAP5 DUP12 PUSH2 0x2480 DUP2 PUSH1 0xBF NOT SWAP4 PUSH1 0xC4 DUP3 ADD PUSH2 0x1C14 JUMP JUMPDEST SUB ADD SWAP3 GAS CALL SWAP6 DUP7 ISZERO PUSH2 0x2594 JUMPI DUP4 SWAP3 DUP5 SWAP8 PUSH2 0x24E8 JUMPI JUMPDEST POP POP POP ISZERO PUSH2 0x24B4 JUMPI DUP3 DUP5 DUP1 MLOAD DUP2 ADD SUB SLT PUSH2 0x1E0F JUMPI POP DUP3 ADD MLOAD SWAP2 ADD MLOAD SWAP1 SWAP2 JUMP JUMPDEST POP PUSH1 0x64 SWAP2 MLOAD SWAP1 PUSH3 0x461BCD PUSH1 0xE5 SHL DUP3 MSTORE PUSH1 0x4 DUP3 ADD MSTORE PUSH1 0xE PUSH1 0x24 DUP3 ADD MSTORE PUSH14 0x10DBDB1B1958DD0819985A5B1959 PUSH1 0x92 SHL PUSH1 0x44 DUP3 ADD MSTORE REVERT JUMPDEST SWAP2 SWAP7 POP SWAP2 POP RETURNDATASIZE DUP1 DUP5 DUP9 RETURNDATACOPY PUSH2 0x24FC DUP2 DUP9 PUSH2 0x19C1 JUMP JUMPDEST DUP3 ADD SWAP6 DUP6 DUP4 PUSH1 0xC0 DUP10 ADD SWAP9 SUB SLT PUSH2 0x2578 JUMPI PUSH2 0x2515 SWAP1 PUSH2 0x1BA2 JUMP JUMPDEST SWAP2 PUSH1 0xE0 DUP2 ADD MLOAD SWAP1 DUP3 DUP3 GT PUSH2 0x2590 JUMPI ADD DUP7 PUSH1 0xDF DUP3 ADD SLT ISZERO PUSH2 0x2578 JUMPI PUSH1 0xC0 DUP2 ADD MLOAD SWAP2 DUP3 GT PUSH2 0x257C JUMPI DUP6 MLOAD SWAP7 PUSH2 0x2551 PUSH1 0x1F DUP5 ADD PUSH1 0x1F NOT AND DUP8 ADD DUP10 PUSH2 0x19C1 JUMP JUMPDEST DUP3 DUP9 MSTORE PUSH1 0xE0 DUP4 DUP4 ADD ADD GT PUSH2 0x2578 JUMPI SWAP1 PUSH2 0x2570 SWAP2 PUSH1 0xE0 DUP7 DUP10 ADD SWAP2 ADD PUSH2 0x1A89 JUMP JUMPDEST CODESIZE DUP1 DUP1 PUSH2 0x2495 JUMP JUMPDEST DUP4 DUP1 REVERT JUMPDEST PUSH4 0x4E487B71 PUSH1 0xE0 SHL DUP5 MSTORE PUSH1 0x41 PUSH1 0x4 MSTORE PUSH1 0x24 DUP5 REVERT JUMPDEST DUP5 DUP1 REVERT JUMPDEST DUP6 MLOAD RETURNDATASIZE DUP6 DUP3 RETURNDATACOPY RETURNDATASIZE SWAP1 REVERT JUMPDEST PUSH1 0x2 SLOAD PUSH1 0x40 MLOAD PUSH4 0x70A08231 PUSH1 0xE0 SHL DUP2 MSTORE PUSH1 0x1 PUSH1 0x1 PUSH1 0xA0 SHL SUB SWAP3 DUP4 AND PUSH1 0x4 DUP3 ADD MSTORE SWAP2 PUSH1 0x20 SWAP2 DUP4 SWAP2 PUSH1 0x24 SWAP2 DUP4 SWAP2 AND GAS STATICCALL SWAP1 DUP2 ISZERO PUSH2 0x4FE JUMPI PUSH1 0x0 SWAP2 PUSH2 0x25DE JUMPI POP SWAP1 JUMP JUMPDEST SWAP1 PUSH1 0x20 DUP3 RETURNDATASIZE DUP3 GT PUSH2 0x2604 JUMPI JUMPDEST DUP2 PUSH2 0x25F7 PUSH1 0x20 SWAP4 DUP4 PUSH2 0x19C1 JUMP JUMPDEST DUP2 ADD SUB SLT PUSH2 0x1E0F JUMPI POP MLOAD SWAP1 JUMP JUMPDEST RETURNDATASIZE SWAP2 POP PUSH2 0x25EA JUMP INVALID 0xC4 JUMPI 0xDA 0xBB SHR 0xD0 TIMESTAMP 0x2F 0x2D 0x4E 0xE0 0xE3 JUMPDEST 0xED 0x2D ORIGIN 0x4C DUP10 PUSH32 0xF52CA6D0033A86D6A43CE80502A2646970667358221220E0C70EAF42FC6D750F 0xC0 0xCF PUSH15 0x8FEA59A10D6DAFA2F19AED23498DB1 DUP8 0xE MLOAD 0xC0 0xE PUSH5 0x736F6C6343 STOP ADDMOD EQ STOP CALLER "
        },
        "methodIdentifiers": {
          "approvePool(address)": "424c265b",
          "approvedPools(address)": "f0bbcec4",
          "collectAndConvertFees(address,uint256)": "e6370309",
          "owner()": "8da5cb5b",
          "quoter()": "c6bbd5a7",
          "removePool(address)": "3b7d0946",
          "renounceOwnership()": "715018a6",
          "rewardStable()": "f2bf87e3",
          "rewardToken()": "f7c618c1",
          "setRewardStable(address)": "c13d2f75",
          "setRewardToken(address)": "8aee8127",
          "setSlippageTolerance(uint256)": "117da1ee",
          "setSwapPath(address,address,bytes)": "483103a4",
          "slippageTolerance()": "d03153aa",
          "stakeAndCollect(address,uint256)": "31a8f1c9",
          "swapPaths(address,address)": "4a6a749c",
          "swapRouter()": "c31c9c07",
          "transferOwnership(address)": "f2fde38b",
          "unstakeAndCollect(address,uint256)": "4bdc76cc",
          "withdrawAndCollect(address,uint256)": "ac6e07ee"
        }
      }
    }
  }
}