{
  "contracts/CholoDromeModule.sol": {
    "CholoDromeModule": {
      "abi": [
        {
          "inputs": [
            {
              "internalType": "address",
              "name": "_owner",
              "type": "address"
            },
            {
              "internalType": "address",
              "name": "_rewardToken",
              "type": "address"
            },
            {
              "internalType": "address",
              "name": "_rewardStable",
              "type": "address"
            },
            {
              "internalType": "address",
              "name": "_quoter",
              "type": "address"
            },
            {
              "internalType": "address",
              "name": "_swapRouter",
              "type": "address"
            }
          ],
          "stateMutability": "nonpayable",
          "type": "constructor"
        },
        {
          "inputs": [
            {
              "internalType": "address",
              "name": "owner",
              "type": "address"
            }
          ],
          "name": "OwnableInvalidOwner",
          "type": "error"
        },
        {
          "inputs": [
            {
              "internalType": "address",
              "name": "account",
              "type": "address"
            }
          ],
          "name": "OwnableUnauthorizedAccount",
          "type": "error"
        },
        {
          "anonymous": false,
          "inputs": [
            {
              "indexed": true,
              "internalType": "address",
              "name": "safe",
              "type": "address"
            },
            {
              "indexed": true,
              "internalType": "address",
              "name": "manager",
              "type": "address"
            },
            {
              "indexed": false,
              "internalType": "uint256",
              "name": "tokenId",
              "type": "uint256"
            },
            {
              "indexed": false,
              "internalType": "uint256",
              "name": "amount0",
              "type": "uint256"
            },
            {
              "indexed": false,
              "internalType": "uint256",
              "name": "amount1",
              "type": "uint256"
            },
            {
              "indexed": false,
              "internalType": "uint256",
              "name": "veloAmount",
              "type": "uint256"
            },
            {
              "indexed": false,
              "internalType": "uint256",
              "name": "totalUsdtAmount",
              "type": "uint256"
            }
          ],
          "name": "FeesCollectedAndSwapped",
          "type": "event"
        },
        {
          "anonymous": false,
          "inputs": [
            {
              "indexed": true,
              "internalType": "address",
              "name": "safe",
              "type": "address"
            },
            {
              "indexed": true,
              "internalType": "address",
              "name": "manager",
              "type": "address"
            }
          ],
          "name": "ManagerApproved",
          "type": "event"
        },
        {
          "anonymous": false,
          "inputs": [
            {
              "indexed": true,
              "internalType": "address",
              "name": "safe",
              "type": "address"
            },
            {
              "indexed": true,
              "internalType": "address",
              "name": "manager",
              "type": "address"
            }
          ],
          "name": "ManagerRemoved",
          "type": "event"
        },
        {
          "anonymous": false,
          "inputs": [
            {
              "indexed": true,
              "internalType": "address",
              "name": "previousOwner",
              "type": "address"
            },
            {
              "indexed": true,
              "internalType": "address",
              "name": "newOwner",
              "type": "address"
            }
          ],
          "name": "OwnershipTransferred",
          "type": "event"
        },
        {
          "anonymous": false,
          "inputs": [
            {
              "indexed": true,
              "internalType": "address",
              "name": "oldStable",
              "type": "address"
            },
            {
              "indexed": true,
              "internalType": "address",
              "name": "newStable",
              "type": "address"
            }
          ],
          "name": "RewardStableUpdated",
          "type": "event"
        },
        {
          "anonymous": false,
          "inputs": [
            {
              "indexed": true,
              "internalType": "address",
              "name": "oldToken",
              "type": "address"
            },
            {
              "indexed": true,
              "internalType": "address",
              "name": "newToken",
              "type": "address"
            }
          ],
          "name": "RewardTokenUpdated",
          "type": "event"
        },
        {
          "anonymous": false,
          "inputs": [
            {
              "indexed": false,
              "internalType": "uint256",
              "name": "oldTolerance",
              "type": "uint256"
            },
            {
              "indexed": false,
              "internalType": "uint256",
              "name": "newTolerance",
              "type": "uint256"
            }
          ],
          "name": "SlippageToleranceUpdated",
          "type": "event"
        },
        {
          "anonymous": false,
          "inputs": [
            {
              "indexed": true,
              "internalType": "address",
              "name": "safe",
              "type": "address"
            },
            {
              "indexed": true,
              "internalType": "address",
              "name": "manager",
              "type": "address"
            },
            {
              "indexed": false,
              "internalType": "uint256",
              "name": "tokenId",
              "type": "uint256"
            },
            {
              "indexed": false,
              "internalType": "uint256",
              "name": "amount0",
              "type": "uint256"
            },
            {
              "indexed": false,
              "internalType": "uint256",
              "name": "amount1",
              "type": "uint256"
            },
            {
              "indexed": false,
              "internalType": "uint256",
              "name": "veloAmount",
              "type": "uint256"
            },
            {
              "indexed": false,
              "internalType": "uint256",
              "name": "totalUsdtAmount",
              "type": "uint256"
            }
          ],
          "name": "WithdrawAndCollect",
          "type": "event"
        },
        {
          "inputs": [
            {
              "internalType": "address",
              "name": "manager",
              "type": "address"
            }
          ],
          "name": "approveManager",
          "outputs": [],
          "stateMutability": "nonpayable",
          "type": "function"
        },
        {
          "inputs": [
            {
              "internalType": "address",
              "name": "",
              "type": "address"
            }
          ],
          "name": "approvedManagers",
          "outputs": [
            {
              "internalType": "bool",
              "name": "",
              "type": "bool"
            }
          ],
          "stateMutability": "view",
          "type": "function"
        },
        {
          "inputs": [
            {
              "internalType": "address",
              "name": "manager",
              "type": "address"
            },
            {
              "internalType": "uint256[]",
              "name": "tokenIds",
              "type": "uint256[]"
            }
          ],
          "name": "batchCollectAndConvertFees",
          "outputs": [],
          "stateMutability": "nonpayable",
          "type": "function"
        },
        {
          "inputs": [
            {
              "internalType": "address",
              "name": "manager",
              "type": "address"
            },
            {
              "internalType": "uint256[]",
              "name": "tokenIds",
              "type": "uint256[]"
            }
          ],
          "name": "batchWithdrawAndCollect",
          "outputs": [],
          "stateMutability": "nonpayable",
          "type": "function"
        },
        {
          "inputs": [
            {
              "internalType": "address",
              "name": "manager",
              "type": "address"
            },
            {
              "internalType": "uint256",
              "name": "tokenId",
              "type": "uint256"
            }
          ],
          "name": "collectAndConvertFees",
          "outputs": [],
          "stateMutability": "nonpayable",
          "type": "function"
        },
        {
          "inputs": [],
          "name": "owner",
          "outputs": [
            {
              "internalType": "address",
              "name": "",
              "type": "address"
            }
          ],
          "stateMutability": "view",
          "type": "function"
        },
        {
          "inputs": [],
          "name": "quoter",
          "outputs": [
            {
              "internalType": "address",
              "name": "",
              "type": "address"
            }
          ],
          "stateMutability": "view",
          "type": "function"
        },
        {
          "inputs": [
            {
              "internalType": "address",
              "name": "manager",
              "type": "address"
            }
          ],
          "name": "removeManager",
          "outputs": [],
          "stateMutability": "nonpayable",
          "type": "function"
        },
        {
          "inputs": [],
          "name": "renounceOwnership",
          "outputs": [],
          "stateMutability": "nonpayable",
          "type": "function"
        },
        {
          "inputs": [],
          "name": "rewardStable",
          "outputs": [
            {
              "internalType": "address",
              "name": "",
              "type": "address"
            }
          ],
          "stateMutability": "view",
          "type": "function"
        },
        {
          "inputs": [],
          "name": "rewardToken",
          "outputs": [
            {
              "internalType": "address",
              "name": "",
              "type": "address"
            }
          ],
          "stateMutability": "view",
          "type": "function"
        },
        {
          "inputs": [
            {
              "internalType": "address",
              "name": "_newRewardStable",
              "type": "address"
            }
          ],
          "name": "setRewardStable",
          "outputs": [],
          "stateMutability": "nonpayable",
          "type": "function"
        },
        {
          "inputs": [
            {
              "internalType": "address",
              "name": "_newRewardToken",
              "type": "address"
            }
          ],
          "name": "setRewardToken",
          "outputs": [],
          "stateMutability": "nonpayable",
          "type": "function"
        },
        {
          "inputs": [
            {
              "internalType": "uint256",
              "name": "_slippageTolerance",
              "type": "uint256"
            }
          ],
          "name": "setSlippageTolerance",
          "outputs": [],
          "stateMutability": "nonpayable",
          "type": "function"
        },
        {
          "inputs": [
            {
              "internalType": "address",
              "name": "fromToken",
              "type": "address"
            },
            {
              "internalType": "address",
              "name": "toToken",
              "type": "address"
            },
            {
              "internalType": "bytes",
              "name": "path",
              "type": "bytes"
            }
          ],
          "name": "setSwapPath",
          "outputs": [],
          "stateMutability": "nonpayable",
          "type": "function"
        },
        {
          "inputs": [],
          "name": "slippageTolerance",
          "outputs": [
            {
              "internalType": "uint256",
              "name": "",
              "type": "uint256"
            }
          ],
          "stateMutability": "view",
          "type": "function"
        },
        {
          "inputs": [
            {
              "internalType": "address",
              "name": "",
              "type": "address"
            },
            {
              "internalType": "address",
              "name": "",
              "type": "address"
            }
          ],
          "name": "swapPaths",
          "outputs": [
            {
              "internalType": "bytes",
              "name": "",
              "type": "bytes"
            }
          ],
          "stateMutability": "view",
          "type": "function"
        },
        {
          "inputs": [],
          "name": "swapRouter",
          "outputs": [
            {
              "internalType": "address",
              "name": "",
              "type": "address"
            }
          ],
          "stateMutability": "view",
          "type": "function"
        },
        {
          "inputs": [
            {
              "internalType": "address",
              "name": "newOwner",
              "type": "address"
            }
          ],
          "name": "transferOwnership",
          "outputs": [],
          "stateMutability": "nonpayable",
          "type": "function"
        },
        {
          "inputs": [
            {
              "internalType": "address",
              "name": "manager",
              "type": "address"
            },
            {
              "internalType": "uint256",
              "name": "tokenId",
              "type": "uint256"
            }
          ],
          "name": "withdrawAndCollect",
          "outputs": [],
          "stateMutability": "nonpayable",
          "type": "function"
        }
      ],
      "evm": {
        "bytecode": {
          "linkReferences": {},
          "object": "6080346200025657601f6200265c38819003918201601f191683019291906001600160401b038411838510176200025b578160a092849260409687528339810103126200025657620000518162000271565b6200005f6020830162000271565b906200006d84840162000271565b926200008a6080620000826060840162000271565b920162000271565b6001600160a01b039283169390929084156200023e57600080546001600160a01b0319808216881783559684939290918416907f8be0079c531659141344cd1fd0a4f28419497f9722a3daafe3b4186f6b6457e09080a3603260055516948515620001fa578116918215620001b65781169283156200018157169384156200013d578360015416176001558260025416176002558160045416176004556003541617600355516123d59081620002878239f35b855162461bcd60e51b815260206004820152601360248201527f496e76616c6964207377617020726f75746572000000000000000000000000006044820152606490fd5b865162461bcd60e51b815260206004820152600e60248201526d24b73b30b634b21038bab7ba32b960911b6044820152606490fd5b865162461bcd60e51b815260206004820152601560248201527f496e76616c69642072657761726420737461626c6500000000000000000000006044820152606490fd5b865162461bcd60e51b815260206004820152601460248201527f496e76616c69642072657761726420746f6b656e0000000000000000000000006044820152606490fd5b8651631e4fbdf760e01b815260006004820152602490fd5b600080fd5b634e487b7160e01b600052604160045260246000fd5b51906001600160a01b0382168203620002565756fe6080604052600436101561001257600080fd5b60003560e01c8063117da1ee146114f8578063425cb44b14611452578063483103a41461120e5780634a6a749c146111a557806363c0f13314611166578063715018a61461110d5780638aee8127146110615780638da5cb5b14611038578063ac18de4314610fc7578063ac6e07ee1461081d578063af0d22da14610767578063b5eee722146106f3578063c13d2f7514610646578063c31c9c071461061d578063c6bbd5a7146105f4578063d03153aa146105d6578063e6370309146101d8578063f2bf87e3146101af578063f2fde38b146101265763f7c618c1146100f857600080fd5b34610121576000366003190112610121576001546040516001600160a01b039091168152602090f35b600080fd5b346101215760203660031901126101215761013f61158f565b6101476117b1565b6001600160a01b0390811690811561019657600054826001600160601b0360a01b821617600055167f8be0079c531659141344cd1fd0a4f28419497f9722a3daafe3b4186f6b6457e0600080a3005b604051631e4fbdf760e01b815260006004820152602490fd5b34610121576000366003190112610121576002546040516001600160a01b039091168152602090f35b34610121576040366003190112610121576101f161158f565b60243560018060a01b0380831692836000526020916006835261021b60ff6040600020541661181b565b60405163133f757160e31b8152600481018590526101a080826024818a5afa801561047557858491600094600094600092610593575b50506004604051809781936329bc672160e21b8352165afa9384156104755760009461055c575b506102bc8185169461028933612331565b60405163c69deec560e01b8152336004820152602481018b90526000978897929691949192918b90869081906044820190565b0381845afa948515610475578b918d9160009761051c575b50604051633e491d4760e01b8152336004820152602481019290925290919082908180604481015b03915afa998a15610475578b958d9260009c6104e8575b501561048157505050508661037a575b505050610339905b61033433612331565b6119de565b936040519586528501526040840152606083015260808201527f694588a032a621c2c34a328afbc6a04b9b9824cd08e38bcd497470a906ef79d660a03392a3005b604051631c4b774b60e01b8184015260248082018b905281526103bc92916103a182611685565b60405163468721a760e01b8152938492839260048401611a0e565b03816000335af190811561047557600091610440575b50156103fb57906103f36103ee86610339946001541633611ecf565b611a3f565b908589610323565b60405162461bcd60e51b815260048101879052601760248201527f47617567652067657420726577617264206661696c65640000000000000000006044820152606490fd5b90508681813d831161046e575b61045781836116a1565b810103126101215761046890611a01565b896103d2565b503d61044d565b6040513d6000823e3d90fd5b92985092509550610339949350610499925033611cf5565b909481958095816104ce575b5050816104b4575b505061032b565b6104c7916104c29133611ecf565b61199d565b88806104ad565b6104e1916104dc9133611ecf565b61195c565b8a806104a5565b92509a509481813d8311610515575b61050181836116a1565b81010312610121578a948c91519a8f610313565b503d6104f7565b92839197508092503d8311610555575b61053681836116a1565b81010312610121578a8c61054c6102fc93611a01565b969091926102d4565b503d61052c565b9093508581813d831161058c575b61057481836116a1565b810103126101215761058590611873565b9288610278565b503d61056a565b91509194506105b8929350803d106105cf575b6105b081836116a1565b8101906118a9565b9c9b50505050505050505094915093928a80610251565b503d6105a6565b34610121576000366003190112610121576020600554604051908152f35b34610121576000366003190112610121576004546040516001600160a01b039091168152602090f35b34610121576000366003190112610121576003546040516001600160a01b039091168152602090f35b346101215760203660031901126101215761065f61158f565b6106676117b1565b6001600160a01b039081169081156106b657600254826001600160601b0360a01b821617600255167f9d4858dccb76debed7845fd87ec5c769962d072d518c9e34182581abb3e8247c600080a3005b60405162461bcd60e51b8152602060048201526015602482015274496e76616c69642072657761726420737461626c6560581b6044820152606490fd5b346101215760203660031901126101215761070c61158f565b6107146117b1565b6001600160a01b03166107288115156117dd565b6000818152600660205260408120805460ff191660011790557f7292d6696c5735a21bb9fa1ecd4cfb6aa6001df16ede482017954b62fbb4ef498180a3005b3461012157610775366115bb565b610780303314612275565b6001600160a01b0383166000908152600660205260409020546107a59060ff166122b9565b60005b8181106107b157005b6107bc81838561230b565b3590303b156101215760405163e637030960e01b81526001600160a01b0386166004820152602481019290925260008260448183305af1918215610475576108099261080e575b506122fc565b6107a8565b61081790611655565b85610803565b346101215760403660031901126101215761083661158f565b6001600160a01b03811660009081526006602052604090205461085b9060ff1661181b565b60405163133f757160e31b81526024803560048301529091906101a0908390816001600160a01b0385165afa9182156104755760008091600091600093600092600097610f8b575b5083906108af33612331565b926001600160a01b03891615610f57576040516329bc672160e21b8152986020908a9060049082906001600160a01b03165afa98891561047557600099610f1b575b50604051633e491d4760e01b81523360048201526024803590820152956020876044816001600160a01b038e165afa96871561047557600097610ee0575b506001600160801b03906109466024358c33611a83565b1680610cc8575b5061098d9161097c6104dc6104c2936109696024358d33611cf5565b50506001600160801b038b169033611ecf565b6001600160801b0386169033611ecf565b60405163133f757160e31b81526024803560048301526101a0908290816001600160a01b038b165afa90811561047557600090600092610c8f575b506001600160801b0316610c4a576001600160801b0316610c05576001600160801b0316610bcb57610a346020604051630852cd8d60e31b82820152602435602482015260248152610a1981611685565b6040518093819263468721a760e01b83528a60048401611a0e565b03816000335af190811561047557600091610b91575b5015610b5e57610a5d9061033433612331565b60405163c69deec560e01b8152336004820152602480359082015295909390602090879060449082906001600160a01b03165afa95861561047557600096610b22575b508515610b1c57506000945b15610b0e57506001600160801b0360005b816040519660243588521660208701521660408501526060840152608083015260018060a01b0316907fab246cbdd9653a6d72a5dbac4c4246a5bfa3c50a09ddca840f7c735607c6546060a03392a3005b6001600160801b0390610abd565b94610aac565b9095506020813d602011610b56575b81610b3e602093836116a1565b8101031261012157610b4f90611a01565b9486610aa0565b3d9150610b31565b60405162461bcd60e51b815260206004820152600b60248201526a109d5c9b8819985a5b195960aa1b6044820152606490fd5b90506020813d602011610bc3575b81610bac602093836116a1565b8101031261012157610bbd90611a01565b87610a4a565b3d9150610b9f565b60405162461bcd60e51b81526020600482015260126024820152714c6971756964697479206e6f74207a65726f60701b6044820152606490fd5b60405162461bcd60e51b815260206004820152601760248201527f556e636f6c6c656374656420746f6b656e3120666565730000000000000000006044820152606490fd5b60405162461bcd60e51b815260206004820152601760248201527f556e636f6c6c656374656420746f6b656e3020666565730000000000000000006044820152606490fd5b6001600160801b039250610cb491506101a03d6101a0116105cf576105b081836116a1565b509b9a5098505050505050505050906109c8565b604051919350610cd782611669565b60243582526020820190815260408201600081526060830190600082526001600160801b03608085019342855260405195630624e65f60e11b6020880152516024870152511660448501525160648401525160848301525160a482015260a481528060e081011067ffffffffffffffff60e083011117610eca5760e08101604081905263468721a760e01b815260209060df1983610d79818d60e48201611a0e565b030160e084016000335af190811561047557600091610e8a575b5015610e455760405163133f757160e31b81526024803560048301526101a0908290816001600160a01b038c165afa9182156104755761097c6104dc896104c2948961098d97600092600090600092610e08575b50610dfc9394610df691611cdc565b50611cdc565b5095935050509161094d565b610dfc9450610df69250610e2d91506101a03d6101a0116105cf576105b081836116a1565b50939d939b509950919750610de79650505050505050565b60405162461bcd60e51b815260206004820152601960248201527f4465637265617365206c6971756964697479206661696c6564000000000000006044820152606490fd5b90506020813d602011610ec2575b81610ea860209360e084016116a1565b810103126101215760e0610ebc9101611a01565b89610d93565b3d9150610e98565b634e487b7160e01b600052604160045260246000fd5b9096506020813d602011610f13575b81610efc602093836116a1565b810103126101215751956001600160801b0361092f565b3d9150610eef565b9098506020813d602011610f4f575b81610f37602093836116a1565b8101031261012157610f4890611873565b97896108f1565b3d9150610f2a565b60405162461bcd60e51b815260206004820152600c60248201526b141bdbdb081b9bdd081cd95d60a21b6044820152606490fd5b945050505050610fad9192506101a03d6101a0116105cf576105b081836116a1565b9897509950979450505097965050909592939195876108a3565b3461012157602036600319011261012157610fe061158f565b610fe86117b1565b6001600160a01b0316610ffc8115156117dd565b6000818152600660205260408120805460ff191690557f3e902a6ee93dd5b2d48bd1009c7701a481be512b1ef73dbed2f95ea44c59ea888180a3005b34610121576000366003190112610121576000546040516001600160a01b039091168152602090f35b346101215760203660031901126101215761107a61158f565b6110826117b1565b6001600160a01b039081169081156110d157600154826001600160601b0360a01b821617600155167f906ff2422a6ffa134f2d7ccaffd446bc0c583a5cb6615749b4b2836942a5fea8600080a3005b60405162461bcd60e51b815260206004820152601460248201527324b73b30b634b2103932bbb0b932103a37b5b2b760611b6044820152606490fd5b34610121576000366003190112610121576111266117b1565b600080546001600160a01b0319811682556001600160a01b03167f8be0079c531659141344cd1fd0a4f28419497f9722a3daafe3b4186f6b6457e08280a3005b34610121576020366003190112610121576001600160a01b0361118761158f565b166000526006602052602060ff604060002054166040519015158152f35b34610121576040366003190112610121576111be61158f565b6111c66115a5565b9060018060a01b0380911660005260076020526040600020911660005260205261120a6111f660406000206116c3565b60405191829160208352602083019061178c565b0390f35b346101215760603660031901126101215761122761158f565b61122f6115a5565b906044359067ffffffffffffffff9081831161012157366023840112156101215782600401359182116101215760249036828486010111610121576112726117b1565b6001600160a01b0390811694851561141a57169384156113e45782156113b1576000526020936007855260406000209060005284526040600020926112b7845461161b565b601f811161136b575b50600094601f84116001146113025750938293946000936112f5575b505050600019600383901b1c191660019190911b179055005b01013590508380806112dc565b91601f198416958560005283600020936000905b888210611351575050846001969710611335575b50505050811b019055005b60001960f88660031b161c19920101351690558380808061132a565b806001849786839596890101358155019601920190611316565b8460005285600020601f850160051c8101918786106113a7575b601f0160051c01905b81811061139b57506112c0565b6000815560010161138e565b9091508190611385565b60405162461bcd60e51b815260206004820152600c818401526b092dcecc2d8d2c840e0c2e8d60a31b6044820152606490fd5b60405162461bcd60e51b815260206004820152600f818401526e24b73b30b634b2103a37aa37b5b2b760891b6044820152606490fd5b60405162461bcd60e51b8152602060048201526011818501527024b73b30b634b210333937b6aa37b5b2b760791b6044820152606490fd5b3461012157611460366115bb565b61146b303314612275565b6001600160a01b0383166000908152600660205260409020546114909060ff166122b9565b60005b81811061149c57005b6114a781838561230b565b3590303b156101215760405163563703f760e11b81526001600160a01b0386166004820152602481019290925260008260448183305af1918215610475576114f39261080e57506122fc565b611493565b34610121576020366003190112610121576004356115146117b1565b6103e881116115565760407fddd31550b26e9ef8ade466958be83ff8a014d9b4f36d546b61a6847a4530657591600554908060055582519182526020820152a1005b60405162461bcd60e51b81526020600482015260116024820152700a6d8d2e0e0c2ceca40e8dede40d0d2ced607b1b6044820152606490fd5b600435906001600160a01b038216820361012157565b602435906001600160a01b038216820361012157565b6040600319820112610121576004356001600160a01b0381168103610121579160243567ffffffffffffffff9283821161012157806023830112156101215781600401359384116101215760248460051b83010111610121576024019190565b90600182811c9216801561164b575b602083101461163557565b634e487b7160e01b600052602260045260246000fd5b91607f169161162a565b67ffffffffffffffff8111610eca57604052565b60a0810190811067ffffffffffffffff821117610eca57604052565b6060810190811067ffffffffffffffff821117610eca57604052565b90601f8019910116810190811067ffffffffffffffff821117610eca57604052565b90604051918260008254926116d78461161b565b9081845260019485811690816000146117465750600114611703575b5050611701925003836116a1565b565b9093915060005260209081600020936000915b81831061172e575050611701935082010138806116f3565b85548884018501529485019487945091830191611716565b91505061170194506020925060ff191682840152151560051b82010138806116f3565b60005b83811061177c5750506000910152565b818101518382015260200161176c565b906020916117a581518092818552858086019101611769565b601f01601f1916010190565b6000546001600160a01b031633036117c557565b60405163118cdaa760e01b8152336004820152602490fd5b156117e457565b60405162461bcd60e51b815260206004820152600f60248201526e24b73b30b634b21036b0b730b3b2b960891b6044820152606490fd5b1561182257565b60405162461bcd60e51b8152602060048201526024808201527f4d616e61676572206e6f7420617070726f76656420666f722074686973206d6f60448201526364756c6560e01b6064820152608490fd5b51906001600160a01b038216820361012157565b51908160020b820361012157565b51906001600160801b038216820361012157565b90816101a09103126101215780516001600160601b038116810361012157916118d460208301611873565b916118e160408201611873565b916118ee60608301611873565b916118fb60808201611887565b9161190860a08301611887565b9161191560c08201611887565b9161192260e08301611895565b91610100810151916101208201519161193e6101408201611895565b916119596101806119526101608501611895565b9301611873565b90565b1561196357565b60405162461bcd60e51b8152602060048201526012602482015271151bdad95b8c081cddd85c0819985a5b195960721b6044820152606490fd5b156119a457565b60405162461bcd60e51b8152602060048201526012602482015271151bdad95b8c481cddd85c0819985a5b195960721b6044820152606490fd5b919082039182116119eb57565b634e487b7160e01b600052601160045260246000fd5b5190811515820361012157565b9291611a3a60609160009360018060a01b0316865283602087015260806040870152608086019061178c565b930152565b15611a4657565b60405162461bcd60e51b815260206004820152601560248201527414ddd85c081d1bc81cdd18589b194819985a5b1959605a1b6044820152606490fd5b916001600160a01b039182811691908215611ca7576040805163c69deec560e01b81528587166001600160a01b03811660048301526024820185905260209492939092909185816044818a5afa908115611c6757600091611c72575b508451633e491d4760e01b81526001600160a01b038516600482015260248101839052968690889060449082905afa968715611c6757600097611c38575b508015611c2d57611b4a575b505050505080611b3857505050565b611701926103ee926001541690611ecf565b611b8e928592855192632e1a7d4d60e01b85850152602484015260248352611b7183611685565b6000865180968195829463468721a760e01b845260048401611a0e565b03925af1908115611c2257600091611bea575b5015611baf57808080611b29565b60649250519062461bcd60e51b82526004820152601560248201527411d85d59d9481dda5d1a191c985dc819985a5b1959605a1b6044820152fd5b908382813d8311611c1b575b611c0081836116a1565b81010312611c185750611c1290611a01565b38611ba1565b80fd5b503d611bf6565b82513d6000823e3d90fd5b505050505050505050565b90968682813d8311611c60575b611c4f81836116a1565b81010312611c185750519538611b1d565b503d611c45565b85513d6000823e3d90fd5b908682813d8311611ca0575b611c8881836116a1565b81010312611c185750611c9a90611a01565b38611adf565b503d611c7e565b60405162461bcd60e51b815260206004820152600d60248201526c496e76616c696420676175676560981b6044820152606490fd5b6001600160801b0391821690821603919082116119eb57565b604080519390926001600160a01b0392909167ffffffffffffffff918416906080870183811188821017610eca5786528652602093848701828152868801916001600160801b0392839182825260608b01938385528a519b8c8b63fc6f786560e01b9101525160248d0152511660448b015251166064890152511660848701526084865260c086019286841083851117610eca57838092818852635229073f60e01b82526000958680948b611db18160bf199360c48201611a0e565b0301925af1958615611ec55783928497611e19575b50505015611de5578284805181010312611c1857508201519101519091565b50606491519062461bcd60e51b82526004820152600e60248201526d10dbdb1b1958dd0819985a5b195960921b6044820152fd5b91965091503d8084883e611e2d81886116a1565b820195858360c08901980312611ea957611e4690611a01565b9160e081015190828211611ec157018660df82011215611ea95760c0810151918211611ead57855196611e82601f8401601f19168701896116a1565b82885260e08383010111611ea95790611ea19160e08689019101611769565b388080611dc6565b8380fd5b634e487b7160e01b84526041600452602484fd5b8480fd5b85513d85823e3d90fd5b9180156121fe576002546001600160a01b039390841683851681146121f457611ef89084612206565b84600354169160409586519160209463095ea7b360e01b868501528284611f398960249485840160209093929193604081019460018060a01b031681520152565b0392611f4d601f19948581018852876116a1565b169489519763468721a760e01b998a8a5289898180611f7160049b868d8401611a0e565b0360009d8e8d5af19081156121ea578b916121b1575b5015612177579088611fa1611fc993886002541690612206565b8d888a5416908d8b82519788958694859363cdca175360e01b8552840152604483019061178c565b878b83015203925af191821561216d578a9261213a575b506005549261271093840392848411612116578381029381850414901517156121285761012c42019081421161211657928b95928895928f998d9c9a96878e9d9b98519161202d83611669565b82528d8201968d8852818301948552606083019586526080830196048652519c8d9763c04b8d5960e01b828a0152880152516044870160a0905260e487016120749161178c565b94511660648601525160848501525160a48401525160c483015203908101865261209e90866116a1565b6003548a51998a528995869485936120b99316908401611a0e565b03925af193841561210b575081936120d2575b50505090565b9091809350813d8311612104575b6120ea81836116a1565b81010312611c1857506120fc90611a01565b3880806120cc565b503d6120e0565b51913d9150823e3d90fd5b634e487b7160e01b8c5260118952858cfd5b634e487b7160e01b8b5260118852848bfd5b9091508881813d8311612166575b61215281836116a1565b8101031261216257519038611fe0565b8980fd5b503d612148565b8c513d8c823e3d90fd5b508a5162461bcd60e51b815280870189905260148185015273151bdad95b88185c1c1c9bdd994819985a5b195960621b6044820152606490fd5b90508981813d83116121e3575b6121c881836116a1565b810103126121df576121d990611a01565b38611f87565b8a80fd5b503d6121be565b8d513d8d823e3d90fd5b5050505050600190565b505050600190565b60018060a01b0380911660005260076020526040600020911660005260205261223260406000206116c3565b9081511561223c57565b60405162461bcd60e51b815260206004820152601160248201527014ddd85c081c185d1a081b9bdd081cd95d607a1b6044820152606490fd5b1561227c57565b60405162461bcd60e51b81526020600482015260156024820152744f6e6c792063616c6c61626c65206279205361666560581b6044820152606490fd5b156122c057565b60405162461bcd60e51b815260206004820152601460248201527313585b9859d95c881b9bdd08185c1c1c9bdd995960621b6044820152606490fd5b60001981146119eb5760010190565b919081101561231b5760051b0190565b634e487b7160e01b600052603260045260246000fd5b6002546040516370a0823160e01b81526001600160a01b0392831660048201529160209183916024918391165afa90811561047557600091612371575090565b906020823d8211612397575b8161238a602093836116a1565b81010312611c1857505190565b3d915061237d56fea2646970667358221220783aa6da928b91badedb0ce5823e2e36a1ded42424bebaaed6f41fb3c2645ac764736f6c63430008140033",
          "opcodes": "PUSH1 0x80 CALLVALUE PUSH3 0x256 JUMPI PUSH1 0x1F PUSH3 0x265C CODESIZE DUP2 SWAP1 SUB SWAP2 DUP3 ADD PUSH1 0x1F NOT AND DUP4 ADD SWAP3 SWAP2 SWAP1 PUSH1 0x1 PUSH1 0x1 PUSH1 0x40 SHL SUB DUP5 GT DUP4 DUP6 LT OR PUSH3 0x25B JUMPI DUP2 PUSH1 0xA0 SWAP3 DUP5 SWAP3 PUSH1 0x40 SWAP7 DUP8 MSTORE DUP4 CODECOPY DUP2 ADD SUB SLT PUSH3 0x256 JUMPI PUSH3 0x51 DUP2 PUSH3 0x271 JUMP JUMPDEST PUSH3 0x5F PUSH1 0x20 DUP4 ADD PUSH3 0x271 JUMP JUMPDEST SWAP1 PUSH3 0x6D DUP5 DUP5 ADD PUSH3 0x271 JUMP JUMPDEST SWAP3 PUSH3 0x8A PUSH1 0x80 PUSH3 0x82 PUSH1 0x60 DUP5 ADD PUSH3 0x271 JUMP JUMPDEST SWAP3 ADD PUSH3 0x271 JUMP JUMPDEST PUSH1 0x1 PUSH1 0x1 PUSH1 0xA0 SHL SUB SWAP3 DUP4 AND SWAP4 SWAP1 SWAP3 SWAP1 DUP5 ISZERO PUSH3 0x23E JUMPI PUSH1 0x0 DUP1 SLOAD PUSH1 0x1 PUSH1 0x1 PUSH1 0xA0 SHL SUB NOT DUP1 DUP3 AND DUP9 OR DUP4 SSTORE SWAP7 DUP5 SWAP4 SWAP3 SWAP1 SWAP2 DUP5 AND SWAP1 PUSH32 0x8BE0079C531659141344CD1FD0A4F28419497F9722A3DAAFE3B4186F6B6457E0 SWAP1 DUP1 LOG3 PUSH1 0x32 PUSH1 0x5 SSTORE AND SWAP5 DUP6 ISZERO PUSH3 0x1FA JUMPI DUP2 AND SWAP2 DUP3 ISZERO PUSH3 0x1B6 JUMPI DUP2 AND SWAP3 DUP4 ISZERO PUSH3 0x181 JUMPI AND SWAP4 DUP5 ISZERO PUSH3 0x13D JUMPI DUP4 PUSH1 0x1 SLOAD AND OR PUSH1 0x1 SSTORE DUP3 PUSH1 0x2 SLOAD AND OR PUSH1 0x2 SSTORE DUP2 PUSH1 0x4 SLOAD AND OR PUSH1 0x4 SSTORE PUSH1 0x3 SLOAD AND OR PUSH1 0x3 SSTORE MLOAD PUSH2 0x23D5 SWAP1 DUP2 PUSH3 0x287 DUP3 CODECOPY RETURN JUMPDEST DUP6 MLOAD PUSH3 0x461BCD PUSH1 0xE5 SHL DUP2 MSTORE PUSH1 0x20 PUSH1 0x4 DUP3 ADD MSTORE PUSH1 0x13 PUSH1 0x24 DUP3 ADD MSTORE PUSH32 0x496E76616C6964207377617020726F7574657200000000000000000000000000 PUSH1 0x44 DUP3 ADD MSTORE PUSH1 0x64 SWAP1 REVERT JUMPDEST DUP7 MLOAD PUSH3 0x461BCD PUSH1 0xE5 SHL DUP2 MSTORE PUSH1 0x20 PUSH1 0x4 DUP3 ADD MSTORE PUSH1 0xE PUSH1 0x24 DUP3 ADD MSTORE PUSH14 0x24B73B30B634B21038BAB7BA32B9 PUSH1 0x91 SHL PUSH1 0x44 DUP3 ADD MSTORE PUSH1 0x64 SWAP1 REVERT JUMPDEST DUP7 MLOAD PUSH3 0x461BCD PUSH1 0xE5 SHL DUP2 MSTORE PUSH1 0x20 PUSH1 0x4 DUP3 ADD MSTORE PUSH1 0x15 PUSH1 0x24 DUP3 ADD MSTORE PUSH32 0x496E76616C69642072657761726420737461626C650000000000000000000000 PUSH1 0x44 DUP3 ADD MSTORE PUSH1 0x64 SWAP1 REVERT JUMPDEST DUP7 MLOAD PUSH3 0x461BCD PUSH1 0xE5 SHL DUP2 MSTORE PUSH1 0x20 PUSH1 0x4 DUP3 ADD MSTORE PUSH1 0x14 PUSH1 0x24 DUP3 ADD MSTORE PUSH32 0x496E76616C69642072657761726420746F6B656E000000000000000000000000 PUSH1 0x44 DUP3 ADD MSTORE PUSH1 0x64 SWAP1 REVERT JUMPDEST DUP7 MLOAD PUSH4 0x1E4FBDF7 PUSH1 0xE0 SHL DUP2 MSTORE PUSH1 0x0 PUSH1 0x4 DUP3 ADD MSTORE PUSH1 0x24 SWAP1 REVERT JUMPDEST PUSH1 0x0 DUP1 REVERT JUMPDEST PUSH4 0x4E487B71 PUSH1 0xE0 SHL PUSH1 0x0 MSTORE PUSH1 0x41 PUSH1 0x4 MSTORE PUSH1 0x24 PUSH1 0x0 REVERT JUMPDEST MLOAD SWAP1 PUSH1 0x1 PUSH1 0x1 PUSH1 0xA0 SHL SUB DUP3 AND DUP3 SUB PUSH3 0x256 JUMPI JUMP INVALID PUSH1 0x80 PUSH1 0x40 MSTORE PUSH1 0x4 CALLDATASIZE LT ISZERO PUSH2 0x12 JUMPI PUSH1 0x0 DUP1 REVERT JUMPDEST PUSH1 0x0 CALLDATALOAD PUSH1 0xE0 SHR DUP1 PUSH4 0x117DA1EE EQ PUSH2 0x14F8 JUMPI DUP1 PUSH4 0x425CB44B EQ PUSH2 0x1452 JUMPI DUP1 PUSH4 0x483103A4 EQ PUSH2 0x120E JUMPI DUP1 PUSH4 0x4A6A749C EQ PUSH2 0x11A5 JUMPI DUP1 PUSH4 0x63C0F133 EQ PUSH2 0x1166 JUMPI DUP1 PUSH4 0x715018A6 EQ PUSH2 0x110D JUMPI DUP1 PUSH4 0x8AEE8127 EQ PUSH2 0x1061 JUMPI DUP1 PUSH4 0x8DA5CB5B EQ PUSH2 0x1038 JUMPI DUP1 PUSH4 0xAC18DE43 EQ PUSH2 0xFC7 JUMPI DUP1 PUSH4 0xAC6E07EE EQ PUSH2 0x81D JUMPI DUP1 PUSH4 0xAF0D22DA EQ PUSH2 0x767 JUMPI DUP1 PUSH4 0xB5EEE722 EQ PUSH2 0x6F3 JUMPI DUP1 PUSH4 0xC13D2F75 EQ PUSH2 0x646 JUMPI DUP1 PUSH4 0xC31C9C07 EQ PUSH2 0x61D JUMPI DUP1 PUSH4 0xC6BBD5A7 EQ PUSH2 0x5F4 JUMPI DUP1 PUSH4 0xD03153AA EQ PUSH2 0x5D6 JUMPI DUP1 PUSH4 0xE6370309 EQ PUSH2 0x1D8 JUMPI DUP1 PUSH4 0xF2BF87E3 EQ PUSH2 0x1AF JUMPI DUP1 PUSH4 0xF2FDE38B EQ PUSH2 0x126 JUMPI PUSH4 0xF7C618C1 EQ PUSH2 0xF8 JUMPI PUSH1 0x0 DUP1 REVERT JUMPDEST CALLVALUE PUSH2 0x121 JUMPI PUSH1 0x0 CALLDATASIZE PUSH1 0x3 NOT ADD SLT PUSH2 0x121 JUMPI PUSH1 0x1 SLOAD PUSH1 0x40 MLOAD PUSH1 0x1 PUSH1 0x1 PUSH1 0xA0 SHL SUB SWAP1 SWAP2 AND DUP2 MSTORE PUSH1 0x20 SWAP1 RETURN JUMPDEST PUSH1 0x0 DUP1 REVERT JUMPDEST CALLVALUE PUSH2 0x121 JUMPI PUSH1 0x20 CALLDATASIZE PUSH1 0x3 NOT ADD SLT PUSH2 0x121 JUMPI PUSH2 0x13F PUSH2 0x158F JUMP JUMPDEST PUSH2 0x147 PUSH2 0x17B1 JUMP JUMPDEST PUSH1 0x1 PUSH1 0x1 PUSH1 0xA0 SHL SUB SWAP1 DUP2 AND SWAP1 DUP2 ISZERO PUSH2 0x196 JUMPI PUSH1 0x0 SLOAD DUP3 PUSH1 0x1 PUSH1 0x1 PUSH1 0x60 SHL SUB PUSH1 0xA0 SHL DUP3 AND OR PUSH1 0x0 SSTORE AND PUSH32 0x8BE0079C531659141344CD1FD0A4F28419497F9722A3DAAFE3B4186F6B6457E0 PUSH1 0x0 DUP1 LOG3 STOP JUMPDEST PUSH1 0x40 MLOAD PUSH4 0x1E4FBDF7 PUSH1 0xE0 SHL DUP2 MSTORE PUSH1 0x0 PUSH1 0x4 DUP3 ADD MSTORE PUSH1 0x24 SWAP1 REVERT JUMPDEST CALLVALUE PUSH2 0x121 JUMPI PUSH1 0x0 CALLDATASIZE PUSH1 0x3 NOT ADD SLT PUSH2 0x121 JUMPI PUSH1 0x2 SLOAD PUSH1 0x40 MLOAD PUSH1 0x1 PUSH1 0x1 PUSH1 0xA0 SHL SUB SWAP1 SWAP2 AND DUP2 MSTORE PUSH1 0x20 SWAP1 RETURN JUMPDEST CALLVALUE PUSH2 0x121 JUMPI PUSH1 0x40 CALLDATASIZE PUSH1 0x3 NOT ADD SLT PUSH2 0x121 JUMPI PUSH2 0x1F1 PUSH2 0x158F JUMP JUMPDEST PUSH1 0x24 CALLDATALOAD PUSH1 0x1 DUP1 PUSH1 0xA0 SHL SUB DUP1 DUP4 AND SWAP3 DUP4 PUSH1 0x0 MSTORE PUSH1 0x20 SWAP2 PUSH1 0x6 DUP4 MSTORE PUSH2 0x21B PUSH1 0xFF PUSH1 0x40 PUSH1 0x0 KECCAK256 SLOAD AND PUSH2 0x181B JUMP JUMPDEST PUSH1 0x40 MLOAD PUSH4 0x133F7571 PUSH1 0xE3 SHL DUP2 MSTORE PUSH1 0x4 DUP2 ADD DUP6 SWAP1 MSTORE PUSH2 0x1A0 DUP1 DUP3 PUSH1 0x24 DUP2 DUP11 GAS STATICCALL DUP1 ISZERO PUSH2 0x475 JUMPI DUP6 DUP5 SWAP2 PUSH1 0x0 SWAP5 PUSH1 0x0 SWAP5 PUSH1 0x0 SWAP3 PUSH2 0x593 JUMPI JUMPDEST POP POP PUSH1 0x4 PUSH1 0x40 MLOAD DUP1 SWAP8 DUP2 SWAP4 PUSH4 0x29BC6721 PUSH1 0xE2 SHL DUP4 MSTORE AND GAS STATICCALL SWAP4 DUP5 ISZERO PUSH2 0x475 JUMPI PUSH1 0x0 SWAP5 PUSH2 0x55C JUMPI JUMPDEST POP PUSH2 0x2BC DUP2 DUP6 AND SWAP5 PUSH2 0x289 CALLER PUSH2 0x2331 JUMP JUMPDEST PUSH1 0x40 MLOAD PUSH4 0xC69DEEC5 PUSH1 0xE0 SHL DUP2 MSTORE CALLER PUSH1 0x4 DUP3 ADD MSTORE PUSH1 0x24 DUP2 ADD DUP12 SWAP1 MSTORE PUSH1 0x0 SWAP8 DUP9 SWAP8 SWAP3 SWAP7 SWAP2 SWAP5 SWAP2 SWAP3 SWAP2 DUP12 SWAP1 DUP7 SWAP1 DUP2 SWAP1 PUSH1 0x44 DUP3 ADD SWAP1 JUMP JUMPDEST SUB DUP2 DUP5 GAS STATICCALL SWAP5 DUP6 ISZERO PUSH2 0x475 JUMPI DUP12 SWAP2 DUP14 SWAP2 PUSH1 0x0 SWAP8 PUSH2 0x51C JUMPI JUMPDEST POP PUSH1 0x40 MLOAD PUSH4 0x3E491D47 PUSH1 0xE0 SHL DUP2 MSTORE CALLER PUSH1 0x4 DUP3 ADD MSTORE PUSH1 0x24 DUP2 ADD SWAP3 SWAP1 SWAP3 MSTORE SWAP1 SWAP2 SWAP1 DUP3 SWAP1 DUP2 DUP1 PUSH1 0x44 DUP2 ADD JUMPDEST SUB SWAP2 GAS STATICCALL SWAP10 DUP11 ISZERO PUSH2 0x475 JUMPI DUP12 SWAP6 DUP14 SWAP3 PUSH1 0x0 SWAP13 PUSH2 0x4E8 JUMPI JUMPDEST POP ISZERO PUSH2 0x481 JUMPI POP POP POP POP DUP7 PUSH2 0x37A JUMPI JUMPDEST POP POP POP PUSH2 0x339 SWAP1 JUMPDEST PUSH2 0x334 CALLER PUSH2 0x2331 JUMP JUMPDEST PUSH2 0x19DE JUMP JUMPDEST SWAP4 PUSH1 0x40 MLOAD SWAP6 DUP7 MSTORE DUP6 ADD MSTORE PUSH1 0x40 DUP5 ADD MSTORE PUSH1 0x60 DUP4 ADD MSTORE PUSH1 0x80 DUP3 ADD MSTORE PUSH32 0x694588A032A621C2C34A328AFBC6A04B9B9824CD08E38BCD497470A906EF79D6 PUSH1 0xA0 CALLER SWAP3 LOG3 STOP JUMPDEST PUSH1 0x40 MLOAD PUSH4 0x1C4B774B PUSH1 0xE0 SHL DUP2 DUP5 ADD MSTORE PUSH1 0x24 DUP1 DUP3 ADD DUP12 SWAP1 MSTORE DUP2 MSTORE PUSH2 0x3BC SWAP3 SWAP2 PUSH2 0x3A1 DUP3 PUSH2 0x1685 JUMP JUMPDEST PUSH1 0x40 MLOAD PUSH4 0x468721A7 PUSH1 0xE0 SHL DUP2 MSTORE SWAP4 DUP5 SWAP3 DUP4 SWAP3 PUSH1 0x4 DUP5 ADD PUSH2 0x1A0E JUMP JUMPDEST SUB DUP2 PUSH1 0x0 CALLER GAS CALL SWAP1 DUP2 ISZERO PUSH2 0x475 JUMPI PUSH1 0x0 SWAP2 PUSH2 0x440 JUMPI JUMPDEST POP ISZERO PUSH2 0x3FB JUMPI SWAP1 PUSH2 0x3F3 PUSH2 0x3EE DUP7 PUSH2 0x339 SWAP5 PUSH1 0x1 SLOAD AND CALLER PUSH2 0x1ECF JUMP JUMPDEST PUSH2 0x1A3F JUMP JUMPDEST SWAP1 DUP6 DUP10 PUSH2 0x323 JUMP JUMPDEST PUSH1 0x40 MLOAD PUSH3 0x461BCD PUSH1 0xE5 SHL DUP2 MSTORE PUSH1 0x4 DUP2 ADD DUP8 SWAP1 MSTORE PUSH1 0x17 PUSH1 0x24 DUP3 ADD MSTORE PUSH32 0x47617567652067657420726577617264206661696C6564000000000000000000 PUSH1 0x44 DUP3 ADD MSTORE PUSH1 0x64 SWAP1 REVERT JUMPDEST SWAP1 POP DUP7 DUP2 DUP2 RETURNDATASIZE DUP4 GT PUSH2 0x46E JUMPI JUMPDEST PUSH2 0x457 DUP2 DUP4 PUSH2 0x16A1 JUMP JUMPDEST DUP2 ADD SUB SLT PUSH2 0x121 JUMPI PUSH2 0x468 SWAP1 PUSH2 0x1A01 JUMP JUMPDEST DUP10 PUSH2 0x3D2 JUMP JUMPDEST POP RETURNDATASIZE PUSH2 0x44D JUMP JUMPDEST PUSH1 0x40 MLOAD RETURNDATASIZE PUSH1 0x0 DUP3 RETURNDATACOPY RETURNDATASIZE SWAP1 REVERT JUMPDEST SWAP3 SWAP9 POP SWAP3 POP SWAP6 POP PUSH2 0x339 SWAP5 SWAP4 POP PUSH2 0x499 SWAP3 POP CALLER PUSH2 0x1CF5 JUMP JUMPDEST SWAP1 SWAP5 DUP2 SWAP6 DUP1 SWAP6 DUP2 PUSH2 0x4CE JUMPI JUMPDEST POP POP DUP2 PUSH2 0x4B4 JUMPI JUMPDEST POP POP PUSH2 0x32B JUMP JUMPDEST PUSH2 0x4C7 SWAP2 PUSH2 0x4C2 SWAP2 CALLER PUSH2 0x1ECF JUMP JUMPDEST PUSH2 0x199D JUMP JUMPDEST DUP9 DUP1 PUSH2 0x4AD JUMP JUMPDEST PUSH2 0x4E1 SWAP2 PUSH2 0x4DC SWAP2 CALLER PUSH2 0x1ECF JUMP JUMPDEST PUSH2 0x195C JUMP JUMPDEST DUP11 DUP1 PUSH2 0x4A5 JUMP JUMPDEST SWAP3 POP SWAP11 POP SWAP5 DUP2 DUP2 RETURNDATASIZE DUP4 GT PUSH2 0x515 JUMPI JUMPDEST PUSH2 0x501 DUP2 DUP4 PUSH2 0x16A1 JUMP JUMPDEST DUP2 ADD SUB SLT PUSH2 0x121 JUMPI DUP11 SWAP5 DUP13 SWAP2 MLOAD SWAP11 DUP16 PUSH2 0x313 JUMP JUMPDEST POP RETURNDATASIZE PUSH2 0x4F7 JUMP JUMPDEST SWAP3 DUP4 SWAP2 SWAP8 POP DUP1 SWAP3 POP RETURNDATASIZE DUP4 GT PUSH2 0x555 JUMPI JUMPDEST PUSH2 0x536 DUP2 DUP4 PUSH2 0x16A1 JUMP JUMPDEST DUP2 ADD SUB SLT PUSH2 0x121 JUMPI DUP11 DUP13 PUSH2 0x54C PUSH2 0x2FC SWAP4 PUSH2 0x1A01 JUMP JUMPDEST SWAP7 SWAP1 SWAP2 SWAP3 PUSH2 0x2D4 JUMP JUMPDEST POP RETURNDATASIZE PUSH2 0x52C JUMP JUMPDEST SWAP1 SWAP4 POP DUP6 DUP2 DUP2 RETURNDATASIZE DUP4 GT PUSH2 0x58C JUMPI JUMPDEST PUSH2 0x574 DUP2 DUP4 PUSH2 0x16A1 JUMP JUMPDEST DUP2 ADD SUB SLT PUSH2 0x121 JUMPI PUSH2 0x585 SWAP1 PUSH2 0x1873 JUMP JUMPDEST SWAP3 DUP9 PUSH2 0x278 JUMP JUMPDEST POP RETURNDATASIZE PUSH2 0x56A JUMP JUMPDEST SWAP2 POP SWAP2 SWAP5 POP PUSH2 0x5B8 SWAP3 SWAP4 POP DUP1 RETURNDATASIZE LT PUSH2 0x5CF JUMPI JUMPDEST PUSH2 0x5B0 DUP2 DUP4 PUSH2 0x16A1 JUMP JUMPDEST DUP2 ADD SWAP1 PUSH2 0x18A9 JUMP JUMPDEST SWAP13 SWAP12 POP POP POP POP POP POP POP POP POP SWAP5 SWAP2 POP SWAP4 SWAP3 DUP11 DUP1 PUSH2 0x251 JUMP JUMPDEST POP RETURNDATASIZE PUSH2 0x5A6 JUMP JUMPDEST CALLVALUE PUSH2 0x121 JUMPI PUSH1 0x0 CALLDATASIZE PUSH1 0x3 NOT ADD SLT PUSH2 0x121 JUMPI PUSH1 0x20 PUSH1 0x5 SLOAD PUSH1 0x40 MLOAD SWAP1 DUP2 MSTORE RETURN JUMPDEST CALLVALUE PUSH2 0x121 JUMPI PUSH1 0x0 CALLDATASIZE PUSH1 0x3 NOT ADD SLT PUSH2 0x121 JUMPI PUSH1 0x4 SLOAD PUSH1 0x40 MLOAD PUSH1 0x1 PUSH1 0x1 PUSH1 0xA0 SHL SUB SWAP1 SWAP2 AND DUP2 MSTORE PUSH1 0x20 SWAP1 RETURN JUMPDEST CALLVALUE PUSH2 0x121 JUMPI PUSH1 0x0 CALLDATASIZE PUSH1 0x3 NOT ADD SLT PUSH2 0x121 JUMPI PUSH1 0x3 SLOAD PUSH1 0x40 MLOAD PUSH1 0x1 PUSH1 0x1 PUSH1 0xA0 SHL SUB SWAP1 SWAP2 AND DUP2 MSTORE PUSH1 0x20 SWAP1 RETURN JUMPDEST CALLVALUE PUSH2 0x121 JUMPI PUSH1 0x20 CALLDATASIZE PUSH1 0x3 NOT ADD SLT PUSH2 0x121 JUMPI PUSH2 0x65F PUSH2 0x158F JUMP JUMPDEST PUSH2 0x667 PUSH2 0x17B1 JUMP JUMPDEST PUSH1 0x1 PUSH1 0x1 PUSH1 0xA0 SHL SUB SWAP1 DUP2 AND SWAP1 DUP2 ISZERO PUSH2 0x6B6 JUMPI PUSH1 0x2 SLOAD DUP3 PUSH1 0x1 PUSH1 0x1 PUSH1 0x60 SHL SUB PUSH1 0xA0 SHL DUP3 AND OR PUSH1 0x2 SSTORE AND PUSH32 0x9D4858DCCB76DEBED7845FD87EC5C769962D072D518C9E34182581ABB3E8247C PUSH1 0x0 DUP1 LOG3 STOP JUMPDEST PUSH1 0x40 MLOAD PUSH3 0x461BCD PUSH1 0xE5 SHL DUP2 MSTORE PUSH1 0x20 PUSH1 0x4 DUP3 ADD MSTORE PUSH1 0x15 PUSH1 0x24 DUP3 ADD MSTORE PUSH21 0x496E76616C69642072657761726420737461626C65 PUSH1 0x58 SHL PUSH1 0x44 DUP3 ADD MSTORE PUSH1 0x64 SWAP1 REVERT JUMPDEST CALLVALUE PUSH2 0x121 JUMPI PUSH1 0x20 CALLDATASIZE PUSH1 0x3 NOT ADD SLT PUSH2 0x121 JUMPI PUSH2 0x70C PUSH2 0x158F JUMP JUMPDEST PUSH2 0x714 PUSH2 0x17B1 JUMP JUMPDEST PUSH1 0x1 PUSH1 0x1 PUSH1 0xA0 SHL SUB AND PUSH2 0x728 DUP2 ISZERO ISZERO PUSH2 0x17DD JUMP JUMPDEST PUSH1 0x0 DUP2 DUP2 MSTORE PUSH1 0x6 PUSH1 0x20 MSTORE PUSH1 0x40 DUP2 KECCAK256 DUP1 SLOAD PUSH1 0xFF NOT AND PUSH1 0x1 OR SWAP1 SSTORE PUSH32 0x7292D6696C5735A21BB9FA1ECD4CFB6AA6001DF16EDE482017954B62FBB4EF49 DUP2 DUP1 LOG3 STOP JUMPDEST CALLVALUE PUSH2 0x121 JUMPI PUSH2 0x775 CALLDATASIZE PUSH2 0x15BB JUMP JUMPDEST PUSH2 0x780 ADDRESS CALLER EQ PUSH2 0x2275 JUMP JUMPDEST PUSH1 0x1 PUSH1 0x1 PUSH1 0xA0 SHL SUB DUP4 AND PUSH1 0x0 SWAP1 DUP2 MSTORE PUSH1 0x6 PUSH1 0x20 MSTORE PUSH1 0x40 SWAP1 KECCAK256 SLOAD PUSH2 0x7A5 SWAP1 PUSH1 0xFF AND PUSH2 0x22B9 JUMP JUMPDEST PUSH1 0x0 JUMPDEST DUP2 DUP2 LT PUSH2 0x7B1 JUMPI STOP JUMPDEST PUSH2 0x7BC DUP2 DUP4 DUP6 PUSH2 0x230B JUMP JUMPDEST CALLDATALOAD SWAP1 ADDRESS EXTCODESIZE ISZERO PUSH2 0x121 JUMPI PUSH1 0x40 MLOAD PUSH4 0xE6370309 PUSH1 0xE0 SHL DUP2 MSTORE PUSH1 0x1 PUSH1 0x1 PUSH1 0xA0 SHL SUB DUP7 AND PUSH1 0x4 DUP3 ADD MSTORE PUSH1 0x24 DUP2 ADD SWAP3 SWAP1 SWAP3 MSTORE PUSH1 0x0 DUP3 PUSH1 0x44 DUP2 DUP4 ADDRESS GAS CALL SWAP2 DUP3 ISZERO PUSH2 0x475 JUMPI PUSH2 0x809 SWAP3 PUSH2 0x80E JUMPI JUMPDEST POP PUSH2 0x22FC JUMP JUMPDEST PUSH2 0x7A8 JUMP JUMPDEST PUSH2 0x817 SWAP1 PUSH2 0x1655 JUMP JUMPDEST DUP6 PUSH2 0x803 JUMP JUMPDEST CALLVALUE PUSH2 0x121 JUMPI PUSH1 0x40 CALLDATASIZE PUSH1 0x3 NOT ADD SLT PUSH2 0x121 JUMPI PUSH2 0x836 PUSH2 0x158F JUMP JUMPDEST PUSH1 0x1 PUSH1 0x1 PUSH1 0xA0 SHL SUB DUP2 AND PUSH1 0x0 SWAP1 DUP2 MSTORE PUSH1 0x6 PUSH1 0x20 MSTORE PUSH1 0x40 SWAP1 KECCAK256 SLOAD PUSH2 0x85B SWAP1 PUSH1 0xFF AND PUSH2 0x181B JUMP JUMPDEST PUSH1 0x40 MLOAD PUSH4 0x133F7571 PUSH1 0xE3 SHL DUP2 MSTORE PUSH1 0x24 DUP1 CALLDATALOAD PUSH1 0x4 DUP4 ADD MSTORE SWAP1 SWAP2 SWAP1 PUSH2 0x1A0 SWAP1 DUP4 SWAP1 DUP2 PUSH1 0x1 PUSH1 0x1 PUSH1 0xA0 SHL SUB DUP6 AND GAS STATICCALL SWAP2 DUP3 ISZERO PUSH2 0x475 JUMPI PUSH1 0x0 DUP1 SWAP2 PUSH1 0x0 SWAP2 PUSH1 0x0 SWAP4 PUSH1 0x0 SWAP3 PUSH1 0x0 SWAP8 PUSH2 0xF8B JUMPI JUMPDEST POP DUP4 SWAP1 PUSH2 0x8AF CALLER PUSH2 0x2331 JUMP JUMPDEST SWAP3 PUSH1 0x1 PUSH1 0x1 PUSH1 0xA0 SHL SUB DUP10 AND ISZERO PUSH2 0xF57 JUMPI PUSH1 0x40 MLOAD PUSH4 0x29BC6721 PUSH1 0xE2 SHL DUP2 MSTORE SWAP9 PUSH1 0x20 SWAP1 DUP11 SWAP1 PUSH1 0x4 SWAP1 DUP3 SWAP1 PUSH1 0x1 PUSH1 0x1 PUSH1 0xA0 SHL SUB AND GAS STATICCALL SWAP9 DUP10 ISZERO PUSH2 0x475 JUMPI PUSH1 0x0 SWAP10 PUSH2 0xF1B JUMPI JUMPDEST POP PUSH1 0x40 MLOAD PUSH4 0x3E491D47 PUSH1 0xE0 SHL DUP2 MSTORE CALLER PUSH1 0x4 DUP3 ADD MSTORE PUSH1 0x24 DUP1 CALLDATALOAD SWAP1 DUP3 ADD MSTORE SWAP6 PUSH1 0x20 DUP8 PUSH1 0x44 DUP2 PUSH1 0x1 PUSH1 0x1 PUSH1 0xA0 SHL SUB DUP15 AND GAS STATICCALL SWAP7 DUP8 ISZERO PUSH2 0x475 JUMPI PUSH1 0x0 SWAP8 PUSH2 0xEE0 JUMPI JUMPDEST POP PUSH1 0x1 PUSH1 0x1 PUSH1 0x80 SHL SUB SWAP1 PUSH2 0x946 PUSH1 0x24 CALLDATALOAD DUP13 CALLER PUSH2 0x1A83 JUMP JUMPDEST AND DUP1 PUSH2 0xCC8 JUMPI JUMPDEST POP PUSH2 0x98D SWAP2 PUSH2 0x97C PUSH2 0x4DC PUSH2 0x4C2 SWAP4 PUSH2 0x969 PUSH1 0x24 CALLDATALOAD DUP14 CALLER PUSH2 0x1CF5 JUMP JUMPDEST POP POP PUSH1 0x1 PUSH1 0x1 PUSH1 0x80 SHL SUB DUP12 AND SWAP1 CALLER PUSH2 0x1ECF JUMP JUMPDEST PUSH1 0x1 PUSH1 0x1 PUSH1 0x80 SHL SUB DUP7 AND SWAP1 CALLER PUSH2 0x1ECF JUMP JUMPDEST PUSH1 0x40 MLOAD PUSH4 0x133F7571 PUSH1 0xE3 SHL DUP2 MSTORE PUSH1 0x24 DUP1 CALLDATALOAD PUSH1 0x4 DUP4 ADD MSTORE PUSH2 0x1A0 SWAP1 DUP3 SWAP1 DUP2 PUSH1 0x1 PUSH1 0x1 PUSH1 0xA0 SHL SUB DUP12 AND GAS STATICCALL SWAP1 DUP2 ISZERO PUSH2 0x475 JUMPI PUSH1 0x0 SWAP1 PUSH1 0x0 SWAP3 PUSH2 0xC8F JUMPI JUMPDEST POP PUSH1 0x1 PUSH1 0x1 PUSH1 0x80 SHL SUB AND PUSH2 0xC4A JUMPI PUSH1 0x1 PUSH1 0x1 PUSH1 0x80 SHL SUB AND PUSH2 0xC05 JUMPI PUSH1 0x1 PUSH1 0x1 PUSH1 0x80 SHL SUB AND PUSH2 0xBCB JUMPI PUSH2 0xA34 PUSH1 0x20 PUSH1 0x40 MLOAD PUSH4 0x852CD8D PUSH1 0xE3 SHL DUP3 DUP3 ADD MSTORE PUSH1 0x24 CALLDATALOAD PUSH1 0x24 DUP3 ADD MSTORE PUSH1 0x24 DUP2 MSTORE PUSH2 0xA19 DUP2 PUSH2 0x1685 JUMP JUMPDEST PUSH1 0x40 MLOAD DUP1 SWAP4 DUP2 SWAP3 PUSH4 0x468721A7 PUSH1 0xE0 SHL DUP4 MSTORE DUP11 PUSH1 0x4 DUP5 ADD PUSH2 0x1A0E JUMP JUMPDEST SUB DUP2 PUSH1 0x0 CALLER GAS CALL SWAP1 DUP2 ISZERO PUSH2 0x475 JUMPI PUSH1 0x0 SWAP2 PUSH2 0xB91 JUMPI JUMPDEST POP ISZERO PUSH2 0xB5E JUMPI PUSH2 0xA5D SWAP1 PUSH2 0x334 CALLER PUSH2 0x2331 JUMP JUMPDEST PUSH1 0x40 MLOAD PUSH4 0xC69DEEC5 PUSH1 0xE0 SHL DUP2 MSTORE CALLER PUSH1 0x4 DUP3 ADD MSTORE PUSH1 0x24 DUP1 CALLDATALOAD SWAP1 DUP3 ADD MSTORE SWAP6 SWAP1 SWAP4 SWAP1 PUSH1 0x20 SWAP1 DUP8 SWAP1 PUSH1 0x44 SWAP1 DUP3 SWAP1 PUSH1 0x1 PUSH1 0x1 PUSH1 0xA0 SHL SUB AND GAS STATICCALL SWAP6 DUP7 ISZERO PUSH2 0x475 JUMPI PUSH1 0x0 SWAP7 PUSH2 0xB22 JUMPI JUMPDEST POP DUP6 ISZERO PUSH2 0xB1C JUMPI POP PUSH1 0x0 SWAP5 JUMPDEST ISZERO PUSH2 0xB0E JUMPI POP PUSH1 0x1 PUSH1 0x1 PUSH1 0x80 SHL SUB PUSH1 0x0 JUMPDEST DUP2 PUSH1 0x40 MLOAD SWAP7 PUSH1 0x24 CALLDATALOAD DUP9 MSTORE AND PUSH1 0x20 DUP8 ADD MSTORE AND PUSH1 0x40 DUP6 ADD MSTORE PUSH1 0x60 DUP5 ADD MSTORE PUSH1 0x80 DUP4 ADD MSTORE PUSH1 0x1 DUP1 PUSH1 0xA0 SHL SUB AND SWAP1 PUSH32 0xAB246CBDD9653A6D72A5DBAC4C4246A5BFA3C50A09DDCA840F7C735607C65460 PUSH1 0xA0 CALLER SWAP3 LOG3 STOP JUMPDEST PUSH1 0x1 PUSH1 0x1 PUSH1 0x80 SHL SUB SWAP1 PUSH2 0xABD JUMP JUMPDEST SWAP5 PUSH2 0xAAC JUMP JUMPDEST SWAP1 SWAP6 POP PUSH1 0x20 DUP2 RETURNDATASIZE PUSH1 0x20 GT PUSH2 0xB56 JUMPI JUMPDEST DUP2 PUSH2 0xB3E PUSH1 0x20 SWAP4 DUP4 PUSH2 0x16A1 JUMP JUMPDEST DUP2 ADD SUB SLT PUSH2 0x121 JUMPI PUSH2 0xB4F SWAP1 PUSH2 0x1A01 JUMP JUMPDEST SWAP5 DUP7 PUSH2 0xAA0 JUMP JUMPDEST RETURNDATASIZE SWAP2 POP PUSH2 0xB31 JUMP JUMPDEST PUSH1 0x40 MLOAD PUSH3 0x461BCD PUSH1 0xE5 SHL DUP2 MSTORE PUSH1 0x20 PUSH1 0x4 DUP3 ADD MSTORE PUSH1 0xB PUSH1 0x24 DUP3 ADD MSTORE PUSH11 0x109D5C9B8819985A5B1959 PUSH1 0xAA SHL PUSH1 0x44 DUP3 ADD MSTORE PUSH1 0x64 SWAP1 REVERT JUMPDEST SWAP1 POP PUSH1 0x20 DUP2 RETURNDATASIZE PUSH1 0x20 GT PUSH2 0xBC3 JUMPI JUMPDEST DUP2 PUSH2 0xBAC PUSH1 0x20 SWAP4 DUP4 PUSH2 0x16A1 JUMP JUMPDEST DUP2 ADD SUB SLT PUSH2 0x121 JUMPI PUSH2 0xBBD SWAP1 PUSH2 0x1A01 JUMP JUMPDEST DUP8 PUSH2 0xA4A JUMP JUMPDEST RETURNDATASIZE SWAP2 POP PUSH2 0xB9F JUMP JUMPDEST PUSH1 0x40 MLOAD PUSH3 0x461BCD PUSH1 0xE5 SHL DUP2 MSTORE PUSH1 0x20 PUSH1 0x4 DUP3 ADD MSTORE PUSH1 0x12 PUSH1 0x24 DUP3 ADD MSTORE PUSH18 0x4C6971756964697479206E6F74207A65726F PUSH1 0x70 SHL PUSH1 0x44 DUP3 ADD MSTORE PUSH1 0x64 SWAP1 REVERT JUMPDEST PUSH1 0x40 MLOAD PUSH3 0x461BCD PUSH1 0xE5 SHL DUP2 MSTORE PUSH1 0x20 PUSH1 0x4 DUP3 ADD MSTORE PUSH1 0x17 PUSH1 0x24 DUP3 ADD MSTORE PUSH32 0x556E636F6C6C656374656420746F6B656E312066656573000000000000000000 PUSH1 0x44 DUP3 ADD MSTORE PUSH1 0x64 SWAP1 REVERT JUMPDEST PUSH1 0x40 MLOAD PUSH3 0x461BCD PUSH1 0xE5 SHL DUP2 MSTORE PUSH1 0x20 PUSH1 0x4 DUP3 ADD MSTORE PUSH1 0x17 PUSH1 0x24 DUP3 ADD MSTORE PUSH32 0x556E636F6C6C656374656420746F6B656E302066656573000000000000000000 PUSH1 0x44 DUP3 ADD MSTORE PUSH1 0x64 SWAP1 REVERT JUMPDEST PUSH1 0x1 PUSH1 0x1 PUSH1 0x80 SHL SUB SWAP3 POP PUSH2 0xCB4 SWAP2 POP PUSH2 0x1A0 RETURNDATASIZE PUSH2 0x1A0 GT PUSH2 0x5CF JUMPI PUSH2 0x5B0 DUP2 DUP4 PUSH2 0x16A1 JUMP JUMPDEST POP SWAP12 SWAP11 POP SWAP9 POP POP POP POP POP POP POP POP POP SWAP1 PUSH2 0x9C8 JUMP JUMPDEST PUSH1 0x40 MLOAD SWAP2 SWAP4 POP PUSH2 0xCD7 DUP3 PUSH2 0x1669 JUMP JUMPDEST PUSH1 0x24 CALLDATALOAD DUP3 MSTORE PUSH1 0x20 DUP3 ADD SWAP1 DUP2 MSTORE PUSH1 0x40 DUP3 ADD PUSH1 0x0 DUP2 MSTORE PUSH1 0x60 DUP4 ADD SWAP1 PUSH1 0x0 DUP3 MSTORE PUSH1 0x1 PUSH1 0x1 PUSH1 0x80 SHL SUB PUSH1 0x80 DUP6 ADD SWAP4 TIMESTAMP DUP6 MSTORE PUSH1 0x40 MLOAD SWAP6 PUSH4 0x624E65F PUSH1 0xE1 SHL PUSH1 0x20 DUP9 ADD MSTORE MLOAD PUSH1 0x24 DUP8 ADD MSTORE MLOAD AND PUSH1 0x44 DUP6 ADD MSTORE MLOAD PUSH1 0x64 DUP5 ADD MSTORE MLOAD PUSH1 0x84 DUP4 ADD MSTORE MLOAD PUSH1 0xA4 DUP3 ADD MSTORE PUSH1 0xA4 DUP2 MSTORE DUP1 PUSH1 0xE0 DUP2 ADD LT PUSH8 0xFFFFFFFFFFFFFFFF PUSH1 0xE0 DUP4 ADD GT OR PUSH2 0xECA JUMPI PUSH1 0xE0 DUP2 ADD PUSH1 0x40 DUP2 SWAP1 MSTORE PUSH4 0x468721A7 PUSH1 0xE0 SHL DUP2 MSTORE PUSH1 0x20 SWAP1 PUSH1 0xDF NOT DUP4 PUSH2 0xD79 DUP2 DUP14 PUSH1 0xE4 DUP3 ADD PUSH2 0x1A0E JUMP JUMPDEST SUB ADD PUSH1 0xE0 DUP5 ADD PUSH1 0x0 CALLER GAS CALL SWAP1 DUP2 ISZERO PUSH2 0x475 JUMPI PUSH1 0x0 SWAP2 PUSH2 0xE8A JUMPI JUMPDEST POP ISZERO PUSH2 0xE45 JUMPI PUSH1 0x40 MLOAD PUSH4 0x133F7571 PUSH1 0xE3 SHL DUP2 MSTORE PUSH1 0x24 DUP1 CALLDATALOAD PUSH1 0x4 DUP4 ADD MSTORE PUSH2 0x1A0 SWAP1 DUP3 SWAP1 DUP2 PUSH1 0x1 PUSH1 0x1 PUSH1 0xA0 SHL SUB DUP13 AND GAS STATICCALL SWAP2 DUP3 ISZERO PUSH2 0x475 JUMPI PUSH2 0x97C PUSH2 0x4DC DUP10 PUSH2 0x4C2 SWAP5 DUP10 PUSH2 0x98D SWAP8 PUSH1 0x0 SWAP3 PUSH1 0x0 SWAP1 PUSH1 0x0 SWAP3 PUSH2 0xE08 JUMPI JUMPDEST POP PUSH2 0xDFC SWAP4 SWAP5 PUSH2 0xDF6 SWAP2 PUSH2 0x1CDC JUMP JUMPDEST POP PUSH2 0x1CDC JUMP JUMPDEST POP SWAP6 SWAP4 POP POP POP SWAP2 PUSH2 0x94D JUMP JUMPDEST PUSH2 0xDFC SWAP5 POP PUSH2 0xDF6 SWAP3 POP PUSH2 0xE2D SWAP2 POP PUSH2 0x1A0 RETURNDATASIZE PUSH2 0x1A0 GT PUSH2 0x5CF JUMPI PUSH2 0x5B0 DUP2 DUP4 PUSH2 0x16A1 JUMP JUMPDEST POP SWAP4 SWAP14 SWAP4 SWAP12 POP SWAP10 POP SWAP2 SWAP8 POP PUSH2 0xDE7 SWAP7 POP POP POP POP POP POP POP JUMP JUMPDEST PUSH1 0x40 MLOAD PUSH3 0x461BCD PUSH1 0xE5 SHL DUP2 MSTORE PUSH1 0x20 PUSH1 0x4 DUP3 ADD MSTORE PUSH1 0x19 PUSH1 0x24 DUP3 ADD MSTORE PUSH32 0x4465637265617365206C6971756964697479206661696C656400000000000000 PUSH1 0x44 DUP3 ADD MSTORE PUSH1 0x64 SWAP1 REVERT JUMPDEST SWAP1 POP PUSH1 0x20 DUP2 RETURNDATASIZE PUSH1 0x20 GT PUSH2 0xEC2 JUMPI JUMPDEST DUP2 PUSH2 0xEA8 PUSH1 0x20 SWAP4 PUSH1 0xE0 DUP5 ADD PUSH2 0x16A1 JUMP JUMPDEST DUP2 ADD SUB SLT PUSH2 0x121 JUMPI PUSH1 0xE0 PUSH2 0xEBC SWAP2 ADD PUSH2 0x1A01 JUMP JUMPDEST DUP10 PUSH2 0xD93 JUMP JUMPDEST RETURNDATASIZE SWAP2 POP PUSH2 0xE98 JUMP JUMPDEST PUSH4 0x4E487B71 PUSH1 0xE0 SHL PUSH1 0x0 MSTORE PUSH1 0x41 PUSH1 0x4 MSTORE PUSH1 0x24 PUSH1 0x0 REVERT JUMPDEST SWAP1 SWAP7 POP PUSH1 0x20 DUP2 RETURNDATASIZE PUSH1 0x20 GT PUSH2 0xF13 JUMPI JUMPDEST DUP2 PUSH2 0xEFC PUSH1 0x20 SWAP4 DUP4 PUSH2 0x16A1 JUMP JUMPDEST DUP2 ADD SUB SLT PUSH2 0x121 JUMPI MLOAD SWAP6 PUSH1 0x1 PUSH1 0x1 PUSH1 0x80 SHL SUB PUSH2 0x92F JUMP JUMPDEST RETURNDATASIZE SWAP2 POP PUSH2 0xEEF JUMP JUMPDEST SWAP1 SWAP9 POP PUSH1 0x20 DUP2 RETURNDATASIZE PUSH1 0x20 GT PUSH2 0xF4F JUMPI JUMPDEST DUP2 PUSH2 0xF37 PUSH1 0x20 SWAP4 DUP4 PUSH2 0x16A1 JUMP JUMPDEST DUP2 ADD SUB SLT PUSH2 0x121 JUMPI PUSH2 0xF48 SWAP1 PUSH2 0x1873 JUMP JUMPDEST SWAP8 DUP10 PUSH2 0x8F1 JUMP JUMPDEST RETURNDATASIZE SWAP2 POP PUSH2 0xF2A JUMP JUMPDEST PUSH1 0x40 MLOAD PUSH3 0x461BCD PUSH1 0xE5 SHL DUP2 MSTORE PUSH1 0x20 PUSH1 0x4 DUP3 ADD MSTORE PUSH1 0xC PUSH1 0x24 DUP3 ADD MSTORE PUSH12 0x141BDBDB081B9BDD081CD95D PUSH1 0xA2 SHL PUSH1 0x44 DUP3 ADD MSTORE PUSH1 0x64 SWAP1 REVERT JUMPDEST SWAP5 POP POP POP POP POP PUSH2 0xFAD SWAP2 SWAP3 POP PUSH2 0x1A0 RETURNDATASIZE PUSH2 0x1A0 GT PUSH2 0x5CF JUMPI PUSH2 0x5B0 DUP2 DUP4 PUSH2 0x16A1 JUMP JUMPDEST SWAP9 SWAP8 POP SWAP10 POP SWAP8 SWAP5 POP POP POP SWAP8 SWAP7 POP POP SWAP1 SWAP6 SWAP3 SWAP4 SWAP2 SWAP6 DUP8 PUSH2 0x8A3 JUMP JUMPDEST CALLVALUE PUSH2 0x121 JUMPI PUSH1 0x20 CALLDATASIZE PUSH1 0x3 NOT ADD SLT PUSH2 0x121 JUMPI PUSH2 0xFE0 PUSH2 0x158F JUMP JUMPDEST PUSH2 0xFE8 PUSH2 0x17B1 JUMP JUMPDEST PUSH1 0x1 PUSH1 0x1 PUSH1 0xA0 SHL SUB AND PUSH2 0xFFC DUP2 ISZERO ISZERO PUSH2 0x17DD JUMP JUMPDEST PUSH1 0x0 DUP2 DUP2 MSTORE PUSH1 0x6 PUSH1 0x20 MSTORE PUSH1 0x40 DUP2 KECCAK256 DUP1 SLOAD PUSH1 0xFF NOT AND SWAP1 SSTORE PUSH32 0x3E902A6EE93DD5B2D48BD1009C7701A481BE512B1EF73DBED2F95EA44C59EA88 DUP2 DUP1 LOG3 STOP JUMPDEST CALLVALUE PUSH2 0x121 JUMPI PUSH1 0x0 CALLDATASIZE PUSH1 0x3 NOT ADD SLT PUSH2 0x121 JUMPI PUSH1 0x0 SLOAD PUSH1 0x40 MLOAD PUSH1 0x1 PUSH1 0x1 PUSH1 0xA0 SHL SUB SWAP1 SWAP2 AND DUP2 MSTORE PUSH1 0x20 SWAP1 RETURN JUMPDEST CALLVALUE PUSH2 0x121 JUMPI PUSH1 0x20 CALLDATASIZE PUSH1 0x3 NOT ADD SLT PUSH2 0x121 JUMPI PUSH2 0x107A PUSH2 0x158F JUMP JUMPDEST PUSH2 0x1082 PUSH2 0x17B1 JUMP JUMPDEST PUSH1 0x1 PUSH1 0x1 PUSH1 0xA0 SHL SUB SWAP1 DUP2 AND SWAP1 DUP2 ISZERO PUSH2 0x10D1 JUMPI PUSH1 0x1 SLOAD DUP3 PUSH1 0x1 PUSH1 0x1 PUSH1 0x60 SHL SUB PUSH1 0xA0 SHL DUP3 AND OR PUSH1 0x1 SSTORE AND PUSH32 0x906FF2422A6FFA134F2D7CCAFFD446BC0C583A5CB6615749B4B2836942A5FEA8 PUSH1 0x0 DUP1 LOG3 STOP JUMPDEST PUSH1 0x40 MLOAD PUSH3 0x461BCD PUSH1 0xE5 SHL DUP2 MSTORE PUSH1 0x20 PUSH1 0x4 DUP3 ADD MSTORE PUSH1 0x14 PUSH1 0x24 DUP3 ADD MSTORE PUSH20 0x24B73B30B634B2103932BBB0B932103A37B5B2B7 PUSH1 0x61 SHL PUSH1 0x44 DUP3 ADD MSTORE PUSH1 0x64 SWAP1 REVERT JUMPDEST CALLVALUE PUSH2 0x121 JUMPI PUSH1 0x0 CALLDATASIZE PUSH1 0x3 NOT ADD SLT PUSH2 0x121 JUMPI PUSH2 0x1126 PUSH2 0x17B1 JUMP JUMPDEST PUSH1 0x0 DUP1 SLOAD PUSH1 0x1 PUSH1 0x1 PUSH1 0xA0 SHL SUB NOT DUP2 AND DUP3 SSTORE PUSH1 0x1 PUSH1 0x1 PUSH1 0xA0 SHL SUB AND PUSH32 0x8BE0079C531659141344CD1FD0A4F28419497F9722A3DAAFE3B4186F6B6457E0 DUP3 DUP1 LOG3 STOP JUMPDEST CALLVALUE PUSH2 0x121 JUMPI PUSH1 0x20 CALLDATASIZE PUSH1 0x3 NOT ADD SLT PUSH2 0x121 JUMPI PUSH1 0x1 PUSH1 0x1 PUSH1 0xA0 SHL SUB PUSH2 0x1187 PUSH2 0x158F JUMP JUMPDEST AND PUSH1 0x0 MSTORE PUSH1 0x6 PUSH1 0x20 MSTORE PUSH1 0x20 PUSH1 0xFF PUSH1 0x40 PUSH1 0x0 KECCAK256 SLOAD AND PUSH1 0x40 MLOAD SWAP1 ISZERO ISZERO DUP2 MSTORE RETURN JUMPDEST CALLVALUE PUSH2 0x121 JUMPI PUSH1 0x40 CALLDATASIZE PUSH1 0x3 NOT ADD SLT PUSH2 0x121 JUMPI PUSH2 0x11BE PUSH2 0x158F JUMP JUMPDEST PUSH2 0x11C6 PUSH2 0x15A5 JUMP JUMPDEST SWAP1 PUSH1 0x1 DUP1 PUSH1 0xA0 SHL SUB DUP1 SWAP2 AND PUSH1 0x0 MSTORE PUSH1 0x7 PUSH1 0x20 MSTORE PUSH1 0x40 PUSH1 0x0 KECCAK256 SWAP2 AND PUSH1 0x0 MSTORE PUSH1 0x20 MSTORE PUSH2 0x120A PUSH2 0x11F6 PUSH1 0x40 PUSH1 0x0 KECCAK256 PUSH2 0x16C3 JUMP JUMPDEST PUSH1 0x40 MLOAD SWAP2 DUP3 SWAP2 PUSH1 0x20 DUP4 MSTORE PUSH1 0x20 DUP4 ADD SWAP1 PUSH2 0x178C JUMP JUMPDEST SUB SWAP1 RETURN JUMPDEST CALLVALUE PUSH2 0x121 JUMPI PUSH1 0x60 CALLDATASIZE PUSH1 0x3 NOT ADD SLT PUSH2 0x121 JUMPI PUSH2 0x1227 PUSH2 0x158F JUMP JUMPDEST PUSH2 0x122F PUSH2 0x15A5 JUMP JUMPDEST SWAP1 PUSH1 0x44 CALLDATALOAD SWAP1 PUSH8 0xFFFFFFFFFFFFFFFF SWAP1 DUP2 DUP4 GT PUSH2 0x121 JUMPI CALLDATASIZE PUSH1 0x23 DUP5 ADD SLT ISZERO PUSH2 0x121 JUMPI DUP3 PUSH1 0x4 ADD CALLDATALOAD SWAP2 DUP3 GT PUSH2 0x121 JUMPI PUSH1 0x24 SWAP1 CALLDATASIZE DUP3 DUP5 DUP7 ADD ADD GT PUSH2 0x121 JUMPI PUSH2 0x1272 PUSH2 0x17B1 JUMP JUMPDEST PUSH1 0x1 PUSH1 0x1 PUSH1 0xA0 SHL SUB SWAP1 DUP2 AND SWAP5 DUP6 ISZERO PUSH2 0x141A JUMPI AND SWAP4 DUP5 ISZERO PUSH2 0x13E4 JUMPI DUP3 ISZERO PUSH2 0x13B1 JUMPI PUSH1 0x0 MSTORE PUSH1 0x20 SWAP4 PUSH1 0x7 DUP6 MSTORE PUSH1 0x40 PUSH1 0x0 KECCAK256 SWAP1 PUSH1 0x0 MSTORE DUP5 MSTORE PUSH1 0x40 PUSH1 0x0 KECCAK256 SWAP3 PUSH2 0x12B7 DUP5 SLOAD PUSH2 0x161B JUMP JUMPDEST PUSH1 0x1F DUP2 GT PUSH2 0x136B JUMPI JUMPDEST POP PUSH1 0x0 SWAP5 PUSH1 0x1F DUP5 GT PUSH1 0x1 EQ PUSH2 0x1302 JUMPI POP SWAP4 DUP3 SWAP4 SWAP5 PUSH1 0x0 SWAP4 PUSH2 0x12F5 JUMPI JUMPDEST POP POP POP PUSH1 0x0 NOT PUSH1 0x3 DUP4 SWAP1 SHL SHR NOT AND PUSH1 0x1 SWAP2 SWAP1 SWAP2 SHL OR SWAP1 SSTORE STOP JUMPDEST ADD ADD CALLDATALOAD SWAP1 POP DUP4 DUP1 DUP1 PUSH2 0x12DC JUMP JUMPDEST SWAP2 PUSH1 0x1F NOT DUP5 AND SWAP6 DUP6 PUSH1 0x0 MSTORE DUP4 PUSH1 0x0 KECCAK256 SWAP4 PUSH1 0x0 SWAP1 JUMPDEST DUP9 DUP3 LT PUSH2 0x1351 JUMPI POP POP DUP5 PUSH1 0x1 SWAP7 SWAP8 LT PUSH2 0x1335 JUMPI JUMPDEST POP POP POP POP DUP2 SHL ADD SWAP1 SSTORE STOP JUMPDEST PUSH1 0x0 NOT PUSH1 0xF8 DUP7 PUSH1 0x3 SHL AND SHR NOT SWAP3 ADD ADD CALLDATALOAD AND SWAP1 SSTORE DUP4 DUP1 DUP1 DUP1 PUSH2 0x132A JUMP JUMPDEST DUP1 PUSH1 0x1 DUP5 SWAP8 DUP7 DUP4 SWAP6 SWAP7 DUP10 ADD ADD CALLDATALOAD DUP2 SSTORE ADD SWAP7 ADD SWAP3 ADD SWAP1 PUSH2 0x1316 JUMP JUMPDEST DUP5 PUSH1 0x0 MSTORE DUP6 PUSH1 0x0 KECCAK256 PUSH1 0x1F DUP6 ADD PUSH1 0x5 SHR DUP2 ADD SWAP2 DUP8 DUP7 LT PUSH2 0x13A7 JUMPI JUMPDEST PUSH1 0x1F ADD PUSH1 0x5 SHR ADD SWAP1 JUMPDEST DUP2 DUP2 LT PUSH2 0x139B JUMPI POP PUSH2 0x12C0 JUMP JUMPDEST PUSH1 0x0 DUP2 SSTORE PUSH1 0x1 ADD PUSH2 0x138E JUMP JUMPDEST SWAP1 SWAP2 POP DUP2 SWAP1 PUSH2 0x1385 JUMP JUMPDEST PUSH1 0x40 MLOAD PUSH3 0x461BCD PUSH1 0xE5 SHL DUP2 MSTORE PUSH1 0x20 PUSH1 0x4 DUP3 ADD MSTORE PUSH1 0xC DUP2 DUP5 ADD MSTORE PUSH12 0x92DCECC2D8D2C840E0C2E8D PUSH1 0xA3 SHL PUSH1 0x44 DUP3 ADD MSTORE PUSH1 0x64 SWAP1 REVERT JUMPDEST PUSH1 0x40 MLOAD PUSH3 0x461BCD PUSH1 0xE5 SHL DUP2 MSTORE PUSH1 0x20 PUSH1 0x4 DUP3 ADD MSTORE PUSH1 0xF DUP2 DUP5 ADD MSTORE PUSH15 0x24B73B30B634B2103A37AA37B5B2B7 PUSH1 0x89 SHL PUSH1 0x44 DUP3 ADD MSTORE PUSH1 0x64 SWAP1 REVERT JUMPDEST PUSH1 0x40 MLOAD PUSH3 0x461BCD PUSH1 0xE5 SHL DUP2 MSTORE PUSH1 0x20 PUSH1 0x4 DUP3 ADD MSTORE PUSH1 0x11 DUP2 DUP6 ADD MSTORE PUSH17 0x24B73B30B634B210333937B6AA37B5B2B7 PUSH1 0x79 SHL PUSH1 0x44 DUP3 ADD MSTORE PUSH1 0x64 SWAP1 REVERT JUMPDEST CALLVALUE PUSH2 0x121 JUMPI PUSH2 0x1460 CALLDATASIZE PUSH2 0x15BB JUMP JUMPDEST PUSH2 0x146B ADDRESS CALLER EQ PUSH2 0x2275 JUMP JUMPDEST PUSH1 0x1 PUSH1 0x1 PUSH1 0xA0 SHL SUB DUP4 AND PUSH1 0x0 SWAP1 DUP2 MSTORE PUSH1 0x6 PUSH1 0x20 MSTORE PUSH1 0x40 SWAP1 KECCAK256 SLOAD PUSH2 0x1490 SWAP1 PUSH1 0xFF AND PUSH2 0x22B9 JUMP JUMPDEST PUSH1 0x0 JUMPDEST DUP2 DUP2 LT PUSH2 0x149C JUMPI STOP JUMPDEST PUSH2 0x14A7 DUP2 DUP4 DUP6 PUSH2 0x230B JUMP JUMPDEST CALLDATALOAD SWAP1 ADDRESS EXTCODESIZE ISZERO PUSH2 0x121 JUMPI PUSH1 0x40 MLOAD PUSH4 0x563703F7 PUSH1 0xE1 SHL DUP2 MSTORE PUSH1 0x1 PUSH1 0x1 PUSH1 0xA0 SHL SUB DUP7 AND PUSH1 0x4 DUP3 ADD MSTORE PUSH1 0x24 DUP2 ADD SWAP3 SWAP1 SWAP3 MSTORE PUSH1 0x0 DUP3 PUSH1 0x44 DUP2 DUP4 ADDRESS GAS CALL SWAP2 DUP3 ISZERO PUSH2 0x475 JUMPI PUSH2 0x14F3 SWAP3 PUSH2 0x80E JUMPI POP PUSH2 0x22FC JUMP JUMPDEST PUSH2 0x1493 JUMP JUMPDEST CALLVALUE PUSH2 0x121 JUMPI PUSH1 0x20 CALLDATASIZE PUSH1 0x3 NOT ADD SLT PUSH2 0x121 JUMPI PUSH1 0x4 CALLDATALOAD PUSH2 0x1514 PUSH2 0x17B1 JUMP JUMPDEST PUSH2 0x3E8 DUP2 GT PUSH2 0x1556 JUMPI PUSH1 0x40 PUSH32 0xDDD31550B26E9EF8ADE466958BE83FF8A014D9B4F36D546B61A6847A45306575 SWAP2 PUSH1 0x5 SLOAD SWAP1 DUP1 PUSH1 0x5 SSTORE DUP3 MLOAD SWAP2 DUP3 MSTORE PUSH1 0x20 DUP3 ADD MSTORE LOG1 STOP JUMPDEST PUSH1 0x40 MLOAD PUSH3 0x461BCD PUSH1 0xE5 SHL DUP2 MSTORE PUSH1 0x20 PUSH1 0x4 DUP3 ADD MSTORE PUSH1 0x11 PUSH1 0x24 DUP3 ADD MSTORE PUSH17 0xA6D8D2E0E0C2CECA40E8DEDE40D0D2CED PUSH1 0x7B SHL PUSH1 0x44 DUP3 ADD MSTORE PUSH1 0x64 SWAP1 REVERT JUMPDEST PUSH1 0x4 CALLDATALOAD SWAP1 PUSH1 0x1 PUSH1 0x1 PUSH1 0xA0 SHL SUB DUP3 AND DUP3 SUB PUSH2 0x121 JUMPI JUMP JUMPDEST PUSH1 0x24 CALLDATALOAD SWAP1 PUSH1 0x1 PUSH1 0x1 PUSH1 0xA0 SHL SUB DUP3 AND DUP3 SUB PUSH2 0x121 JUMPI JUMP JUMPDEST PUSH1 0x40 PUSH1 0x3 NOT DUP3 ADD SLT PUSH2 0x121 JUMPI PUSH1 0x4 CALLDATALOAD PUSH1 0x1 PUSH1 0x1 PUSH1 0xA0 SHL SUB DUP2 AND DUP2 SUB PUSH2 0x121 JUMPI SWAP2 PUSH1 0x24 CALLDATALOAD PUSH8 0xFFFFFFFFFFFFFFFF SWAP3 DUP4 DUP3 GT PUSH2 0x121 JUMPI DUP1 PUSH1 0x23 DUP4 ADD SLT ISZERO PUSH2 0x121 JUMPI DUP2 PUSH1 0x4 ADD CALLDATALOAD SWAP4 DUP5 GT PUSH2 0x121 JUMPI PUSH1 0x24 DUP5 PUSH1 0x5 SHL DUP4 ADD ADD GT PUSH2 0x121 JUMPI PUSH1 0x24 ADD SWAP2 SWAP1 JUMP JUMPDEST SWAP1 PUSH1 0x1 DUP3 DUP2 SHR SWAP3 AND DUP1 ISZERO PUSH2 0x164B JUMPI JUMPDEST PUSH1 0x20 DUP4 LT EQ PUSH2 0x1635 JUMPI JUMP JUMPDEST PUSH4 0x4E487B71 PUSH1 0xE0 SHL PUSH1 0x0 MSTORE PUSH1 0x22 PUSH1 0x4 MSTORE PUSH1 0x24 PUSH1 0x0 REVERT JUMPDEST SWAP2 PUSH1 0x7F AND SWAP2 PUSH2 0x162A JUMP JUMPDEST PUSH8 0xFFFFFFFFFFFFFFFF DUP2 GT PUSH2 0xECA JUMPI PUSH1 0x40 MSTORE JUMP JUMPDEST PUSH1 0xA0 DUP2 ADD SWAP1 DUP2 LT PUSH8 0xFFFFFFFFFFFFFFFF DUP3 GT OR PUSH2 0xECA JUMPI PUSH1 0x40 MSTORE JUMP JUMPDEST PUSH1 0x60 DUP2 ADD SWAP1 DUP2 LT PUSH8 0xFFFFFFFFFFFFFFFF DUP3 GT OR PUSH2 0xECA JUMPI PUSH1 0x40 MSTORE JUMP JUMPDEST SWAP1 PUSH1 0x1F DUP1 NOT SWAP2 ADD AND DUP2 ADD SWAP1 DUP2 LT PUSH8 0xFFFFFFFFFFFFFFFF DUP3 GT OR PUSH2 0xECA JUMPI PUSH1 0x40 MSTORE JUMP JUMPDEST SWAP1 PUSH1 0x40 MLOAD SWAP2 DUP3 PUSH1 0x0 DUP3 SLOAD SWAP3 PUSH2 0x16D7 DUP5 PUSH2 0x161B JUMP JUMPDEST SWAP1 DUP2 DUP5 MSTORE PUSH1 0x1 SWAP5 DUP6 DUP2 AND SWAP1 DUP2 PUSH1 0x0 EQ PUSH2 0x1746 JUMPI POP PUSH1 0x1 EQ PUSH2 0x1703 JUMPI JUMPDEST POP POP PUSH2 0x1701 SWAP3 POP SUB DUP4 PUSH2 0x16A1 JUMP JUMPDEST JUMP JUMPDEST SWAP1 SWAP4 SWAP2 POP PUSH1 0x0 MSTORE PUSH1 0x20 SWAP1 DUP2 PUSH1 0x0 KECCAK256 SWAP4 PUSH1 0x0 SWAP2 JUMPDEST DUP2 DUP4 LT PUSH2 0x172E JUMPI POP POP PUSH2 0x1701 SWAP4 POP DUP3 ADD ADD CODESIZE DUP1 PUSH2 0x16F3 JUMP JUMPDEST DUP6 SLOAD DUP9 DUP5 ADD DUP6 ADD MSTORE SWAP5 DUP6 ADD SWAP5 DUP8 SWAP5 POP SWAP2 DUP4 ADD SWAP2 PUSH2 0x1716 JUMP JUMPDEST SWAP2 POP POP PUSH2 0x1701 SWAP5 POP PUSH1 0x20 SWAP3 POP PUSH1 0xFF NOT AND DUP3 DUP5 ADD MSTORE ISZERO ISZERO PUSH1 0x5 SHL DUP3 ADD ADD CODESIZE DUP1 PUSH2 0x16F3 JUMP JUMPDEST PUSH1 0x0 JUMPDEST DUP4 DUP2 LT PUSH2 0x177C JUMPI POP POP PUSH1 0x0 SWAP2 ADD MSTORE JUMP JUMPDEST DUP2 DUP2 ADD MLOAD DUP4 DUP3 ADD MSTORE PUSH1 0x20 ADD PUSH2 0x176C JUMP JUMPDEST SWAP1 PUSH1 0x20 SWAP2 PUSH2 0x17A5 DUP2 MLOAD DUP1 SWAP3 DUP2 DUP6 MSTORE DUP6 DUP1 DUP7 ADD SWAP2 ADD PUSH2 0x1769 JUMP JUMPDEST PUSH1 0x1F ADD PUSH1 0x1F NOT AND ADD ADD SWAP1 JUMP JUMPDEST PUSH1 0x0 SLOAD PUSH1 0x1 PUSH1 0x1 PUSH1 0xA0 SHL SUB AND CALLER SUB PUSH2 0x17C5 JUMPI JUMP JUMPDEST PUSH1 0x40 MLOAD PUSH4 0x118CDAA7 PUSH1 0xE0 SHL DUP2 MSTORE CALLER PUSH1 0x4 DUP3 ADD MSTORE PUSH1 0x24 SWAP1 REVERT JUMPDEST ISZERO PUSH2 0x17E4 JUMPI JUMP JUMPDEST PUSH1 0x40 MLOAD PUSH3 0x461BCD PUSH1 0xE5 SHL DUP2 MSTORE PUSH1 0x20 PUSH1 0x4 DUP3 ADD MSTORE PUSH1 0xF PUSH1 0x24 DUP3 ADD MSTORE PUSH15 0x24B73B30B634B21036B0B730B3B2B9 PUSH1 0x89 SHL PUSH1 0x44 DUP3 ADD MSTORE PUSH1 0x64 SWAP1 REVERT JUMPDEST ISZERO PUSH2 0x1822 JUMPI JUMP JUMPDEST PUSH1 0x40 MLOAD PUSH3 0x461BCD PUSH1 0xE5 SHL DUP2 MSTORE PUSH1 0x20 PUSH1 0x4 DUP3 ADD MSTORE PUSH1 0x24 DUP1 DUP3 ADD MSTORE PUSH32 0x4D616E61676572206E6F7420617070726F76656420666F722074686973206D6F PUSH1 0x44 DUP3 ADD MSTORE PUSH4 0x64756C65 PUSH1 0xE0 SHL PUSH1 0x64 DUP3 ADD MSTORE PUSH1 0x84 SWAP1 REVERT JUMPDEST MLOAD SWAP1 PUSH1 0x1 PUSH1 0x1 PUSH1 0xA0 SHL SUB DUP3 AND DUP3 SUB PUSH2 0x121 JUMPI JUMP JUMPDEST MLOAD SWAP1 DUP2 PUSH1 0x2 SIGNEXTEND DUP3 SUB PUSH2 0x121 JUMPI JUMP JUMPDEST MLOAD SWAP1 PUSH1 0x1 PUSH1 0x1 PUSH1 0x80 SHL SUB DUP3 AND DUP3 SUB PUSH2 0x121 JUMPI JUMP JUMPDEST SWAP1 DUP2 PUSH2 0x1A0 SWAP2 SUB SLT PUSH2 0x121 JUMPI DUP1 MLOAD PUSH1 0x1 PUSH1 0x1 PUSH1 0x60 SHL SUB DUP2 AND DUP2 SUB PUSH2 0x121 JUMPI SWAP2 PUSH2 0x18D4 PUSH1 0x20 DUP4 ADD PUSH2 0x1873 JUMP JUMPDEST SWAP2 PUSH2 0x18E1 PUSH1 0x40 DUP3 ADD PUSH2 0x1873 JUMP JUMPDEST SWAP2 PUSH2 0x18EE PUSH1 0x60 DUP4 ADD PUSH2 0x1873 JUMP JUMPDEST SWAP2 PUSH2 0x18FB PUSH1 0x80 DUP3 ADD PUSH2 0x1887 JUMP JUMPDEST SWAP2 PUSH2 0x1908 PUSH1 0xA0 DUP4 ADD PUSH2 0x1887 JUMP JUMPDEST SWAP2 PUSH2 0x1915 PUSH1 0xC0 DUP3 ADD PUSH2 0x1887 JUMP JUMPDEST SWAP2 PUSH2 0x1922 PUSH1 0xE0 DUP4 ADD PUSH2 0x1895 JUMP JUMPDEST SWAP2 PUSH2 0x100 DUP2 ADD MLOAD SWAP2 PUSH2 0x120 DUP3 ADD MLOAD SWAP2 PUSH2 0x193E PUSH2 0x140 DUP3 ADD PUSH2 0x1895 JUMP JUMPDEST SWAP2 PUSH2 0x1959 PUSH2 0x180 PUSH2 0x1952 PUSH2 0x160 DUP6 ADD PUSH2 0x1895 JUMP JUMPDEST SWAP4 ADD PUSH2 0x1873 JUMP JUMPDEST SWAP1 JUMP JUMPDEST ISZERO PUSH2 0x1963 JUMPI JUMP JUMPDEST PUSH1 0x40 MLOAD PUSH3 0x461BCD PUSH1 0xE5 SHL DUP2 MSTORE PUSH1 0x20 PUSH1 0x4 DUP3 ADD MSTORE PUSH1 0x12 PUSH1 0x24 DUP3 ADD MSTORE PUSH18 0x151BDAD95B8C081CDDD85C0819985A5B1959 PUSH1 0x72 SHL PUSH1 0x44 DUP3 ADD MSTORE PUSH1 0x64 SWAP1 REVERT JUMPDEST ISZERO PUSH2 0x19A4 JUMPI JUMP JUMPDEST PUSH1 0x40 MLOAD PUSH3 0x461BCD PUSH1 0xE5 SHL DUP2 MSTORE PUSH1 0x20 PUSH1 0x4 DUP3 ADD MSTORE PUSH1 0x12 PUSH1 0x24 DUP3 ADD MSTORE PUSH18 0x151BDAD95B8C481CDDD85C0819985A5B1959 PUSH1 0x72 SHL PUSH1 0x44 DUP3 ADD MSTORE PUSH1 0x64 SWAP1 REVERT JUMPDEST SWAP2 SWAP1 DUP3 SUB SWAP2 DUP3 GT PUSH2 0x19EB JUMPI JUMP JUMPDEST PUSH4 0x4E487B71 PUSH1 0xE0 SHL PUSH1 0x0 MSTORE PUSH1 0x11 PUSH1 0x4 MSTORE PUSH1 0x24 PUSH1 0x0 REVERT JUMPDEST MLOAD SWAP1 DUP2 ISZERO ISZERO DUP3 SUB PUSH2 0x121 JUMPI JUMP JUMPDEST SWAP3 SWAP2 PUSH2 0x1A3A PUSH1 0x60 SWAP2 PUSH1 0x0 SWAP4 PUSH1 0x1 DUP1 PUSH1 0xA0 SHL SUB AND DUP7 MSTORE DUP4 PUSH1 0x20 DUP8 ADD MSTORE PUSH1 0x80 PUSH1 0x40 DUP8 ADD MSTORE PUSH1 0x80 DUP7 ADD SWAP1 PUSH2 0x178C JUMP JUMPDEST SWAP4 ADD MSTORE JUMP JUMPDEST ISZERO PUSH2 0x1A46 JUMPI JUMP JUMPDEST PUSH1 0x40 MLOAD PUSH3 0x461BCD PUSH1 0xE5 SHL DUP2 MSTORE PUSH1 0x20 PUSH1 0x4 DUP3 ADD MSTORE PUSH1 0x15 PUSH1 0x24 DUP3 ADD MSTORE PUSH21 0x14DDD85C081D1BC81CDD18589B194819985A5B1959 PUSH1 0x5A SHL PUSH1 0x44 DUP3 ADD MSTORE PUSH1 0x64 SWAP1 REVERT JUMPDEST SWAP2 PUSH1 0x1 PUSH1 0x1 PUSH1 0xA0 SHL SUB SWAP2 DUP3 DUP2 AND SWAP2 SWAP1 DUP3 ISZERO PUSH2 0x1CA7 JUMPI PUSH1 0x40 DUP1 MLOAD PUSH4 0xC69DEEC5 PUSH1 0xE0 SHL DUP2 MSTORE DUP6 DUP8 AND PUSH1 0x1 PUSH1 0x1 PUSH1 0xA0 SHL SUB DUP2 AND PUSH1 0x4 DUP4 ADD MSTORE PUSH1 0x24 DUP3 ADD DUP6 SWAP1 MSTORE PUSH1 0x20 SWAP5 SWAP3 SWAP4 SWAP1 SWAP3 SWAP1 SWAP2 DUP6 DUP2 PUSH1 0x44 DUP2 DUP11 GAS STATICCALL SWAP1 DUP2 ISZERO PUSH2 0x1C67 JUMPI PUSH1 0x0 SWAP2 PUSH2 0x1C72 JUMPI JUMPDEST POP DUP5 MLOAD PUSH4 0x3E491D47 PUSH1 0xE0 SHL DUP2 MSTORE PUSH1 0x1 PUSH1 0x1 PUSH1 0xA0 SHL SUB DUP6 AND PUSH1 0x4 DUP3 ADD MSTORE PUSH1 0x24 DUP2 ADD DUP4 SWAP1 MSTORE SWAP7 DUP7 SWAP1 DUP9 SWAP1 PUSH1 0x44 SWAP1 DUP3 SWAP1 GAS STATICCALL SWAP7 DUP8 ISZERO PUSH2 0x1C67 JUMPI PUSH1 0x0 SWAP8 PUSH2 0x1C38 JUMPI JUMPDEST POP DUP1 ISZERO PUSH2 0x1C2D JUMPI PUSH2 0x1B4A JUMPI JUMPDEST POP POP POP POP POP DUP1 PUSH2 0x1B38 JUMPI POP POP POP JUMP JUMPDEST PUSH2 0x1701 SWAP3 PUSH2 0x3EE SWAP3 PUSH1 0x1 SLOAD AND SWAP1 PUSH2 0x1ECF JUMP JUMPDEST PUSH2 0x1B8E SWAP3 DUP6 SWAP3 DUP6 MLOAD SWAP3 PUSH4 0x2E1A7D4D PUSH1 0xE0 SHL DUP6 DUP6 ADD MSTORE PUSH1 0x24 DUP5 ADD MSTORE PUSH1 0x24 DUP4 MSTORE PUSH2 0x1B71 DUP4 PUSH2 0x1685 JUMP JUMPDEST PUSH1 0x0 DUP7 MLOAD DUP1 SWAP7 DUP2 SWAP6 DUP3 SWAP5 PUSH4 0x468721A7 PUSH1 0xE0 SHL DUP5 MSTORE PUSH1 0x4 DUP5 ADD PUSH2 0x1A0E JUMP JUMPDEST SUB SWAP3 GAS CALL SWAP1 DUP2 ISZERO PUSH2 0x1C22 JUMPI PUSH1 0x0 SWAP2 PUSH2 0x1BEA JUMPI JUMPDEST POP ISZERO PUSH2 0x1BAF JUMPI DUP1 DUP1 DUP1 PUSH2 0x1B29 JUMP JUMPDEST PUSH1 0x64 SWAP3 POP MLOAD SWAP1 PUSH3 0x461BCD PUSH1 0xE5 SHL DUP3 MSTORE PUSH1 0x4 DUP3 ADD MSTORE PUSH1 0x15 PUSH1 0x24 DUP3 ADD MSTORE PUSH21 0x11D85D59D9481DDA5D1A191C985DC819985A5B1959 PUSH1 0x5A SHL PUSH1 0x44 DUP3 ADD MSTORE REVERT JUMPDEST SWAP1 DUP4 DUP3 DUP2 RETURNDATASIZE DUP4 GT PUSH2 0x1C1B JUMPI JUMPDEST PUSH2 0x1C00 DUP2 DUP4 PUSH2 0x16A1 JUMP JUMPDEST DUP2 ADD SUB SLT PUSH2 0x1C18 JUMPI POP PUSH2 0x1C12 SWAP1 PUSH2 0x1A01 JUMP JUMPDEST CODESIZE PUSH2 0x1BA1 JUMP JUMPDEST DUP1 REVERT JUMPDEST POP RETURNDATASIZE PUSH2 0x1BF6 JUMP JUMPDEST DUP3 MLOAD RETURNDATASIZE PUSH1 0x0 DUP3 RETURNDATACOPY RETURNDATASIZE SWAP1 REVERT JUMPDEST POP POP POP POP POP POP POP POP POP JUMP JUMPDEST SWAP1 SWAP7 DUP7 DUP3 DUP2 RETURNDATASIZE DUP4 GT PUSH2 0x1C60 JUMPI JUMPDEST PUSH2 0x1C4F DUP2 DUP4 PUSH2 0x16A1 JUMP JUMPDEST DUP2 ADD SUB SLT PUSH2 0x1C18 JUMPI POP MLOAD SWAP6 CODESIZE PUSH2 0x1B1D JUMP JUMPDEST POP RETURNDATASIZE PUSH2 0x1C45 JUMP JUMPDEST DUP6 MLOAD RETURNDATASIZE PUSH1 0x0 DUP3 RETURNDATACOPY RETURNDATASIZE SWAP1 REVERT JUMPDEST SWAP1 DUP7 DUP3 DUP2 RETURNDATASIZE DUP4 GT PUSH2 0x1CA0 JUMPI JUMPDEST PUSH2 0x1C88 DUP2 DUP4 PUSH2 0x16A1 JUMP JUMPDEST DUP2 ADD SUB SLT PUSH2 0x1C18 JUMPI POP PUSH2 0x1C9A SWAP1 PUSH2 0x1A01 JUMP JUMPDEST CODESIZE PUSH2 0x1ADF JUMP JUMPDEST POP RETURNDATASIZE PUSH2 0x1C7E JUMP JUMPDEST PUSH1 0x40 MLOAD PUSH3 0x461BCD PUSH1 0xE5 SHL DUP2 MSTORE PUSH1 0x20 PUSH1 0x4 DUP3 ADD MSTORE PUSH1 0xD PUSH1 0x24 DUP3 ADD MSTORE PUSH13 0x496E76616C6964206761756765 PUSH1 0x98 SHL PUSH1 0x44 DUP3 ADD MSTORE PUSH1 0x64 SWAP1 REVERT JUMPDEST PUSH1 0x1 PUSH1 0x1 PUSH1 0x80 SHL SUB SWAP2 DUP3 AND SWAP1 DUP3 AND SUB SWAP2 SWAP1 DUP3 GT PUSH2 0x19EB JUMPI JUMP JUMPDEST PUSH1 0x40 DUP1 MLOAD SWAP4 SWAP1 SWAP3 PUSH1 0x1 PUSH1 0x1 PUSH1 0xA0 SHL SUB SWAP3 SWAP1 SWAP2 PUSH8 0xFFFFFFFFFFFFFFFF SWAP2 DUP5 AND SWAP1 PUSH1 0x80 DUP8 ADD DUP4 DUP2 GT DUP9 DUP3 LT OR PUSH2 0xECA JUMPI DUP7 MSTORE DUP7 MSTORE PUSH1 0x20 SWAP4 DUP5 DUP8 ADD DUP3 DUP2 MSTORE DUP7 DUP9 ADD SWAP2 PUSH1 0x1 PUSH1 0x1 PUSH1 0x80 SHL SUB SWAP3 DUP4 SWAP2 DUP3 DUP3 MSTORE PUSH1 0x60 DUP12 ADD SWAP4 DUP4 DUP6 MSTORE DUP11 MLOAD SWAP12 DUP13 DUP12 PUSH4 0xFC6F7865 PUSH1 0xE0 SHL SWAP2 ADD MSTORE MLOAD PUSH1 0x24 DUP14 ADD MSTORE MLOAD AND PUSH1 0x44 DUP12 ADD MSTORE MLOAD AND PUSH1 0x64 DUP10 ADD MSTORE MLOAD AND PUSH1 0x84 DUP8 ADD MSTORE PUSH1 0x84 DUP7 MSTORE PUSH1 0xC0 DUP7 ADD SWAP3 DUP7 DUP5 LT DUP4 DUP6 GT OR PUSH2 0xECA JUMPI DUP4 DUP1 SWAP3 DUP2 DUP9 MSTORE PUSH4 0x5229073F PUSH1 0xE0 SHL DUP3 MSTORE PUSH1 0x0 SWAP6 DUP7 DUP1 SWAP5 DUP12 PUSH2 0x1DB1 DUP2 PUSH1 0xBF NOT SWAP4 PUSH1 0xC4 DUP3 ADD PUSH2 0x1A0E JUMP JUMPDEST SUB ADD SWAP3 GAS CALL SWAP6 DUP7 ISZERO PUSH2 0x1EC5 JUMPI DUP4 SWAP3 DUP5 SWAP8 PUSH2 0x1E19 JUMPI JUMPDEST POP POP POP ISZERO PUSH2 0x1DE5 JUMPI DUP3 DUP5 DUP1 MLOAD DUP2 ADD SUB SLT PUSH2 0x1C18 JUMPI POP DUP3 ADD MLOAD SWAP2 ADD MLOAD SWAP1 SWAP2 JUMP JUMPDEST POP PUSH1 0x64 SWAP2 MLOAD SWAP1 PUSH3 0x461BCD PUSH1 0xE5 SHL DUP3 MSTORE PUSH1 0x4 DUP3 ADD MSTORE PUSH1 0xE PUSH1 0x24 DUP3 ADD MSTORE PUSH14 0x10DBDB1B1958DD0819985A5B1959 PUSH1 0x92 SHL PUSH1 0x44 DUP3 ADD MSTORE REVERT JUMPDEST SWAP2 SWAP7 POP SWAP2 POP RETURNDATASIZE DUP1 DUP5 DUP9 RETURNDATACOPY PUSH2 0x1E2D DUP2 DUP9 PUSH2 0x16A1 JUMP JUMPDEST DUP3 ADD SWAP6 DUP6 DUP4 PUSH1 0xC0 DUP10 ADD SWAP9 SUB SLT PUSH2 0x1EA9 JUMPI PUSH2 0x1E46 SWAP1 PUSH2 0x1A01 JUMP JUMPDEST SWAP2 PUSH1 0xE0 DUP2 ADD MLOAD SWAP1 DUP3 DUP3 GT PUSH2 0x1EC1 JUMPI ADD DUP7 PUSH1 0xDF DUP3 ADD SLT ISZERO PUSH2 0x1EA9 JUMPI PUSH1 0xC0 DUP2 ADD MLOAD SWAP2 DUP3 GT PUSH2 0x1EAD JUMPI DUP6 MLOAD SWAP7 PUSH2 0x1E82 PUSH1 0x1F DUP5 ADD PUSH1 0x1F NOT AND DUP8 ADD DUP10 PUSH2 0x16A1 JUMP JUMPDEST DUP3 DUP9 MSTORE PUSH1 0xE0 DUP4 DUP4 ADD ADD GT PUSH2 0x1EA9 JUMPI SWAP1 PUSH2 0x1EA1 SWAP2 PUSH1 0xE0 DUP7 DUP10 ADD SWAP2 ADD PUSH2 0x1769 JUMP JUMPDEST CODESIZE DUP1 DUP1 PUSH2 0x1DC6 JUMP JUMPDEST DUP4 DUP1 REVERT JUMPDEST PUSH4 0x4E487B71 PUSH1 0xE0 SHL DUP5 MSTORE PUSH1 0x41 PUSH1 0x4 MSTORE PUSH1 0x24 DUP5 REVERT JUMPDEST DUP5 DUP1 REVERT JUMPDEST DUP6 MLOAD RETURNDATASIZE DUP6 DUP3 RETURNDATACOPY RETURNDATASIZE SWAP1 REVERT JUMPDEST SWAP2 DUP1 ISZERO PUSH2 0x21FE JUMPI PUSH1 0x2 SLOAD PUSH1 0x1 PUSH1 0x1 PUSH1 0xA0 SHL SUB SWAP4 SWAP1 DUP5 AND DUP4 DUP6 AND DUP2 EQ PUSH2 0x21F4 JUMPI PUSH2 0x1EF8 SWAP1 DUP5 PUSH2 0x2206 JUMP JUMPDEST DUP5 PUSH1 0x3 SLOAD AND SWAP2 PUSH1 0x40 SWAP6 DUP7 MLOAD SWAP2 PUSH1 0x20 SWAP5 PUSH4 0x95EA7B3 PUSH1 0xE0 SHL DUP7 DUP6 ADD MSTORE DUP3 DUP5 PUSH2 0x1F39 DUP10 PUSH1 0x24 SWAP5 DUP6 DUP5 ADD PUSH1 0x20 SWAP1 SWAP4 SWAP3 SWAP2 SWAP4 PUSH1 0x40 DUP2 ADD SWAP5 PUSH1 0x1 DUP1 PUSH1 0xA0 SHL SUB AND DUP2 MSTORE ADD MSTORE JUMP JUMPDEST SUB SWAP3 PUSH2 0x1F4D PUSH1 0x1F NOT SWAP5 DUP6 DUP2 ADD DUP9 MSTORE DUP8 PUSH2 0x16A1 JUMP JUMPDEST AND SWAP5 DUP10 MLOAD SWAP8 PUSH4 0x468721A7 PUSH1 0xE0 SHL SWAP10 DUP11 DUP11 MSTORE DUP10 DUP10 DUP2 DUP1 PUSH2 0x1F71 PUSH1 0x4 SWAP12 DUP7 DUP14 DUP5 ADD PUSH2 0x1A0E JUMP JUMPDEST SUB PUSH1 0x0 SWAP14 DUP15 DUP14 GAS CALL SWAP1 DUP2 ISZERO PUSH2 0x21EA JUMPI DUP12 SWAP2 PUSH2 0x21B1 JUMPI JUMPDEST POP ISZERO PUSH2 0x2177 JUMPI SWAP1 DUP9 PUSH2 0x1FA1 PUSH2 0x1FC9 SWAP4 DUP9 PUSH1 0x2 SLOAD AND SWAP1 PUSH2 0x2206 JUMP JUMPDEST DUP14 DUP9 DUP11 SLOAD AND SWAP1 DUP14 DUP12 DUP3 MLOAD SWAP8 DUP9 SWAP6 DUP7 SWAP5 DUP6 SWAP4 PUSH4 0xCDCA1753 PUSH1 0xE0 SHL DUP6 MSTORE DUP5 ADD MSTORE PUSH1 0x44 DUP4 ADD SWAP1 PUSH2 0x178C JUMP JUMPDEST DUP8 DUP12 DUP4 ADD MSTORE SUB SWAP3 GAS CALL SWAP2 DUP3 ISZERO PUSH2 0x216D JUMPI DUP11 SWAP3 PUSH2 0x213A JUMPI JUMPDEST POP PUSH1 0x5 SLOAD SWAP3 PUSH2 0x2710 SWAP4 DUP5 SUB SWAP3 DUP5 DUP5 GT PUSH2 0x2116 JUMPI DUP4 DUP2 MUL SWAP4 DUP2 DUP6 DIV EQ SWAP1 ISZERO OR ISZERO PUSH2 0x2128 JUMPI PUSH2 0x12C TIMESTAMP ADD SWAP1 DUP2 TIMESTAMP GT PUSH2 0x2116 JUMPI SWAP3 DUP12 SWAP6 SWAP3 DUP9 SWAP6 SWAP3 DUP16 SWAP10 DUP14 SWAP13 SWAP11 SWAP7 DUP8 DUP15 SWAP14 SWAP12 SWAP9 MLOAD SWAP2 PUSH2 0x202D DUP4 PUSH2 0x1669 JUMP JUMPDEST DUP3 MSTORE DUP14 DUP3 ADD SWAP7 DUP14 DUP9 MSTORE DUP2 DUP4 ADD SWAP5 DUP6 MSTORE PUSH1 0x60 DUP4 ADD SWAP6 DUP7 MSTORE PUSH1 0x80 DUP4 ADD SWAP7 DIV DUP7 MSTORE MLOAD SWAP13 DUP14 SWAP8 PUSH4 0xC04B8D59 PUSH1 0xE0 SHL DUP3 DUP11 ADD MSTORE DUP9 ADD MSTORE MLOAD PUSH1 0x44 DUP8 ADD PUSH1 0xA0 SWAP1 MSTORE PUSH1 0xE4 DUP8 ADD PUSH2 0x2074 SWAP2 PUSH2 0x178C JUMP JUMPDEST SWAP5 MLOAD AND PUSH1 0x64 DUP7 ADD MSTORE MLOAD PUSH1 0x84 DUP6 ADD MSTORE MLOAD PUSH1 0xA4 DUP5 ADD MSTORE MLOAD PUSH1 0xC4 DUP4 ADD MSTORE SUB SWAP1 DUP2 ADD DUP7 MSTORE PUSH2 0x209E SWAP1 DUP7 PUSH2 0x16A1 JUMP JUMPDEST PUSH1 0x3 SLOAD DUP11 MLOAD SWAP10 DUP11 MSTORE DUP10 SWAP6 DUP7 SWAP5 DUP6 SWAP4 PUSH2 0x20B9 SWAP4 AND SWAP1 DUP5 ADD PUSH2 0x1A0E JUMP JUMPDEST SUB SWAP3 GAS CALL SWAP4 DUP5 ISZERO PUSH2 0x210B JUMPI POP DUP2 SWAP4 PUSH2 0x20D2 JUMPI JUMPDEST POP POP POP SWAP1 JUMP JUMPDEST SWAP1 SWAP2 DUP1 SWAP4 POP DUP2 RETURNDATASIZE DUP4 GT PUSH2 0x2104 JUMPI JUMPDEST PUSH2 0x20EA DUP2 DUP4 PUSH2 0x16A1 JUMP JUMPDEST DUP2 ADD SUB SLT PUSH2 0x1C18 JUMPI POP PUSH2 0x20FC SWAP1 PUSH2 0x1A01 JUMP JUMPDEST CODESIZE DUP1 DUP1 PUSH2 0x20CC JUMP JUMPDEST POP RETURNDATASIZE PUSH2 0x20E0 JUMP JUMPDEST MLOAD SWAP2 RETURNDATASIZE SWAP2 POP DUP3 RETURNDATACOPY RETURNDATASIZE SWAP1 REVERT JUMPDEST PUSH4 0x4E487B71 PUSH1 0xE0 SHL DUP13 MSTORE PUSH1 0x11 DUP10 MSTORE DUP6 DUP13 REVERT JUMPDEST PUSH4 0x4E487B71 PUSH1 0xE0 SHL DUP12 MSTORE PUSH1 0x11 DUP9 MSTORE DUP5 DUP12 REVERT JUMPDEST SWAP1 SWAP2 POP DUP9 DUP2 DUP2 RETURNDATASIZE DUP4 GT PUSH2 0x2166 JUMPI JUMPDEST PUSH2 0x2152 DUP2 DUP4 PUSH2 0x16A1 JUMP JUMPDEST DUP2 ADD SUB SLT PUSH2 0x2162 JUMPI MLOAD SWAP1 CODESIZE PUSH2 0x1FE0 JUMP JUMPDEST DUP10 DUP1 REVERT JUMPDEST POP RETURNDATASIZE PUSH2 0x2148 JUMP JUMPDEST DUP13 MLOAD RETURNDATASIZE DUP13 DUP3 RETURNDATACOPY RETURNDATASIZE SWAP1 REVERT JUMPDEST POP DUP11 MLOAD PUSH3 0x461BCD PUSH1 0xE5 SHL DUP2 MSTORE DUP1 DUP8 ADD DUP10 SWAP1 MSTORE PUSH1 0x14 DUP2 DUP6 ADD MSTORE PUSH20 0x151BDAD95B88185C1C1C9BDD994819985A5B1959 PUSH1 0x62 SHL PUSH1 0x44 DUP3 ADD MSTORE PUSH1 0x64 SWAP1 REVERT JUMPDEST SWAP1 POP DUP10 DUP2 DUP2 RETURNDATASIZE DUP4 GT PUSH2 0x21E3 JUMPI JUMPDEST PUSH2 0x21C8 DUP2 DUP4 PUSH2 0x16A1 JUMP JUMPDEST DUP2 ADD SUB SLT PUSH2 0x21DF JUMPI PUSH2 0x21D9 SWAP1 PUSH2 0x1A01 JUMP JUMPDEST CODESIZE PUSH2 0x1F87 JUMP JUMPDEST DUP11 DUP1 REVERT JUMPDEST POP RETURNDATASIZE PUSH2 0x21BE JUMP JUMPDEST DUP14 MLOAD RETURNDATASIZE DUP14 DUP3 RETURNDATACOPY RETURNDATASIZE SWAP1 REVERT JUMPDEST POP POP POP POP POP PUSH1 0x1 SWAP1 JUMP JUMPDEST POP POP POP PUSH1 0x1 SWAP1 JUMP JUMPDEST PUSH1 0x1 DUP1 PUSH1 0xA0 SHL SUB DUP1 SWAP2 AND PUSH1 0x0 MSTORE PUSH1 0x7 PUSH1 0x20 MSTORE PUSH1 0x40 PUSH1 0x0 KECCAK256 SWAP2 AND PUSH1 0x0 MSTORE PUSH1 0x20 MSTORE PUSH2 0x2232 PUSH1 0x40 PUSH1 0x0 KECCAK256 PUSH2 0x16C3 JUMP JUMPDEST SWAP1 DUP2 MLOAD ISZERO PUSH2 0x223C JUMPI JUMP JUMPDEST PUSH1 0x40 MLOAD PUSH3 0x461BCD PUSH1 0xE5 SHL DUP2 MSTORE PUSH1 0x20 PUSH1 0x4 DUP3 ADD MSTORE PUSH1 0x11 PUSH1 0x24 DUP3 ADD MSTORE PUSH17 0x14DDD85C081C185D1A081B9BDD081CD95D PUSH1 0x7A SHL PUSH1 0x44 DUP3 ADD MSTORE PUSH1 0x64 SWAP1 REVERT JUMPDEST ISZERO PUSH2 0x227C JUMPI JUMP JUMPDEST PUSH1 0x40 MLOAD PUSH3 0x461BCD PUSH1 0xE5 SHL DUP2 MSTORE PUSH1 0x20 PUSH1 0x4 DUP3 ADD MSTORE PUSH1 0x15 PUSH1 0x24 DUP3 ADD MSTORE PUSH21 0x4F6E6C792063616C6C61626C652062792053616665 PUSH1 0x58 SHL PUSH1 0x44 DUP3 ADD MSTORE PUSH1 0x64 SWAP1 REVERT JUMPDEST ISZERO PUSH2 0x22C0 JUMPI JUMP JUMPDEST PUSH1 0x40 MLOAD PUSH3 0x461BCD PUSH1 0xE5 SHL DUP2 MSTORE PUSH1 0x20 PUSH1 0x4 DUP3 ADD MSTORE PUSH1 0x14 PUSH1 0x24 DUP3 ADD MSTORE PUSH20 0x13585B9859D95C881B9BDD08185C1C1C9BDD9959 PUSH1 0x62 SHL PUSH1 0x44 DUP3 ADD MSTORE PUSH1 0x64 SWAP1 REVERT JUMPDEST PUSH1 0x0 NOT DUP2 EQ PUSH2 0x19EB JUMPI PUSH1 0x1 ADD SWAP1 JUMP JUMPDEST SWAP2 SWAP1 DUP2 LT ISZERO PUSH2 0x231B JUMPI PUSH1 0x5 SHL ADD SWAP1 JUMP JUMPDEST PUSH4 0x4E487B71 PUSH1 0xE0 SHL PUSH1 0x0 MSTORE PUSH1 0x32 PUSH1 0x4 MSTORE PUSH1 0x24 PUSH1 0x0 REVERT JUMPDEST PUSH1 0x2 SLOAD PUSH1 0x40 MLOAD PUSH4 0x70A08231 PUSH1 0xE0 SHL DUP2 MSTORE PUSH1 0x1 PUSH1 0x1 PUSH1 0xA0 SHL SUB SWAP3 DUP4 AND PUSH1 0x4 DUP3 ADD MSTORE SWAP2 PUSH1 0x20 SWAP2 DUP4 SWAP2 PUSH1 0x24 SWAP2 DUP4 SWAP2 AND GAS STATICCALL SWAP1 DUP2 ISZERO PUSH2 0x475 JUMPI PUSH1 0x0 SWAP2 PUSH2 0x2371 JUMPI POP SWAP1 JUMP JUMPDEST SWAP1 PUSH1 0x20 DUP3 RETURNDATASIZE DUP3 GT PUSH2 0x2397 JUMPI JUMPDEST DUP2 PUSH2 0x238A PUSH1 0x20 SWAP4 DUP4 PUSH2 0x16A1 JUMP JUMPDEST DUP2 ADD SUB SLT PUSH2 0x1C18 JUMPI POP MLOAD SWAP1 JUMP JUMPDEST RETURNDATASIZE SWAP2 POP PUSH2 0x237D JUMP INVALID LOG2 PUSH5 0x6970667358 0x22 SLT KECCAK256 PUSH25 0x3AA6DA928B91BADEDB0CE5823E2E36A1DED42424BEBAAED6F4 0x1F 0xB3 0xC2 PUSH5 0x5AC764736F PUSH13 0x63430008140033000000000000 "
        },
        "methodIdentifiers": {
          "approveManager(address)": "b5eee722",
          "approvedManagers(address)": "63c0f133",
          "batchCollectAndConvertFees(address,uint256[])": "af0d22da",
          "batchWithdrawAndCollect(address,uint256[])": "425cb44b",
          "collectAndConvertFees(address,uint256)": "e6370309",
          "owner()": "8da5cb5b",
          "quoter()": "c6bbd5a7",
          "removeManager(address)": "ac18de43",
          "renounceOwnership()": "715018a6",
          "rewardStable()": "f2bf87e3",
          "rewardToken()": "f7c618c1",
          "setRewardStable(address)": "c13d2f75",
          "setRewardToken(address)": "8aee8127",
          "setSlippageTolerance(uint256)": "117da1ee",
          "setSwapPath(address,address,bytes)": "483103a4",
          "slippageTolerance()": "d03153aa",
          "swapPaths(address,address)": "4a6a749c",
          "swapRouter()": "c31c9c07",
          "transferOwnership(address)": "f2fde38b",
          "withdrawAndCollect(address,uint256)": "ac6e07ee"
        }
      }
    }
  }
}